{
  "contracts/strategies/aave/AaveSupplyOnlyStrategy.sol": {
    "AaveSupplyOnlyStrategy": {
      "abi": [
        {
          "inputs": [],
          "name": "EnforcedPause",
          "type": "error"
        },
        {
          "inputs": [],
          "name": "ExpectedPause",
          "type": "error"
        },
        {
          "inputs": [],
          "name": "InvalidInitialization",
          "type": "error"
        },
        {
          "inputs": [],
          "name": "NotInitializing",
          "type": "error"
        },
        {
          "inputs": [
            {
              "internalType": "address",
              "name": "owner",
              "type": "address"
            }
          ],
          "name": "OwnableInvalidOwner",
          "type": "error"
        },
        {
          "inputs": [
            {
              "internalType": "address",
              "name": "account",
              "type": "address"
            }
          ],
          "name": "OwnableUnauthorizedAccount",
          "type": "error"
        },
        {
          "anonymous": false,
          "inputs": [
            {
              "indexed": false,
              "internalType": "uint256",
              "name": "callFeeAmount",
              "type": "uint256"
            },
            {
              "indexed": false,
              "internalType": "uint256",
              "name": "feeAmount",
              "type": "uint256"
            },
            {
              "indexed": false,
              "internalType": "uint256",
              "name": "strategistFeeAmount",
              "type": "uint256"
            }
          ],
          "name": "ChargedFees",
          "type": "event"
        },
        {
          "anonymous": false,
          "inputs": [
            {
              "indexed": false,
              "internalType": "uint256",
              "name": "amountScaled",
              "type": "uint256"
            }
          ],
          "name": "Deposit",
          "type": "event"
        },
        {
          "anonymous": false,
          "inputs": [
            {
              "indexed": false,
              "internalType": "address",
              "name": "feeCollector",
              "type": "address"
            }
          ],
          "name": "FeeCollectorSetted",
          "type": "event"
        },
        {
          "anonymous": false,
          "inputs": [
            {
              "indexed": false,
              "internalType": "address",
              "name": "feeRecipient",
              "type": "address"
            }
          ],
          "name": "FeeRecipientSetted",
          "type": "event"
        },
        {
          "anonymous": false,
          "inputs": [
            {
              "indexed": false,
              "internalType": "uint64",
              "name": "version",
              "type": "uint64"
            }
          ],
          "name": "Initialized",
          "type": "event"
        },
        {
          "anonymous": false,
          "inputs": [
            {
              "indexed": false,
              "internalType": "address",
              "name": "manager",
              "type": "address"
            }
          ],
          "name": "ManagerSetted",
          "type": "event"
        },
        {
          "anonymous": false,
          "inputs": [
            {
              "indexed": true,
              "internalType": "address",
              "name": "previousOwner",
              "type": "address"
            },
            {
              "indexed": true,
              "internalType": "address",
              "name": "newOwner",
              "type": "address"
            }
          ],
          "name": "OwnershipTransferred",
          "type": "event"
        },
        {
          "anonymous": false,
          "inputs": [
            {
              "indexed": false,
              "internalType": "address",
              "name": "account",
              "type": "address"
            }
          ],
          "name": "Paused",
          "type": "event"
        },
        {
          "anonymous": false,
          "inputs": [
            {
              "indexed": false,
              "internalType": "address",
              "name": "manager",
              "type": "address"
            }
          ],
          "name": "StrategistSetted",
          "type": "event"
        },
        {
          "anonymous": false,
          "inputs": [
            {
              "indexed": false,
              "internalType": "uint256",
              "name": "feeId",
              "type": "uint256"
            }
          ],
          "name": "StrategyFeeIdSetted",
          "type": "event"
        },
        {
          "anonymous": false,
          "inputs": [
            {
              "indexed": false,
              "internalType": "address",
              "name": "harvester",
              "type": "address"
            },
            {
              "indexed": false,
              "internalType": "uint256",
              "name": "assetHarvested",
              "type": "uint256"
            },
            {
              "indexed": false,
              "internalType": "uint256",
              "name": "tvl",
              "type": "uint256"
            }
          ],
          "name": "StrategyHarvest",
          "type": "event"
        },
        {
          "anonymous": false,
          "inputs": [
            {
              "indexed": false,
              "internalType": "address",
              "name": "router",
              "type": "address"
            }
          ],
          "name": "SwapRouterSetted",
          "type": "event"
        },
        {
          "anonymous": false,
          "inputs": [
            {
              "indexed": false,
              "internalType": "address",
              "name": "account",
              "type": "address"
            }
          ],
          "name": "Unpaused",
          "type": "event"
        },
        {
          "anonymous": false,
          "inputs": [
            {
              "indexed": false,
              "internalType": "address",
              "name": "vault",
              "type": "address"
            }
          ],
          "name": "VaultSetted",
          "type": "event"
        },
        {
          "anonymous": false,
          "inputs": [
            {
              "indexed": false,
              "internalType": "uint256",
              "name": "amountScaled",
              "type": "uint256"
            }
          ],
          "name": "Withdraw",
          "type": "event"
        },
        {
          "anonymous": false,
          "inputs": [
            {
              "indexed": false,
              "internalType": "uint256",
              "name": "fee",
              "type": "uint256"
            }
          ],
          "name": "WithdrawalFeeSetted",
          "type": "event"
        },
        {
          "inputs": [],
          "name": "WETH",
          "outputs": [
            {
              "internalType": "address",
              "name": "",
              "type": "address"
            }
          ],
          "stateMutability": "view",
          "type": "function"
        },
        {
          "inputs": [],
          "name": "_aToken",
          "outputs": [
            {
              "internalType": "address",
              "name": "",
              "type": "address"
            }
          ],
          "stateMutability": "view",
          "type": "function"
        },
        {
          "inputs": [],
          "name": "_asset",
          "outputs": [
            {
              "internalType": "address",
              "name": "",
              "type": "address"
            }
          ],
          "stateMutability": "view",
          "type": "function"
        },
        {
          "inputs": [],
          "name": "_iToken",
          "outputs": [
            {
              "internalType": "address",
              "name": "",
              "type": "address"
            }
          ],
          "stateMutability": "view",
          "type": "function"
        },
        {
          "inputs": [],
          "name": "_lendingPool",
          "outputs": [
            {
              "internalType": "address",
              "name": "",
              "type": "address"
            }
          ],
          "stateMutability": "view",
          "type": "function"
        },
        {
          "inputs": [
            {
              "internalType": "uint256",
              "name": "",
              "type": "uint256"
            }
          ],
          "name": "_rewardTokens",
          "outputs": [
            {
              "internalType": "address",
              "name": "",
              "type": "address"
            }
          ],
          "stateMutability": "view",
          "type": "function"
        },
        {
          "inputs": [],
          "name": "_rewardsController",
          "outputs": [
            {
              "internalType": "address",
              "name": "",
              "type": "address"
            }
          ],
          "stateMutability": "view",
          "type": "function"
        },
        {
          "inputs": [
            {
              "internalType": "address",
              "name": "rewardToken",
              "type": "address"
            }
          ],
          "name": "addReward",
          "outputs": [],
          "stateMutability": "nonpayable",
          "type": "function"
        },
        {
          "inputs": [],
          "name": "beforeDeposit",
          "outputs": [],
          "stateMutability": "nonpayable",
          "type": "function"
        },
        {
          "inputs": [],
          "name": "callReward",
          "outputs": [
            {
              "internalType": "uint256",
              "name": "",
              "type": "uint256"
            }
          ],
          "stateMutability": "view",
          "type": "function"
        },
        {
          "inputs": [],
          "name": "deposit",
          "outputs": [],
          "stateMutability": "nonpayable",
          "type": "function"
        },
        {
          "inputs": [],
          "name": "exitStrategy",
          "outputs": [],
          "stateMutability": "nonpayable",
          "type": "function"
        },
        {
          "inputs": [],
          "name": "getAllFees",
          "outputs": [
            {
              "components": [
                {
                  "components": [
                    {
                      "internalType": "uint256",
                      "name": "total",
                      "type": "uint256"
                    },
                    {
                      "internalType": "uint256",
                      "name": "protocol",
                      "type": "uint256"
                    },
                    {
                      "internalType": "uint256",
                      "name": "call",
                      "type": "uint256"
                    },
                    {
                      "internalType": "uint256",
                      "name": "strategist",
                      "type": "uint256"
                    },
                    {
                      "internalType": "string",
                      "name": "label",
                      "type": "string"
                    },
                    {
                      "internalType": "bool",
                      "name": "active",
                      "type": "bool"
                    }
                  ],
                  "internalType": "struct IFeeCollector.FeeCategory",
                  "name": "performance",
                  "type": "tuple"
                },
                {
                  "internalType": "uint256",
                  "name": "deposit",
                  "type": "uint256"
                },
                {
                  "internalType": "uint256",
                  "name": "withdraw",
                  "type": "uint256"
                }
              ],
              "internalType": "struct IFeeCollector.AllFees",
              "name": "",
              "type": "tuple"
            }
          ],
          "stateMutability": "view",
          "type": "function"
        },
        {
          "inputs": [],
          "name": "getAsset",
          "outputs": [
            {
              "internalType": "address",
              "name": "asset",
              "type": "address"
            }
          ],
          "stateMutability": "view",
          "type": "function"
        },
        {
          "inputs": [],
          "name": "getBalanceOf",
          "outputs": [
            {
              "internalType": "uint256",
              "name": "",
              "type": "uint256"
            }
          ],
          "stateMutability": "view",
          "type": "function"
        },
        {
          "inputs": [],
          "name": "getBalanceOfAsset",
          "outputs": [
            {
              "internalType": "uint256",
              "name": "",
              "type": "uint256"
            }
          ],
          "stateMutability": "view",
          "type": "function"
        },
        {
          "inputs": [],
          "name": "getBalanceOfPool",
          "outputs": [
            {
              "internalType": "uint256",
              "name": "balanceOfPool",
              "type": "uint256"
            }
          ],
          "stateMutability": "view",
          "type": "function"
        },
        {
          "inputs": [],
          "name": "getBaseRate",
          "outputs": [
            {
              "internalType": "uint256",
              "name": "baseRate",
              "type": "uint256"
            }
          ],
          "stateMutability": "view",
          "type": "function"
        },
        {
          "inputs": [],
          "name": "getDepositFee",
          "outputs": [
            {
              "internalType": "uint256",
              "name": "depositFee",
              "type": "uint256"
            }
          ],
          "stateMutability": "pure",
          "type": "function"
        },
        {
          "inputs": [],
          "name": "getLastHarvest",
          "outputs": [
            {
              "internalType": "uint256",
              "name": "lastHarvest",
              "type": "uint256"
            }
          ],
          "stateMutability": "view",
          "type": "function"
        },
        {
          "inputs": [],
          "name": "getLockedProfit",
          "outputs": [
            {
              "internalType": "uint256",
              "name": "",
              "type": "uint256"
            }
          ],
          "stateMutability": "view",
          "type": "function"
        },
        {
          "inputs": [],
          "name": "getStrategyFeeId",
          "outputs": [
            {
              "internalType": "uint256",
              "name": "strategyFeeId",
              "type": "uint256"
            }
          ],
          "stateMutability": "view",
          "type": "function"
        },
        {
          "inputs": [],
          "name": "getVault",
          "outputs": [
            {
              "internalType": "address",
              "name": "vault",
              "type": "address"
            }
          ],
          "stateMutability": "view",
          "type": "function"
        },
        {
          "inputs": [],
          "name": "getWithdrawFee",
          "outputs": [
            {
              "internalType": "uint256",
              "name": "withdrawFee",
              "type": "uint256"
            }
          ],
          "stateMutability": "view",
          "type": "function"
        },
        {
          "inputs": [],
          "name": "harvest",
          "outputs": [],
          "stateMutability": "nonpayable",
          "type": "function"
        },
        {
          "inputs": [
            {
              "internalType": "address",
              "name": "callFeeRecipient",
              "type": "address"
            }
          ],
          "name": "harvestWithCallFeeRecipient",
          "outputs": [],
          "stateMutability": "nonpayable",
          "type": "function"
        },
        {
          "inputs": [
            {
              "internalType": "address",
              "name": "poolAddressesProvider",
              "type": "address"
            },
            {
              "internalType": "address",
              "name": "_WETH",
              "type": "address"
            },
            {
              "internalType": "address",
              "name": "aToken",
              "type": "address"
            },
            {
              "internalType": "bool",
              "name": "harvestOnDeposit",
              "type": "bool"
            },
            {
              "internalType": "address",
              "name": "asset",
              "type": "address"
            },
            {
              "internalType": "address[]",
              "name": "rewardTokens",
              "type": "address[]"
            },
            {
              "components": [
                {
                  "internalType": "address",
                  "name": "vault",
                  "type": "address"
                },
                {
                  "internalType": "address",
                  "name": "manager",
                  "type": "address"
                },
                {
                  "internalType": "address",
                  "name": "swapRouter",
                  "type": "address"
                },
                {
                  "internalType": "address",
                  "name": "strategist",
                  "type": "address"
                },
                {
                  "internalType": "address",
                  "name": "feeRecipient",
                  "type": "address"
                },
                {
                  "internalType": "address",
                  "name": "feeCollector",
                  "type": "address"
                }
              ],
              "internalType": "struct BaseNativeStrategy.Config",
              "name": "config",
              "type": "tuple"
            }
          ],
          "name": "initialize",
          "outputs": [],
          "stateMutability": "nonpayable",
          "type": "function"
        },
        {
          "inputs": [],
          "name": "managerHarvest",
          "outputs": [],
          "stateMutability": "nonpayable",
          "type": "function"
        },
        {
          "inputs": [
            {
              "internalType": "address",
              "name": "claimer",
              "type": "address"
            },
            {
              "internalType": "address[]",
              "name": "users",
              "type": "address[]"
            },
            {
              "internalType": "address[]",
              "name": "tokens",
              "type": "address[]"
            },
            {
              "internalType": "uint256[]",
              "name": "amounts",
              "type": "uint256[]"
            },
            {
              "internalType": "bytes32[][]",
              "name": "proofs",
              "type": "bytes32[][]"
            }
          ],
          "name": "merkleClaim",
          "outputs": [],
          "stateMutability": "nonpayable",
          "type": "function"
        },
        {
          "inputs": [],
          "name": "owner",
          "outputs": [
            {
              "internalType": "address",
              "name": "",
              "type": "address"
            }
          ],
          "stateMutability": "view",
          "type": "function"
        },
        {
          "inputs": [],
          "name": "panic",
          "outputs": [],
          "stateMutability": "nonpayable",
          "type": "function"
        },
        {
          "inputs": [],
          "name": "pause",
          "outputs": [],
          "stateMutability": "nonpayable",
          "type": "function"
        },
        {
          "inputs": [],
          "name": "paused",
          "outputs": [
            {
              "internalType": "bool",
              "name": "",
              "type": "bool"
            }
          ],
          "stateMutability": "view",
          "type": "function"
        },
        {
          "inputs": [
            {
              "internalType": "uint256",
              "name": "i",
              "type": "uint256"
            }
          ],
          "name": "removeReward",
          "outputs": [],
          "stateMutability": "nonpayable",
          "type": "function"
        },
        {
          "inputs": [],
          "name": "renounceOwnership",
          "outputs": [],
          "stateMutability": "nonpayable",
          "type": "function"
        },
        {
          "inputs": [],
          "name": "resetRewards",
          "outputs": [],
          "stateMutability": "nonpayable",
          "type": "function"
        },
        {
          "inputs": [],
          "name": "rewardsAvailable",
          "outputs": [
            {
              "internalType": "uint256",
              "name": "",
              "type": "uint256"
            }
          ],
          "stateMutability": "view",
          "type": "function"
        },
        {
          "inputs": [],
          "name": "rewardsLength",
          "outputs": [
            {
              "internalType": "uint256",
              "name": "",
              "type": "uint256"
            }
          ],
          "stateMutability": "view",
          "type": "function"
        },
        {
          "inputs": [
            {
              "internalType": "address",
              "name": "newAsset",
              "type": "address"
            }
          ],
          "name": "setAsset",
          "outputs": [],
          "stateMutability": "nonpayable",
          "type": "function"
        },
        {
          "inputs": [
            {
              "internalType": "contract IFeeCollector",
              "name": "newFeeCollector",
              "type": "address"
            }
          ],
          "name": "setFeeCollector",
          "outputs": [],
          "stateMutability": "nonpayable",
          "type": "function"
        },
        {
          "inputs": [
            {
              "internalType": "address",
              "name": "newFeeRecipient",
              "type": "address"
            }
          ],
          "name": "setFeeRecipient",
          "outputs": [],
          "stateMutability": "nonpayable",
          "type": "function"
        },
        {
          "inputs": [
            {
              "internalType": "bool",
              "name": "harvestOnDeposit",
              "type": "bool"
            }
          ],
          "name": "setHarvestOnDeposit",
          "outputs": [],
          "stateMutability": "nonpayable",
          "type": "function"
        },
        {
          "inputs": [
            {
              "internalType": "uint256",
              "name": "newDuration",
              "type": "uint256"
            }
          ],
          "name": "setLockDuration",
          "outputs": [],
          "stateMutability": "nonpayable",
          "type": "function"
        },
        {
          "inputs": [
            {
              "internalType": "address",
              "name": "newManager",
              "type": "address"
            }
          ],
          "name": "setManager",
          "outputs": [],
          "stateMutability": "nonpayable",
          "type": "function"
        },
        {
          "inputs": [
            {
              "internalType": "address",
              "name": "newReward",
              "type": "address"
            }
          ],
          "name": "setReward",
          "outputs": [],
          "stateMutability": "nonpayable",
          "type": "function"
        },
        {
          "inputs": [
            {
              "internalType": "address",
              "name": "rewardToken",
              "type": "address"
            },
            {
              "internalType": "uint256",
              "name": "minAmount",
              "type": "uint256"
            }
          ],
          "name": "setRewardMinAmount",
          "outputs": [],
          "stateMutability": "nonpayable",
          "type": "function"
        },
        {
          "inputs": [
            {
              "internalType": "address",
              "name": "newRewarder",
              "type": "address"
            }
          ],
          "name": "setRewarder",
          "outputs": [],
          "stateMutability": "nonpayable",
          "type": "function"
        },
        {
          "inputs": [
            {
              "internalType": "address",
              "name": "newStrategist",
              "type": "address"
            }
          ],
          "name": "setStrategist",
          "outputs": [],
          "stateMutability": "nonpayable",
          "type": "function"
        },
        {
          "inputs": [
            {
              "internalType": "uint256",
              "name": "newFeeId",
              "type": "uint256"
            }
          ],
          "name": "setStrategyFeeId",
          "outputs": [],
          "stateMutability": "nonpayable",
          "type": "function"
        },
        {
          "inputs": [
            {
              "internalType": "address",
              "name": "newRouter",
              "type": "address"
            }
          ],
          "name": "setSwapRouter",
          "outputs": [],
          "stateMutability": "nonpayable",
          "type": "function"
        },
        {
          "inputs": [
            {
              "internalType": "address",
              "name": "newVault",
              "type": "address"
            }
          ],
          "name": "setVault",
          "outputs": [],
          "stateMutability": "nonpayable",
          "type": "function"
        },
        {
          "inputs": [
            {
              "internalType": "uint256",
              "name": "newFee",
              "type": "uint256"
            }
          ],
          "name": "setWithdrawalFee",
          "outputs": [],
          "stateMutability": "nonpayable",
          "type": "function"
        },
        {
          "inputs": [],
          "name": "swapRouter",
          "outputs": [
            {
              "internalType": "address",
              "name": "router",
              "type": "address"
            }
          ],
          "stateMutability": "view",
          "type": "function"
        },
        {
          "inputs": [
            {
              "internalType": "address",
              "name": "newOwner",
              "type": "address"
            }
          ],
          "name": "transferOwnership",
          "outputs": [],
          "stateMutability": "nonpayable",
          "type": "function"
        },
        {
          "inputs": [],
          "name": "unpause",
          "outputs": [],
          "stateMutability": "nonpayable",
          "type": "function"
        },
        {
          "inputs": [
            {
              "internalType": "uint256",
              "name": "amountScaled",
              "type": "uint256"
            }
          ],
          "name": "withdraw",
          "outputs": [
            {
              "internalType": "uint256",
              "name": "withdrawn",
              "type": "uint256"
            }
          ],
          "stateMutability": "nonpayable",
          "type": "function"
        },
        {
          "stateMutability": "payable",
          "type": "receive"
        }
      ],
      "evm": {
        "bytecode": {
          "linkReferences": {},
          "object": "60808060405234601557613e8b908161001b8239f35b600080fdfe608080604052600436101561001d575b50361561001b57600080fd5b005b600090813560e01c9081630500510d14612ca0575080630de705b5146103445780630e8fbb5a14612c535780631540aa8914612c3857806319a501ad14612b60578063234e00e114612b39578063281c8f3214612b125780632e1a7d4d146129475780633a6462e4146103b35780633f4ba83a1461288357806341273657146128195780634641257d146128005780634700d3051461275a57806349883934146127175780634eb665af146126f4578063573fef0a1461217f578063582ab01b14611f9a5780635c222bad14611f735780635c975abb14611f31578063623d8bd214611828578063669fe8ee146111825780636817031b14611118578063715018a61461107f5780637a1a959b146110585780637c6ab20814610f875780638456cb5914610eee5780638d928af814610ec75780638da5cb5b14610e8157806397fd323d146103445780639c9b2e2114610db8578063a42dce8014610d4a578063a7e9ca8214610d0d578063ab7cc1f814610cf2578063ac1e502514610c57578063ad29f5da14610bed578063ad5c464814610bc7578063affd80b014610ba9578063b20feaaf14610ac1578063b655d0c414610870578063bbb356d514610852578063c31c9c071461082b578063c553173f14610765578063c7b9d530146106ab578063d0d552dd14610681578063d0e30db01461050e578063d0ebdbe7146104a4578063d801d94614610483578063df39030514610468578063e4580a3c146103b8578063e5932c40146103b3578063e74b981b14610349578063e7a7250a14610344578063ecbde5e614610307578063f2fde38b146102da578063f8b3c21e146102b75763fcea5e290361000f57346102b457806003193601126102b45760206001600160a01b0360015416604051908152f35b80fd5b50346102b457806003193601126102b45760206102d2613c58565b604051908152f35b50346102b45760203660031901126102b4576103046102f7612ce1565b6102ff61396f565b61381d565b80f35b50346102b457806003193601126102b45760206102d26103366103286137a6565b610330613c58565b90613810565b61033e6136aa565b90612e99565b612cc5565b50346102b45760203660031901126102b4577fb4fd7c525e4699047ffa750e100b105a6cb7ef166a17f93af958ed73cc44668d60206001600160a01b0361038e612ce1565b61039661396f565b16806001600160a01b03196009541617600955604051908152a180f35b612d0b565b50346102b457806003193601126102b45760249060206001600160a01b03600a5416604051938480927fa5ed41750000000000000000000000000000000000000000000000000000000082523060048301525afa90811561045c5790610424575b602090604051908152f35b506020813d602011610454575b8161043e60209383612dd4565b8101031261044f5760209051610419565b600080fd5b3d9150610431565b604051903d90823e3d90fd5b50346102b457806003193601126102b45760206102d26137a6565b50346102b457806003193601126102b45761049c6138dc565b610304612ec9565b50346102b45760203660031901126102b4577fcacb29288aca892f0969d6cda0607946bb31ef78b004e541423b04da5bc8842e60206001600160a01b036104e9612ce1565b6104f16138dc565b16806001600160a01b03196006541617600655604051908152a180f35b50346102b457806003193601126102b457610527613c03565b806105306137a6565b806105385750f35b60015460425460405163095ea7b360e01b81526001600160a01b0391821660048201526024810184905291602091839160449183918891165af180156106765761063b575b506001600160a01b0360425416906001600160a01b036001541690823b15610636576084849283604051958694859363e8eda9df60e01b8552600485015260248401523060448401528160648401525af1801561062b57610616575b50507f4d6ce1e535dbade1c23defba91e23b8f791ce5edc0cc320257a2b364e4e38426602061060c6103366103286137a6565b604051908152a180f35b8161062091612dd4565b6102b45780386105d9565b6040513d84823e3d90fd5b505050fd5b6020813d60201161066e575b8161065460209383612dd4565b8101031261066a5761066590612ebc565b61057d565b5050fd5b3d9150610647565b6040513d85823e3d90fd5b50346102b45760203660031901126102b45761030461069e612ce1565b6106a66138dc565b613740565b50346102b45760203660031901126102b4576106c5612ce1565b6008546001600160a01b0381163303610721576001600160a01b03196020916001600160a01b037f5f5efa858752444f35895d1a3a466db6cf3e319d27bac0a5b9bfe359fe49c4e094169182911617600855604051908152a180f35b606460405162461bcd60e51b815260206004820152600e60248201527f416c7265616479207365747465640000000000000000000000000000000000006044820152fd5b50346102b45760203660031901126102b45761077f6138dc565b6003546000198101908111610817576001600160a01b036107a26107d492612d24565b90549060031b1c166107b5600435612d24565b9091906001600160a01b038084549260031b9316831b921b1916179055565b600354801561080357600019016107ea81612d24565b6001600160a01b0382549160031b1b1916905560035580f35b602482634e487b7160e01b81526031600452fd5b602482634e487b7160e01b81526011600452fd5b50346102b457806003193601126102b45760206001600160a01b0360075416604051908152f35b50346102b457806003193601126102b4576020600354604051908152f35b50346102b457806003193601126102b4576001600160a01b0360425416906101e06001600160a01b03600154166024604051809581937f35ea6a7500000000000000000000000000000000000000000000000000000000835260048301525afa918215610ab45781926108ff575b60206fffffffffffffffffffffffffffffffff604085015116604051908152f35b809192506101e03d8111610aad575b6109188183612dd4565b810103916101e083126102b457604051926101e0840184811067ffffffffffffffff821117610a99576040526020136102b4576040516020810181811067ffffffffffffffff821117610a995760405282518152835261097a60208301613723565b602084015261098b60408301613723565b604084015261099c60608301613723565b60608401526109ad60808301613723565b60808401526109be60a08301613723565b60a084015260c082015164ffffffffff81168103610a955760c084015260e08201519061ffff821682036102b4575082610a886101c06fffffffffffffffffffffffffffffffff9460409460e06020980152610a1d6101008201613638565b610100850152610a306101208201613638565b610120850152610a436101408201613638565b610140850152610a566101608201613638565b610160850152610a696101808201613723565b610180850152610a7c6101a08201613723565b6101a085015201613723565b6101c082015292506108de565b5080fd5b602483634e487b7160e01b81526041600452fd5b503d61090e565b50604051903d90823e3d90fd5b50346102b457806003193601126102b4578060408051610ae081612db8565b610ae86136f1565b81528260208201520152610160610afd613aa4565b610b05612e19565b9260405191610b1383612db8565b825260208201908152604082019384526040519384926020845251916060602085015282516080850152602083015160a0850152604083015160c0850152606083015160e085015260a060808401519360c0610100870152610b8585518096816101408a015260208a8a019101612df6565b01511515610120850152516040840152516060830152601f01601f19168101030190f35b50346102b457806003193601126102b4576020600c54604051908152f35b50346102b457806003193601126102b4576001600160a01b036020915416604051908152f35b50346102b457806003193601126102b457610c066138dc565b6003548160035580610c16575080f35b600382527fc2575a0e9e593c00f959f8c92f12db2869c3395a3b0502d05e2516446f71f85b908101905b818110610c4c57505080f35b828155600101610c40565b50346102b45760203660031901126102b457600435610c746138dc565b60328111610cae576020817fb6b745e6274b3b4bddb8f8e1abe1780e23715ae20e9e98871bbaaafa71117b8292600b55604051908152a180f35b606460405162461bcd60e51b815260206004820152600a60248201527f4e6f7420636170706564000000000000000000000000000000000000000000006044820152fd5b50346102b457806003193601126102b45760206102d26136aa565b50346102b45760403660031901126102b4576001600160a01b03610d2f612ce1565b610d376138dc565b1681526004602052602435604082205580f35b50346102b45760203660031901126102b4576004356001600160a01b038116809103610a955760207f9c845dd2e74c50b3e7ff8a9624a1239f2f8b1f4ccb10e7f93f87e2bef841887f91610d9c61396f565b806001600160a01b0319600a541617600a55604051908152a180f35b50346102b45760203660031901126102b457610dd2612ce1565b610dda6138dc565b6001600160a01b0360015416610dfc6001600160a01b0383169182141561365f565b6001600160a01b0383541614610e3d57610e1581613a4a565b60035468010000000000000000811015610a9957906107b58260016103049401600355612d24565b606460405162461bcd60e51b815260206004820152600a60248201527f4e6f74206e6174697665000000000000000000000000000000000000000000006044820152fd5b50346102b457806003193601126102b45760206001600160a01b037f9016d09d72d40fdae2fd8ceac6b6234c7706214fd39c1cd1e609a0528c1993005416604051908152f35b50346102b457806003193601126102b45760206001600160a01b0360055416604051908152f35b50346102b457806003193601126102b457610f076138dc565b610f0f613c03565b600160ff197fcd5ed15c6e187e77e9aee88184c21f4f2182ab5827cb3b7e07fbedcd63f033005416177fcd5ed15c6e187e77e9aee88184c21f4f2182ab5827cb3b7e07fbedcd63f03300557f62e78cea01bee320cd4e420270b5ea74000d11b0c9f74754ebdbfc544b05a2586020604051338152a180f35b50346102b457806003193601126102b457610fae6001600160a01b03600554163314612e4e565b610fb66139d0565b61101060206001600160a01b03600154166001600160a01b036005541690610fdc6137a6565b918560405180968195829463a9059cbb60e01b845260048401602090939291936001600160a01b0360408201951681520152565b03925af1801561062b57611022575080f35b6020813d602011611050575b8161103b60209383612dd4565b81010312610a955761104c90612ebc565b5080f35b3d915061102e565b50346102b457806003193601126102b45760206001600160a01b0360415416604051908152f35b50346102b457806003193601126102b45761109861396f565b806001600160a01b037f9016d09d72d40fdae2fd8ceac6b6234c7706214fd39c1cd1e609a0528c199300546001600160a01b031981167f9016d09d72d40fdae2fd8ceac6b6234c7706214fd39c1cd1e609a0528c19930055167f8be0079c531659141344cd1fd0a4f28419497f9722a3daafe3b4186f6b6457e08280a380f35b50346102b45760203660031901126102b4577f818d6ac90c5da038e3ce97fe5c8cbd5c3720fdc8e5a6c1665d601628794b011460206001600160a01b0361115d612ce1565b61116561396f565b16806001600160a01b03196005541617600555604051908152a180f35b50346102b4576101803660031901126102b45761119d612ce1565b602435906001600160a01b038216809203611824576044356001600160a01b03811680910361182057606435801515810361181c576084356001600160a01b0381168091036118185760a4359167ffffffffffffffff831161181457366023840112156118145782600401359467ffffffffffffffff8611611800578560051b936040519661122f6020870189612dd4565b87526020870160248196830101913683116117e057602401905b8282106117e85750505060c060c31936011261173a576040519461126c86612d86565b60c4356001600160a01b03811681036117e457865260e4356001600160a01b03811681036117e45760208701908152610104356001600160a01b03811681036117e05760408801908152610124356001600160a01b03811681036117dc576060890190815261014435916001600160a01b03831683036117d85760808a0192835261016435936001600160a01b03851685036117d45760a08b019485527ff0c57e16840df040f15088dc2f81fe391c3923bec73e23a9662efc9c229c6a00549a60ff8c60401c16159b8c67ffffffffffffffff8216801591826117cc575b5060011490816117c2575b1590816117b9575b50611790576001600160a01b03989693948980968f82968360209d9b9781978294600167ffffffffffffffff198316177ff0c57e16840df040f15088dc2f81fe391c3923bec73e23a9662efc9c229c6a0055611751575b506113bd613c93565b6113c5613c93565b6113cd613c93565b6113d63361381d565b6113de613c93565b51166001600160a01b0319600554161760055551166001600160a01b0319600654161760065551166001600160a01b0319600754161760075551166001600160a01b0319600854161760085551166001600160a01b0319600954161760095551166001600160a01b0319600a541617600a558a600b556001600160a01b031960415416176041556004604051809481937f026b1d5f000000000000000000000000000000000000000000000000000000008352165afa8015611746578890611702575b6001600160a01b039150166001600160a01b031960425416176042556116e4575b855b845181101561155d576001600160a01b0360208260051b87010151166114e86138dc565b6114ff6001600160a01b036001541682141561365f565b6001600160a01b038854168114610e3d5761151981613a4a565b6003546801000000000000000081101561154957600192916107b582856115439401600355612d24565b016114c4565b602489634e487b7160e01b81526041600452fd5b50909291936001600160a01b03198654161785556001600160a01b03196001541617600155519067ffffffffffffffff82116116d0576801000000000000000082116116d0576003548260035580831061168c575b5060038452835b82811061164f5750505062015180600e556115d15780f35b68ff0000000000000000197ff0c57e16840df040f15088dc2f81fe391c3923bec73e23a9662efc9c229c6a0054167ff0c57e16840df040f15088dc2f81fe391c3923bec73e23a9662efc9c229c6a00557fc7f505b2f371ae2175ee4913f4499e1f2633a7b5936321eed1cdaeb6115181d2602060405160018152a180f35b60019060206001600160a01b03845116930192817fc2575a0e9e593c00f959f8c92f12db2869c3395a3b0502d05e2516446f71f85b0155016115b9565b600385527fc2575a0e9e593c00f959f8c92f12db2869c3395a3b0502d05e2516446f71f85b9081019083015b8181106116c557506115b2565b8581556001016116b8565b602484634e487b7160e01b81526041600452fd5b6116ec6138dc565b600160ff19600f541617600f5585600e556114c2565b506020813d60201161173e575b8161171c60209383612dd4565b8101031261173a576117356001600160a01b0391613638565b6114a1565b8780fd5b3d915061170f565b6040513d8a823e3d90fd5b68ffffffffffffffffff191668010000000000000001177ff0c57e16840df040f15088dc2f81fe391c3923bec73e23a9662efc9c229c6a0055386113b4565b5060048f7ff92ee8a9000000000000000000000000000000000000000000000000000000008152fd5b9050153861135d565b303b159150611355565b91508e61134a565b8d80fd5b8c80fd5b8b80fd5b8a80fd5b8980fd5b602080916117f584612cf7565b815201910190611249565b602488634e487b7160e01b81526041600452fd5b8680fd5b8580fd5b8480fd5b8380fd5b8280fd5b50346102b45760203660031901126102b457611842612ce1565b61184a613c03565b815b600354811015611992576001600160a01b0361186782612d24565b90549060031b1c1673eeeeeeeeeeeeeeeeeeeeeeeeeeeeeeeeeeeeeeee81146000146118e65750826001600160a01b038154164790803b15611824578290600460405180948193630d0e30db60e41b83525af1801561062b576118d1575b50506001905b0161184c565b816118db91612dd4565b6118245782386118c5565b929190604051936370a0823160e01b8552306004860152602085602481845afa8015611987578490611950575b849550816001949552600460205260408620548111611934575b50506118cb565b611949916001600160a01b0387541690613cec565b388061192d565b506020943d861161197f575b6119668682612dd4565b6020816000978101031261181857519394508493611913565b3d955061195c565b6040513d86823e3d90fd5b506001600160a01b038254166040516370a0823160e01b8152306004820152602081602481855afa908115611987578491611eff575b5081845260046020526040842054106119df578280f35b6119e7613aa4565b916040516370a0823160e01b8152306004820152602081602481865afa908115611e33578591611ecc575b506020670de0b6b3a7640000611a2d611a7d9387519061364c565b0492670de0b6b3a7640000611a4660408801518661364c565b049485918860405180968195829463a9059cbb60e01b845260048401602090939291936001600160a01b0360408201951681520152565b03925af18015611e3357611e95575b50670de0b6b3a7640000611aa460208501518361364c565b855460095460405163a9059cbb60e01b81526001600160a01b0391821660048201529390920460248401819052959291602091839160449183918b91165af18015611e8a57611e3e575b50670de0b6b3a7640000916060611b079201519061364c565b845460085460405163a9059cbb60e01b81526001600160a01b03918216600482015293909204602484018190529291602091839160449183918a91165af18015611e3357611dd1575b50906060917fd255b592c7f268a73e534da5219a60ff911b4cf6daae21c7d20527dd657bd99a9360405192835260208301526040820152a16001546001600160a01b031680611d915750611bba6001600160a01b038254166001600160a01b036001541690613dde565b611bc26137a6565b611bd3611bcd6136aa565b82613810565b600d5542600c55611be2613c03565b81611beb6137a6565b80611c3d575b505060607f51e908723a339cd8d3fd3d8a2e4f2bdde81ddb7d26ca1753f1f515e0b07a513b91611c256103366103286137a6565b6040519133835260208301526040820152a138808280f35b60015460425460405163095ea7b360e01b81526001600160a01b0391821660048201526024810184905291602091839160449183918891165af1801561067657611d5a575b506001600160a01b0360425416906001600160a01b036001541690823b15611820576084849283604051958694859363e8eda9df60e01b8552600485015260248401523060448401528160648401525af1801561062b57611d45575b505060607f51e908723a339cd8d3fd3d8a2e4f2bdde81ddb7d26ca1753f1f515e0b07a513b917f4d6ce1e535dbade1c23defba91e23b8f791ce5edc0cc320257a2b364e4e384266020611d356103366103286137a6565b604051908152a191839150611bf1565b81611d4f91612dd4565b610a95578138611cde565b6020813d602011611d89575b81611d7360209383612dd4565b8101031261182457611d8490612ebc565b611c82565b3d9150611d66565b6001600160a01b0382541690818103611dc1575b5050611dbc6001600160a01b036001541680613dde565b611bba565b611dca91613dde565b3880611da5565b91906020833d602011611e2b575b81611dec60209383612dd4565b8101031261181c577fd255b592c7f268a73e534da5219a60ff911b4cf6daae21c7d20527dd657bd99a93611e21606094612ebc565b5093509091611b50565b3d9150611ddf565b6040513d87823e3d90fd5b916020833d602011611e82575b81611e5860209383612dd4565b81010312611818576060611b0792611e78670de0b6b3a764000095612ebc565b5092505091611aee565b3d9150611e4b565b6040513d88823e3d90fd5b6020813d602011611ec4575b81611eae60209383612dd4565b8101031261181c57611ebf90612ebc565b611a8c565b3d9150611ea1565b90506020813d602011611ef7575b81611ee760209383612dd4565b8101031261044f57516020611a12565b3d9150611eda565b90506020813d602011611f29575b81611f1a60209383612dd4565b8101031261044f5751386119c8565b3d9150611f0d565b50346102b457806003193601126102b457602060ff7fcd5ed15c6e187e77e9aee88184c21f4f2182ab5827cb3b7e07fbedcd63f0330054166040519015158152f35b50346102b457806003193601126102b45760206001600160a01b0360015416604051908152f35b50346102b45760a03660031901126102b457611fb4612ce1565b9060243567ffffffffffffffff8111610a9557611fd5903690600401612d55565b909260443567ffffffffffffffff811161182057611ff7903690600401612d55565b9060643567ffffffffffffffff811161181857612018903690600401612d55565b91909260843567ffffffffffffffff811161173a57906120476001600160a01b03959493923690600401612d55565b9590961698893b1561217b57916120ae9161209c6120c09695946040999899519a7f71ee95c0000000000000000000000000000000000000000000000000000000008c52608060048d015260848c01916135b9565b8981036003190160248b0152916135b9565b868103600319016044880152916135fb565b91600319848403016064850152808352602083019060208160051b85010193838791601e1982360301905b84841061211f575088808981818e8183818f03925af1801561062b5761210e5750f35b8161211891612dd4565b6102b45780f35b90919293949596601f198282030187528735838112156117e057840160208135910167ffffffffffffffff82116117dc578160051b360381136117dc5761216c60019360209384936135fb565b990197019594019291906120eb565b8880fd5b50346102b457806003193601126102b4576121a66001600160a01b03600554163314612e4e565b60ff600f54166121b35780f35b6121bb613c03565b805b6003548110156122f6576001600160a01b036121d882612d24565b90549060031b1c1673eeeeeeeeeeeeeeeeeeeeeeeeeeeeeeeeeeeeeeee81146000146122575750816001600160a01b038154164790803b15611824578290600460405180948193630d0e30db60e41b83525af1801561062b57612242575b50506001905b016121bd565b8161224c91612dd4565b610a95578138612236565b9190604051926370a0823160e01b8452306004850152602084602481845afa80156106765783906122bf575b83945081600194526004602052604085205481116122a3575b505061223c565b6122b8916001600160a01b0386541690613cec565b388061229c565b506020933d85116122ee575b6122d58582612dd4565b6020816000968101031261181c57519293508392612283565b3d94506122cb565b506001600160a01b038154166040516370a0823160e01b8152306004820152602081602481855afa9081156106765783916126c2575b508183526004602052604083205410612343575080f35b61234b613aa4565b906040516370a0823160e01b8152306004820152602081602481855afa90811561198757849161268e575b5061238c670de0b6b3a76400009184519061364c565b04670de0b6b3a76400006123a460408501518361364c565b60405163a9059cbb60e01b815232600482015291900460248201819052926020908290604490829089905af18015611e3357612657575b50670de0b6b3a76400006123f360208501518361364c565b855460095460405163a9059cbb60e01b81526001600160a01b0391821660048201529390920460248401819052959291602091839160449183918b91165af18015611e8a5761260b575b50670de0b6b3a76400009160606124569201519061364c565b845460085460405163a9059cbb60e01b81526001600160a01b03918216600482015293909204602484018190529291602091839160449183918a91165af18015611e33576125a9575b50906060917fd255b592c7f268a73e534da5219a60ff911b4cf6daae21c7d20527dd657bd99a9360405192835260208301526040820152a16001546001600160a01b03168061256957506125096001600160a01b038254166001600160a01b036001541690613dde565b7f51e908723a339cd8d3fd3d8a2e4f2bdde81ddb7d26ca1753f1f515e0b07a513b60606125346137a6565b61253f611bcd6136aa565b600d5542600c556125546103366103286137a6565b6040519133835260208301526040820152a180f35b6001600160a01b0382541690818103612599575b50506125946001600160a01b036001541680613dde565b612509565b6125a291613dde565b388061257d565b91906020833d602011612603575b816125c460209383612dd4565b8101031261181c577fd255b592c7f268a73e534da5219a60ff911b4cf6daae21c7d20527dd657bd99a936125f9606094612ebc565b509350909161249f565b3d91506125b7565b916020833d60201161264f575b8161262560209383612dd4565b8101031261181857606061245692612645670de0b6b3a764000095612ebc565b509250509161243d565b3d9150612618565b6020813d602011612686575b8161267060209383612dd4565b8101031261181c5761268190612ebc565b6123db565b3d9150612663565b90506020813d6020116126ba575b816126a960209383612dd4565b8101031261044f575161238c612376565b3d915061269c565b90506020813d6020116126ec575b816126dd60209383612dd4565b8101031261044f57513861232c565b3d91506126d0565b50346102b45760203660031901126102b45761270e6138dc565b600435600e5580f35b50346102b45760203660031901126102b457600435906003548210156102b45760206001600160a01b0361274a84612d24565b90549060031b1c16604051908152f35b50346102b457806003193601126102b4576127736138dc565b61277b6138dc565b612783613c03565b600160ff197fcd5ed15c6e187e77e9aee88184c21f4f2182ab5827cb3b7e07fbedcd63f033005416177fcd5ed15c6e187e77e9aee88184c21f4f2182ab5827cb3b7e07fbedcd63f03300557f62e78cea01bee320cd4e420270b5ea74000d11b0c9f74754ebdbfc544b05a2586020604051338152a16103046139d0565b50346102b457806003193601126102b457610304612ec9565b50346102b45760203660031901126102b4577fe619ee6c13633271d53eb38d623fa8b077c06e8443c914af1ec745aaf3c9f9a860206001600160a01b0361285e612ce1565b61286661396f565b16806001600160a01b03196007541617600755604051908152a180f35b50346102b457806003193601126102b45761289c6138dc565b7fcd5ed15c6e187e77e9aee88184c21f4f2182ab5827cb3b7e07fbedcd63f033005460ff81161561291f5760ff19167fcd5ed15c6e187e77e9aee88184c21f4f2182ab5827cb3b7e07fbedcd63f03300557f5db9ee0a495bf2e6ff9c91a7834c1ba4fdd244a5e8aa4e537bd38aeae4b073aa6020604051338152a1610527613c03565b6004827f8dfc202b000000000000000000000000000000000000000000000000000000008152fd5b50346102b45760203660031901126102b4576004356129726001600160a01b03600554163314612e4e565b61297a6137a6565b90808210612a63575b91826129d0938311612a5b575b5060015460055460405163a9059cbb60e01b81526001600160a01b0391821660048201526024810185905294602092869216908290859082906044820190565b03925af18015610ab457612a21575b6020827f5b6b431d4476a211bb7d41c20d1aab9ae2321deee0d20be3d9fc9b1093fa6e3d82612a126103366103286137a6565b604051908152a1604051908152f35b6020833d602011612a53575b81612a3a60209383612dd4565b810103126102b45750612a4e602092612ebc565b6129df565b3d9150612a2d565b915038612990565b90612a6e9082612e99565b9182612a8b575b6129d09250612a826137a6565b91909250612983565b60206001600160a01b03604254169360646001600160a01b0360015416846040519788948593631a4ca37b60e21b8552600485015260248401523060448401525af1928315610ab4576129d093612ae3575b50612a75565b612b049060203d602011612b0b575b612afc8183612dd4565b810190613797565b5038612add565b503d612af2565b50346102b457806003193601126102b45760206001600160a01b0360025416604051908152f35b50346102b457806003193601126102b45760206001600160a01b0360435416604051908152f35b50346102b45760203660031901126102b457600435612b7d6138dc565b816001600160a01b03600a5416803b15610a955781906024604051809481937f19a501ad0000000000000000000000000000000000000000000000000000000083528760048401525af1801561067657612c01575b5060207fefa2ab35845db19854512f0064b524dec97aa8fbf004e0c505dc9ff691340c9891604051908152a180f35b82612c307fefa2ab35845db19854512f0064b524dec97aa8fbf004e0c505dc9ff691340c989394602093612dd4565b929150612bd2565b50346102b457806003193601126102b45760206102d2612e19565b50346102b45760203660031901126102b45760043580151580820361182457612c7a6138dc565b60ff8019600f5416911617600f55600014612c965780600e5580f35b62015180600e5580f35b905034610a955781600319360112610a95576020906001600160a01b03604254168152f35b3461044f57600036600319011261044f57602060405160008152f35b600435906001600160a01b038216820361044f57565b35906001600160a01b038216820361044f57565b3461044f57602036600319011261044f5761001b612ce1565b600354811015612d3f57600360005260206000200190600090565b634e487b7160e01b600052603260045260246000fd5b9181601f8401121561044f5782359167ffffffffffffffff831161044f576020808501948460051b01011161044f57565b60c0810190811067ffffffffffffffff821117612da257604052565b634e487b7160e01b600052604160045260246000fd5b6060810190811067ffffffffffffffff821117612da257604052565b90601f8019910116810190811067ffffffffffffffff821117612da257604052565b60005b838110612e095750506000910152565b8181015183820152602001612df9565b7fcd5ed15c6e187e77e9aee88184c21f4f2182ab5827cb3b7e07fbedcd63f033005460ff1615612e4857600090565b600b5490565b15612e5557565b606460405162461bcd60e51b815260206004820152600a60248201527f4e6f74205f7661756c74000000000000000000000000000000000000000000006044820152fd5b91908203918211612ea657565b634e487b7160e01b600052601160045260246000fd5b5190811515820361044f57565b612ed1613c03565b60005b600354811015613017576001600160a01b03612eef82612d24565b90549060031b1c1673eeeeeeeeeeeeeeeeeeeeeeeeeeeeeeeeeeeeeeee8114600014612f7857506001600160a01b0360005416904791803b1561044f57600090600460405180958193630d0e30db60e41b83525af1918215612f6c57600192612f5b575b505b01612ed4565b6000612f6691612dd4565b38612f53565b6040513d6000823e3d90fd5b9190604051926370a0823160e01b8452306004850152602084602481845afa938415612f6c57600094612fe5575b50600192938160005260046020526040600020548111612fc8575b5050612f55565b612fde916001600160a01b036000541690613cec565b3880612fc1565b6020813d821161300f575b81612ffd60209383612dd4565b8101031261181c575193506001612fa6565b3d9150612ff0565b506001600160a01b03600054166040516370a0823160e01b8152306004820152602081602481855afa908115612f6c57600091613587575b50816000526004602052604060002054106130675750565b61306f613aa4565b906040516370a0823160e01b8152306004820152602081602481855afa908115612f6c57600091613553575b506130b1670de0b6b3a76400009184519061364c565b04670de0b6b3a76400006130c960408501518361364c565b60405163a9059cbb60e01b81523260048201529190046024820181905292602090829060449082906000905af18015612f6c5761351c575b50670de0b6b3a764000061311960208501518361364c565b049261316d6020856001600160a01b03600054166001600160a01b0360095416600060405180968195829463a9059cbb60e01b845260048401602090939291936001600160a01b0360408201951681520152565b03925af18015612f6c576134d0575b50670de0b6b3a76400009160606131959201519061364c565b046131e86020826001600160a01b03600054166001600160a01b0360085416600060405180968195829463a9059cbb60e01b845260048401602090939291936001600160a01b0360408201951681520152565b03925af18015612f6c5761346e575b50906060917fd255b592c7f268a73e534da5219a60ff911b4cf6daae21c7d20527dd657bd99a9360405192835260208301526040820152a16001546001600160a01b03168061342d57506132626001600160a01b03600054166001600160a01b036001541690613dde565b61326a6137a6565b613275611bcd6136aa565b600d5542600c55613284613c03565b61328c6137a6565b806132d9575b5060607f51e908723a339cd8d3fd3d8a2e4f2bdde81ddb7d26ca1753f1f515e0b07a513b916132c56103366103286137a6565b6040519133835260208301526040820152a1565b60015460425460405163095ea7b360e01b81526001600160a01b039182166004820152602481018490529293929160209183916044918391600091165af18015612f6c576133f6575b506001600160a01b0360425416916001600160a01b036001541690833b1561044f57608460009283604051968794859363e8eda9df60e01b8552600485015260248401523060448401528160648401525af1908115612f6c577f51e908723a339cd8d3fd3d8a2e4f2bdde81ddb7d26ca1753f1f515e0b07a513b926060926133e5575b507f4d6ce1e535dbade1c23defba91e23b8f791ce5edc0cc320257a2b364e4e3842660206133d76103366103286137a6565b604051908152a19150613292565b60006133f091612dd4565b386133a5565b6020813d602011613425575b8161340f60209383612dd4565b8101031261044f5761342090612ebc565b613322565b3d9150613402565b6001600160a01b03600054169081810361345e575b50506134596001600160a01b036001541680613dde565b613262565b61346791613dde565b3880613442565b91906020833d6020116134c8575b8161348960209383612dd4565b8101031261044f577fd255b592c7f268a73e534da5219a60ff911b4cf6daae21c7d20527dd657bd99a936134be606094612ebc565b50935090916131f7565b3d915061347c565b916020833d602011613514575b816134ea60209383612dd4565b8101031261044f5760606131959261350a670de0b6b3a764000095612ebc565b509250509161317c565b3d91506134dd565b6020813d60201161354b575b8161353560209383612dd4565b8101031261044f5761354690612ebc565b613101565b3d9150613528565b90506020813d60201161357f575b8161356e60209383612dd4565b8101031261044f57516130b161309b565b3d9150613561565b90506020813d6020116135b1575b816135a260209383612dd4565b8101031261044f57513861304f565b3d9150613595565b9160209082815201919060005b8181106135d35750505090565b9091926020806001926001600160a01b036135ed88612cf7565b1681520194019291016135c6565b90918281527f07ffffffffffffffffffffffffffffffffffffffffffffffffffffffffffffff831161044f5760209260051b809284830137010190565b51906001600160a01b038216820361044f57565b81810292918115918404141715612ea657565b1561366657565b606460405162461bcd60e51b815260206004820152600960248201527f4e6f7420617373657400000000000000000000000000000000000000000000006044820152fd5b600e5480156136eb576136bf600c5442612e99565b818110156136e0576136d46136dc9183612e99565b600d5461364c565b0490565b506136dc60006136d4565b50600090565b604051906136fe82612d86565b600060a083828152826020820152826040820152826060820152606060808201520152565b51906fffffffffffffffffffffffffffffffff8216820361044f57565b6001600160a01b038116908115613783576001600160a01b03199061377c600154916137776001600160a01b03841686141561365f565b613a4a565b1617600155565b50506001600160a01b031960015416600155565b9081602091031261044f575190565b602460206001600160a01b0360015416604051928380926370a0823160e01b82523060048301525afa908115612f6c576000916137e1575090565b90506020813d602011613808575b816137fc60209383612dd4565b8101031261044f575190565b3d91506137ef565b91908201809211612ea657565b6001600160a01b031680156138ad576001600160a01b037f9016d09d72d40fdae2fd8ceac6b6234c7706214fd39c1cd1e609a0528c19930054826001600160a01b03198216177f9016d09d72d40fdae2fd8ceac6b6234c7706214fd39c1cd1e609a0528c19930055167f8be0079c531659141344cd1fd0a4f28419497f9722a3daafe3b4186f6b6457e0600080a3565b7f1e4fbdf700000000000000000000000000000000000000000000000000000000600052600060045260246000fd5b6001600160a01b037f9016d09d72d40fdae2fd8ceac6b6234c7706214fd39c1cd1e609a0528c19930054163314801561395b575b1561391757565b606460405162461bcd60e51b815260206004820152600d60248201527f4e6f742061206d616e61676572000000000000000000000000000000000000006044820152fd5b506001600160a01b03600654163314613910565b6001600160a01b037f9016d09d72d40fdae2fd8ceac6b6234c7706214fd39c1cd1e609a0528c199300541633036139a257565b7f118cdaa7000000000000000000000000000000000000000000000000000000006000523360045260246000fd5b6139d8613c58565b6139de57565b600060206001600160a01b036042541660646001600160a01b03600154166040519485938492631a4ca37b60e21b84526004840152811960248401523060448401525af18015612f6c57613a2f5750565b613a479060203d602011612b0b57612afc8183612dd4565b50565b6001600160a01b038060415416911614613a6057565b606460405162461bcd60e51b815260206004820152600a60248201527f4e6f742061546f6b656e000000000000000000000000000000000000000000006044820152fd5b613aac6136f1565b50602460006001600160a01b03600a5416604051928380927f9af608c90000000000000000000000000000000000000000000000000000000082523060048301525afa908115612f6c57600091613b01575090565b3d8083833e613b108183612dd4565b8101906020818303126118245780519067ffffffffffffffff821161182057019060c0828203126118245760405192613b4884612d86565b82518452602083015160208501526040830151604085015260608301516060850152608083015167ffffffffffffffff8111610a9557830182601f82011215610a955780519167ffffffffffffffff8311613bef5760405193613bb5601f8501601f191660200186612dd4565b838552602084840101116102b4575091613bdc613be7949260a09460208085019101612df6565b608085015201612ebc565b60a082015290565b80634e487b7160e01b602492526041600452fd5b60ff7fcd5ed15c6e187e77e9aee88184c21f4f2182ab5827cb3b7e07fbedcd63f033005416613c2e57565b7fd93c06650000000000000000000000000000000000000000000000000000000060005260046000fd5b602460206001600160a01b0360415416604051928380926370a0823160e01b82523060048301525afa908115612f6c576000916137e1575090565b60ff7ff0c57e16840df040f15088dc2f81fe391c3923bec73e23a9662efc9c229c6a005460401c1615613cc257565b7fd7e6bcf80000000000000000000000000000000000000000000000000000000060005260046000fd5b6001600160a01b039081169116808203613d0557505050565b60075460405163095ea7b360e01b81526001600160a01b039091166004820152602481018490526020816044816000875af18015612f6c57613d9f575b50606460209260006001600160a01b036007541660405196879586947fdf791e500000000000000000000000000000000000000000000000000000000086526004860152602485015260448401525af18015612f6c57613a2f5750565b6020813d602011613dd6575b81613db860209383612dd4565b8101031261044f57602092613dce606492612ebc565b509250613d42565b3d9150613dab565b604051916370a0823160e01b83523060048401526020836024816001600160a01b0386165afa918215612f6c57600092613e1f575b613e1d9350613cec565b565b91506020833d602011613e4d575b81613e3a60209383612dd4565b8101031261044f57613e1d925191613e13565b3d9150613e2d56fea26469706673582212206c0cb63211644049632489004b96105dbb8663dc466ea1c47b720ad59dcf083a64736f6c634300081c0033",
          "opcodes": "PUSH1 0x80 DUP1 PUSH1 0x40 MSTORE CALLVALUE PUSH1 0x15 JUMPI PUSH2 0x3E8B SWAP1 DUP2 PUSH2 0x1B DUP3 CODECOPY RETURN JUMPDEST PUSH1 0x0 DUP1 REVERT INVALID PUSH1 0x80 DUP1 PUSH1 0x40 MSTORE PUSH1 0x4 CALLDATASIZE LT ISZERO PUSH2 0x1D JUMPI JUMPDEST POP CALLDATASIZE ISZERO PUSH2 0x1B JUMPI PUSH1 0x0 DUP1 REVERT JUMPDEST STOP JUMPDEST PUSH1 0x0 SWAP1 DUP2 CALLDATALOAD PUSH1 0xE0 SHR SWAP1 DUP2 PUSH4 0x500510D EQ PUSH2 0x2CA0 JUMPI POP DUP1 PUSH4 0xDE705B5 EQ PUSH2 0x344 JUMPI DUP1 PUSH4 0xE8FBB5A EQ PUSH2 0x2C53 JUMPI DUP1 PUSH4 0x1540AA89 EQ PUSH2 0x2C38 JUMPI DUP1 PUSH4 0x19A501AD EQ PUSH2 0x2B60 JUMPI DUP1 PUSH4 0x234E00E1 EQ PUSH2 0x2B39 JUMPI DUP1 PUSH4 0x281C8F32 EQ PUSH2 0x2B12 JUMPI DUP1 PUSH4 0x2E1A7D4D EQ PUSH2 0x2947 JUMPI DUP1 PUSH4 0x3A6462E4 EQ PUSH2 0x3B3 JUMPI DUP1 PUSH4 0x3F4BA83A EQ PUSH2 0x2883 JUMPI DUP1 PUSH4 0x41273657 EQ PUSH2 0x2819 JUMPI DUP1 PUSH4 0x4641257D EQ PUSH2 0x2800 JUMPI DUP1 PUSH4 0x4700D305 EQ PUSH2 0x275A JUMPI DUP1 PUSH4 0x49883934 EQ PUSH2 0x2717 JUMPI DUP1 PUSH4 0x4EB665AF EQ PUSH2 0x26F4 JUMPI DUP1 PUSH4 0x573FEF0A EQ PUSH2 0x217F JUMPI DUP1 PUSH4 0x582AB01B EQ PUSH2 0x1F9A JUMPI DUP1 PUSH4 0x5C222BAD EQ PUSH2 0x1F73 JUMPI DUP1 PUSH4 0x5C975ABB EQ PUSH2 0x1F31 JUMPI DUP1 PUSH4 0x623D8BD2 EQ PUSH2 0x1828 JUMPI DUP1 PUSH4 0x669FE8EE EQ PUSH2 0x1182 JUMPI DUP1 PUSH4 0x6817031B EQ PUSH2 0x1118 JUMPI DUP1 PUSH4 0x715018A6 EQ PUSH2 0x107F JUMPI DUP1 PUSH4 0x7A1A959B EQ PUSH2 0x1058 JUMPI DUP1 PUSH4 0x7C6AB208 EQ PUSH2 0xF87 JUMPI DUP1 PUSH4 0x8456CB59 EQ PUSH2 0xEEE JUMPI DUP1 PUSH4 0x8D928AF8 EQ PUSH2 0xEC7 JUMPI DUP1 PUSH4 0x8DA5CB5B EQ PUSH2 0xE81 JUMPI DUP1 PUSH4 0x97FD323D EQ PUSH2 0x344 JUMPI DUP1 PUSH4 0x9C9B2E21 EQ PUSH2 0xDB8 JUMPI DUP1 PUSH4 0xA42DCE80 EQ PUSH2 0xD4A JUMPI DUP1 PUSH4 0xA7E9CA82 EQ PUSH2 0xD0D JUMPI DUP1 PUSH4 0xAB7CC1F8 EQ PUSH2 0xCF2 JUMPI DUP1 PUSH4 0xAC1E5025 EQ PUSH2 0xC57 JUMPI DUP1 PUSH4 0xAD29F5DA EQ PUSH2 0xBED JUMPI DUP1 PUSH4 0xAD5C4648 EQ PUSH2 0xBC7 JUMPI DUP1 PUSH4 0xAFFD80B0 EQ PUSH2 0xBA9 JUMPI DUP1 PUSH4 0xB20FEAAF EQ PUSH2 0xAC1 JUMPI DUP1 PUSH4 0xB655D0C4 EQ PUSH2 0x870 JUMPI DUP1 PUSH4 0xBBB356D5 EQ PUSH2 0x852 JUMPI DUP1 PUSH4 0xC31C9C07 EQ PUSH2 0x82B JUMPI DUP1 PUSH4 0xC553173F EQ PUSH2 0x765 JUMPI DUP1 PUSH4 0xC7B9D530 EQ PUSH2 0x6AB JUMPI DUP1 PUSH4 0xD0D552DD EQ PUSH2 0x681 JUMPI DUP1 PUSH4 0xD0E30DB0 EQ PUSH2 0x50E JUMPI DUP1 PUSH4 0xD0EBDBE7 EQ PUSH2 0x4A4 JUMPI DUP1 PUSH4 0xD801D946 EQ PUSH2 0x483 JUMPI DUP1 PUSH4 0xDF390305 EQ PUSH2 0x468 JUMPI DUP1 PUSH4 0xE4580A3C EQ PUSH2 0x3B8 JUMPI DUP1 PUSH4 0xE5932C40 EQ PUSH2 0x3B3 JUMPI DUP1 PUSH4 0xE74B981B EQ PUSH2 0x349 JUMPI DUP1 PUSH4 0xE7A7250A EQ PUSH2 0x344 JUMPI DUP1 PUSH4 0xECBDE5E6 EQ PUSH2 0x307 JUMPI DUP1 PUSH4 0xF2FDE38B EQ PUSH2 0x2DA JUMPI DUP1 PUSH4 0xF8B3C21E EQ PUSH2 0x2B7 JUMPI PUSH4 0xFCEA5E29 SUB PUSH2 0xF JUMPI CALLVALUE PUSH2 0x2B4 JUMPI DUP1 PUSH1 0x3 NOT CALLDATASIZE ADD SLT PUSH2 0x2B4 JUMPI PUSH1 0x20 PUSH1 0x1 PUSH1 0x1 PUSH1 0xA0 SHL SUB PUSH1 0x1 SLOAD AND PUSH1 0x40 MLOAD SWAP1 DUP2 MSTORE RETURN JUMPDEST DUP1 REVERT JUMPDEST POP CALLVALUE PUSH2 0x2B4 JUMPI DUP1 PUSH1 0x3 NOT CALLDATASIZE ADD SLT PUSH2 0x2B4 JUMPI PUSH1 0x20 PUSH2 0x2D2 PUSH2 0x3C58 JUMP JUMPDEST PUSH1 0x40 MLOAD SWAP1 DUP2 MSTORE RETURN JUMPDEST POP CALLVALUE PUSH2 0x2B4 JUMPI PUSH1 0x20 CALLDATASIZE PUSH1 0x3 NOT ADD SLT PUSH2 0x2B4 JUMPI PUSH2 0x304 PUSH2 0x2F7 PUSH2 0x2CE1 JUMP JUMPDEST PUSH2 0x2FF PUSH2 0x396F JUMP JUMPDEST PUSH2 0x381D JUMP JUMPDEST DUP1 RETURN JUMPDEST POP CALLVALUE PUSH2 0x2B4 JUMPI DUP1 PUSH1 0x3 NOT CALLDATASIZE ADD SLT PUSH2 0x2B4 JUMPI PUSH1 0x20 PUSH2 0x2D2 PUSH2 0x336 PUSH2 0x328 PUSH2 0x37A6 JUMP JUMPDEST PUSH2 0x330 PUSH2 0x3C58 JUMP JUMPDEST SWAP1 PUSH2 0x3810 JUMP JUMPDEST PUSH2 0x33E PUSH2 0x36AA JUMP JUMPDEST SWAP1 PUSH2 0x2E99 JUMP JUMPDEST PUSH2 0x2CC5 JUMP JUMPDEST POP CALLVALUE PUSH2 0x2B4 JUMPI PUSH1 0x20 CALLDATASIZE PUSH1 0x3 NOT ADD SLT PUSH2 0x2B4 JUMPI PUSH32 0xB4FD7C525E4699047FFA750E100B105A6CB7EF166A17F93AF958ED73CC44668D PUSH1 0x20 PUSH1 0x1 PUSH1 0x1 PUSH1 0xA0 SHL SUB PUSH2 0x38E PUSH2 0x2CE1 JUMP JUMPDEST PUSH2 0x396 PUSH2 0x396F JUMP JUMPDEST AND DUP1 PUSH1 0x1 PUSH1 0x1 PUSH1 0xA0 SHL SUB NOT PUSH1 0x9 SLOAD AND OR PUSH1 0x9 SSTORE PUSH1 0x40 MLOAD SWAP1 DUP2 MSTORE LOG1 DUP1 RETURN JUMPDEST PUSH2 0x2D0B JUMP JUMPDEST POP CALLVALUE PUSH2 0x2B4 JUMPI DUP1 PUSH1 0x3 NOT CALLDATASIZE ADD SLT PUSH2 0x2B4 JUMPI PUSH1 0x24 SWAP1 PUSH1 0x20 PUSH1 0x1 PUSH1 0x1 PUSH1 0xA0 SHL SUB PUSH1 0xA SLOAD AND PUSH1 0x40 MLOAD SWAP4 DUP5 DUP1 SWAP3 PUSH32 0xA5ED417500000000000000000000000000000000000000000000000000000000 DUP3 MSTORE ADDRESS PUSH1 0x4 DUP4 ADD MSTORE GAS STATICCALL SWAP1 DUP2 ISZERO PUSH2 0x45C JUMPI SWAP1 PUSH2 0x424 JUMPI JUMPDEST PUSH1 0x20 SWAP1 PUSH1 0x40 MLOAD SWAP1 DUP2 MSTORE RETURN JUMPDEST POP PUSH1 0x20 DUP2 RETURNDATASIZE PUSH1 0x20 GT PUSH2 0x454 JUMPI JUMPDEST DUP2 PUSH2 0x43E PUSH1 0x20 SWAP4 DUP4 PUSH2 0x2DD4 JUMP JUMPDEST DUP2 ADD SUB SLT PUSH2 0x44F JUMPI PUSH1 0x20 SWAP1 MLOAD PUSH2 0x419 JUMP JUMPDEST PUSH1 0x0 DUP1 REVERT JUMPDEST RETURNDATASIZE SWAP2 POP PUSH2 0x431 JUMP JUMPDEST PUSH1 0x40 MLOAD SWAP1 RETURNDATASIZE SWAP1 DUP3 RETURNDATACOPY RETURNDATASIZE SWAP1 REVERT JUMPDEST POP CALLVALUE PUSH2 0x2B4 JUMPI DUP1 PUSH1 0x3 NOT CALLDATASIZE ADD SLT PUSH2 0x2B4 JUMPI PUSH1 0x20 PUSH2 0x2D2 PUSH2 0x37A6 JUMP JUMPDEST POP CALLVALUE PUSH2 0x2B4 JUMPI DUP1 PUSH1 0x3 NOT CALLDATASIZE ADD SLT PUSH2 0x2B4 JUMPI PUSH2 0x49C PUSH2 0x38DC JUMP JUMPDEST PUSH2 0x304 PUSH2 0x2EC9 JUMP JUMPDEST POP CALLVALUE PUSH2 0x2B4 JUMPI PUSH1 0x20 CALLDATASIZE PUSH1 0x3 NOT ADD SLT PUSH2 0x2B4 JUMPI PUSH32 0xCACB29288ACA892F0969D6CDA0607946BB31EF78B004E541423B04DA5BC8842E PUSH1 0x20 PUSH1 0x1 PUSH1 0x1 PUSH1 0xA0 SHL SUB PUSH2 0x4E9 PUSH2 0x2CE1 JUMP JUMPDEST PUSH2 0x4F1 PUSH2 0x38DC JUMP JUMPDEST AND DUP1 PUSH1 0x1 PUSH1 0x1 PUSH1 0xA0 SHL SUB NOT PUSH1 0x6 SLOAD AND OR PUSH1 0x6 SSTORE PUSH1 0x40 MLOAD SWAP1 DUP2 MSTORE LOG1 DUP1 RETURN JUMPDEST POP CALLVALUE PUSH2 0x2B4 JUMPI DUP1 PUSH1 0x3 NOT CALLDATASIZE ADD SLT PUSH2 0x2B4 JUMPI PUSH2 0x527 PUSH2 0x3C03 JUMP JUMPDEST DUP1 PUSH2 0x530 PUSH2 0x37A6 JUMP JUMPDEST DUP1 PUSH2 0x538 JUMPI POP RETURN JUMPDEST PUSH1 0x1 SLOAD PUSH1 0x42 SLOAD PUSH1 0x40 MLOAD PUSH4 0x95EA7B3 PUSH1 0xE0 SHL DUP2 MSTORE PUSH1 0x1 PUSH1 0x1 PUSH1 0xA0 SHL SUB SWAP2 DUP3 AND PUSH1 0x4 DUP3 ADD MSTORE PUSH1 0x24 DUP2 ADD DUP5 SWAP1 MSTORE SWAP2 PUSH1 0x20 SWAP2 DUP4 SWAP2 PUSH1 0x44 SWAP2 DUP4 SWAP2 DUP9 SWAP2 AND GAS CALL DUP1 ISZERO PUSH2 0x676 JUMPI PUSH2 0x63B JUMPI JUMPDEST POP PUSH1 0x1 PUSH1 0x1 PUSH1 0xA0 SHL SUB PUSH1 0x42 SLOAD AND SWAP1 PUSH1 0x1 PUSH1 0x1 PUSH1 0xA0 SHL SUB PUSH1 0x1 SLOAD AND SWAP1 DUP3 EXTCODESIZE ISZERO PUSH2 0x636 JUMPI PUSH1 0x84 DUP5 SWAP3 DUP4 PUSH1 0x40 MLOAD SWAP6 DUP7 SWAP5 DUP6 SWAP4 PUSH4 0xE8EDA9DF PUSH1 0xE0 SHL DUP6 MSTORE PUSH1 0x4 DUP6 ADD MSTORE PUSH1 0x24 DUP5 ADD MSTORE ADDRESS PUSH1 0x44 DUP5 ADD MSTORE DUP2 PUSH1 0x64 DUP5 ADD MSTORE GAS CALL DUP1 ISZERO PUSH2 0x62B JUMPI PUSH2 0x616 JUMPI JUMPDEST POP POP PUSH32 0x4D6CE1E535DBADE1C23DEFBA91E23B8F791CE5EDC0CC320257A2B364E4E38426 PUSH1 0x20 PUSH2 0x60C PUSH2 0x336 PUSH2 0x328 PUSH2 0x37A6 JUMP JUMPDEST PUSH1 0x40 MLOAD SWAP1 DUP2 MSTORE LOG1 DUP1 RETURN JUMPDEST DUP2 PUSH2 0x620 SWAP2 PUSH2 0x2DD4 JUMP JUMPDEST PUSH2 0x2B4 JUMPI DUP1 CODESIZE PUSH2 0x5D9 JUMP JUMPDEST PUSH1 0x40 MLOAD RETURNDATASIZE DUP5 DUP3 RETURNDATACOPY RETURNDATASIZE SWAP1 REVERT JUMPDEST POP POP POP REVERT JUMPDEST PUSH1 0x20 DUP2 RETURNDATASIZE PUSH1 0x20 GT PUSH2 0x66E JUMPI JUMPDEST DUP2 PUSH2 0x654 PUSH1 0x20 SWAP4 DUP4 PUSH2 0x2DD4 JUMP JUMPDEST DUP2 ADD SUB SLT PUSH2 0x66A JUMPI PUSH2 0x665 SWAP1 PUSH2 0x2EBC JUMP JUMPDEST PUSH2 0x57D JUMP JUMPDEST POP POP REVERT JUMPDEST RETURNDATASIZE SWAP2 POP PUSH2 0x647 JUMP JUMPDEST PUSH1 0x40 MLOAD RETURNDATASIZE DUP6 DUP3 RETURNDATACOPY RETURNDATASIZE SWAP1 REVERT JUMPDEST POP CALLVALUE PUSH2 0x2B4 JUMPI PUSH1 0x20 CALLDATASIZE PUSH1 0x3 NOT ADD SLT PUSH2 0x2B4 JUMPI PUSH2 0x304 PUSH2 0x69E PUSH2 0x2CE1 JUMP JUMPDEST PUSH2 0x6A6 PUSH2 0x38DC JUMP JUMPDEST PUSH2 0x3740 JUMP JUMPDEST POP CALLVALUE PUSH2 0x2B4 JUMPI PUSH1 0x20 CALLDATASIZE PUSH1 0x3 NOT ADD SLT PUSH2 0x2B4 JUMPI PUSH2 0x6C5 PUSH2 0x2CE1 JUMP JUMPDEST PUSH1 0x8 SLOAD PUSH1 0x1 PUSH1 0x1 PUSH1 0xA0 SHL SUB DUP2 AND CALLER SUB PUSH2 0x721 JUMPI PUSH1 0x1 PUSH1 0x1 PUSH1 0xA0 SHL SUB NOT PUSH1 0x20 SWAP2 PUSH1 0x1 PUSH1 0x1 PUSH1 0xA0 SHL SUB PUSH32 0x5F5EFA858752444F35895D1A3A466DB6CF3E319D27BAC0A5B9BFE359FE49C4E0 SWAP5 AND SWAP2 DUP3 SWAP2 AND OR PUSH1 0x8 SSTORE PUSH1 0x40 MLOAD SWAP1 DUP2 MSTORE LOG1 DUP1 RETURN JUMPDEST PUSH1 0x64 PUSH1 0x40 MLOAD PUSH3 0x461BCD PUSH1 0xE5 SHL DUP2 MSTORE PUSH1 0x20 PUSH1 0x4 DUP3 ADD MSTORE PUSH1 0xE PUSH1 0x24 DUP3 ADD MSTORE PUSH32 0x416C726561647920736574746564000000000000000000000000000000000000 PUSH1 0x44 DUP3 ADD MSTORE REVERT JUMPDEST POP CALLVALUE PUSH2 0x2B4 JUMPI PUSH1 0x20 CALLDATASIZE PUSH1 0x3 NOT ADD SLT PUSH2 0x2B4 JUMPI PUSH2 0x77F PUSH2 0x38DC JUMP JUMPDEST PUSH1 0x3 SLOAD PUSH1 0x0 NOT DUP2 ADD SWAP1 DUP2 GT PUSH2 0x817 JUMPI PUSH1 0x1 PUSH1 0x1 PUSH1 0xA0 SHL SUB PUSH2 0x7A2 PUSH2 0x7D4 SWAP3 PUSH2 0x2D24 JUMP JUMPDEST SWAP1 SLOAD SWAP1 PUSH1 0x3 SHL SHR AND PUSH2 0x7B5 PUSH1 0x4 CALLDATALOAD PUSH2 0x2D24 JUMP JUMPDEST SWAP1 SWAP2 SWAP1 PUSH1 0x1 PUSH1 0x1 PUSH1 0xA0 SHL SUB DUP1 DUP5 SLOAD SWAP3 PUSH1 0x3 SHL SWAP4 AND DUP4 SHL SWAP3 SHL NOT AND OR SWAP1 SSTORE JUMP JUMPDEST PUSH1 0x3 SLOAD DUP1 ISZERO PUSH2 0x803 JUMPI PUSH1 0x0 NOT ADD PUSH2 0x7EA DUP2 PUSH2 0x2D24 JUMP JUMPDEST PUSH1 0x1 PUSH1 0x1 PUSH1 0xA0 SHL SUB DUP3 SLOAD SWAP2 PUSH1 0x3 SHL SHL NOT AND SWAP1 SSTORE PUSH1 0x3 SSTORE DUP1 RETURN JUMPDEST PUSH1 0x24 DUP3 PUSH4 0x4E487B71 PUSH1 0xE0 SHL DUP2 MSTORE PUSH1 0x31 PUSH1 0x4 MSTORE REVERT JUMPDEST PUSH1 0x24 DUP3 PUSH4 0x4E487B71 PUSH1 0xE0 SHL DUP2 MSTORE PUSH1 0x11 PUSH1 0x4 MSTORE REVERT JUMPDEST POP CALLVALUE PUSH2 0x2B4 JUMPI DUP1 PUSH1 0x3 NOT CALLDATASIZE ADD SLT PUSH2 0x2B4 JUMPI PUSH1 0x20 PUSH1 0x1 PUSH1 0x1 PUSH1 0xA0 SHL SUB PUSH1 0x7 SLOAD AND PUSH1 0x40 MLOAD SWAP1 DUP2 MSTORE RETURN JUMPDEST POP CALLVALUE PUSH2 0x2B4 JUMPI DUP1 PUSH1 0x3 NOT CALLDATASIZE ADD SLT PUSH2 0x2B4 JUMPI PUSH1 0x20 PUSH1 0x3 SLOAD PUSH1 0x40 MLOAD SWAP1 DUP2 MSTORE RETURN JUMPDEST POP CALLVALUE PUSH2 0x2B4 JUMPI DUP1 PUSH1 0x3 NOT CALLDATASIZE ADD SLT PUSH2 0x2B4 JUMPI PUSH1 0x1 PUSH1 0x1 PUSH1 0xA0 SHL SUB PUSH1 0x42 SLOAD AND SWAP1 PUSH2 0x1E0 PUSH1 0x1 PUSH1 0x1 PUSH1 0xA0 SHL SUB PUSH1 0x1 SLOAD AND PUSH1 0x24 PUSH1 0x40 MLOAD DUP1 SWAP6 DUP2 SWAP4 PUSH32 0x35EA6A7500000000000000000000000000000000000000000000000000000000 DUP4 MSTORE PUSH1 0x4 DUP4 ADD MSTORE GAS STATICCALL SWAP2 DUP3 ISZERO PUSH2 0xAB4 JUMPI DUP2 SWAP3 PUSH2 0x8FF JUMPI JUMPDEST PUSH1 0x20 PUSH16 0xFFFFFFFFFFFFFFFFFFFFFFFFFFFFFFFF PUSH1 0x40 DUP6 ADD MLOAD AND PUSH1 0x40 MLOAD SWAP1 DUP2 MSTORE RETURN JUMPDEST DUP1 SWAP2 SWAP3 POP PUSH2 0x1E0 RETURNDATASIZE DUP2 GT PUSH2 0xAAD JUMPI JUMPDEST PUSH2 0x918 DUP2 DUP4 PUSH2 0x2DD4 JUMP JUMPDEST DUP2 ADD SUB SWAP2 PUSH2 0x1E0 DUP4 SLT PUSH2 0x2B4 JUMPI PUSH1 0x40 MLOAD SWAP3 PUSH2 0x1E0 DUP5 ADD DUP5 DUP2 LT PUSH8 0xFFFFFFFFFFFFFFFF DUP3 GT OR PUSH2 0xA99 JUMPI PUSH1 0x40 MSTORE PUSH1 0x20 SGT PUSH2 0x2B4 JUMPI PUSH1 0x40 MLOAD PUSH1 0x20 DUP2 ADD DUP2 DUP2 LT PUSH8 0xFFFFFFFFFFFFFFFF DUP3 GT OR PUSH2 0xA99 JUMPI PUSH1 0x40 MSTORE DUP3 MLOAD DUP2 MSTORE DUP4 MSTORE PUSH2 0x97A PUSH1 0x20 DUP4 ADD PUSH2 0x3723 JUMP JUMPDEST PUSH1 0x20 DUP5 ADD MSTORE PUSH2 0x98B PUSH1 0x40 DUP4 ADD PUSH2 0x3723 JUMP JUMPDEST PUSH1 0x40 DUP5 ADD MSTORE PUSH2 0x99C PUSH1 0x60 DUP4 ADD PUSH2 0x3723 JUMP JUMPDEST PUSH1 0x60 DUP5 ADD MSTORE PUSH2 0x9AD PUSH1 0x80 DUP4 ADD PUSH2 0x3723 JUMP JUMPDEST PUSH1 0x80 DUP5 ADD MSTORE PUSH2 0x9BE PUSH1 0xA0 DUP4 ADD PUSH2 0x3723 JUMP JUMPDEST PUSH1 0xA0 DUP5 ADD MSTORE PUSH1 0xC0 DUP3 ADD MLOAD PUSH5 0xFFFFFFFFFF DUP2 AND DUP2 SUB PUSH2 0xA95 JUMPI PUSH1 0xC0 DUP5 ADD MSTORE PUSH1 0xE0 DUP3 ADD MLOAD SWAP1 PUSH2 0xFFFF DUP3 AND DUP3 SUB PUSH2 0x2B4 JUMPI POP DUP3 PUSH2 0xA88 PUSH2 0x1C0 PUSH16 0xFFFFFFFFFFFFFFFFFFFFFFFFFFFFFFFF SWAP5 PUSH1 0x40 SWAP5 PUSH1 0xE0 PUSH1 0x20 SWAP9 ADD MSTORE PUSH2 0xA1D PUSH2 0x100 DUP3 ADD PUSH2 0x3638 JUMP JUMPDEST PUSH2 0x100 DUP6 ADD MSTORE PUSH2 0xA30 PUSH2 0x120 DUP3 ADD PUSH2 0x3638 JUMP JUMPDEST PUSH2 0x120 DUP6 ADD MSTORE PUSH2 0xA43 PUSH2 0x140 DUP3 ADD PUSH2 0x3638 JUMP JUMPDEST PUSH2 0x140 DUP6 ADD MSTORE PUSH2 0xA56 PUSH2 0x160 DUP3 ADD PUSH2 0x3638 JUMP JUMPDEST PUSH2 0x160 DUP6 ADD MSTORE PUSH2 0xA69 PUSH2 0x180 DUP3 ADD PUSH2 0x3723 JUMP JUMPDEST PUSH2 0x180 DUP6 ADD MSTORE PUSH2 0xA7C PUSH2 0x1A0 DUP3 ADD PUSH2 0x3723 JUMP JUMPDEST PUSH2 0x1A0 DUP6 ADD MSTORE ADD PUSH2 0x3723 JUMP JUMPDEST PUSH2 0x1C0 DUP3 ADD MSTORE SWAP3 POP PUSH2 0x8DE JUMP JUMPDEST POP DUP1 REVERT JUMPDEST PUSH1 0x24 DUP4 PUSH4 0x4E487B71 PUSH1 0xE0 SHL DUP2 MSTORE PUSH1 0x41 PUSH1 0x4 MSTORE REVERT JUMPDEST POP RETURNDATASIZE PUSH2 0x90E JUMP JUMPDEST POP PUSH1 0x40 MLOAD SWAP1 RETURNDATASIZE SWAP1 DUP3 RETURNDATACOPY RETURNDATASIZE SWAP1 REVERT JUMPDEST POP CALLVALUE PUSH2 0x2B4 JUMPI DUP1 PUSH1 0x3 NOT CALLDATASIZE ADD SLT PUSH2 0x2B4 JUMPI DUP1 PUSH1 0x40 DUP1 MLOAD PUSH2 0xAE0 DUP2 PUSH2 0x2DB8 JUMP JUMPDEST PUSH2 0xAE8 PUSH2 0x36F1 JUMP JUMPDEST DUP2 MSTORE DUP3 PUSH1 0x20 DUP3 ADD MSTORE ADD MSTORE PUSH2 0x160 PUSH2 0xAFD PUSH2 0x3AA4 JUMP JUMPDEST PUSH2 0xB05 PUSH2 0x2E19 JUMP JUMPDEST SWAP3 PUSH1 0x40 MLOAD SWAP2 PUSH2 0xB13 DUP4 PUSH2 0x2DB8 JUMP JUMPDEST DUP3 MSTORE PUSH1 0x20 DUP3 ADD SWAP1 DUP2 MSTORE PUSH1 0x40 DUP3 ADD SWAP4 DUP5 MSTORE PUSH1 0x40 MLOAD SWAP4 DUP5 SWAP3 PUSH1 0x20 DUP5 MSTORE MLOAD SWAP2 PUSH1 0x60 PUSH1 0x20 DUP6 ADD MSTORE DUP3 MLOAD PUSH1 0x80 DUP6 ADD MSTORE PUSH1 0x20 DUP4 ADD MLOAD PUSH1 0xA0 DUP6 ADD MSTORE PUSH1 0x40 DUP4 ADD MLOAD PUSH1 0xC0 DUP6 ADD MSTORE PUSH1 0x60 DUP4 ADD MLOAD PUSH1 0xE0 DUP6 ADD MSTORE PUSH1 0xA0 PUSH1 0x80 DUP5 ADD MLOAD SWAP4 PUSH1 0xC0 PUSH2 0x100 DUP8 ADD MSTORE PUSH2 0xB85 DUP6 MLOAD DUP1 SWAP7 DUP2 PUSH2 0x140 DUP11 ADD MSTORE PUSH1 0x20 DUP11 DUP11 ADD SWAP2 ADD PUSH2 0x2DF6 JUMP JUMPDEST ADD MLOAD ISZERO ISZERO PUSH2 0x120 DUP6 ADD MSTORE MLOAD PUSH1 0x40 DUP5 ADD MSTORE MLOAD PUSH1 0x60 DUP4 ADD MSTORE PUSH1 0x1F ADD PUSH1 0x1F NOT AND DUP2 ADD SUB ADD SWAP1 RETURN JUMPDEST POP CALLVALUE PUSH2 0x2B4 JUMPI DUP1 PUSH1 0x3 NOT CALLDATASIZE ADD SLT PUSH2 0x2B4 JUMPI PUSH1 0x20 PUSH1 0xC SLOAD PUSH1 0x40 MLOAD SWAP1 DUP2 MSTORE RETURN JUMPDEST POP CALLVALUE PUSH2 0x2B4 JUMPI DUP1 PUSH1 0x3 NOT CALLDATASIZE ADD SLT PUSH2 0x2B4 JUMPI PUSH1 0x1 PUSH1 0x1 PUSH1 0xA0 SHL SUB PUSH1 0x20 SWAP2 SLOAD AND PUSH1 0x40 MLOAD SWAP1 DUP2 MSTORE RETURN JUMPDEST POP CALLVALUE PUSH2 0x2B4 JUMPI DUP1 PUSH1 0x3 NOT CALLDATASIZE ADD SLT PUSH2 0x2B4 JUMPI PUSH2 0xC06 PUSH2 0x38DC JUMP JUMPDEST PUSH1 0x3 SLOAD DUP2 PUSH1 0x3 SSTORE DUP1 PUSH2 0xC16 JUMPI POP DUP1 RETURN JUMPDEST PUSH1 0x3 DUP3 MSTORE PUSH32 0xC2575A0E9E593C00F959F8C92F12DB2869C3395A3B0502D05E2516446F71F85B SWAP1 DUP2 ADD SWAP1 JUMPDEST DUP2 DUP2 LT PUSH2 0xC4C JUMPI POP POP DUP1 RETURN JUMPDEST DUP3 DUP2 SSTORE PUSH1 0x1 ADD PUSH2 0xC40 JUMP JUMPDEST POP CALLVALUE PUSH2 0x2B4 JUMPI PUSH1 0x20 CALLDATASIZE PUSH1 0x3 NOT ADD SLT PUSH2 0x2B4 JUMPI PUSH1 0x4 CALLDATALOAD PUSH2 0xC74 PUSH2 0x38DC JUMP JUMPDEST PUSH1 0x32 DUP2 GT PUSH2 0xCAE JUMPI PUSH1 0x20 DUP2 PUSH32 0xB6B745E6274B3B4BDDB8F8E1ABE1780E23715AE20E9E98871BBAAAFA71117B82 SWAP3 PUSH1 0xB SSTORE PUSH1 0x40 MLOAD SWAP1 DUP2 MSTORE LOG1 DUP1 RETURN JUMPDEST PUSH1 0x64 PUSH1 0x40 MLOAD PUSH3 0x461BCD PUSH1 0xE5 SHL DUP2 MSTORE PUSH1 0x20 PUSH1 0x4 DUP3 ADD MSTORE PUSH1 0xA PUSH1 0x24 DUP3 ADD MSTORE PUSH32 0x4E6F742063617070656400000000000000000000000000000000000000000000 PUSH1 0x44 DUP3 ADD MSTORE REVERT JUMPDEST POP CALLVALUE PUSH2 0x2B4 JUMPI DUP1 PUSH1 0x3 NOT CALLDATASIZE ADD SLT PUSH2 0x2B4 JUMPI PUSH1 0x20 PUSH2 0x2D2 PUSH2 0x36AA JUMP JUMPDEST POP CALLVALUE PUSH2 0x2B4 JUMPI PUSH1 0x40 CALLDATASIZE PUSH1 0x3 NOT ADD SLT PUSH2 0x2B4 JUMPI PUSH1 0x1 PUSH1 0x1 PUSH1 0xA0 SHL SUB PUSH2 0xD2F PUSH2 0x2CE1 JUMP JUMPDEST PUSH2 0xD37 PUSH2 0x38DC JUMP JUMPDEST AND DUP2 MSTORE PUSH1 0x4 PUSH1 0x20 MSTORE PUSH1 0x24 CALLDATALOAD PUSH1 0x40 DUP3 KECCAK256 SSTORE DUP1 RETURN JUMPDEST POP CALLVALUE PUSH2 0x2B4 JUMPI PUSH1 0x20 CALLDATASIZE PUSH1 0x3 NOT ADD SLT PUSH2 0x2B4 JUMPI PUSH1 0x4 CALLDATALOAD PUSH1 0x1 PUSH1 0x1 PUSH1 0xA0 SHL SUB DUP2 AND DUP1 SWAP2 SUB PUSH2 0xA95 JUMPI PUSH1 0x20 PUSH32 0x9C845DD2E74C50B3E7FF8A9624A1239F2F8B1F4CCB10E7F93F87E2BEF841887F SWAP2 PUSH2 0xD9C PUSH2 0x396F JUMP JUMPDEST DUP1 PUSH1 0x1 PUSH1 0x1 PUSH1 0xA0 SHL SUB NOT PUSH1 0xA SLOAD AND OR PUSH1 0xA SSTORE PUSH1 0x40 MLOAD SWAP1 DUP2 MSTORE LOG1 DUP1 RETURN JUMPDEST POP CALLVALUE PUSH2 0x2B4 JUMPI PUSH1 0x20 CALLDATASIZE PUSH1 0x3 NOT ADD SLT PUSH2 0x2B4 JUMPI PUSH2 0xDD2 PUSH2 0x2CE1 JUMP JUMPDEST PUSH2 0xDDA PUSH2 0x38DC JUMP JUMPDEST PUSH1 0x1 PUSH1 0x1 PUSH1 0xA0 SHL SUB PUSH1 0x1 SLOAD AND PUSH2 0xDFC PUSH1 0x1 PUSH1 0x1 PUSH1 0xA0 SHL SUB DUP4 AND SWAP2 DUP3 EQ ISZERO PUSH2 0x365F JUMP JUMPDEST PUSH1 0x1 PUSH1 0x1 PUSH1 0xA0 SHL SUB DUP4 SLOAD AND EQ PUSH2 0xE3D JUMPI PUSH2 0xE15 DUP2 PUSH2 0x3A4A JUMP JUMPDEST PUSH1 0x3 SLOAD PUSH9 0x10000000000000000 DUP2 LT ISZERO PUSH2 0xA99 JUMPI SWAP1 PUSH2 0x7B5 DUP3 PUSH1 0x1 PUSH2 0x304 SWAP5 ADD PUSH1 0x3 SSTORE PUSH2 0x2D24 JUMP JUMPDEST PUSH1 0x64 PUSH1 0x40 MLOAD PUSH3 0x461BCD PUSH1 0xE5 SHL DUP2 MSTORE PUSH1 0x20 PUSH1 0x4 DUP3 ADD MSTORE PUSH1 0xA PUSH1 0x24 DUP3 ADD MSTORE PUSH32 0x4E6F74206E617469766500000000000000000000000000000000000000000000 PUSH1 0x44 DUP3 ADD MSTORE REVERT JUMPDEST POP CALLVALUE PUSH2 0x2B4 JUMPI DUP1 PUSH1 0x3 NOT CALLDATASIZE ADD SLT PUSH2 0x2B4 JUMPI PUSH1 0x20 PUSH1 0x1 PUSH1 0x1 PUSH1 0xA0 SHL SUB PUSH32 0x9016D09D72D40FDAE2FD8CEAC6B6234C7706214FD39C1CD1E609A0528C199300 SLOAD AND PUSH1 0x40 MLOAD SWAP1 DUP2 MSTORE RETURN JUMPDEST POP CALLVALUE PUSH2 0x2B4 JUMPI DUP1 PUSH1 0x3 NOT CALLDATASIZE ADD SLT PUSH2 0x2B4 JUMPI PUSH1 0x20 PUSH1 0x1 PUSH1 0x1 PUSH1 0xA0 SHL SUB PUSH1 0x5 SLOAD AND PUSH1 0x40 MLOAD SWAP1 DUP2 MSTORE RETURN JUMPDEST POP CALLVALUE PUSH2 0x2B4 JUMPI DUP1 PUSH1 0x3 NOT CALLDATASIZE ADD SLT PUSH2 0x2B4 JUMPI PUSH2 0xF07 PUSH2 0x38DC JUMP JUMPDEST PUSH2 0xF0F PUSH2 0x3C03 JUMP JUMPDEST PUSH1 0x1 PUSH1 0xFF NOT PUSH32 0xCD5ED15C6E187E77E9AEE88184C21F4F2182AB5827CB3B7E07FBEDCD63F03300 SLOAD AND OR PUSH32 0xCD5ED15C6E187E77E9AEE88184C21F4F2182AB5827CB3B7E07FBEDCD63F03300 SSTORE PUSH32 0x62E78CEA01BEE320CD4E420270B5EA74000D11B0C9F74754EBDBFC544B05A258 PUSH1 0x20 PUSH1 0x40 MLOAD CALLER DUP2 MSTORE LOG1 DUP1 RETURN JUMPDEST POP CALLVALUE PUSH2 0x2B4 JUMPI DUP1 PUSH1 0x3 NOT CALLDATASIZE ADD SLT PUSH2 0x2B4 JUMPI PUSH2 0xFAE PUSH1 0x1 PUSH1 0x1 PUSH1 0xA0 SHL SUB PUSH1 0x5 SLOAD AND CALLER EQ PUSH2 0x2E4E JUMP JUMPDEST PUSH2 0xFB6 PUSH2 0x39D0 JUMP JUMPDEST PUSH2 0x1010 PUSH1 0x20 PUSH1 0x1 PUSH1 0x1 PUSH1 0xA0 SHL SUB PUSH1 0x1 SLOAD AND PUSH1 0x1 PUSH1 0x1 PUSH1 0xA0 SHL SUB PUSH1 0x5 SLOAD AND SWAP1 PUSH2 0xFDC PUSH2 0x37A6 JUMP JUMPDEST SWAP2 DUP6 PUSH1 0x40 MLOAD DUP1 SWAP7 DUP2 SWAP6 DUP3 SWAP5 PUSH4 0xA9059CBB PUSH1 0xE0 SHL DUP5 MSTORE PUSH1 0x4 DUP5 ADD PUSH1 0x20 SWAP1 SWAP4 SWAP3 SWAP2 SWAP4 PUSH1 0x1 PUSH1 0x1 PUSH1 0xA0 SHL SUB PUSH1 0x40 DUP3 ADD SWAP6 AND DUP2 MSTORE ADD MSTORE JUMP JUMPDEST SUB SWAP3 GAS CALL DUP1 ISZERO PUSH2 0x62B JUMPI PUSH2 0x1022 JUMPI POP DUP1 RETURN JUMPDEST PUSH1 0x20 DUP2 RETURNDATASIZE PUSH1 0x20 GT PUSH2 0x1050 JUMPI JUMPDEST DUP2 PUSH2 0x103B PUSH1 0x20 SWAP4 DUP4 PUSH2 0x2DD4 JUMP JUMPDEST DUP2 ADD SUB SLT PUSH2 0xA95 JUMPI PUSH2 0x104C SWAP1 PUSH2 0x2EBC JUMP JUMPDEST POP DUP1 RETURN JUMPDEST RETURNDATASIZE SWAP2 POP PUSH2 0x102E JUMP JUMPDEST POP CALLVALUE PUSH2 0x2B4 JUMPI DUP1 PUSH1 0x3 NOT CALLDATASIZE ADD SLT PUSH2 0x2B4 JUMPI PUSH1 0x20 PUSH1 0x1 PUSH1 0x1 PUSH1 0xA0 SHL SUB PUSH1 0x41 SLOAD AND PUSH1 0x40 MLOAD SWAP1 DUP2 MSTORE RETURN JUMPDEST POP CALLVALUE PUSH2 0x2B4 JUMPI DUP1 PUSH1 0x3 NOT CALLDATASIZE ADD SLT PUSH2 0x2B4 JUMPI PUSH2 0x1098 PUSH2 0x396F JUMP JUMPDEST DUP1 PUSH1 0x1 PUSH1 0x1 PUSH1 0xA0 SHL SUB PUSH32 0x9016D09D72D40FDAE2FD8CEAC6B6234C7706214FD39C1CD1E609A0528C199300 SLOAD PUSH1 0x1 PUSH1 0x1 PUSH1 0xA0 SHL SUB NOT DUP2 AND PUSH32 0x9016D09D72D40FDAE2FD8CEAC6B6234C7706214FD39C1CD1E609A0528C199300 SSTORE AND PUSH32 0x8BE0079C531659141344CD1FD0A4F28419497F9722A3DAAFE3B4186F6B6457E0 DUP3 DUP1 LOG3 DUP1 RETURN JUMPDEST POP CALLVALUE PUSH2 0x2B4 JUMPI PUSH1 0x20 CALLDATASIZE PUSH1 0x3 NOT ADD SLT PUSH2 0x2B4 JUMPI PUSH32 0x818D6AC90C5DA038E3CE97FE5C8CBD5C3720FDC8E5A6C1665D601628794B0114 PUSH1 0x20 PUSH1 0x1 PUSH1 0x1 PUSH1 0xA0 SHL SUB PUSH2 0x115D PUSH2 0x2CE1 JUMP JUMPDEST PUSH2 0x1165 PUSH2 0x396F JUMP JUMPDEST AND DUP1 PUSH1 0x1 PUSH1 0x1 PUSH1 0xA0 SHL SUB NOT PUSH1 0x5 SLOAD AND OR PUSH1 0x5 SSTORE PUSH1 0x40 MLOAD SWAP1 DUP2 MSTORE LOG1 DUP1 RETURN JUMPDEST POP CALLVALUE PUSH2 0x2B4 JUMPI PUSH2 0x180 CALLDATASIZE PUSH1 0x3 NOT ADD SLT PUSH2 0x2B4 JUMPI PUSH2 0x119D PUSH2 0x2CE1 JUMP JUMPDEST PUSH1 0x24 CALLDATALOAD SWAP1 PUSH1 0x1 PUSH1 0x1 PUSH1 0xA0 SHL SUB DUP3 AND DUP1 SWAP3 SUB PUSH2 0x1824 JUMPI PUSH1 0x44 CALLDATALOAD PUSH1 0x1 PUSH1 0x1 PUSH1 0xA0 SHL SUB DUP2 AND DUP1 SWAP2 SUB PUSH2 0x1820 JUMPI PUSH1 0x64 CALLDATALOAD DUP1 ISZERO ISZERO DUP2 SUB PUSH2 0x181C JUMPI PUSH1 0x84 CALLDATALOAD PUSH1 0x1 PUSH1 0x1 PUSH1 0xA0 SHL SUB DUP2 AND DUP1 SWAP2 SUB PUSH2 0x1818 JUMPI PUSH1 0xA4 CALLDATALOAD SWAP2 PUSH8 0xFFFFFFFFFFFFFFFF DUP4 GT PUSH2 0x1814 JUMPI CALLDATASIZE PUSH1 0x23 DUP5 ADD SLT ISZERO PUSH2 0x1814 JUMPI DUP3 PUSH1 0x4 ADD CALLDATALOAD SWAP5 PUSH8 0xFFFFFFFFFFFFFFFF DUP7 GT PUSH2 0x1800 JUMPI DUP6 PUSH1 0x5 SHL SWAP4 PUSH1 0x40 MLOAD SWAP7 PUSH2 0x122F PUSH1 0x20 DUP8 ADD DUP10 PUSH2 0x2DD4 JUMP JUMPDEST DUP8 MSTORE PUSH1 0x20 DUP8 ADD PUSH1 0x24 DUP2 SWAP7 DUP4 ADD ADD SWAP2 CALLDATASIZE DUP4 GT PUSH2 0x17E0 JUMPI PUSH1 0x24 ADD SWAP1 JUMPDEST DUP3 DUP3 LT PUSH2 0x17E8 JUMPI POP POP POP PUSH1 0xC0 PUSH1 0xC3 NOT CALLDATASIZE ADD SLT PUSH2 0x173A JUMPI PUSH1 0x40 MLOAD SWAP5 PUSH2 0x126C DUP7 PUSH2 0x2D86 JUMP JUMPDEST PUSH1 0xC4 CALLDATALOAD PUSH1 0x1 PUSH1 0x1 PUSH1 0xA0 SHL SUB DUP2 AND DUP2 SUB PUSH2 0x17E4 JUMPI DUP7 MSTORE PUSH1 0xE4 CALLDATALOAD PUSH1 0x1 PUSH1 0x1 PUSH1 0xA0 SHL SUB DUP2 AND DUP2 SUB PUSH2 0x17E4 JUMPI PUSH1 0x20 DUP8 ADD SWAP1 DUP2 MSTORE PUSH2 0x104 CALLDATALOAD PUSH1 0x1 PUSH1 0x1 PUSH1 0xA0 SHL SUB DUP2 AND DUP2 SUB PUSH2 0x17E0 JUMPI PUSH1 0x40 DUP9 ADD SWAP1 DUP2 MSTORE PUSH2 0x124 CALLDATALOAD PUSH1 0x1 PUSH1 0x1 PUSH1 0xA0 SHL SUB DUP2 AND DUP2 SUB PUSH2 0x17DC JUMPI PUSH1 0x60 DUP10 ADD SWAP1 DUP2 MSTORE PUSH2 0x144 CALLDATALOAD SWAP2 PUSH1 0x1 PUSH1 0x1 PUSH1 0xA0 SHL SUB DUP4 AND DUP4 SUB PUSH2 0x17D8 JUMPI PUSH1 0x80 DUP11 ADD SWAP3 DUP4 MSTORE PUSH2 0x164 CALLDATALOAD SWAP4 PUSH1 0x1 PUSH1 0x1 PUSH1 0xA0 SHL SUB DUP6 AND DUP6 SUB PUSH2 0x17D4 JUMPI PUSH1 0xA0 DUP12 ADD SWAP5 DUP6 MSTORE PUSH32 0xF0C57E16840DF040F15088DC2F81FE391C3923BEC73E23A9662EFC9C229C6A00 SLOAD SWAP11 PUSH1 0xFF DUP13 PUSH1 0x40 SHR AND ISZERO SWAP12 DUP13 PUSH8 0xFFFFFFFFFFFFFFFF DUP3 AND DUP1 ISZERO SWAP2 DUP3 PUSH2 0x17CC JUMPI JUMPDEST POP PUSH1 0x1 EQ SWAP1 DUP2 PUSH2 0x17C2 JUMPI JUMPDEST ISZERO SWAP1 DUP2 PUSH2 0x17B9 JUMPI JUMPDEST POP PUSH2 0x1790 JUMPI PUSH1 0x1 PUSH1 0x1 PUSH1 0xA0 SHL SUB SWAP9 SWAP7 SWAP4 SWAP5 DUP10 DUP1 SWAP7 DUP16 DUP3 SWAP7 DUP4 PUSH1 0x20 SWAP14 SWAP12 SWAP8 DUP2 SWAP8 DUP3 SWAP5 PUSH1 0x1 PUSH8 0xFFFFFFFFFFFFFFFF NOT DUP4 AND OR PUSH32 0xF0C57E16840DF040F15088DC2F81FE391C3923BEC73E23A9662EFC9C229C6A00 SSTORE PUSH2 0x1751 JUMPI JUMPDEST POP PUSH2 0x13BD PUSH2 0x3C93 JUMP JUMPDEST PUSH2 0x13C5 PUSH2 0x3C93 JUMP JUMPDEST PUSH2 0x13CD PUSH2 0x3C93 JUMP JUMPDEST PUSH2 0x13D6 CALLER PUSH2 0x381D JUMP JUMPDEST PUSH2 0x13DE PUSH2 0x3C93 JUMP JUMPDEST MLOAD AND PUSH1 0x1 PUSH1 0x1 PUSH1 0xA0 SHL SUB NOT PUSH1 0x5 SLOAD AND OR PUSH1 0x5 SSTORE MLOAD AND PUSH1 0x1 PUSH1 0x1 PUSH1 0xA0 SHL SUB NOT PUSH1 0x6 SLOAD AND OR PUSH1 0x6 SSTORE MLOAD AND PUSH1 0x1 PUSH1 0x1 PUSH1 0xA0 SHL SUB NOT PUSH1 0x7 SLOAD AND OR PUSH1 0x7 SSTORE MLOAD AND PUSH1 0x1 PUSH1 0x1 PUSH1 0xA0 SHL SUB NOT PUSH1 0x8 SLOAD AND OR PUSH1 0x8 SSTORE MLOAD AND PUSH1 0x1 PUSH1 0x1 PUSH1 0xA0 SHL SUB NOT PUSH1 0x9 SLOAD AND OR PUSH1 0x9 SSTORE MLOAD AND PUSH1 0x1 PUSH1 0x1 PUSH1 0xA0 SHL SUB NOT PUSH1 0xA SLOAD AND OR PUSH1 0xA SSTORE DUP11 PUSH1 0xB SSTORE PUSH1 0x1 PUSH1 0x1 PUSH1 0xA0 SHL SUB NOT PUSH1 0x41 SLOAD AND OR PUSH1 0x41 SSTORE PUSH1 0x4 PUSH1 0x40 MLOAD DUP1 SWAP5 DUP2 SWAP4 PUSH32 0x26B1D5F00000000000000000000000000000000000000000000000000000000 DUP4 MSTORE AND GAS STATICCALL DUP1 ISZERO PUSH2 0x1746 JUMPI DUP9 SWAP1 PUSH2 0x1702 JUMPI JUMPDEST PUSH1 0x1 PUSH1 0x1 PUSH1 0xA0 SHL SUB SWAP2 POP AND PUSH1 0x1 PUSH1 0x1 PUSH1 0xA0 SHL SUB NOT PUSH1 0x42 SLOAD AND OR PUSH1 0x42 SSTORE PUSH2 0x16E4 JUMPI JUMPDEST DUP6 JUMPDEST DUP5 MLOAD DUP2 LT ISZERO PUSH2 0x155D JUMPI PUSH1 0x1 PUSH1 0x1 PUSH1 0xA0 SHL SUB PUSH1 0x20 DUP3 PUSH1 0x5 SHL DUP8 ADD ADD MLOAD AND PUSH2 0x14E8 PUSH2 0x38DC JUMP JUMPDEST PUSH2 0x14FF PUSH1 0x1 PUSH1 0x1 PUSH1 0xA0 SHL SUB PUSH1 0x1 SLOAD AND DUP3 EQ ISZERO PUSH2 0x365F JUMP JUMPDEST PUSH1 0x1 PUSH1 0x1 PUSH1 0xA0 SHL SUB DUP9 SLOAD AND DUP2 EQ PUSH2 0xE3D JUMPI PUSH2 0x1519 DUP2 PUSH2 0x3A4A JUMP JUMPDEST PUSH1 0x3 SLOAD PUSH9 0x10000000000000000 DUP2 LT ISZERO PUSH2 0x1549 JUMPI PUSH1 0x1 SWAP3 SWAP2 PUSH2 0x7B5 DUP3 DUP6 PUSH2 0x1543 SWAP5 ADD PUSH1 0x3 SSTORE PUSH2 0x2D24 JUMP JUMPDEST ADD PUSH2 0x14C4 JUMP JUMPDEST PUSH1 0x24 DUP10 PUSH4 0x4E487B71 PUSH1 0xE0 SHL DUP2 MSTORE PUSH1 0x41 PUSH1 0x4 MSTORE REVERT JUMPDEST POP SWAP1 SWAP3 SWAP2 SWAP4 PUSH1 0x1 PUSH1 0x1 PUSH1 0xA0 SHL SUB NOT DUP7 SLOAD AND OR DUP6 SSTORE PUSH1 0x1 PUSH1 0x1 PUSH1 0xA0 SHL SUB NOT PUSH1 0x1 SLOAD AND OR PUSH1 0x1 SSTORE MLOAD SWAP1 PUSH8 0xFFFFFFFFFFFFFFFF DUP3 GT PUSH2 0x16D0 JUMPI PUSH9 0x10000000000000000 DUP3 GT PUSH2 0x16D0 JUMPI PUSH1 0x3 SLOAD DUP3 PUSH1 0x3 SSTORE DUP1 DUP4 LT PUSH2 0x168C JUMPI JUMPDEST POP PUSH1 0x3 DUP5 MSTORE DUP4 JUMPDEST DUP3 DUP2 LT PUSH2 0x164F JUMPI POP POP POP PUSH3 0x15180 PUSH1 0xE SSTORE PUSH2 0x15D1 JUMPI DUP1 RETURN JUMPDEST PUSH9 0xFF0000000000000000 NOT PUSH32 0xF0C57E16840DF040F15088DC2F81FE391C3923BEC73E23A9662EFC9C229C6A00 SLOAD AND PUSH32 0xF0C57E16840DF040F15088DC2F81FE391C3923BEC73E23A9662EFC9C229C6A00 SSTORE PUSH32 0xC7F505B2F371AE2175EE4913F4499E1F2633A7B5936321EED1CDAEB6115181D2 PUSH1 0x20 PUSH1 0x40 MLOAD PUSH1 0x1 DUP2 MSTORE LOG1 DUP1 RETURN JUMPDEST PUSH1 0x1 SWAP1 PUSH1 0x20 PUSH1 0x1 PUSH1 0x1 PUSH1 0xA0 SHL SUB DUP5 MLOAD AND SWAP4 ADD SWAP3 DUP2 PUSH32 0xC2575A0E9E593C00F959F8C92F12DB2869C3395A3B0502D05E2516446F71F85B ADD SSTORE ADD PUSH2 0x15B9 JUMP JUMPDEST PUSH1 0x3 DUP6 MSTORE PUSH32 0xC2575A0E9E593C00F959F8C92F12DB2869C3395A3B0502D05E2516446F71F85B SWAP1 DUP2 ADD SWAP1 DUP4 ADD JUMPDEST DUP2 DUP2 LT PUSH2 0x16C5 JUMPI POP PUSH2 0x15B2 JUMP JUMPDEST DUP6 DUP2 SSTORE PUSH1 0x1 ADD PUSH2 0x16B8 JUMP JUMPDEST PUSH1 0x24 DUP5 PUSH4 0x4E487B71 PUSH1 0xE0 SHL DUP2 MSTORE PUSH1 0x41 PUSH1 0x4 MSTORE REVERT JUMPDEST PUSH2 0x16EC PUSH2 0x38DC JUMP JUMPDEST PUSH1 0x1 PUSH1 0xFF NOT PUSH1 0xF SLOAD AND OR PUSH1 0xF SSTORE DUP6 PUSH1 0xE SSTORE PUSH2 0x14C2 JUMP JUMPDEST POP PUSH1 0x20 DUP2 RETURNDATASIZE PUSH1 0x20 GT PUSH2 0x173E JUMPI JUMPDEST DUP2 PUSH2 0x171C PUSH1 0x20 SWAP4 DUP4 PUSH2 0x2DD4 JUMP JUMPDEST DUP2 ADD SUB SLT PUSH2 0x173A JUMPI PUSH2 0x1735 PUSH1 0x1 PUSH1 0x1 PUSH1 0xA0 SHL SUB SWAP2 PUSH2 0x3638 JUMP JUMPDEST PUSH2 0x14A1 JUMP JUMPDEST DUP8 DUP1 REVERT JUMPDEST RETURNDATASIZE SWAP2 POP PUSH2 0x170F JUMP JUMPDEST PUSH1 0x40 MLOAD RETURNDATASIZE DUP11 DUP3 RETURNDATACOPY RETURNDATASIZE SWAP1 REVERT JUMPDEST PUSH9 0xFFFFFFFFFFFFFFFFFF NOT AND PUSH9 0x10000000000000001 OR PUSH32 0xF0C57E16840DF040F15088DC2F81FE391C3923BEC73E23A9662EFC9C229C6A00 SSTORE CODESIZE PUSH2 0x13B4 JUMP JUMPDEST POP PUSH1 0x4 DUP16 PUSH32 0xF92EE8A900000000000000000000000000000000000000000000000000000000 DUP2 MSTORE REVERT JUMPDEST SWAP1 POP ISZERO CODESIZE PUSH2 0x135D JUMP JUMPDEST ADDRESS EXTCODESIZE ISZERO SWAP2 POP PUSH2 0x1355 JUMP JUMPDEST SWAP2 POP DUP15 PUSH2 0x134A JUMP JUMPDEST DUP14 DUP1 REVERT JUMPDEST DUP13 DUP1 REVERT JUMPDEST DUP12 DUP1 REVERT JUMPDEST DUP11 DUP1 REVERT JUMPDEST DUP10 DUP1 REVERT JUMPDEST PUSH1 0x20 DUP1 SWAP2 PUSH2 0x17F5 DUP5 PUSH2 0x2CF7 JUMP JUMPDEST DUP2 MSTORE ADD SWAP2 ADD SWAP1 PUSH2 0x1249 JUMP JUMPDEST PUSH1 0x24 DUP9 PUSH4 0x4E487B71 PUSH1 0xE0 SHL DUP2 MSTORE PUSH1 0x41 PUSH1 0x4 MSTORE REVERT JUMPDEST DUP7 DUP1 REVERT JUMPDEST DUP6 DUP1 REVERT JUMPDEST DUP5 DUP1 REVERT JUMPDEST DUP4 DUP1 REVERT JUMPDEST DUP3 DUP1 REVERT JUMPDEST POP CALLVALUE PUSH2 0x2B4 JUMPI PUSH1 0x20 CALLDATASIZE PUSH1 0x3 NOT ADD SLT PUSH2 0x2B4 JUMPI PUSH2 0x1842 PUSH2 0x2CE1 JUMP JUMPDEST PUSH2 0x184A PUSH2 0x3C03 JUMP JUMPDEST DUP2 JUMPDEST PUSH1 0x3 SLOAD DUP2 LT ISZERO PUSH2 0x1992 JUMPI PUSH1 0x1 PUSH1 0x1 PUSH1 0xA0 SHL SUB PUSH2 0x1867 DUP3 PUSH2 0x2D24 JUMP JUMPDEST SWAP1 SLOAD SWAP1 PUSH1 0x3 SHL SHR AND PUSH20 0xEEEEEEEEEEEEEEEEEEEEEEEEEEEEEEEEEEEEEEEE DUP2 EQ PUSH1 0x0 EQ PUSH2 0x18E6 JUMPI POP DUP3 PUSH1 0x1 PUSH1 0x1 PUSH1 0xA0 SHL SUB DUP2 SLOAD AND SELFBALANCE SWAP1 DUP1 EXTCODESIZE ISZERO PUSH2 0x1824 JUMPI DUP3 SWAP1 PUSH1 0x4 PUSH1 0x40 MLOAD DUP1 SWAP5 DUP2 SWAP4 PUSH4 0xD0E30DB PUSH1 0xE4 SHL DUP4 MSTORE GAS CALL DUP1 ISZERO PUSH2 0x62B JUMPI PUSH2 0x18D1 JUMPI JUMPDEST POP POP PUSH1 0x1 SWAP1 JUMPDEST ADD PUSH2 0x184C JUMP JUMPDEST DUP2 PUSH2 0x18DB SWAP2 PUSH2 0x2DD4 JUMP JUMPDEST PUSH2 0x1824 JUMPI DUP3 CODESIZE PUSH2 0x18C5 JUMP JUMPDEST SWAP3 SWAP2 SWAP1 PUSH1 0x40 MLOAD SWAP4 PUSH4 0x70A08231 PUSH1 0xE0 SHL DUP6 MSTORE ADDRESS PUSH1 0x4 DUP7 ADD MSTORE PUSH1 0x20 DUP6 PUSH1 0x24 DUP2 DUP5 GAS STATICCALL DUP1 ISZERO PUSH2 0x1987 JUMPI DUP5 SWAP1 PUSH2 0x1950 JUMPI JUMPDEST DUP5 SWAP6 POP DUP2 PUSH1 0x1 SWAP5 SWAP6 MSTORE PUSH1 0x4 PUSH1 0x20 MSTORE PUSH1 0x40 DUP7 KECCAK256 SLOAD DUP2 GT PUSH2 0x1934 JUMPI JUMPDEST POP POP PUSH2 0x18CB JUMP JUMPDEST PUSH2 0x1949 SWAP2 PUSH1 0x1 PUSH1 0x1 PUSH1 0xA0 SHL SUB DUP8 SLOAD AND SWAP1 PUSH2 0x3CEC JUMP JUMPDEST CODESIZE DUP1 PUSH2 0x192D JUMP JUMPDEST POP PUSH1 0x20 SWAP5 RETURNDATASIZE DUP7 GT PUSH2 0x197F JUMPI JUMPDEST PUSH2 0x1966 DUP7 DUP3 PUSH2 0x2DD4 JUMP JUMPDEST PUSH1 0x20 DUP2 PUSH1 0x0 SWAP8 DUP2 ADD SUB SLT PUSH2 0x1818 JUMPI MLOAD SWAP4 SWAP5 POP DUP5 SWAP4 PUSH2 0x1913 JUMP JUMPDEST RETURNDATASIZE SWAP6 POP PUSH2 0x195C JUMP JUMPDEST PUSH1 0x40 MLOAD RETURNDATASIZE DUP7 DUP3 RETURNDATACOPY RETURNDATASIZE SWAP1 REVERT JUMPDEST POP PUSH1 0x1 PUSH1 0x1 PUSH1 0xA0 SHL SUB DUP3 SLOAD AND PUSH1 0x40 MLOAD PUSH4 0x70A08231 PUSH1 0xE0 SHL DUP2 MSTORE ADDRESS PUSH1 0x4 DUP3 ADD MSTORE PUSH1 0x20 DUP2 PUSH1 0x24 DUP2 DUP6 GAS STATICCALL SWAP1 DUP2 ISZERO PUSH2 0x1987 JUMPI DUP5 SWAP2 PUSH2 0x1EFF JUMPI JUMPDEST POP DUP2 DUP5 MSTORE PUSH1 0x4 PUSH1 0x20 MSTORE PUSH1 0x40 DUP5 KECCAK256 SLOAD LT PUSH2 0x19DF JUMPI DUP3 DUP1 RETURN JUMPDEST PUSH2 0x19E7 PUSH2 0x3AA4 JUMP JUMPDEST SWAP2 PUSH1 0x40 MLOAD PUSH4 0x70A08231 PUSH1 0xE0 SHL DUP2 MSTORE ADDRESS PUSH1 0x4 DUP3 ADD MSTORE PUSH1 0x20 DUP2 PUSH1 0x24 DUP2 DUP7 GAS STATICCALL SWAP1 DUP2 ISZERO PUSH2 0x1E33 JUMPI DUP6 SWAP2 PUSH2 0x1ECC JUMPI JUMPDEST POP PUSH1 0x20 PUSH8 0xDE0B6B3A7640000 PUSH2 0x1A2D PUSH2 0x1A7D SWAP4 DUP8 MLOAD SWAP1 PUSH2 0x364C JUMP JUMPDEST DIV SWAP3 PUSH8 0xDE0B6B3A7640000 PUSH2 0x1A46 PUSH1 0x40 DUP9 ADD MLOAD DUP7 PUSH2 0x364C JUMP JUMPDEST DIV SWAP5 DUP6 SWAP2 DUP9 PUSH1 0x40 MLOAD DUP1 SWAP7 DUP2 SWAP6 DUP3 SWAP5 PUSH4 0xA9059CBB PUSH1 0xE0 SHL DUP5 MSTORE PUSH1 0x4 DUP5 ADD PUSH1 0x20 SWAP1 SWAP4 SWAP3 SWAP2 SWAP4 PUSH1 0x1 PUSH1 0x1 PUSH1 0xA0 SHL SUB PUSH1 0x40 DUP3 ADD SWAP6 AND DUP2 MSTORE ADD MSTORE JUMP JUMPDEST SUB SWAP3 GAS CALL DUP1 ISZERO PUSH2 0x1E33 JUMPI PUSH2 0x1E95 JUMPI JUMPDEST POP PUSH8 0xDE0B6B3A7640000 PUSH2 0x1AA4 PUSH1 0x20 DUP6 ADD MLOAD DUP4 PUSH2 0x364C JUMP JUMPDEST DUP6 SLOAD PUSH1 0x9 SLOAD PUSH1 0x40 MLOAD PUSH4 0xA9059CBB PUSH1 0xE0 SHL DUP2 MSTORE PUSH1 0x1 PUSH1 0x1 PUSH1 0xA0 SHL SUB SWAP2 DUP3 AND PUSH1 0x4 DUP3 ADD MSTORE SWAP4 SWAP1 SWAP3 DIV PUSH1 0x24 DUP5 ADD DUP2 SWAP1 MSTORE SWAP6 SWAP3 SWAP2 PUSH1 0x20 SWAP2 DUP4 SWAP2 PUSH1 0x44 SWAP2 DUP4 SWAP2 DUP12 SWAP2 AND GAS CALL DUP1 ISZERO PUSH2 0x1E8A JUMPI PUSH2 0x1E3E JUMPI JUMPDEST POP PUSH8 0xDE0B6B3A7640000 SWAP2 PUSH1 0x60 PUSH2 0x1B07 SWAP3 ADD MLOAD SWAP1 PUSH2 0x364C JUMP JUMPDEST DUP5 SLOAD PUSH1 0x8 SLOAD PUSH1 0x40 MLOAD PUSH4 0xA9059CBB PUSH1 0xE0 SHL DUP2 MSTORE PUSH1 0x1 PUSH1 0x1 PUSH1 0xA0 SHL SUB SWAP2 DUP3 AND PUSH1 0x4 DUP3 ADD MSTORE SWAP4 SWAP1 SWAP3 DIV PUSH1 0x24 DUP5 ADD DUP2 SWAP1 MSTORE SWAP3 SWAP2 PUSH1 0x20 SWAP2 DUP4 SWAP2 PUSH1 0x44 SWAP2 DUP4 SWAP2 DUP11 SWAP2 AND GAS CALL DUP1 ISZERO PUSH2 0x1E33 JUMPI PUSH2 0x1DD1 JUMPI JUMPDEST POP SWAP1 PUSH1 0x60 SWAP2 PUSH32 0xD255B592C7F268A73E534DA5219A60FF911B4CF6DAAE21C7D20527DD657BD99A SWAP4 PUSH1 0x40 MLOAD SWAP3 DUP4 MSTORE PUSH1 0x20 DUP4 ADD MSTORE PUSH1 0x40 DUP3 ADD MSTORE LOG1 PUSH1 0x1 SLOAD PUSH1 0x1 PUSH1 0x1 PUSH1 0xA0 SHL SUB AND DUP1 PUSH2 0x1D91 JUMPI POP PUSH2 0x1BBA PUSH1 0x1 PUSH1 0x1 PUSH1 0xA0 SHL SUB DUP3 SLOAD AND PUSH1 0x1 PUSH1 0x1 PUSH1 0xA0 SHL SUB PUSH1 0x1 SLOAD AND SWAP1 PUSH2 0x3DDE JUMP JUMPDEST PUSH2 0x1BC2 PUSH2 0x37A6 JUMP JUMPDEST PUSH2 0x1BD3 PUSH2 0x1BCD PUSH2 0x36AA JUMP JUMPDEST DUP3 PUSH2 0x3810 JUMP JUMPDEST PUSH1 0xD SSTORE TIMESTAMP PUSH1 0xC SSTORE PUSH2 0x1BE2 PUSH2 0x3C03 JUMP JUMPDEST DUP2 PUSH2 0x1BEB PUSH2 0x37A6 JUMP JUMPDEST DUP1 PUSH2 0x1C3D JUMPI JUMPDEST POP POP PUSH1 0x60 PUSH32 0x51E908723A339CD8D3FD3D8A2E4F2BDDE81DDB7D26CA1753F1F515E0B07A513B SWAP2 PUSH2 0x1C25 PUSH2 0x336 PUSH2 0x328 PUSH2 0x37A6 JUMP JUMPDEST PUSH1 0x40 MLOAD SWAP2 CALLER DUP4 MSTORE PUSH1 0x20 DUP4 ADD MSTORE PUSH1 0x40 DUP3 ADD MSTORE LOG1 CODESIZE DUP1 DUP3 DUP1 RETURN JUMPDEST PUSH1 0x1 SLOAD PUSH1 0x42 SLOAD PUSH1 0x40 MLOAD PUSH4 0x95EA7B3 PUSH1 0xE0 SHL DUP2 MSTORE PUSH1 0x1 PUSH1 0x1 PUSH1 0xA0 SHL SUB SWAP2 DUP3 AND PUSH1 0x4 DUP3 ADD MSTORE PUSH1 0x24 DUP2 ADD DUP5 SWAP1 MSTORE SWAP2 PUSH1 0x20 SWAP2 DUP4 SWAP2 PUSH1 0x44 SWAP2 DUP4 SWAP2 DUP9 SWAP2 AND GAS CALL DUP1 ISZERO PUSH2 0x676 JUMPI PUSH2 0x1D5A JUMPI JUMPDEST POP PUSH1 0x1 PUSH1 0x1 PUSH1 0xA0 SHL SUB PUSH1 0x42 SLOAD AND SWAP1 PUSH1 0x1 PUSH1 0x1 PUSH1 0xA0 SHL SUB PUSH1 0x1 SLOAD AND SWAP1 DUP3 EXTCODESIZE ISZERO PUSH2 0x1820 JUMPI PUSH1 0x84 DUP5 SWAP3 DUP4 PUSH1 0x40 MLOAD SWAP6 DUP7 SWAP5 DUP6 SWAP4 PUSH4 0xE8EDA9DF PUSH1 0xE0 SHL DUP6 MSTORE PUSH1 0x4 DUP6 ADD MSTORE PUSH1 0x24 DUP5 ADD MSTORE ADDRESS PUSH1 0x44 DUP5 ADD MSTORE DUP2 PUSH1 0x64 DUP5 ADD MSTORE GAS CALL DUP1 ISZERO PUSH2 0x62B JUMPI PUSH2 0x1D45 JUMPI JUMPDEST POP POP PUSH1 0x60 PUSH32 0x51E908723A339CD8D3FD3D8A2E4F2BDDE81DDB7D26CA1753F1F515E0B07A513B SWAP2 PUSH32 0x4D6CE1E535DBADE1C23DEFBA91E23B8F791CE5EDC0CC320257A2B364E4E38426 PUSH1 0x20 PUSH2 0x1D35 PUSH2 0x336 PUSH2 0x328 PUSH2 0x37A6 JUMP JUMPDEST PUSH1 0x40 MLOAD SWAP1 DUP2 MSTORE LOG1 SWAP2 DUP4 SWAP2 POP PUSH2 0x1BF1 JUMP JUMPDEST DUP2 PUSH2 0x1D4F SWAP2 PUSH2 0x2DD4 JUMP JUMPDEST PUSH2 0xA95 JUMPI DUP2 CODESIZE PUSH2 0x1CDE JUMP JUMPDEST PUSH1 0x20 DUP2 RETURNDATASIZE PUSH1 0x20 GT PUSH2 0x1D89 JUMPI JUMPDEST DUP2 PUSH2 0x1D73 PUSH1 0x20 SWAP4 DUP4 PUSH2 0x2DD4 JUMP JUMPDEST DUP2 ADD SUB SLT PUSH2 0x1824 JUMPI PUSH2 0x1D84 SWAP1 PUSH2 0x2EBC JUMP JUMPDEST PUSH2 0x1C82 JUMP JUMPDEST RETURNDATASIZE SWAP2 POP PUSH2 0x1D66 JUMP JUMPDEST PUSH1 0x1 PUSH1 0x1 PUSH1 0xA0 SHL SUB DUP3 SLOAD AND SWAP1 DUP2 DUP2 SUB PUSH2 0x1DC1 JUMPI JUMPDEST POP POP PUSH2 0x1DBC PUSH1 0x1 PUSH1 0x1 PUSH1 0xA0 SHL SUB PUSH1 0x1 SLOAD AND DUP1 PUSH2 0x3DDE JUMP JUMPDEST PUSH2 0x1BBA JUMP JUMPDEST PUSH2 0x1DCA SWAP2 PUSH2 0x3DDE JUMP JUMPDEST CODESIZE DUP1 PUSH2 0x1DA5 JUMP JUMPDEST SWAP2 SWAP1 PUSH1 0x20 DUP4 RETURNDATASIZE PUSH1 0x20 GT PUSH2 0x1E2B JUMPI JUMPDEST DUP2 PUSH2 0x1DEC PUSH1 0x20 SWAP4 DUP4 PUSH2 0x2DD4 JUMP JUMPDEST DUP2 ADD SUB SLT PUSH2 0x181C JUMPI PUSH32 0xD255B592C7F268A73E534DA5219A60FF911B4CF6DAAE21C7D20527DD657BD99A SWAP4 PUSH2 0x1E21 PUSH1 0x60 SWAP5 PUSH2 0x2EBC JUMP JUMPDEST POP SWAP4 POP SWAP1 SWAP2 PUSH2 0x1B50 JUMP JUMPDEST RETURNDATASIZE SWAP2 POP PUSH2 0x1DDF JUMP JUMPDEST PUSH1 0x40 MLOAD RETURNDATASIZE DUP8 DUP3 RETURNDATACOPY RETURNDATASIZE SWAP1 REVERT JUMPDEST SWAP2 PUSH1 0x20 DUP4 RETURNDATASIZE PUSH1 0x20 GT PUSH2 0x1E82 JUMPI JUMPDEST DUP2 PUSH2 0x1E58 PUSH1 0x20 SWAP4 DUP4 PUSH2 0x2DD4 JUMP JUMPDEST DUP2 ADD SUB SLT PUSH2 0x1818 JUMPI PUSH1 0x60 PUSH2 0x1B07 SWAP3 PUSH2 0x1E78 PUSH8 0xDE0B6B3A7640000 SWAP6 PUSH2 0x2EBC JUMP JUMPDEST POP SWAP3 POP POP SWAP2 PUSH2 0x1AEE JUMP JUMPDEST RETURNDATASIZE SWAP2 POP PUSH2 0x1E4B JUMP JUMPDEST PUSH1 0x40 MLOAD RETURNDATASIZE DUP9 DUP3 RETURNDATACOPY RETURNDATASIZE SWAP1 REVERT JUMPDEST PUSH1 0x20 DUP2 RETURNDATASIZE PUSH1 0x20 GT PUSH2 0x1EC4 JUMPI JUMPDEST DUP2 PUSH2 0x1EAE PUSH1 0x20 SWAP4 DUP4 PUSH2 0x2DD4 JUMP JUMPDEST DUP2 ADD SUB SLT PUSH2 0x181C JUMPI PUSH2 0x1EBF SWAP1 PUSH2 0x2EBC JUMP JUMPDEST PUSH2 0x1A8C JUMP JUMPDEST RETURNDATASIZE SWAP2 POP PUSH2 0x1EA1 JUMP JUMPDEST SWAP1 POP PUSH1 0x20 DUP2 RETURNDATASIZE PUSH1 0x20 GT PUSH2 0x1EF7 JUMPI JUMPDEST DUP2 PUSH2 0x1EE7 PUSH1 0x20 SWAP4 DUP4 PUSH2 0x2DD4 JUMP JUMPDEST DUP2 ADD SUB SLT PUSH2 0x44F JUMPI MLOAD PUSH1 0x20 PUSH2 0x1A12 JUMP JUMPDEST RETURNDATASIZE SWAP2 POP PUSH2 0x1EDA JUMP JUMPDEST SWAP1 POP PUSH1 0x20 DUP2 RETURNDATASIZE PUSH1 0x20 GT PUSH2 0x1F29 JUMPI JUMPDEST DUP2 PUSH2 0x1F1A PUSH1 0x20 SWAP4 DUP4 PUSH2 0x2DD4 JUMP JUMPDEST DUP2 ADD SUB SLT PUSH2 0x44F JUMPI MLOAD CODESIZE PUSH2 0x19C8 JUMP JUMPDEST RETURNDATASIZE SWAP2 POP PUSH2 0x1F0D JUMP JUMPDEST POP CALLVALUE PUSH2 0x2B4 JUMPI DUP1 PUSH1 0x3 NOT CALLDATASIZE ADD SLT PUSH2 0x2B4 JUMPI PUSH1 0x20 PUSH1 0xFF PUSH32 0xCD5ED15C6E187E77E9AEE88184C21F4F2182AB5827CB3B7E07FBEDCD63F03300 SLOAD AND PUSH1 0x40 MLOAD SWAP1 ISZERO ISZERO DUP2 MSTORE RETURN JUMPDEST POP CALLVALUE PUSH2 0x2B4 JUMPI DUP1 PUSH1 0x3 NOT CALLDATASIZE ADD SLT PUSH2 0x2B4 JUMPI PUSH1 0x20 PUSH1 0x1 PUSH1 0x1 PUSH1 0xA0 SHL SUB PUSH1 0x1 SLOAD AND PUSH1 0x40 MLOAD SWAP1 DUP2 MSTORE RETURN JUMPDEST POP CALLVALUE PUSH2 0x2B4 JUMPI PUSH1 0xA0 CALLDATASIZE PUSH1 0x3 NOT ADD SLT PUSH2 0x2B4 JUMPI PUSH2 0x1FB4 PUSH2 0x2CE1 JUMP JUMPDEST SWAP1 PUSH1 0x24 CALLDATALOAD PUSH8 0xFFFFFFFFFFFFFFFF DUP2 GT PUSH2 0xA95 JUMPI PUSH2 0x1FD5 SWAP1 CALLDATASIZE SWAP1 PUSH1 0x4 ADD PUSH2 0x2D55 JUMP JUMPDEST SWAP1 SWAP3 PUSH1 0x44 CALLDATALOAD PUSH8 0xFFFFFFFFFFFFFFFF DUP2 GT PUSH2 0x1820 JUMPI PUSH2 0x1FF7 SWAP1 CALLDATASIZE SWAP1 PUSH1 0x4 ADD PUSH2 0x2D55 JUMP JUMPDEST SWAP1 PUSH1 0x64 CALLDATALOAD PUSH8 0xFFFFFFFFFFFFFFFF DUP2 GT PUSH2 0x1818 JUMPI PUSH2 0x2018 SWAP1 CALLDATASIZE SWAP1 PUSH1 0x4 ADD PUSH2 0x2D55 JUMP JUMPDEST SWAP2 SWAP1 SWAP3 PUSH1 0x84 CALLDATALOAD PUSH8 0xFFFFFFFFFFFFFFFF DUP2 GT PUSH2 0x173A JUMPI SWAP1 PUSH2 0x2047 PUSH1 0x1 PUSH1 0x1 PUSH1 0xA0 SHL SUB SWAP6 SWAP5 SWAP4 SWAP3 CALLDATASIZE SWAP1 PUSH1 0x4 ADD PUSH2 0x2D55 JUMP JUMPDEST SWAP6 SWAP1 SWAP7 AND SWAP9 DUP10 EXTCODESIZE ISZERO PUSH2 0x217B JUMPI SWAP2 PUSH2 0x20AE SWAP2 PUSH2 0x209C PUSH2 0x20C0 SWAP7 SWAP6 SWAP5 PUSH1 0x40 SWAP10 SWAP9 SWAP10 MLOAD SWAP11 PUSH32 0x71EE95C000000000000000000000000000000000000000000000000000000000 DUP13 MSTORE PUSH1 0x80 PUSH1 0x4 DUP14 ADD MSTORE PUSH1 0x84 DUP13 ADD SWAP2 PUSH2 0x35B9 JUMP JUMPDEST DUP10 DUP2 SUB PUSH1 0x3 NOT ADD PUSH1 0x24 DUP12 ADD MSTORE SWAP2 PUSH2 0x35B9 JUMP JUMPDEST DUP7 DUP2 SUB PUSH1 0x3 NOT ADD PUSH1 0x44 DUP9 ADD MSTORE SWAP2 PUSH2 0x35FB JUMP JUMPDEST SWAP2 PUSH1 0x3 NOT DUP5 DUP5 SUB ADD PUSH1 0x64 DUP6 ADD MSTORE DUP1 DUP4 MSTORE PUSH1 0x20 DUP4 ADD SWAP1 PUSH1 0x20 DUP2 PUSH1 0x5 SHL DUP6 ADD ADD SWAP4 DUP4 DUP8 SWAP2 PUSH1 0x1E NOT DUP3 CALLDATASIZE SUB ADD SWAP1 JUMPDEST DUP5 DUP5 LT PUSH2 0x211F JUMPI POP DUP9 DUP1 DUP10 DUP2 DUP2 DUP15 DUP2 DUP4 DUP2 DUP16 SUB SWAP3 GAS CALL DUP1 ISZERO PUSH2 0x62B JUMPI PUSH2 0x210E JUMPI POP RETURN JUMPDEST DUP2 PUSH2 0x2118 SWAP2 PUSH2 0x2DD4 JUMP JUMPDEST PUSH2 0x2B4 JUMPI DUP1 RETURN JUMPDEST SWAP1 SWAP2 SWAP3 SWAP4 SWAP5 SWAP6 SWAP7 PUSH1 0x1F NOT DUP3 DUP3 SUB ADD DUP8 MSTORE DUP8 CALLDATALOAD DUP4 DUP2 SLT ISZERO PUSH2 0x17E0 JUMPI DUP5 ADD PUSH1 0x20 DUP2 CALLDATALOAD SWAP2 ADD PUSH8 0xFFFFFFFFFFFFFFFF DUP3 GT PUSH2 0x17DC JUMPI DUP2 PUSH1 0x5 SHL CALLDATASIZE SUB DUP2 SGT PUSH2 0x17DC JUMPI PUSH2 0x216C PUSH1 0x1 SWAP4 PUSH1 0x20 SWAP4 DUP5 SWAP4 PUSH2 0x35FB JUMP JUMPDEST SWAP10 ADD SWAP8 ADD SWAP6 SWAP5 ADD SWAP3 SWAP2 SWAP1 PUSH2 0x20EB JUMP JUMPDEST DUP9 DUP1 REVERT JUMPDEST POP CALLVALUE PUSH2 0x2B4 JUMPI DUP1 PUSH1 0x3 NOT CALLDATASIZE ADD SLT PUSH2 0x2B4 JUMPI PUSH2 0x21A6 PUSH1 0x1 PUSH1 0x1 PUSH1 0xA0 SHL SUB PUSH1 0x5 SLOAD AND CALLER EQ PUSH2 0x2E4E JUMP JUMPDEST PUSH1 0xFF PUSH1 0xF SLOAD AND PUSH2 0x21B3 JUMPI DUP1 RETURN JUMPDEST PUSH2 0x21BB PUSH2 0x3C03 JUMP JUMPDEST DUP1 JUMPDEST PUSH1 0x3 SLOAD DUP2 LT ISZERO PUSH2 0x22F6 JUMPI PUSH1 0x1 PUSH1 0x1 PUSH1 0xA0 SHL SUB PUSH2 0x21D8 DUP3 PUSH2 0x2D24 JUMP JUMPDEST SWAP1 SLOAD SWAP1 PUSH1 0x3 SHL SHR AND PUSH20 0xEEEEEEEEEEEEEEEEEEEEEEEEEEEEEEEEEEEEEEEE DUP2 EQ PUSH1 0x0 EQ PUSH2 0x2257 JUMPI POP DUP2 PUSH1 0x1 PUSH1 0x1 PUSH1 0xA0 SHL SUB DUP2 SLOAD AND SELFBALANCE SWAP1 DUP1 EXTCODESIZE ISZERO PUSH2 0x1824 JUMPI DUP3 SWAP1 PUSH1 0x4 PUSH1 0x40 MLOAD DUP1 SWAP5 DUP2 SWAP4 PUSH4 0xD0E30DB PUSH1 0xE4 SHL DUP4 MSTORE GAS CALL DUP1 ISZERO PUSH2 0x62B JUMPI PUSH2 0x2242 JUMPI JUMPDEST POP POP PUSH1 0x1 SWAP1 JUMPDEST ADD PUSH2 0x21BD JUMP JUMPDEST DUP2 PUSH2 0x224C SWAP2 PUSH2 0x2DD4 JUMP JUMPDEST PUSH2 0xA95 JUMPI DUP2 CODESIZE PUSH2 0x2236 JUMP JUMPDEST SWAP2 SWAP1 PUSH1 0x40 MLOAD SWAP3 PUSH4 0x70A08231 PUSH1 0xE0 SHL DUP5 MSTORE ADDRESS PUSH1 0x4 DUP6 ADD MSTORE PUSH1 0x20 DUP5 PUSH1 0x24 DUP2 DUP5 GAS STATICCALL DUP1 ISZERO PUSH2 0x676 JUMPI DUP4 SWAP1 PUSH2 0x22BF JUMPI JUMPDEST DUP4 SWAP5 POP DUP2 PUSH1 0x1 SWAP5 MSTORE PUSH1 0x4 PUSH1 0x20 MSTORE PUSH1 0x40 DUP6 KECCAK256 SLOAD DUP2 GT PUSH2 0x22A3 JUMPI JUMPDEST POP POP PUSH2 0x223C JUMP JUMPDEST PUSH2 0x22B8 SWAP2 PUSH1 0x1 PUSH1 0x1 PUSH1 0xA0 SHL SUB DUP7 SLOAD AND SWAP1 PUSH2 0x3CEC JUMP JUMPDEST CODESIZE DUP1 PUSH2 0x229C JUMP JUMPDEST POP PUSH1 0x20 SWAP4 RETURNDATASIZE DUP6 GT PUSH2 0x22EE JUMPI JUMPDEST PUSH2 0x22D5 DUP6 DUP3 PUSH2 0x2DD4 JUMP JUMPDEST PUSH1 0x20 DUP2 PUSH1 0x0 SWAP7 DUP2 ADD SUB SLT PUSH2 0x181C JUMPI MLOAD SWAP3 SWAP4 POP DUP4 SWAP3 PUSH2 0x2283 JUMP JUMPDEST RETURNDATASIZE SWAP5 POP PUSH2 0x22CB JUMP JUMPDEST POP PUSH1 0x1 PUSH1 0x1 PUSH1 0xA0 SHL SUB DUP2 SLOAD AND PUSH1 0x40 MLOAD PUSH4 0x70A08231 PUSH1 0xE0 SHL DUP2 MSTORE ADDRESS PUSH1 0x4 DUP3 ADD MSTORE PUSH1 0x20 DUP2 PUSH1 0x24 DUP2 DUP6 GAS STATICCALL SWAP1 DUP2 ISZERO PUSH2 0x676 JUMPI DUP4 SWAP2 PUSH2 0x26C2 JUMPI JUMPDEST POP DUP2 DUP4 MSTORE PUSH1 0x4 PUSH1 0x20 MSTORE PUSH1 0x40 DUP4 KECCAK256 SLOAD LT PUSH2 0x2343 JUMPI POP DUP1 RETURN JUMPDEST PUSH2 0x234B PUSH2 0x3AA4 JUMP JUMPDEST SWAP1 PUSH1 0x40 MLOAD PUSH4 0x70A08231 PUSH1 0xE0 SHL DUP2 MSTORE ADDRESS PUSH1 0x4 DUP3 ADD MSTORE PUSH1 0x20 DUP2 PUSH1 0x24 DUP2 DUP6 GAS STATICCALL SWAP1 DUP2 ISZERO PUSH2 0x1987 JUMPI DUP5 SWAP2 PUSH2 0x268E JUMPI JUMPDEST POP PUSH2 0x238C PUSH8 0xDE0B6B3A7640000 SWAP2 DUP5 MLOAD SWAP1 PUSH2 0x364C JUMP JUMPDEST DIV PUSH8 0xDE0B6B3A7640000 PUSH2 0x23A4 PUSH1 0x40 DUP6 ADD MLOAD DUP4 PUSH2 0x364C JUMP JUMPDEST PUSH1 0x40 MLOAD PUSH4 0xA9059CBB PUSH1 0xE0 SHL DUP2 MSTORE ORIGIN PUSH1 0x4 DUP3 ADD MSTORE SWAP2 SWAP1 DIV PUSH1 0x24 DUP3 ADD DUP2 SWAP1 MSTORE SWAP3 PUSH1 0x20 SWAP1 DUP3 SWAP1 PUSH1 0x44 SWAP1 DUP3 SWAP1 DUP10 SWAP1 GAS CALL DUP1 ISZERO PUSH2 0x1E33 JUMPI PUSH2 0x2657 JUMPI JUMPDEST POP PUSH8 0xDE0B6B3A7640000 PUSH2 0x23F3 PUSH1 0x20 DUP6 ADD MLOAD DUP4 PUSH2 0x364C JUMP JUMPDEST DUP6 SLOAD PUSH1 0x9 SLOAD PUSH1 0x40 MLOAD PUSH4 0xA9059CBB PUSH1 0xE0 SHL DUP2 MSTORE PUSH1 0x1 PUSH1 0x1 PUSH1 0xA0 SHL SUB SWAP2 DUP3 AND PUSH1 0x4 DUP3 ADD MSTORE SWAP4 SWAP1 SWAP3 DIV PUSH1 0x24 DUP5 ADD DUP2 SWAP1 MSTORE SWAP6 SWAP3 SWAP2 PUSH1 0x20 SWAP2 DUP4 SWAP2 PUSH1 0x44 SWAP2 DUP4 SWAP2 DUP12 SWAP2 AND GAS CALL DUP1 ISZERO PUSH2 0x1E8A JUMPI PUSH2 0x260B JUMPI JUMPDEST POP PUSH8 0xDE0B6B3A7640000 SWAP2 PUSH1 0x60 PUSH2 0x2456 SWAP3 ADD MLOAD SWAP1 PUSH2 0x364C JUMP JUMPDEST DUP5 SLOAD PUSH1 0x8 SLOAD PUSH1 0x40 MLOAD PUSH4 0xA9059CBB PUSH1 0xE0 SHL DUP2 MSTORE PUSH1 0x1 PUSH1 0x1 PUSH1 0xA0 SHL SUB SWAP2 DUP3 AND PUSH1 0x4 DUP3 ADD MSTORE SWAP4 SWAP1 SWAP3 DIV PUSH1 0x24 DUP5 ADD DUP2 SWAP1 MSTORE SWAP3 SWAP2 PUSH1 0x20 SWAP2 DUP4 SWAP2 PUSH1 0x44 SWAP2 DUP4 SWAP2 DUP11 SWAP2 AND GAS CALL DUP1 ISZERO PUSH2 0x1E33 JUMPI PUSH2 0x25A9 JUMPI JUMPDEST POP SWAP1 PUSH1 0x60 SWAP2 PUSH32 0xD255B592C7F268A73E534DA5219A60FF911B4CF6DAAE21C7D20527DD657BD99A SWAP4 PUSH1 0x40 MLOAD SWAP3 DUP4 MSTORE PUSH1 0x20 DUP4 ADD MSTORE PUSH1 0x40 DUP3 ADD MSTORE LOG1 PUSH1 0x1 SLOAD PUSH1 0x1 PUSH1 0x1 PUSH1 0xA0 SHL SUB AND DUP1 PUSH2 0x2569 JUMPI POP PUSH2 0x2509 PUSH1 0x1 PUSH1 0x1 PUSH1 0xA0 SHL SUB DUP3 SLOAD AND PUSH1 0x1 PUSH1 0x1 PUSH1 0xA0 SHL SUB PUSH1 0x1 SLOAD AND SWAP1 PUSH2 0x3DDE JUMP JUMPDEST PUSH32 0x51E908723A339CD8D3FD3D8A2E4F2BDDE81DDB7D26CA1753F1F515E0B07A513B PUSH1 0x60 PUSH2 0x2534 PUSH2 0x37A6 JUMP JUMPDEST PUSH2 0x253F PUSH2 0x1BCD PUSH2 0x36AA JUMP JUMPDEST PUSH1 0xD SSTORE TIMESTAMP PUSH1 0xC SSTORE PUSH2 0x2554 PUSH2 0x336 PUSH2 0x328 PUSH2 0x37A6 JUMP JUMPDEST PUSH1 0x40 MLOAD SWAP2 CALLER DUP4 MSTORE PUSH1 0x20 DUP4 ADD MSTORE PUSH1 0x40 DUP3 ADD MSTORE LOG1 DUP1 RETURN JUMPDEST PUSH1 0x1 PUSH1 0x1 PUSH1 0xA0 SHL SUB DUP3 SLOAD AND SWAP1 DUP2 DUP2 SUB PUSH2 0x2599 JUMPI JUMPDEST POP POP PUSH2 0x2594 PUSH1 0x1 PUSH1 0x1 PUSH1 0xA0 SHL SUB PUSH1 0x1 SLOAD AND DUP1 PUSH2 0x3DDE JUMP JUMPDEST PUSH2 0x2509 JUMP JUMPDEST PUSH2 0x25A2 SWAP2 PUSH2 0x3DDE JUMP JUMPDEST CODESIZE DUP1 PUSH2 0x257D JUMP JUMPDEST SWAP2 SWAP1 PUSH1 0x20 DUP4 RETURNDATASIZE PUSH1 0x20 GT PUSH2 0x2603 JUMPI JUMPDEST DUP2 PUSH2 0x25C4 PUSH1 0x20 SWAP4 DUP4 PUSH2 0x2DD4 JUMP JUMPDEST DUP2 ADD SUB SLT PUSH2 0x181C JUMPI PUSH32 0xD255B592C7F268A73E534DA5219A60FF911B4CF6DAAE21C7D20527DD657BD99A SWAP4 PUSH2 0x25F9 PUSH1 0x60 SWAP5 PUSH2 0x2EBC JUMP JUMPDEST POP SWAP4 POP SWAP1 SWAP2 PUSH2 0x249F JUMP JUMPDEST RETURNDATASIZE SWAP2 POP PUSH2 0x25B7 JUMP JUMPDEST SWAP2 PUSH1 0x20 DUP4 RETURNDATASIZE PUSH1 0x20 GT PUSH2 0x264F JUMPI JUMPDEST DUP2 PUSH2 0x2625 PUSH1 0x20 SWAP4 DUP4 PUSH2 0x2DD4 JUMP JUMPDEST DUP2 ADD SUB SLT PUSH2 0x1818 JUMPI PUSH1 0x60 PUSH2 0x2456 SWAP3 PUSH2 0x2645 PUSH8 0xDE0B6B3A7640000 SWAP6 PUSH2 0x2EBC JUMP JUMPDEST POP SWAP3 POP POP SWAP2 PUSH2 0x243D JUMP JUMPDEST RETURNDATASIZE SWAP2 POP PUSH2 0x2618 JUMP JUMPDEST PUSH1 0x20 DUP2 RETURNDATASIZE PUSH1 0x20 GT PUSH2 0x2686 JUMPI JUMPDEST DUP2 PUSH2 0x2670 PUSH1 0x20 SWAP4 DUP4 PUSH2 0x2DD4 JUMP JUMPDEST DUP2 ADD SUB SLT PUSH2 0x181C JUMPI PUSH2 0x2681 SWAP1 PUSH2 0x2EBC JUMP JUMPDEST PUSH2 0x23DB JUMP JUMPDEST RETURNDATASIZE SWAP2 POP PUSH2 0x2663 JUMP JUMPDEST SWAP1 POP PUSH1 0x20 DUP2 RETURNDATASIZE PUSH1 0x20 GT PUSH2 0x26BA JUMPI JUMPDEST DUP2 PUSH2 0x26A9 PUSH1 0x20 SWAP4 DUP4 PUSH2 0x2DD4 JUMP JUMPDEST DUP2 ADD SUB SLT PUSH2 0x44F JUMPI MLOAD PUSH2 0x238C PUSH2 0x2376 JUMP JUMPDEST RETURNDATASIZE SWAP2 POP PUSH2 0x269C JUMP JUMPDEST SWAP1 POP PUSH1 0x20 DUP2 RETURNDATASIZE PUSH1 0x20 GT PUSH2 0x26EC JUMPI JUMPDEST DUP2 PUSH2 0x26DD PUSH1 0x20 SWAP4 DUP4 PUSH2 0x2DD4 JUMP JUMPDEST DUP2 ADD SUB SLT PUSH2 0x44F JUMPI MLOAD CODESIZE PUSH2 0x232C JUMP JUMPDEST RETURNDATASIZE SWAP2 POP PUSH2 0x26D0 JUMP JUMPDEST POP CALLVALUE PUSH2 0x2B4 JUMPI PUSH1 0x20 CALLDATASIZE PUSH1 0x3 NOT ADD SLT PUSH2 0x2B4 JUMPI PUSH2 0x270E PUSH2 0x38DC JUMP JUMPDEST PUSH1 0x4 CALLDATALOAD PUSH1 0xE SSTORE DUP1 RETURN JUMPDEST POP CALLVALUE PUSH2 0x2B4 JUMPI PUSH1 0x20 CALLDATASIZE PUSH1 0x3 NOT ADD SLT PUSH2 0x2B4 JUMPI PUSH1 0x4 CALLDATALOAD SWAP1 PUSH1 0x3 SLOAD DUP3 LT ISZERO PUSH2 0x2B4 JUMPI PUSH1 0x20 PUSH1 0x1 PUSH1 0x1 PUSH1 0xA0 SHL SUB PUSH2 0x274A DUP5 PUSH2 0x2D24 JUMP JUMPDEST SWAP1 SLOAD SWAP1 PUSH1 0x3 SHL SHR AND PUSH1 0x40 MLOAD SWAP1 DUP2 MSTORE RETURN JUMPDEST POP CALLVALUE PUSH2 0x2B4 JUMPI DUP1 PUSH1 0x3 NOT CALLDATASIZE ADD SLT PUSH2 0x2B4 JUMPI PUSH2 0x2773 PUSH2 0x38DC JUMP JUMPDEST PUSH2 0x277B PUSH2 0x38DC JUMP JUMPDEST PUSH2 0x2783 PUSH2 0x3C03 JUMP JUMPDEST PUSH1 0x1 PUSH1 0xFF NOT PUSH32 0xCD5ED15C6E187E77E9AEE88184C21F4F2182AB5827CB3B7E07FBEDCD63F03300 SLOAD AND OR PUSH32 0xCD5ED15C6E187E77E9AEE88184C21F4F2182AB5827CB3B7E07FBEDCD63F03300 SSTORE PUSH32 0x62E78CEA01BEE320CD4E420270B5EA74000D11B0C9F74754EBDBFC544B05A258 PUSH1 0x20 PUSH1 0x40 MLOAD CALLER DUP2 MSTORE LOG1 PUSH2 0x304 PUSH2 0x39D0 JUMP JUMPDEST POP CALLVALUE PUSH2 0x2B4 JUMPI DUP1 PUSH1 0x3 NOT CALLDATASIZE ADD SLT PUSH2 0x2B4 JUMPI PUSH2 0x304 PUSH2 0x2EC9 JUMP JUMPDEST POP CALLVALUE PUSH2 0x2B4 JUMPI PUSH1 0x20 CALLDATASIZE PUSH1 0x3 NOT ADD SLT PUSH2 0x2B4 JUMPI PUSH32 0xE619EE6C13633271D53EB38D623FA8B077C06E8443C914AF1EC745AAF3C9F9A8 PUSH1 0x20 PUSH1 0x1 PUSH1 0x1 PUSH1 0xA0 SHL SUB PUSH2 0x285E PUSH2 0x2CE1 JUMP JUMPDEST PUSH2 0x2866 PUSH2 0x396F JUMP JUMPDEST AND DUP1 PUSH1 0x1 PUSH1 0x1 PUSH1 0xA0 SHL SUB NOT PUSH1 0x7 SLOAD AND OR PUSH1 0x7 SSTORE PUSH1 0x40 MLOAD SWAP1 DUP2 MSTORE LOG1 DUP1 RETURN JUMPDEST POP CALLVALUE PUSH2 0x2B4 JUMPI DUP1 PUSH1 0x3 NOT CALLDATASIZE ADD SLT PUSH2 0x2B4 JUMPI PUSH2 0x289C PUSH2 0x38DC JUMP JUMPDEST PUSH32 0xCD5ED15C6E187E77E9AEE88184C21F4F2182AB5827CB3B7E07FBEDCD63F03300 SLOAD PUSH1 0xFF DUP2 AND ISZERO PUSH2 0x291F JUMPI PUSH1 0xFF NOT AND PUSH32 0xCD5ED15C6E187E77E9AEE88184C21F4F2182AB5827CB3B7E07FBEDCD63F03300 SSTORE PUSH32 0x5DB9EE0A495BF2E6FF9C91A7834C1BA4FDD244A5E8AA4E537BD38AEAE4B073AA PUSH1 0x20 PUSH1 0x40 MLOAD CALLER DUP2 MSTORE LOG1 PUSH2 0x527 PUSH2 0x3C03 JUMP JUMPDEST PUSH1 0x4 DUP3 PUSH32 0x8DFC202B00000000000000000000000000000000000000000000000000000000 DUP2 MSTORE REVERT JUMPDEST POP CALLVALUE PUSH2 0x2B4 JUMPI PUSH1 0x20 CALLDATASIZE PUSH1 0x3 NOT ADD SLT PUSH2 0x2B4 JUMPI PUSH1 0x4 CALLDATALOAD PUSH2 0x2972 PUSH1 0x1 PUSH1 0x1 PUSH1 0xA0 SHL SUB PUSH1 0x5 SLOAD AND CALLER EQ PUSH2 0x2E4E JUMP JUMPDEST PUSH2 0x297A PUSH2 0x37A6 JUMP JUMPDEST SWAP1 DUP1 DUP3 LT PUSH2 0x2A63 JUMPI JUMPDEST SWAP2 DUP3 PUSH2 0x29D0 SWAP4 DUP4 GT PUSH2 0x2A5B JUMPI JUMPDEST POP PUSH1 0x1 SLOAD PUSH1 0x5 SLOAD PUSH1 0x40 MLOAD PUSH4 0xA9059CBB PUSH1 0xE0 SHL DUP2 MSTORE PUSH1 0x1 PUSH1 0x1 PUSH1 0xA0 SHL SUB SWAP2 DUP3 AND PUSH1 0x4 DUP3 ADD MSTORE PUSH1 0x24 DUP2 ADD DUP6 SWAP1 MSTORE SWAP5 PUSH1 0x20 SWAP3 DUP7 SWAP3 AND SWAP1 DUP3 SWAP1 DUP6 SWAP1 DUP3 SWAP1 PUSH1 0x44 DUP3 ADD SWAP1 JUMP JUMPDEST SUB SWAP3 GAS CALL DUP1 ISZERO PUSH2 0xAB4 JUMPI PUSH2 0x2A21 JUMPI JUMPDEST PUSH1 0x20 DUP3 PUSH32 0x5B6B431D4476A211BB7D41C20D1AAB9AE2321DEEE0D20BE3D9FC9B1093FA6E3D DUP3 PUSH2 0x2A12 PUSH2 0x336 PUSH2 0x328 PUSH2 0x37A6 JUMP JUMPDEST PUSH1 0x40 MLOAD SWAP1 DUP2 MSTORE LOG1 PUSH1 0x40 MLOAD SWAP1 DUP2 MSTORE RETURN JUMPDEST PUSH1 0x20 DUP4 RETURNDATASIZE PUSH1 0x20 GT PUSH2 0x2A53 JUMPI JUMPDEST DUP2 PUSH2 0x2A3A PUSH1 0x20 SWAP4 DUP4 PUSH2 0x2DD4 JUMP JUMPDEST DUP2 ADD SUB SLT PUSH2 0x2B4 JUMPI POP PUSH2 0x2A4E PUSH1 0x20 SWAP3 PUSH2 0x2EBC JUMP JUMPDEST PUSH2 0x29DF JUMP JUMPDEST RETURNDATASIZE SWAP2 POP PUSH2 0x2A2D JUMP JUMPDEST SWAP2 POP CODESIZE PUSH2 0x2990 JUMP JUMPDEST SWAP1 PUSH2 0x2A6E SWAP1 DUP3 PUSH2 0x2E99 JUMP JUMPDEST SWAP2 DUP3 PUSH2 0x2A8B JUMPI JUMPDEST PUSH2 0x29D0 SWAP3 POP PUSH2 0x2A82 PUSH2 0x37A6 JUMP JUMPDEST SWAP2 SWAP1 SWAP3 POP PUSH2 0x2983 JUMP JUMPDEST PUSH1 0x20 PUSH1 0x1 PUSH1 0x1 PUSH1 0xA0 SHL SUB PUSH1 0x42 SLOAD AND SWAP4 PUSH1 0x64 PUSH1 0x1 PUSH1 0x1 PUSH1 0xA0 SHL SUB PUSH1 0x1 SLOAD AND DUP5 PUSH1 0x40 MLOAD SWAP8 DUP9 SWAP5 DUP6 SWAP4 PUSH4 0x1A4CA37B PUSH1 0xE2 SHL DUP6 MSTORE PUSH1 0x4 DUP6 ADD MSTORE PUSH1 0x24 DUP5 ADD MSTORE ADDRESS PUSH1 0x44 DUP5 ADD MSTORE GAS CALL SWAP3 DUP4 ISZERO PUSH2 0xAB4 JUMPI PUSH2 0x29D0 SWAP4 PUSH2 0x2AE3 JUMPI JUMPDEST POP PUSH2 0x2A75 JUMP JUMPDEST PUSH2 0x2B04 SWAP1 PUSH1 0x20 RETURNDATASIZE PUSH1 0x20 GT PUSH2 0x2B0B JUMPI JUMPDEST PUSH2 0x2AFC DUP2 DUP4 PUSH2 0x2DD4 JUMP JUMPDEST DUP2 ADD SWAP1 PUSH2 0x3797 JUMP JUMPDEST POP CODESIZE PUSH2 0x2ADD JUMP JUMPDEST POP RETURNDATASIZE PUSH2 0x2AF2 JUMP JUMPDEST POP CALLVALUE PUSH2 0x2B4 JUMPI DUP1 PUSH1 0x3 NOT CALLDATASIZE ADD SLT PUSH2 0x2B4 JUMPI PUSH1 0x20 PUSH1 0x1 PUSH1 0x1 PUSH1 0xA0 SHL SUB PUSH1 0x2 SLOAD AND PUSH1 0x40 MLOAD SWAP1 DUP2 MSTORE RETURN JUMPDEST POP CALLVALUE PUSH2 0x2B4 JUMPI DUP1 PUSH1 0x3 NOT CALLDATASIZE ADD SLT PUSH2 0x2B4 JUMPI PUSH1 0x20 PUSH1 0x1 PUSH1 0x1 PUSH1 0xA0 SHL SUB PUSH1 0x43 SLOAD AND PUSH1 0x40 MLOAD SWAP1 DUP2 MSTORE RETURN JUMPDEST POP CALLVALUE PUSH2 0x2B4 JUMPI PUSH1 0x20 CALLDATASIZE PUSH1 0x3 NOT ADD SLT PUSH2 0x2B4 JUMPI PUSH1 0x4 CALLDATALOAD PUSH2 0x2B7D PUSH2 0x38DC JUMP JUMPDEST DUP2 PUSH1 0x1 PUSH1 0x1 PUSH1 0xA0 SHL SUB PUSH1 0xA SLOAD AND DUP1 EXTCODESIZE ISZERO PUSH2 0xA95 JUMPI DUP2 SWAP1 PUSH1 0x24 PUSH1 0x40 MLOAD DUP1 SWAP5 DUP2 SWAP4 PUSH32 0x19A501AD00000000000000000000000000000000000000000000000000000000 DUP4 MSTORE DUP8 PUSH1 0x4 DUP5 ADD MSTORE GAS CALL DUP1 ISZERO PUSH2 0x676 JUMPI PUSH2 0x2C01 JUMPI JUMPDEST POP PUSH1 0x20 PUSH32 0xEFA2AB35845DB19854512F0064B524DEC97AA8FBF004E0C505DC9FF691340C98 SWAP2 PUSH1 0x40 MLOAD SWAP1 DUP2 MSTORE LOG1 DUP1 RETURN JUMPDEST DUP3 PUSH2 0x2C30 PUSH32 0xEFA2AB35845DB19854512F0064B524DEC97AA8FBF004E0C505DC9FF691340C98 SWAP4 SWAP5 PUSH1 0x20 SWAP4 PUSH2 0x2DD4 JUMP JUMPDEST SWAP3 SWAP2 POP PUSH2 0x2BD2 JUMP JUMPDEST POP CALLVALUE PUSH2 0x2B4 JUMPI DUP1 PUSH1 0x3 NOT CALLDATASIZE ADD SLT PUSH2 0x2B4 JUMPI PUSH1 0x20 PUSH2 0x2D2 PUSH2 0x2E19 JUMP JUMPDEST POP CALLVALUE PUSH2 0x2B4 JUMPI PUSH1 0x20 CALLDATASIZE PUSH1 0x3 NOT ADD SLT PUSH2 0x2B4 JUMPI PUSH1 0x4 CALLDATALOAD DUP1 ISZERO ISZERO DUP1 DUP3 SUB PUSH2 0x1824 JUMPI PUSH2 0x2C7A PUSH2 0x38DC JUMP JUMPDEST PUSH1 0xFF DUP1 NOT PUSH1 0xF SLOAD AND SWAP2 AND OR PUSH1 0xF SSTORE PUSH1 0x0 EQ PUSH2 0x2C96 JUMPI DUP1 PUSH1 0xE SSTORE DUP1 RETURN JUMPDEST PUSH3 0x15180 PUSH1 0xE SSTORE DUP1 RETURN JUMPDEST SWAP1 POP CALLVALUE PUSH2 0xA95 JUMPI DUP2 PUSH1 0x3 NOT CALLDATASIZE ADD SLT PUSH2 0xA95 JUMPI PUSH1 0x20 SWAP1 PUSH1 0x1 PUSH1 0x1 PUSH1 0xA0 SHL SUB PUSH1 0x42 SLOAD AND DUP2 MSTORE RETURN JUMPDEST CALLVALUE PUSH2 0x44F JUMPI PUSH1 0x0 CALLDATASIZE PUSH1 0x3 NOT ADD SLT PUSH2 0x44F JUMPI PUSH1 0x20 PUSH1 0x40 MLOAD PUSH1 0x0 DUP2 MSTORE RETURN JUMPDEST PUSH1 0x4 CALLDATALOAD SWAP1 PUSH1 0x1 PUSH1 0x1 PUSH1 0xA0 SHL SUB DUP3 AND DUP3 SUB PUSH2 0x44F JUMPI JUMP JUMPDEST CALLDATALOAD SWAP1 PUSH1 0x1 PUSH1 0x1 PUSH1 0xA0 SHL SUB DUP3 AND DUP3 SUB PUSH2 0x44F JUMPI JUMP JUMPDEST CALLVALUE PUSH2 0x44F JUMPI PUSH1 0x20 CALLDATASIZE PUSH1 0x3 NOT ADD SLT PUSH2 0x44F JUMPI PUSH2 0x1B PUSH2 0x2CE1 JUMP JUMPDEST PUSH1 0x3 SLOAD DUP2 LT ISZERO PUSH2 0x2D3F JUMPI PUSH1 0x3 PUSH1 0x0 MSTORE PUSH1 0x20 PUSH1 0x0 KECCAK256 ADD SWAP1 PUSH1 0x0 SWAP1 JUMP JUMPDEST PUSH4 0x4E487B71 PUSH1 0xE0 SHL PUSH1 0x0 MSTORE PUSH1 0x32 PUSH1 0x4 MSTORE PUSH1 0x24 PUSH1 0x0 REVERT JUMPDEST SWAP2 DUP2 PUSH1 0x1F DUP5 ADD SLT ISZERO PUSH2 0x44F JUMPI DUP3 CALLDATALOAD SWAP2 PUSH8 0xFFFFFFFFFFFFFFFF DUP4 GT PUSH2 0x44F JUMPI PUSH1 0x20 DUP1 DUP6 ADD SWAP5 DUP5 PUSH1 0x5 SHL ADD ADD GT PUSH2 0x44F JUMPI JUMP JUMPDEST PUSH1 0xC0 DUP2 ADD SWAP1 DUP2 LT PUSH8 0xFFFFFFFFFFFFFFFF DUP3 GT OR PUSH2 0x2DA2 JUMPI PUSH1 0x40 MSTORE JUMP JUMPDEST PUSH4 0x4E487B71 PUSH1 0xE0 SHL PUSH1 0x0 MSTORE PUSH1 0x41 PUSH1 0x4 MSTORE PUSH1 0x24 PUSH1 0x0 REVERT JUMPDEST PUSH1 0x60 DUP2 ADD SWAP1 DUP2 LT PUSH8 0xFFFFFFFFFFFFFFFF DUP3 GT OR PUSH2 0x2DA2 JUMPI PUSH1 0x40 MSTORE JUMP JUMPDEST SWAP1 PUSH1 0x1F DUP1 NOT SWAP2 ADD AND DUP2 ADD SWAP1 DUP2 LT PUSH8 0xFFFFFFFFFFFFFFFF DUP3 GT OR PUSH2 0x2DA2 JUMPI PUSH1 0x40 MSTORE JUMP JUMPDEST PUSH1 0x0 JUMPDEST DUP4 DUP2 LT PUSH2 0x2E09 JUMPI POP POP PUSH1 0x0 SWAP2 ADD MSTORE JUMP JUMPDEST DUP2 DUP2 ADD MLOAD DUP4 DUP3 ADD MSTORE PUSH1 0x20 ADD PUSH2 0x2DF9 JUMP JUMPDEST PUSH32 0xCD5ED15C6E187E77E9AEE88184C21F4F2182AB5827CB3B7E07FBEDCD63F03300 SLOAD PUSH1 0xFF AND ISZERO PUSH2 0x2E48 JUMPI PUSH1 0x0 SWAP1 JUMP JUMPDEST PUSH1 0xB SLOAD SWAP1 JUMP JUMPDEST ISZERO PUSH2 0x2E55 JUMPI JUMP JUMPDEST PUSH1 0x64 PUSH1 0x40 MLOAD PUSH3 0x461BCD PUSH1 0xE5 SHL DUP2 MSTORE PUSH1 0x20 PUSH1 0x4 DUP3 ADD MSTORE PUSH1 0xA PUSH1 0x24 DUP3 ADD MSTORE PUSH32 0x4E6F74205F7661756C7400000000000000000000000000000000000000000000 PUSH1 0x44 DUP3 ADD MSTORE REVERT JUMPDEST SWAP2 SWAP1 DUP3 SUB SWAP2 DUP3 GT PUSH2 0x2EA6 JUMPI JUMP JUMPDEST PUSH4 0x4E487B71 PUSH1 0xE0 SHL PUSH1 0x0 MSTORE PUSH1 0x11 PUSH1 0x4 MSTORE PUSH1 0x24 PUSH1 0x0 REVERT JUMPDEST MLOAD SWAP1 DUP2 ISZERO ISZERO DUP3 SUB PUSH2 0x44F JUMPI JUMP JUMPDEST PUSH2 0x2ED1 PUSH2 0x3C03 JUMP JUMPDEST PUSH1 0x0 JUMPDEST PUSH1 0x3 SLOAD DUP2 LT ISZERO PUSH2 0x3017 JUMPI PUSH1 0x1 PUSH1 0x1 PUSH1 0xA0 SHL SUB PUSH2 0x2EEF DUP3 PUSH2 0x2D24 JUMP JUMPDEST SWAP1 SLOAD SWAP1 PUSH1 0x3 SHL SHR AND PUSH20 0xEEEEEEEEEEEEEEEEEEEEEEEEEEEEEEEEEEEEEEEE DUP2 EQ PUSH1 0x0 EQ PUSH2 0x2F78 JUMPI POP PUSH1 0x1 PUSH1 0x1 PUSH1 0xA0 SHL SUB PUSH1 0x0 SLOAD AND SWAP1 SELFBALANCE SWAP2 DUP1 EXTCODESIZE ISZERO PUSH2 0x44F JUMPI PUSH1 0x0 SWAP1 PUSH1 0x4 PUSH1 0x40 MLOAD DUP1 SWAP6 DUP2 SWAP4 PUSH4 0xD0E30DB PUSH1 0xE4 SHL DUP4 MSTORE GAS CALL SWAP2 DUP3 ISZERO PUSH2 0x2F6C JUMPI PUSH1 0x1 SWAP3 PUSH2 0x2F5B JUMPI JUMPDEST POP JUMPDEST ADD PUSH2 0x2ED4 JUMP JUMPDEST PUSH1 0x0 PUSH2 0x2F66 SWAP2 PUSH2 0x2DD4 JUMP JUMPDEST CODESIZE PUSH2 0x2F53 JUMP JUMPDEST PUSH1 0x40 MLOAD RETURNDATASIZE PUSH1 0x0 DUP3 RETURNDATACOPY RETURNDATASIZE SWAP1 REVERT JUMPDEST SWAP2 SWAP1 PUSH1 0x40 MLOAD SWAP3 PUSH4 0x70A08231 PUSH1 0xE0 SHL DUP5 MSTORE ADDRESS PUSH1 0x4 DUP6 ADD MSTORE PUSH1 0x20 DUP5 PUSH1 0x24 DUP2 DUP5 GAS STATICCALL SWAP4 DUP5 ISZERO PUSH2 0x2F6C JUMPI PUSH1 0x0 SWAP5 PUSH2 0x2FE5 JUMPI JUMPDEST POP PUSH1 0x1 SWAP3 SWAP4 DUP2 PUSH1 0x0 MSTORE PUSH1 0x4 PUSH1 0x20 MSTORE PUSH1 0x40 PUSH1 0x0 KECCAK256 SLOAD DUP2 GT PUSH2 0x2FC8 JUMPI JUMPDEST POP POP PUSH2 0x2F55 JUMP JUMPDEST PUSH2 0x2FDE SWAP2 PUSH1 0x1 PUSH1 0x1 PUSH1 0xA0 SHL SUB PUSH1 0x0 SLOAD AND SWAP1 PUSH2 0x3CEC JUMP JUMPDEST CODESIZE DUP1 PUSH2 0x2FC1 JUMP JUMPDEST PUSH1 0x20 DUP2 RETURNDATASIZE DUP3 GT PUSH2 0x300F JUMPI JUMPDEST DUP2 PUSH2 0x2FFD PUSH1 0x20 SWAP4 DUP4 PUSH2 0x2DD4 JUMP JUMPDEST DUP2 ADD SUB SLT PUSH2 0x181C JUMPI MLOAD SWAP4 POP PUSH1 0x1 PUSH2 0x2FA6 JUMP JUMPDEST RETURNDATASIZE SWAP2 POP PUSH2 0x2FF0 JUMP JUMPDEST POP PUSH1 0x1 PUSH1 0x1 PUSH1 0xA0 SHL SUB PUSH1 0x0 SLOAD AND PUSH1 0x40 MLOAD PUSH4 0x70A08231 PUSH1 0xE0 SHL DUP2 MSTORE ADDRESS PUSH1 0x4 DUP3 ADD MSTORE PUSH1 0x20 DUP2 PUSH1 0x24 DUP2 DUP6 GAS STATICCALL SWAP1 DUP2 ISZERO PUSH2 0x2F6C JUMPI PUSH1 0x0 SWAP2 PUSH2 0x3587 JUMPI JUMPDEST POP DUP2 PUSH1 0x0 MSTORE PUSH1 0x4 PUSH1 0x20 MSTORE PUSH1 0x40 PUSH1 0x0 KECCAK256 SLOAD LT PUSH2 0x3067 JUMPI POP JUMP JUMPDEST PUSH2 0x306F PUSH2 0x3AA4 JUMP JUMPDEST SWAP1 PUSH1 0x40 MLOAD PUSH4 0x70A08231 PUSH1 0xE0 SHL DUP2 MSTORE ADDRESS PUSH1 0x4 DUP3 ADD MSTORE PUSH1 0x20 DUP2 PUSH1 0x24 DUP2 DUP6 GAS STATICCALL SWAP1 DUP2 ISZERO PUSH2 0x2F6C JUMPI PUSH1 0x0 SWAP2 PUSH2 0x3553 JUMPI JUMPDEST POP PUSH2 0x30B1 PUSH8 0xDE0B6B3A7640000 SWAP2 DUP5 MLOAD SWAP1 PUSH2 0x364C JUMP JUMPDEST DIV PUSH8 0xDE0B6B3A7640000 PUSH2 0x30C9 PUSH1 0x40 DUP6 ADD MLOAD DUP4 PUSH2 0x364C JUMP JUMPDEST PUSH1 0x40 MLOAD PUSH4 0xA9059CBB PUSH1 0xE0 SHL DUP2 MSTORE ORIGIN PUSH1 0x4 DUP3 ADD MSTORE SWAP2 SWAP1 DIV PUSH1 0x24 DUP3 ADD DUP2 SWAP1 MSTORE SWAP3 PUSH1 0x20 SWAP1 DUP3 SWAP1 PUSH1 0x44 SWAP1 DUP3 SWAP1 PUSH1 0x0 SWAP1 GAS CALL DUP1 ISZERO PUSH2 0x2F6C JUMPI PUSH2 0x351C JUMPI JUMPDEST POP PUSH8 0xDE0B6B3A7640000 PUSH2 0x3119 PUSH1 0x20 DUP6 ADD MLOAD DUP4 PUSH2 0x364C JUMP JUMPDEST DIV SWAP3 PUSH2 0x316D PUSH1 0x20 DUP6 PUSH1 0x1 PUSH1 0x1 PUSH1 0xA0 SHL SUB PUSH1 0x0 SLOAD AND PUSH1 0x1 PUSH1 0x1 PUSH1 0xA0 SHL SUB PUSH1 0x9 SLOAD AND PUSH1 0x0 PUSH1 0x40 MLOAD DUP1 SWAP7 DUP2 SWAP6 DUP3 SWAP5 PUSH4 0xA9059CBB PUSH1 0xE0 SHL DUP5 MSTORE PUSH1 0x4 DUP5 ADD PUSH1 0x20 SWAP1 SWAP4 SWAP3 SWAP2 SWAP4 PUSH1 0x1 PUSH1 0x1 PUSH1 0xA0 SHL SUB PUSH1 0x40 DUP3 ADD SWAP6 AND DUP2 MSTORE ADD MSTORE JUMP JUMPDEST SUB SWAP3 GAS CALL DUP1 ISZERO PUSH2 0x2F6C JUMPI PUSH2 0x34D0 JUMPI JUMPDEST POP PUSH8 0xDE0B6B3A7640000 SWAP2 PUSH1 0x60 PUSH2 0x3195 SWAP3 ADD MLOAD SWAP1 PUSH2 0x364C JUMP JUMPDEST DIV PUSH2 0x31E8 PUSH1 0x20 DUP3 PUSH1 0x1 PUSH1 0x1 PUSH1 0xA0 SHL SUB PUSH1 0x0 SLOAD AND PUSH1 0x1 PUSH1 0x1 PUSH1 0xA0 SHL SUB PUSH1 0x8 SLOAD AND PUSH1 0x0 PUSH1 0x40 MLOAD DUP1 SWAP7 DUP2 SWAP6 DUP3 SWAP5 PUSH4 0xA9059CBB PUSH1 0xE0 SHL DUP5 MSTORE PUSH1 0x4 DUP5 ADD PUSH1 0x20 SWAP1 SWAP4 SWAP3 SWAP2 SWAP4 PUSH1 0x1 PUSH1 0x1 PUSH1 0xA0 SHL SUB PUSH1 0x40 DUP3 ADD SWAP6 AND DUP2 MSTORE ADD MSTORE JUMP JUMPDEST SUB SWAP3 GAS CALL DUP1 ISZERO PUSH2 0x2F6C JUMPI PUSH2 0x346E JUMPI JUMPDEST POP SWAP1 PUSH1 0x60 SWAP2 PUSH32 0xD255B592C7F268A73E534DA5219A60FF911B4CF6DAAE21C7D20527DD657BD99A SWAP4 PUSH1 0x40 MLOAD SWAP3 DUP4 MSTORE PUSH1 0x20 DUP4 ADD MSTORE PUSH1 0x40 DUP3 ADD MSTORE LOG1 PUSH1 0x1 SLOAD PUSH1 0x1 PUSH1 0x1 PUSH1 0xA0 SHL SUB AND DUP1 PUSH2 0x342D JUMPI POP PUSH2 0x3262 PUSH1 0x1 PUSH1 0x1 PUSH1 0xA0 SHL SUB PUSH1 0x0 SLOAD AND PUSH1 0x1 PUSH1 0x1 PUSH1 0xA0 SHL SUB PUSH1 0x1 SLOAD AND SWAP1 PUSH2 0x3DDE JUMP JUMPDEST PUSH2 0x326A PUSH2 0x37A6 JUMP JUMPDEST PUSH2 0x3275 PUSH2 0x1BCD PUSH2 0x36AA JUMP JUMPDEST PUSH1 0xD SSTORE TIMESTAMP PUSH1 0xC SSTORE PUSH2 0x3284 PUSH2 0x3C03 JUMP JUMPDEST PUSH2 0x328C PUSH2 0x37A6 JUMP JUMPDEST DUP1 PUSH2 0x32D9 JUMPI JUMPDEST POP PUSH1 0x60 PUSH32 0x51E908723A339CD8D3FD3D8A2E4F2BDDE81DDB7D26CA1753F1F515E0B07A513B SWAP2 PUSH2 0x32C5 PUSH2 0x336 PUSH2 0x328 PUSH2 0x37A6 JUMP JUMPDEST PUSH1 0x40 MLOAD SWAP2 CALLER DUP4 MSTORE PUSH1 0x20 DUP4 ADD MSTORE PUSH1 0x40 DUP3 ADD MSTORE LOG1 JUMP JUMPDEST PUSH1 0x1 SLOAD PUSH1 0x42 SLOAD PUSH1 0x40 MLOAD PUSH4 0x95EA7B3 PUSH1 0xE0 SHL DUP2 MSTORE PUSH1 0x1 PUSH1 0x1 PUSH1 0xA0 SHL SUB SWAP2 DUP3 AND PUSH1 0x4 DUP3 ADD MSTORE PUSH1 0x24 DUP2 ADD DUP5 SWAP1 MSTORE SWAP3 SWAP4 SWAP3 SWAP2 PUSH1 0x20 SWAP2 DUP4 SWAP2 PUSH1 0x44 SWAP2 DUP4 SWAP2 PUSH1 0x0 SWAP2 AND GAS CALL DUP1 ISZERO PUSH2 0x2F6C JUMPI PUSH2 0x33F6 JUMPI JUMPDEST POP PUSH1 0x1 PUSH1 0x1 PUSH1 0xA0 SHL SUB PUSH1 0x42 SLOAD AND SWAP2 PUSH1 0x1 PUSH1 0x1 PUSH1 0xA0 SHL SUB PUSH1 0x1 SLOAD AND SWAP1 DUP4 EXTCODESIZE ISZERO PUSH2 0x44F JUMPI PUSH1 0x84 PUSH1 0x0 SWAP3 DUP4 PUSH1 0x40 MLOAD SWAP7 DUP8 SWAP5 DUP6 SWAP4 PUSH4 0xE8EDA9DF PUSH1 0xE0 SHL DUP6 MSTORE PUSH1 0x4 DUP6 ADD MSTORE PUSH1 0x24 DUP5 ADD MSTORE ADDRESS PUSH1 0x44 DUP5 ADD MSTORE DUP2 PUSH1 0x64 DUP5 ADD MSTORE GAS CALL SWAP1 DUP2 ISZERO PUSH2 0x2F6C JUMPI PUSH32 0x51E908723A339CD8D3FD3D8A2E4F2BDDE81DDB7D26CA1753F1F515E0B07A513B SWAP3 PUSH1 0x60 SWAP3 PUSH2 0x33E5 JUMPI JUMPDEST POP PUSH32 0x4D6CE1E535DBADE1C23DEFBA91E23B8F791CE5EDC0CC320257A2B364E4E38426 PUSH1 0x20 PUSH2 0x33D7 PUSH2 0x336 PUSH2 0x328 PUSH2 0x37A6 JUMP JUMPDEST PUSH1 0x40 MLOAD SWAP1 DUP2 MSTORE LOG1 SWAP2 POP PUSH2 0x3292 JUMP JUMPDEST PUSH1 0x0 PUSH2 0x33F0 SWAP2 PUSH2 0x2DD4 JUMP JUMPDEST CODESIZE PUSH2 0x33A5 JUMP JUMPDEST PUSH1 0x20 DUP2 RETURNDATASIZE PUSH1 0x20 GT PUSH2 0x3425 JUMPI JUMPDEST DUP2 PUSH2 0x340F PUSH1 0x20 SWAP4 DUP4 PUSH2 0x2DD4 JUMP JUMPDEST DUP2 ADD SUB SLT PUSH2 0x44F JUMPI PUSH2 0x3420 SWAP1 PUSH2 0x2EBC JUMP JUMPDEST PUSH2 0x3322 JUMP JUMPDEST RETURNDATASIZE SWAP2 POP PUSH2 0x3402 JUMP JUMPDEST PUSH1 0x1 PUSH1 0x1 PUSH1 0xA0 SHL SUB PUSH1 0x0 SLOAD AND SWAP1 DUP2 DUP2 SUB PUSH2 0x345E JUMPI JUMPDEST POP POP PUSH2 0x3459 PUSH1 0x1 PUSH1 0x1 PUSH1 0xA0 SHL SUB PUSH1 0x1 SLOAD AND DUP1 PUSH2 0x3DDE JUMP JUMPDEST PUSH2 0x3262 JUMP JUMPDEST PUSH2 0x3467 SWAP2 PUSH2 0x3DDE JUMP JUMPDEST CODESIZE DUP1 PUSH2 0x3442 JUMP JUMPDEST SWAP2 SWAP1 PUSH1 0x20 DUP4 RETURNDATASIZE PUSH1 0x20 GT PUSH2 0x34C8 JUMPI JUMPDEST DUP2 PUSH2 0x3489 PUSH1 0x20 SWAP4 DUP4 PUSH2 0x2DD4 JUMP JUMPDEST DUP2 ADD SUB SLT PUSH2 0x44F JUMPI PUSH32 0xD255B592C7F268A73E534DA5219A60FF911B4CF6DAAE21C7D20527DD657BD99A SWAP4 PUSH2 0x34BE PUSH1 0x60 SWAP5 PUSH2 0x2EBC JUMP JUMPDEST POP SWAP4 POP SWAP1 SWAP2 PUSH2 0x31F7 JUMP JUMPDEST RETURNDATASIZE SWAP2 POP PUSH2 0x347C JUMP JUMPDEST SWAP2 PUSH1 0x20 DUP4 RETURNDATASIZE PUSH1 0x20 GT PUSH2 0x3514 JUMPI JUMPDEST DUP2 PUSH2 0x34EA PUSH1 0x20 SWAP4 DUP4 PUSH2 0x2DD4 JUMP JUMPDEST DUP2 ADD SUB SLT PUSH2 0x44F JUMPI PUSH1 0x60 PUSH2 0x3195 SWAP3 PUSH2 0x350A PUSH8 0xDE0B6B3A7640000 SWAP6 PUSH2 0x2EBC JUMP JUMPDEST POP SWAP3 POP POP SWAP2 PUSH2 0x317C JUMP JUMPDEST RETURNDATASIZE SWAP2 POP PUSH2 0x34DD JUMP JUMPDEST PUSH1 0x20 DUP2 RETURNDATASIZE PUSH1 0x20 GT PUSH2 0x354B JUMPI JUMPDEST DUP2 PUSH2 0x3535 PUSH1 0x20 SWAP4 DUP4 PUSH2 0x2DD4 JUMP JUMPDEST DUP2 ADD SUB SLT PUSH2 0x44F JUMPI PUSH2 0x3546 SWAP1 PUSH2 0x2EBC JUMP JUMPDEST PUSH2 0x3101 JUMP JUMPDEST RETURNDATASIZE SWAP2 POP PUSH2 0x3528 JUMP JUMPDEST SWAP1 POP PUSH1 0x20 DUP2 RETURNDATASIZE PUSH1 0x20 GT PUSH2 0x357F JUMPI JUMPDEST DUP2 PUSH2 0x356E PUSH1 0x20 SWAP4 DUP4 PUSH2 0x2DD4 JUMP JUMPDEST DUP2 ADD SUB SLT PUSH2 0x44F JUMPI MLOAD PUSH2 0x30B1 PUSH2 0x309B JUMP JUMPDEST RETURNDATASIZE SWAP2 POP PUSH2 0x3561 JUMP JUMPDEST SWAP1 POP PUSH1 0x20 DUP2 RETURNDATASIZE PUSH1 0x20 GT PUSH2 0x35B1 JUMPI JUMPDEST DUP2 PUSH2 0x35A2 PUSH1 0x20 SWAP4 DUP4 PUSH2 0x2DD4 JUMP JUMPDEST DUP2 ADD SUB SLT PUSH2 0x44F JUMPI MLOAD CODESIZE PUSH2 0x304F JUMP JUMPDEST RETURNDATASIZE SWAP2 POP PUSH2 0x3595 JUMP JUMPDEST SWAP2 PUSH1 0x20 SWAP1 DUP3 DUP2 MSTORE ADD SWAP2 SWAP1 PUSH1 0x0 JUMPDEST DUP2 DUP2 LT PUSH2 0x35D3 JUMPI POP POP POP SWAP1 JUMP JUMPDEST SWAP1 SWAP2 SWAP3 PUSH1 0x20 DUP1 PUSH1 0x1 SWAP3 PUSH1 0x1 PUSH1 0x1 PUSH1 0xA0 SHL SUB PUSH2 0x35ED DUP9 PUSH2 0x2CF7 JUMP JUMPDEST AND DUP2 MSTORE ADD SWAP5 ADD SWAP3 SWAP2 ADD PUSH2 0x35C6 JUMP JUMPDEST SWAP1 SWAP2 DUP3 DUP2 MSTORE PUSH32 0x7FFFFFFFFFFFFFFFFFFFFFFFFFFFFFFFFFFFFFFFFFFFFFFFFFFFFFFFFFFFFFF DUP4 GT PUSH2 0x44F JUMPI PUSH1 0x20 SWAP3 PUSH1 0x5 SHL DUP1 SWAP3 DUP5 DUP4 ADD CALLDATACOPY ADD ADD SWAP1 JUMP JUMPDEST MLOAD SWAP1 PUSH1 0x1 PUSH1 0x1 PUSH1 0xA0 SHL SUB DUP3 AND DUP3 SUB PUSH2 0x44F JUMPI JUMP JUMPDEST DUP2 DUP2 MUL SWAP3 SWAP2 DUP2 ISZERO SWAP2 DUP5 DIV EQ OR ISZERO PUSH2 0x2EA6 JUMPI JUMP JUMPDEST ISZERO PUSH2 0x3666 JUMPI JUMP JUMPDEST PUSH1 0x64 PUSH1 0x40 MLOAD PUSH3 0x461BCD PUSH1 0xE5 SHL DUP2 MSTORE PUSH1 0x20 PUSH1 0x4 DUP3 ADD MSTORE PUSH1 0x9 PUSH1 0x24 DUP3 ADD MSTORE PUSH32 0x4E6F742061737365740000000000000000000000000000000000000000000000 PUSH1 0x44 DUP3 ADD MSTORE REVERT JUMPDEST PUSH1 0xE SLOAD DUP1 ISZERO PUSH2 0x36EB JUMPI PUSH2 0x36BF PUSH1 0xC SLOAD TIMESTAMP PUSH2 0x2E99 JUMP JUMPDEST DUP2 DUP2 LT ISZERO PUSH2 0x36E0 JUMPI PUSH2 0x36D4 PUSH2 0x36DC SWAP2 DUP4 PUSH2 0x2E99 JUMP JUMPDEST PUSH1 0xD SLOAD PUSH2 0x364C JUMP JUMPDEST DIV SWAP1 JUMP JUMPDEST POP PUSH2 0x36DC PUSH1 0x0 PUSH2 0x36D4 JUMP JUMPDEST POP PUSH1 0x0 SWAP1 JUMP JUMPDEST PUSH1 0x40 MLOAD SWAP1 PUSH2 0x36FE DUP3 PUSH2 0x2D86 JUMP JUMPDEST PUSH1 0x0 PUSH1 0xA0 DUP4 DUP3 DUP2 MSTORE DUP3 PUSH1 0x20 DUP3 ADD MSTORE DUP3 PUSH1 0x40 DUP3 ADD MSTORE DUP3 PUSH1 0x60 DUP3 ADD MSTORE PUSH1 0x60 PUSH1 0x80 DUP3 ADD MSTORE ADD MSTORE JUMP JUMPDEST MLOAD SWAP1 PUSH16 0xFFFFFFFFFFFFFFFFFFFFFFFFFFFFFFFF DUP3 AND DUP3 SUB PUSH2 0x44F JUMPI JUMP JUMPDEST PUSH1 0x1 PUSH1 0x1 PUSH1 0xA0 SHL SUB DUP2 AND SWAP1 DUP2 ISZERO PUSH2 0x3783 JUMPI PUSH1 0x1 PUSH1 0x1 PUSH1 0xA0 SHL SUB NOT SWAP1 PUSH2 0x377C PUSH1 0x1 SLOAD SWAP2 PUSH2 0x3777 PUSH1 0x1 PUSH1 0x1 PUSH1 0xA0 SHL SUB DUP5 AND DUP7 EQ ISZERO PUSH2 0x365F JUMP JUMPDEST PUSH2 0x3A4A JUMP JUMPDEST AND OR PUSH1 0x1 SSTORE JUMP JUMPDEST POP POP PUSH1 0x1 PUSH1 0x1 PUSH1 0xA0 SHL SUB NOT PUSH1 0x1 SLOAD AND PUSH1 0x1 SSTORE JUMP JUMPDEST SWAP1 DUP2 PUSH1 0x20 SWAP2 SUB SLT PUSH2 0x44F JUMPI MLOAD SWAP1 JUMP JUMPDEST PUSH1 0x24 PUSH1 0x20 PUSH1 0x1 PUSH1 0x1 PUSH1 0xA0 SHL SUB PUSH1 0x1 SLOAD AND PUSH1 0x40 MLOAD SWAP3 DUP4 DUP1 SWAP3 PUSH4 0x70A08231 PUSH1 0xE0 SHL DUP3 MSTORE ADDRESS PUSH1 0x4 DUP4 ADD MSTORE GAS STATICCALL SWAP1 DUP2 ISZERO PUSH2 0x2F6C JUMPI PUSH1 0x0 SWAP2 PUSH2 0x37E1 JUMPI POP SWAP1 JUMP JUMPDEST SWAP1 POP PUSH1 0x20 DUP2 RETURNDATASIZE PUSH1 0x20 GT PUSH2 0x3808 JUMPI JUMPDEST DUP2 PUSH2 0x37FC PUSH1 0x20 SWAP4 DUP4 PUSH2 0x2DD4 JUMP JUMPDEST DUP2 ADD SUB SLT PUSH2 0x44F JUMPI MLOAD SWAP1 JUMP JUMPDEST RETURNDATASIZE SWAP2 POP PUSH2 0x37EF JUMP JUMPDEST SWAP2 SWAP1 DUP3 ADD DUP1 SWAP3 GT PUSH2 0x2EA6 JUMPI JUMP JUMPDEST PUSH1 0x1 PUSH1 0x1 PUSH1 0xA0 SHL SUB AND DUP1 ISZERO PUSH2 0x38AD JUMPI PUSH1 0x1 PUSH1 0x1 PUSH1 0xA0 SHL SUB PUSH32 0x9016D09D72D40FDAE2FD8CEAC6B6234C7706214FD39C1CD1E609A0528C199300 SLOAD DUP3 PUSH1 0x1 PUSH1 0x1 PUSH1 0xA0 SHL SUB NOT DUP3 AND OR PUSH32 0x9016D09D72D40FDAE2FD8CEAC6B6234C7706214FD39C1CD1E609A0528C199300 SSTORE AND PUSH32 0x8BE0079C531659141344CD1FD0A4F28419497F9722A3DAAFE3B4186F6B6457E0 PUSH1 0x0 DUP1 LOG3 JUMP JUMPDEST PUSH32 0x1E4FBDF700000000000000000000000000000000000000000000000000000000 PUSH1 0x0 MSTORE PUSH1 0x0 PUSH1 0x4 MSTORE PUSH1 0x24 PUSH1 0x0 REVERT JUMPDEST PUSH1 0x1 PUSH1 0x1 PUSH1 0xA0 SHL SUB PUSH32 0x9016D09D72D40FDAE2FD8CEAC6B6234C7706214FD39C1CD1E609A0528C199300 SLOAD AND CALLER EQ DUP1 ISZERO PUSH2 0x395B JUMPI JUMPDEST ISZERO PUSH2 0x3917 JUMPI JUMP JUMPDEST PUSH1 0x64 PUSH1 0x40 MLOAD PUSH3 0x461BCD PUSH1 0xE5 SHL DUP2 MSTORE PUSH1 0x20 PUSH1 0x4 DUP3 ADD MSTORE PUSH1 0xD PUSH1 0x24 DUP3 ADD MSTORE PUSH32 0x4E6F742061206D616E6167657200000000000000000000000000000000000000 PUSH1 0x44 DUP3 ADD MSTORE REVERT JUMPDEST POP PUSH1 0x1 PUSH1 0x1 PUSH1 0xA0 SHL SUB PUSH1 0x6 SLOAD AND CALLER EQ PUSH2 0x3910 JUMP JUMPDEST PUSH1 0x1 PUSH1 0x1 PUSH1 0xA0 SHL SUB PUSH32 0x9016D09D72D40FDAE2FD8CEAC6B6234C7706214FD39C1CD1E609A0528C199300 SLOAD AND CALLER SUB PUSH2 0x39A2 JUMPI JUMP JUMPDEST PUSH32 0x118CDAA700000000000000000000000000000000000000000000000000000000 PUSH1 0x0 MSTORE CALLER PUSH1 0x4 MSTORE PUSH1 0x24 PUSH1 0x0 REVERT JUMPDEST PUSH2 0x39D8 PUSH2 0x3C58 JUMP JUMPDEST PUSH2 0x39DE JUMPI JUMP JUMPDEST PUSH1 0x0 PUSH1 0x20 PUSH1 0x1 PUSH1 0x1 PUSH1 0xA0 SHL SUB PUSH1 0x42 SLOAD AND PUSH1 0x64 PUSH1 0x1 PUSH1 0x1 PUSH1 0xA0 SHL SUB PUSH1 0x1 SLOAD AND PUSH1 0x40 MLOAD SWAP5 DUP6 SWAP4 DUP5 SWAP3 PUSH4 0x1A4CA37B PUSH1 0xE2 SHL DUP5 MSTORE PUSH1 0x4 DUP5 ADD MSTORE DUP2 NOT PUSH1 0x24 DUP5 ADD MSTORE ADDRESS PUSH1 0x44 DUP5 ADD MSTORE GAS CALL DUP1 ISZERO PUSH2 0x2F6C JUMPI PUSH2 0x3A2F JUMPI POP JUMP JUMPDEST PUSH2 0x3A47 SWAP1 PUSH1 0x20 RETURNDATASIZE PUSH1 0x20 GT PUSH2 0x2B0B JUMPI PUSH2 0x2AFC DUP2 DUP4 PUSH2 0x2DD4 JUMP JUMPDEST POP JUMP JUMPDEST PUSH1 0x1 PUSH1 0x1 PUSH1 0xA0 SHL SUB DUP1 PUSH1 0x41 SLOAD AND SWAP2 AND EQ PUSH2 0x3A60 JUMPI JUMP JUMPDEST PUSH1 0x64 PUSH1 0x40 MLOAD PUSH3 0x461BCD PUSH1 0xE5 SHL DUP2 MSTORE PUSH1 0x20 PUSH1 0x4 DUP3 ADD MSTORE PUSH1 0xA PUSH1 0x24 DUP3 ADD MSTORE PUSH32 0x4E6F742061546F6B656E00000000000000000000000000000000000000000000 PUSH1 0x44 DUP3 ADD MSTORE REVERT JUMPDEST PUSH2 0x3AAC PUSH2 0x36F1 JUMP JUMPDEST POP PUSH1 0x24 PUSH1 0x0 PUSH1 0x1 PUSH1 0x1 PUSH1 0xA0 SHL SUB PUSH1 0xA SLOAD AND PUSH1 0x40 MLOAD SWAP3 DUP4 DUP1 SWAP3 PUSH32 0x9AF608C900000000000000000000000000000000000000000000000000000000 DUP3 MSTORE ADDRESS PUSH1 0x4 DUP4 ADD MSTORE GAS STATICCALL SWAP1 DUP2 ISZERO PUSH2 0x2F6C JUMPI PUSH1 0x0 SWAP2 PUSH2 0x3B01 JUMPI POP SWAP1 JUMP JUMPDEST RETURNDATASIZE DUP1 DUP4 DUP4 RETURNDATACOPY PUSH2 0x3B10 DUP2 DUP4 PUSH2 0x2DD4 JUMP JUMPDEST DUP2 ADD SWAP1 PUSH1 0x20 DUP2 DUP4 SUB SLT PUSH2 0x1824 JUMPI DUP1 MLOAD SWAP1 PUSH8 0xFFFFFFFFFFFFFFFF DUP3 GT PUSH2 0x1820 JUMPI ADD SWAP1 PUSH1 0xC0 DUP3 DUP3 SUB SLT PUSH2 0x1824 JUMPI PUSH1 0x40 MLOAD SWAP3 PUSH2 0x3B48 DUP5 PUSH2 0x2D86 JUMP JUMPDEST DUP3 MLOAD DUP5 MSTORE PUSH1 0x20 DUP4 ADD MLOAD PUSH1 0x20 DUP6 ADD MSTORE PUSH1 0x40 DUP4 ADD MLOAD PUSH1 0x40 DUP6 ADD MSTORE PUSH1 0x60 DUP4 ADD MLOAD PUSH1 0x60 DUP6 ADD MSTORE PUSH1 0x80 DUP4 ADD MLOAD PUSH8 0xFFFFFFFFFFFFFFFF DUP2 GT PUSH2 0xA95 JUMPI DUP4 ADD DUP3 PUSH1 0x1F DUP3 ADD SLT ISZERO PUSH2 0xA95 JUMPI DUP1 MLOAD SWAP2 PUSH8 0xFFFFFFFFFFFFFFFF DUP4 GT PUSH2 0x3BEF JUMPI PUSH1 0x40 MLOAD SWAP4 PUSH2 0x3BB5 PUSH1 0x1F DUP6 ADD PUSH1 0x1F NOT AND PUSH1 0x20 ADD DUP7 PUSH2 0x2DD4 JUMP JUMPDEST DUP4 DUP6 MSTORE PUSH1 0x20 DUP5 DUP5 ADD ADD GT PUSH2 0x2B4 JUMPI POP SWAP2 PUSH2 0x3BDC PUSH2 0x3BE7 SWAP5 SWAP3 PUSH1 0xA0 SWAP5 PUSH1 0x20 DUP1 DUP6 ADD SWAP2 ADD PUSH2 0x2DF6 JUMP JUMPDEST PUSH1 0x80 DUP6 ADD MSTORE ADD PUSH2 0x2EBC JUMP JUMPDEST PUSH1 0xA0 DUP3 ADD MSTORE SWAP1 JUMP JUMPDEST DUP1 PUSH4 0x4E487B71 PUSH1 0xE0 SHL PUSH1 0x24 SWAP3 MSTORE PUSH1 0x41 PUSH1 0x4 MSTORE REVERT JUMPDEST PUSH1 0xFF PUSH32 0xCD5ED15C6E187E77E9AEE88184C21F4F2182AB5827CB3B7E07FBEDCD63F03300 SLOAD AND PUSH2 0x3C2E JUMPI JUMP JUMPDEST PUSH32 0xD93C066500000000000000000000000000000000000000000000000000000000 PUSH1 0x0 MSTORE PUSH1 0x4 PUSH1 0x0 REVERT JUMPDEST PUSH1 0x24 PUSH1 0x20 PUSH1 0x1 PUSH1 0x1 PUSH1 0xA0 SHL SUB PUSH1 0x41 SLOAD AND PUSH1 0x40 MLOAD SWAP3 DUP4 DUP1 SWAP3 PUSH4 0x70A08231 PUSH1 0xE0 SHL DUP3 MSTORE ADDRESS PUSH1 0x4 DUP4 ADD MSTORE GAS STATICCALL SWAP1 DUP2 ISZERO PUSH2 0x2F6C JUMPI PUSH1 0x0 SWAP2 PUSH2 0x37E1 JUMPI POP SWAP1 JUMP JUMPDEST PUSH1 0xFF PUSH32 0xF0C57E16840DF040F15088DC2F81FE391C3923BEC73E23A9662EFC9C229C6A00 SLOAD PUSH1 0x40 SHR AND ISZERO PUSH2 0x3CC2 JUMPI JUMP JUMPDEST PUSH32 0xD7E6BCF800000000000000000000000000000000000000000000000000000000 PUSH1 0x0 MSTORE PUSH1 0x4 PUSH1 0x0 REVERT JUMPDEST PUSH1 0x1 PUSH1 0x1 PUSH1 0xA0 SHL SUB SWAP1 DUP2 AND SWAP2 AND DUP1 DUP3 SUB PUSH2 0x3D05 JUMPI POP POP POP JUMP JUMPDEST PUSH1 0x7 SLOAD PUSH1 0x40 MLOAD PUSH4 0x95EA7B3 PUSH1 0xE0 SHL DUP2 MSTORE PUSH1 0x1 PUSH1 0x1 PUSH1 0xA0 SHL SUB SWAP1 SWAP2 AND PUSH1 0x4 DUP3 ADD MSTORE PUSH1 0x24 DUP2 ADD DUP5 SWAP1 MSTORE PUSH1 0x20 DUP2 PUSH1 0x44 DUP2 PUSH1 0x0 DUP8 GAS CALL DUP1 ISZERO PUSH2 0x2F6C JUMPI PUSH2 0x3D9F JUMPI JUMPDEST POP PUSH1 0x64 PUSH1 0x20 SWAP3 PUSH1 0x0 PUSH1 0x1 PUSH1 0x1 PUSH1 0xA0 SHL SUB PUSH1 0x7 SLOAD AND PUSH1 0x40 MLOAD SWAP7 DUP8 SWAP6 DUP7 SWAP5 PUSH32 0xDF791E5000000000000000000000000000000000000000000000000000000000 DUP7 MSTORE PUSH1 0x4 DUP7 ADD MSTORE PUSH1 0x24 DUP6 ADD MSTORE PUSH1 0x44 DUP5 ADD MSTORE GAS CALL DUP1 ISZERO PUSH2 0x2F6C JUMPI PUSH2 0x3A2F JUMPI POP JUMP JUMPDEST PUSH1 0x20 DUP2 RETURNDATASIZE PUSH1 0x20 GT PUSH2 0x3DD6 JUMPI JUMPDEST DUP2 PUSH2 0x3DB8 PUSH1 0x20 SWAP4 DUP4 PUSH2 0x2DD4 JUMP JUMPDEST DUP2 ADD SUB SLT PUSH2 0x44F JUMPI PUSH1 0x20 SWAP3 PUSH2 0x3DCE PUSH1 0x64 SWAP3 PUSH2 0x2EBC JUMP JUMPDEST POP SWAP3 POP PUSH2 0x3D42 JUMP JUMPDEST RETURNDATASIZE SWAP2 POP PUSH2 0x3DAB JUMP JUMPDEST PUSH1 0x40 MLOAD SWAP2 PUSH4 0x70A08231 PUSH1 0xE0 SHL DUP4 MSTORE ADDRESS PUSH1 0x4 DUP5 ADD MSTORE PUSH1 0x20 DUP4 PUSH1 0x24 DUP2 PUSH1 0x1 PUSH1 0x1 PUSH1 0xA0 SHL SUB DUP7 AND GAS STATICCALL SWAP2 DUP3 ISZERO PUSH2 0x2F6C JUMPI PUSH1 0x0 SWAP3 PUSH2 0x3E1F JUMPI JUMPDEST PUSH2 0x3E1D SWAP4 POP PUSH2 0x3CEC JUMP JUMPDEST JUMP JUMPDEST SWAP2 POP PUSH1 0x20 DUP4 RETURNDATASIZE PUSH1 0x20 GT PUSH2 0x3E4D JUMPI JUMPDEST DUP2 PUSH2 0x3E3A PUSH1 0x20 SWAP4 DUP4 PUSH2 0x2DD4 JUMP JUMPDEST DUP2 ADD SUB SLT PUSH2 0x44F JUMPI PUSH2 0x3E1D SWAP3 MLOAD SWAP2 PUSH2 0x3E13 JUMP JUMPDEST RETURNDATASIZE SWAP2 POP PUSH2 0x3E2D JUMP INVALID LOG2 PUSH5 0x6970667358 0x22 SLT KECCAK256 PUSH13 0xCB63211644049632489004B96 LT TSTORE 0xBB DUP7 PUSH4 0xDC466EA1 0xC4 PUSH28 0x720AD59DCF083A64736F6C634300081C003300000000000000000000 "
        },
        "methodIdentifiers": {
          "WETH()": "ad5c4648",
          "_aToken()": "7a1a959b",
          "_asset()": "fcea5e29",
          "_iToken()": "281c8f32",
          "_lendingPool()": "0500510d",
          "_rewardTokens(uint256)": "49883934",
          "_rewardsController()": "234e00e1",
          "addReward(address)": "9c9b2e21",
          "beforeDeposit()": "573fef0a",
          "callReward()": "97fd323d",
          "deposit()": "d0e30db0",
          "exitStrategy()": "7c6ab208",
          "getAllFees()": "b20feaaf",
          "getAsset()": "5c222bad",
          "getBalanceOf()": "ecbde5e6",
          "getBalanceOfAsset()": "df390305",
          "getBalanceOfPool()": "f8b3c21e",
          "getBaseRate()": "b655d0c4",
          "getDepositFee()": "0de705b5",
          "getLastHarvest()": "affd80b0",
          "getLockedProfit()": "ab7cc1f8",
          "getStrategyFeeId()": "e4580a3c",
          "getVault()": "8d928af8",
          "getWithdrawFee()": "1540aa89",
          "harvest()": "4641257d",
          "harvestWithCallFeeRecipient(address)": "623d8bd2",
          "initialize(address,address,address,bool,address,address[],(address,address,address,address,address,address))": "669fe8ee",
          "managerHarvest()": "d801d946",
          "merkleClaim(address,address[],address[],uint256[],bytes32[][])": "582ab01b",
          "owner()": "8da5cb5b",
          "panic()": "4700d305",
          "pause()": "8456cb59",
          "paused()": "5c975abb",
          "removeReward(uint256)": "c553173f",
          "renounceOwnership()": "715018a6",
          "resetRewards()": "ad29f5da",
          "rewardsAvailable()": "e7a7250a",
          "rewardsLength()": "bbb356d5",
          "setAsset(address)": "d0d552dd",
          "setFeeCollector(address)": "a42dce80",
          "setFeeRecipient(address)": "e74b981b",
          "setHarvestOnDeposit(bool)": "0e8fbb5a",
          "setLockDuration(uint256)": "4eb665af",
          "setManager(address)": "d0ebdbe7",
          "setReward(address)": "e5932c40",
          "setRewardMinAmount(address,uint256)": "a7e9ca82",
          "setRewarder(address)": "3a6462e4",
          "setStrategist(address)": "c7b9d530",
          "setStrategyFeeId(uint256)": "19a501ad",
          "setSwapRouter(address)": "41273657",
          "setVault(address)": "6817031b",
          "setWithdrawalFee(uint256)": "ac1e5025",
          "swapRouter()": "c31c9c07",
          "transferOwnership(address)": "f2fde38b",
          "unpause()": "3f4ba83a",
          "withdraw(uint256)": "2e1a7d4d"
        }
      }
    }
  }
}