{
  "contracts/libs/Consts.sol": {
    "Consts": {
      "abi": [
        {
          "inputs": [],
          "name": "DIVISOR",
          "outputs": [
            {
              "internalType": "uint256",
              "name": "",
              "type": "uint256"
            }
          ],
          "stateMutability": "view",
          "type": "function"
        },
        {
          "inputs": [],
          "name": "ETH",
          "outputs": [
            {
              "internalType": "address",
              "name": "",
              "type": "address"
            }
          ],
          "stateMutability": "view",
          "type": "function"
        },
        {
          "inputs": [],
          "name": "STRATEGY_ALLOCATION_MAX",
          "outputs": [
            {
              "internalType": "uint256",
              "name": "",
              "type": "uint256"
            }
          ],
          "stateMutability": "view",
          "type": "function"
        },
        {
          "inputs": [],
          "name": "WITHDRAWAL_FEE_CAP",
          "outputs": [
            {
              "internalType": "uint256",
              "name": "",
              "type": "uint256"
            }
          ],
          "stateMutability": "view",
          "type": "function"
        },
        {
          "inputs": [],
          "name": "WITHDRAWAL_MAX",
          "outputs": [
            {
              "internalType": "uint256",
              "name": "",
              "type": "uint256"
            }
          ],
          "stateMutability": "view",
          "type": "function"
        }
      ],
      "evm": {
        "bytecode": {
          "linkReferences": {},
          "object": "60808060405234601957610100908161001f823930815050f35b600080fdfe6080806040526004361015601257600080fd5b60003560e01c9081633410fe6e1460985750806354518b1a14606b5780638322fff214606f578063c784600614606b5763dfbdc43714605057600080fd5b6000366003190112606657602060405160328152f35b600080fd5b60b3565b6000366003190112606657602060405173eeeeeeeeeeeeeeeeeeeeeeeeeeeeeeeeeeeeeeee8152f35b600036600319011260665780670de0b6b3a764000060209252f35b600036600319011260665760206040516127108152f3fea2646970667358221220cbce5546e91e519c2986be791707bf1e5fb2045463f532dcad5a86ea2b1a0f5364736f6c634300081c0033",
          "opcodes": "PUSH1 0x80 DUP1 PUSH1 0x40 MSTORE CALLVALUE PUSH1 0x19 JUMPI PUSH2 0x100 SWAP1 DUP2 PUSH2 0x1F DUP3 CODECOPY ADDRESS DUP2 POP POP RETURN JUMPDEST PUSH1 0x0 DUP1 REVERT INVALID PUSH1 0x80 DUP1 PUSH1 0x40 MSTORE PUSH1 0x4 CALLDATASIZE LT ISZERO PUSH1 0x12 JUMPI PUSH1 0x0 DUP1 REVERT JUMPDEST PUSH1 0x0 CALLDATALOAD PUSH1 0xE0 SHR SWAP1 DUP2 PUSH4 0x3410FE6E EQ PUSH1 0x98 JUMPI POP DUP1 PUSH4 0x54518B1A EQ PUSH1 0x6B JUMPI DUP1 PUSH4 0x8322FFF2 EQ PUSH1 0x6F JUMPI DUP1 PUSH4 0xC7846006 EQ PUSH1 0x6B JUMPI PUSH4 0xDFBDC437 EQ PUSH1 0x50 JUMPI PUSH1 0x0 DUP1 REVERT JUMPDEST PUSH1 0x0 CALLDATASIZE PUSH1 0x3 NOT ADD SLT PUSH1 0x66 JUMPI PUSH1 0x20 PUSH1 0x40 MLOAD PUSH1 0x32 DUP2 MSTORE RETURN JUMPDEST PUSH1 0x0 DUP1 REVERT JUMPDEST PUSH1 0xB3 JUMP JUMPDEST PUSH1 0x0 CALLDATASIZE PUSH1 0x3 NOT ADD SLT PUSH1 0x66 JUMPI PUSH1 0x20 PUSH1 0x40 MLOAD PUSH20 0xEEEEEEEEEEEEEEEEEEEEEEEEEEEEEEEEEEEEEEEE DUP2 MSTORE RETURN JUMPDEST PUSH1 0x0 CALLDATASIZE PUSH1 0x3 NOT ADD SLT PUSH1 0x66 JUMPI DUP1 PUSH8 0xDE0B6B3A7640000 PUSH1 0x20 SWAP3 MSTORE RETURN JUMPDEST PUSH1 0x0 CALLDATASIZE PUSH1 0x3 NOT ADD SLT PUSH1 0x66 JUMPI PUSH1 0x20 PUSH1 0x40 MLOAD PUSH2 0x2710 DUP2 MSTORE RETURN INVALID LOG2 PUSH5 0x6970667358 0x22 SLT KECCAK256 0xCB 0xCE SSTORE CHAINID 0xE9 0x1E MLOAD SWAP13 0x29 DUP7 0xBE PUSH26 0x1707BF1E5FB2045463F532DCAD5A86EA2B1A0F5364736F6C6343 STOP ADDMOD SHR STOP CALLER "
        },
        "methodIdentifiers": {
          "DIVISOR()": "3410fe6e",
          "ETH()": "8322fff2",
          "STRATEGY_ALLOCATION_MAX()": "c7846006",
          "WITHDRAWAL_FEE_CAP()": "dfbdc437",
          "WITHDRAWAL_MAX()": "54518b1a"
        }
      }
    }
  }
}