{
  "contracts/mocks/SimpleVault.sol": {
    "SimpleVault": {
      "abi": [
        {
          "inputs": [
            {
              "internalType": "address",
              "name": "spender",
              "type": "address"
            },
            {
              "internalType": "uint256",
              "name": "allowance",
              "type": "uint256"
            },
            {
              "internalType": "uint256",
              "name": "needed",
              "type": "uint256"
            }
          ],
          "name": "ERC20InsufficientAllowance",
          "type": "error"
        },
        {
          "inputs": [
            {
              "internalType": "address",
              "name": "sender",
              "type": "address"
            },
            {
              "internalType": "uint256",
              "name": "balance",
              "type": "uint256"
            },
            {
              "internalType": "uint256",
              "name": "needed",
              "type": "uint256"
            }
          ],
          "name": "ERC20InsufficientBalance",
          "type": "error"
        },
        {
          "inputs": [
            {
              "internalType": "address",
              "name": "approver",
              "type": "address"
            }
          ],
          "name": "ERC20InvalidApprover",
          "type": "error"
        },
        {
          "inputs": [
            {
              "internalType": "address",
              "name": "receiver",
              "type": "address"
            }
          ],
          "name": "ERC20InvalidReceiver",
          "type": "error"
        },
        {
          "inputs": [
            {
              "internalType": "address",
              "name": "sender",
              "type": "address"
            }
          ],
          "name": "ERC20InvalidSender",
          "type": "error"
        },
        {
          "inputs": [
            {
              "internalType": "address",
              "name": "spender",
              "type": "address"
            }
          ],
          "name": "ERC20InvalidSpender",
          "type": "error"
        },
        {
          "inputs": [],
          "name": "InvalidInitialization",
          "type": "error"
        },
        {
          "inputs": [],
          "name": "NotInitializing",
          "type": "error"
        },
        {
          "inputs": [
            {
              "internalType": "address",
              "name": "owner",
              "type": "address"
            }
          ],
          "name": "OwnableInvalidOwner",
          "type": "error"
        },
        {
          "inputs": [
            {
              "internalType": "address",
              "name": "account",
              "type": "address"
            }
          ],
          "name": "OwnableUnauthorizedAccount",
          "type": "error"
        },
        {
          "inputs": [],
          "name": "ReentrancyGuardReentrantCall",
          "type": "error"
        },
        {
          "anonymous": false,
          "inputs": [
            {
              "indexed": true,
              "internalType": "address",
              "name": "owner",
              "type": "address"
            },
            {
              "indexed": true,
              "internalType": "address",
              "name": "spender",
              "type": "address"
            },
            {
              "indexed": false,
              "internalType": "uint256",
              "name": "value",
              "type": "uint256"
            }
          ],
          "name": "Approval",
          "type": "event"
        },
        {
          "anonymous": false,
          "inputs": [
            {
              "indexed": false,
              "internalType": "uint64",
              "name": "version",
              "type": "uint64"
            }
          ],
          "name": "Initialized",
          "type": "event"
        },
        {
          "anonymous": false,
          "inputs": [
            {
              "indexed": true,
              "internalType": "address",
              "name": "previousOwner",
              "type": "address"
            },
            {
              "indexed": true,
              "internalType": "address",
              "name": "newOwner",
              "type": "address"
            }
          ],
          "name": "OwnershipTransferred",
          "type": "event"
        },
        {
          "anonymous": false,
          "inputs": [
            {
              "indexed": true,
              "internalType": "address",
              "name": "from",
              "type": "address"
            },
            {
              "indexed": true,
              "internalType": "address",
              "name": "to",
              "type": "address"
            },
            {
              "indexed": false,
              "internalType": "uint256",
              "name": "value",
              "type": "uint256"
            }
          ],
          "name": "Transfer",
          "type": "event"
        },
        {
          "inputs": [
            {
              "internalType": "contract IStrategy",
              "name": "newStrategy",
              "type": "address"
            }
          ],
          "name": "addStrategy",
          "outputs": [],
          "stateMutability": "nonpayable",
          "type": "function"
        },
        {
          "inputs": [
            {
              "internalType": "address",
              "name": "owner",
              "type": "address"
            },
            {
              "internalType": "address",
              "name": "spender",
              "type": "address"
            }
          ],
          "name": "allowance",
          "outputs": [
            {
              "internalType": "uint256",
              "name": "",
              "type": "uint256"
            }
          ],
          "stateMutability": "view",
          "type": "function"
        },
        {
          "inputs": [
            {
              "internalType": "address",
              "name": "spender",
              "type": "address"
            },
            {
              "internalType": "uint256",
              "name": "value",
              "type": "uint256"
            }
          ],
          "name": "approve",
          "outputs": [
            {
              "internalType": "bool",
              "name": "",
              "type": "bool"
            }
          ],
          "stateMutability": "nonpayable",
          "type": "function"
        },
        {
          "inputs": [
            {
              "internalType": "address",
              "name": "account",
              "type": "address"
            }
          ],
          "name": "balanceOf",
          "outputs": [
            {
              "internalType": "uint256",
              "name": "",
              "type": "uint256"
            }
          ],
          "stateMutability": "view",
          "type": "function"
        },
        {
          "inputs": [],
          "name": "decimals",
          "outputs": [
            {
              "internalType": "uint8",
              "name": "",
              "type": "uint8"
            }
          ],
          "stateMutability": "view",
          "type": "function"
        },
        {
          "inputs": [
            {
              "internalType": "uint256",
              "name": "amountScaled",
              "type": "uint256"
            }
          ],
          "name": "deposit",
          "outputs": [
            {
              "internalType": "uint256",
              "name": "lpMinted",
              "type": "uint256"
            }
          ],
          "stateMutability": "nonpayable",
          "type": "function"
        },
        {
          "inputs": [
            {
              "internalType": "uint256",
              "name": "amountScaled",
              "type": "uint256"
            },
            {
              "internalType": "contract IAccount",
              "name": "account",
              "type": "address"
            }
          ],
          "name": "depositFromAccount",
          "outputs": [
            {
              "internalType": "uint256",
              "name": "lpMinted",
              "type": "uint256"
            }
          ],
          "stateMutability": "nonpayable",
          "type": "function"
        },
        {
          "inputs": [],
          "name": "earn",
          "outputs": [],
          "stateMutability": "nonpayable",
          "type": "function"
        },
        {
          "inputs": [
            {
              "internalType": "contract IStrategy",
              "name": "strategy",
              "type": "address"
            }
          ],
          "name": "getAllocation",
          "outputs": [
            {
              "internalType": "uint256",
              "name": "allocation",
              "type": "uint256"
            }
          ],
          "stateMutability": "view",
          "type": "function"
        },
        {
          "inputs": [],
          "name": "getAsset",
          "outputs": [
            {
              "internalType": "address",
              "name": "asset",
              "type": "address"
            }
          ],
          "stateMutability": "view",
          "type": "function"
        },
        {
          "inputs": [],
          "name": "getAvailable",
          "outputs": [
            {
              "internalType": "uint256",
              "name": "available",
              "type": "uint256"
            }
          ],
          "stateMutability": "view",
          "type": "function"
        },
        {
          "inputs": [],
          "name": "getBalance",
          "outputs": [
            {
              "internalType": "uint256",
              "name": "amountScaled",
              "type": "uint256"
            }
          ],
          "stateMutability": "view",
          "type": "function"
        },
        {
          "inputs": [
            {
              "internalType": "uint256",
              "name": "strategyIndex",
              "type": "uint256"
            }
          ],
          "name": "getLastHarvest",
          "outputs": [
            {
              "internalType": "uint256",
              "name": "lastHarvest",
              "type": "uint256"
            }
          ],
          "stateMutability": "view",
          "type": "function"
        },
        {
          "inputs": [
            {
              "internalType": "uint256",
              "name": "lpAmount",
              "type": "uint256"
            }
          ],
          "name": "getShares",
          "outputs": [
            {
              "internalType": "uint256",
              "name": "amountScaled",
              "type": "uint256"
            }
          ],
          "stateMutability": "view",
          "type": "function"
        },
        {
          "inputs": [],
          "name": "getStrategies",
          "outputs": [
            {
              "internalType": "contract IStrategy[]",
              "name": "strategies",
              "type": "address[]"
            }
          ],
          "stateMutability": "view",
          "type": "function"
        },
        {
          "inputs": [],
          "name": "getSummary",
          "outputs": [
            {
              "internalType": "uint256",
              "name": "allocated",
              "type": "uint256"
            },
            {
              "internalType": "uint256",
              "name": "idle",
              "type": "uint256"
            }
          ],
          "stateMutability": "view",
          "type": "function"
        },
        {
          "inputs": [
            {
              "internalType": "string",
              "name": "name",
              "type": "string"
            },
            {
              "internalType": "string",
              "name": "symbol",
              "type": "string"
            },
            {
              "internalType": "address",
              "name": "allowedAsset",
              "type": "address"
            },
            {
              "internalType": "contract IAgent",
              "name": "agent",
              "type": "address"
            }
          ],
          "name": "initialize",
          "outputs": [],
          "stateMutability": "nonpayable",
          "type": "function"
        },
        {
          "inputs": [],
          "name": "name",
          "outputs": [
            {
              "internalType": "string",
              "name": "",
              "type": "string"
            }
          ],
          "stateMutability": "view",
          "type": "function"
        },
        {
          "inputs": [],
          "name": "owner",
          "outputs": [
            {
              "internalType": "address",
              "name": "",
              "type": "address"
            }
          ],
          "stateMutability": "view",
          "type": "function"
        },
        {
          "inputs": [
            {
              "internalType": "uint256[]",
              "name": "allocations",
              "type": "uint256[]"
            }
          ],
          "name": "reallocate",
          "outputs": [],
          "stateMutability": "nonpayable",
          "type": "function"
        },
        {
          "inputs": [
            {
              "internalType": "contract IStrategy",
              "name": "strategyToRemove",
              "type": "address"
            }
          ],
          "name": "removeStrategy",
          "outputs": [],
          "stateMutability": "nonpayable",
          "type": "function"
        },
        {
          "inputs": [],
          "name": "renounceOwnership",
          "outputs": [],
          "stateMutability": "nonpayable",
          "type": "function"
        },
        {
          "inputs": [],
          "name": "symbol",
          "outputs": [
            {
              "internalType": "string",
              "name": "",
              "type": "string"
            }
          ],
          "stateMutability": "view",
          "type": "function"
        },
        {
          "inputs": [],
          "name": "totalSupply",
          "outputs": [
            {
              "internalType": "uint256",
              "name": "",
              "type": "uint256"
            }
          ],
          "stateMutability": "view",
          "type": "function"
        },
        {
          "inputs": [
            {
              "internalType": "address",
              "name": "to",
              "type": "address"
            },
            {
              "internalType": "uint256",
              "name": "value",
              "type": "uint256"
            }
          ],
          "name": "transfer",
          "outputs": [
            {
              "internalType": "bool",
              "name": "",
              "type": "bool"
            }
          ],
          "stateMutability": "nonpayable",
          "type": "function"
        },
        {
          "inputs": [
            {
              "internalType": "address",
              "name": "from",
              "type": "address"
            },
            {
              "internalType": "address",
              "name": "to",
              "type": "address"
            },
            {
              "internalType": "uint256",
              "name": "value",
              "type": "uint256"
            }
          ],
          "name": "transferFrom",
          "outputs": [
            {
              "internalType": "bool",
              "name": "",
              "type": "bool"
            }
          ],
          "stateMutability": "nonpayable",
          "type": "function"
        },
        {
          "inputs": [
            {
              "internalType": "address",
              "name": "newOwner",
              "type": "address"
            }
          ],
          "name": "transferOwnership",
          "outputs": [],
          "stateMutability": "nonpayable",
          "type": "function"
        },
        {
          "inputs": [
            {
              "internalType": "uint256",
              "name": "lpAmount",
              "type": "uint256"
            }
          ],
          "name": "withdraw",
          "outputs": [
            {
              "internalType": "uint256",
              "name": "amountScaled",
              "type": "uint256"
            }
          ],
          "stateMutability": "nonpayable",
          "type": "function"
        },
        {
          "inputs": [],
          "name": "withdrawAll",
          "outputs": [
            {
              "internalType": "uint256",
              "name": "amountScaled",
              "type": "uint256"
            }
          ],
          "stateMutability": "nonpayable",
          "type": "function"
        },
        {
          "inputs": [
            {
              "internalType": "contract IAccount",
              "name": "account",
              "type": "address"
            }
          ],
          "name": "withdrawAllToAccount",
          "outputs": [
            {
              "internalType": "uint256",
              "name": "amountScaled",
              "type": "uint256"
            }
          ],
          "stateMutability": "nonpayable",
          "type": "function"
        },
        {
          "inputs": [
            {
              "internalType": "uint256",
              "name": "lpAmount",
              "type": "uint256"
            },
            {
              "internalType": "contract IAccount",
              "name": "account",
              "type": "address"
            }
          ],
          "name": "withdrawToAccount",
          "outputs": [
            {
              "internalType": "uint256",
              "name": "amountScaled",
              "type": "uint256"
            }
          ],
          "stateMutability": "nonpayable",
          "type": "function"
        }
      ],
      "evm": {
        "bytecode": {
          "linkReferences": {},
          "object": "60808060405234601a576001600055612e2190816100208239f35b600080fdfe6080604052600436101561001257600080fd5b60003560e01c806306fdde0314612063578063095ea7b314611fbd5780630e02292314611f8057806312065fe014611f65578063175188e814611e1057806318160ddd14611dd3578063223e547914611c0657806323b872dd14611a6b5780632e1a7d4d14611a4d578063313ce56714611a315780634051ddac146119bc5780635c222bad146119955780636f7267b71461197157806370a082311461191a578063715018a614611874578063853828b61461181c5780638da5cb5b146117d65780638f15b414146111bb57806395d89b41146110a0578063a29b3c9014610ff9578063a49b5cb414610d5e578063a9059cbb14610d2d578063b49a60bb14610c61578063b6b55f2514610b63578063b76e07cc14610960578063c07e866e146104e2578063d389800f146104c9578063dd62ed3e1461044c578063ee6ce925146101c4578063f2fde38b146101995763f9cc06051461017157600080fd5b3461019457600036600319011261019457602061018c6128f2565b604051908152f35b600080fd5b34610194576020366003190112610194576101c26101b5612192565b6101bd612996565b612826565b005b346101945760203660031901126101945760043567ffffffffffffffff811161019457366023820112156101945780600401359067ffffffffffffffff8211610436578160051b6040519261021c60208301856121be565b8352602460208401918301019136831161019457602401905b8282106104265783610245612996565b6002548151036103e25760005b6002548110156102c8576001600160a01b0361026d82612271565b90549060031b1c1690610287610282836129f7565b61233e565b82518110156102b25760019160208260051b8501015190600052600360205260406000205501610252565b634e487b7160e01b600052603260045260246000fd5b6000806002545b8083106103a55761271082116103615760005b600254811015610359576001600160a01b036102fd82612271565b90549060031b1c1690813b156101945760008092600460405180958193630f8d564160e31b83525af191821561034d5760019261033c575b50016102e2565b6000610347916121be565b82610335565b6040513d6000823e3d90fd5b6101c26126c8565b606460405162461bcd60e51b815260206004820152601660248201527f416c6c6f636174696f6e2065786365656473206d6178000000000000000000006044820152fd5b906103d96001916001600160a01b036103bd86612271565b90549060031b1c1660005260036020526040600020549061228c565b920191906102cf565b606460405162461bcd60e51b815260206004820152601860248201527f4d69736d617463686564206172726179206c656e6774687300000000000000006044820152fd5b8135815260209182019101610235565b634e487b7160e01b600052604160045260246000fd5b3461019457604036600319011261019457610465612192565b6001600160a01b036104b16104786121a8565b926001600160a01b03166000527f52c63247e1f47db19d5ce0460030c497f067ca4cebf71ba98eeadabe20bace01602052604060002090565b91166000526020526020604060002054604051908152f35b34610194576000366003190112610194576101c26126c8565b34610194576020366003190112610194576104fb612192565b610503612996565b6001600160a01b03811690604051631127a41d60e31b8152602081600481865afa801561034d576001600160a01b0391600091610941575b50166000527f52c63247e1f47db19d5ce0460030c497f067ca4cebf71ba98eeadabe20bace00602052604060002054600091610575612996565b6001600160a01b036004541690813b156108495760405162f887cf60e81b81526001600160a01b03919091166004820152600260248201528381604481855afa8015610855578490610931575b505060405190630b37927d60e21b82526004820152602081602481875afa90811561075257906105f9918491610912575b5061267d565b61063561060d82610608612299565b612400565b7f52c63247e1f47db19d5ce0460030c497f067ca4cebf71ba98eeadabe20bace025490612413565b90604051631127a41d60e31b8152602081600481885afa9081156108555761066691839186916108e3575b50612b9c565b61066e6128f2565b82811061075d575b5050908181936001600160a01b036001541673eeeeeeeeeeeeeeeeeeeeeeeeeeeeeeeeeeeeeeee81146000146106dc575082809281928282156106d3575bf1156106c65760209150604051908152f35b50604051903d90823e3d90fd5b506108fc6106b4565b60405163a9059cbb60e01b81526001600160a01b0392909216600483015260248201929092529160209183916044918391905af180156107525760209350610725575b5061018c565b61074490833d851161074b575b61073c81836121be565b810190612442565b508261071f565b503d610732565b6040513d85823e3d90fd5b61076b908395949295612389565b9281935b6002548510806108da575b156108b1576001600160a01b0361079086612271565b90549060031b1c1660405163765ef2f360e11b8152602081600481855afa9081156108a65785929189918491610867575b5061060d602093926107d292612400565b848111610860575b6024906040519485938492632e1a7d4d60e01b845260048401525af190811561085557849161081e575b506108129061081892612389565b94612433565b9361076f565b90506020813d821161084d575b81610838602093836121be565b810103126108495751610818610804565b8380fd5b3d915061082b565b6040513d86823e3d90fd5b50836107da565b92935050506020813d821161089e575b81610884602093836121be565b8101031261089a5751849190889061060d6107c1565b8480fd5b3d9150610877565b6040513d87823e3d90fd5b509250925082906108c06128f2565b818111156108d357505b90919284610676565b90506108ca565b5080151561077a565b610905915060203d60201161090b575b6108fd81836121be565b8101906123e1565b87610660565b503d6108f3565b61092b915060203d60201161074b5761073c81836121be565b856105f3565b61093a916121be565b84836105c2565b61095a915060203d60201161090b576108fd81836121be565b8461053b565b34610194576040366003190112610194576109796121a8565b610981612996565b610989612c9b565b6000906001600160a01b0360045416803b15610b30576001600160a01b036040519262f887cf60e81b8452169182600482015260016024820152838082604481865afa80156106c657610b53575b505060405190630b37927d60e21b82526004820152602081602481855afa801561075257610a0b918491610b34575061267d565b610a13612299565b813b15610b30576040517fce8c42e80000000000000000000000000000000000000000000000000000000081526004356004820152838160248183875af18015610855579060049460209392610b20575b5050610a6e6126c8565b610a7f81610a7a612299565b612389565b907f52c63247e1f47db19d5ce0460030c497f067ca4cebf71ba98eeadabe20bace02548015600014610b08575050915b60405193848092631127a41d60e31b82525afa801561034d5781610ade91602094600091610aeb575b50612cd6565b6001600055604051908152f35b610b029150853d871161090b576108fd81836121be565b85610ad8565b610b1590610b1a93612400565b612413565b91610aaf565b610b29916121be565b8480610a64565b8280fd5b610b4d915060203d60201161074b5761073c81836121be565b846105f3565b610b5c916121be565b83836109d7565b3461019457602036600319011261019457610b7c612c9b565b6000610b86612299565b8160206001600160a01b03600154166064604051809481937f23b872dd00000000000000000000000000000000000000000000000000000000835233600484015230602484015260043560448401525af180156107525760209350610c46575b50610bef6126c8565b610bfb81610a7a612299565b907f52c63247e1f47db19d5ce0460030c497f067ca4cebf71ba98eeadabe20bace02548015600014610c345750505b610ade8133612cd6565b610b1590610c4193612400565b610c2a565b610c5c90833d851161074b5761073c81836121be565b610be6565b34610194576000366003190112610194576040518060206002549283815201809260026000527f405787fa12a823e0f2b7631cc41b3ba8828b3321ca811111fa75cd3aa3bb5ace9060005b818110610d0e5750505081610cc29103826121be565b6040519182916020830190602084525180915260408301919060005b818110610cec575050500390f35b82516001600160a01b0316845285945060209384019390920191600101610cde565b82546001600160a01b0316845260209093019260019283019201610cac565b3461019457604036600319011261019457610d53610d49612192565b6024359033612a45565b602060405160018152f35b3461019457604036600319011261019457600435610d7a6121a8565b90600090610d86612996565b6001600160a01b036004541692833b15610b305760405162f887cf60e81b81526001600160a01b0382166004820152600260248201528381604481885afa80156108555790846001600160a01b039392610fe9575b5050169260405190630b37927d60e21b82526004820152602081602481875afa9081156107525790610e13918491610912575061267d565b610e2261060d82610608612299565b90604051631127a41d60e31b8152602081600481885afa90811561085557610e5291839186916108e35750612b9c565b610e5a6128f2565b828110610eb0575050908181936001600160a01b036001541673eeeeeeeeeeeeeeeeeeeeeeeeeeeeeeeeeeeeeeee81146000146106dc575082809281928282156106d357f1156106c65760209150604051908152f35b610ebe908395949295612389565b9281935b600254851080610fe0575b156108b1576001600160a01b03610ee386612271565b90549060031b1c1660405163765ef2f360e11b8152602081600481855afa9081156108a65785929189918491610fa5575b5061060d60209392610f2592612400565b848111610f9e575b6024906040519485938492632e1a7d4d60e01b845260048401525af1908115610855578491610f6b575b5061081290610f6592612389565b93610ec2565b90506020813d8211610f96575b81610f85602093836121be565b810103126108495751610f65610f57565b3d9150610f78565b5083610f2d565b92935050506020813d8211610fd8575b81610fc2602093836121be565b8101031261089a5751849190889061060d610f14565b3d9150610fb5565b50801515610ecd565b610ff2916121be565b8584610ddb565b3461019457602036600319011261019457600460206001600160a01b036110208335612271565b90549060031b1c16604051928380927faffd80b00000000000000000000000000000000000000000000000000000000082525afa801561034d5760009061106d575b602090604051908152f35b506020813d602011611098575b81611087602093836121be565b810103126101945760209051611062565b3d915061107a565b346101945760003660031901126101945760405160007f52c63247e1f47db19d5ce0460030c497f067ca4cebf71ba98eeadabe20bace04546110e181612237565b80845290600181169081156111975750600114611119575b61111583611109818503826121be565b60405191829182612149565b0390f35b7f52c63247e1f47db19d5ce0460030c497f067ca4cebf71ba98eeadabe20bace0460009081527f46a2803e59a4de4e7a4c574b1243f25977ac4c77d5a1a4a609b5394cebb4a2aa939250905b80821061117d575090915081016020016111096110f9565b919260018160209254838588010152019101909291611165565b60ff191660208086019190915291151560051b8401909101915061110990506110f9565b346101945760803660031901126101945760043567ffffffffffffffff8111610194576111ec9036906004016121e0565b60243567ffffffffffffffff81116101945761120c9036906004016121e0565b906044356001600160a01b03811680910361019457606435906001600160a01b038216809203610194577ff0c57e16840df040f15088dc2f81fe391c3923bec73e23a9662efc9c229c6a00549260ff8460401c16159367ffffffffffffffff8116801590816117ce575b60011490816117c4575b1590816117bb575b506117915767ffffffffffffffff1981166001177ff0c57e16840df040f15088dc2f81fe391c3923bec73e23a9662efc9c229c6a005584611752575b506112cd612d92565b6112d5612d92565b6112dd612d92565b6112e683612826565b6112ee612d92565b6112f6612d92565b80519067ffffffffffffffff82116104365781906113347f52c63247e1f47db19d5ce0460030c497f067ca4cebf71ba98eeadabe20bace0354612237565b601f81116116c3575b50602090601f831160011461161d57600092611612575b50508160011b916000199060031b1c1916177f52c63247e1f47db19d5ce0460030c497f067ca4cebf71ba98eeadabe20bace03555b835167ffffffffffffffff8111610436576113c47f52c63247e1f47db19d5ce0460030c497f067ca4cebf71ba98eeadabe20bace0454612237565b601f811161158e575b50602094601f82116001146114e9579481929394956000926114de575b50508160011b916000199060031b1c1916177f52c63247e1f47db19d5ce0460030c497f067ca4cebf71ba98eeadabe20bace04555b73ffffffffffffffffffffffffffffffffffffffff19600154161760015573ffffffffffffffffffffffffffffffffffffffff19600454161760045561146157005b68ff0000000000000000197ff0c57e16840df040f15088dc2f81fe391c3923bec73e23a9662efc9c229c6a0054167ff0c57e16840df040f15088dc2f81fe391c3923bec73e23a9662efc9c229c6a00557fc7f505b2f371ae2175ee4913f4499e1f2633a7b5936321eed1cdaeb6115181d2602060405160018152a1005b0151905085806113ea565b601f198216957f52c63247e1f47db19d5ce0460030c497f067ca4cebf71ba98eeadabe20bace04600052806000209160005b8881106115765750836001959697981061155d575b505050811b017f52c63247e1f47db19d5ce0460030c497f067ca4cebf71ba98eeadabe20bace045561141f565b015160001960f88460031b161c19169055858080611530565b9192602060018192868501518155019401920161151b565b7f52c63247e1f47db19d5ce0460030c497f067ca4cebf71ba98eeadabe20bace046000527f46a2803e59a4de4e7a4c574b1243f25977ac4c77d5a1a4a609b5394cebb4a2aa601f830160051c81019160208410611608575b601f0160051c01905b8181106115fc57506113cd565b600081556001016115ef565b90915081906115e6565b015190508680611354565b7f52c63247e1f47db19d5ce0460030c497f067ca4cebf71ba98eeadabe20bace0360009081528281209350601f198516905b8181106116ab5750908460019594939210611692575b505050811b017f52c63247e1f47db19d5ce0460030c497f067ca4cebf71ba98eeadabe20bace0355611389565b015160001960f88460031b161c19169055868080611665565b9293602060018192878601518155019501930161164f565b7f52c63247e1f47db19d5ce0460030c497f067ca4cebf71ba98eeadabe20bace036000529091507f2ae08a8e29253f69ac5d979a101956ab8f8d9d7ded63fa7a83b16fc47648eab0601f840160051c81019160208510611748575b90601f859493920160051c01905b818110611739575061133d565b6000815584935060010161172c565b909150819061171e565b68ffffffffffffffffff191668010000000000000001177ff0c57e16840df040f15088dc2f81fe391c3923bec73e23a9662efc9c229c6a0055856112c4565b7ff92ee8a90000000000000000000000000000000000000000000000000000000060005260046000fd5b90501587611288565b303b159150611280565b869150611276565b346101945760003660031901126101945760206001600160a01b037f9016d09d72d40fdae2fd8ceac6b6234c7706214fd39c1cd1e609a0528c1993005416604051908152f35b3461019457600036600319011261019457602061018c61186f336001600160a01b03166000527f52c63247e1f47db19d5ce0460030c497f067ca4cebf71ba98eeadabe20bace0060205260406000205490565b61245a565b346101945760003660031901126101945761188d612996565b60006001600160a01b037f9016d09d72d40fdae2fd8ceac6b6234c7706214fd39c1cd1e609a0528c1993005473ffffffffffffffffffffffffffffffffffffffff1981167f9016d09d72d40fdae2fd8ceac6b6234c7706214fd39c1cd1e609a0528c19930055167f8be0079c531659141344cd1fd0a4f28419497f9722a3daafe3b4186f6b6457e08280a3005b3461019457602036600319011261019457602061018c611938612192565b6001600160a01b03166000527f52c63247e1f47db19d5ce0460030c497f067ca4cebf71ba98eeadabe20bace0060205260406000205490565b3461019457602036600319011261019457602061018c61060d600435610608612299565b346101945760003660031901126101945760206001600160a01b0360015416604051908152f35b34610194576000366003190112610194576000806002545b808210611a10578280612710039061271082116119fa5760409182519182526020820152f35b634e487b7160e01b600052601160045260246000fd5b9091611a296001916001600160a01b036103bd86612271565b9201906119d4565b3461019457600036600319011261019457602060405160128152f35b3461019457602036600319011261019457602061018c60043561245a565b3461019457606036600319011261019457611a84612192565b611a8c6121a8565b60443590611acc836001600160a01b03166000527f52c63247e1f47db19d5ce0460030c497f067ca4cebf71ba98eeadabe20bace01602052604060002090565b6001600160a01b033316600052602052604060002054926000198410611af7575b610d539350612a45565b828410611bd0576001600160a01b03811615611ba1573315611b7257610d5393611b53826001600160a01b03166000527f52c63247e1f47db19d5ce0460030c497f067ca4cebf71ba98eeadabe20bace01602052604060002090565b6001600160a01b03331660005260205283604060002091039055611aed565b7f94280d6200000000000000000000000000000000000000000000000000000000600052600060045260246000fd5b7fe602df0500000000000000000000000000000000000000000000000000000000600052600060045260246000fd5b82847ffb8f41b2000000000000000000000000000000000000000000000000000000006000523360045260245260445260646000fd5b34610194576020366003190112610194576004356001600160a01b03811680820361019457611c33612996565b611c3e811515612396565b611c47826129f7565b611d8f576040517f8d928af8000000000000000000000000000000000000000000000000000000008152602081600481855afa801561034d576001600160a01b0391600091611d70575b501630149081611ced575b50611ca690612396565b600254906801000000000000000082101561043657611cce8260016101c29401600255612271565b9091906001600160a01b038084549260031b9316831b921b1916179055565b6004915060206001600160a01b036001541691604051938480927f5c222bad0000000000000000000000000000000000000000000000000000000082525afa91821561034d57611ca6926001600160a01b0391600091611d51575b50161490611c9c565b611d6a915060203d60201161090b576108fd81836121be565b85611d48565b611d89915060203d60201161090b576108fd81836121be565b84611c91565b606460405162461bcd60e51b815260206004820152601760248201527f537472617465677920616c7265616479206578697374730000000000000000006044820152fd5b346101945760003660031901126101945760207f52c63247e1f47db19d5ce0460030c497f067ca4cebf71ba98eeadabe20bace0254604051908152f35b34610194576020366003190112610194576004356001600160a01b0381169081810361019457610282611e4a91611e45612996565b6129f7565b60025460005b818110611e5957005b826001600160a01b03611e6b83612271565b90549060031b1c1614611e8057600101611e50565b6001600160a01b03611e9182612271565b90549060031b1c16803b156101945760008091600460405180948193630f8d564160e31b83525af1801561034d57611f54575b50611ecd6126c8565b60001982019182116119fa57611cce6001600160a01b03611ef0611efe94612271565b90549060031b1c1691612271565b6002548015611f3e5760001901611f1481612271565b6001600160a01b0382549160031b1b19169055600255600052600360205260006040812055600080f35b634e487b7160e01b600052603160045260246000fd5b6000611f5f916121be565b83611ec4565b3461019457600036600319011261019457602061018c612299565b34610194576020366003190112610194576004356001600160a01b0381168091036101945760005260036020526020604060002054604051908152f35b3461019457604036600319011261019457611fd6612192565b602435903315611ba1576001600160a01b0316908115611b72573360009081527f52c63247e1f47db19d5ce0460030c497f067ca4cebf71ba98eeadabe20bace016020526040902082600052602052806040600020556040519081527f8c5be1e5ebec7d5bd14f71427d1e84f3dd0314c0f7b2291e5b200ac8c7c3b92560203392a3602060405160018152f35b346101945760003660031901126101945760405160007f52c63247e1f47db19d5ce0460030c497f067ca4cebf71ba98eeadabe20bace03546120a481612237565b808452906001811690811561119757506001146120cb5761111583611109818503826121be565b7f52c63247e1f47db19d5ce0460030c497f067ca4cebf71ba98eeadabe20bace0360009081527f2ae08a8e29253f69ac5d979a101956ab8f8d9d7ded63fa7a83b16fc47648eab0939250905b80821061212f575090915081016020016111096110f9565b919260018160209254838588010152019101909291612117565b91909160208152825180602083015260005b81811061217c575060409293506000838284010152601f8019910116010190565b806020809287010151604082860101520161215b565b600435906001600160a01b038216820361019457565b602435906001600160a01b038216820361019457565b90601f8019910116810190811067ffffffffffffffff82111761043657604052565b81601f820112156101945780359067ffffffffffffffff82116104365760405192612215601f8401601f1916602001856121be565b8284526020838301011161019457816000926020809301838601378301015290565b90600182811c92168015612267575b602083101461225157565b634e487b7160e01b600052602260045260246000fd5b91607f1691612246565b6002548110156102b257600260005260206000200190600090565b919082018092116119fa57565b6122a16128f2565b9060006002545b8082106122b3575050565b9092600460206001600160a01b036122ca87612271565b90549060031b1c166040519283809263765ef2f360e11b82525afa90811561034d57600091612309575b506123019060019261228c565b9301906122a8565b906020823d8211612336575b81612322602093836121be565b8101031261233357505160016122f4565b80fd5b3d9150612315565b1561234557565b606460405162461bcd60e51b815260206004820152601260248201527f5374726174656779206e6f7420666f756e6400000000000000000000000000006044820152fd5b919082039182116119fa57565b1561239d57565b606460405162461bcd60e51b815260206004820152601060248201527f496e76616c6964207374726174656779000000000000000000000000000000006044820152fd5b9081602091031261019457516001600160a01b03811681036101945790565b818102929181159184041417156119fa57565b811561241d570490565b634e487b7160e01b600052601260045260246000fd5b60001981146119fa5760010190565b90816020910312610194575180151581036101945790565b61246961060d82610608612299565b906124748133612b9c565b61247c6128f2565b828110612528575b5050906001600160a01b036001541673eeeeeeeeeeeeeeeeeeeeeeeeeeeeeeeeeeeeeeee81146000146124d6575081600081156124cd575b600080809381933390f11561034d57565b506108fc6124bc565b60405163a9059cbb60e01b81523360048201526024810184905290602090829060449082906000905af1801561034d5761250d5750565b6125259060203d60201161074b5761073c81836121be565b50565b6125329083612389565b926000935b600254851080612674575b15612650576001600160a01b0361255886612271565b90549060031b1c1660405163765ef2f360e11b8152602081600481855afa801561034d57859160009161261a575b509161259961060d602093600095612400565b848111612613575b6024906040519485938492632e1a7d4d60e01b845260048401525af190811561034d576000916125e0575b50610812906125da92612389565b93612537565b906020823d821161260b575b816125f9602093836121be565b810103126123335750516125da6125cc565b3d91506125ec565b50836125a1565b91506020823d8211612648575b81612634602093836121be565b810103126123335750518490612599612586565b3d9150612627565b5092505061265c6128f2565b8181111561266d57505b3880612484565b9050612666565b50801515612542565b1561268457565b606460405162461bcd60e51b815260206004820152600e60248201527f4e6f7420617574686f72697a65640000000000000000000000000000000000006044820152fd5b6126d06128f2565b9060005b600254811015612821576001600160a01b036126ef82612271565b90549060031b1c169081600052600360205261271061271360406000205486612400565b048015612817576000906001600160a01b036001541673eeeeeeeeeeeeeeeeeeeeeeeeeeeeeeeeeeeeeeee811483146127b55750818080928682f11561034d575b813b1561019457600080926004604051809581937fd0e30db00000000000000000000000000000000000000000000000000000000083525af191821561034d576001926127a4575b505b016126d4565b60006127af916121be565b3861279c565b60405163a9059cbb60e01b81526001600160a01b03861660048201526024810192909252909160209183916044918391905af1801561034d576127f9575b50612754565b6128109060203d811161074b5761073c81836121be565b50386127f3565b506001915061279e565b509050565b6001600160a01b031680156128c3576001600160a01b037f9016d09d72d40fdae2fd8ceac6b6234c7706214fd39c1cd1e609a0528c199300548273ffffffffffffffffffffffffffffffffffffffff198216177f9016d09d72d40fdae2fd8ceac6b6234c7706214fd39c1cd1e609a0528c19930055167f8be0079c531659141344cd1fd0a4f28419497f9722a3daafe3b4186f6b6457e0600080a3565b7f1e4fbdf700000000000000000000000000000000000000000000000000000000600052600060045260246000fd5b6001546001600160a01b031673eeeeeeeeeeeeeeeeeeeeeeeeeeeeeeeeeeeeeeee810361291e57504790565b6020602491604051928380927f70a082310000000000000000000000000000000000000000000000000000000082523060048301525afa90811561034d57600091612967575090565b90506020813d60201161298e575b81612982602093836121be565b81010312610194575190565b3d9150612975565b6001600160a01b037f9016d09d72d40fdae2fd8ceac6b6234c7706214fd39c1cd1e609a0528c199300541633036129c957565b7f118cdaa7000000000000000000000000000000000000000000000000000000006000523360045260246000fd5b6002549060005b828110612a0d57505050600090565b6001600160a01b03612a1e82612271565b90549060031b1c166001600160a01b03831614612a3d576001016129fe565b505050600190565b6001600160a01b0316908115612b6d576001600160a01b0316918215612b3e5760008281527f52c63247e1f47db19d5ce0460030c497f067ca4cebf71ba98eeadabe20bace006020526040812054828110612b245791604082827fddf252ad1be2c89b69c2b068fc378daa952ba7f163c4a11628f55a4df523b3ef9587602096527f52c63247e1f47db19d5ce0460030c497f067ca4cebf71ba98eeadabe20bace00865203828220558681527f52c63247e1f47db19d5ce0460030c497f067ca4cebf71ba98eeadabe20bace00845220818154019055604051908152a3565b60649363391434e360e21b83949352600452602452604452fd5b7fec442f0500000000000000000000000000000000000000000000000000000000600052600060045260246000fd5b7f96c6fd1e00000000000000000000000000000000000000000000000000000000600052600060045260246000fd5b6001600160a01b03168015612b6d576000918183527f52c63247e1f47db19d5ce0460030c497f067ca4cebf71ba98eeadabe20bace006020526040832054818110612c8257817fddf252ad1be2c89b69c2b068fc378daa952ba7f163c4a11628f55a4df523b3ef926020928587527f52c63247e1f47db19d5ce0460030c497f067ca4cebf71ba98eeadabe20bace008452036040862055807f52c63247e1f47db19d5ce0460030c497f067ca4cebf71ba98eeadabe20bace0254037f52c63247e1f47db19d5ce0460030c497f067ca4cebf71ba98eeadabe20bace0255604051908152a3565b839263391434e360e21b60649552600452602452604452fd5b600260005414612cac576002600055565b7f3ee5aeb50000000000000000000000000000000000000000000000000000000060005260046000fd5b6001600160a01b0316908115612b3e577fddf252ad1be2c89b69c2b068fc378daa952ba7f163c4a11628f55a4df523b3ef602082612d376000947f52c63247e1f47db19d5ce0460030c497f067ca4cebf71ba98eeadabe20bace025461228c565b7f52c63247e1f47db19d5ce0460030c497f067ca4cebf71ba98eeadabe20bace02558484527f52c63247e1f47db19d5ce0460030c497f067ca4cebf71ba98eeadabe20bace00825260408420818154019055604051908152a3565b60ff7ff0c57e16840df040f15088dc2f81fe391c3923bec73e23a9662efc9c229c6a005460401c1615612dc157565b7fd7e6bcf80000000000000000000000000000000000000000000000000000000060005260046000fdfea2646970667358221220da0059e33541b43fc12b2cad2fddf9ec7d1266c157d7900ed36db1df0e72017b64736f6c634300081c0033",
          "opcodes": "PUSH1 0x80 DUP1 PUSH1 0x40 MSTORE CALLVALUE PUSH1 0x1A JUMPI PUSH1 0x1 PUSH1 0x0 SSTORE PUSH2 0x2E21 SWAP1 DUP2 PUSH2 0x20 DUP3 CODECOPY RETURN JUMPDEST PUSH1 0x0 DUP1 REVERT INVALID PUSH1 0x80 PUSH1 0x40 MSTORE PUSH1 0x4 CALLDATASIZE LT ISZERO PUSH2 0x12 JUMPI PUSH1 0x0 DUP1 REVERT JUMPDEST PUSH1 0x0 CALLDATALOAD PUSH1 0xE0 SHR DUP1 PUSH4 0x6FDDE03 EQ PUSH2 0x2063 JUMPI DUP1 PUSH4 0x95EA7B3 EQ PUSH2 0x1FBD JUMPI DUP1 PUSH4 0xE022923 EQ PUSH2 0x1F80 JUMPI DUP1 PUSH4 0x12065FE0 EQ PUSH2 0x1F65 JUMPI DUP1 PUSH4 0x175188E8 EQ PUSH2 0x1E10 JUMPI DUP1 PUSH4 0x18160DDD EQ PUSH2 0x1DD3 JUMPI DUP1 PUSH4 0x223E5479 EQ PUSH2 0x1C06 JUMPI DUP1 PUSH4 0x23B872DD EQ PUSH2 0x1A6B JUMPI DUP1 PUSH4 0x2E1A7D4D EQ PUSH2 0x1A4D JUMPI DUP1 PUSH4 0x313CE567 EQ PUSH2 0x1A31 JUMPI DUP1 PUSH4 0x4051DDAC EQ PUSH2 0x19BC JUMPI DUP1 PUSH4 0x5C222BAD EQ PUSH2 0x1995 JUMPI DUP1 PUSH4 0x6F7267B7 EQ PUSH2 0x1971 JUMPI DUP1 PUSH4 0x70A08231 EQ PUSH2 0x191A JUMPI DUP1 PUSH4 0x715018A6 EQ PUSH2 0x1874 JUMPI DUP1 PUSH4 0x853828B6 EQ PUSH2 0x181C JUMPI DUP1 PUSH4 0x8DA5CB5B EQ PUSH2 0x17D6 JUMPI DUP1 PUSH4 0x8F15B414 EQ PUSH2 0x11BB JUMPI DUP1 PUSH4 0x95D89B41 EQ PUSH2 0x10A0 JUMPI DUP1 PUSH4 0xA29B3C90 EQ PUSH2 0xFF9 JUMPI DUP1 PUSH4 0xA49B5CB4 EQ PUSH2 0xD5E JUMPI DUP1 PUSH4 0xA9059CBB EQ PUSH2 0xD2D JUMPI DUP1 PUSH4 0xB49A60BB EQ PUSH2 0xC61 JUMPI DUP1 PUSH4 0xB6B55F25 EQ PUSH2 0xB63 JUMPI DUP1 PUSH4 0xB76E07CC EQ PUSH2 0x960 JUMPI DUP1 PUSH4 0xC07E866E EQ PUSH2 0x4E2 JUMPI DUP1 PUSH4 0xD389800F EQ PUSH2 0x4C9 JUMPI DUP1 PUSH4 0xDD62ED3E EQ PUSH2 0x44C JUMPI DUP1 PUSH4 0xEE6CE925 EQ PUSH2 0x1C4 JUMPI DUP1 PUSH4 0xF2FDE38B EQ PUSH2 0x199 JUMPI PUSH4 0xF9CC0605 EQ PUSH2 0x171 JUMPI PUSH1 0x0 DUP1 REVERT JUMPDEST CALLVALUE PUSH2 0x194 JUMPI PUSH1 0x0 CALLDATASIZE PUSH1 0x3 NOT ADD SLT PUSH2 0x194 JUMPI PUSH1 0x20 PUSH2 0x18C PUSH2 0x28F2 JUMP JUMPDEST PUSH1 0x40 MLOAD SWAP1 DUP2 MSTORE RETURN JUMPDEST PUSH1 0x0 DUP1 REVERT JUMPDEST CALLVALUE PUSH2 0x194 JUMPI PUSH1 0x20 CALLDATASIZE PUSH1 0x3 NOT ADD SLT PUSH2 0x194 JUMPI PUSH2 0x1C2 PUSH2 0x1B5 PUSH2 0x2192 JUMP JUMPDEST PUSH2 0x1BD PUSH2 0x2996 JUMP JUMPDEST PUSH2 0x2826 JUMP JUMPDEST STOP JUMPDEST CALLVALUE PUSH2 0x194 JUMPI PUSH1 0x20 CALLDATASIZE PUSH1 0x3 NOT ADD SLT PUSH2 0x194 JUMPI PUSH1 0x4 CALLDATALOAD PUSH8 0xFFFFFFFFFFFFFFFF DUP2 GT PUSH2 0x194 JUMPI CALLDATASIZE PUSH1 0x23 DUP3 ADD SLT ISZERO PUSH2 0x194 JUMPI DUP1 PUSH1 0x4 ADD CALLDATALOAD SWAP1 PUSH8 0xFFFFFFFFFFFFFFFF DUP3 GT PUSH2 0x436 JUMPI DUP2 PUSH1 0x5 SHL PUSH1 0x40 MLOAD SWAP3 PUSH2 0x21C PUSH1 0x20 DUP4 ADD DUP6 PUSH2 0x21BE JUMP JUMPDEST DUP4 MSTORE PUSH1 0x24 PUSH1 0x20 DUP5 ADD SWAP2 DUP4 ADD ADD SWAP2 CALLDATASIZE DUP4 GT PUSH2 0x194 JUMPI PUSH1 0x24 ADD SWAP1 JUMPDEST DUP3 DUP3 LT PUSH2 0x426 JUMPI DUP4 PUSH2 0x245 PUSH2 0x2996 JUMP JUMPDEST PUSH1 0x2 SLOAD DUP2 MLOAD SUB PUSH2 0x3E2 JUMPI PUSH1 0x0 JUMPDEST PUSH1 0x2 SLOAD DUP2 LT ISZERO PUSH2 0x2C8 JUMPI PUSH1 0x1 PUSH1 0x1 PUSH1 0xA0 SHL SUB PUSH2 0x26D DUP3 PUSH2 0x2271 JUMP JUMPDEST SWAP1 SLOAD SWAP1 PUSH1 0x3 SHL SHR AND SWAP1 PUSH2 0x287 PUSH2 0x282 DUP4 PUSH2 0x29F7 JUMP JUMPDEST PUSH2 0x233E JUMP JUMPDEST DUP3 MLOAD DUP2 LT ISZERO PUSH2 0x2B2 JUMPI PUSH1 0x1 SWAP2 PUSH1 0x20 DUP3 PUSH1 0x5 SHL DUP6 ADD ADD MLOAD SWAP1 PUSH1 0x0 MSTORE PUSH1 0x3 PUSH1 0x20 MSTORE PUSH1 0x40 PUSH1 0x0 KECCAK256 SSTORE ADD PUSH2 0x252 JUMP JUMPDEST PUSH4 0x4E487B71 PUSH1 0xE0 SHL PUSH1 0x0 MSTORE PUSH1 0x32 PUSH1 0x4 MSTORE PUSH1 0x24 PUSH1 0x0 REVERT JUMPDEST PUSH1 0x0 DUP1 PUSH1 0x2 SLOAD JUMPDEST DUP1 DUP4 LT PUSH2 0x3A5 JUMPI PUSH2 0x2710 DUP3 GT PUSH2 0x361 JUMPI PUSH1 0x0 JUMPDEST PUSH1 0x2 SLOAD DUP2 LT ISZERO PUSH2 0x359 JUMPI PUSH1 0x1 PUSH1 0x1 PUSH1 0xA0 SHL SUB PUSH2 0x2FD DUP3 PUSH2 0x2271 JUMP JUMPDEST SWAP1 SLOAD SWAP1 PUSH1 0x3 SHL SHR AND SWAP1 DUP2 EXTCODESIZE ISZERO PUSH2 0x194 JUMPI PUSH1 0x0 DUP1 SWAP3 PUSH1 0x4 PUSH1 0x40 MLOAD DUP1 SWAP6 DUP2 SWAP4 PUSH4 0xF8D5641 PUSH1 0xE3 SHL DUP4 MSTORE GAS CALL SWAP2 DUP3 ISZERO PUSH2 0x34D JUMPI PUSH1 0x1 SWAP3 PUSH2 0x33C JUMPI JUMPDEST POP ADD PUSH2 0x2E2 JUMP JUMPDEST PUSH1 0x0 PUSH2 0x347 SWAP2 PUSH2 0x21BE JUMP JUMPDEST DUP3 PUSH2 0x335 JUMP JUMPDEST PUSH1 0x40 MLOAD RETURNDATASIZE PUSH1 0x0 DUP3 RETURNDATACOPY RETURNDATASIZE SWAP1 REVERT JUMPDEST PUSH2 0x1C2 PUSH2 0x26C8 JUMP JUMPDEST PUSH1 0x64 PUSH1 0x40 MLOAD PUSH3 0x461BCD PUSH1 0xE5 SHL DUP2 MSTORE PUSH1 0x20 PUSH1 0x4 DUP3 ADD MSTORE PUSH1 0x16 PUSH1 0x24 DUP3 ADD MSTORE PUSH32 0x416C6C6F636174696F6E2065786365656473206D617800000000000000000000 PUSH1 0x44 DUP3 ADD MSTORE REVERT JUMPDEST SWAP1 PUSH2 0x3D9 PUSH1 0x1 SWAP2 PUSH1 0x1 PUSH1 0x1 PUSH1 0xA0 SHL SUB PUSH2 0x3BD DUP7 PUSH2 0x2271 JUMP JUMPDEST SWAP1 SLOAD SWAP1 PUSH1 0x3 SHL SHR AND PUSH1 0x0 MSTORE PUSH1 0x3 PUSH1 0x20 MSTORE PUSH1 0x40 PUSH1 0x0 KECCAK256 SLOAD SWAP1 PUSH2 0x228C JUMP JUMPDEST SWAP3 ADD SWAP2 SWAP1 PUSH2 0x2CF JUMP JUMPDEST PUSH1 0x64 PUSH1 0x40 MLOAD PUSH3 0x461BCD PUSH1 0xE5 SHL DUP2 MSTORE PUSH1 0x20 PUSH1 0x4 DUP3 ADD MSTORE PUSH1 0x18 PUSH1 0x24 DUP3 ADD MSTORE PUSH32 0x4D69736D617463686564206172726179206C656E677468730000000000000000 PUSH1 0x44 DUP3 ADD MSTORE REVERT JUMPDEST DUP2 CALLDATALOAD DUP2 MSTORE PUSH1 0x20 SWAP2 DUP3 ADD SWAP2 ADD PUSH2 0x235 JUMP JUMPDEST PUSH4 0x4E487B71 PUSH1 0xE0 SHL PUSH1 0x0 MSTORE PUSH1 0x41 PUSH1 0x4 MSTORE PUSH1 0x24 PUSH1 0x0 REVERT JUMPDEST CALLVALUE PUSH2 0x194 JUMPI PUSH1 0x40 CALLDATASIZE PUSH1 0x3 NOT ADD SLT PUSH2 0x194 JUMPI PUSH2 0x465 PUSH2 0x2192 JUMP JUMPDEST PUSH1 0x1 PUSH1 0x1 PUSH1 0xA0 SHL SUB PUSH2 0x4B1 PUSH2 0x478 PUSH2 0x21A8 JUMP JUMPDEST SWAP3 PUSH1 0x1 PUSH1 0x1 PUSH1 0xA0 SHL SUB AND PUSH1 0x0 MSTORE PUSH32 0x52C63247E1F47DB19D5CE0460030C497F067CA4CEBF71BA98EEADABE20BACE01 PUSH1 0x20 MSTORE PUSH1 0x40 PUSH1 0x0 KECCAK256 SWAP1 JUMP JUMPDEST SWAP2 AND PUSH1 0x0 MSTORE PUSH1 0x20 MSTORE PUSH1 0x20 PUSH1 0x40 PUSH1 0x0 KECCAK256 SLOAD PUSH1 0x40 MLOAD SWAP1 DUP2 MSTORE RETURN JUMPDEST CALLVALUE PUSH2 0x194 JUMPI PUSH1 0x0 CALLDATASIZE PUSH1 0x3 NOT ADD SLT PUSH2 0x194 JUMPI PUSH2 0x1C2 PUSH2 0x26C8 JUMP JUMPDEST CALLVALUE PUSH2 0x194 JUMPI PUSH1 0x20 CALLDATASIZE PUSH1 0x3 NOT ADD SLT PUSH2 0x194 JUMPI PUSH2 0x4FB PUSH2 0x2192 JUMP JUMPDEST PUSH2 0x503 PUSH2 0x2996 JUMP JUMPDEST PUSH1 0x1 PUSH1 0x1 PUSH1 0xA0 SHL SUB DUP2 AND SWAP1 PUSH1 0x40 MLOAD PUSH4 0x1127A41D PUSH1 0xE3 SHL DUP2 MSTORE PUSH1 0x20 DUP2 PUSH1 0x4 DUP2 DUP7 GAS STATICCALL DUP1 ISZERO PUSH2 0x34D JUMPI PUSH1 0x1 PUSH1 0x1 PUSH1 0xA0 SHL SUB SWAP2 PUSH1 0x0 SWAP2 PUSH2 0x941 JUMPI JUMPDEST POP AND PUSH1 0x0 MSTORE PUSH32 0x52C63247E1F47DB19D5CE0460030C497F067CA4CEBF71BA98EEADABE20BACE00 PUSH1 0x20 MSTORE PUSH1 0x40 PUSH1 0x0 KECCAK256 SLOAD PUSH1 0x0 SWAP2 PUSH2 0x575 PUSH2 0x2996 JUMP JUMPDEST PUSH1 0x1 PUSH1 0x1 PUSH1 0xA0 SHL SUB PUSH1 0x4 SLOAD AND SWAP1 DUP2 EXTCODESIZE ISZERO PUSH2 0x849 JUMPI PUSH1 0x40 MLOAD PUSH3 0xF887CF PUSH1 0xE8 SHL DUP2 MSTORE PUSH1 0x1 PUSH1 0x1 PUSH1 0xA0 SHL SUB SWAP2 SWAP1 SWAP2 AND PUSH1 0x4 DUP3 ADD MSTORE PUSH1 0x2 PUSH1 0x24 DUP3 ADD MSTORE DUP4 DUP2 PUSH1 0x44 DUP2 DUP6 GAS STATICCALL DUP1 ISZERO PUSH2 0x855 JUMPI DUP5 SWAP1 PUSH2 0x931 JUMPI JUMPDEST POP POP PUSH1 0x40 MLOAD SWAP1 PUSH4 0xB37927D PUSH1 0xE2 SHL DUP3 MSTORE PUSH1 0x4 DUP3 ADD MSTORE PUSH1 0x20 DUP2 PUSH1 0x24 DUP2 DUP8 GAS STATICCALL SWAP1 DUP2 ISZERO PUSH2 0x752 JUMPI SWAP1 PUSH2 0x5F9 SWAP2 DUP5 SWAP2 PUSH2 0x912 JUMPI JUMPDEST POP PUSH2 0x267D JUMP JUMPDEST PUSH2 0x635 PUSH2 0x60D DUP3 PUSH2 0x608 PUSH2 0x2299 JUMP JUMPDEST PUSH2 0x2400 JUMP JUMPDEST PUSH32 0x52C63247E1F47DB19D5CE0460030C497F067CA4CEBF71BA98EEADABE20BACE02 SLOAD SWAP1 PUSH2 0x2413 JUMP JUMPDEST SWAP1 PUSH1 0x40 MLOAD PUSH4 0x1127A41D PUSH1 0xE3 SHL DUP2 MSTORE PUSH1 0x20 DUP2 PUSH1 0x4 DUP2 DUP9 GAS STATICCALL SWAP1 DUP2 ISZERO PUSH2 0x855 JUMPI PUSH2 0x666 SWAP2 DUP4 SWAP2 DUP7 SWAP2 PUSH2 0x8E3 JUMPI JUMPDEST POP PUSH2 0x2B9C JUMP JUMPDEST PUSH2 0x66E PUSH2 0x28F2 JUMP JUMPDEST DUP3 DUP2 LT PUSH2 0x75D JUMPI JUMPDEST POP POP SWAP1 DUP2 DUP2 SWAP4 PUSH1 0x1 PUSH1 0x1 PUSH1 0xA0 SHL SUB PUSH1 0x1 SLOAD AND PUSH20 0xEEEEEEEEEEEEEEEEEEEEEEEEEEEEEEEEEEEEEEEE DUP2 EQ PUSH1 0x0 EQ PUSH2 0x6DC JUMPI POP DUP3 DUP1 SWAP3 DUP2 SWAP3 DUP3 DUP3 ISZERO PUSH2 0x6D3 JUMPI JUMPDEST CALL ISZERO PUSH2 0x6C6 JUMPI PUSH1 0x20 SWAP2 POP PUSH1 0x40 MLOAD SWAP1 DUP2 MSTORE RETURN JUMPDEST POP PUSH1 0x40 MLOAD SWAP1 RETURNDATASIZE SWAP1 DUP3 RETURNDATACOPY RETURNDATASIZE SWAP1 REVERT JUMPDEST POP PUSH2 0x8FC PUSH2 0x6B4 JUMP JUMPDEST PUSH1 0x40 MLOAD PUSH4 0xA9059CBB PUSH1 0xE0 SHL DUP2 MSTORE PUSH1 0x1 PUSH1 0x1 PUSH1 0xA0 SHL SUB SWAP3 SWAP1 SWAP3 AND PUSH1 0x4 DUP4 ADD MSTORE PUSH1 0x24 DUP3 ADD SWAP3 SWAP1 SWAP3 MSTORE SWAP2 PUSH1 0x20 SWAP2 DUP4 SWAP2 PUSH1 0x44 SWAP2 DUP4 SWAP2 SWAP1 GAS CALL DUP1 ISZERO PUSH2 0x752 JUMPI PUSH1 0x20 SWAP4 POP PUSH2 0x725 JUMPI JUMPDEST POP PUSH2 0x18C JUMP JUMPDEST PUSH2 0x744 SWAP1 DUP4 RETURNDATASIZE DUP6 GT PUSH2 0x74B JUMPI JUMPDEST PUSH2 0x73C DUP2 DUP4 PUSH2 0x21BE JUMP JUMPDEST DUP2 ADD SWAP1 PUSH2 0x2442 JUMP JUMPDEST POP DUP3 PUSH2 0x71F JUMP JUMPDEST POP RETURNDATASIZE PUSH2 0x732 JUMP JUMPDEST PUSH1 0x40 MLOAD RETURNDATASIZE DUP6 DUP3 RETURNDATACOPY RETURNDATASIZE SWAP1 REVERT JUMPDEST PUSH2 0x76B SWAP1 DUP4 SWAP6 SWAP5 SWAP3 SWAP6 PUSH2 0x2389 JUMP JUMPDEST SWAP3 DUP2 SWAP4 JUMPDEST PUSH1 0x2 SLOAD DUP6 LT DUP1 PUSH2 0x8DA JUMPI JUMPDEST ISZERO PUSH2 0x8B1 JUMPI PUSH1 0x1 PUSH1 0x1 PUSH1 0xA0 SHL SUB PUSH2 0x790 DUP7 PUSH2 0x2271 JUMP JUMPDEST SWAP1 SLOAD SWAP1 PUSH1 0x3 SHL SHR AND PUSH1 0x40 MLOAD PUSH4 0x765EF2F3 PUSH1 0xE1 SHL DUP2 MSTORE PUSH1 0x20 DUP2 PUSH1 0x4 DUP2 DUP6 GAS STATICCALL SWAP1 DUP2 ISZERO PUSH2 0x8A6 JUMPI DUP6 SWAP3 SWAP2 DUP10 SWAP2 DUP5 SWAP2 PUSH2 0x867 JUMPI JUMPDEST POP PUSH2 0x60D PUSH1 0x20 SWAP4 SWAP3 PUSH2 0x7D2 SWAP3 PUSH2 0x2400 JUMP JUMPDEST DUP5 DUP2 GT PUSH2 0x860 JUMPI JUMPDEST PUSH1 0x24 SWAP1 PUSH1 0x40 MLOAD SWAP5 DUP6 SWAP4 DUP5 SWAP3 PUSH4 0x2E1A7D4D PUSH1 0xE0 SHL DUP5 MSTORE PUSH1 0x4 DUP5 ADD MSTORE GAS CALL SWAP1 DUP2 ISZERO PUSH2 0x855 JUMPI DUP5 SWAP2 PUSH2 0x81E JUMPI JUMPDEST POP PUSH2 0x812 SWAP1 PUSH2 0x818 SWAP3 PUSH2 0x2389 JUMP JUMPDEST SWAP5 PUSH2 0x2433 JUMP JUMPDEST SWAP4 PUSH2 0x76F JUMP JUMPDEST SWAP1 POP PUSH1 0x20 DUP2 RETURNDATASIZE DUP3 GT PUSH2 0x84D JUMPI JUMPDEST DUP2 PUSH2 0x838 PUSH1 0x20 SWAP4 DUP4 PUSH2 0x21BE JUMP JUMPDEST DUP2 ADD SUB SLT PUSH2 0x849 JUMPI MLOAD PUSH2 0x818 PUSH2 0x804 JUMP JUMPDEST DUP4 DUP1 REVERT JUMPDEST RETURNDATASIZE SWAP2 POP PUSH2 0x82B JUMP JUMPDEST PUSH1 0x40 MLOAD RETURNDATASIZE DUP7 DUP3 RETURNDATACOPY RETURNDATASIZE SWAP1 REVERT JUMPDEST POP DUP4 PUSH2 0x7DA JUMP JUMPDEST SWAP3 SWAP4 POP POP POP PUSH1 0x20 DUP2 RETURNDATASIZE DUP3 GT PUSH2 0x89E JUMPI JUMPDEST DUP2 PUSH2 0x884 PUSH1 0x20 SWAP4 DUP4 PUSH2 0x21BE JUMP JUMPDEST DUP2 ADD SUB SLT PUSH2 0x89A JUMPI MLOAD DUP5 SWAP2 SWAP1 DUP9 SWAP1 PUSH2 0x60D PUSH2 0x7C1 JUMP JUMPDEST DUP5 DUP1 REVERT JUMPDEST RETURNDATASIZE SWAP2 POP PUSH2 0x877 JUMP JUMPDEST PUSH1 0x40 MLOAD RETURNDATASIZE DUP8 DUP3 RETURNDATACOPY RETURNDATASIZE SWAP1 REVERT JUMPDEST POP SWAP3 POP SWAP3 POP DUP3 SWAP1 PUSH2 0x8C0 PUSH2 0x28F2 JUMP JUMPDEST DUP2 DUP2 GT ISZERO PUSH2 0x8D3 JUMPI POP JUMPDEST SWAP1 SWAP2 SWAP3 DUP5 PUSH2 0x676 JUMP JUMPDEST SWAP1 POP PUSH2 0x8CA JUMP JUMPDEST POP DUP1 ISZERO ISZERO PUSH2 0x77A JUMP JUMPDEST PUSH2 0x905 SWAP2 POP PUSH1 0x20 RETURNDATASIZE PUSH1 0x20 GT PUSH2 0x90B JUMPI JUMPDEST PUSH2 0x8FD DUP2 DUP4 PUSH2 0x21BE JUMP JUMPDEST DUP2 ADD SWAP1 PUSH2 0x23E1 JUMP JUMPDEST DUP8 PUSH2 0x660 JUMP JUMPDEST POP RETURNDATASIZE PUSH2 0x8F3 JUMP JUMPDEST PUSH2 0x92B SWAP2 POP PUSH1 0x20 RETURNDATASIZE PUSH1 0x20 GT PUSH2 0x74B JUMPI PUSH2 0x73C DUP2 DUP4 PUSH2 0x21BE JUMP JUMPDEST DUP6 PUSH2 0x5F3 JUMP JUMPDEST PUSH2 0x93A SWAP2 PUSH2 0x21BE JUMP JUMPDEST DUP5 DUP4 PUSH2 0x5C2 JUMP JUMPDEST PUSH2 0x95A SWAP2 POP PUSH1 0x20 RETURNDATASIZE PUSH1 0x20 GT PUSH2 0x90B JUMPI PUSH2 0x8FD DUP2 DUP4 PUSH2 0x21BE JUMP JUMPDEST DUP5 PUSH2 0x53B JUMP JUMPDEST CALLVALUE PUSH2 0x194 JUMPI PUSH1 0x40 CALLDATASIZE PUSH1 0x3 NOT ADD SLT PUSH2 0x194 JUMPI PUSH2 0x979 PUSH2 0x21A8 JUMP JUMPDEST PUSH2 0x981 PUSH2 0x2996 JUMP JUMPDEST PUSH2 0x989 PUSH2 0x2C9B JUMP JUMPDEST PUSH1 0x0 SWAP1 PUSH1 0x1 PUSH1 0x1 PUSH1 0xA0 SHL SUB PUSH1 0x4 SLOAD AND DUP1 EXTCODESIZE ISZERO PUSH2 0xB30 JUMPI PUSH1 0x1 PUSH1 0x1 PUSH1 0xA0 SHL SUB PUSH1 0x40 MLOAD SWAP3 PUSH3 0xF887CF PUSH1 0xE8 SHL DUP5 MSTORE AND SWAP2 DUP3 PUSH1 0x4 DUP3 ADD MSTORE PUSH1 0x1 PUSH1 0x24 DUP3 ADD MSTORE DUP4 DUP1 DUP3 PUSH1 0x44 DUP2 DUP7 GAS STATICCALL DUP1 ISZERO PUSH2 0x6C6 JUMPI PUSH2 0xB53 JUMPI JUMPDEST POP POP PUSH1 0x40 MLOAD SWAP1 PUSH4 0xB37927D PUSH1 0xE2 SHL DUP3 MSTORE PUSH1 0x4 DUP3 ADD MSTORE PUSH1 0x20 DUP2 PUSH1 0x24 DUP2 DUP6 GAS STATICCALL DUP1 ISZERO PUSH2 0x752 JUMPI PUSH2 0xA0B SWAP2 DUP5 SWAP2 PUSH2 0xB34 JUMPI POP PUSH2 0x267D JUMP JUMPDEST PUSH2 0xA13 PUSH2 0x2299 JUMP JUMPDEST DUP2 EXTCODESIZE ISZERO PUSH2 0xB30 JUMPI PUSH1 0x40 MLOAD PUSH32 0xCE8C42E800000000000000000000000000000000000000000000000000000000 DUP2 MSTORE PUSH1 0x4 CALLDATALOAD PUSH1 0x4 DUP3 ADD MSTORE DUP4 DUP2 PUSH1 0x24 DUP2 DUP4 DUP8 GAS CALL DUP1 ISZERO PUSH2 0x855 JUMPI SWAP1 PUSH1 0x4 SWAP5 PUSH1 0x20 SWAP4 SWAP3 PUSH2 0xB20 JUMPI JUMPDEST POP POP PUSH2 0xA6E PUSH2 0x26C8 JUMP JUMPDEST PUSH2 0xA7F DUP2 PUSH2 0xA7A PUSH2 0x2299 JUMP JUMPDEST PUSH2 0x2389 JUMP JUMPDEST SWAP1 PUSH32 0x52C63247E1F47DB19D5CE0460030C497F067CA4CEBF71BA98EEADABE20BACE02 SLOAD DUP1 ISZERO PUSH1 0x0 EQ PUSH2 0xB08 JUMPI POP POP SWAP2 JUMPDEST PUSH1 0x40 MLOAD SWAP4 DUP5 DUP1 SWAP3 PUSH4 0x1127A41D PUSH1 0xE3 SHL DUP3 MSTORE GAS STATICCALL DUP1 ISZERO PUSH2 0x34D JUMPI DUP2 PUSH2 0xADE SWAP2 PUSH1 0x20 SWAP5 PUSH1 0x0 SWAP2 PUSH2 0xAEB JUMPI JUMPDEST POP PUSH2 0x2CD6 JUMP JUMPDEST PUSH1 0x1 PUSH1 0x0 SSTORE PUSH1 0x40 MLOAD SWAP1 DUP2 MSTORE RETURN JUMPDEST PUSH2 0xB02 SWAP2 POP DUP6 RETURNDATASIZE DUP8 GT PUSH2 0x90B JUMPI PUSH2 0x8FD DUP2 DUP4 PUSH2 0x21BE JUMP JUMPDEST DUP6 PUSH2 0xAD8 JUMP JUMPDEST PUSH2 0xB15 SWAP1 PUSH2 0xB1A SWAP4 PUSH2 0x2400 JUMP JUMPDEST PUSH2 0x2413 JUMP JUMPDEST SWAP2 PUSH2 0xAAF JUMP JUMPDEST PUSH2 0xB29 SWAP2 PUSH2 0x21BE JUMP JUMPDEST DUP5 DUP1 PUSH2 0xA64 JUMP JUMPDEST DUP3 DUP1 REVERT JUMPDEST PUSH2 0xB4D SWAP2 POP PUSH1 0x20 RETURNDATASIZE PUSH1 0x20 GT PUSH2 0x74B JUMPI PUSH2 0x73C DUP2 DUP4 PUSH2 0x21BE JUMP JUMPDEST DUP5 PUSH2 0x5F3 JUMP JUMPDEST PUSH2 0xB5C SWAP2 PUSH2 0x21BE JUMP JUMPDEST DUP4 DUP4 PUSH2 0x9D7 JUMP JUMPDEST CALLVALUE PUSH2 0x194 JUMPI PUSH1 0x20 CALLDATASIZE PUSH1 0x3 NOT ADD SLT PUSH2 0x194 JUMPI PUSH2 0xB7C PUSH2 0x2C9B JUMP JUMPDEST PUSH1 0x0 PUSH2 0xB86 PUSH2 0x2299 JUMP JUMPDEST DUP2 PUSH1 0x20 PUSH1 0x1 PUSH1 0x1 PUSH1 0xA0 SHL SUB PUSH1 0x1 SLOAD AND PUSH1 0x64 PUSH1 0x40 MLOAD DUP1 SWAP5 DUP2 SWAP4 PUSH32 0x23B872DD00000000000000000000000000000000000000000000000000000000 DUP4 MSTORE CALLER PUSH1 0x4 DUP5 ADD MSTORE ADDRESS PUSH1 0x24 DUP5 ADD MSTORE PUSH1 0x4 CALLDATALOAD PUSH1 0x44 DUP5 ADD MSTORE GAS CALL DUP1 ISZERO PUSH2 0x752 JUMPI PUSH1 0x20 SWAP4 POP PUSH2 0xC46 JUMPI JUMPDEST POP PUSH2 0xBEF PUSH2 0x26C8 JUMP JUMPDEST PUSH2 0xBFB DUP2 PUSH2 0xA7A PUSH2 0x2299 JUMP JUMPDEST SWAP1 PUSH32 0x52C63247E1F47DB19D5CE0460030C497F067CA4CEBF71BA98EEADABE20BACE02 SLOAD DUP1 ISZERO PUSH1 0x0 EQ PUSH2 0xC34 JUMPI POP POP JUMPDEST PUSH2 0xADE DUP2 CALLER PUSH2 0x2CD6 JUMP JUMPDEST PUSH2 0xB15 SWAP1 PUSH2 0xC41 SWAP4 PUSH2 0x2400 JUMP JUMPDEST PUSH2 0xC2A JUMP JUMPDEST PUSH2 0xC5C SWAP1 DUP4 RETURNDATASIZE DUP6 GT PUSH2 0x74B JUMPI PUSH2 0x73C DUP2 DUP4 PUSH2 0x21BE JUMP JUMPDEST PUSH2 0xBE6 JUMP JUMPDEST CALLVALUE PUSH2 0x194 JUMPI PUSH1 0x0 CALLDATASIZE PUSH1 0x3 NOT ADD SLT PUSH2 0x194 JUMPI PUSH1 0x40 MLOAD DUP1 PUSH1 0x20 PUSH1 0x2 SLOAD SWAP3 DUP4 DUP2 MSTORE ADD DUP1 SWAP3 PUSH1 0x2 PUSH1 0x0 MSTORE PUSH32 0x405787FA12A823E0F2B7631CC41B3BA8828B3321CA811111FA75CD3AA3BB5ACE SWAP1 PUSH1 0x0 JUMPDEST DUP2 DUP2 LT PUSH2 0xD0E JUMPI POP POP POP DUP2 PUSH2 0xCC2 SWAP2 SUB DUP3 PUSH2 0x21BE JUMP JUMPDEST PUSH1 0x40 MLOAD SWAP2 DUP3 SWAP2 PUSH1 0x20 DUP4 ADD SWAP1 PUSH1 0x20 DUP5 MSTORE MLOAD DUP1 SWAP2 MSTORE PUSH1 0x40 DUP4 ADD SWAP2 SWAP1 PUSH1 0x0 JUMPDEST DUP2 DUP2 LT PUSH2 0xCEC JUMPI POP POP POP SUB SWAP1 RETURN JUMPDEST DUP3 MLOAD PUSH1 0x1 PUSH1 0x1 PUSH1 0xA0 SHL SUB AND DUP5 MSTORE DUP6 SWAP5 POP PUSH1 0x20 SWAP4 DUP5 ADD SWAP4 SWAP1 SWAP3 ADD SWAP2 PUSH1 0x1 ADD PUSH2 0xCDE JUMP JUMPDEST DUP3 SLOAD PUSH1 0x1 PUSH1 0x1 PUSH1 0xA0 SHL SUB AND DUP5 MSTORE PUSH1 0x20 SWAP1 SWAP4 ADD SWAP3 PUSH1 0x1 SWAP3 DUP4 ADD SWAP3 ADD PUSH2 0xCAC JUMP JUMPDEST CALLVALUE PUSH2 0x194 JUMPI PUSH1 0x40 CALLDATASIZE PUSH1 0x3 NOT ADD SLT PUSH2 0x194 JUMPI PUSH2 0xD53 PUSH2 0xD49 PUSH2 0x2192 JUMP JUMPDEST PUSH1 0x24 CALLDATALOAD SWAP1 CALLER PUSH2 0x2A45 JUMP JUMPDEST PUSH1 0x20 PUSH1 0x40 MLOAD PUSH1 0x1 DUP2 MSTORE RETURN JUMPDEST CALLVALUE PUSH2 0x194 JUMPI PUSH1 0x40 CALLDATASIZE PUSH1 0x3 NOT ADD SLT PUSH2 0x194 JUMPI PUSH1 0x4 CALLDATALOAD PUSH2 0xD7A PUSH2 0x21A8 JUMP JUMPDEST SWAP1 PUSH1 0x0 SWAP1 PUSH2 0xD86 PUSH2 0x2996 JUMP JUMPDEST PUSH1 0x1 PUSH1 0x1 PUSH1 0xA0 SHL SUB PUSH1 0x4 SLOAD AND SWAP3 DUP4 EXTCODESIZE ISZERO PUSH2 0xB30 JUMPI PUSH1 0x40 MLOAD PUSH3 0xF887CF PUSH1 0xE8 SHL DUP2 MSTORE PUSH1 0x1 PUSH1 0x1 PUSH1 0xA0 SHL SUB DUP3 AND PUSH1 0x4 DUP3 ADD MSTORE PUSH1 0x2 PUSH1 0x24 DUP3 ADD MSTORE DUP4 DUP2 PUSH1 0x44 DUP2 DUP9 GAS STATICCALL DUP1 ISZERO PUSH2 0x855 JUMPI SWAP1 DUP5 PUSH1 0x1 PUSH1 0x1 PUSH1 0xA0 SHL SUB SWAP4 SWAP3 PUSH2 0xFE9 JUMPI JUMPDEST POP POP AND SWAP3 PUSH1 0x40 MLOAD SWAP1 PUSH4 0xB37927D PUSH1 0xE2 SHL DUP3 MSTORE PUSH1 0x4 DUP3 ADD MSTORE PUSH1 0x20 DUP2 PUSH1 0x24 DUP2 DUP8 GAS STATICCALL SWAP1 DUP2 ISZERO PUSH2 0x752 JUMPI SWAP1 PUSH2 0xE13 SWAP2 DUP5 SWAP2 PUSH2 0x912 JUMPI POP PUSH2 0x267D JUMP JUMPDEST PUSH2 0xE22 PUSH2 0x60D DUP3 PUSH2 0x608 PUSH2 0x2299 JUMP JUMPDEST SWAP1 PUSH1 0x40 MLOAD PUSH4 0x1127A41D PUSH1 0xE3 SHL DUP2 MSTORE PUSH1 0x20 DUP2 PUSH1 0x4 DUP2 DUP9 GAS STATICCALL SWAP1 DUP2 ISZERO PUSH2 0x855 JUMPI PUSH2 0xE52 SWAP2 DUP4 SWAP2 DUP7 SWAP2 PUSH2 0x8E3 JUMPI POP PUSH2 0x2B9C JUMP JUMPDEST PUSH2 0xE5A PUSH2 0x28F2 JUMP JUMPDEST DUP3 DUP2 LT PUSH2 0xEB0 JUMPI POP POP SWAP1 DUP2 DUP2 SWAP4 PUSH1 0x1 PUSH1 0x1 PUSH1 0xA0 SHL SUB PUSH1 0x1 SLOAD AND PUSH20 0xEEEEEEEEEEEEEEEEEEEEEEEEEEEEEEEEEEEEEEEE DUP2 EQ PUSH1 0x0 EQ PUSH2 0x6DC JUMPI POP DUP3 DUP1 SWAP3 DUP2 SWAP3 DUP3 DUP3 ISZERO PUSH2 0x6D3 JUMPI CALL ISZERO PUSH2 0x6C6 JUMPI PUSH1 0x20 SWAP2 POP PUSH1 0x40 MLOAD SWAP1 DUP2 MSTORE RETURN JUMPDEST PUSH2 0xEBE SWAP1 DUP4 SWAP6 SWAP5 SWAP3 SWAP6 PUSH2 0x2389 JUMP JUMPDEST SWAP3 DUP2 SWAP4 JUMPDEST PUSH1 0x2 SLOAD DUP6 LT DUP1 PUSH2 0xFE0 JUMPI JUMPDEST ISZERO PUSH2 0x8B1 JUMPI PUSH1 0x1 PUSH1 0x1 PUSH1 0xA0 SHL SUB PUSH2 0xEE3 DUP7 PUSH2 0x2271 JUMP JUMPDEST SWAP1 SLOAD SWAP1 PUSH1 0x3 SHL SHR AND PUSH1 0x40 MLOAD PUSH4 0x765EF2F3 PUSH1 0xE1 SHL DUP2 MSTORE PUSH1 0x20 DUP2 PUSH1 0x4 DUP2 DUP6 GAS STATICCALL SWAP1 DUP2 ISZERO PUSH2 0x8A6 JUMPI DUP6 SWAP3 SWAP2 DUP10 SWAP2 DUP5 SWAP2 PUSH2 0xFA5 JUMPI JUMPDEST POP PUSH2 0x60D PUSH1 0x20 SWAP4 SWAP3 PUSH2 0xF25 SWAP3 PUSH2 0x2400 JUMP JUMPDEST DUP5 DUP2 GT PUSH2 0xF9E JUMPI JUMPDEST PUSH1 0x24 SWAP1 PUSH1 0x40 MLOAD SWAP5 DUP6 SWAP4 DUP5 SWAP3 PUSH4 0x2E1A7D4D PUSH1 0xE0 SHL DUP5 MSTORE PUSH1 0x4 DUP5 ADD MSTORE GAS CALL SWAP1 DUP2 ISZERO PUSH2 0x855 JUMPI DUP5 SWAP2 PUSH2 0xF6B JUMPI JUMPDEST POP PUSH2 0x812 SWAP1 PUSH2 0xF65 SWAP3 PUSH2 0x2389 JUMP JUMPDEST SWAP4 PUSH2 0xEC2 JUMP JUMPDEST SWAP1 POP PUSH1 0x20 DUP2 RETURNDATASIZE DUP3 GT PUSH2 0xF96 JUMPI JUMPDEST DUP2 PUSH2 0xF85 PUSH1 0x20 SWAP4 DUP4 PUSH2 0x21BE JUMP JUMPDEST DUP2 ADD SUB SLT PUSH2 0x849 JUMPI MLOAD PUSH2 0xF65 PUSH2 0xF57 JUMP JUMPDEST RETURNDATASIZE SWAP2 POP PUSH2 0xF78 JUMP JUMPDEST POP DUP4 PUSH2 0xF2D JUMP JUMPDEST SWAP3 SWAP4 POP POP POP PUSH1 0x20 DUP2 RETURNDATASIZE DUP3 GT PUSH2 0xFD8 JUMPI JUMPDEST DUP2 PUSH2 0xFC2 PUSH1 0x20 SWAP4 DUP4 PUSH2 0x21BE JUMP JUMPDEST DUP2 ADD SUB SLT PUSH2 0x89A JUMPI MLOAD DUP5 SWAP2 SWAP1 DUP9 SWAP1 PUSH2 0x60D PUSH2 0xF14 JUMP JUMPDEST RETURNDATASIZE SWAP2 POP PUSH2 0xFB5 JUMP JUMPDEST POP DUP1 ISZERO ISZERO PUSH2 0xECD JUMP JUMPDEST PUSH2 0xFF2 SWAP2 PUSH2 0x21BE JUMP JUMPDEST DUP6 DUP5 PUSH2 0xDDB JUMP JUMPDEST CALLVALUE PUSH2 0x194 JUMPI PUSH1 0x20 CALLDATASIZE PUSH1 0x3 NOT ADD SLT PUSH2 0x194 JUMPI PUSH1 0x4 PUSH1 0x20 PUSH1 0x1 PUSH1 0x1 PUSH1 0xA0 SHL SUB PUSH2 0x1020 DUP4 CALLDATALOAD PUSH2 0x2271 JUMP JUMPDEST SWAP1 SLOAD SWAP1 PUSH1 0x3 SHL SHR AND PUSH1 0x40 MLOAD SWAP3 DUP4 DUP1 SWAP3 PUSH32 0xAFFD80B000000000000000000000000000000000000000000000000000000000 DUP3 MSTORE GAS STATICCALL DUP1 ISZERO PUSH2 0x34D JUMPI PUSH1 0x0 SWAP1 PUSH2 0x106D JUMPI JUMPDEST PUSH1 0x20 SWAP1 PUSH1 0x40 MLOAD SWAP1 DUP2 MSTORE RETURN JUMPDEST POP PUSH1 0x20 DUP2 RETURNDATASIZE PUSH1 0x20 GT PUSH2 0x1098 JUMPI JUMPDEST DUP2 PUSH2 0x1087 PUSH1 0x20 SWAP4 DUP4 PUSH2 0x21BE JUMP JUMPDEST DUP2 ADD SUB SLT PUSH2 0x194 JUMPI PUSH1 0x20 SWAP1 MLOAD PUSH2 0x1062 JUMP JUMPDEST RETURNDATASIZE SWAP2 POP PUSH2 0x107A JUMP JUMPDEST CALLVALUE PUSH2 0x194 JUMPI PUSH1 0x0 CALLDATASIZE PUSH1 0x3 NOT ADD SLT PUSH2 0x194 JUMPI PUSH1 0x40 MLOAD PUSH1 0x0 PUSH32 0x52C63247E1F47DB19D5CE0460030C497F067CA4CEBF71BA98EEADABE20BACE04 SLOAD PUSH2 0x10E1 DUP2 PUSH2 0x2237 JUMP JUMPDEST DUP1 DUP5 MSTORE SWAP1 PUSH1 0x1 DUP2 AND SWAP1 DUP2 ISZERO PUSH2 0x1197 JUMPI POP PUSH1 0x1 EQ PUSH2 0x1119 JUMPI JUMPDEST PUSH2 0x1115 DUP4 PUSH2 0x1109 DUP2 DUP6 SUB DUP3 PUSH2 0x21BE JUMP JUMPDEST PUSH1 0x40 MLOAD SWAP2 DUP3 SWAP2 DUP3 PUSH2 0x2149 JUMP JUMPDEST SUB SWAP1 RETURN JUMPDEST PUSH32 0x52C63247E1F47DB19D5CE0460030C497F067CA4CEBF71BA98EEADABE20BACE04 PUSH1 0x0 SWAP1 DUP2 MSTORE PUSH32 0x46A2803E59A4DE4E7A4C574B1243F25977AC4C77D5A1A4A609B5394CEBB4A2AA SWAP4 SWAP3 POP SWAP1 JUMPDEST DUP1 DUP3 LT PUSH2 0x117D JUMPI POP SWAP1 SWAP2 POP DUP2 ADD PUSH1 0x20 ADD PUSH2 0x1109 PUSH2 0x10F9 JUMP JUMPDEST SWAP2 SWAP3 PUSH1 0x1 DUP2 PUSH1 0x20 SWAP3 SLOAD DUP4 DUP6 DUP9 ADD ADD MSTORE ADD SWAP2 ADD SWAP1 SWAP3 SWAP2 PUSH2 0x1165 JUMP JUMPDEST PUSH1 0xFF NOT AND PUSH1 0x20 DUP1 DUP7 ADD SWAP2 SWAP1 SWAP2 MSTORE SWAP2 ISZERO ISZERO PUSH1 0x5 SHL DUP5 ADD SWAP1 SWAP2 ADD SWAP2 POP PUSH2 0x1109 SWAP1 POP PUSH2 0x10F9 JUMP JUMPDEST CALLVALUE PUSH2 0x194 JUMPI PUSH1 0x80 CALLDATASIZE PUSH1 0x3 NOT ADD SLT PUSH2 0x194 JUMPI PUSH1 0x4 CALLDATALOAD PUSH8 0xFFFFFFFFFFFFFFFF DUP2 GT PUSH2 0x194 JUMPI PUSH2 0x11EC SWAP1 CALLDATASIZE SWAP1 PUSH1 0x4 ADD PUSH2 0x21E0 JUMP JUMPDEST PUSH1 0x24 CALLDATALOAD PUSH8 0xFFFFFFFFFFFFFFFF DUP2 GT PUSH2 0x194 JUMPI PUSH2 0x120C SWAP1 CALLDATASIZE SWAP1 PUSH1 0x4 ADD PUSH2 0x21E0 JUMP JUMPDEST SWAP1 PUSH1 0x44 CALLDATALOAD PUSH1 0x1 PUSH1 0x1 PUSH1 0xA0 SHL SUB DUP2 AND DUP1 SWAP2 SUB PUSH2 0x194 JUMPI PUSH1 0x64 CALLDATALOAD SWAP1 PUSH1 0x1 PUSH1 0x1 PUSH1 0xA0 SHL SUB DUP3 AND DUP1 SWAP3 SUB PUSH2 0x194 JUMPI PUSH32 0xF0C57E16840DF040F15088DC2F81FE391C3923BEC73E23A9662EFC9C229C6A00 SLOAD SWAP3 PUSH1 0xFF DUP5 PUSH1 0x40 SHR AND ISZERO SWAP4 PUSH8 0xFFFFFFFFFFFFFFFF DUP2 AND DUP1 ISZERO SWAP1 DUP2 PUSH2 0x17CE JUMPI JUMPDEST PUSH1 0x1 EQ SWAP1 DUP2 PUSH2 0x17C4 JUMPI JUMPDEST ISZERO SWAP1 DUP2 PUSH2 0x17BB JUMPI JUMPDEST POP PUSH2 0x1791 JUMPI PUSH8 0xFFFFFFFFFFFFFFFF NOT DUP2 AND PUSH1 0x1 OR PUSH32 0xF0C57E16840DF040F15088DC2F81FE391C3923BEC73E23A9662EFC9C229C6A00 SSTORE DUP5 PUSH2 0x1752 JUMPI JUMPDEST POP PUSH2 0x12CD PUSH2 0x2D92 JUMP JUMPDEST PUSH2 0x12D5 PUSH2 0x2D92 JUMP JUMPDEST PUSH2 0x12DD PUSH2 0x2D92 JUMP JUMPDEST PUSH2 0x12E6 DUP4 PUSH2 0x2826 JUMP JUMPDEST PUSH2 0x12EE PUSH2 0x2D92 JUMP JUMPDEST PUSH2 0x12F6 PUSH2 0x2D92 JUMP JUMPDEST DUP1 MLOAD SWAP1 PUSH8 0xFFFFFFFFFFFFFFFF DUP3 GT PUSH2 0x436 JUMPI DUP2 SWAP1 PUSH2 0x1334 PUSH32 0x52C63247E1F47DB19D5CE0460030C497F067CA4CEBF71BA98EEADABE20BACE03 SLOAD PUSH2 0x2237 JUMP JUMPDEST PUSH1 0x1F DUP2 GT PUSH2 0x16C3 JUMPI JUMPDEST POP PUSH1 0x20 SWAP1 PUSH1 0x1F DUP4 GT PUSH1 0x1 EQ PUSH2 0x161D JUMPI PUSH1 0x0 SWAP3 PUSH2 0x1612 JUMPI JUMPDEST POP POP DUP2 PUSH1 0x1 SHL SWAP2 PUSH1 0x0 NOT SWAP1 PUSH1 0x3 SHL SHR NOT AND OR PUSH32 0x52C63247E1F47DB19D5CE0460030C497F067CA4CEBF71BA98EEADABE20BACE03 SSTORE JUMPDEST DUP4 MLOAD PUSH8 0xFFFFFFFFFFFFFFFF DUP2 GT PUSH2 0x436 JUMPI PUSH2 0x13C4 PUSH32 0x52C63247E1F47DB19D5CE0460030C497F067CA4CEBF71BA98EEADABE20BACE04 SLOAD PUSH2 0x2237 JUMP JUMPDEST PUSH1 0x1F DUP2 GT PUSH2 0x158E JUMPI JUMPDEST POP PUSH1 0x20 SWAP5 PUSH1 0x1F DUP3 GT PUSH1 0x1 EQ PUSH2 0x14E9 JUMPI SWAP5 DUP2 SWAP3 SWAP4 SWAP5 SWAP6 PUSH1 0x0 SWAP3 PUSH2 0x14DE JUMPI JUMPDEST POP POP DUP2 PUSH1 0x1 SHL SWAP2 PUSH1 0x0 NOT SWAP1 PUSH1 0x3 SHL SHR NOT AND OR PUSH32 0x52C63247E1F47DB19D5CE0460030C497F067CA4CEBF71BA98EEADABE20BACE04 SSTORE JUMPDEST PUSH20 0xFFFFFFFFFFFFFFFFFFFFFFFFFFFFFFFFFFFFFFFF NOT PUSH1 0x1 SLOAD AND OR PUSH1 0x1 SSTORE PUSH20 0xFFFFFFFFFFFFFFFFFFFFFFFFFFFFFFFFFFFFFFFF NOT PUSH1 0x4 SLOAD AND OR PUSH1 0x4 SSTORE PUSH2 0x1461 JUMPI STOP JUMPDEST PUSH9 0xFF0000000000000000 NOT PUSH32 0xF0C57E16840DF040F15088DC2F81FE391C3923BEC73E23A9662EFC9C229C6A00 SLOAD AND PUSH32 0xF0C57E16840DF040F15088DC2F81FE391C3923BEC73E23A9662EFC9C229C6A00 SSTORE PUSH32 0xC7F505B2F371AE2175EE4913F4499E1F2633A7B5936321EED1CDAEB6115181D2 PUSH1 0x20 PUSH1 0x40 MLOAD PUSH1 0x1 DUP2 MSTORE LOG1 STOP JUMPDEST ADD MLOAD SWAP1 POP DUP6 DUP1 PUSH2 0x13EA JUMP JUMPDEST PUSH1 0x1F NOT DUP3 AND SWAP6 PUSH32 0x52C63247E1F47DB19D5CE0460030C497F067CA4CEBF71BA98EEADABE20BACE04 PUSH1 0x0 MSTORE DUP1 PUSH1 0x0 KECCAK256 SWAP2 PUSH1 0x0 JUMPDEST DUP9 DUP2 LT PUSH2 0x1576 JUMPI POP DUP4 PUSH1 0x1 SWAP6 SWAP7 SWAP8 SWAP9 LT PUSH2 0x155D JUMPI JUMPDEST POP POP POP DUP2 SHL ADD PUSH32 0x52C63247E1F47DB19D5CE0460030C497F067CA4CEBF71BA98EEADABE20BACE04 SSTORE PUSH2 0x141F JUMP JUMPDEST ADD MLOAD PUSH1 0x0 NOT PUSH1 0xF8 DUP5 PUSH1 0x3 SHL AND SHR NOT AND SWAP1 SSTORE DUP6 DUP1 DUP1 PUSH2 0x1530 JUMP JUMPDEST SWAP2 SWAP3 PUSH1 0x20 PUSH1 0x1 DUP2 SWAP3 DUP7 DUP6 ADD MLOAD DUP2 SSTORE ADD SWAP5 ADD SWAP3 ADD PUSH2 0x151B JUMP JUMPDEST PUSH32 0x52C63247E1F47DB19D5CE0460030C497F067CA4CEBF71BA98EEADABE20BACE04 PUSH1 0x0 MSTORE PUSH32 0x46A2803E59A4DE4E7A4C574B1243F25977AC4C77D5A1A4A609B5394CEBB4A2AA PUSH1 0x1F DUP4 ADD PUSH1 0x5 SHR DUP2 ADD SWAP2 PUSH1 0x20 DUP5 LT PUSH2 0x1608 JUMPI JUMPDEST PUSH1 0x1F ADD PUSH1 0x5 SHR ADD SWAP1 JUMPDEST DUP2 DUP2 LT PUSH2 0x15FC JUMPI POP PUSH2 0x13CD JUMP JUMPDEST PUSH1 0x0 DUP2 SSTORE PUSH1 0x1 ADD PUSH2 0x15EF JUMP JUMPDEST SWAP1 SWAP2 POP DUP2 SWAP1 PUSH2 0x15E6 JUMP JUMPDEST ADD MLOAD SWAP1 POP DUP7 DUP1 PUSH2 0x1354 JUMP JUMPDEST PUSH32 0x52C63247E1F47DB19D5CE0460030C497F067CA4CEBF71BA98EEADABE20BACE03 PUSH1 0x0 SWAP1 DUP2 MSTORE DUP3 DUP2 KECCAK256 SWAP4 POP PUSH1 0x1F NOT DUP6 AND SWAP1 JUMPDEST DUP2 DUP2 LT PUSH2 0x16AB JUMPI POP SWAP1 DUP5 PUSH1 0x1 SWAP6 SWAP5 SWAP4 SWAP3 LT PUSH2 0x1692 JUMPI JUMPDEST POP POP POP DUP2 SHL ADD PUSH32 0x52C63247E1F47DB19D5CE0460030C497F067CA4CEBF71BA98EEADABE20BACE03 SSTORE PUSH2 0x1389 JUMP JUMPDEST ADD MLOAD PUSH1 0x0 NOT PUSH1 0xF8 DUP5 PUSH1 0x3 SHL AND SHR NOT AND SWAP1 SSTORE DUP7 DUP1 DUP1 PUSH2 0x1665 JUMP JUMPDEST SWAP3 SWAP4 PUSH1 0x20 PUSH1 0x1 DUP2 SWAP3 DUP8 DUP7 ADD MLOAD DUP2 SSTORE ADD SWAP6 ADD SWAP4 ADD PUSH2 0x164F JUMP JUMPDEST PUSH32 0x52C63247E1F47DB19D5CE0460030C497F067CA4CEBF71BA98EEADABE20BACE03 PUSH1 0x0 MSTORE SWAP1 SWAP2 POP PUSH32 0x2AE08A8E29253F69AC5D979A101956AB8F8D9D7DED63FA7A83B16FC47648EAB0 PUSH1 0x1F DUP5 ADD PUSH1 0x5 SHR DUP2 ADD SWAP2 PUSH1 0x20 DUP6 LT PUSH2 0x1748 JUMPI JUMPDEST SWAP1 PUSH1 0x1F DUP6 SWAP5 SWAP4 SWAP3 ADD PUSH1 0x5 SHR ADD SWAP1 JUMPDEST DUP2 DUP2 LT PUSH2 0x1739 JUMPI POP PUSH2 0x133D JUMP JUMPDEST PUSH1 0x0 DUP2 SSTORE DUP5 SWAP4 POP PUSH1 0x1 ADD PUSH2 0x172C JUMP JUMPDEST SWAP1 SWAP2 POP DUP2 SWAP1 PUSH2 0x171E JUMP JUMPDEST PUSH9 0xFFFFFFFFFFFFFFFFFF NOT AND PUSH9 0x10000000000000001 OR PUSH32 0xF0C57E16840DF040F15088DC2F81FE391C3923BEC73E23A9662EFC9C229C6A00 SSTORE DUP6 PUSH2 0x12C4 JUMP JUMPDEST PUSH32 0xF92EE8A900000000000000000000000000000000000000000000000000000000 PUSH1 0x0 MSTORE PUSH1 0x4 PUSH1 0x0 REVERT JUMPDEST SWAP1 POP ISZERO DUP8 PUSH2 0x1288 JUMP JUMPDEST ADDRESS EXTCODESIZE ISZERO SWAP2 POP PUSH2 0x1280 JUMP JUMPDEST DUP7 SWAP2 POP PUSH2 0x1276 JUMP JUMPDEST CALLVALUE PUSH2 0x194 JUMPI PUSH1 0x0 CALLDATASIZE PUSH1 0x3 NOT ADD SLT PUSH2 0x194 JUMPI PUSH1 0x20 PUSH1 0x1 PUSH1 0x1 PUSH1 0xA0 SHL SUB PUSH32 0x9016D09D72D40FDAE2FD8CEAC6B6234C7706214FD39C1CD1E609A0528C199300 SLOAD AND PUSH1 0x40 MLOAD SWAP1 DUP2 MSTORE RETURN JUMPDEST CALLVALUE PUSH2 0x194 JUMPI PUSH1 0x0 CALLDATASIZE PUSH1 0x3 NOT ADD SLT PUSH2 0x194 JUMPI PUSH1 0x20 PUSH2 0x18C PUSH2 0x186F CALLER PUSH1 0x1 PUSH1 0x1 PUSH1 0xA0 SHL SUB AND PUSH1 0x0 MSTORE PUSH32 0x52C63247E1F47DB19D5CE0460030C497F067CA4CEBF71BA98EEADABE20BACE00 PUSH1 0x20 MSTORE PUSH1 0x40 PUSH1 0x0 KECCAK256 SLOAD SWAP1 JUMP JUMPDEST PUSH2 0x245A JUMP JUMPDEST CALLVALUE PUSH2 0x194 JUMPI PUSH1 0x0 CALLDATASIZE PUSH1 0x3 NOT ADD SLT PUSH2 0x194 JUMPI PUSH2 0x188D PUSH2 0x2996 JUMP JUMPDEST PUSH1 0x0 PUSH1 0x1 PUSH1 0x1 PUSH1 0xA0 SHL SUB PUSH32 0x9016D09D72D40FDAE2FD8CEAC6B6234C7706214FD39C1CD1E609A0528C199300 SLOAD PUSH20 0xFFFFFFFFFFFFFFFFFFFFFFFFFFFFFFFFFFFFFFFF NOT DUP2 AND PUSH32 0x9016D09D72D40FDAE2FD8CEAC6B6234C7706214FD39C1CD1E609A0528C199300 SSTORE AND PUSH32 0x8BE0079C531659141344CD1FD0A4F28419497F9722A3DAAFE3B4186F6B6457E0 DUP3 DUP1 LOG3 STOP JUMPDEST CALLVALUE PUSH2 0x194 JUMPI PUSH1 0x20 CALLDATASIZE PUSH1 0x3 NOT ADD SLT PUSH2 0x194 JUMPI PUSH1 0x20 PUSH2 0x18C PUSH2 0x1938 PUSH2 0x2192 JUMP JUMPDEST PUSH1 0x1 PUSH1 0x1 PUSH1 0xA0 SHL SUB AND PUSH1 0x0 MSTORE PUSH32 0x52C63247E1F47DB19D5CE0460030C497F067CA4CEBF71BA98EEADABE20BACE00 PUSH1 0x20 MSTORE PUSH1 0x40 PUSH1 0x0 KECCAK256 SLOAD SWAP1 JUMP JUMPDEST CALLVALUE PUSH2 0x194 JUMPI PUSH1 0x20 CALLDATASIZE PUSH1 0x3 NOT ADD SLT PUSH2 0x194 JUMPI PUSH1 0x20 PUSH2 0x18C PUSH2 0x60D PUSH1 0x4 CALLDATALOAD PUSH2 0x608 PUSH2 0x2299 JUMP JUMPDEST CALLVALUE PUSH2 0x194 JUMPI PUSH1 0x0 CALLDATASIZE PUSH1 0x3 NOT ADD SLT PUSH2 0x194 JUMPI PUSH1 0x20 PUSH1 0x1 PUSH1 0x1 PUSH1 0xA0 SHL SUB PUSH1 0x1 SLOAD AND PUSH1 0x40 MLOAD SWAP1 DUP2 MSTORE RETURN JUMPDEST CALLVALUE PUSH2 0x194 JUMPI PUSH1 0x0 CALLDATASIZE PUSH1 0x3 NOT ADD SLT PUSH2 0x194 JUMPI PUSH1 0x0 DUP1 PUSH1 0x2 SLOAD JUMPDEST DUP1 DUP3 LT PUSH2 0x1A10 JUMPI DUP3 DUP1 PUSH2 0x2710 SUB SWAP1 PUSH2 0x2710 DUP3 GT PUSH2 0x19FA JUMPI PUSH1 0x40 SWAP2 DUP3 MLOAD SWAP2 DUP3 MSTORE PUSH1 0x20 DUP3 ADD MSTORE RETURN JUMPDEST PUSH4 0x4E487B71 PUSH1 0xE0 SHL PUSH1 0x0 MSTORE PUSH1 0x11 PUSH1 0x4 MSTORE PUSH1 0x24 PUSH1 0x0 REVERT JUMPDEST SWAP1 SWAP2 PUSH2 0x1A29 PUSH1 0x1 SWAP2 PUSH1 0x1 PUSH1 0x1 PUSH1 0xA0 SHL SUB PUSH2 0x3BD DUP7 PUSH2 0x2271 JUMP JUMPDEST SWAP3 ADD SWAP1 PUSH2 0x19D4 JUMP JUMPDEST CALLVALUE PUSH2 0x194 JUMPI PUSH1 0x0 CALLDATASIZE PUSH1 0x3 NOT ADD SLT PUSH2 0x194 JUMPI PUSH1 0x20 PUSH1 0x40 MLOAD PUSH1 0x12 DUP2 MSTORE RETURN JUMPDEST CALLVALUE PUSH2 0x194 JUMPI PUSH1 0x20 CALLDATASIZE PUSH1 0x3 NOT ADD SLT PUSH2 0x194 JUMPI PUSH1 0x20 PUSH2 0x18C PUSH1 0x4 CALLDATALOAD PUSH2 0x245A JUMP JUMPDEST CALLVALUE PUSH2 0x194 JUMPI PUSH1 0x60 CALLDATASIZE PUSH1 0x3 NOT ADD SLT PUSH2 0x194 JUMPI PUSH2 0x1A84 PUSH2 0x2192 JUMP JUMPDEST PUSH2 0x1A8C PUSH2 0x21A8 JUMP JUMPDEST PUSH1 0x44 CALLDATALOAD SWAP1 PUSH2 0x1ACC DUP4 PUSH1 0x1 PUSH1 0x1 PUSH1 0xA0 SHL SUB AND PUSH1 0x0 MSTORE PUSH32 0x52C63247E1F47DB19D5CE0460030C497F067CA4CEBF71BA98EEADABE20BACE01 PUSH1 0x20 MSTORE PUSH1 0x40 PUSH1 0x0 KECCAK256 SWAP1 JUMP JUMPDEST PUSH1 0x1 PUSH1 0x1 PUSH1 0xA0 SHL SUB CALLER AND PUSH1 0x0 MSTORE PUSH1 0x20 MSTORE PUSH1 0x40 PUSH1 0x0 KECCAK256 SLOAD SWAP3 PUSH1 0x0 NOT DUP5 LT PUSH2 0x1AF7 JUMPI JUMPDEST PUSH2 0xD53 SWAP4 POP PUSH2 0x2A45 JUMP JUMPDEST DUP3 DUP5 LT PUSH2 0x1BD0 JUMPI PUSH1 0x1 PUSH1 0x1 PUSH1 0xA0 SHL SUB DUP2 AND ISZERO PUSH2 0x1BA1 JUMPI CALLER ISZERO PUSH2 0x1B72 JUMPI PUSH2 0xD53 SWAP4 PUSH2 0x1B53 DUP3 PUSH1 0x1 PUSH1 0x1 PUSH1 0xA0 SHL SUB AND PUSH1 0x0 MSTORE PUSH32 0x52C63247E1F47DB19D5CE0460030C497F067CA4CEBF71BA98EEADABE20BACE01 PUSH1 0x20 MSTORE PUSH1 0x40 PUSH1 0x0 KECCAK256 SWAP1 JUMP JUMPDEST PUSH1 0x1 PUSH1 0x1 PUSH1 0xA0 SHL SUB CALLER AND PUSH1 0x0 MSTORE PUSH1 0x20 MSTORE DUP4 PUSH1 0x40 PUSH1 0x0 KECCAK256 SWAP2 SUB SWAP1 SSTORE PUSH2 0x1AED JUMP JUMPDEST PUSH32 0x94280D6200000000000000000000000000000000000000000000000000000000 PUSH1 0x0 MSTORE PUSH1 0x0 PUSH1 0x4 MSTORE PUSH1 0x24 PUSH1 0x0 REVERT JUMPDEST PUSH32 0xE602DF0500000000000000000000000000000000000000000000000000000000 PUSH1 0x0 MSTORE PUSH1 0x0 PUSH1 0x4 MSTORE PUSH1 0x24 PUSH1 0x0 REVERT JUMPDEST DUP3 DUP5 PUSH32 0xFB8F41B200000000000000000000000000000000000000000000000000000000 PUSH1 0x0 MSTORE CALLER PUSH1 0x4 MSTORE PUSH1 0x24 MSTORE PUSH1 0x44 MSTORE PUSH1 0x64 PUSH1 0x0 REVERT JUMPDEST CALLVALUE PUSH2 0x194 JUMPI PUSH1 0x20 CALLDATASIZE PUSH1 0x3 NOT ADD SLT PUSH2 0x194 JUMPI PUSH1 0x4 CALLDATALOAD PUSH1 0x1 PUSH1 0x1 PUSH1 0xA0 SHL SUB DUP2 AND DUP1 DUP3 SUB PUSH2 0x194 JUMPI PUSH2 0x1C33 PUSH2 0x2996 JUMP JUMPDEST PUSH2 0x1C3E DUP2 ISZERO ISZERO PUSH2 0x2396 JUMP JUMPDEST PUSH2 0x1C47 DUP3 PUSH2 0x29F7 JUMP JUMPDEST PUSH2 0x1D8F JUMPI PUSH1 0x40 MLOAD PUSH32 0x8D928AF800000000000000000000000000000000000000000000000000000000 DUP2 MSTORE PUSH1 0x20 DUP2 PUSH1 0x4 DUP2 DUP6 GAS STATICCALL DUP1 ISZERO PUSH2 0x34D JUMPI PUSH1 0x1 PUSH1 0x1 PUSH1 0xA0 SHL SUB SWAP2 PUSH1 0x0 SWAP2 PUSH2 0x1D70 JUMPI JUMPDEST POP AND ADDRESS EQ SWAP1 DUP2 PUSH2 0x1CED JUMPI JUMPDEST POP PUSH2 0x1CA6 SWAP1 PUSH2 0x2396 JUMP JUMPDEST PUSH1 0x2 SLOAD SWAP1 PUSH9 0x10000000000000000 DUP3 LT ISZERO PUSH2 0x436 JUMPI PUSH2 0x1CCE DUP3 PUSH1 0x1 PUSH2 0x1C2 SWAP5 ADD PUSH1 0x2 SSTORE PUSH2 0x2271 JUMP JUMPDEST SWAP1 SWAP2 SWAP1 PUSH1 0x1 PUSH1 0x1 PUSH1 0xA0 SHL SUB DUP1 DUP5 SLOAD SWAP3 PUSH1 0x3 SHL SWAP4 AND DUP4 SHL SWAP3 SHL NOT AND OR SWAP1 SSTORE JUMP JUMPDEST PUSH1 0x4 SWAP2 POP PUSH1 0x20 PUSH1 0x1 PUSH1 0x1 PUSH1 0xA0 SHL SUB PUSH1 0x1 SLOAD AND SWAP2 PUSH1 0x40 MLOAD SWAP4 DUP5 DUP1 SWAP3 PUSH32 0x5C222BAD00000000000000000000000000000000000000000000000000000000 DUP3 MSTORE GAS STATICCALL SWAP2 DUP3 ISZERO PUSH2 0x34D JUMPI PUSH2 0x1CA6 SWAP3 PUSH1 0x1 PUSH1 0x1 PUSH1 0xA0 SHL SUB SWAP2 PUSH1 0x0 SWAP2 PUSH2 0x1D51 JUMPI JUMPDEST POP AND EQ SWAP1 PUSH2 0x1C9C JUMP JUMPDEST PUSH2 0x1D6A SWAP2 POP PUSH1 0x20 RETURNDATASIZE PUSH1 0x20 GT PUSH2 0x90B JUMPI PUSH2 0x8FD DUP2 DUP4 PUSH2 0x21BE JUMP JUMPDEST DUP6 PUSH2 0x1D48 JUMP JUMPDEST PUSH2 0x1D89 SWAP2 POP PUSH1 0x20 RETURNDATASIZE PUSH1 0x20 GT PUSH2 0x90B JUMPI PUSH2 0x8FD DUP2 DUP4 PUSH2 0x21BE JUMP JUMPDEST DUP5 PUSH2 0x1C91 JUMP JUMPDEST PUSH1 0x64 PUSH1 0x40 MLOAD PUSH3 0x461BCD PUSH1 0xE5 SHL DUP2 MSTORE PUSH1 0x20 PUSH1 0x4 DUP3 ADD MSTORE PUSH1 0x17 PUSH1 0x24 DUP3 ADD MSTORE PUSH32 0x537472617465677920616C726561647920657869737473000000000000000000 PUSH1 0x44 DUP3 ADD MSTORE REVERT JUMPDEST CALLVALUE PUSH2 0x194 JUMPI PUSH1 0x0 CALLDATASIZE PUSH1 0x3 NOT ADD SLT PUSH2 0x194 JUMPI PUSH1 0x20 PUSH32 0x52C63247E1F47DB19D5CE0460030C497F067CA4CEBF71BA98EEADABE20BACE02 SLOAD PUSH1 0x40 MLOAD SWAP1 DUP2 MSTORE RETURN JUMPDEST CALLVALUE PUSH2 0x194 JUMPI PUSH1 0x20 CALLDATASIZE PUSH1 0x3 NOT ADD SLT PUSH2 0x194 JUMPI PUSH1 0x4 CALLDATALOAD PUSH1 0x1 PUSH1 0x1 PUSH1 0xA0 SHL SUB DUP2 AND SWAP1 DUP2 DUP2 SUB PUSH2 0x194 JUMPI PUSH2 0x282 PUSH2 0x1E4A SWAP2 PUSH2 0x1E45 PUSH2 0x2996 JUMP JUMPDEST PUSH2 0x29F7 JUMP JUMPDEST PUSH1 0x2 SLOAD PUSH1 0x0 JUMPDEST DUP2 DUP2 LT PUSH2 0x1E59 JUMPI STOP JUMPDEST DUP3 PUSH1 0x1 PUSH1 0x1 PUSH1 0xA0 SHL SUB PUSH2 0x1E6B DUP4 PUSH2 0x2271 JUMP JUMPDEST SWAP1 SLOAD SWAP1 PUSH1 0x3 SHL SHR AND EQ PUSH2 0x1E80 JUMPI PUSH1 0x1 ADD PUSH2 0x1E50 JUMP JUMPDEST PUSH1 0x1 PUSH1 0x1 PUSH1 0xA0 SHL SUB PUSH2 0x1E91 DUP3 PUSH2 0x2271 JUMP JUMPDEST SWAP1 SLOAD SWAP1 PUSH1 0x3 SHL SHR AND DUP1 EXTCODESIZE ISZERO PUSH2 0x194 JUMPI PUSH1 0x0 DUP1 SWAP2 PUSH1 0x4 PUSH1 0x40 MLOAD DUP1 SWAP5 DUP2 SWAP4 PUSH4 0xF8D5641 PUSH1 0xE3 SHL DUP4 MSTORE GAS CALL DUP1 ISZERO PUSH2 0x34D JUMPI PUSH2 0x1F54 JUMPI JUMPDEST POP PUSH2 0x1ECD PUSH2 0x26C8 JUMP JUMPDEST PUSH1 0x0 NOT DUP3 ADD SWAP2 DUP3 GT PUSH2 0x19FA JUMPI PUSH2 0x1CCE PUSH1 0x1 PUSH1 0x1 PUSH1 0xA0 SHL SUB PUSH2 0x1EF0 PUSH2 0x1EFE SWAP5 PUSH2 0x2271 JUMP JUMPDEST SWAP1 SLOAD SWAP1 PUSH1 0x3 SHL SHR AND SWAP2 PUSH2 0x2271 JUMP JUMPDEST PUSH1 0x2 SLOAD DUP1 ISZERO PUSH2 0x1F3E JUMPI PUSH1 0x0 NOT ADD PUSH2 0x1F14 DUP2 PUSH2 0x2271 JUMP JUMPDEST PUSH1 0x1 PUSH1 0x1 PUSH1 0xA0 SHL SUB DUP3 SLOAD SWAP2 PUSH1 0x3 SHL SHL NOT AND SWAP1 SSTORE PUSH1 0x2 SSTORE PUSH1 0x0 MSTORE PUSH1 0x3 PUSH1 0x20 MSTORE PUSH1 0x0 PUSH1 0x40 DUP2 KECCAK256 SSTORE PUSH1 0x0 DUP1 RETURN JUMPDEST PUSH4 0x4E487B71 PUSH1 0xE0 SHL PUSH1 0x0 MSTORE PUSH1 0x31 PUSH1 0x4 MSTORE PUSH1 0x24 PUSH1 0x0 REVERT JUMPDEST PUSH1 0x0 PUSH2 0x1F5F SWAP2 PUSH2 0x21BE JUMP JUMPDEST DUP4 PUSH2 0x1EC4 JUMP JUMPDEST CALLVALUE PUSH2 0x194 JUMPI PUSH1 0x0 CALLDATASIZE PUSH1 0x3 NOT ADD SLT PUSH2 0x194 JUMPI PUSH1 0x20 PUSH2 0x18C PUSH2 0x2299 JUMP JUMPDEST CALLVALUE PUSH2 0x194 JUMPI PUSH1 0x20 CALLDATASIZE PUSH1 0x3 NOT ADD SLT PUSH2 0x194 JUMPI PUSH1 0x4 CALLDATALOAD PUSH1 0x1 PUSH1 0x1 PUSH1 0xA0 SHL SUB DUP2 AND DUP1 SWAP2 SUB PUSH2 0x194 JUMPI PUSH1 0x0 MSTORE PUSH1 0x3 PUSH1 0x20 MSTORE PUSH1 0x20 PUSH1 0x40 PUSH1 0x0 KECCAK256 SLOAD PUSH1 0x40 MLOAD SWAP1 DUP2 MSTORE RETURN JUMPDEST CALLVALUE PUSH2 0x194 JUMPI PUSH1 0x40 CALLDATASIZE PUSH1 0x3 NOT ADD SLT PUSH2 0x194 JUMPI PUSH2 0x1FD6 PUSH2 0x2192 JUMP JUMPDEST PUSH1 0x24 CALLDATALOAD SWAP1 CALLER ISZERO PUSH2 0x1BA1 JUMPI PUSH1 0x1 PUSH1 0x1 PUSH1 0xA0 SHL SUB AND SWAP1 DUP2 ISZERO PUSH2 0x1B72 JUMPI CALLER PUSH1 0x0 SWAP1 DUP2 MSTORE PUSH32 0x52C63247E1F47DB19D5CE0460030C497F067CA4CEBF71BA98EEADABE20BACE01 PUSH1 0x20 MSTORE PUSH1 0x40 SWAP1 KECCAK256 DUP3 PUSH1 0x0 MSTORE PUSH1 0x20 MSTORE DUP1 PUSH1 0x40 PUSH1 0x0 KECCAK256 SSTORE PUSH1 0x40 MLOAD SWAP1 DUP2 MSTORE PUSH32 0x8C5BE1E5EBEC7D5BD14F71427D1E84F3DD0314C0F7B2291E5B200AC8C7C3B925 PUSH1 0x20 CALLER SWAP3 LOG3 PUSH1 0x20 PUSH1 0x40 MLOAD PUSH1 0x1 DUP2 MSTORE RETURN JUMPDEST CALLVALUE PUSH2 0x194 JUMPI PUSH1 0x0 CALLDATASIZE PUSH1 0x3 NOT ADD SLT PUSH2 0x194 JUMPI PUSH1 0x40 MLOAD PUSH1 0x0 PUSH32 0x52C63247E1F47DB19D5CE0460030C497F067CA4CEBF71BA98EEADABE20BACE03 SLOAD PUSH2 0x20A4 DUP2 PUSH2 0x2237 JUMP JUMPDEST DUP1 DUP5 MSTORE SWAP1 PUSH1 0x1 DUP2 AND SWAP1 DUP2 ISZERO PUSH2 0x1197 JUMPI POP PUSH1 0x1 EQ PUSH2 0x20CB JUMPI PUSH2 0x1115 DUP4 PUSH2 0x1109 DUP2 DUP6 SUB DUP3 PUSH2 0x21BE JUMP JUMPDEST PUSH32 0x52C63247E1F47DB19D5CE0460030C497F067CA4CEBF71BA98EEADABE20BACE03 PUSH1 0x0 SWAP1 DUP2 MSTORE PUSH32 0x2AE08A8E29253F69AC5D979A101956AB8F8D9D7DED63FA7A83B16FC47648EAB0 SWAP4 SWAP3 POP SWAP1 JUMPDEST DUP1 DUP3 LT PUSH2 0x212F JUMPI POP SWAP1 SWAP2 POP DUP2 ADD PUSH1 0x20 ADD PUSH2 0x1109 PUSH2 0x10F9 JUMP JUMPDEST SWAP2 SWAP3 PUSH1 0x1 DUP2 PUSH1 0x20 SWAP3 SLOAD DUP4 DUP6 DUP9 ADD ADD MSTORE ADD SWAP2 ADD SWAP1 SWAP3 SWAP2 PUSH2 0x2117 JUMP JUMPDEST SWAP2 SWAP1 SWAP2 PUSH1 0x20 DUP2 MSTORE DUP3 MLOAD DUP1 PUSH1 0x20 DUP4 ADD MSTORE PUSH1 0x0 JUMPDEST DUP2 DUP2 LT PUSH2 0x217C JUMPI POP PUSH1 0x40 SWAP3 SWAP4 POP PUSH1 0x0 DUP4 DUP3 DUP5 ADD ADD MSTORE PUSH1 0x1F DUP1 NOT SWAP2 ADD AND ADD ADD SWAP1 JUMP JUMPDEST DUP1 PUSH1 0x20 DUP1 SWAP3 DUP8 ADD ADD MLOAD PUSH1 0x40 DUP3 DUP7 ADD ADD MSTORE ADD PUSH2 0x215B JUMP JUMPDEST PUSH1 0x4 CALLDATALOAD SWAP1 PUSH1 0x1 PUSH1 0x1 PUSH1 0xA0 SHL SUB DUP3 AND DUP3 SUB PUSH2 0x194 JUMPI JUMP JUMPDEST PUSH1 0x24 CALLDATALOAD SWAP1 PUSH1 0x1 PUSH1 0x1 PUSH1 0xA0 SHL SUB DUP3 AND DUP3 SUB PUSH2 0x194 JUMPI JUMP JUMPDEST SWAP1 PUSH1 0x1F DUP1 NOT SWAP2 ADD AND DUP2 ADD SWAP1 DUP2 LT PUSH8 0xFFFFFFFFFFFFFFFF DUP3 GT OR PUSH2 0x436 JUMPI PUSH1 0x40 MSTORE JUMP JUMPDEST DUP2 PUSH1 0x1F DUP3 ADD SLT ISZERO PUSH2 0x194 JUMPI DUP1 CALLDATALOAD SWAP1 PUSH8 0xFFFFFFFFFFFFFFFF DUP3 GT PUSH2 0x436 JUMPI PUSH1 0x40 MLOAD SWAP3 PUSH2 0x2215 PUSH1 0x1F DUP5 ADD PUSH1 0x1F NOT AND PUSH1 0x20 ADD DUP6 PUSH2 0x21BE JUMP JUMPDEST DUP3 DUP5 MSTORE PUSH1 0x20 DUP4 DUP4 ADD ADD GT PUSH2 0x194 JUMPI DUP2 PUSH1 0x0 SWAP3 PUSH1 0x20 DUP1 SWAP4 ADD DUP4 DUP7 ADD CALLDATACOPY DUP4 ADD ADD MSTORE SWAP1 JUMP JUMPDEST SWAP1 PUSH1 0x1 DUP3 DUP2 SHR SWAP3 AND DUP1 ISZERO PUSH2 0x2267 JUMPI JUMPDEST PUSH1 0x20 DUP4 LT EQ PUSH2 0x2251 JUMPI JUMP JUMPDEST PUSH4 0x4E487B71 PUSH1 0xE0 SHL PUSH1 0x0 MSTORE PUSH1 0x22 PUSH1 0x4 MSTORE PUSH1 0x24 PUSH1 0x0 REVERT JUMPDEST SWAP2 PUSH1 0x7F AND SWAP2 PUSH2 0x2246 JUMP JUMPDEST PUSH1 0x2 SLOAD DUP2 LT ISZERO PUSH2 0x2B2 JUMPI PUSH1 0x2 PUSH1 0x0 MSTORE PUSH1 0x20 PUSH1 0x0 KECCAK256 ADD SWAP1 PUSH1 0x0 SWAP1 JUMP JUMPDEST SWAP2 SWAP1 DUP3 ADD DUP1 SWAP3 GT PUSH2 0x19FA JUMPI JUMP JUMPDEST PUSH2 0x22A1 PUSH2 0x28F2 JUMP JUMPDEST SWAP1 PUSH1 0x0 PUSH1 0x2 SLOAD JUMPDEST DUP1 DUP3 LT PUSH2 0x22B3 JUMPI POP POP JUMP JUMPDEST SWAP1 SWAP3 PUSH1 0x4 PUSH1 0x20 PUSH1 0x1 PUSH1 0x1 PUSH1 0xA0 SHL SUB PUSH2 0x22CA DUP8 PUSH2 0x2271 JUMP JUMPDEST SWAP1 SLOAD SWAP1 PUSH1 0x3 SHL SHR AND PUSH1 0x40 MLOAD SWAP3 DUP4 DUP1 SWAP3 PUSH4 0x765EF2F3 PUSH1 0xE1 SHL DUP3 MSTORE GAS STATICCALL SWAP1 DUP2 ISZERO PUSH2 0x34D JUMPI PUSH1 0x0 SWAP2 PUSH2 0x2309 JUMPI JUMPDEST POP PUSH2 0x2301 SWAP1 PUSH1 0x1 SWAP3 PUSH2 0x228C JUMP JUMPDEST SWAP4 ADD SWAP1 PUSH2 0x22A8 JUMP JUMPDEST SWAP1 PUSH1 0x20 DUP3 RETURNDATASIZE DUP3 GT PUSH2 0x2336 JUMPI JUMPDEST DUP2 PUSH2 0x2322 PUSH1 0x20 SWAP4 DUP4 PUSH2 0x21BE JUMP JUMPDEST DUP2 ADD SUB SLT PUSH2 0x2333 JUMPI POP MLOAD PUSH1 0x1 PUSH2 0x22F4 JUMP JUMPDEST DUP1 REVERT JUMPDEST RETURNDATASIZE SWAP2 POP PUSH2 0x2315 JUMP JUMPDEST ISZERO PUSH2 0x2345 JUMPI JUMP JUMPDEST PUSH1 0x64 PUSH1 0x40 MLOAD PUSH3 0x461BCD PUSH1 0xE5 SHL DUP2 MSTORE PUSH1 0x20 PUSH1 0x4 DUP3 ADD MSTORE PUSH1 0x12 PUSH1 0x24 DUP3 ADD MSTORE PUSH32 0x5374726174656779206E6F7420666F756E640000000000000000000000000000 PUSH1 0x44 DUP3 ADD MSTORE REVERT JUMPDEST SWAP2 SWAP1 DUP3 SUB SWAP2 DUP3 GT PUSH2 0x19FA JUMPI JUMP JUMPDEST ISZERO PUSH2 0x239D JUMPI JUMP JUMPDEST PUSH1 0x64 PUSH1 0x40 MLOAD PUSH3 0x461BCD PUSH1 0xE5 SHL DUP2 MSTORE PUSH1 0x20 PUSH1 0x4 DUP3 ADD MSTORE PUSH1 0x10 PUSH1 0x24 DUP3 ADD MSTORE PUSH32 0x496E76616C696420737472617465677900000000000000000000000000000000 PUSH1 0x44 DUP3 ADD MSTORE REVERT JUMPDEST SWAP1 DUP2 PUSH1 0x20 SWAP2 SUB SLT PUSH2 0x194 JUMPI MLOAD PUSH1 0x1 PUSH1 0x1 PUSH1 0xA0 SHL SUB DUP2 AND DUP2 SUB PUSH2 0x194 JUMPI SWAP1 JUMP JUMPDEST DUP2 DUP2 MUL SWAP3 SWAP2 DUP2 ISZERO SWAP2 DUP5 DIV EQ OR ISZERO PUSH2 0x19FA JUMPI JUMP JUMPDEST DUP2 ISZERO PUSH2 0x241D JUMPI DIV SWAP1 JUMP JUMPDEST PUSH4 0x4E487B71 PUSH1 0xE0 SHL PUSH1 0x0 MSTORE PUSH1 0x12 PUSH1 0x4 MSTORE PUSH1 0x24 PUSH1 0x0 REVERT JUMPDEST PUSH1 0x0 NOT DUP2 EQ PUSH2 0x19FA JUMPI PUSH1 0x1 ADD SWAP1 JUMP JUMPDEST SWAP1 DUP2 PUSH1 0x20 SWAP2 SUB SLT PUSH2 0x194 JUMPI MLOAD DUP1 ISZERO ISZERO DUP2 SUB PUSH2 0x194 JUMPI SWAP1 JUMP JUMPDEST PUSH2 0x2469 PUSH2 0x60D DUP3 PUSH2 0x608 PUSH2 0x2299 JUMP JUMPDEST SWAP1 PUSH2 0x2474 DUP2 CALLER PUSH2 0x2B9C JUMP JUMPDEST PUSH2 0x247C PUSH2 0x28F2 JUMP JUMPDEST DUP3 DUP2 LT PUSH2 0x2528 JUMPI JUMPDEST POP POP SWAP1 PUSH1 0x1 PUSH1 0x1 PUSH1 0xA0 SHL SUB PUSH1 0x1 SLOAD AND PUSH20 0xEEEEEEEEEEEEEEEEEEEEEEEEEEEEEEEEEEEEEEEE DUP2 EQ PUSH1 0x0 EQ PUSH2 0x24D6 JUMPI POP DUP2 PUSH1 0x0 DUP2 ISZERO PUSH2 0x24CD JUMPI JUMPDEST PUSH1 0x0 DUP1 DUP1 SWAP4 DUP2 SWAP4 CALLER SWAP1 CALL ISZERO PUSH2 0x34D JUMPI JUMP JUMPDEST POP PUSH2 0x8FC PUSH2 0x24BC JUMP JUMPDEST PUSH1 0x40 MLOAD PUSH4 0xA9059CBB PUSH1 0xE0 SHL DUP2 MSTORE CALLER PUSH1 0x4 DUP3 ADD MSTORE PUSH1 0x24 DUP2 ADD DUP5 SWAP1 MSTORE SWAP1 PUSH1 0x20 SWAP1 DUP3 SWAP1 PUSH1 0x44 SWAP1 DUP3 SWAP1 PUSH1 0x0 SWAP1 GAS CALL DUP1 ISZERO PUSH2 0x34D JUMPI PUSH2 0x250D JUMPI POP JUMP JUMPDEST PUSH2 0x2525 SWAP1 PUSH1 0x20 RETURNDATASIZE PUSH1 0x20 GT PUSH2 0x74B JUMPI PUSH2 0x73C DUP2 DUP4 PUSH2 0x21BE JUMP JUMPDEST POP JUMP JUMPDEST PUSH2 0x2532 SWAP1 DUP4 PUSH2 0x2389 JUMP JUMPDEST SWAP3 PUSH1 0x0 SWAP4 JUMPDEST PUSH1 0x2 SLOAD DUP6 LT DUP1 PUSH2 0x2674 JUMPI JUMPDEST ISZERO PUSH2 0x2650 JUMPI PUSH1 0x1 PUSH1 0x1 PUSH1 0xA0 SHL SUB PUSH2 0x2558 DUP7 PUSH2 0x2271 JUMP JUMPDEST SWAP1 SLOAD SWAP1 PUSH1 0x3 SHL SHR AND PUSH1 0x40 MLOAD PUSH4 0x765EF2F3 PUSH1 0xE1 SHL DUP2 MSTORE PUSH1 0x20 DUP2 PUSH1 0x4 DUP2 DUP6 GAS STATICCALL DUP1 ISZERO PUSH2 0x34D JUMPI DUP6 SWAP2 PUSH1 0x0 SWAP2 PUSH2 0x261A JUMPI JUMPDEST POP SWAP2 PUSH2 0x2599 PUSH2 0x60D PUSH1 0x20 SWAP4 PUSH1 0x0 SWAP6 PUSH2 0x2400 JUMP JUMPDEST DUP5 DUP2 GT PUSH2 0x2613 JUMPI JUMPDEST PUSH1 0x24 SWAP1 PUSH1 0x40 MLOAD SWAP5 DUP6 SWAP4 DUP5 SWAP3 PUSH4 0x2E1A7D4D PUSH1 0xE0 SHL DUP5 MSTORE PUSH1 0x4 DUP5 ADD MSTORE GAS CALL SWAP1 DUP2 ISZERO PUSH2 0x34D JUMPI PUSH1 0x0 SWAP2 PUSH2 0x25E0 JUMPI JUMPDEST POP PUSH2 0x812 SWAP1 PUSH2 0x25DA SWAP3 PUSH2 0x2389 JUMP JUMPDEST SWAP4 PUSH2 0x2537 JUMP JUMPDEST SWAP1 PUSH1 0x20 DUP3 RETURNDATASIZE DUP3 GT PUSH2 0x260B JUMPI JUMPDEST DUP2 PUSH2 0x25F9 PUSH1 0x20 SWAP4 DUP4 PUSH2 0x21BE JUMP JUMPDEST DUP2 ADD SUB SLT PUSH2 0x2333 JUMPI POP MLOAD PUSH2 0x25DA PUSH2 0x25CC JUMP JUMPDEST RETURNDATASIZE SWAP2 POP PUSH2 0x25EC JUMP JUMPDEST POP DUP4 PUSH2 0x25A1 JUMP JUMPDEST SWAP2 POP PUSH1 0x20 DUP3 RETURNDATASIZE DUP3 GT PUSH2 0x2648 JUMPI JUMPDEST DUP2 PUSH2 0x2634 PUSH1 0x20 SWAP4 DUP4 PUSH2 0x21BE JUMP JUMPDEST DUP2 ADD SUB SLT PUSH2 0x2333 JUMPI POP MLOAD DUP5 SWAP1 PUSH2 0x2599 PUSH2 0x2586 JUMP JUMPDEST RETURNDATASIZE SWAP2 POP PUSH2 0x2627 JUMP JUMPDEST POP SWAP3 POP POP PUSH2 0x265C PUSH2 0x28F2 JUMP JUMPDEST DUP2 DUP2 GT ISZERO PUSH2 0x266D JUMPI POP JUMPDEST CODESIZE DUP1 PUSH2 0x2484 JUMP JUMPDEST SWAP1 POP PUSH2 0x2666 JUMP JUMPDEST POP DUP1 ISZERO ISZERO PUSH2 0x2542 JUMP JUMPDEST ISZERO PUSH2 0x2684 JUMPI JUMP JUMPDEST PUSH1 0x64 PUSH1 0x40 MLOAD PUSH3 0x461BCD PUSH1 0xE5 SHL DUP2 MSTORE PUSH1 0x20 PUSH1 0x4 DUP3 ADD MSTORE PUSH1 0xE PUSH1 0x24 DUP3 ADD MSTORE PUSH32 0x4E6F7420617574686F72697A6564000000000000000000000000000000000000 PUSH1 0x44 DUP3 ADD MSTORE REVERT JUMPDEST PUSH2 0x26D0 PUSH2 0x28F2 JUMP JUMPDEST SWAP1 PUSH1 0x0 JUMPDEST PUSH1 0x2 SLOAD DUP2 LT ISZERO PUSH2 0x2821 JUMPI PUSH1 0x1 PUSH1 0x1 PUSH1 0xA0 SHL SUB PUSH2 0x26EF DUP3 PUSH2 0x2271 JUMP JUMPDEST SWAP1 SLOAD SWAP1 PUSH1 0x3 SHL SHR AND SWAP1 DUP2 PUSH1 0x0 MSTORE PUSH1 0x3 PUSH1 0x20 MSTORE PUSH2 0x2710 PUSH2 0x2713 PUSH1 0x40 PUSH1 0x0 KECCAK256 SLOAD DUP7 PUSH2 0x2400 JUMP JUMPDEST DIV DUP1 ISZERO PUSH2 0x2817 JUMPI PUSH1 0x0 SWAP1 PUSH1 0x1 PUSH1 0x1 PUSH1 0xA0 SHL SUB PUSH1 0x1 SLOAD AND PUSH20 0xEEEEEEEEEEEEEEEEEEEEEEEEEEEEEEEEEEEEEEEE DUP2 EQ DUP4 EQ PUSH2 0x27B5 JUMPI POP DUP2 DUP1 DUP1 SWAP3 DUP7 DUP3 CALL ISZERO PUSH2 0x34D JUMPI JUMPDEST DUP2 EXTCODESIZE ISZERO PUSH2 0x194 JUMPI PUSH1 0x0 DUP1 SWAP3 PUSH1 0x4 PUSH1 0x40 MLOAD DUP1 SWAP6 DUP2 SWAP4 PUSH32 0xD0E30DB000000000000000000000000000000000000000000000000000000000 DUP4 MSTORE GAS CALL SWAP2 DUP3 ISZERO PUSH2 0x34D JUMPI PUSH1 0x1 SWAP3 PUSH2 0x27A4 JUMPI JUMPDEST POP JUMPDEST ADD PUSH2 0x26D4 JUMP JUMPDEST PUSH1 0x0 PUSH2 0x27AF SWAP2 PUSH2 0x21BE JUMP JUMPDEST CODESIZE PUSH2 0x279C JUMP JUMPDEST PUSH1 0x40 MLOAD PUSH4 0xA9059CBB PUSH1 0xE0 SHL DUP2 MSTORE PUSH1 0x1 PUSH1 0x1 PUSH1 0xA0 SHL SUB DUP7 AND PUSH1 0x4 DUP3 ADD MSTORE PUSH1 0x24 DUP2 ADD SWAP3 SWAP1 SWAP3 MSTORE SWAP1 SWAP2 PUSH1 0x20 SWAP2 DUP4 SWAP2 PUSH1 0x44 SWAP2 DUP4 SWAP2 SWAP1 GAS CALL DUP1 ISZERO PUSH2 0x34D JUMPI PUSH2 0x27F9 JUMPI JUMPDEST POP PUSH2 0x2754 JUMP JUMPDEST PUSH2 0x2810 SWAP1 PUSH1 0x20 RETURNDATASIZE DUP2 GT PUSH2 0x74B JUMPI PUSH2 0x73C DUP2 DUP4 PUSH2 0x21BE JUMP JUMPDEST POP CODESIZE PUSH2 0x27F3 JUMP JUMPDEST POP PUSH1 0x1 SWAP2 POP PUSH2 0x279E JUMP JUMPDEST POP SWAP1 POP JUMP JUMPDEST PUSH1 0x1 PUSH1 0x1 PUSH1 0xA0 SHL SUB AND DUP1 ISZERO PUSH2 0x28C3 JUMPI PUSH1 0x1 PUSH1 0x1 PUSH1 0xA0 SHL SUB PUSH32 0x9016D09D72D40FDAE2FD8CEAC6B6234C7706214FD39C1CD1E609A0528C199300 SLOAD DUP3 PUSH20 0xFFFFFFFFFFFFFFFFFFFFFFFFFFFFFFFFFFFFFFFF NOT DUP3 AND OR PUSH32 0x9016D09D72D40FDAE2FD8CEAC6B6234C7706214FD39C1CD1E609A0528C199300 SSTORE AND PUSH32 0x8BE0079C531659141344CD1FD0A4F28419497F9722A3DAAFE3B4186F6B6457E0 PUSH1 0x0 DUP1 LOG3 JUMP JUMPDEST PUSH32 0x1E4FBDF700000000000000000000000000000000000000000000000000000000 PUSH1 0x0 MSTORE PUSH1 0x0 PUSH1 0x4 MSTORE PUSH1 0x24 PUSH1 0x0 REVERT JUMPDEST PUSH1 0x1 SLOAD PUSH1 0x1 PUSH1 0x1 PUSH1 0xA0 SHL SUB AND PUSH20 0xEEEEEEEEEEEEEEEEEEEEEEEEEEEEEEEEEEEEEEEE DUP2 SUB PUSH2 0x291E JUMPI POP SELFBALANCE SWAP1 JUMP JUMPDEST PUSH1 0x20 PUSH1 0x24 SWAP2 PUSH1 0x40 MLOAD SWAP3 DUP4 DUP1 SWAP3 PUSH32 0x70A0823100000000000000000000000000000000000000000000000000000000 DUP3 MSTORE ADDRESS PUSH1 0x4 DUP4 ADD MSTORE GAS STATICCALL SWAP1 DUP2 ISZERO PUSH2 0x34D JUMPI PUSH1 0x0 SWAP2 PUSH2 0x2967 JUMPI POP SWAP1 JUMP JUMPDEST SWAP1 POP PUSH1 0x20 DUP2 RETURNDATASIZE PUSH1 0x20 GT PUSH2 0x298E JUMPI JUMPDEST DUP2 PUSH2 0x2982 PUSH1 0x20 SWAP4 DUP4 PUSH2 0x21BE JUMP JUMPDEST DUP2 ADD SUB SLT PUSH2 0x194 JUMPI MLOAD SWAP1 JUMP JUMPDEST RETURNDATASIZE SWAP2 POP PUSH2 0x2975 JUMP JUMPDEST PUSH1 0x1 PUSH1 0x1 PUSH1 0xA0 SHL SUB PUSH32 0x9016D09D72D40FDAE2FD8CEAC6B6234C7706214FD39C1CD1E609A0528C199300 SLOAD AND CALLER SUB PUSH2 0x29C9 JUMPI JUMP JUMPDEST PUSH32 0x118CDAA700000000000000000000000000000000000000000000000000000000 PUSH1 0x0 MSTORE CALLER PUSH1 0x4 MSTORE PUSH1 0x24 PUSH1 0x0 REVERT JUMPDEST PUSH1 0x2 SLOAD SWAP1 PUSH1 0x0 JUMPDEST DUP3 DUP2 LT PUSH2 0x2A0D JUMPI POP POP POP PUSH1 0x0 SWAP1 JUMP JUMPDEST PUSH1 0x1 PUSH1 0x1 PUSH1 0xA0 SHL SUB PUSH2 0x2A1E DUP3 PUSH2 0x2271 JUMP JUMPDEST SWAP1 SLOAD SWAP1 PUSH1 0x3 SHL SHR AND PUSH1 0x1 PUSH1 0x1 PUSH1 0xA0 SHL SUB DUP4 AND EQ PUSH2 0x2A3D JUMPI PUSH1 0x1 ADD PUSH2 0x29FE JUMP JUMPDEST POP POP POP PUSH1 0x1 SWAP1 JUMP JUMPDEST PUSH1 0x1 PUSH1 0x1 PUSH1 0xA0 SHL SUB AND SWAP1 DUP2 ISZERO PUSH2 0x2B6D JUMPI PUSH1 0x1 PUSH1 0x1 PUSH1 0xA0 SHL SUB AND SWAP2 DUP3 ISZERO PUSH2 0x2B3E JUMPI PUSH1 0x0 DUP3 DUP2 MSTORE PUSH32 0x52C63247E1F47DB19D5CE0460030C497F067CA4CEBF71BA98EEADABE20BACE00 PUSH1 0x20 MSTORE PUSH1 0x40 DUP2 KECCAK256 SLOAD DUP3 DUP2 LT PUSH2 0x2B24 JUMPI SWAP2 PUSH1 0x40 DUP3 DUP3 PUSH32 0xDDF252AD1BE2C89B69C2B068FC378DAA952BA7F163C4A11628F55A4DF523B3EF SWAP6 DUP8 PUSH1 0x20 SWAP7 MSTORE PUSH32 0x52C63247E1F47DB19D5CE0460030C497F067CA4CEBF71BA98EEADABE20BACE00 DUP7 MSTORE SUB DUP3 DUP3 KECCAK256 SSTORE DUP7 DUP2 MSTORE PUSH32 0x52C63247E1F47DB19D5CE0460030C497F067CA4CEBF71BA98EEADABE20BACE00 DUP5 MSTORE KECCAK256 DUP2 DUP2 SLOAD ADD SWAP1 SSTORE PUSH1 0x40 MLOAD SWAP1 DUP2 MSTORE LOG3 JUMP JUMPDEST PUSH1 0x64 SWAP4 PUSH4 0x391434E3 PUSH1 0xE2 SHL DUP4 SWAP5 SWAP4 MSTORE PUSH1 0x4 MSTORE PUSH1 0x24 MSTORE PUSH1 0x44 MSTORE REVERT JUMPDEST PUSH32 0xEC442F0500000000000000000000000000000000000000000000000000000000 PUSH1 0x0 MSTORE PUSH1 0x0 PUSH1 0x4 MSTORE PUSH1 0x24 PUSH1 0x0 REVERT JUMPDEST PUSH32 0x96C6FD1E00000000000000000000000000000000000000000000000000000000 PUSH1 0x0 MSTORE PUSH1 0x0 PUSH1 0x4 MSTORE PUSH1 0x24 PUSH1 0x0 REVERT JUMPDEST PUSH1 0x1 PUSH1 0x1 PUSH1 0xA0 SHL SUB AND DUP1 ISZERO PUSH2 0x2B6D JUMPI PUSH1 0x0 SWAP2 DUP2 DUP4 MSTORE PUSH32 0x52C63247E1F47DB19D5CE0460030C497F067CA4CEBF71BA98EEADABE20BACE00 PUSH1 0x20 MSTORE PUSH1 0x40 DUP4 KECCAK256 SLOAD DUP2 DUP2 LT PUSH2 0x2C82 JUMPI DUP2 PUSH32 0xDDF252AD1BE2C89B69C2B068FC378DAA952BA7F163C4A11628F55A4DF523B3EF SWAP3 PUSH1 0x20 SWAP3 DUP6 DUP8 MSTORE PUSH32 0x52C63247E1F47DB19D5CE0460030C497F067CA4CEBF71BA98EEADABE20BACE00 DUP5 MSTORE SUB PUSH1 0x40 DUP7 KECCAK256 SSTORE DUP1 PUSH32 0x52C63247E1F47DB19D5CE0460030C497F067CA4CEBF71BA98EEADABE20BACE02 SLOAD SUB PUSH32 0x52C63247E1F47DB19D5CE0460030C497F067CA4CEBF71BA98EEADABE20BACE02 SSTORE PUSH1 0x40 MLOAD SWAP1 DUP2 MSTORE LOG3 JUMP JUMPDEST DUP4 SWAP3 PUSH4 0x391434E3 PUSH1 0xE2 SHL PUSH1 0x64 SWAP6 MSTORE PUSH1 0x4 MSTORE PUSH1 0x24 MSTORE PUSH1 0x44 MSTORE REVERT JUMPDEST PUSH1 0x2 PUSH1 0x0 SLOAD EQ PUSH2 0x2CAC JUMPI PUSH1 0x2 PUSH1 0x0 SSTORE JUMP JUMPDEST PUSH32 0x3EE5AEB500000000000000000000000000000000000000000000000000000000 PUSH1 0x0 MSTORE PUSH1 0x4 PUSH1 0x0 REVERT JUMPDEST PUSH1 0x1 PUSH1 0x1 PUSH1 0xA0 SHL SUB AND SWAP1 DUP2 ISZERO PUSH2 0x2B3E JUMPI PUSH32 0xDDF252AD1BE2C89B69C2B068FC378DAA952BA7F163C4A11628F55A4DF523B3EF PUSH1 0x20 DUP3 PUSH2 0x2D37 PUSH1 0x0 SWAP5 PUSH32 0x52C63247E1F47DB19D5CE0460030C497F067CA4CEBF71BA98EEADABE20BACE02 SLOAD PUSH2 0x228C JUMP JUMPDEST PUSH32 0x52C63247E1F47DB19D5CE0460030C497F067CA4CEBF71BA98EEADABE20BACE02 SSTORE DUP5 DUP5 MSTORE PUSH32 0x52C63247E1F47DB19D5CE0460030C497F067CA4CEBF71BA98EEADABE20BACE00 DUP3 MSTORE PUSH1 0x40 DUP5 KECCAK256 DUP2 DUP2 SLOAD ADD SWAP1 SSTORE PUSH1 0x40 MLOAD SWAP1 DUP2 MSTORE LOG3 JUMP JUMPDEST PUSH1 0xFF PUSH32 0xF0C57E16840DF040F15088DC2F81FE391C3923BEC73E23A9662EFC9C229C6A00 SLOAD PUSH1 0x40 SHR AND ISZERO PUSH2 0x2DC1 JUMPI JUMP JUMPDEST PUSH32 0xD7E6BCF800000000000000000000000000000000000000000000000000000000 PUSH1 0x0 MSTORE PUSH1 0x4 PUSH1 0x0 REVERT INVALID LOG2 PUSH5 0x6970667358 0x22 SLT KECCAK256 0xDA STOP MSIZE 0xE3 CALLDATALOAD COINBASE 0xB4 EXTCODEHASH 0xC1 0x2B 0x2C 0xAD 0x2F 0xDD 0xF9 0xEC PUSH30 0x1266C157D7900ED36DB1DF0E72017B64736F6C634300081C003300000000 "
        },
        "methodIdentifiers": {
          "addStrategy(address)": "223e5479",
          "allowance(address,address)": "dd62ed3e",
          "approve(address,uint256)": "095ea7b3",
          "balanceOf(address)": "70a08231",
          "decimals()": "313ce567",
          "deposit(uint256)": "b6b55f25",
          "depositFromAccount(uint256,address)": "b76e07cc",
          "earn()": "d389800f",
          "getAllocation(address)": "0e022923",
          "getAsset()": "5c222bad",
          "getAvailable()": "f9cc0605",
          "getBalance()": "12065fe0",
          "getLastHarvest(uint256)": "a29b3c90",
          "getShares(uint256)": "6f7267b7",
          "getStrategies()": "b49a60bb",
          "getSummary()": "4051ddac",
          "initialize(string,string,address,address)": "8f15b414",
          "name()": "06fdde03",
          "owner()": "8da5cb5b",
          "reallocate(uint256[])": "ee6ce925",
          "removeStrategy(address)": "175188e8",
          "renounceOwnership()": "715018a6",
          "symbol()": "95d89b41",
          "totalSupply()": "18160ddd",
          "transfer(address,uint256)": "a9059cbb",
          "transferFrom(address,address,uint256)": "23b872dd",
          "transferOwnership(address)": "f2fde38b",
          "withdraw(uint256)": "2e1a7d4d",
          "withdrawAll()": "853828b6",
          "withdrawAllToAccount(address)": "c07e866e",
          "withdrawToAccount(uint256,address)": "a49b5cb4"
        }
      }
    }
  }
}