{
  "contracts/Agent.sol": {
    "Agent": {
      "abi": [
        {
          "inputs": [
            {
              "internalType": "uint256",
              "name": "feePerTask",
              "type": "uint256"
            },
            {
              "internalType": "address",
              "name": "feeCollector",
              "type": "address"
            },
            {
              "internalType": "contract IERC20",
              "name": "feeToken",
              "type": "address"
            },
            {
              "internalType": "contract IAddressesProvider",
              "name": "provider",
              "type": "address"
            }
          ],
          "stateMutability": "nonpayable",
          "type": "constructor"
        },
        {
          "inputs": [
            {
              "internalType": "address",
              "name": "owner",
              "type": "address"
            }
          ],
          "name": "OwnableInvalidOwner",
          "type": "error"
        },
        {
          "inputs": [
            {
              "internalType": "address",
              "name": "account",
              "type": "address"
            }
          ],
          "name": "OwnableUnauthorizedAccount",
          "type": "error"
        },
        {
          "anonymous": false,
          "inputs": [
            {
              "indexed": false,
              "internalType": "address",
              "name": "account",
              "type": "address"
            },
            {
              "indexed": false,
              "internalType": "enum Enums.ApprovalFlag",
              "name": "flag",
              "type": "uint8"
            }
          ],
          "name": "Approval",
          "type": "event"
        },
        {
          "anonymous": false,
          "inputs": [
            {
              "indexed": false,
              "internalType": "address",
              "name": "account",
              "type": "address"
            },
            {
              "indexed": false,
              "internalType": "address",
              "name": "agent",
              "type": "address"
            },
            {
              "indexed": false,
              "internalType": "bool",
              "name": "hasFunds",
              "type": "bool"
            }
          ],
          "name": "BeforeTask",
          "type": "event"
        },
        {
          "anonymous": false,
          "inputs": [
            {
              "indexed": true,
              "internalType": "address",
              "name": "previousOwner",
              "type": "address"
            },
            {
              "indexed": true,
              "internalType": "address",
              "name": "newOwner",
              "type": "address"
            }
          ],
          "name": "OwnershipTransferred",
          "type": "event"
        },
        {
          "inputs": [],
          "name": "_interval",
          "outputs": [
            {
              "internalType": "uint256",
              "name": "",
              "type": "uint256"
            }
          ],
          "stateMutability": "view",
          "type": "function"
        },
        {
          "inputs": [],
          "name": "_lastTimeStamp",
          "outputs": [
            {
              "internalType": "uint256",
              "name": "",
              "type": "uint256"
            }
          ],
          "stateMutability": "view",
          "type": "function"
        },
        {
          "inputs": [
            {
              "internalType": "bytes",
              "name": "response",
              "type": "bytes"
            }
          ],
          "name": "addStrategy",
          "outputs": [],
          "stateMutability": "nonpayable",
          "type": "function"
        },
        {
          "inputs": [
            {
              "internalType": "contract IAccount",
              "name": "account",
              "type": "address"
            }
          ],
          "name": "allowance",
          "outputs": [
            {
              "internalType": "enum Enums.ApprovalFlag",
              "name": "flag",
              "type": "uint8"
            }
          ],
          "stateMutability": "view",
          "type": "function"
        },
        {
          "inputs": [
            {
              "internalType": "enum Enums.ApprovalFlag",
              "name": "flag",
              "type": "uint8"
            }
          ],
          "name": "approve",
          "outputs": [],
          "stateMutability": "nonpayable",
          "type": "function"
        },
        {
          "inputs": [
            {
              "internalType": "contract IAccount",
              "name": "account",
              "type": "address"
            },
            {
              "internalType": "enum Enums.ApprovalFlag",
              "name": "flag",
              "type": "uint8"
            }
          ],
          "name": "checkApproval",
          "outputs": [],
          "stateMutability": "view",
          "type": "function"
        },
        {
          "inputs": [
            {
              "internalType": "bytes",
              "name": "",
              "type": "bytes"
            }
          ],
          "name": "checkUpkeep",
          "outputs": [
            {
              "internalType": "bool",
              "name": "upkeepNeeded",
              "type": "bool"
            },
            {
              "internalType": "bytes",
              "name": "checkData",
              "type": "bytes"
            }
          ],
          "stateMutability": "view",
          "type": "function"
        },
        {
          "inputs": [
            {
              "internalType": "contract IVault",
              "name": "vault",
              "type": "address"
            },
            {
              "internalType": "uint256",
              "name": "amountScaled",
              "type": "uint256"
            },
            {
              "internalType": "contract IAccount",
              "name": "account",
              "type": "address"
            }
          ],
          "name": "depositFromAccount",
          "outputs": [
            {
              "internalType": "uint256",
              "name": "lpMinted",
              "type": "uint256"
            }
          ],
          "stateMutability": "nonpayable",
          "type": "function"
        },
        {
          "inputs": [],
          "name": "getFeeToken",
          "outputs": [
            {
              "internalType": "contract IERC20",
              "name": "feeToken",
              "type": "address"
            }
          ],
          "stateMutability": "view",
          "type": "function"
        },
        {
          "inputs": [],
          "name": "owner",
          "outputs": [
            {
              "internalType": "address",
              "name": "",
              "type": "address"
            }
          ],
          "stateMutability": "view",
          "type": "function"
        },
        {
          "inputs": [
            {
              "internalType": "bytes",
              "name": "checkData",
              "type": "bytes"
            }
          ],
          "name": "performUpkeep",
          "outputs": [],
          "stateMutability": "nonpayable",
          "type": "function"
        },
        {
          "inputs": [
            {
              "internalType": "bytes",
              "name": "response",
              "type": "bytes"
            }
          ],
          "name": "reallocation",
          "outputs": [],
          "stateMutability": "nonpayable",
          "type": "function"
        },
        {
          "inputs": [
            {
              "internalType": "bytes",
              "name": "response",
              "type": "bytes"
            }
          ],
          "name": "removeStrategy",
          "outputs": [],
          "stateMutability": "nonpayable",
          "type": "function"
        },
        {
          "inputs": [],
          "name": "renounceOwnership",
          "outputs": [],
          "stateMutability": "nonpayable",
          "type": "function"
        },
        {
          "inputs": [
            {
              "internalType": "address",
              "name": "newOwner",
              "type": "address"
            }
          ],
          "name": "transferOwnership",
          "outputs": [],
          "stateMutability": "nonpayable",
          "type": "function"
        },
        {
          "inputs": [
            {
              "internalType": "contract IVault",
              "name": "vault",
              "type": "address"
            },
            {
              "internalType": "contract IAccount",
              "name": "account",
              "type": "address"
            }
          ],
          "name": "withdrawAllToAccount",
          "outputs": [
            {
              "internalType": "uint256",
              "name": "amountScaled",
              "type": "uint256"
            }
          ],
          "stateMutability": "nonpayable",
          "type": "function"
        },
        {
          "inputs": [
            {
              "internalType": "contract IVault",
              "name": "vault",
              "type": "address"
            },
            {
              "internalType": "uint256",
              "name": "lpAmount",
              "type": "uint256"
            },
            {
              "internalType": "contract IAccount",
              "name": "account",
              "type": "address"
            }
          ],
          "name": "withdrawToAccount",
          "outputs": [
            {
              "internalType": "uint256",
              "name": "amountScaled",
              "type": "uint256"
            }
          ],
          "stateMutability": "nonpayable",
          "type": "function"
        }
      ],
      "evm": {
        "bytecode": {
          "linkReferences": {},
          "object": "60803461013057601f61137538819003918201601f19168301916001600160401b038311848410176101355780849260809460405283398101031261013057805160208201516001600160a01b03811691908290036101305760408301516001600160a01b038116939084900361013057606001516001600160a01b0381169081900361013057331561011a5760008054336001600160a01b0319821681178355604051969290916001600160a01b0316907f8be0079c531659141344cd1fd0a4f28419497f9722a3daafe3b4186f6b6457e09080a36136b060075560018060a01b0319600354161760035560018060a01b0319600454161760045560015560018060a01b03196002541617600255611229908161014c8239f35b631e4fbdf760e01b600052600060045260246000fd5b600080fd5b634e487b7160e01b600052604160045260246000fdfe6080604052600436101561001257600080fd5b6000803560e01c80630ff199de14610c515780633e5beab914610c0f5780634585e33b14610acd57806347a471a114610a725780634a86e1a61461099e5780634b837649146109405780636e04ff0d146108b0578063715018a61461084a5780638da5cb5b14610824578063aa91c9c614610806578063ca709a25146107df578063e0ab4650146105fa578063e76e8cad14610525578063f2fde38b14610477578063f887cf00146102ad578063fabbf02c1461028f5763fca0025d146100d857600080fd5b3461028c57602036600319011261028c57600435600481101561028a57600460206001600160a01b03825416604051928380927f9068a8680000000000000000000000000000000000000000000000000000000082525afa908115610252576001600160a01b0391602091859161025d575b506024604051809481937ffbcbc0f1000000000000000000000000000000000000000000000000000000008352336004840152165afa9081156102525783916101ec575b507faf80aa5cc016b82830abf03e3110890fcd831f57410495acdf9cc3b3973129e9916101e86001600160a01b036040931691828652600560205283862060ff1981541660ff831617905583519283526020830190610d31565ba180f35b90506020813d60201161024a575b8161020760209383610da5565b8101031261024657516001600160a01b0381168103610246577faf80aa5cc016b82830abf03e3110890fcd831f57410495acdf9cc3b3973129e961018e565b8280fd5b3d91506101fa565b6040513d85823e3d90fd5b61027d9150823d8411610283575b6102758183610da5565b810190610e79565b3861014a565b503d61026b565b505b80fd5b503461028c578060031936011261028c576020600654604051908152f35b503461028c57604036600319011261028c576102c7610ce1565b602435906004821015610246576001600160a01b03168252600560205260ff60408320541660048110159182610411578115610433576001811480610425575b8381610400575b506103bc576002149182610396575b82610370575b505061032c5780f35b606460405162461bcd60e51b815260206004820152601560248201527f5769746864726177206e6f7420617070726f76656400000000000000000000006044820152fd5b90915061038257600314153880610323565b602482634e487b7160e01b81526021600452fd5b8092506103a85760028114159161031d565b602483634e487b7160e01b81526021600452fd5b606460405162461bcd60e51b815260206004820152601460248201527f4465706f736974206e6f7420617070726f7665640000000000000000000000006044820152fd5b90506104115760038214158361030e565b602484634e487b7160e01b81526021600452fd5b508392506001821415610307565b606460405162461bcd60e51b815260206004820152601160248201527f55736572206e6f7420617070726f7665640000000000000000000000000000006044820152fd5b503461028c57602036600319011261028c576004356001600160a01b03811680910361028a576104a56111b1565b80156104f9576001600160a01b0382548273ffffffffffffffffffffffffffffffffffffffff198216178455167f8be0079c531659141344cd1fd0a4f28419497f9722a3daafe3b4186f6b6457e08380a380f35b6024827f1e4fbdf700000000000000000000000000000000000000000000000000000000815280600452fd5b503461028c5761059990602061053a36610cf7565b919061054583611039565b846001600160a01b036040518098819682957fb76e07cc000000000000000000000000000000000000000000000000000000008452600484019092916001600160a01b036020916040840195845216910152565b0393165af19081156105ee57906105b6575b602090604051908152f35b506020813d6020116105e6575b816105d060209383610da5565b810103126105e157602090516105ab565b600080fd5b3d91506105c3565b604051903d90823e3d90fd5b503461028c5761060936610ddd565b600460206001600160a01b0382541660405192838092630f63be0160e01b82525afa9081156102525761064f916001600160a01b039185916107c0575b50163314610e98565b8051810190604081602084019303126102465761066e60208201610ee3565b9060408101519067ffffffffffffffff82116107bc57019082603f830112156107905760208201519267ffffffffffffffff84116107a8578360051b92604051946106bc6020860187610da5565b855260208501906020808396830101019283116107a457604001905b828210610794575050506001600160a01b031690813b1561079057918380936040519384917fee6ce92500000000000000000000000000000000000000000000000000000000835260248301946020600485015251809552604483019094845b8181106107745750508380955083809203925af18015610767576107595780f35b61076291610da5565b818180f35b50604051903d90823e3d90fd5b8651835260209687019689965088955090920191600101610738565b8380fd5b81518152602091820191016106d8565b8680fd5b602485634e487b7160e01b81526041600452fd5b8480fd5b6107d9915060203d602011610283576102758183610da5565b38610646565b503461028c578060031936011261028c5760206001600160a01b0360035416604051908152f35b503461028c578060031936011261028c576020600754604051908152f35b503461028c578060031936011261028c576001600160a01b036020915416604051908152f35b503461028c578060031936011261028c576108636111b1565b806001600160a01b03815473ffffffffffffffffffffffffffffffffffffffff1981168355167f8be0079c531659141344cd1fd0a4f28419497f9722a3daafe3b4186f6b6457e08280a380f35b503461028c576108bf36610d54565b50506108cd60065442610e56565b60075410602090604051916108e28184610da5565b838352601f19810136828501376040519384928352604082840152835191826040850152815b83811061092957505060608094508284010152601f80199101168101030190f35b808601820151878201606001528694508101610908565b503461028c57600461095136610ddd565b60206001600160a01b0383541660405193848092630f63be0160e01b82525afa8015610252576001600160a01b036109969161099b9486916107c05750163314610e98565b610fb3565b80f35b503461028c57604036600319011261028c576109b8610ce1565b602435906001600160a01b038216908183036107905760246020926109e46001600160a01b0395611039565b8560405195869485937fc07e866e0000000000000000000000000000000000000000000000000000000085526004850152165af1908115610a67578291610a31575b602082604051908152f35b90506020813d602011610a5f575b81610a4c60209383610da5565b8101031261028a57602091505138610a26565b3d9150610a3f565b6040513d84823e3d90fd5b503461028c576004610a8336610ddd565b60206001600160a01b0383541660405193848092630f63be0160e01b82525afa8015610252576001600160a01b03610ac89161099b9486916107c05750163314610e98565b610f1b565b503461028c57610adc36610d54565b610ae860065442610e56565b60075410610af4578280f35b816060918101031261028a57803560038110156102465760208201359167ffffffffffffffff831680930361079057604001359163ffffffff83168093036107905760049160206001600160a01b0384541660405194858092630f63be0160e01b82525afa908582156105ee576001600160a01b036064936020968391610bf2575b5060405197889687957f72642f2b000000000000000000000000000000000000000000000000000000008752600487015260248601526044850152165af18015610a6757610bc357808280f35b6020813d602011610bea575b81610bdc60209383610da5565b8101031261028a5751808280f35b3d9150610bcf565b610c099150873d8911610283576102758183610da5565b38610b76565b503461028c57602036600319011261028c5760ff60406020926001600160a01b03610c38610ce1565b16815260058452205416610c4f6040518092610d31565bf35b503461028c57610cc46020610c6536610cf7565b9190610c7083611039565b856001600160a01b036040518097819682957fa49b5cb4000000000000000000000000000000000000000000000000000000008452600484019092916001600160a01b036020916040840195845216910152565b0393165af1908115610a67578291610a3157602082604051908152f35b600435906001600160a01b03821682036105e157565b60609060031901126105e1576004356001600160a01b03811681036105e15790602435906044356001600160a01b03811681036105e15790565b906004821015610d3e5752565b634e487b7160e01b600052602160045260246000fd5b9060206003198301126105e15760043567ffffffffffffffff81116105e157826023820112156105e15780600401359267ffffffffffffffff84116105e157602484830101116105e1576024019190565b90601f8019910116810190811067ffffffffffffffff821117610dc757604052565b634e487b7160e01b600052604160045260246000fd5b60206003198201126105e15760043567ffffffffffffffff81116105e157816023820112156105e15780600401359067ffffffffffffffff8211610dc75760405192610e33601f8401601f191660200185610da5565b828452602483830101116105e15781600092602460209301838601378301015290565b91908203918211610e6357565b634e487b7160e01b600052601160045260246000fd5b908160209103126105e157516001600160a01b03811681036105e15790565b15610e9f57565b606460405162461bcd60e51b815260206004820152600e60248201527f4f6e6c792066756e6374696f6e730000000000000000000000000000000000006044820152fd5b51906001600160a01b03821682036105e157565b91908260409103126105e157610f186020610f1184610ee3565b9301610ee3565b90565b6001600160a01b03610f37819260208082518301019101610ef7565b921691169060009181158015610fab575b610fa657813b156102465782916024839260405194859384927f175188e800000000000000000000000000000000000000000000000000000000845260048401525af18015610a6757610f99575050565b81610fa391610da5565b50565b505050565b508015610f48565b6001600160a01b03610fcf819260208082518301019101610ef7565b921691169060009181158015611031575b610fa657813b156102465782916024839260405194859384927f223e547900000000000000000000000000000000000000000000000000000000845260048401525af18015610a6757610f99575050565b508015610fe0565b6001600160a01b038060035416911690604051907f70a08231000000000000000000000000000000000000000000000000000000008252826004830152602082602481845afa9182156111715760009261117d575b506001548092101591826110d8575b50507f4b07b434919e25d56e2425b6a75582bf959a6da1da0d8f1d7e47c77267a35e6b916060916040519182523060208301526040820152a1565b60209060646001600160a01b0360025416600060405195869485937f23b872dd0000000000000000000000000000000000000000000000000000000085528a6004860152602485015260448401525af1801561117157611139575b8061109d565b6020813d602011611169575b8161115260209383610da5565b810103126105e15751801515036105e15738611133565b3d9150611145565b6040513d6000823e3d90fd5b9091506020813d6020116111a9575b8161119960209383610da5565b810103126105e15751903861108e565b3d915061118c565b6001600160a01b036000541633036111c557565b7f118cdaa7000000000000000000000000000000000000000000000000000000006000523360045260246000fdfea2646970667358221220c0f55cc62d3d47e1a44e49b30bf221b315d757e69faf3598c89c5c3e92a9a8c364736f6c634300081c0033",
          "opcodes": "PUSH1 0x80 CALLVALUE PUSH2 0x130 JUMPI PUSH1 0x1F PUSH2 0x1375 CODESIZE DUP2 SWAP1 SUB SWAP2 DUP3 ADD PUSH1 0x1F NOT AND DUP4 ADD SWAP2 PUSH1 0x1 PUSH1 0x1 PUSH1 0x40 SHL SUB DUP4 GT DUP5 DUP5 LT OR PUSH2 0x135 JUMPI DUP1 DUP5 SWAP3 PUSH1 0x80 SWAP5 PUSH1 0x40 MSTORE DUP4 CODECOPY DUP2 ADD SUB SLT PUSH2 0x130 JUMPI DUP1 MLOAD PUSH1 0x20 DUP3 ADD MLOAD PUSH1 0x1 PUSH1 0x1 PUSH1 0xA0 SHL SUB DUP2 AND SWAP2 SWAP1 DUP3 SWAP1 SUB PUSH2 0x130 JUMPI PUSH1 0x40 DUP4 ADD MLOAD PUSH1 0x1 PUSH1 0x1 PUSH1 0xA0 SHL SUB DUP2 AND SWAP4 SWAP1 DUP5 SWAP1 SUB PUSH2 0x130 JUMPI PUSH1 0x60 ADD MLOAD PUSH1 0x1 PUSH1 0x1 PUSH1 0xA0 SHL SUB DUP2 AND SWAP1 DUP2 SWAP1 SUB PUSH2 0x130 JUMPI CALLER ISZERO PUSH2 0x11A JUMPI PUSH1 0x0 DUP1 SLOAD CALLER PUSH1 0x1 PUSH1 0x1 PUSH1 0xA0 SHL SUB NOT DUP3 AND DUP2 OR DUP4 SSTORE PUSH1 0x40 MLOAD SWAP7 SWAP3 SWAP1 SWAP2 PUSH1 0x1 PUSH1 0x1 PUSH1 0xA0 SHL SUB AND SWAP1 PUSH32 0x8BE0079C531659141344CD1FD0A4F28419497F9722A3DAAFE3B4186F6B6457E0 SWAP1 DUP1 LOG3 PUSH2 0x36B0 PUSH1 0x7 SSTORE PUSH1 0x1 DUP1 PUSH1 0xA0 SHL SUB NOT PUSH1 0x3 SLOAD AND OR PUSH1 0x3 SSTORE PUSH1 0x1 DUP1 PUSH1 0xA0 SHL SUB NOT PUSH1 0x4 SLOAD AND OR PUSH1 0x4 SSTORE PUSH1 0x1 SSTORE PUSH1 0x1 DUP1 PUSH1 0xA0 SHL SUB NOT PUSH1 0x2 SLOAD AND OR PUSH1 0x2 SSTORE PUSH2 0x1229 SWAP1 DUP2 PUSH2 0x14C DUP3 CODECOPY RETURN JUMPDEST PUSH4 0x1E4FBDF7 PUSH1 0xE0 SHL PUSH1 0x0 MSTORE PUSH1 0x0 PUSH1 0x4 MSTORE PUSH1 0x24 PUSH1 0x0 REVERT JUMPDEST PUSH1 0x0 DUP1 REVERT JUMPDEST PUSH4 0x4E487B71 PUSH1 0xE0 SHL PUSH1 0x0 MSTORE PUSH1 0x41 PUSH1 0x4 MSTORE PUSH1 0x24 PUSH1 0x0 REVERT INVALID PUSH1 0x80 PUSH1 0x40 MSTORE PUSH1 0x4 CALLDATASIZE LT ISZERO PUSH2 0x12 JUMPI PUSH1 0x0 DUP1 REVERT JUMPDEST PUSH1 0x0 DUP1 CALLDATALOAD PUSH1 0xE0 SHR DUP1 PUSH4 0xFF199DE EQ PUSH2 0xC51 JUMPI DUP1 PUSH4 0x3E5BEAB9 EQ PUSH2 0xC0F JUMPI DUP1 PUSH4 0x4585E33B EQ PUSH2 0xACD JUMPI DUP1 PUSH4 0x47A471A1 EQ PUSH2 0xA72 JUMPI DUP1 PUSH4 0x4A86E1A6 EQ PUSH2 0x99E JUMPI DUP1 PUSH4 0x4B837649 EQ PUSH2 0x940 JUMPI DUP1 PUSH4 0x6E04FF0D EQ PUSH2 0x8B0 JUMPI DUP1 PUSH4 0x715018A6 EQ PUSH2 0x84A JUMPI DUP1 PUSH4 0x8DA5CB5B EQ PUSH2 0x824 JUMPI DUP1 PUSH4 0xAA91C9C6 EQ PUSH2 0x806 JUMPI DUP1 PUSH4 0xCA709A25 EQ PUSH2 0x7DF JUMPI DUP1 PUSH4 0xE0AB4650 EQ PUSH2 0x5FA JUMPI DUP1 PUSH4 0xE76E8CAD EQ PUSH2 0x525 JUMPI DUP1 PUSH4 0xF2FDE38B EQ PUSH2 0x477 JUMPI DUP1 PUSH4 0xF887CF00 EQ PUSH2 0x2AD JUMPI DUP1 PUSH4 0xFABBF02C EQ PUSH2 0x28F JUMPI PUSH4 0xFCA0025D EQ PUSH2 0xD8 JUMPI PUSH1 0x0 DUP1 REVERT JUMPDEST CALLVALUE PUSH2 0x28C JUMPI PUSH1 0x20 CALLDATASIZE PUSH1 0x3 NOT ADD SLT PUSH2 0x28C JUMPI PUSH1 0x4 CALLDATALOAD PUSH1 0x4 DUP2 LT ISZERO PUSH2 0x28A JUMPI PUSH1 0x4 PUSH1 0x20 PUSH1 0x1 PUSH1 0x1 PUSH1 0xA0 SHL SUB DUP3 SLOAD AND PUSH1 0x40 MLOAD SWAP3 DUP4 DUP1 SWAP3 PUSH32 0x9068A86800000000000000000000000000000000000000000000000000000000 DUP3 MSTORE GAS STATICCALL SWAP1 DUP2 ISZERO PUSH2 0x252 JUMPI PUSH1 0x1 PUSH1 0x1 PUSH1 0xA0 SHL SUB SWAP2 PUSH1 0x20 SWAP2 DUP6 SWAP2 PUSH2 0x25D JUMPI JUMPDEST POP PUSH1 0x24 PUSH1 0x40 MLOAD DUP1 SWAP5 DUP2 SWAP4 PUSH32 0xFBCBC0F100000000000000000000000000000000000000000000000000000000 DUP4 MSTORE CALLER PUSH1 0x4 DUP5 ADD MSTORE AND GAS STATICCALL SWAP1 DUP2 ISZERO PUSH2 0x252 JUMPI DUP4 SWAP2 PUSH2 0x1EC JUMPI JUMPDEST POP PUSH32 0xAF80AA5CC016B82830ABF03E3110890FCD831F57410495ACDF9CC3B3973129E9 SWAP2 PUSH2 0x1E8 PUSH1 0x1 PUSH1 0x1 PUSH1 0xA0 SHL SUB PUSH1 0x40 SWAP4 AND SWAP2 DUP3 DUP7 MSTORE PUSH1 0x5 PUSH1 0x20 MSTORE DUP4 DUP7 KECCAK256 PUSH1 0xFF NOT DUP2 SLOAD AND PUSH1 0xFF DUP4 AND OR SWAP1 SSTORE DUP4 MLOAD SWAP3 DUP4 MSTORE PUSH1 0x20 DUP4 ADD SWAP1 PUSH2 0xD31 JUMP JUMPDEST LOG1 DUP1 RETURN JUMPDEST SWAP1 POP PUSH1 0x20 DUP2 RETURNDATASIZE PUSH1 0x20 GT PUSH2 0x24A JUMPI JUMPDEST DUP2 PUSH2 0x207 PUSH1 0x20 SWAP4 DUP4 PUSH2 0xDA5 JUMP JUMPDEST DUP2 ADD SUB SLT PUSH2 0x246 JUMPI MLOAD PUSH1 0x1 PUSH1 0x1 PUSH1 0xA0 SHL SUB DUP2 AND DUP2 SUB PUSH2 0x246 JUMPI PUSH32 0xAF80AA5CC016B82830ABF03E3110890FCD831F57410495ACDF9CC3B3973129E9 PUSH2 0x18E JUMP JUMPDEST DUP3 DUP1 REVERT JUMPDEST RETURNDATASIZE SWAP2 POP PUSH2 0x1FA JUMP JUMPDEST PUSH1 0x40 MLOAD RETURNDATASIZE DUP6 DUP3 RETURNDATACOPY RETURNDATASIZE SWAP1 REVERT JUMPDEST PUSH2 0x27D SWAP2 POP DUP3 RETURNDATASIZE DUP5 GT PUSH2 0x283 JUMPI JUMPDEST PUSH2 0x275 DUP2 DUP4 PUSH2 0xDA5 JUMP JUMPDEST DUP2 ADD SWAP1 PUSH2 0xE79 JUMP JUMPDEST CODESIZE PUSH2 0x14A JUMP JUMPDEST POP RETURNDATASIZE PUSH2 0x26B JUMP JUMPDEST POP JUMPDEST DUP1 REVERT JUMPDEST POP CALLVALUE PUSH2 0x28C JUMPI DUP1 PUSH1 0x3 NOT CALLDATASIZE ADD SLT PUSH2 0x28C JUMPI PUSH1 0x20 PUSH1 0x6 SLOAD PUSH1 0x40 MLOAD SWAP1 DUP2 MSTORE RETURN JUMPDEST POP CALLVALUE PUSH2 0x28C JUMPI PUSH1 0x40 CALLDATASIZE PUSH1 0x3 NOT ADD SLT PUSH2 0x28C JUMPI PUSH2 0x2C7 PUSH2 0xCE1 JUMP JUMPDEST PUSH1 0x24 CALLDATALOAD SWAP1 PUSH1 0x4 DUP3 LT ISZERO PUSH2 0x246 JUMPI PUSH1 0x1 PUSH1 0x1 PUSH1 0xA0 SHL SUB AND DUP3 MSTORE PUSH1 0x5 PUSH1 0x20 MSTORE PUSH1 0xFF PUSH1 0x40 DUP4 KECCAK256 SLOAD AND PUSH1 0x4 DUP2 LT ISZERO SWAP2 DUP3 PUSH2 0x411 JUMPI DUP2 ISZERO PUSH2 0x433 JUMPI PUSH1 0x1 DUP2 EQ DUP1 PUSH2 0x425 JUMPI JUMPDEST DUP4 DUP2 PUSH2 0x400 JUMPI JUMPDEST POP PUSH2 0x3BC JUMPI PUSH1 0x2 EQ SWAP2 DUP3 PUSH2 0x396 JUMPI JUMPDEST DUP3 PUSH2 0x370 JUMPI JUMPDEST POP POP PUSH2 0x32C JUMPI DUP1 RETURN JUMPDEST PUSH1 0x64 PUSH1 0x40 MLOAD PUSH3 0x461BCD PUSH1 0xE5 SHL DUP2 MSTORE PUSH1 0x20 PUSH1 0x4 DUP3 ADD MSTORE PUSH1 0x15 PUSH1 0x24 DUP3 ADD MSTORE PUSH32 0x5769746864726177206E6F7420617070726F7665640000000000000000000000 PUSH1 0x44 DUP3 ADD MSTORE REVERT JUMPDEST SWAP1 SWAP2 POP PUSH2 0x382 JUMPI PUSH1 0x3 EQ ISZERO CODESIZE DUP1 PUSH2 0x323 JUMP JUMPDEST PUSH1 0x24 DUP3 PUSH4 0x4E487B71 PUSH1 0xE0 SHL DUP2 MSTORE PUSH1 0x21 PUSH1 0x4 MSTORE REVERT JUMPDEST DUP1 SWAP3 POP PUSH2 0x3A8 JUMPI PUSH1 0x2 DUP2 EQ ISZERO SWAP2 PUSH2 0x31D JUMP JUMPDEST PUSH1 0x24 DUP4 PUSH4 0x4E487B71 PUSH1 0xE0 SHL DUP2 MSTORE PUSH1 0x21 PUSH1 0x4 MSTORE REVERT JUMPDEST PUSH1 0x64 PUSH1 0x40 MLOAD PUSH3 0x461BCD PUSH1 0xE5 SHL DUP2 MSTORE PUSH1 0x20 PUSH1 0x4 DUP3 ADD MSTORE PUSH1 0x14 PUSH1 0x24 DUP3 ADD MSTORE PUSH32 0x4465706F736974206E6F7420617070726F766564000000000000000000000000 PUSH1 0x44 DUP3 ADD MSTORE REVERT JUMPDEST SWAP1 POP PUSH2 0x411 JUMPI PUSH1 0x3 DUP3 EQ ISZERO DUP4 PUSH2 0x30E JUMP JUMPDEST PUSH1 0x24 DUP5 PUSH4 0x4E487B71 PUSH1 0xE0 SHL DUP2 MSTORE PUSH1 0x21 PUSH1 0x4 MSTORE REVERT JUMPDEST POP DUP4 SWAP3 POP PUSH1 0x1 DUP3 EQ ISZERO PUSH2 0x307 JUMP JUMPDEST PUSH1 0x64 PUSH1 0x40 MLOAD PUSH3 0x461BCD PUSH1 0xE5 SHL DUP2 MSTORE PUSH1 0x20 PUSH1 0x4 DUP3 ADD MSTORE PUSH1 0x11 PUSH1 0x24 DUP3 ADD MSTORE PUSH32 0x55736572206E6F7420617070726F766564000000000000000000000000000000 PUSH1 0x44 DUP3 ADD MSTORE REVERT JUMPDEST POP CALLVALUE PUSH2 0x28C JUMPI PUSH1 0x20 CALLDATASIZE PUSH1 0x3 NOT ADD SLT PUSH2 0x28C JUMPI PUSH1 0x4 CALLDATALOAD PUSH1 0x1 PUSH1 0x1 PUSH1 0xA0 SHL SUB DUP2 AND DUP1 SWAP2 SUB PUSH2 0x28A JUMPI PUSH2 0x4A5 PUSH2 0x11B1 JUMP JUMPDEST DUP1 ISZERO PUSH2 0x4F9 JUMPI PUSH1 0x1 PUSH1 0x1 PUSH1 0xA0 SHL SUB DUP3 SLOAD DUP3 PUSH20 0xFFFFFFFFFFFFFFFFFFFFFFFFFFFFFFFFFFFFFFFF NOT DUP3 AND OR DUP5 SSTORE AND PUSH32 0x8BE0079C531659141344CD1FD0A4F28419497F9722A3DAAFE3B4186F6B6457E0 DUP4 DUP1 LOG3 DUP1 RETURN JUMPDEST PUSH1 0x24 DUP3 PUSH32 0x1E4FBDF700000000000000000000000000000000000000000000000000000000 DUP2 MSTORE DUP1 PUSH1 0x4 MSTORE REVERT JUMPDEST POP CALLVALUE PUSH2 0x28C JUMPI PUSH2 0x599 SWAP1 PUSH1 0x20 PUSH2 0x53A CALLDATASIZE PUSH2 0xCF7 JUMP JUMPDEST SWAP2 SWAP1 PUSH2 0x545 DUP4 PUSH2 0x1039 JUMP JUMPDEST DUP5 PUSH1 0x1 PUSH1 0x1 PUSH1 0xA0 SHL SUB PUSH1 0x40 MLOAD DUP1 SWAP9 DUP2 SWAP7 DUP3 SWAP6 PUSH32 0xB76E07CC00000000000000000000000000000000000000000000000000000000 DUP5 MSTORE PUSH1 0x4 DUP5 ADD SWAP1 SWAP3 SWAP2 PUSH1 0x1 PUSH1 0x1 PUSH1 0xA0 SHL SUB PUSH1 0x20 SWAP2 PUSH1 0x40 DUP5 ADD SWAP6 DUP5 MSTORE AND SWAP2 ADD MSTORE JUMP JUMPDEST SUB SWAP4 AND GAS CALL SWAP1 DUP2 ISZERO PUSH2 0x5EE JUMPI SWAP1 PUSH2 0x5B6 JUMPI JUMPDEST PUSH1 0x20 SWAP1 PUSH1 0x40 MLOAD SWAP1 DUP2 MSTORE RETURN JUMPDEST POP PUSH1 0x20 DUP2 RETURNDATASIZE PUSH1 0x20 GT PUSH2 0x5E6 JUMPI JUMPDEST DUP2 PUSH2 0x5D0 PUSH1 0x20 SWAP4 DUP4 PUSH2 0xDA5 JUMP JUMPDEST DUP2 ADD SUB SLT PUSH2 0x5E1 JUMPI PUSH1 0x20 SWAP1 MLOAD PUSH2 0x5AB JUMP JUMPDEST PUSH1 0x0 DUP1 REVERT JUMPDEST RETURNDATASIZE SWAP2 POP PUSH2 0x5C3 JUMP JUMPDEST PUSH1 0x40 MLOAD SWAP1 RETURNDATASIZE SWAP1 DUP3 RETURNDATACOPY RETURNDATASIZE SWAP1 REVERT JUMPDEST POP CALLVALUE PUSH2 0x28C JUMPI PUSH2 0x609 CALLDATASIZE PUSH2 0xDDD JUMP JUMPDEST PUSH1 0x4 PUSH1 0x20 PUSH1 0x1 PUSH1 0x1 PUSH1 0xA0 SHL SUB DUP3 SLOAD AND PUSH1 0x40 MLOAD SWAP3 DUP4 DUP1 SWAP3 PUSH4 0xF63BE01 PUSH1 0xE0 SHL DUP3 MSTORE GAS STATICCALL SWAP1 DUP2 ISZERO PUSH2 0x252 JUMPI PUSH2 0x64F SWAP2 PUSH1 0x1 PUSH1 0x1 PUSH1 0xA0 SHL SUB SWAP2 DUP6 SWAP2 PUSH2 0x7C0 JUMPI JUMPDEST POP AND CALLER EQ PUSH2 0xE98 JUMP JUMPDEST DUP1 MLOAD DUP2 ADD SWAP1 PUSH1 0x40 DUP2 PUSH1 0x20 DUP5 ADD SWAP4 SUB SLT PUSH2 0x246 JUMPI PUSH2 0x66E PUSH1 0x20 DUP3 ADD PUSH2 0xEE3 JUMP JUMPDEST SWAP1 PUSH1 0x40 DUP2 ADD MLOAD SWAP1 PUSH8 0xFFFFFFFFFFFFFFFF DUP3 GT PUSH2 0x7BC JUMPI ADD SWAP1 DUP3 PUSH1 0x3F DUP4 ADD SLT ISZERO PUSH2 0x790 JUMPI PUSH1 0x20 DUP3 ADD MLOAD SWAP3 PUSH8 0xFFFFFFFFFFFFFFFF DUP5 GT PUSH2 0x7A8 JUMPI DUP4 PUSH1 0x5 SHL SWAP3 PUSH1 0x40 MLOAD SWAP5 PUSH2 0x6BC PUSH1 0x20 DUP7 ADD DUP8 PUSH2 0xDA5 JUMP JUMPDEST DUP6 MSTORE PUSH1 0x20 DUP6 ADD SWAP1 PUSH1 0x20 DUP1 DUP4 SWAP7 DUP4 ADD ADD ADD SWAP3 DUP4 GT PUSH2 0x7A4 JUMPI PUSH1 0x40 ADD SWAP1 JUMPDEST DUP3 DUP3 LT PUSH2 0x794 JUMPI POP POP POP PUSH1 0x1 PUSH1 0x1 PUSH1 0xA0 SHL SUB AND SWAP1 DUP2 EXTCODESIZE ISZERO PUSH2 0x790 JUMPI SWAP2 DUP4 DUP1 SWAP4 PUSH1 0x40 MLOAD SWAP4 DUP5 SWAP2 PUSH32 0xEE6CE92500000000000000000000000000000000000000000000000000000000 DUP4 MSTORE PUSH1 0x24 DUP4 ADD SWAP5 PUSH1 0x20 PUSH1 0x4 DUP6 ADD MSTORE MLOAD DUP1 SWAP6 MSTORE PUSH1 0x44 DUP4 ADD SWAP1 SWAP5 DUP5 JUMPDEST DUP2 DUP2 LT PUSH2 0x774 JUMPI POP POP DUP4 DUP1 SWAP6 POP DUP4 DUP1 SWAP3 SUB SWAP3 GAS CALL DUP1 ISZERO PUSH2 0x767 JUMPI PUSH2 0x759 JUMPI DUP1 RETURN JUMPDEST PUSH2 0x762 SWAP2 PUSH2 0xDA5 JUMP JUMPDEST DUP2 DUP2 DUP1 RETURN JUMPDEST POP PUSH1 0x40 MLOAD SWAP1 RETURNDATASIZE SWAP1 DUP3 RETURNDATACOPY RETURNDATASIZE SWAP1 REVERT JUMPDEST DUP7 MLOAD DUP4 MSTORE PUSH1 0x20 SWAP7 DUP8 ADD SWAP7 DUP10 SWAP7 POP DUP9 SWAP6 POP SWAP1 SWAP3 ADD SWAP2 PUSH1 0x1 ADD PUSH2 0x738 JUMP JUMPDEST DUP4 DUP1 REVERT JUMPDEST DUP2 MLOAD DUP2 MSTORE PUSH1 0x20 SWAP2 DUP3 ADD SWAP2 ADD PUSH2 0x6D8 JUMP JUMPDEST DUP7 DUP1 REVERT JUMPDEST PUSH1 0x24 DUP6 PUSH4 0x4E487B71 PUSH1 0xE0 SHL DUP2 MSTORE PUSH1 0x41 PUSH1 0x4 MSTORE REVERT JUMPDEST DUP5 DUP1 REVERT JUMPDEST PUSH2 0x7D9 SWAP2 POP PUSH1 0x20 RETURNDATASIZE PUSH1 0x20 GT PUSH2 0x283 JUMPI PUSH2 0x275 DUP2 DUP4 PUSH2 0xDA5 JUMP JUMPDEST CODESIZE PUSH2 0x646 JUMP JUMPDEST POP CALLVALUE PUSH2 0x28C JUMPI DUP1 PUSH1 0x3 NOT CALLDATASIZE ADD SLT PUSH2 0x28C JUMPI PUSH1 0x20 PUSH1 0x1 PUSH1 0x1 PUSH1 0xA0 SHL SUB PUSH1 0x3 SLOAD AND PUSH1 0x40 MLOAD SWAP1 DUP2 MSTORE RETURN JUMPDEST POP CALLVALUE PUSH2 0x28C JUMPI DUP1 PUSH1 0x3 NOT CALLDATASIZE ADD SLT PUSH2 0x28C JUMPI PUSH1 0x20 PUSH1 0x7 SLOAD PUSH1 0x40 MLOAD SWAP1 DUP2 MSTORE RETURN JUMPDEST POP CALLVALUE PUSH2 0x28C JUMPI DUP1 PUSH1 0x3 NOT CALLDATASIZE ADD SLT PUSH2 0x28C JUMPI PUSH1 0x1 PUSH1 0x1 PUSH1 0xA0 SHL SUB PUSH1 0x20 SWAP2 SLOAD AND PUSH1 0x40 MLOAD SWAP1 DUP2 MSTORE RETURN JUMPDEST POP CALLVALUE PUSH2 0x28C JUMPI DUP1 PUSH1 0x3 NOT CALLDATASIZE ADD SLT PUSH2 0x28C JUMPI PUSH2 0x863 PUSH2 0x11B1 JUMP JUMPDEST DUP1 PUSH1 0x1 PUSH1 0x1 PUSH1 0xA0 SHL SUB DUP2 SLOAD PUSH20 0xFFFFFFFFFFFFFFFFFFFFFFFFFFFFFFFFFFFFFFFF NOT DUP2 AND DUP4 SSTORE AND PUSH32 0x8BE0079C531659141344CD1FD0A4F28419497F9722A3DAAFE3B4186F6B6457E0 DUP3 DUP1 LOG3 DUP1 RETURN JUMPDEST POP CALLVALUE PUSH2 0x28C JUMPI PUSH2 0x8BF CALLDATASIZE PUSH2 0xD54 JUMP JUMPDEST POP POP PUSH2 0x8CD PUSH1 0x6 SLOAD TIMESTAMP PUSH2 0xE56 JUMP JUMPDEST PUSH1 0x7 SLOAD LT PUSH1 0x20 SWAP1 PUSH1 0x40 MLOAD SWAP2 PUSH2 0x8E2 DUP2 DUP5 PUSH2 0xDA5 JUMP JUMPDEST DUP4 DUP4 MSTORE PUSH1 0x1F NOT DUP2 ADD CALLDATASIZE DUP3 DUP6 ADD CALLDATACOPY PUSH1 0x40 MLOAD SWAP4 DUP5 SWAP3 DUP4 MSTORE PUSH1 0x40 DUP3 DUP5 ADD MSTORE DUP4 MLOAD SWAP2 DUP3 PUSH1 0x40 DUP6 ADD MSTORE DUP2 JUMPDEST DUP4 DUP2 LT PUSH2 0x929 JUMPI POP POP PUSH1 0x60 DUP1 SWAP5 POP DUP3 DUP5 ADD ADD MSTORE PUSH1 0x1F DUP1 NOT SWAP2 ADD AND DUP2 ADD SUB ADD SWAP1 RETURN JUMPDEST DUP1 DUP7 ADD DUP3 ADD MLOAD DUP8 DUP3 ADD PUSH1 0x60 ADD MSTORE DUP7 SWAP5 POP DUP2 ADD PUSH2 0x908 JUMP JUMPDEST POP CALLVALUE PUSH2 0x28C JUMPI PUSH1 0x4 PUSH2 0x951 CALLDATASIZE PUSH2 0xDDD JUMP JUMPDEST PUSH1 0x20 PUSH1 0x1 PUSH1 0x1 PUSH1 0xA0 SHL SUB DUP4 SLOAD AND PUSH1 0x40 MLOAD SWAP4 DUP5 DUP1 SWAP3 PUSH4 0xF63BE01 PUSH1 0xE0 SHL DUP3 MSTORE GAS STATICCALL DUP1 ISZERO PUSH2 0x252 JUMPI PUSH1 0x1 PUSH1 0x1 PUSH1 0xA0 SHL SUB PUSH2 0x996 SWAP2 PUSH2 0x99B SWAP5 DUP7 SWAP2 PUSH2 0x7C0 JUMPI POP AND CALLER EQ PUSH2 0xE98 JUMP JUMPDEST PUSH2 0xFB3 JUMP JUMPDEST DUP1 RETURN JUMPDEST POP CALLVALUE PUSH2 0x28C JUMPI PUSH1 0x40 CALLDATASIZE PUSH1 0x3 NOT ADD SLT PUSH2 0x28C JUMPI PUSH2 0x9B8 PUSH2 0xCE1 JUMP JUMPDEST PUSH1 0x24 CALLDATALOAD SWAP1 PUSH1 0x1 PUSH1 0x1 PUSH1 0xA0 SHL SUB DUP3 AND SWAP1 DUP2 DUP4 SUB PUSH2 0x790 JUMPI PUSH1 0x24 PUSH1 0x20 SWAP3 PUSH2 0x9E4 PUSH1 0x1 PUSH1 0x1 PUSH1 0xA0 SHL SUB SWAP6 PUSH2 0x1039 JUMP JUMPDEST DUP6 PUSH1 0x40 MLOAD SWAP6 DUP7 SWAP5 DUP6 SWAP4 PUSH32 0xC07E866E00000000000000000000000000000000000000000000000000000000 DUP6 MSTORE PUSH1 0x4 DUP6 ADD MSTORE AND GAS CALL SWAP1 DUP2 ISZERO PUSH2 0xA67 JUMPI DUP3 SWAP2 PUSH2 0xA31 JUMPI JUMPDEST PUSH1 0x20 DUP3 PUSH1 0x40 MLOAD SWAP1 DUP2 MSTORE RETURN JUMPDEST SWAP1 POP PUSH1 0x20 DUP2 RETURNDATASIZE PUSH1 0x20 GT PUSH2 0xA5F JUMPI JUMPDEST DUP2 PUSH2 0xA4C PUSH1 0x20 SWAP4 DUP4 PUSH2 0xDA5 JUMP JUMPDEST DUP2 ADD SUB SLT PUSH2 0x28A JUMPI PUSH1 0x20 SWAP2 POP MLOAD CODESIZE PUSH2 0xA26 JUMP JUMPDEST RETURNDATASIZE SWAP2 POP PUSH2 0xA3F JUMP JUMPDEST PUSH1 0x40 MLOAD RETURNDATASIZE DUP5 DUP3 RETURNDATACOPY RETURNDATASIZE SWAP1 REVERT JUMPDEST POP CALLVALUE PUSH2 0x28C JUMPI PUSH1 0x4 PUSH2 0xA83 CALLDATASIZE PUSH2 0xDDD JUMP JUMPDEST PUSH1 0x20 PUSH1 0x1 PUSH1 0x1 PUSH1 0xA0 SHL SUB DUP4 SLOAD AND PUSH1 0x40 MLOAD SWAP4 DUP5 DUP1 SWAP3 PUSH4 0xF63BE01 PUSH1 0xE0 SHL DUP3 MSTORE GAS STATICCALL DUP1 ISZERO PUSH2 0x252 JUMPI PUSH1 0x1 PUSH1 0x1 PUSH1 0xA0 SHL SUB PUSH2 0xAC8 SWAP2 PUSH2 0x99B SWAP5 DUP7 SWAP2 PUSH2 0x7C0 JUMPI POP AND CALLER EQ PUSH2 0xE98 JUMP JUMPDEST PUSH2 0xF1B JUMP JUMPDEST POP CALLVALUE PUSH2 0x28C JUMPI PUSH2 0xADC CALLDATASIZE PUSH2 0xD54 JUMP JUMPDEST PUSH2 0xAE8 PUSH1 0x6 SLOAD TIMESTAMP PUSH2 0xE56 JUMP JUMPDEST PUSH1 0x7 SLOAD LT PUSH2 0xAF4 JUMPI DUP3 DUP1 RETURN JUMPDEST DUP2 PUSH1 0x60 SWAP2 DUP2 ADD SUB SLT PUSH2 0x28A JUMPI DUP1 CALLDATALOAD PUSH1 0x3 DUP2 LT ISZERO PUSH2 0x246 JUMPI PUSH1 0x20 DUP3 ADD CALLDATALOAD SWAP2 PUSH8 0xFFFFFFFFFFFFFFFF DUP4 AND DUP1 SWAP4 SUB PUSH2 0x790 JUMPI PUSH1 0x40 ADD CALLDATALOAD SWAP2 PUSH4 0xFFFFFFFF DUP4 AND DUP1 SWAP4 SUB PUSH2 0x790 JUMPI PUSH1 0x4 SWAP2 PUSH1 0x20 PUSH1 0x1 PUSH1 0x1 PUSH1 0xA0 SHL SUB DUP5 SLOAD AND PUSH1 0x40 MLOAD SWAP5 DUP6 DUP1 SWAP3 PUSH4 0xF63BE01 PUSH1 0xE0 SHL DUP3 MSTORE GAS STATICCALL SWAP1 DUP6 DUP3 ISZERO PUSH2 0x5EE JUMPI PUSH1 0x1 PUSH1 0x1 PUSH1 0xA0 SHL SUB PUSH1 0x64 SWAP4 PUSH1 0x20 SWAP7 DUP4 SWAP2 PUSH2 0xBF2 JUMPI JUMPDEST POP PUSH1 0x40 MLOAD SWAP8 DUP9 SWAP7 DUP8 SWAP6 PUSH32 0x72642F2B00000000000000000000000000000000000000000000000000000000 DUP8 MSTORE PUSH1 0x4 DUP8 ADD MSTORE PUSH1 0x24 DUP7 ADD MSTORE PUSH1 0x44 DUP6 ADD MSTORE AND GAS CALL DUP1 ISZERO PUSH2 0xA67 JUMPI PUSH2 0xBC3 JUMPI DUP1 DUP3 DUP1 RETURN JUMPDEST PUSH1 0x20 DUP2 RETURNDATASIZE PUSH1 0x20 GT PUSH2 0xBEA JUMPI JUMPDEST DUP2 PUSH2 0xBDC PUSH1 0x20 SWAP4 DUP4 PUSH2 0xDA5 JUMP JUMPDEST DUP2 ADD SUB SLT PUSH2 0x28A JUMPI MLOAD DUP1 DUP3 DUP1 RETURN JUMPDEST RETURNDATASIZE SWAP2 POP PUSH2 0xBCF JUMP JUMPDEST PUSH2 0xC09 SWAP2 POP DUP8 RETURNDATASIZE DUP10 GT PUSH2 0x283 JUMPI PUSH2 0x275 DUP2 DUP4 PUSH2 0xDA5 JUMP JUMPDEST CODESIZE PUSH2 0xB76 JUMP JUMPDEST POP CALLVALUE PUSH2 0x28C JUMPI PUSH1 0x20 CALLDATASIZE PUSH1 0x3 NOT ADD SLT PUSH2 0x28C JUMPI PUSH1 0xFF PUSH1 0x40 PUSH1 0x20 SWAP3 PUSH1 0x1 PUSH1 0x1 PUSH1 0xA0 SHL SUB PUSH2 0xC38 PUSH2 0xCE1 JUMP JUMPDEST AND DUP2 MSTORE PUSH1 0x5 DUP5 MSTORE KECCAK256 SLOAD AND PUSH2 0xC4F PUSH1 0x40 MLOAD DUP1 SWAP3 PUSH2 0xD31 JUMP JUMPDEST RETURN JUMPDEST POP CALLVALUE PUSH2 0x28C JUMPI PUSH2 0xCC4 PUSH1 0x20 PUSH2 0xC65 CALLDATASIZE PUSH2 0xCF7 JUMP JUMPDEST SWAP2 SWAP1 PUSH2 0xC70 DUP4 PUSH2 0x1039 JUMP JUMPDEST DUP6 PUSH1 0x1 PUSH1 0x1 PUSH1 0xA0 SHL SUB PUSH1 0x40 MLOAD DUP1 SWAP8 DUP2 SWAP7 DUP3 SWAP6 PUSH32 0xA49B5CB400000000000000000000000000000000000000000000000000000000 DUP5 MSTORE PUSH1 0x4 DUP5 ADD SWAP1 SWAP3 SWAP2 PUSH1 0x1 PUSH1 0x1 PUSH1 0xA0 SHL SUB PUSH1 0x20 SWAP2 PUSH1 0x40 DUP5 ADD SWAP6 DUP5 MSTORE AND SWAP2 ADD MSTORE JUMP JUMPDEST SUB SWAP4 AND GAS CALL SWAP1 DUP2 ISZERO PUSH2 0xA67 JUMPI DUP3 SWAP2 PUSH2 0xA31 JUMPI PUSH1 0x20 DUP3 PUSH1 0x40 MLOAD SWAP1 DUP2 MSTORE RETURN JUMPDEST PUSH1 0x4 CALLDATALOAD SWAP1 PUSH1 0x1 PUSH1 0x1 PUSH1 0xA0 SHL SUB DUP3 AND DUP3 SUB PUSH2 0x5E1 JUMPI JUMP JUMPDEST PUSH1 0x60 SWAP1 PUSH1 0x3 NOT ADD SLT PUSH2 0x5E1 JUMPI PUSH1 0x4 CALLDATALOAD PUSH1 0x1 PUSH1 0x1 PUSH1 0xA0 SHL SUB DUP2 AND DUP2 SUB PUSH2 0x5E1 JUMPI SWAP1 PUSH1 0x24 CALLDATALOAD SWAP1 PUSH1 0x44 CALLDATALOAD PUSH1 0x1 PUSH1 0x1 PUSH1 0xA0 SHL SUB DUP2 AND DUP2 SUB PUSH2 0x5E1 JUMPI SWAP1 JUMP JUMPDEST SWAP1 PUSH1 0x4 DUP3 LT ISZERO PUSH2 0xD3E JUMPI MSTORE JUMP JUMPDEST PUSH4 0x4E487B71 PUSH1 0xE0 SHL PUSH1 0x0 MSTORE PUSH1 0x21 PUSH1 0x4 MSTORE PUSH1 0x24 PUSH1 0x0 REVERT JUMPDEST SWAP1 PUSH1 0x20 PUSH1 0x3 NOT DUP4 ADD SLT PUSH2 0x5E1 JUMPI PUSH1 0x4 CALLDATALOAD PUSH8 0xFFFFFFFFFFFFFFFF DUP2 GT PUSH2 0x5E1 JUMPI DUP3 PUSH1 0x23 DUP3 ADD SLT ISZERO PUSH2 0x5E1 JUMPI DUP1 PUSH1 0x4 ADD CALLDATALOAD SWAP3 PUSH8 0xFFFFFFFFFFFFFFFF DUP5 GT PUSH2 0x5E1 JUMPI PUSH1 0x24 DUP5 DUP4 ADD ADD GT PUSH2 0x5E1 JUMPI PUSH1 0x24 ADD SWAP2 SWAP1 JUMP JUMPDEST SWAP1 PUSH1 0x1F DUP1 NOT SWAP2 ADD AND DUP2 ADD SWAP1 DUP2 LT PUSH8 0xFFFFFFFFFFFFFFFF DUP3 GT OR PUSH2 0xDC7 JUMPI PUSH1 0x40 MSTORE JUMP JUMPDEST PUSH4 0x4E487B71 PUSH1 0xE0 SHL PUSH1 0x0 MSTORE PUSH1 0x41 PUSH1 0x4 MSTORE PUSH1 0x24 PUSH1 0x0 REVERT JUMPDEST PUSH1 0x20 PUSH1 0x3 NOT DUP3 ADD SLT PUSH2 0x5E1 JUMPI PUSH1 0x4 CALLDATALOAD PUSH8 0xFFFFFFFFFFFFFFFF DUP2 GT PUSH2 0x5E1 JUMPI DUP2 PUSH1 0x23 DUP3 ADD SLT ISZERO PUSH2 0x5E1 JUMPI DUP1 PUSH1 0x4 ADD CALLDATALOAD SWAP1 PUSH8 0xFFFFFFFFFFFFFFFF DUP3 GT PUSH2 0xDC7 JUMPI PUSH1 0x40 MLOAD SWAP3 PUSH2 0xE33 PUSH1 0x1F DUP5 ADD PUSH1 0x1F NOT AND PUSH1 0x20 ADD DUP6 PUSH2 0xDA5 JUMP JUMPDEST DUP3 DUP5 MSTORE PUSH1 0x24 DUP4 DUP4 ADD ADD GT PUSH2 0x5E1 JUMPI DUP2 PUSH1 0x0 SWAP3 PUSH1 0x24 PUSH1 0x20 SWAP4 ADD DUP4 DUP7 ADD CALLDATACOPY DUP4 ADD ADD MSTORE SWAP1 JUMP JUMPDEST SWAP2 SWAP1 DUP3 SUB SWAP2 DUP3 GT PUSH2 0xE63 JUMPI JUMP JUMPDEST PUSH4 0x4E487B71 PUSH1 0xE0 SHL PUSH1 0x0 MSTORE PUSH1 0x11 PUSH1 0x4 MSTORE PUSH1 0x24 PUSH1 0x0 REVERT JUMPDEST SWAP1 DUP2 PUSH1 0x20 SWAP2 SUB SLT PUSH2 0x5E1 JUMPI MLOAD PUSH1 0x1 PUSH1 0x1 PUSH1 0xA0 SHL SUB DUP2 AND DUP2 SUB PUSH2 0x5E1 JUMPI SWAP1 JUMP JUMPDEST ISZERO PUSH2 0xE9F JUMPI JUMP JUMPDEST PUSH1 0x64 PUSH1 0x40 MLOAD PUSH3 0x461BCD PUSH1 0xE5 SHL DUP2 MSTORE PUSH1 0x20 PUSH1 0x4 DUP3 ADD MSTORE PUSH1 0xE PUSH1 0x24 DUP3 ADD MSTORE PUSH32 0x4F6E6C792066756E6374696F6E73000000000000000000000000000000000000 PUSH1 0x44 DUP3 ADD MSTORE REVERT JUMPDEST MLOAD SWAP1 PUSH1 0x1 PUSH1 0x1 PUSH1 0xA0 SHL SUB DUP3 AND DUP3 SUB PUSH2 0x5E1 JUMPI JUMP JUMPDEST SWAP2 SWAP1 DUP3 PUSH1 0x40 SWAP2 SUB SLT PUSH2 0x5E1 JUMPI PUSH2 0xF18 PUSH1 0x20 PUSH2 0xF11 DUP5 PUSH2 0xEE3 JUMP JUMPDEST SWAP4 ADD PUSH2 0xEE3 JUMP JUMPDEST SWAP1 JUMP JUMPDEST PUSH1 0x1 PUSH1 0x1 PUSH1 0xA0 SHL SUB PUSH2 0xF37 DUP2 SWAP3 PUSH1 0x20 DUP1 DUP3 MLOAD DUP4 ADD ADD SWAP2 ADD PUSH2 0xEF7 JUMP JUMPDEST SWAP3 AND SWAP2 AND SWAP1 PUSH1 0x0 SWAP2 DUP2 ISZERO DUP1 ISZERO PUSH2 0xFAB JUMPI JUMPDEST PUSH2 0xFA6 JUMPI DUP2 EXTCODESIZE ISZERO PUSH2 0x246 JUMPI DUP3 SWAP2 PUSH1 0x24 DUP4 SWAP3 PUSH1 0x40 MLOAD SWAP5 DUP6 SWAP4 DUP5 SWAP3 PUSH32 0x175188E800000000000000000000000000000000000000000000000000000000 DUP5 MSTORE PUSH1 0x4 DUP5 ADD MSTORE GAS CALL DUP1 ISZERO PUSH2 0xA67 JUMPI PUSH2 0xF99 JUMPI POP POP JUMP JUMPDEST DUP2 PUSH2 0xFA3 SWAP2 PUSH2 0xDA5 JUMP JUMPDEST POP JUMP JUMPDEST POP POP POP JUMP JUMPDEST POP DUP1 ISZERO PUSH2 0xF48 JUMP JUMPDEST PUSH1 0x1 PUSH1 0x1 PUSH1 0xA0 SHL SUB PUSH2 0xFCF DUP2 SWAP3 PUSH1 0x20 DUP1 DUP3 MLOAD DUP4 ADD ADD SWAP2 ADD PUSH2 0xEF7 JUMP JUMPDEST SWAP3 AND SWAP2 AND SWAP1 PUSH1 0x0 SWAP2 DUP2 ISZERO DUP1 ISZERO PUSH2 0x1031 JUMPI JUMPDEST PUSH2 0xFA6 JUMPI DUP2 EXTCODESIZE ISZERO PUSH2 0x246 JUMPI DUP3 SWAP2 PUSH1 0x24 DUP4 SWAP3 PUSH1 0x40 MLOAD SWAP5 DUP6 SWAP4 DUP5 SWAP3 PUSH32 0x223E547900000000000000000000000000000000000000000000000000000000 DUP5 MSTORE PUSH1 0x4 DUP5 ADD MSTORE GAS CALL DUP1 ISZERO PUSH2 0xA67 JUMPI PUSH2 0xF99 JUMPI POP POP JUMP JUMPDEST POP DUP1 ISZERO PUSH2 0xFE0 JUMP JUMPDEST PUSH1 0x1 PUSH1 0x1 PUSH1 0xA0 SHL SUB DUP1 PUSH1 0x3 SLOAD AND SWAP2 AND SWAP1 PUSH1 0x40 MLOAD SWAP1 PUSH32 0x70A0823100000000000000000000000000000000000000000000000000000000 DUP3 MSTORE DUP3 PUSH1 0x4 DUP4 ADD MSTORE PUSH1 0x20 DUP3 PUSH1 0x24 DUP2 DUP5 GAS STATICCALL SWAP2 DUP3 ISZERO PUSH2 0x1171 JUMPI PUSH1 0x0 SWAP3 PUSH2 0x117D JUMPI JUMPDEST POP PUSH1 0x1 SLOAD DUP1 SWAP3 LT ISZERO SWAP2 DUP3 PUSH2 0x10D8 JUMPI JUMPDEST POP POP PUSH32 0x4B07B434919E25D56E2425B6A75582BF959A6DA1DA0D8F1D7E47C77267A35E6B SWAP2 PUSH1 0x60 SWAP2 PUSH1 0x40 MLOAD SWAP2 DUP3 MSTORE ADDRESS PUSH1 0x20 DUP4 ADD MSTORE PUSH1 0x40 DUP3 ADD MSTORE LOG1 JUMP JUMPDEST PUSH1 0x20 SWAP1 PUSH1 0x64 PUSH1 0x1 PUSH1 0x1 PUSH1 0xA0 SHL SUB PUSH1 0x2 SLOAD AND PUSH1 0x0 PUSH1 0x40 MLOAD SWAP6 DUP7 SWAP5 DUP6 SWAP4 PUSH32 0x23B872DD00000000000000000000000000000000000000000000000000000000 DUP6 MSTORE DUP11 PUSH1 0x4 DUP7 ADD MSTORE PUSH1 0x24 DUP6 ADD MSTORE PUSH1 0x44 DUP5 ADD MSTORE GAS CALL DUP1 ISZERO PUSH2 0x1171 JUMPI PUSH2 0x1139 JUMPI JUMPDEST DUP1 PUSH2 0x109D JUMP JUMPDEST PUSH1 0x20 DUP2 RETURNDATASIZE PUSH1 0x20 GT PUSH2 0x1169 JUMPI JUMPDEST DUP2 PUSH2 0x1152 PUSH1 0x20 SWAP4 DUP4 PUSH2 0xDA5 JUMP JUMPDEST DUP2 ADD SUB SLT PUSH2 0x5E1 JUMPI MLOAD DUP1 ISZERO ISZERO SUB PUSH2 0x5E1 JUMPI CODESIZE PUSH2 0x1133 JUMP JUMPDEST RETURNDATASIZE SWAP2 POP PUSH2 0x1145 JUMP JUMPDEST PUSH1 0x40 MLOAD RETURNDATASIZE PUSH1 0x0 DUP3 RETURNDATACOPY RETURNDATASIZE SWAP1 REVERT JUMPDEST SWAP1 SWAP2 POP PUSH1 0x20 DUP2 RETURNDATASIZE PUSH1 0x20 GT PUSH2 0x11A9 JUMPI JUMPDEST DUP2 PUSH2 0x1199 PUSH1 0x20 SWAP4 DUP4 PUSH2 0xDA5 JUMP JUMPDEST DUP2 ADD SUB SLT PUSH2 0x5E1 JUMPI MLOAD SWAP1 CODESIZE PUSH2 0x108E JUMP JUMPDEST RETURNDATASIZE SWAP2 POP PUSH2 0x118C JUMP JUMPDEST PUSH1 0x1 PUSH1 0x1 PUSH1 0xA0 SHL SUB PUSH1 0x0 SLOAD AND CALLER SUB PUSH2 0x11C5 JUMPI JUMP JUMPDEST PUSH32 0x118CDAA700000000000000000000000000000000000000000000000000000000 PUSH1 0x0 MSTORE CALLER PUSH1 0x4 MSTORE PUSH1 0x24 PUSH1 0x0 REVERT INVALID LOG2 PUSH5 0x6970667358 0x22 SLT KECCAK256 0xC0 CREATE2 TLOAD 0xC6 0x2D RETURNDATASIZE SELFBALANCE 0xE1 LOG4 0x4E BLOBHASH 0xB3 SIGNEXTEND CALLCODE 0x21 0xB3 ISZERO 0xD7 JUMPI 0xE6 SWAP16 0xAF CALLDATALOAD SWAP9 0xC8 SWAP13 TLOAD RETURNDATACOPY SWAP3 0xA9 0xA8 0xC3 PUSH5 0x736F6C6343 STOP ADDMOD SHR STOP CALLER "
        },
        "methodIdentifiers": {
          "_interval()": "aa91c9c6",
          "_lastTimeStamp()": "fabbf02c",
          "addStrategy(bytes)": "4b837649",
          "allowance(address)": "3e5beab9",
          "approve(uint8)": "fca0025d",
          "checkApproval(address,uint8)": "f887cf00",
          "checkUpkeep(bytes)": "6e04ff0d",
          "depositFromAccount(address,uint256,address)": "e76e8cad",
          "getFeeToken()": "ca709a25",
          "owner()": "8da5cb5b",
          "performUpkeep(bytes)": "4585e33b",
          "reallocation(bytes)": "e0ab4650",
          "removeStrategy(bytes)": "47a471a1",
          "renounceOwnership()": "715018a6",
          "transferOwnership(address)": "f2fde38b",
          "withdrawAllToAccount(address,address)": "4a86e1a6",
          "withdrawToAccount(address,uint256,address)": "0ff199de"
        }
      }
    }
  }
}