{
  "contracts/VaultUpgradeable.sol": {
    "VaultUpgradeable": {
      "abi": [
        {
          "inputs": [
            {
              "internalType": "address",
              "name": "spender",
              "type": "address"
            },
            {
              "internalType": "uint256",
              "name": "allowance",
              "type": "uint256"
            },
            {
              "internalType": "uint256",
              "name": "needed",
              "type": "uint256"
            }
          ],
          "name": "ERC20InsufficientAllowance",
          "type": "error"
        },
        {
          "inputs": [
            {
              "internalType": "address",
              "name": "sender",
              "type": "address"
            },
            {
              "internalType": "uint256",
              "name": "balance",
              "type": "uint256"
            },
            {
              "internalType": "uint256",
              "name": "needed",
              "type": "uint256"
            }
          ],
          "name": "ERC20InsufficientBalance",
          "type": "error"
        },
        {
          "inputs": [
            {
              "internalType": "address",
              "name": "approver",
              "type": "address"
            }
          ],
          "name": "ERC20InvalidApprover",
          "type": "error"
        },
        {
          "inputs": [
            {
              "internalType": "address",
              "name": "receiver",
              "type": "address"
            }
          ],
          "name": "ERC20InvalidReceiver",
          "type": "error"
        },
        {
          "inputs": [
            {
              "internalType": "address",
              "name": "sender",
              "type": "address"
            }
          ],
          "name": "ERC20InvalidSender",
          "type": "error"
        },
        {
          "inputs": [
            {
              "internalType": "address",
              "name": "spender",
              "type": "address"
            }
          ],
          "name": "ERC20InvalidSpender",
          "type": "error"
        },
        {
          "inputs": [],
          "name": "InvalidInitialization",
          "type": "error"
        },
        {
          "inputs": [],
          "name": "NotInitializing",
          "type": "error"
        },
        {
          "inputs": [
            {
              "internalType": "address",
              "name": "owner",
              "type": "address"
            }
          ],
          "name": "OwnableInvalidOwner",
          "type": "error"
        },
        {
          "inputs": [
            {
              "internalType": "address",
              "name": "account",
              "type": "address"
            }
          ],
          "name": "OwnableUnauthorizedAccount",
          "type": "error"
        },
        {
          "inputs": [],
          "name": "ReentrancyGuardReentrantCall",
          "type": "error"
        },
        {
          "anonymous": false,
          "inputs": [
            {
              "indexed": true,
              "internalType": "address",
              "name": "owner",
              "type": "address"
            },
            {
              "indexed": true,
              "internalType": "address",
              "name": "spender",
              "type": "address"
            },
            {
              "indexed": false,
              "internalType": "uint256",
              "name": "value",
              "type": "uint256"
            }
          ],
          "name": "Approval",
          "type": "event"
        },
        {
          "anonymous": false,
          "inputs": [
            {
              "indexed": false,
              "internalType": "uint64",
              "name": "version",
              "type": "uint64"
            }
          ],
          "name": "Initialized",
          "type": "event"
        },
        {
          "anonymous": false,
          "inputs": [
            {
              "indexed": true,
              "internalType": "address",
              "name": "previousOwner",
              "type": "address"
            },
            {
              "indexed": true,
              "internalType": "address",
              "name": "newOwner",
              "type": "address"
            }
          ],
          "name": "OwnershipTransferred",
          "type": "event"
        },
        {
          "anonymous": false,
          "inputs": [
            {
              "indexed": true,
              "internalType": "address",
              "name": "from",
              "type": "address"
            },
            {
              "indexed": true,
              "internalType": "address",
              "name": "to",
              "type": "address"
            },
            {
              "indexed": false,
              "internalType": "uint256",
              "name": "value",
              "type": "uint256"
            }
          ],
          "name": "Transfer",
          "type": "event"
        },
        {
          "inputs": [
            {
              "internalType": "contract IStrategy",
              "name": "newStrategy",
              "type": "address"
            }
          ],
          "name": "addStrategy",
          "outputs": [],
          "stateMutability": "nonpayable",
          "type": "function"
        },
        {
          "inputs": [
            {
              "internalType": "address",
              "name": "owner",
              "type": "address"
            },
            {
              "internalType": "address",
              "name": "spender",
              "type": "address"
            }
          ],
          "name": "allowance",
          "outputs": [
            {
              "internalType": "uint256",
              "name": "",
              "type": "uint256"
            }
          ],
          "stateMutability": "view",
          "type": "function"
        },
        {
          "inputs": [
            {
              "internalType": "address",
              "name": "spender",
              "type": "address"
            },
            {
              "internalType": "uint256",
              "name": "value",
              "type": "uint256"
            }
          ],
          "name": "approve",
          "outputs": [
            {
              "internalType": "bool",
              "name": "",
              "type": "bool"
            }
          ],
          "stateMutability": "nonpayable",
          "type": "function"
        },
        {
          "inputs": [
            {
              "internalType": "address",
              "name": "account",
              "type": "address"
            }
          ],
          "name": "balanceOf",
          "outputs": [
            {
              "internalType": "uint256",
              "name": "",
              "type": "uint256"
            }
          ],
          "stateMutability": "view",
          "type": "function"
        },
        {
          "inputs": [],
          "name": "decimals",
          "outputs": [
            {
              "internalType": "uint8",
              "name": "",
              "type": "uint8"
            }
          ],
          "stateMutability": "view",
          "type": "function"
        },
        {
          "inputs": [
            {
              "internalType": "uint256",
              "name": "amountScaled",
              "type": "uint256"
            }
          ],
          "name": "deposit",
          "outputs": [
            {
              "internalType": "uint256",
              "name": "lpMinted",
              "type": "uint256"
            }
          ],
          "stateMutability": "nonpayable",
          "type": "function"
        },
        {
          "inputs": [
            {
              "internalType": "uint256",
              "name": "amountScaled",
              "type": "uint256"
            },
            {
              "internalType": "contract IAccount",
              "name": "account",
              "type": "address"
            }
          ],
          "name": "depositFromAccount",
          "outputs": [
            {
              "internalType": "uint256",
              "name": "lpMinted",
              "type": "uint256"
            }
          ],
          "stateMutability": "nonpayable",
          "type": "function"
        },
        {
          "inputs": [],
          "name": "earn",
          "outputs": [],
          "stateMutability": "nonpayable",
          "type": "function"
        },
        {
          "inputs": [
            {
              "internalType": "contract IStrategy",
              "name": "strategy",
              "type": "address"
            }
          ],
          "name": "getAllocation",
          "outputs": [
            {
              "internalType": "uint256",
              "name": "allocation",
              "type": "uint256"
            }
          ],
          "stateMutability": "view",
          "type": "function"
        },
        {
          "inputs": [],
          "name": "getAsset",
          "outputs": [
            {
              "internalType": "address",
              "name": "asset",
              "type": "address"
            }
          ],
          "stateMutability": "view",
          "type": "function"
        },
        {
          "inputs": [],
          "name": "getAvailable",
          "outputs": [
            {
              "internalType": "uint256",
              "name": "available",
              "type": "uint256"
            }
          ],
          "stateMutability": "view",
          "type": "function"
        },
        {
          "inputs": [],
          "name": "getBalance",
          "outputs": [
            {
              "internalType": "uint256",
              "name": "amountScaled",
              "type": "uint256"
            }
          ],
          "stateMutability": "view",
          "type": "function"
        },
        {
          "inputs": [
            {
              "internalType": "uint256",
              "name": "strategyIndex",
              "type": "uint256"
            }
          ],
          "name": "getLastHarvest",
          "outputs": [
            {
              "internalType": "uint256",
              "name": "lastHarvest",
              "type": "uint256"
            }
          ],
          "stateMutability": "view",
          "type": "function"
        },
        {
          "inputs": [
            {
              "internalType": "uint256",
              "name": "lpAmount",
              "type": "uint256"
            }
          ],
          "name": "getShares",
          "outputs": [
            {
              "internalType": "uint256",
              "name": "amountScaled",
              "type": "uint256"
            }
          ],
          "stateMutability": "view",
          "type": "function"
        },
        {
          "inputs": [],
          "name": "getStrategies",
          "outputs": [
            {
              "internalType": "contract IStrategy[]",
              "name": "strategies",
              "type": "address[]"
            }
          ],
          "stateMutability": "view",
          "type": "function"
        },
        {
          "inputs": [],
          "name": "getSummary",
          "outputs": [
            {
              "internalType": "uint256",
              "name": "allocated",
              "type": "uint256"
            },
            {
              "internalType": "uint256",
              "name": "idle",
              "type": "uint256"
            }
          ],
          "stateMutability": "view",
          "type": "function"
        },
        {
          "inputs": [],
          "name": "name",
          "outputs": [
            {
              "internalType": "string",
              "name": "",
              "type": "string"
            }
          ],
          "stateMutability": "view",
          "type": "function"
        },
        {
          "inputs": [],
          "name": "owner",
          "outputs": [
            {
              "internalType": "address",
              "name": "",
              "type": "address"
            }
          ],
          "stateMutability": "view",
          "type": "function"
        },
        {
          "inputs": [
            {
              "internalType": "uint256[]",
              "name": "allocations",
              "type": "uint256[]"
            }
          ],
          "name": "reallocate",
          "outputs": [],
          "stateMutability": "nonpayable",
          "type": "function"
        },
        {
          "inputs": [
            {
              "internalType": "contract IStrategy",
              "name": "strategyToRemove",
              "type": "address"
            }
          ],
          "name": "removeStrategy",
          "outputs": [],
          "stateMutability": "nonpayable",
          "type": "function"
        },
        {
          "inputs": [],
          "name": "renounceOwnership",
          "outputs": [],
          "stateMutability": "nonpayable",
          "type": "function"
        },
        {
          "inputs": [],
          "name": "symbol",
          "outputs": [
            {
              "internalType": "string",
              "name": "",
              "type": "string"
            }
          ],
          "stateMutability": "view",
          "type": "function"
        },
        {
          "inputs": [],
          "name": "totalSupply",
          "outputs": [
            {
              "internalType": "uint256",
              "name": "",
              "type": "uint256"
            }
          ],
          "stateMutability": "view",
          "type": "function"
        },
        {
          "inputs": [
            {
              "internalType": "address",
              "name": "to",
              "type": "address"
            },
            {
              "internalType": "uint256",
              "name": "value",
              "type": "uint256"
            }
          ],
          "name": "transfer",
          "outputs": [
            {
              "internalType": "bool",
              "name": "",
              "type": "bool"
            }
          ],
          "stateMutability": "nonpayable",
          "type": "function"
        },
        {
          "inputs": [
            {
              "internalType": "address",
              "name": "from",
              "type": "address"
            },
            {
              "internalType": "address",
              "name": "to",
              "type": "address"
            },
            {
              "internalType": "uint256",
              "name": "value",
              "type": "uint256"
            }
          ],
          "name": "transferFrom",
          "outputs": [
            {
              "internalType": "bool",
              "name": "",
              "type": "bool"
            }
          ],
          "stateMutability": "nonpayable",
          "type": "function"
        },
        {
          "inputs": [
            {
              "internalType": "address",
              "name": "newOwner",
              "type": "address"
            }
          ],
          "name": "transferOwnership",
          "outputs": [],
          "stateMutability": "nonpayable",
          "type": "function"
        },
        {
          "inputs": [
            {
              "internalType": "uint256",
              "name": "lpAmount",
              "type": "uint256"
            }
          ],
          "name": "withdraw",
          "outputs": [
            {
              "internalType": "uint256",
              "name": "amountScaled",
              "type": "uint256"
            }
          ],
          "stateMutability": "nonpayable",
          "type": "function"
        },
        {
          "inputs": [],
          "name": "withdrawAll",
          "outputs": [
            {
              "internalType": "uint256",
              "name": "amountScaled",
              "type": "uint256"
            }
          ],
          "stateMutability": "nonpayable",
          "type": "function"
        },
        {
          "inputs": [
            {
              "internalType": "contract IAccount",
              "name": "account",
              "type": "address"
            }
          ],
          "name": "withdrawAllToAccount",
          "outputs": [
            {
              "internalType": "uint256",
              "name": "amountScaled",
              "type": "uint256"
            }
          ],
          "stateMutability": "nonpayable",
          "type": "function"
        },
        {
          "inputs": [
            {
              "internalType": "uint256",
              "name": "lpAmount",
              "type": "uint256"
            },
            {
              "internalType": "contract IAccount",
              "name": "account",
              "type": "address"
            }
          ],
          "name": "withdrawToAccount",
          "outputs": [
            {
              "internalType": "uint256",
              "name": "amountScaled",
              "type": "uint256"
            }
          ],
          "stateMutability": "nonpayable",
          "type": "function"
        }
      ],
      "evm": {
        "bytecode": {
          "linkReferences": {},
          "object": "60808060405234601a57600160005561274990816100208239f35b600080fdfe6080604052600436101561001257600080fd5b60003560e01c806306fdde0314611b2b578063095ea7b314611a855780630e02292314611a4857806312065fe014611a2d578063175188e8146118d857806318160ddd1461189b578063223e5479146116ce57806323b872dd146115335780632e1a7d4d14611515578063313ce567146114f95780634051ddac146114845780635c222bad1461145d5780636f7267b71461143957806370a08231146113e2578063715018a61461133c578063853828b6146112e45780638da5cb5b1461129e57806395d89b4114611159578063a29b3c90146110b2578063a49b5cb414610e17578063a9059cbb14610de6578063b49a60bb14610d1a578063b6b55f2514610c1c578063b76e07cc14610a19578063c07e866e1461059b578063d389800f14610582578063dd62ed3e14610505578063ee6ce9251461027b578063f2fde38b1461018e5763f9cc06051461016657600080fd5b34610189576000366003190112610189576020610181612273565b604051908152f35b600080fd5b34610189576020366003190112610189576001600160a01b036101af611c70565b6101b7612317565b16801561024c576001600160a01b037f9016d09d72d40fdae2fd8ceac6b6234c7706214fd39c1cd1e609a0528c199300548273ffffffffffffffffffffffffffffffffffffffff198216177f9016d09d72d40fdae2fd8ceac6b6234c7706214fd39c1cd1e609a0528c19930055167f8be0079c531659141344cd1fd0a4f28419497f9722a3daafe3b4186f6b6457e0600080a3005b7f1e4fbdf700000000000000000000000000000000000000000000000000000000600052600060045260246000fd5b346101895760203660031901126101895760043567ffffffffffffffff811161018957366023820112156101895780600401359067ffffffffffffffff82116104ef578160051b604051926102d36020830185611c9c565b8352602460208401918301019136831161018957602401905b8282106104df57836102fc612317565b60025481510361049b5760005b60025481101561037f576001600160a01b0361032482611cbe565b90549060031b1c169061033e61033983612378565b611d8b565b82518110156103695760019160208260051b8501015190600052600360205260406000205501610309565b634e487b7160e01b600052603260045260246000fd5b6000806002545b80831061045e57612710821161041a5760005b600254811015610410576001600160a01b036103b482611cbe565b90549060031b1c1690813b156101895760008092600460405180958193630f8d564160e31b83525af1918215610404576001926103f3575b5001610399565b60006103fe91611c9c565b826103ec565b6040513d6000823e3d90fd5b610418612115565b005b606460405162461bcd60e51b815260206004820152601660248201527f416c6c6f636174696f6e2065786365656473206d6178000000000000000000006044820152fd5b906104926001916001600160a01b0361047686611cbe565b90549060031b1c16600052600360205260406000205490611cd9565b92019190610386565b606460405162461bcd60e51b815260206004820152601860248201527f4d69736d617463686564206172726179206c656e6774687300000000000000006044820152fd5b81358152602091820191016102ec565b634e487b7160e01b600052604160045260246000fd5b346101895760403660031901126101895761051e611c70565b6001600160a01b0361056a610531611c86565b926001600160a01b03166000527f52c63247e1f47db19d5ce0460030c497f067ca4cebf71ba98eeadabe20bace01602052604060002090565b91166000526020526020604060002054604051908152f35b3461018957600036600319011261018957610418612115565b34610189576020366003190112610189576105b4611c70565b6105bc612317565b6001600160a01b03811690604051631127a41d60e31b8152602081600481865afa8015610404576001600160a01b03916000916109fa575b50166000527f52c63247e1f47db19d5ce0460030c497f067ca4cebf71ba98eeadabe20bace0060205260406000205460009161062e612317565b6001600160a01b036004541690813b156109025760405162f887cf60e81b81526001600160a01b03919091166004820152600260248201528381604481855afa801561090e5784906109ea575b505060405190630b37927d60e21b82526004820152602081602481875afa90811561080b57906106b29184916109cb575b506120ca565b6106ee6106c6826106c1611ce6565b611e4d565b7f52c63247e1f47db19d5ce0460030c497f067ca4cebf71ba98eeadabe20bace025490611e60565b90604051631127a41d60e31b8152602081600481885afa90811561090e5761071f918391869161099c575b5061251d565b610727612273565b828110610816575b5050908181936001600160a01b036001541673eeeeeeeeeeeeeeeeeeeeeeeeeeeeeeeeeeeeeeee81146000146107955750828092819282821561078c575bf11561077f5760209150604051908152f35b50604051903d90823e3d90fd5b506108fc61076d565b60405163a9059cbb60e01b81526001600160a01b0392909216600483015260248201929092529160209183916044918391905af1801561080b57602093506107de575b50610181565b6107fd90833d8511610804575b6107f58183611c9c565b810190611e8f565b50826107d8565b503d6107eb565b6040513d85823e3d90fd5b610824908395949295611dd6565b9281935b600254851080610993575b1561096a576001600160a01b0361084986611cbe565b90549060031b1c1660405163765ef2f360e11b8152602081600481855afa90811561095f5785929189918491610920575b506106c66020939261088b92611e4d565b848111610919575b6024906040519485938492632e1a7d4d60e01b845260048401525af190811561090e5784916108d7575b506108cb906108d192611dd6565b94611e80565b93610828565b90506020813d8211610906575b816108f160209383611c9c565b8101031261090257516108d16108bd565b8380fd5b3d91506108e4565b6040513d86823e3d90fd5b5083610893565b92935050506020813d8211610957575b8161093d60209383611c9c565b81010312610953575184919088906106c661087a565b8480fd5b3d9150610930565b6040513d87823e3d90fd5b50925092508290610979612273565b8181111561098c57505b9091928461072f565b9050610983565b50801515610833565b6109be915060203d6020116109c4575b6109b68183611c9c565b810190611e2e565b87610719565b503d6109ac565b6109e4915060203d602011610804576107f58183611c9c565b856106ac565b6109f391611c9c565b848361067b565b610a13915060203d6020116109c4576109b68183611c9c565b846105f4565b3461018957604036600319011261018957610a32611c86565b610a3a612317565b610a4261261c565b6000906001600160a01b0360045416803b15610be9576001600160a01b036040519262f887cf60e81b8452169182600482015260016024820152838082604481865afa801561077f57610c0c575b505060405190630b37927d60e21b82526004820152602081602481855afa801561080b57610ac4918491610bed57506120ca565b610acc611ce6565b813b15610be9576040517fce8c42e80000000000000000000000000000000000000000000000000000000081526004356004820152838160248183875af1801561090e579060049460209392610bd9575b5050610b27612115565b610b3881610b33611ce6565b611dd6565b907f52c63247e1f47db19d5ce0460030c497f067ca4cebf71ba98eeadabe20bace02548015600014610bc1575050915b60405193848092631127a41d60e31b82525afa80156104045781610b9791602094600091610ba4575b50612657565b6001600055604051908152f35b610bbb9150853d87116109c4576109b68183611c9c565b85610b91565b610bce90610bd393611e4d565b611e60565b91610b68565b610be291611c9c565b8480610b1d565b8280fd5b610c06915060203d602011610804576107f58183611c9c565b846106ac565b610c1591611c9c565b8383610a90565b3461018957602036600319011261018957610c3561261c565b6000610c3f611ce6565b8160206001600160a01b03600154166064604051809481937f23b872dd00000000000000000000000000000000000000000000000000000000835233600484015230602484015260043560448401525af1801561080b5760209350610cff575b50610ca8612115565b610cb481610b33611ce6565b907f52c63247e1f47db19d5ce0460030c497f067ca4cebf71ba98eeadabe20bace02548015600014610ced5750505b610b978133612657565b610bce90610cfa93611e4d565b610ce3565b610d1590833d8511610804576107f58183611c9c565b610c9f565b34610189576000366003190112610189576040518060206002549283815201809260026000527f405787fa12a823e0f2b7631cc41b3ba8828b3321ca811111fa75cd3aa3bb5ace9060005b818110610dc75750505081610d7b910382611c9c565b6040519182916020830190602084525180915260408301919060005b818110610da5575050500390f35b82516001600160a01b0316845285945060209384019390920191600101610d97565b82546001600160a01b0316845260209093019260019283019201610d65565b3461018957604036600319011261018957610e0c610e02611c70565b60243590336123c6565b602060405160018152f35b3461018957604036600319011261018957600435610e33611c86565b90600090610e3f612317565b6001600160a01b036004541692833b15610be95760405162f887cf60e81b81526001600160a01b0382166004820152600260248201528381604481885afa801561090e5790846001600160a01b0393926110a2575b5050169260405190630b37927d60e21b82526004820152602081602481875afa90811561080b5790610ecc9184916109cb57506120ca565b610edb6106c6826106c1611ce6565b90604051631127a41d60e31b8152602081600481885afa90811561090e57610f0b918391869161099c575061251d565b610f13612273565b828110610f69575050908181936001600160a01b036001541673eeeeeeeeeeeeeeeeeeeeeeeeeeeeeeeeeeeeeeee81146000146107955750828092819282821561078c57f11561077f5760209150604051908152f35b610f77908395949295611dd6565b9281935b600254851080611099575b1561096a576001600160a01b03610f9c86611cbe565b90549060031b1c1660405163765ef2f360e11b8152602081600481855afa90811561095f578592918991849161105e575b506106c660209392610fde92611e4d565b848111611057575b6024906040519485938492632e1a7d4d60e01b845260048401525af190811561090e578491611024575b506108cb9061101e92611dd6565b93610f7b565b90506020813d821161104f575b8161103e60209383611c9c565b81010312610902575161101e611010565b3d9150611031565b5083610fe6565b92935050506020813d8211611091575b8161107b60209383611c9c565b81010312610953575184919088906106c6610fcd565b3d915061106e565b50801515610f86565b6110ab91611c9c565b8584610e94565b3461018957602036600319011261018957600460206001600160a01b036110d98335611cbe565b90549060031b1c16604051928380927faffd80b00000000000000000000000000000000000000000000000000000000082525afa801561040457600090611126575b602090604051908152f35b506020813d602011611151575b8161114060209383611c9c565b81010312610189576020905161111b565b3d9150611133565b346101895760003660031901126101895760405160007f52c63247e1f47db19d5ce0460030c497f067ca4cebf71ba98eeadabe20bace04548060011c90600181168015611294575b6020831081146112805782855290811561125c57506001146111de575b6111da836111ce81850382611c9c565b60405191829182611c27565b0390f35b7f52c63247e1f47db19d5ce0460030c497f067ca4cebf71ba98eeadabe20bace0460009081527f46a2803e59a4de4e7a4c574b1243f25977ac4c77d5a1a4a609b5394cebb4a2aa939250905b808210611242575090915081016020016111ce6111be565b91926001816020925483858801015201910190929161122a565b60ff191660208086019190915291151560051b840190910191506111ce90506111be565b602484634e487b7160e01b81526022600452fd5b91607f16916111a1565b346101895760003660031901126101895760206001600160a01b037f9016d09d72d40fdae2fd8ceac6b6234c7706214fd39c1cd1e609a0528c1993005416604051908152f35b34610189576000366003190112610189576020610181611337336001600160a01b03166000527f52c63247e1f47db19d5ce0460030c497f067ca4cebf71ba98eeadabe20bace0060205260406000205490565b611ea7565b3461018957600036600319011261018957611355612317565b60006001600160a01b037f9016d09d72d40fdae2fd8ceac6b6234c7706214fd39c1cd1e609a0528c1993005473ffffffffffffffffffffffffffffffffffffffff1981167f9016d09d72d40fdae2fd8ceac6b6234c7706214fd39c1cd1e609a0528c19930055167f8be0079c531659141344cd1fd0a4f28419497f9722a3daafe3b4186f6b6457e08280a3005b34610189576020366003190112610189576020610181611400611c70565b6001600160a01b03166000527f52c63247e1f47db19d5ce0460030c497f067ca4cebf71ba98eeadabe20bace0060205260406000205490565b346101895760203660031901126101895760206101816106c66004356106c1611ce6565b346101895760003660031901126101895760206001600160a01b0360015416604051908152f35b34610189576000366003190112610189576000806002545b8082106114d8578280612710039061271082116114c25760409182519182526020820152f35b634e487b7160e01b600052601160045260246000fd5b90916114f16001916001600160a01b0361047686611cbe565b92019061149c565b3461018957600036600319011261018957602060405160128152f35b34610189576020366003190112610189576020610181600435611ea7565b346101895760603660031901126101895761154c611c70565b611554611c86565b60443590611594836001600160a01b03166000527f52c63247e1f47db19d5ce0460030c497f067ca4cebf71ba98eeadabe20bace01602052604060002090565b6001600160a01b0333166000526020526040600020549260001984106115bf575b610e0c93506123c6565b828410611698576001600160a01b0381161561166957331561163a57610e0c9361161b826001600160a01b03166000527f52c63247e1f47db19d5ce0460030c497f067ca4cebf71ba98eeadabe20bace01602052604060002090565b6001600160a01b033316600052602052836040600020910390556115b5565b7f94280d6200000000000000000000000000000000000000000000000000000000600052600060045260246000fd5b7fe602df0500000000000000000000000000000000000000000000000000000000600052600060045260246000fd5b82847ffb8f41b2000000000000000000000000000000000000000000000000000000006000523360045260245260445260646000fd5b34610189576020366003190112610189576004356001600160a01b038116808203610189576116fb612317565b611706811515611de3565b61170f82612378565b611857576040517f8d928af8000000000000000000000000000000000000000000000000000000008152602081600481855afa8015610404576001600160a01b0391600091611838575b5016301490816117b5575b5061176e90611de3565b60025490680100000000000000008210156104ef576117968260016104189401600255611cbe565b9091906001600160a01b038084549260031b9316831b921b1916179055565b6004915060206001600160a01b036001541691604051938480927f5c222bad0000000000000000000000000000000000000000000000000000000082525afa9182156104045761176e926001600160a01b0391600091611819575b50161490611764565b611832915060203d6020116109c4576109b68183611c9c565b85611810565b611851915060203d6020116109c4576109b68183611c9c565b84611759565b606460405162461bcd60e51b815260206004820152601760248201527f537472617465677920616c7265616479206578697374730000000000000000006044820152fd5b346101895760003660031901126101895760207f52c63247e1f47db19d5ce0460030c497f067ca4cebf71ba98eeadabe20bace0254604051908152f35b34610189576020366003190112610189576004356001600160a01b03811690818103610189576103396119129161190d612317565b612378565b60025460005b81811061192157005b826001600160a01b0361193383611cbe565b90549060031b1c161461194857600101611918565b6001600160a01b0361195982611cbe565b90549060031b1c16803b156101895760008091600460405180948193630f8d564160e31b83525af1801561040457611a1c575b50611995612115565b60001982019182116114c2576117966001600160a01b036119b86119c694611cbe565b90549060031b1c1691611cbe565b6002548015611a0657600019016119dc81611cbe565b6001600160a01b0382549160031b1b19169055600255600052600360205260006040812055600080f35b634e487b7160e01b600052603160045260246000fd5b6000611a2791611c9c565b8361198c565b34610189576000366003190112610189576020610181611ce6565b34610189576020366003190112610189576004356001600160a01b0381168091036101895760005260036020526020604060002054604051908152f35b3461018957604036600319011261018957611a9e611c70565b602435903315611669576001600160a01b031690811561163a573360009081527f52c63247e1f47db19d5ce0460030c497f067ca4cebf71ba98eeadabe20bace016020526040902082600052602052806040600020556040519081527f8c5be1e5ebec7d5bd14f71427d1e84f3dd0314c0f7b2291e5b200ac8c7c3b92560203392a3602060405160018152f35b346101895760003660031901126101895760405160007f52c63247e1f47db19d5ce0460030c497f067ca4cebf71ba98eeadabe20bace03548060011c90600181168015611c1d575b6020831081146112805782855290811561125c5750600114611b9f576111da836111ce81850382611c9c565b7f52c63247e1f47db19d5ce0460030c497f067ca4cebf71ba98eeadabe20bace0360009081527f2ae08a8e29253f69ac5d979a101956ab8f8d9d7ded63fa7a83b16fc47648eab0939250905b808210611c03575090915081016020016111ce6111be565b919260018160209254838588010152019101909291611beb565b91607f1691611b73565b91909160208152825180602083015260005b818110611c5a575060409293506000838284010152601f8019910116010190565b8060208092870101516040828601015201611c39565b600435906001600160a01b038216820361018957565b602435906001600160a01b038216820361018957565b90601f8019910116810190811067ffffffffffffffff8211176104ef57604052565b60025481101561036957600260005260206000200190600090565b919082018092116114c257565b611cee612273565b9060006002545b808210611d00575050565b9092600460206001600160a01b03611d1787611cbe565b90549060031b1c166040519283809263765ef2f360e11b82525afa90811561040457600091611d56575b50611d4e90600192611cd9565b930190611cf5565b906020823d8211611d83575b81611d6f60209383611c9c565b81010312611d805750516001611d41565b80fd5b3d9150611d62565b15611d9257565b606460405162461bcd60e51b815260206004820152601260248201527f5374726174656779206e6f7420666f756e6400000000000000000000000000006044820152fd5b919082039182116114c257565b15611dea57565b606460405162461bcd60e51b815260206004820152601060248201527f496e76616c6964207374726174656779000000000000000000000000000000006044820152fd5b9081602091031261018957516001600160a01b03811681036101895790565b818102929181159184041417156114c257565b8115611e6a570490565b634e487b7160e01b600052601260045260246000fd5b60001981146114c25760010190565b90816020910312610189575180151581036101895790565b611eb66106c6826106c1611ce6565b90611ec1813361251d565b611ec9612273565b828110611f75575b5050906001600160a01b036001541673eeeeeeeeeeeeeeeeeeeeeeeeeeeeeeeeeeeeeeee8114600014611f2357508160008115611f1a575b600080809381933390f11561040457565b506108fc611f09565b60405163a9059cbb60e01b81523360048201526024810184905290602090829060449082906000905af1801561040457611f5a5750565b611f729060203d602011610804576107f58183611c9c565b50565b611f7f9083611dd6565b926000935b6002548510806120c1575b1561209d576001600160a01b03611fa586611cbe565b90549060031b1c1660405163765ef2f360e11b8152602081600481855afa8015610404578591600091612067575b5091611fe66106c6602093600095611e4d565b848111612060575b6024906040519485938492632e1a7d4d60e01b845260048401525af19081156104045760009161202d575b506108cb9061202792611dd6565b93611f84565b906020823d8211612058575b8161204660209383611c9c565b81010312611d80575051612027612019565b3d9150612039565b5083611fee565b91506020823d8211612095575b8161208160209383611c9c565b81010312611d805750518490611fe6611fd3565b3d9150612074565b509250506120a9612273565b818111156120ba57505b3880611ed1565b90506120b3565b50801515611f8f565b156120d157565b606460405162461bcd60e51b815260206004820152600e60248201527f4e6f7420617574686f72697a65640000000000000000000000000000000000006044820152fd5b61211d612273565b9060005b60025481101561226e576001600160a01b0361213c82611cbe565b90549060031b1c169081600052600360205261271061216060406000205486611e4d565b048015612264576000906001600160a01b036001541673eeeeeeeeeeeeeeeeeeeeeeeeeeeeeeeeeeeeeeee811483146122025750818080928682f115610404575b813b1561018957600080926004604051809581937fd0e30db00000000000000000000000000000000000000000000000000000000083525af1918215610404576001926121f1575b505b01612121565b60006121fc91611c9c565b386121e9565b60405163a9059cbb60e01b81526001600160a01b03861660048201526024810192909252909160209183916044918391905af1801561040457612246575b506121a1565b61225d9060203d8111610804576107f58183611c9c565b5038612240565b50600191506121eb565b509050565b6001546001600160a01b031673eeeeeeeeeeeeeeeeeeeeeeeeeeeeeeeeeeeeeeee810361229f57504790565b6020602491604051928380927f70a082310000000000000000000000000000000000000000000000000000000082523060048301525afa908115610404576000916122e8575090565b90506020813d60201161230f575b8161230360209383611c9c565b81010312610189575190565b3d91506122f6565b6001600160a01b037f9016d09d72d40fdae2fd8ceac6b6234c7706214fd39c1cd1e609a0528c1993005416330361234a57565b7f118cdaa7000000000000000000000000000000000000000000000000000000006000523360045260246000fd5b6002549060005b82811061238e57505050600090565b6001600160a01b0361239f82611cbe565b90549060031b1c166001600160a01b038316146123be5760010161237f565b505050600190565b6001600160a01b03169081156124ee576001600160a01b03169182156124bf5760008281527f52c63247e1f47db19d5ce0460030c497f067ca4cebf71ba98eeadabe20bace0060205260408120548281106124a55791604082827fddf252ad1be2c89b69c2b068fc378daa952ba7f163c4a11628f55a4df523b3ef9587602096527f52c63247e1f47db19d5ce0460030c497f067ca4cebf71ba98eeadabe20bace00865203828220558681527f52c63247e1f47db19d5ce0460030c497f067ca4cebf71ba98eeadabe20bace00845220818154019055604051908152a3565b60649363391434e360e21b83949352600452602452604452fd5b7fec442f0500000000000000000000000000000000000000000000000000000000600052600060045260246000fd5b7f96c6fd1e00000000000000000000000000000000000000000000000000000000600052600060045260246000fd5b6001600160a01b031680156124ee576000918183527f52c63247e1f47db19d5ce0460030c497f067ca4cebf71ba98eeadabe20bace00602052604083205481811061260357817fddf252ad1be2c89b69c2b068fc378daa952ba7f163c4a11628f55a4df523b3ef926020928587527f52c63247e1f47db19d5ce0460030c497f067ca4cebf71ba98eeadabe20bace008452036040862055807f52c63247e1f47db19d5ce0460030c497f067ca4cebf71ba98eeadabe20bace0254037f52c63247e1f47db19d5ce0460030c497f067ca4cebf71ba98eeadabe20bace0255604051908152a3565b839263391434e360e21b60649552600452602452604452fd5b60026000541461262d576002600055565b7f3ee5aeb50000000000000000000000000000000000000000000000000000000060005260046000fd5b6001600160a01b03169081156124bf577fddf252ad1be2c89b69c2b068fc378daa952ba7f163c4a11628f55a4df523b3ef6020826126b86000947f52c63247e1f47db19d5ce0460030c497f067ca4cebf71ba98eeadabe20bace0254611cd9565b7f52c63247e1f47db19d5ce0460030c497f067ca4cebf71ba98eeadabe20bace02558484527f52c63247e1f47db19d5ce0460030c497f067ca4cebf71ba98eeadabe20bace00825260408420818154019055604051908152a356fea26469706673582212204ec7565dcb512766a3ad378e04365e8692bbd4888e2e48de06b1e6602b6404f964736f6c634300081c0033",
          "opcodes": "PUSH1 0x80 DUP1 PUSH1 0x40 MSTORE CALLVALUE PUSH1 0x1A JUMPI PUSH1 0x1 PUSH1 0x0 SSTORE PUSH2 0x2749 SWAP1 DUP2 PUSH2 0x20 DUP3 CODECOPY RETURN JUMPDEST PUSH1 0x0 DUP1 REVERT INVALID PUSH1 0x80 PUSH1 0x40 MSTORE PUSH1 0x4 CALLDATASIZE LT ISZERO PUSH2 0x12 JUMPI PUSH1 0x0 DUP1 REVERT JUMPDEST PUSH1 0x0 CALLDATALOAD PUSH1 0xE0 SHR DUP1 PUSH4 0x6FDDE03 EQ PUSH2 0x1B2B JUMPI DUP1 PUSH4 0x95EA7B3 EQ PUSH2 0x1A85 JUMPI DUP1 PUSH4 0xE022923 EQ PUSH2 0x1A48 JUMPI DUP1 PUSH4 0x12065FE0 EQ PUSH2 0x1A2D JUMPI DUP1 PUSH4 0x175188E8 EQ PUSH2 0x18D8 JUMPI DUP1 PUSH4 0x18160DDD EQ PUSH2 0x189B JUMPI DUP1 PUSH4 0x223E5479 EQ PUSH2 0x16CE JUMPI DUP1 PUSH4 0x23B872DD EQ PUSH2 0x1533 JUMPI DUP1 PUSH4 0x2E1A7D4D EQ PUSH2 0x1515 JUMPI DUP1 PUSH4 0x313CE567 EQ PUSH2 0x14F9 JUMPI DUP1 PUSH4 0x4051DDAC EQ PUSH2 0x1484 JUMPI DUP1 PUSH4 0x5C222BAD EQ PUSH2 0x145D JUMPI DUP1 PUSH4 0x6F7267B7 EQ PUSH2 0x1439 JUMPI DUP1 PUSH4 0x70A08231 EQ PUSH2 0x13E2 JUMPI DUP1 PUSH4 0x715018A6 EQ PUSH2 0x133C JUMPI DUP1 PUSH4 0x853828B6 EQ PUSH2 0x12E4 JUMPI DUP1 PUSH4 0x8DA5CB5B EQ PUSH2 0x129E JUMPI DUP1 PUSH4 0x95D89B41 EQ PUSH2 0x1159 JUMPI DUP1 PUSH4 0xA29B3C90 EQ PUSH2 0x10B2 JUMPI DUP1 PUSH4 0xA49B5CB4 EQ PUSH2 0xE17 JUMPI DUP1 PUSH4 0xA9059CBB EQ PUSH2 0xDE6 JUMPI DUP1 PUSH4 0xB49A60BB EQ PUSH2 0xD1A JUMPI DUP1 PUSH4 0xB6B55F25 EQ PUSH2 0xC1C JUMPI DUP1 PUSH4 0xB76E07CC EQ PUSH2 0xA19 JUMPI DUP1 PUSH4 0xC07E866E EQ PUSH2 0x59B JUMPI DUP1 PUSH4 0xD389800F EQ PUSH2 0x582 JUMPI DUP1 PUSH4 0xDD62ED3E EQ PUSH2 0x505 JUMPI DUP1 PUSH4 0xEE6CE925 EQ PUSH2 0x27B JUMPI DUP1 PUSH4 0xF2FDE38B EQ PUSH2 0x18E JUMPI PUSH4 0xF9CC0605 EQ PUSH2 0x166 JUMPI PUSH1 0x0 DUP1 REVERT JUMPDEST CALLVALUE PUSH2 0x189 JUMPI PUSH1 0x0 CALLDATASIZE PUSH1 0x3 NOT ADD SLT PUSH2 0x189 JUMPI PUSH1 0x20 PUSH2 0x181 PUSH2 0x2273 JUMP JUMPDEST PUSH1 0x40 MLOAD SWAP1 DUP2 MSTORE RETURN JUMPDEST PUSH1 0x0 DUP1 REVERT JUMPDEST CALLVALUE PUSH2 0x189 JUMPI PUSH1 0x20 CALLDATASIZE PUSH1 0x3 NOT ADD SLT PUSH2 0x189 JUMPI PUSH1 0x1 PUSH1 0x1 PUSH1 0xA0 SHL SUB PUSH2 0x1AF PUSH2 0x1C70 JUMP JUMPDEST PUSH2 0x1B7 PUSH2 0x2317 JUMP JUMPDEST AND DUP1 ISZERO PUSH2 0x24C JUMPI PUSH1 0x1 PUSH1 0x1 PUSH1 0xA0 SHL SUB PUSH32 0x9016D09D72D40FDAE2FD8CEAC6B6234C7706214FD39C1CD1E609A0528C199300 SLOAD DUP3 PUSH20 0xFFFFFFFFFFFFFFFFFFFFFFFFFFFFFFFFFFFFFFFF NOT DUP3 AND OR PUSH32 0x9016D09D72D40FDAE2FD8CEAC6B6234C7706214FD39C1CD1E609A0528C199300 SSTORE AND PUSH32 0x8BE0079C531659141344CD1FD0A4F28419497F9722A3DAAFE3B4186F6B6457E0 PUSH1 0x0 DUP1 LOG3 STOP JUMPDEST PUSH32 0x1E4FBDF700000000000000000000000000000000000000000000000000000000 PUSH1 0x0 MSTORE PUSH1 0x0 PUSH1 0x4 MSTORE PUSH1 0x24 PUSH1 0x0 REVERT JUMPDEST CALLVALUE PUSH2 0x189 JUMPI PUSH1 0x20 CALLDATASIZE PUSH1 0x3 NOT ADD SLT PUSH2 0x189 JUMPI PUSH1 0x4 CALLDATALOAD PUSH8 0xFFFFFFFFFFFFFFFF DUP2 GT PUSH2 0x189 JUMPI CALLDATASIZE PUSH1 0x23 DUP3 ADD SLT ISZERO PUSH2 0x189 JUMPI DUP1 PUSH1 0x4 ADD CALLDATALOAD SWAP1 PUSH8 0xFFFFFFFFFFFFFFFF DUP3 GT PUSH2 0x4EF JUMPI DUP2 PUSH1 0x5 SHL PUSH1 0x40 MLOAD SWAP3 PUSH2 0x2D3 PUSH1 0x20 DUP4 ADD DUP6 PUSH2 0x1C9C JUMP JUMPDEST DUP4 MSTORE PUSH1 0x24 PUSH1 0x20 DUP5 ADD SWAP2 DUP4 ADD ADD SWAP2 CALLDATASIZE DUP4 GT PUSH2 0x189 JUMPI PUSH1 0x24 ADD SWAP1 JUMPDEST DUP3 DUP3 LT PUSH2 0x4DF JUMPI DUP4 PUSH2 0x2FC PUSH2 0x2317 JUMP JUMPDEST PUSH1 0x2 SLOAD DUP2 MLOAD SUB PUSH2 0x49B JUMPI PUSH1 0x0 JUMPDEST PUSH1 0x2 SLOAD DUP2 LT ISZERO PUSH2 0x37F JUMPI PUSH1 0x1 PUSH1 0x1 PUSH1 0xA0 SHL SUB PUSH2 0x324 DUP3 PUSH2 0x1CBE JUMP JUMPDEST SWAP1 SLOAD SWAP1 PUSH1 0x3 SHL SHR AND SWAP1 PUSH2 0x33E PUSH2 0x339 DUP4 PUSH2 0x2378 JUMP JUMPDEST PUSH2 0x1D8B JUMP JUMPDEST DUP3 MLOAD DUP2 LT ISZERO PUSH2 0x369 JUMPI PUSH1 0x1 SWAP2 PUSH1 0x20 DUP3 PUSH1 0x5 SHL DUP6 ADD ADD MLOAD SWAP1 PUSH1 0x0 MSTORE PUSH1 0x3 PUSH1 0x20 MSTORE PUSH1 0x40 PUSH1 0x0 KECCAK256 SSTORE ADD PUSH2 0x309 JUMP JUMPDEST PUSH4 0x4E487B71 PUSH1 0xE0 SHL PUSH1 0x0 MSTORE PUSH1 0x32 PUSH1 0x4 MSTORE PUSH1 0x24 PUSH1 0x0 REVERT JUMPDEST PUSH1 0x0 DUP1 PUSH1 0x2 SLOAD JUMPDEST DUP1 DUP4 LT PUSH2 0x45E JUMPI PUSH2 0x2710 DUP3 GT PUSH2 0x41A JUMPI PUSH1 0x0 JUMPDEST PUSH1 0x2 SLOAD DUP2 LT ISZERO PUSH2 0x410 JUMPI PUSH1 0x1 PUSH1 0x1 PUSH1 0xA0 SHL SUB PUSH2 0x3B4 DUP3 PUSH2 0x1CBE JUMP JUMPDEST SWAP1 SLOAD SWAP1 PUSH1 0x3 SHL SHR AND SWAP1 DUP2 EXTCODESIZE ISZERO PUSH2 0x189 JUMPI PUSH1 0x0 DUP1 SWAP3 PUSH1 0x4 PUSH1 0x40 MLOAD DUP1 SWAP6 DUP2 SWAP4 PUSH4 0xF8D5641 PUSH1 0xE3 SHL DUP4 MSTORE GAS CALL SWAP2 DUP3 ISZERO PUSH2 0x404 JUMPI PUSH1 0x1 SWAP3 PUSH2 0x3F3 JUMPI JUMPDEST POP ADD PUSH2 0x399 JUMP JUMPDEST PUSH1 0x0 PUSH2 0x3FE SWAP2 PUSH2 0x1C9C JUMP JUMPDEST DUP3 PUSH2 0x3EC JUMP JUMPDEST PUSH1 0x40 MLOAD RETURNDATASIZE PUSH1 0x0 DUP3 RETURNDATACOPY RETURNDATASIZE SWAP1 REVERT JUMPDEST PUSH2 0x418 PUSH2 0x2115 JUMP JUMPDEST STOP JUMPDEST PUSH1 0x64 PUSH1 0x40 MLOAD PUSH3 0x461BCD PUSH1 0xE5 SHL DUP2 MSTORE PUSH1 0x20 PUSH1 0x4 DUP3 ADD MSTORE PUSH1 0x16 PUSH1 0x24 DUP3 ADD MSTORE PUSH32 0x416C6C6F636174696F6E2065786365656473206D617800000000000000000000 PUSH1 0x44 DUP3 ADD MSTORE REVERT JUMPDEST SWAP1 PUSH2 0x492 PUSH1 0x1 SWAP2 PUSH1 0x1 PUSH1 0x1 PUSH1 0xA0 SHL SUB PUSH2 0x476 DUP7 PUSH2 0x1CBE JUMP JUMPDEST SWAP1 SLOAD SWAP1 PUSH1 0x3 SHL SHR AND PUSH1 0x0 MSTORE PUSH1 0x3 PUSH1 0x20 MSTORE PUSH1 0x40 PUSH1 0x0 KECCAK256 SLOAD SWAP1 PUSH2 0x1CD9 JUMP JUMPDEST SWAP3 ADD SWAP2 SWAP1 PUSH2 0x386 JUMP JUMPDEST PUSH1 0x64 PUSH1 0x40 MLOAD PUSH3 0x461BCD PUSH1 0xE5 SHL DUP2 MSTORE PUSH1 0x20 PUSH1 0x4 DUP3 ADD MSTORE PUSH1 0x18 PUSH1 0x24 DUP3 ADD MSTORE PUSH32 0x4D69736D617463686564206172726179206C656E677468730000000000000000 PUSH1 0x44 DUP3 ADD MSTORE REVERT JUMPDEST DUP2 CALLDATALOAD DUP2 MSTORE PUSH1 0x20 SWAP2 DUP3 ADD SWAP2 ADD PUSH2 0x2EC JUMP JUMPDEST PUSH4 0x4E487B71 PUSH1 0xE0 SHL PUSH1 0x0 MSTORE PUSH1 0x41 PUSH1 0x4 MSTORE PUSH1 0x24 PUSH1 0x0 REVERT JUMPDEST CALLVALUE PUSH2 0x189 JUMPI PUSH1 0x40 CALLDATASIZE PUSH1 0x3 NOT ADD SLT PUSH2 0x189 JUMPI PUSH2 0x51E PUSH2 0x1C70 JUMP JUMPDEST PUSH1 0x1 PUSH1 0x1 PUSH1 0xA0 SHL SUB PUSH2 0x56A PUSH2 0x531 PUSH2 0x1C86 JUMP JUMPDEST SWAP3 PUSH1 0x1 PUSH1 0x1 PUSH1 0xA0 SHL SUB AND PUSH1 0x0 MSTORE PUSH32 0x52C63247E1F47DB19D5CE0460030C497F067CA4CEBF71BA98EEADABE20BACE01 PUSH1 0x20 MSTORE PUSH1 0x40 PUSH1 0x0 KECCAK256 SWAP1 JUMP JUMPDEST SWAP2 AND PUSH1 0x0 MSTORE PUSH1 0x20 MSTORE PUSH1 0x20 PUSH1 0x40 PUSH1 0x0 KECCAK256 SLOAD PUSH1 0x40 MLOAD SWAP1 DUP2 MSTORE RETURN JUMPDEST CALLVALUE PUSH2 0x189 JUMPI PUSH1 0x0 CALLDATASIZE PUSH1 0x3 NOT ADD SLT PUSH2 0x189 JUMPI PUSH2 0x418 PUSH2 0x2115 JUMP JUMPDEST CALLVALUE PUSH2 0x189 JUMPI PUSH1 0x20 CALLDATASIZE PUSH1 0x3 NOT ADD SLT PUSH2 0x189 JUMPI PUSH2 0x5B4 PUSH2 0x1C70 JUMP JUMPDEST PUSH2 0x5BC PUSH2 0x2317 JUMP JUMPDEST PUSH1 0x1 PUSH1 0x1 PUSH1 0xA0 SHL SUB DUP2 AND SWAP1 PUSH1 0x40 MLOAD PUSH4 0x1127A41D PUSH1 0xE3 SHL DUP2 MSTORE PUSH1 0x20 DUP2 PUSH1 0x4 DUP2 DUP7 GAS STATICCALL DUP1 ISZERO PUSH2 0x404 JUMPI PUSH1 0x1 PUSH1 0x1 PUSH1 0xA0 SHL SUB SWAP2 PUSH1 0x0 SWAP2 PUSH2 0x9FA JUMPI JUMPDEST POP AND PUSH1 0x0 MSTORE PUSH32 0x52C63247E1F47DB19D5CE0460030C497F067CA4CEBF71BA98EEADABE20BACE00 PUSH1 0x20 MSTORE PUSH1 0x40 PUSH1 0x0 KECCAK256 SLOAD PUSH1 0x0 SWAP2 PUSH2 0x62E PUSH2 0x2317 JUMP JUMPDEST PUSH1 0x1 PUSH1 0x1 PUSH1 0xA0 SHL SUB PUSH1 0x4 SLOAD AND SWAP1 DUP2 EXTCODESIZE ISZERO PUSH2 0x902 JUMPI PUSH1 0x40 MLOAD PUSH3 0xF887CF PUSH1 0xE8 SHL DUP2 MSTORE PUSH1 0x1 PUSH1 0x1 PUSH1 0xA0 SHL SUB SWAP2 SWAP1 SWAP2 AND PUSH1 0x4 DUP3 ADD MSTORE PUSH1 0x2 PUSH1 0x24 DUP3 ADD MSTORE DUP4 DUP2 PUSH1 0x44 DUP2 DUP6 GAS STATICCALL DUP1 ISZERO PUSH2 0x90E JUMPI DUP5 SWAP1 PUSH2 0x9EA JUMPI JUMPDEST POP POP PUSH1 0x40 MLOAD SWAP1 PUSH4 0xB37927D PUSH1 0xE2 SHL DUP3 MSTORE PUSH1 0x4 DUP3 ADD MSTORE PUSH1 0x20 DUP2 PUSH1 0x24 DUP2 DUP8 GAS STATICCALL SWAP1 DUP2 ISZERO PUSH2 0x80B JUMPI SWAP1 PUSH2 0x6B2 SWAP2 DUP5 SWAP2 PUSH2 0x9CB JUMPI JUMPDEST POP PUSH2 0x20CA JUMP JUMPDEST PUSH2 0x6EE PUSH2 0x6C6 DUP3 PUSH2 0x6C1 PUSH2 0x1CE6 JUMP JUMPDEST PUSH2 0x1E4D JUMP JUMPDEST PUSH32 0x52C63247E1F47DB19D5CE0460030C497F067CA4CEBF71BA98EEADABE20BACE02 SLOAD SWAP1 PUSH2 0x1E60 JUMP JUMPDEST SWAP1 PUSH1 0x40 MLOAD PUSH4 0x1127A41D PUSH1 0xE3 SHL DUP2 MSTORE PUSH1 0x20 DUP2 PUSH1 0x4 DUP2 DUP9 GAS STATICCALL SWAP1 DUP2 ISZERO PUSH2 0x90E JUMPI PUSH2 0x71F SWAP2 DUP4 SWAP2 DUP7 SWAP2 PUSH2 0x99C JUMPI JUMPDEST POP PUSH2 0x251D JUMP JUMPDEST PUSH2 0x727 PUSH2 0x2273 JUMP JUMPDEST DUP3 DUP2 LT PUSH2 0x816 JUMPI JUMPDEST POP POP SWAP1 DUP2 DUP2 SWAP4 PUSH1 0x1 PUSH1 0x1 PUSH1 0xA0 SHL SUB PUSH1 0x1 SLOAD AND PUSH20 0xEEEEEEEEEEEEEEEEEEEEEEEEEEEEEEEEEEEEEEEE DUP2 EQ PUSH1 0x0 EQ PUSH2 0x795 JUMPI POP DUP3 DUP1 SWAP3 DUP2 SWAP3 DUP3 DUP3 ISZERO PUSH2 0x78C JUMPI JUMPDEST CALL ISZERO PUSH2 0x77F JUMPI PUSH1 0x20 SWAP2 POP PUSH1 0x40 MLOAD SWAP1 DUP2 MSTORE RETURN JUMPDEST POP PUSH1 0x40 MLOAD SWAP1 RETURNDATASIZE SWAP1 DUP3 RETURNDATACOPY RETURNDATASIZE SWAP1 REVERT JUMPDEST POP PUSH2 0x8FC PUSH2 0x76D JUMP JUMPDEST PUSH1 0x40 MLOAD PUSH4 0xA9059CBB PUSH1 0xE0 SHL DUP2 MSTORE PUSH1 0x1 PUSH1 0x1 PUSH1 0xA0 SHL SUB SWAP3 SWAP1 SWAP3 AND PUSH1 0x4 DUP4 ADD MSTORE PUSH1 0x24 DUP3 ADD SWAP3 SWAP1 SWAP3 MSTORE SWAP2 PUSH1 0x20 SWAP2 DUP4 SWAP2 PUSH1 0x44 SWAP2 DUP4 SWAP2 SWAP1 GAS CALL DUP1 ISZERO PUSH2 0x80B JUMPI PUSH1 0x20 SWAP4 POP PUSH2 0x7DE JUMPI JUMPDEST POP PUSH2 0x181 JUMP JUMPDEST PUSH2 0x7FD SWAP1 DUP4 RETURNDATASIZE DUP6 GT PUSH2 0x804 JUMPI JUMPDEST PUSH2 0x7F5 DUP2 DUP4 PUSH2 0x1C9C JUMP JUMPDEST DUP2 ADD SWAP1 PUSH2 0x1E8F JUMP JUMPDEST POP DUP3 PUSH2 0x7D8 JUMP JUMPDEST POP RETURNDATASIZE PUSH2 0x7EB JUMP JUMPDEST PUSH1 0x40 MLOAD RETURNDATASIZE DUP6 DUP3 RETURNDATACOPY RETURNDATASIZE SWAP1 REVERT JUMPDEST PUSH2 0x824 SWAP1 DUP4 SWAP6 SWAP5 SWAP3 SWAP6 PUSH2 0x1DD6 JUMP JUMPDEST SWAP3 DUP2 SWAP4 JUMPDEST PUSH1 0x2 SLOAD DUP6 LT DUP1 PUSH2 0x993 JUMPI JUMPDEST ISZERO PUSH2 0x96A JUMPI PUSH1 0x1 PUSH1 0x1 PUSH1 0xA0 SHL SUB PUSH2 0x849 DUP7 PUSH2 0x1CBE JUMP JUMPDEST SWAP1 SLOAD SWAP1 PUSH1 0x3 SHL SHR AND PUSH1 0x40 MLOAD PUSH4 0x765EF2F3 PUSH1 0xE1 SHL DUP2 MSTORE PUSH1 0x20 DUP2 PUSH1 0x4 DUP2 DUP6 GAS STATICCALL SWAP1 DUP2 ISZERO PUSH2 0x95F JUMPI DUP6 SWAP3 SWAP2 DUP10 SWAP2 DUP5 SWAP2 PUSH2 0x920 JUMPI JUMPDEST POP PUSH2 0x6C6 PUSH1 0x20 SWAP4 SWAP3 PUSH2 0x88B SWAP3 PUSH2 0x1E4D JUMP JUMPDEST DUP5 DUP2 GT PUSH2 0x919 JUMPI JUMPDEST PUSH1 0x24 SWAP1 PUSH1 0x40 MLOAD SWAP5 DUP6 SWAP4 DUP5 SWAP3 PUSH4 0x2E1A7D4D PUSH1 0xE0 SHL DUP5 MSTORE PUSH1 0x4 DUP5 ADD MSTORE GAS CALL SWAP1 DUP2 ISZERO PUSH2 0x90E JUMPI DUP5 SWAP2 PUSH2 0x8D7 JUMPI JUMPDEST POP PUSH2 0x8CB SWAP1 PUSH2 0x8D1 SWAP3 PUSH2 0x1DD6 JUMP JUMPDEST SWAP5 PUSH2 0x1E80 JUMP JUMPDEST SWAP4 PUSH2 0x828 JUMP JUMPDEST SWAP1 POP PUSH1 0x20 DUP2 RETURNDATASIZE DUP3 GT PUSH2 0x906 JUMPI JUMPDEST DUP2 PUSH2 0x8F1 PUSH1 0x20 SWAP4 DUP4 PUSH2 0x1C9C JUMP JUMPDEST DUP2 ADD SUB SLT PUSH2 0x902 JUMPI MLOAD PUSH2 0x8D1 PUSH2 0x8BD JUMP JUMPDEST DUP4 DUP1 REVERT JUMPDEST RETURNDATASIZE SWAP2 POP PUSH2 0x8E4 JUMP JUMPDEST PUSH1 0x40 MLOAD RETURNDATASIZE DUP7 DUP3 RETURNDATACOPY RETURNDATASIZE SWAP1 REVERT JUMPDEST POP DUP4 PUSH2 0x893 JUMP JUMPDEST SWAP3 SWAP4 POP POP POP PUSH1 0x20 DUP2 RETURNDATASIZE DUP3 GT PUSH2 0x957 JUMPI JUMPDEST DUP2 PUSH2 0x93D PUSH1 0x20 SWAP4 DUP4 PUSH2 0x1C9C JUMP JUMPDEST DUP2 ADD SUB SLT PUSH2 0x953 JUMPI MLOAD DUP5 SWAP2 SWAP1 DUP9 SWAP1 PUSH2 0x6C6 PUSH2 0x87A JUMP JUMPDEST DUP5 DUP1 REVERT JUMPDEST RETURNDATASIZE SWAP2 POP PUSH2 0x930 JUMP JUMPDEST PUSH1 0x40 MLOAD RETURNDATASIZE DUP8 DUP3 RETURNDATACOPY RETURNDATASIZE SWAP1 REVERT JUMPDEST POP SWAP3 POP SWAP3 POP DUP3 SWAP1 PUSH2 0x979 PUSH2 0x2273 JUMP JUMPDEST DUP2 DUP2 GT ISZERO PUSH2 0x98C JUMPI POP JUMPDEST SWAP1 SWAP2 SWAP3 DUP5 PUSH2 0x72F JUMP JUMPDEST SWAP1 POP PUSH2 0x983 JUMP JUMPDEST POP DUP1 ISZERO ISZERO PUSH2 0x833 JUMP JUMPDEST PUSH2 0x9BE SWAP2 POP PUSH1 0x20 RETURNDATASIZE PUSH1 0x20 GT PUSH2 0x9C4 JUMPI JUMPDEST PUSH2 0x9B6 DUP2 DUP4 PUSH2 0x1C9C JUMP JUMPDEST DUP2 ADD SWAP1 PUSH2 0x1E2E JUMP JUMPDEST DUP8 PUSH2 0x719 JUMP JUMPDEST POP RETURNDATASIZE PUSH2 0x9AC JUMP JUMPDEST PUSH2 0x9E4 SWAP2 POP PUSH1 0x20 RETURNDATASIZE PUSH1 0x20 GT PUSH2 0x804 JUMPI PUSH2 0x7F5 DUP2 DUP4 PUSH2 0x1C9C JUMP JUMPDEST DUP6 PUSH2 0x6AC JUMP JUMPDEST PUSH2 0x9F3 SWAP2 PUSH2 0x1C9C JUMP JUMPDEST DUP5 DUP4 PUSH2 0x67B JUMP JUMPDEST PUSH2 0xA13 SWAP2 POP PUSH1 0x20 RETURNDATASIZE PUSH1 0x20 GT PUSH2 0x9C4 JUMPI PUSH2 0x9B6 DUP2 DUP4 PUSH2 0x1C9C JUMP JUMPDEST DUP5 PUSH2 0x5F4 JUMP JUMPDEST CALLVALUE PUSH2 0x189 JUMPI PUSH1 0x40 CALLDATASIZE PUSH1 0x3 NOT ADD SLT PUSH2 0x189 JUMPI PUSH2 0xA32 PUSH2 0x1C86 JUMP JUMPDEST PUSH2 0xA3A PUSH2 0x2317 JUMP JUMPDEST PUSH2 0xA42 PUSH2 0x261C JUMP JUMPDEST PUSH1 0x0 SWAP1 PUSH1 0x1 PUSH1 0x1 PUSH1 0xA0 SHL SUB PUSH1 0x4 SLOAD AND DUP1 EXTCODESIZE ISZERO PUSH2 0xBE9 JUMPI PUSH1 0x1 PUSH1 0x1 PUSH1 0xA0 SHL SUB PUSH1 0x40 MLOAD SWAP3 PUSH3 0xF887CF PUSH1 0xE8 SHL DUP5 MSTORE AND SWAP2 DUP3 PUSH1 0x4 DUP3 ADD MSTORE PUSH1 0x1 PUSH1 0x24 DUP3 ADD MSTORE DUP4 DUP1 DUP3 PUSH1 0x44 DUP2 DUP7 GAS STATICCALL DUP1 ISZERO PUSH2 0x77F JUMPI PUSH2 0xC0C JUMPI JUMPDEST POP POP PUSH1 0x40 MLOAD SWAP1 PUSH4 0xB37927D PUSH1 0xE2 SHL DUP3 MSTORE PUSH1 0x4 DUP3 ADD MSTORE PUSH1 0x20 DUP2 PUSH1 0x24 DUP2 DUP6 GAS STATICCALL DUP1 ISZERO PUSH2 0x80B JUMPI PUSH2 0xAC4 SWAP2 DUP5 SWAP2 PUSH2 0xBED JUMPI POP PUSH2 0x20CA JUMP JUMPDEST PUSH2 0xACC PUSH2 0x1CE6 JUMP JUMPDEST DUP2 EXTCODESIZE ISZERO PUSH2 0xBE9 JUMPI PUSH1 0x40 MLOAD PUSH32 0xCE8C42E800000000000000000000000000000000000000000000000000000000 DUP2 MSTORE PUSH1 0x4 CALLDATALOAD PUSH1 0x4 DUP3 ADD MSTORE DUP4 DUP2 PUSH1 0x24 DUP2 DUP4 DUP8 GAS CALL DUP1 ISZERO PUSH2 0x90E JUMPI SWAP1 PUSH1 0x4 SWAP5 PUSH1 0x20 SWAP4 SWAP3 PUSH2 0xBD9 JUMPI JUMPDEST POP POP PUSH2 0xB27 PUSH2 0x2115 JUMP JUMPDEST PUSH2 0xB38 DUP2 PUSH2 0xB33 PUSH2 0x1CE6 JUMP JUMPDEST PUSH2 0x1DD6 JUMP JUMPDEST SWAP1 PUSH32 0x52C63247E1F47DB19D5CE0460030C497F067CA4CEBF71BA98EEADABE20BACE02 SLOAD DUP1 ISZERO PUSH1 0x0 EQ PUSH2 0xBC1 JUMPI POP POP SWAP2 JUMPDEST PUSH1 0x40 MLOAD SWAP4 DUP5 DUP1 SWAP3 PUSH4 0x1127A41D PUSH1 0xE3 SHL DUP3 MSTORE GAS STATICCALL DUP1 ISZERO PUSH2 0x404 JUMPI DUP2 PUSH2 0xB97 SWAP2 PUSH1 0x20 SWAP5 PUSH1 0x0 SWAP2 PUSH2 0xBA4 JUMPI JUMPDEST POP PUSH2 0x2657 JUMP JUMPDEST PUSH1 0x1 PUSH1 0x0 SSTORE PUSH1 0x40 MLOAD SWAP1 DUP2 MSTORE RETURN JUMPDEST PUSH2 0xBBB SWAP2 POP DUP6 RETURNDATASIZE DUP8 GT PUSH2 0x9C4 JUMPI PUSH2 0x9B6 DUP2 DUP4 PUSH2 0x1C9C JUMP JUMPDEST DUP6 PUSH2 0xB91 JUMP JUMPDEST PUSH2 0xBCE SWAP1 PUSH2 0xBD3 SWAP4 PUSH2 0x1E4D JUMP JUMPDEST PUSH2 0x1E60 JUMP JUMPDEST SWAP2 PUSH2 0xB68 JUMP JUMPDEST PUSH2 0xBE2 SWAP2 PUSH2 0x1C9C JUMP JUMPDEST DUP5 DUP1 PUSH2 0xB1D JUMP JUMPDEST DUP3 DUP1 REVERT JUMPDEST PUSH2 0xC06 SWAP2 POP PUSH1 0x20 RETURNDATASIZE PUSH1 0x20 GT PUSH2 0x804 JUMPI PUSH2 0x7F5 DUP2 DUP4 PUSH2 0x1C9C JUMP JUMPDEST DUP5 PUSH2 0x6AC JUMP JUMPDEST PUSH2 0xC15 SWAP2 PUSH2 0x1C9C JUMP JUMPDEST DUP4 DUP4 PUSH2 0xA90 JUMP JUMPDEST CALLVALUE PUSH2 0x189 JUMPI PUSH1 0x20 CALLDATASIZE PUSH1 0x3 NOT ADD SLT PUSH2 0x189 JUMPI PUSH2 0xC35 PUSH2 0x261C JUMP JUMPDEST PUSH1 0x0 PUSH2 0xC3F PUSH2 0x1CE6 JUMP JUMPDEST DUP2 PUSH1 0x20 PUSH1 0x1 PUSH1 0x1 PUSH1 0xA0 SHL SUB PUSH1 0x1 SLOAD AND PUSH1 0x64 PUSH1 0x40 MLOAD DUP1 SWAP5 DUP2 SWAP4 PUSH32 0x23B872DD00000000000000000000000000000000000000000000000000000000 DUP4 MSTORE CALLER PUSH1 0x4 DUP5 ADD MSTORE ADDRESS PUSH1 0x24 DUP5 ADD MSTORE PUSH1 0x4 CALLDATALOAD PUSH1 0x44 DUP5 ADD MSTORE GAS CALL DUP1 ISZERO PUSH2 0x80B JUMPI PUSH1 0x20 SWAP4 POP PUSH2 0xCFF JUMPI JUMPDEST POP PUSH2 0xCA8 PUSH2 0x2115 JUMP JUMPDEST PUSH2 0xCB4 DUP2 PUSH2 0xB33 PUSH2 0x1CE6 JUMP JUMPDEST SWAP1 PUSH32 0x52C63247E1F47DB19D5CE0460030C497F067CA4CEBF71BA98EEADABE20BACE02 SLOAD DUP1 ISZERO PUSH1 0x0 EQ PUSH2 0xCED JUMPI POP POP JUMPDEST PUSH2 0xB97 DUP2 CALLER PUSH2 0x2657 JUMP JUMPDEST PUSH2 0xBCE SWAP1 PUSH2 0xCFA SWAP4 PUSH2 0x1E4D JUMP JUMPDEST PUSH2 0xCE3 JUMP JUMPDEST PUSH2 0xD15 SWAP1 DUP4 RETURNDATASIZE DUP6 GT PUSH2 0x804 JUMPI PUSH2 0x7F5 DUP2 DUP4 PUSH2 0x1C9C JUMP JUMPDEST PUSH2 0xC9F JUMP JUMPDEST CALLVALUE PUSH2 0x189 JUMPI PUSH1 0x0 CALLDATASIZE PUSH1 0x3 NOT ADD SLT PUSH2 0x189 JUMPI PUSH1 0x40 MLOAD DUP1 PUSH1 0x20 PUSH1 0x2 SLOAD SWAP3 DUP4 DUP2 MSTORE ADD DUP1 SWAP3 PUSH1 0x2 PUSH1 0x0 MSTORE PUSH32 0x405787FA12A823E0F2B7631CC41B3BA8828B3321CA811111FA75CD3AA3BB5ACE SWAP1 PUSH1 0x0 JUMPDEST DUP2 DUP2 LT PUSH2 0xDC7 JUMPI POP POP POP DUP2 PUSH2 0xD7B SWAP2 SUB DUP3 PUSH2 0x1C9C JUMP JUMPDEST PUSH1 0x40 MLOAD SWAP2 DUP3 SWAP2 PUSH1 0x20 DUP4 ADD SWAP1 PUSH1 0x20 DUP5 MSTORE MLOAD DUP1 SWAP2 MSTORE PUSH1 0x40 DUP4 ADD SWAP2 SWAP1 PUSH1 0x0 JUMPDEST DUP2 DUP2 LT PUSH2 0xDA5 JUMPI POP POP POP SUB SWAP1 RETURN JUMPDEST DUP3 MLOAD PUSH1 0x1 PUSH1 0x1 PUSH1 0xA0 SHL SUB AND DUP5 MSTORE DUP6 SWAP5 POP PUSH1 0x20 SWAP4 DUP5 ADD SWAP4 SWAP1 SWAP3 ADD SWAP2 PUSH1 0x1 ADD PUSH2 0xD97 JUMP JUMPDEST DUP3 SLOAD PUSH1 0x1 PUSH1 0x1 PUSH1 0xA0 SHL SUB AND DUP5 MSTORE PUSH1 0x20 SWAP1 SWAP4 ADD SWAP3 PUSH1 0x1 SWAP3 DUP4 ADD SWAP3 ADD PUSH2 0xD65 JUMP JUMPDEST CALLVALUE PUSH2 0x189 JUMPI PUSH1 0x40 CALLDATASIZE PUSH1 0x3 NOT ADD SLT PUSH2 0x189 JUMPI PUSH2 0xE0C PUSH2 0xE02 PUSH2 0x1C70 JUMP JUMPDEST PUSH1 0x24 CALLDATALOAD SWAP1 CALLER PUSH2 0x23C6 JUMP JUMPDEST PUSH1 0x20 PUSH1 0x40 MLOAD PUSH1 0x1 DUP2 MSTORE RETURN JUMPDEST CALLVALUE PUSH2 0x189 JUMPI PUSH1 0x40 CALLDATASIZE PUSH1 0x3 NOT ADD SLT PUSH2 0x189 JUMPI PUSH1 0x4 CALLDATALOAD PUSH2 0xE33 PUSH2 0x1C86 JUMP JUMPDEST SWAP1 PUSH1 0x0 SWAP1 PUSH2 0xE3F PUSH2 0x2317 JUMP JUMPDEST PUSH1 0x1 PUSH1 0x1 PUSH1 0xA0 SHL SUB PUSH1 0x4 SLOAD AND SWAP3 DUP4 EXTCODESIZE ISZERO PUSH2 0xBE9 JUMPI PUSH1 0x40 MLOAD PUSH3 0xF887CF PUSH1 0xE8 SHL DUP2 MSTORE PUSH1 0x1 PUSH1 0x1 PUSH1 0xA0 SHL SUB DUP3 AND PUSH1 0x4 DUP3 ADD MSTORE PUSH1 0x2 PUSH1 0x24 DUP3 ADD MSTORE DUP4 DUP2 PUSH1 0x44 DUP2 DUP9 GAS STATICCALL DUP1 ISZERO PUSH2 0x90E JUMPI SWAP1 DUP5 PUSH1 0x1 PUSH1 0x1 PUSH1 0xA0 SHL SUB SWAP4 SWAP3 PUSH2 0x10A2 JUMPI JUMPDEST POP POP AND SWAP3 PUSH1 0x40 MLOAD SWAP1 PUSH4 0xB37927D PUSH1 0xE2 SHL DUP3 MSTORE PUSH1 0x4 DUP3 ADD MSTORE PUSH1 0x20 DUP2 PUSH1 0x24 DUP2 DUP8 GAS STATICCALL SWAP1 DUP2 ISZERO PUSH2 0x80B JUMPI SWAP1 PUSH2 0xECC SWAP2 DUP5 SWAP2 PUSH2 0x9CB JUMPI POP PUSH2 0x20CA JUMP JUMPDEST PUSH2 0xEDB PUSH2 0x6C6 DUP3 PUSH2 0x6C1 PUSH2 0x1CE6 JUMP JUMPDEST SWAP1 PUSH1 0x40 MLOAD PUSH4 0x1127A41D PUSH1 0xE3 SHL DUP2 MSTORE PUSH1 0x20 DUP2 PUSH1 0x4 DUP2 DUP9 GAS STATICCALL SWAP1 DUP2 ISZERO PUSH2 0x90E JUMPI PUSH2 0xF0B SWAP2 DUP4 SWAP2 DUP7 SWAP2 PUSH2 0x99C JUMPI POP PUSH2 0x251D JUMP JUMPDEST PUSH2 0xF13 PUSH2 0x2273 JUMP JUMPDEST DUP3 DUP2 LT PUSH2 0xF69 JUMPI POP POP SWAP1 DUP2 DUP2 SWAP4 PUSH1 0x1 PUSH1 0x1 PUSH1 0xA0 SHL SUB PUSH1 0x1 SLOAD AND PUSH20 0xEEEEEEEEEEEEEEEEEEEEEEEEEEEEEEEEEEEEEEEE DUP2 EQ PUSH1 0x0 EQ PUSH2 0x795 JUMPI POP DUP3 DUP1 SWAP3 DUP2 SWAP3 DUP3 DUP3 ISZERO PUSH2 0x78C JUMPI CALL ISZERO PUSH2 0x77F JUMPI PUSH1 0x20 SWAP2 POP PUSH1 0x40 MLOAD SWAP1 DUP2 MSTORE RETURN JUMPDEST PUSH2 0xF77 SWAP1 DUP4 SWAP6 SWAP5 SWAP3 SWAP6 PUSH2 0x1DD6 JUMP JUMPDEST SWAP3 DUP2 SWAP4 JUMPDEST PUSH1 0x2 SLOAD DUP6 LT DUP1 PUSH2 0x1099 JUMPI JUMPDEST ISZERO PUSH2 0x96A JUMPI PUSH1 0x1 PUSH1 0x1 PUSH1 0xA0 SHL SUB PUSH2 0xF9C DUP7 PUSH2 0x1CBE JUMP JUMPDEST SWAP1 SLOAD SWAP1 PUSH1 0x3 SHL SHR AND PUSH1 0x40 MLOAD PUSH4 0x765EF2F3 PUSH1 0xE1 SHL DUP2 MSTORE PUSH1 0x20 DUP2 PUSH1 0x4 DUP2 DUP6 GAS STATICCALL SWAP1 DUP2 ISZERO PUSH2 0x95F JUMPI DUP6 SWAP3 SWAP2 DUP10 SWAP2 DUP5 SWAP2 PUSH2 0x105E JUMPI JUMPDEST POP PUSH2 0x6C6 PUSH1 0x20 SWAP4 SWAP3 PUSH2 0xFDE SWAP3 PUSH2 0x1E4D JUMP JUMPDEST DUP5 DUP2 GT PUSH2 0x1057 JUMPI JUMPDEST PUSH1 0x24 SWAP1 PUSH1 0x40 MLOAD SWAP5 DUP6 SWAP4 DUP5 SWAP3 PUSH4 0x2E1A7D4D PUSH1 0xE0 SHL DUP5 MSTORE PUSH1 0x4 DUP5 ADD MSTORE GAS CALL SWAP1 DUP2 ISZERO PUSH2 0x90E JUMPI DUP5 SWAP2 PUSH2 0x1024 JUMPI JUMPDEST POP PUSH2 0x8CB SWAP1 PUSH2 0x101E SWAP3 PUSH2 0x1DD6 JUMP JUMPDEST SWAP4 PUSH2 0xF7B JUMP JUMPDEST SWAP1 POP PUSH1 0x20 DUP2 RETURNDATASIZE DUP3 GT PUSH2 0x104F JUMPI JUMPDEST DUP2 PUSH2 0x103E PUSH1 0x20 SWAP4 DUP4 PUSH2 0x1C9C JUMP JUMPDEST DUP2 ADD SUB SLT PUSH2 0x902 JUMPI MLOAD PUSH2 0x101E PUSH2 0x1010 JUMP JUMPDEST RETURNDATASIZE SWAP2 POP PUSH2 0x1031 JUMP JUMPDEST POP DUP4 PUSH2 0xFE6 JUMP JUMPDEST SWAP3 SWAP4 POP POP POP PUSH1 0x20 DUP2 RETURNDATASIZE DUP3 GT PUSH2 0x1091 JUMPI JUMPDEST DUP2 PUSH2 0x107B PUSH1 0x20 SWAP4 DUP4 PUSH2 0x1C9C JUMP JUMPDEST DUP2 ADD SUB SLT PUSH2 0x953 JUMPI MLOAD DUP5 SWAP2 SWAP1 DUP9 SWAP1 PUSH2 0x6C6 PUSH2 0xFCD JUMP JUMPDEST RETURNDATASIZE SWAP2 POP PUSH2 0x106E JUMP JUMPDEST POP DUP1 ISZERO ISZERO PUSH2 0xF86 JUMP JUMPDEST PUSH2 0x10AB SWAP2 PUSH2 0x1C9C JUMP JUMPDEST DUP6 DUP5 PUSH2 0xE94 JUMP JUMPDEST CALLVALUE PUSH2 0x189 JUMPI PUSH1 0x20 CALLDATASIZE PUSH1 0x3 NOT ADD SLT PUSH2 0x189 JUMPI PUSH1 0x4 PUSH1 0x20 PUSH1 0x1 PUSH1 0x1 PUSH1 0xA0 SHL SUB PUSH2 0x10D9 DUP4 CALLDATALOAD PUSH2 0x1CBE JUMP JUMPDEST SWAP1 SLOAD SWAP1 PUSH1 0x3 SHL SHR AND PUSH1 0x40 MLOAD SWAP3 DUP4 DUP1 SWAP3 PUSH32 0xAFFD80B000000000000000000000000000000000000000000000000000000000 DUP3 MSTORE GAS STATICCALL DUP1 ISZERO PUSH2 0x404 JUMPI PUSH1 0x0 SWAP1 PUSH2 0x1126 JUMPI JUMPDEST PUSH1 0x20 SWAP1 PUSH1 0x40 MLOAD SWAP1 DUP2 MSTORE RETURN JUMPDEST POP PUSH1 0x20 DUP2 RETURNDATASIZE PUSH1 0x20 GT PUSH2 0x1151 JUMPI JUMPDEST DUP2 PUSH2 0x1140 PUSH1 0x20 SWAP4 DUP4 PUSH2 0x1C9C JUMP JUMPDEST DUP2 ADD SUB SLT PUSH2 0x189 JUMPI PUSH1 0x20 SWAP1 MLOAD PUSH2 0x111B JUMP JUMPDEST RETURNDATASIZE SWAP2 POP PUSH2 0x1133 JUMP JUMPDEST CALLVALUE PUSH2 0x189 JUMPI PUSH1 0x0 CALLDATASIZE PUSH1 0x3 NOT ADD SLT PUSH2 0x189 JUMPI PUSH1 0x40 MLOAD PUSH1 0x0 PUSH32 0x52C63247E1F47DB19D5CE0460030C497F067CA4CEBF71BA98EEADABE20BACE04 SLOAD DUP1 PUSH1 0x1 SHR SWAP1 PUSH1 0x1 DUP2 AND DUP1 ISZERO PUSH2 0x1294 JUMPI JUMPDEST PUSH1 0x20 DUP4 LT DUP2 EQ PUSH2 0x1280 JUMPI DUP3 DUP6 MSTORE SWAP1 DUP2 ISZERO PUSH2 0x125C JUMPI POP PUSH1 0x1 EQ PUSH2 0x11DE JUMPI JUMPDEST PUSH2 0x11DA DUP4 PUSH2 0x11CE DUP2 DUP6 SUB DUP3 PUSH2 0x1C9C JUMP JUMPDEST PUSH1 0x40 MLOAD SWAP2 DUP3 SWAP2 DUP3 PUSH2 0x1C27 JUMP JUMPDEST SUB SWAP1 RETURN JUMPDEST PUSH32 0x52C63247E1F47DB19D5CE0460030C497F067CA4CEBF71BA98EEADABE20BACE04 PUSH1 0x0 SWAP1 DUP2 MSTORE PUSH32 0x46A2803E59A4DE4E7A4C574B1243F25977AC4C77D5A1A4A609B5394CEBB4A2AA SWAP4 SWAP3 POP SWAP1 JUMPDEST DUP1 DUP3 LT PUSH2 0x1242 JUMPI POP SWAP1 SWAP2 POP DUP2 ADD PUSH1 0x20 ADD PUSH2 0x11CE PUSH2 0x11BE JUMP JUMPDEST SWAP2 SWAP3 PUSH1 0x1 DUP2 PUSH1 0x20 SWAP3 SLOAD DUP4 DUP6 DUP9 ADD ADD MSTORE ADD SWAP2 ADD SWAP1 SWAP3 SWAP2 PUSH2 0x122A JUMP JUMPDEST PUSH1 0xFF NOT AND PUSH1 0x20 DUP1 DUP7 ADD SWAP2 SWAP1 SWAP2 MSTORE SWAP2 ISZERO ISZERO PUSH1 0x5 SHL DUP5 ADD SWAP1 SWAP2 ADD SWAP2 POP PUSH2 0x11CE SWAP1 POP PUSH2 0x11BE JUMP JUMPDEST PUSH1 0x24 DUP5 PUSH4 0x4E487B71 PUSH1 0xE0 SHL DUP2 MSTORE PUSH1 0x22 PUSH1 0x4 MSTORE REVERT JUMPDEST SWAP2 PUSH1 0x7F AND SWAP2 PUSH2 0x11A1 JUMP JUMPDEST CALLVALUE PUSH2 0x189 JUMPI PUSH1 0x0 CALLDATASIZE PUSH1 0x3 NOT ADD SLT PUSH2 0x189 JUMPI PUSH1 0x20 PUSH1 0x1 PUSH1 0x1 PUSH1 0xA0 SHL SUB PUSH32 0x9016D09D72D40FDAE2FD8CEAC6B6234C7706214FD39C1CD1E609A0528C199300 SLOAD AND PUSH1 0x40 MLOAD SWAP1 DUP2 MSTORE RETURN JUMPDEST CALLVALUE PUSH2 0x189 JUMPI PUSH1 0x0 CALLDATASIZE PUSH1 0x3 NOT ADD SLT PUSH2 0x189 JUMPI PUSH1 0x20 PUSH2 0x181 PUSH2 0x1337 CALLER PUSH1 0x1 PUSH1 0x1 PUSH1 0xA0 SHL SUB AND PUSH1 0x0 MSTORE PUSH32 0x52C63247E1F47DB19D5CE0460030C497F067CA4CEBF71BA98EEADABE20BACE00 PUSH1 0x20 MSTORE PUSH1 0x40 PUSH1 0x0 KECCAK256 SLOAD SWAP1 JUMP JUMPDEST PUSH2 0x1EA7 JUMP JUMPDEST CALLVALUE PUSH2 0x189 JUMPI PUSH1 0x0 CALLDATASIZE PUSH1 0x3 NOT ADD SLT PUSH2 0x189 JUMPI PUSH2 0x1355 PUSH2 0x2317 JUMP JUMPDEST PUSH1 0x0 PUSH1 0x1 PUSH1 0x1 PUSH1 0xA0 SHL SUB PUSH32 0x9016D09D72D40FDAE2FD8CEAC6B6234C7706214FD39C1CD1E609A0528C199300 SLOAD PUSH20 0xFFFFFFFFFFFFFFFFFFFFFFFFFFFFFFFFFFFFFFFF NOT DUP2 AND PUSH32 0x9016D09D72D40FDAE2FD8CEAC6B6234C7706214FD39C1CD1E609A0528C199300 SSTORE AND PUSH32 0x8BE0079C531659141344CD1FD0A4F28419497F9722A3DAAFE3B4186F6B6457E0 DUP3 DUP1 LOG3 STOP JUMPDEST CALLVALUE PUSH2 0x189 JUMPI PUSH1 0x20 CALLDATASIZE PUSH1 0x3 NOT ADD SLT PUSH2 0x189 JUMPI PUSH1 0x20 PUSH2 0x181 PUSH2 0x1400 PUSH2 0x1C70 JUMP JUMPDEST PUSH1 0x1 PUSH1 0x1 PUSH1 0xA0 SHL SUB AND PUSH1 0x0 MSTORE PUSH32 0x52C63247E1F47DB19D5CE0460030C497F067CA4CEBF71BA98EEADABE20BACE00 PUSH1 0x20 MSTORE PUSH1 0x40 PUSH1 0x0 KECCAK256 SLOAD SWAP1 JUMP JUMPDEST CALLVALUE PUSH2 0x189 JUMPI PUSH1 0x20 CALLDATASIZE PUSH1 0x3 NOT ADD SLT PUSH2 0x189 JUMPI PUSH1 0x20 PUSH2 0x181 PUSH2 0x6C6 PUSH1 0x4 CALLDATALOAD PUSH2 0x6C1 PUSH2 0x1CE6 JUMP JUMPDEST CALLVALUE PUSH2 0x189 JUMPI PUSH1 0x0 CALLDATASIZE PUSH1 0x3 NOT ADD SLT PUSH2 0x189 JUMPI PUSH1 0x20 PUSH1 0x1 PUSH1 0x1 PUSH1 0xA0 SHL SUB PUSH1 0x1 SLOAD AND PUSH1 0x40 MLOAD SWAP1 DUP2 MSTORE RETURN JUMPDEST CALLVALUE PUSH2 0x189 JUMPI PUSH1 0x0 CALLDATASIZE PUSH1 0x3 NOT ADD SLT PUSH2 0x189 JUMPI PUSH1 0x0 DUP1 PUSH1 0x2 SLOAD JUMPDEST DUP1 DUP3 LT PUSH2 0x14D8 JUMPI DUP3 DUP1 PUSH2 0x2710 SUB SWAP1 PUSH2 0x2710 DUP3 GT PUSH2 0x14C2 JUMPI PUSH1 0x40 SWAP2 DUP3 MLOAD SWAP2 DUP3 MSTORE PUSH1 0x20 DUP3 ADD MSTORE RETURN JUMPDEST PUSH4 0x4E487B71 PUSH1 0xE0 SHL PUSH1 0x0 MSTORE PUSH1 0x11 PUSH1 0x4 MSTORE PUSH1 0x24 PUSH1 0x0 REVERT JUMPDEST SWAP1 SWAP2 PUSH2 0x14F1 PUSH1 0x1 SWAP2 PUSH1 0x1 PUSH1 0x1 PUSH1 0xA0 SHL SUB PUSH2 0x476 DUP7 PUSH2 0x1CBE JUMP JUMPDEST SWAP3 ADD SWAP1 PUSH2 0x149C JUMP JUMPDEST CALLVALUE PUSH2 0x189 JUMPI PUSH1 0x0 CALLDATASIZE PUSH1 0x3 NOT ADD SLT PUSH2 0x189 JUMPI PUSH1 0x20 PUSH1 0x40 MLOAD PUSH1 0x12 DUP2 MSTORE RETURN JUMPDEST CALLVALUE PUSH2 0x189 JUMPI PUSH1 0x20 CALLDATASIZE PUSH1 0x3 NOT ADD SLT PUSH2 0x189 JUMPI PUSH1 0x20 PUSH2 0x181 PUSH1 0x4 CALLDATALOAD PUSH2 0x1EA7 JUMP JUMPDEST CALLVALUE PUSH2 0x189 JUMPI PUSH1 0x60 CALLDATASIZE PUSH1 0x3 NOT ADD SLT PUSH2 0x189 JUMPI PUSH2 0x154C PUSH2 0x1C70 JUMP JUMPDEST PUSH2 0x1554 PUSH2 0x1C86 JUMP JUMPDEST PUSH1 0x44 CALLDATALOAD SWAP1 PUSH2 0x1594 DUP4 PUSH1 0x1 PUSH1 0x1 PUSH1 0xA0 SHL SUB AND PUSH1 0x0 MSTORE PUSH32 0x52C63247E1F47DB19D5CE0460030C497F067CA4CEBF71BA98EEADABE20BACE01 PUSH1 0x20 MSTORE PUSH1 0x40 PUSH1 0x0 KECCAK256 SWAP1 JUMP JUMPDEST PUSH1 0x1 PUSH1 0x1 PUSH1 0xA0 SHL SUB CALLER AND PUSH1 0x0 MSTORE PUSH1 0x20 MSTORE PUSH1 0x40 PUSH1 0x0 KECCAK256 SLOAD SWAP3 PUSH1 0x0 NOT DUP5 LT PUSH2 0x15BF JUMPI JUMPDEST PUSH2 0xE0C SWAP4 POP PUSH2 0x23C6 JUMP JUMPDEST DUP3 DUP5 LT PUSH2 0x1698 JUMPI PUSH1 0x1 PUSH1 0x1 PUSH1 0xA0 SHL SUB DUP2 AND ISZERO PUSH2 0x1669 JUMPI CALLER ISZERO PUSH2 0x163A JUMPI PUSH2 0xE0C SWAP4 PUSH2 0x161B DUP3 PUSH1 0x1 PUSH1 0x1 PUSH1 0xA0 SHL SUB AND PUSH1 0x0 MSTORE PUSH32 0x52C63247E1F47DB19D5CE0460030C497F067CA4CEBF71BA98EEADABE20BACE01 PUSH1 0x20 MSTORE PUSH1 0x40 PUSH1 0x0 KECCAK256 SWAP1 JUMP JUMPDEST PUSH1 0x1 PUSH1 0x1 PUSH1 0xA0 SHL SUB CALLER AND PUSH1 0x0 MSTORE PUSH1 0x20 MSTORE DUP4 PUSH1 0x40 PUSH1 0x0 KECCAK256 SWAP2 SUB SWAP1 SSTORE PUSH2 0x15B5 JUMP JUMPDEST PUSH32 0x94280D6200000000000000000000000000000000000000000000000000000000 PUSH1 0x0 MSTORE PUSH1 0x0 PUSH1 0x4 MSTORE PUSH1 0x24 PUSH1 0x0 REVERT JUMPDEST PUSH32 0xE602DF0500000000000000000000000000000000000000000000000000000000 PUSH1 0x0 MSTORE PUSH1 0x0 PUSH1 0x4 MSTORE PUSH1 0x24 PUSH1 0x0 REVERT JUMPDEST DUP3 DUP5 PUSH32 0xFB8F41B200000000000000000000000000000000000000000000000000000000 PUSH1 0x0 MSTORE CALLER PUSH1 0x4 MSTORE PUSH1 0x24 MSTORE PUSH1 0x44 MSTORE PUSH1 0x64 PUSH1 0x0 REVERT JUMPDEST CALLVALUE PUSH2 0x189 JUMPI PUSH1 0x20 CALLDATASIZE PUSH1 0x3 NOT ADD SLT PUSH2 0x189 JUMPI PUSH1 0x4 CALLDATALOAD PUSH1 0x1 PUSH1 0x1 PUSH1 0xA0 SHL SUB DUP2 AND DUP1 DUP3 SUB PUSH2 0x189 JUMPI PUSH2 0x16FB PUSH2 0x2317 JUMP JUMPDEST PUSH2 0x1706 DUP2 ISZERO ISZERO PUSH2 0x1DE3 JUMP JUMPDEST PUSH2 0x170F DUP3 PUSH2 0x2378 JUMP JUMPDEST PUSH2 0x1857 JUMPI PUSH1 0x40 MLOAD PUSH32 0x8D928AF800000000000000000000000000000000000000000000000000000000 DUP2 MSTORE PUSH1 0x20 DUP2 PUSH1 0x4 DUP2 DUP6 GAS STATICCALL DUP1 ISZERO PUSH2 0x404 JUMPI PUSH1 0x1 PUSH1 0x1 PUSH1 0xA0 SHL SUB SWAP2 PUSH1 0x0 SWAP2 PUSH2 0x1838 JUMPI JUMPDEST POP AND ADDRESS EQ SWAP1 DUP2 PUSH2 0x17B5 JUMPI JUMPDEST POP PUSH2 0x176E SWAP1 PUSH2 0x1DE3 JUMP JUMPDEST PUSH1 0x2 SLOAD SWAP1 PUSH9 0x10000000000000000 DUP3 LT ISZERO PUSH2 0x4EF JUMPI PUSH2 0x1796 DUP3 PUSH1 0x1 PUSH2 0x418 SWAP5 ADD PUSH1 0x2 SSTORE PUSH2 0x1CBE JUMP JUMPDEST SWAP1 SWAP2 SWAP1 PUSH1 0x1 PUSH1 0x1 PUSH1 0xA0 SHL SUB DUP1 DUP5 SLOAD SWAP3 PUSH1 0x3 SHL SWAP4 AND DUP4 SHL SWAP3 SHL NOT AND OR SWAP1 SSTORE JUMP JUMPDEST PUSH1 0x4 SWAP2 POP PUSH1 0x20 PUSH1 0x1 PUSH1 0x1 PUSH1 0xA0 SHL SUB PUSH1 0x1 SLOAD AND SWAP2 PUSH1 0x40 MLOAD SWAP4 DUP5 DUP1 SWAP3 PUSH32 0x5C222BAD00000000000000000000000000000000000000000000000000000000 DUP3 MSTORE GAS STATICCALL SWAP2 DUP3 ISZERO PUSH2 0x404 JUMPI PUSH2 0x176E SWAP3 PUSH1 0x1 PUSH1 0x1 PUSH1 0xA0 SHL SUB SWAP2 PUSH1 0x0 SWAP2 PUSH2 0x1819 JUMPI JUMPDEST POP AND EQ SWAP1 PUSH2 0x1764 JUMP JUMPDEST PUSH2 0x1832 SWAP2 POP PUSH1 0x20 RETURNDATASIZE PUSH1 0x20 GT PUSH2 0x9C4 JUMPI PUSH2 0x9B6 DUP2 DUP4 PUSH2 0x1C9C JUMP JUMPDEST DUP6 PUSH2 0x1810 JUMP JUMPDEST PUSH2 0x1851 SWAP2 POP PUSH1 0x20 RETURNDATASIZE PUSH1 0x20 GT PUSH2 0x9C4 JUMPI PUSH2 0x9B6 DUP2 DUP4 PUSH2 0x1C9C JUMP JUMPDEST DUP5 PUSH2 0x1759 JUMP JUMPDEST PUSH1 0x64 PUSH1 0x40 MLOAD PUSH3 0x461BCD PUSH1 0xE5 SHL DUP2 MSTORE PUSH1 0x20 PUSH1 0x4 DUP3 ADD MSTORE PUSH1 0x17 PUSH1 0x24 DUP3 ADD MSTORE PUSH32 0x537472617465677920616C726561647920657869737473000000000000000000 PUSH1 0x44 DUP3 ADD MSTORE REVERT JUMPDEST CALLVALUE PUSH2 0x189 JUMPI PUSH1 0x0 CALLDATASIZE PUSH1 0x3 NOT ADD SLT PUSH2 0x189 JUMPI PUSH1 0x20 PUSH32 0x52C63247E1F47DB19D5CE0460030C497F067CA4CEBF71BA98EEADABE20BACE02 SLOAD PUSH1 0x40 MLOAD SWAP1 DUP2 MSTORE RETURN JUMPDEST CALLVALUE PUSH2 0x189 JUMPI PUSH1 0x20 CALLDATASIZE PUSH1 0x3 NOT ADD SLT PUSH2 0x189 JUMPI PUSH1 0x4 CALLDATALOAD PUSH1 0x1 PUSH1 0x1 PUSH1 0xA0 SHL SUB DUP2 AND SWAP1 DUP2 DUP2 SUB PUSH2 0x189 JUMPI PUSH2 0x339 PUSH2 0x1912 SWAP2 PUSH2 0x190D PUSH2 0x2317 JUMP JUMPDEST PUSH2 0x2378 JUMP JUMPDEST PUSH1 0x2 SLOAD PUSH1 0x0 JUMPDEST DUP2 DUP2 LT PUSH2 0x1921 JUMPI STOP JUMPDEST DUP3 PUSH1 0x1 PUSH1 0x1 PUSH1 0xA0 SHL SUB PUSH2 0x1933 DUP4 PUSH2 0x1CBE JUMP JUMPDEST SWAP1 SLOAD SWAP1 PUSH1 0x3 SHL SHR AND EQ PUSH2 0x1948 JUMPI PUSH1 0x1 ADD PUSH2 0x1918 JUMP JUMPDEST PUSH1 0x1 PUSH1 0x1 PUSH1 0xA0 SHL SUB PUSH2 0x1959 DUP3 PUSH2 0x1CBE JUMP JUMPDEST SWAP1 SLOAD SWAP1 PUSH1 0x3 SHL SHR AND DUP1 EXTCODESIZE ISZERO PUSH2 0x189 JUMPI PUSH1 0x0 DUP1 SWAP2 PUSH1 0x4 PUSH1 0x40 MLOAD DUP1 SWAP5 DUP2 SWAP4 PUSH4 0xF8D5641 PUSH1 0xE3 SHL DUP4 MSTORE GAS CALL DUP1 ISZERO PUSH2 0x404 JUMPI PUSH2 0x1A1C JUMPI JUMPDEST POP PUSH2 0x1995 PUSH2 0x2115 JUMP JUMPDEST PUSH1 0x0 NOT DUP3 ADD SWAP2 DUP3 GT PUSH2 0x14C2 JUMPI PUSH2 0x1796 PUSH1 0x1 PUSH1 0x1 PUSH1 0xA0 SHL SUB PUSH2 0x19B8 PUSH2 0x19C6 SWAP5 PUSH2 0x1CBE JUMP JUMPDEST SWAP1 SLOAD SWAP1 PUSH1 0x3 SHL SHR AND SWAP2 PUSH2 0x1CBE JUMP JUMPDEST PUSH1 0x2 SLOAD DUP1 ISZERO PUSH2 0x1A06 JUMPI PUSH1 0x0 NOT ADD PUSH2 0x19DC DUP2 PUSH2 0x1CBE JUMP JUMPDEST PUSH1 0x1 PUSH1 0x1 PUSH1 0xA0 SHL SUB DUP3 SLOAD SWAP2 PUSH1 0x3 SHL SHL NOT AND SWAP1 SSTORE PUSH1 0x2 SSTORE PUSH1 0x0 MSTORE PUSH1 0x3 PUSH1 0x20 MSTORE PUSH1 0x0 PUSH1 0x40 DUP2 KECCAK256 SSTORE PUSH1 0x0 DUP1 RETURN JUMPDEST PUSH4 0x4E487B71 PUSH1 0xE0 SHL PUSH1 0x0 MSTORE PUSH1 0x31 PUSH1 0x4 MSTORE PUSH1 0x24 PUSH1 0x0 REVERT JUMPDEST PUSH1 0x0 PUSH2 0x1A27 SWAP2 PUSH2 0x1C9C JUMP JUMPDEST DUP4 PUSH2 0x198C JUMP JUMPDEST CALLVALUE PUSH2 0x189 JUMPI PUSH1 0x0 CALLDATASIZE PUSH1 0x3 NOT ADD SLT PUSH2 0x189 JUMPI PUSH1 0x20 PUSH2 0x181 PUSH2 0x1CE6 JUMP JUMPDEST CALLVALUE PUSH2 0x189 JUMPI PUSH1 0x20 CALLDATASIZE PUSH1 0x3 NOT ADD SLT PUSH2 0x189 JUMPI PUSH1 0x4 CALLDATALOAD PUSH1 0x1 PUSH1 0x1 PUSH1 0xA0 SHL SUB DUP2 AND DUP1 SWAP2 SUB PUSH2 0x189 JUMPI PUSH1 0x0 MSTORE PUSH1 0x3 PUSH1 0x20 MSTORE PUSH1 0x20 PUSH1 0x40 PUSH1 0x0 KECCAK256 SLOAD PUSH1 0x40 MLOAD SWAP1 DUP2 MSTORE RETURN JUMPDEST CALLVALUE PUSH2 0x189 JUMPI PUSH1 0x40 CALLDATASIZE PUSH1 0x3 NOT ADD SLT PUSH2 0x189 JUMPI PUSH2 0x1A9E PUSH2 0x1C70 JUMP JUMPDEST PUSH1 0x24 CALLDATALOAD SWAP1 CALLER ISZERO PUSH2 0x1669 JUMPI PUSH1 0x1 PUSH1 0x1 PUSH1 0xA0 SHL SUB AND SWAP1 DUP2 ISZERO PUSH2 0x163A JUMPI CALLER PUSH1 0x0 SWAP1 DUP2 MSTORE PUSH32 0x52C63247E1F47DB19D5CE0460030C497F067CA4CEBF71BA98EEADABE20BACE01 PUSH1 0x20 MSTORE PUSH1 0x40 SWAP1 KECCAK256 DUP3 PUSH1 0x0 MSTORE PUSH1 0x20 MSTORE DUP1 PUSH1 0x40 PUSH1 0x0 KECCAK256 SSTORE PUSH1 0x40 MLOAD SWAP1 DUP2 MSTORE PUSH32 0x8C5BE1E5EBEC7D5BD14F71427D1E84F3DD0314C0F7B2291E5B200AC8C7C3B925 PUSH1 0x20 CALLER SWAP3 LOG3 PUSH1 0x20 PUSH1 0x40 MLOAD PUSH1 0x1 DUP2 MSTORE RETURN JUMPDEST CALLVALUE PUSH2 0x189 JUMPI PUSH1 0x0 CALLDATASIZE PUSH1 0x3 NOT ADD SLT PUSH2 0x189 JUMPI PUSH1 0x40 MLOAD PUSH1 0x0 PUSH32 0x52C63247E1F47DB19D5CE0460030C497F067CA4CEBF71BA98EEADABE20BACE03 SLOAD DUP1 PUSH1 0x1 SHR SWAP1 PUSH1 0x1 DUP2 AND DUP1 ISZERO PUSH2 0x1C1D JUMPI JUMPDEST PUSH1 0x20 DUP4 LT DUP2 EQ PUSH2 0x1280 JUMPI DUP3 DUP6 MSTORE SWAP1 DUP2 ISZERO PUSH2 0x125C JUMPI POP PUSH1 0x1 EQ PUSH2 0x1B9F JUMPI PUSH2 0x11DA DUP4 PUSH2 0x11CE DUP2 DUP6 SUB DUP3 PUSH2 0x1C9C JUMP JUMPDEST PUSH32 0x52C63247E1F47DB19D5CE0460030C497F067CA4CEBF71BA98EEADABE20BACE03 PUSH1 0x0 SWAP1 DUP2 MSTORE PUSH32 0x2AE08A8E29253F69AC5D979A101956AB8F8D9D7DED63FA7A83B16FC47648EAB0 SWAP4 SWAP3 POP SWAP1 JUMPDEST DUP1 DUP3 LT PUSH2 0x1C03 JUMPI POP SWAP1 SWAP2 POP DUP2 ADD PUSH1 0x20 ADD PUSH2 0x11CE PUSH2 0x11BE JUMP JUMPDEST SWAP2 SWAP3 PUSH1 0x1 DUP2 PUSH1 0x20 SWAP3 SLOAD DUP4 DUP6 DUP9 ADD ADD MSTORE ADD SWAP2 ADD SWAP1 SWAP3 SWAP2 PUSH2 0x1BEB JUMP JUMPDEST SWAP2 PUSH1 0x7F AND SWAP2 PUSH2 0x1B73 JUMP JUMPDEST SWAP2 SWAP1 SWAP2 PUSH1 0x20 DUP2 MSTORE DUP3 MLOAD DUP1 PUSH1 0x20 DUP4 ADD MSTORE PUSH1 0x0 JUMPDEST DUP2 DUP2 LT PUSH2 0x1C5A JUMPI POP PUSH1 0x40 SWAP3 SWAP4 POP PUSH1 0x0 DUP4 DUP3 DUP5 ADD ADD MSTORE PUSH1 0x1F DUP1 NOT SWAP2 ADD AND ADD ADD SWAP1 JUMP JUMPDEST DUP1 PUSH1 0x20 DUP1 SWAP3 DUP8 ADD ADD MLOAD PUSH1 0x40 DUP3 DUP7 ADD ADD MSTORE ADD PUSH2 0x1C39 JUMP JUMPDEST PUSH1 0x4 CALLDATALOAD SWAP1 PUSH1 0x1 PUSH1 0x1 PUSH1 0xA0 SHL SUB DUP3 AND DUP3 SUB PUSH2 0x189 JUMPI JUMP JUMPDEST PUSH1 0x24 CALLDATALOAD SWAP1 PUSH1 0x1 PUSH1 0x1 PUSH1 0xA0 SHL SUB DUP3 AND DUP3 SUB PUSH2 0x189 JUMPI JUMP JUMPDEST SWAP1 PUSH1 0x1F DUP1 NOT SWAP2 ADD AND DUP2 ADD SWAP1 DUP2 LT PUSH8 0xFFFFFFFFFFFFFFFF DUP3 GT OR PUSH2 0x4EF JUMPI PUSH1 0x40 MSTORE JUMP JUMPDEST PUSH1 0x2 SLOAD DUP2 LT ISZERO PUSH2 0x369 JUMPI PUSH1 0x2 PUSH1 0x0 MSTORE PUSH1 0x20 PUSH1 0x0 KECCAK256 ADD SWAP1 PUSH1 0x0 SWAP1 JUMP JUMPDEST SWAP2 SWAP1 DUP3 ADD DUP1 SWAP3 GT PUSH2 0x14C2 JUMPI JUMP JUMPDEST PUSH2 0x1CEE PUSH2 0x2273 JUMP JUMPDEST SWAP1 PUSH1 0x0 PUSH1 0x2 SLOAD JUMPDEST DUP1 DUP3 LT PUSH2 0x1D00 JUMPI POP POP JUMP JUMPDEST SWAP1 SWAP3 PUSH1 0x4 PUSH1 0x20 PUSH1 0x1 PUSH1 0x1 PUSH1 0xA0 SHL SUB PUSH2 0x1D17 DUP8 PUSH2 0x1CBE JUMP JUMPDEST SWAP1 SLOAD SWAP1 PUSH1 0x3 SHL SHR AND PUSH1 0x40 MLOAD SWAP3 DUP4 DUP1 SWAP3 PUSH4 0x765EF2F3 PUSH1 0xE1 SHL DUP3 MSTORE GAS STATICCALL SWAP1 DUP2 ISZERO PUSH2 0x404 JUMPI PUSH1 0x0 SWAP2 PUSH2 0x1D56 JUMPI JUMPDEST POP PUSH2 0x1D4E SWAP1 PUSH1 0x1 SWAP3 PUSH2 0x1CD9 JUMP JUMPDEST SWAP4 ADD SWAP1 PUSH2 0x1CF5 JUMP JUMPDEST SWAP1 PUSH1 0x20 DUP3 RETURNDATASIZE DUP3 GT PUSH2 0x1D83 JUMPI JUMPDEST DUP2 PUSH2 0x1D6F PUSH1 0x20 SWAP4 DUP4 PUSH2 0x1C9C JUMP JUMPDEST DUP2 ADD SUB SLT PUSH2 0x1D80 JUMPI POP MLOAD PUSH1 0x1 PUSH2 0x1D41 JUMP JUMPDEST DUP1 REVERT JUMPDEST RETURNDATASIZE SWAP2 POP PUSH2 0x1D62 JUMP JUMPDEST ISZERO PUSH2 0x1D92 JUMPI JUMP JUMPDEST PUSH1 0x64 PUSH1 0x40 MLOAD PUSH3 0x461BCD PUSH1 0xE5 SHL DUP2 MSTORE PUSH1 0x20 PUSH1 0x4 DUP3 ADD MSTORE PUSH1 0x12 PUSH1 0x24 DUP3 ADD MSTORE PUSH32 0x5374726174656779206E6F7420666F756E640000000000000000000000000000 PUSH1 0x44 DUP3 ADD MSTORE REVERT JUMPDEST SWAP2 SWAP1 DUP3 SUB SWAP2 DUP3 GT PUSH2 0x14C2 JUMPI JUMP JUMPDEST ISZERO PUSH2 0x1DEA JUMPI JUMP JUMPDEST PUSH1 0x64 PUSH1 0x40 MLOAD PUSH3 0x461BCD PUSH1 0xE5 SHL DUP2 MSTORE PUSH1 0x20 PUSH1 0x4 DUP3 ADD MSTORE PUSH1 0x10 PUSH1 0x24 DUP3 ADD MSTORE PUSH32 0x496E76616C696420737472617465677900000000000000000000000000000000 PUSH1 0x44 DUP3 ADD MSTORE REVERT JUMPDEST SWAP1 DUP2 PUSH1 0x20 SWAP2 SUB SLT PUSH2 0x189 JUMPI MLOAD PUSH1 0x1 PUSH1 0x1 PUSH1 0xA0 SHL SUB DUP2 AND DUP2 SUB PUSH2 0x189 JUMPI SWAP1 JUMP JUMPDEST DUP2 DUP2 MUL SWAP3 SWAP2 DUP2 ISZERO SWAP2 DUP5 DIV EQ OR ISZERO PUSH2 0x14C2 JUMPI JUMP JUMPDEST DUP2 ISZERO PUSH2 0x1E6A JUMPI DIV SWAP1 JUMP JUMPDEST PUSH4 0x4E487B71 PUSH1 0xE0 SHL PUSH1 0x0 MSTORE PUSH1 0x12 PUSH1 0x4 MSTORE PUSH1 0x24 PUSH1 0x0 REVERT JUMPDEST PUSH1 0x0 NOT DUP2 EQ PUSH2 0x14C2 JUMPI PUSH1 0x1 ADD SWAP1 JUMP JUMPDEST SWAP1 DUP2 PUSH1 0x20 SWAP2 SUB SLT PUSH2 0x189 JUMPI MLOAD DUP1 ISZERO ISZERO DUP2 SUB PUSH2 0x189 JUMPI SWAP1 JUMP JUMPDEST PUSH2 0x1EB6 PUSH2 0x6C6 DUP3 PUSH2 0x6C1 PUSH2 0x1CE6 JUMP JUMPDEST SWAP1 PUSH2 0x1EC1 DUP2 CALLER PUSH2 0x251D JUMP JUMPDEST PUSH2 0x1EC9 PUSH2 0x2273 JUMP JUMPDEST DUP3 DUP2 LT PUSH2 0x1F75 JUMPI JUMPDEST POP POP SWAP1 PUSH1 0x1 PUSH1 0x1 PUSH1 0xA0 SHL SUB PUSH1 0x1 SLOAD AND PUSH20 0xEEEEEEEEEEEEEEEEEEEEEEEEEEEEEEEEEEEEEEEE DUP2 EQ PUSH1 0x0 EQ PUSH2 0x1F23 JUMPI POP DUP2 PUSH1 0x0 DUP2 ISZERO PUSH2 0x1F1A JUMPI JUMPDEST PUSH1 0x0 DUP1 DUP1 SWAP4 DUP2 SWAP4 CALLER SWAP1 CALL ISZERO PUSH2 0x404 JUMPI JUMP JUMPDEST POP PUSH2 0x8FC PUSH2 0x1F09 JUMP JUMPDEST PUSH1 0x40 MLOAD PUSH4 0xA9059CBB PUSH1 0xE0 SHL DUP2 MSTORE CALLER PUSH1 0x4 DUP3 ADD MSTORE PUSH1 0x24 DUP2 ADD DUP5 SWAP1 MSTORE SWAP1 PUSH1 0x20 SWAP1 DUP3 SWAP1 PUSH1 0x44 SWAP1 DUP3 SWAP1 PUSH1 0x0 SWAP1 GAS CALL DUP1 ISZERO PUSH2 0x404 JUMPI PUSH2 0x1F5A JUMPI POP JUMP JUMPDEST PUSH2 0x1F72 SWAP1 PUSH1 0x20 RETURNDATASIZE PUSH1 0x20 GT PUSH2 0x804 JUMPI PUSH2 0x7F5 DUP2 DUP4 PUSH2 0x1C9C JUMP JUMPDEST POP JUMP JUMPDEST PUSH2 0x1F7F SWAP1 DUP4 PUSH2 0x1DD6 JUMP JUMPDEST SWAP3 PUSH1 0x0 SWAP4 JUMPDEST PUSH1 0x2 SLOAD DUP6 LT DUP1 PUSH2 0x20C1 JUMPI JUMPDEST ISZERO PUSH2 0x209D JUMPI PUSH1 0x1 PUSH1 0x1 PUSH1 0xA0 SHL SUB PUSH2 0x1FA5 DUP7 PUSH2 0x1CBE JUMP JUMPDEST SWAP1 SLOAD SWAP1 PUSH1 0x3 SHL SHR AND PUSH1 0x40 MLOAD PUSH4 0x765EF2F3 PUSH1 0xE1 SHL DUP2 MSTORE PUSH1 0x20 DUP2 PUSH1 0x4 DUP2 DUP6 GAS STATICCALL DUP1 ISZERO PUSH2 0x404 JUMPI DUP6 SWAP2 PUSH1 0x0 SWAP2 PUSH2 0x2067 JUMPI JUMPDEST POP SWAP2 PUSH2 0x1FE6 PUSH2 0x6C6 PUSH1 0x20 SWAP4 PUSH1 0x0 SWAP6 PUSH2 0x1E4D JUMP JUMPDEST DUP5 DUP2 GT PUSH2 0x2060 JUMPI JUMPDEST PUSH1 0x24 SWAP1 PUSH1 0x40 MLOAD SWAP5 DUP6 SWAP4 DUP5 SWAP3 PUSH4 0x2E1A7D4D PUSH1 0xE0 SHL DUP5 MSTORE PUSH1 0x4 DUP5 ADD MSTORE GAS CALL SWAP1 DUP2 ISZERO PUSH2 0x404 JUMPI PUSH1 0x0 SWAP2 PUSH2 0x202D JUMPI JUMPDEST POP PUSH2 0x8CB SWAP1 PUSH2 0x2027 SWAP3 PUSH2 0x1DD6 JUMP JUMPDEST SWAP4 PUSH2 0x1F84 JUMP JUMPDEST SWAP1 PUSH1 0x20 DUP3 RETURNDATASIZE DUP3 GT PUSH2 0x2058 JUMPI JUMPDEST DUP2 PUSH2 0x2046 PUSH1 0x20 SWAP4 DUP4 PUSH2 0x1C9C JUMP JUMPDEST DUP2 ADD SUB SLT PUSH2 0x1D80 JUMPI POP MLOAD PUSH2 0x2027 PUSH2 0x2019 JUMP JUMPDEST RETURNDATASIZE SWAP2 POP PUSH2 0x2039 JUMP JUMPDEST POP DUP4 PUSH2 0x1FEE JUMP JUMPDEST SWAP2 POP PUSH1 0x20 DUP3 RETURNDATASIZE DUP3 GT PUSH2 0x2095 JUMPI JUMPDEST DUP2 PUSH2 0x2081 PUSH1 0x20 SWAP4 DUP4 PUSH2 0x1C9C JUMP JUMPDEST DUP2 ADD SUB SLT PUSH2 0x1D80 JUMPI POP MLOAD DUP5 SWAP1 PUSH2 0x1FE6 PUSH2 0x1FD3 JUMP JUMPDEST RETURNDATASIZE SWAP2 POP PUSH2 0x2074 JUMP JUMPDEST POP SWAP3 POP POP PUSH2 0x20A9 PUSH2 0x2273 JUMP JUMPDEST DUP2 DUP2 GT ISZERO PUSH2 0x20BA JUMPI POP JUMPDEST CODESIZE DUP1 PUSH2 0x1ED1 JUMP JUMPDEST SWAP1 POP PUSH2 0x20B3 JUMP JUMPDEST POP DUP1 ISZERO ISZERO PUSH2 0x1F8F JUMP JUMPDEST ISZERO PUSH2 0x20D1 JUMPI JUMP JUMPDEST PUSH1 0x64 PUSH1 0x40 MLOAD PUSH3 0x461BCD PUSH1 0xE5 SHL DUP2 MSTORE PUSH1 0x20 PUSH1 0x4 DUP3 ADD MSTORE PUSH1 0xE PUSH1 0x24 DUP3 ADD MSTORE PUSH32 0x4E6F7420617574686F72697A6564000000000000000000000000000000000000 PUSH1 0x44 DUP3 ADD MSTORE REVERT JUMPDEST PUSH2 0x211D PUSH2 0x2273 JUMP JUMPDEST SWAP1 PUSH1 0x0 JUMPDEST PUSH1 0x2 SLOAD DUP2 LT ISZERO PUSH2 0x226E JUMPI PUSH1 0x1 PUSH1 0x1 PUSH1 0xA0 SHL SUB PUSH2 0x213C DUP3 PUSH2 0x1CBE JUMP JUMPDEST SWAP1 SLOAD SWAP1 PUSH1 0x3 SHL SHR AND SWAP1 DUP2 PUSH1 0x0 MSTORE PUSH1 0x3 PUSH1 0x20 MSTORE PUSH2 0x2710 PUSH2 0x2160 PUSH1 0x40 PUSH1 0x0 KECCAK256 SLOAD DUP7 PUSH2 0x1E4D JUMP JUMPDEST DIV DUP1 ISZERO PUSH2 0x2264 JUMPI PUSH1 0x0 SWAP1 PUSH1 0x1 PUSH1 0x1 PUSH1 0xA0 SHL SUB PUSH1 0x1 SLOAD AND PUSH20 0xEEEEEEEEEEEEEEEEEEEEEEEEEEEEEEEEEEEEEEEE DUP2 EQ DUP4 EQ PUSH2 0x2202 JUMPI POP DUP2 DUP1 DUP1 SWAP3 DUP7 DUP3 CALL ISZERO PUSH2 0x404 JUMPI JUMPDEST DUP2 EXTCODESIZE ISZERO PUSH2 0x189 JUMPI PUSH1 0x0 DUP1 SWAP3 PUSH1 0x4 PUSH1 0x40 MLOAD DUP1 SWAP6 DUP2 SWAP4 PUSH32 0xD0E30DB000000000000000000000000000000000000000000000000000000000 DUP4 MSTORE GAS CALL SWAP2 DUP3 ISZERO PUSH2 0x404 JUMPI PUSH1 0x1 SWAP3 PUSH2 0x21F1 JUMPI JUMPDEST POP JUMPDEST ADD PUSH2 0x2121 JUMP JUMPDEST PUSH1 0x0 PUSH2 0x21FC SWAP2 PUSH2 0x1C9C JUMP JUMPDEST CODESIZE PUSH2 0x21E9 JUMP JUMPDEST PUSH1 0x40 MLOAD PUSH4 0xA9059CBB PUSH1 0xE0 SHL DUP2 MSTORE PUSH1 0x1 PUSH1 0x1 PUSH1 0xA0 SHL SUB DUP7 AND PUSH1 0x4 DUP3 ADD MSTORE PUSH1 0x24 DUP2 ADD SWAP3 SWAP1 SWAP3 MSTORE SWAP1 SWAP2 PUSH1 0x20 SWAP2 DUP4 SWAP2 PUSH1 0x44 SWAP2 DUP4 SWAP2 SWAP1 GAS CALL DUP1 ISZERO PUSH2 0x404 JUMPI PUSH2 0x2246 JUMPI JUMPDEST POP PUSH2 0x21A1 JUMP JUMPDEST PUSH2 0x225D SWAP1 PUSH1 0x20 RETURNDATASIZE DUP2 GT PUSH2 0x804 JUMPI PUSH2 0x7F5 DUP2 DUP4 PUSH2 0x1C9C JUMP JUMPDEST POP CODESIZE PUSH2 0x2240 JUMP JUMPDEST POP PUSH1 0x1 SWAP2 POP PUSH2 0x21EB JUMP JUMPDEST POP SWAP1 POP JUMP JUMPDEST PUSH1 0x1 SLOAD PUSH1 0x1 PUSH1 0x1 PUSH1 0xA0 SHL SUB AND PUSH20 0xEEEEEEEEEEEEEEEEEEEEEEEEEEEEEEEEEEEEEEEE DUP2 SUB PUSH2 0x229F JUMPI POP SELFBALANCE SWAP1 JUMP JUMPDEST PUSH1 0x20 PUSH1 0x24 SWAP2 PUSH1 0x40 MLOAD SWAP3 DUP4 DUP1 SWAP3 PUSH32 0x70A0823100000000000000000000000000000000000000000000000000000000 DUP3 MSTORE ADDRESS PUSH1 0x4 DUP4 ADD MSTORE GAS STATICCALL SWAP1 DUP2 ISZERO PUSH2 0x404 JUMPI PUSH1 0x0 SWAP2 PUSH2 0x22E8 JUMPI POP SWAP1 JUMP JUMPDEST SWAP1 POP PUSH1 0x20 DUP2 RETURNDATASIZE PUSH1 0x20 GT PUSH2 0x230F JUMPI JUMPDEST DUP2 PUSH2 0x2303 PUSH1 0x20 SWAP4 DUP4 PUSH2 0x1C9C JUMP JUMPDEST DUP2 ADD SUB SLT PUSH2 0x189 JUMPI MLOAD SWAP1 JUMP JUMPDEST RETURNDATASIZE SWAP2 POP PUSH2 0x22F6 JUMP JUMPDEST PUSH1 0x1 PUSH1 0x1 PUSH1 0xA0 SHL SUB PUSH32 0x9016D09D72D40FDAE2FD8CEAC6B6234C7706214FD39C1CD1E609A0528C199300 SLOAD AND CALLER SUB PUSH2 0x234A JUMPI JUMP JUMPDEST PUSH32 0x118CDAA700000000000000000000000000000000000000000000000000000000 PUSH1 0x0 MSTORE CALLER PUSH1 0x4 MSTORE PUSH1 0x24 PUSH1 0x0 REVERT JUMPDEST PUSH1 0x2 SLOAD SWAP1 PUSH1 0x0 JUMPDEST DUP3 DUP2 LT PUSH2 0x238E JUMPI POP POP POP PUSH1 0x0 SWAP1 JUMP JUMPDEST PUSH1 0x1 PUSH1 0x1 PUSH1 0xA0 SHL SUB PUSH2 0x239F DUP3 PUSH2 0x1CBE JUMP JUMPDEST SWAP1 SLOAD SWAP1 PUSH1 0x3 SHL SHR AND PUSH1 0x1 PUSH1 0x1 PUSH1 0xA0 SHL SUB DUP4 AND EQ PUSH2 0x23BE JUMPI PUSH1 0x1 ADD PUSH2 0x237F JUMP JUMPDEST POP POP POP PUSH1 0x1 SWAP1 JUMP JUMPDEST PUSH1 0x1 PUSH1 0x1 PUSH1 0xA0 SHL SUB AND SWAP1 DUP2 ISZERO PUSH2 0x24EE JUMPI PUSH1 0x1 PUSH1 0x1 PUSH1 0xA0 SHL SUB AND SWAP2 DUP3 ISZERO PUSH2 0x24BF JUMPI PUSH1 0x0 DUP3 DUP2 MSTORE PUSH32 0x52C63247E1F47DB19D5CE0460030C497F067CA4CEBF71BA98EEADABE20BACE00 PUSH1 0x20 MSTORE PUSH1 0x40 DUP2 KECCAK256 SLOAD DUP3 DUP2 LT PUSH2 0x24A5 JUMPI SWAP2 PUSH1 0x40 DUP3 DUP3 PUSH32 0xDDF252AD1BE2C89B69C2B068FC378DAA952BA7F163C4A11628F55A4DF523B3EF SWAP6 DUP8 PUSH1 0x20 SWAP7 MSTORE PUSH32 0x52C63247E1F47DB19D5CE0460030C497F067CA4CEBF71BA98EEADABE20BACE00 DUP7 MSTORE SUB DUP3 DUP3 KECCAK256 SSTORE DUP7 DUP2 MSTORE PUSH32 0x52C63247E1F47DB19D5CE0460030C497F067CA4CEBF71BA98EEADABE20BACE00 DUP5 MSTORE KECCAK256 DUP2 DUP2 SLOAD ADD SWAP1 SSTORE PUSH1 0x40 MLOAD SWAP1 DUP2 MSTORE LOG3 JUMP JUMPDEST PUSH1 0x64 SWAP4 PUSH4 0x391434E3 PUSH1 0xE2 SHL DUP4 SWAP5 SWAP4 MSTORE PUSH1 0x4 MSTORE PUSH1 0x24 MSTORE PUSH1 0x44 MSTORE REVERT JUMPDEST PUSH32 0xEC442F0500000000000000000000000000000000000000000000000000000000 PUSH1 0x0 MSTORE PUSH1 0x0 PUSH1 0x4 MSTORE PUSH1 0x24 PUSH1 0x0 REVERT JUMPDEST PUSH32 0x96C6FD1E00000000000000000000000000000000000000000000000000000000 PUSH1 0x0 MSTORE PUSH1 0x0 PUSH1 0x4 MSTORE PUSH1 0x24 PUSH1 0x0 REVERT JUMPDEST PUSH1 0x1 PUSH1 0x1 PUSH1 0xA0 SHL SUB AND DUP1 ISZERO PUSH2 0x24EE JUMPI PUSH1 0x0 SWAP2 DUP2 DUP4 MSTORE PUSH32 0x52C63247E1F47DB19D5CE0460030C497F067CA4CEBF71BA98EEADABE20BACE00 PUSH1 0x20 MSTORE PUSH1 0x40 DUP4 KECCAK256 SLOAD DUP2 DUP2 LT PUSH2 0x2603 JUMPI DUP2 PUSH32 0xDDF252AD1BE2C89B69C2B068FC378DAA952BA7F163C4A11628F55A4DF523B3EF SWAP3 PUSH1 0x20 SWAP3 DUP6 DUP8 MSTORE PUSH32 0x52C63247E1F47DB19D5CE0460030C497F067CA4CEBF71BA98EEADABE20BACE00 DUP5 MSTORE SUB PUSH1 0x40 DUP7 KECCAK256 SSTORE DUP1 PUSH32 0x52C63247E1F47DB19D5CE0460030C497F067CA4CEBF71BA98EEADABE20BACE02 SLOAD SUB PUSH32 0x52C63247E1F47DB19D5CE0460030C497F067CA4CEBF71BA98EEADABE20BACE02 SSTORE PUSH1 0x40 MLOAD SWAP1 DUP2 MSTORE LOG3 JUMP JUMPDEST DUP4 SWAP3 PUSH4 0x391434E3 PUSH1 0xE2 SHL PUSH1 0x64 SWAP6 MSTORE PUSH1 0x4 MSTORE PUSH1 0x24 MSTORE PUSH1 0x44 MSTORE REVERT JUMPDEST PUSH1 0x2 PUSH1 0x0 SLOAD EQ PUSH2 0x262D JUMPI PUSH1 0x2 PUSH1 0x0 SSTORE JUMP JUMPDEST PUSH32 0x3EE5AEB500000000000000000000000000000000000000000000000000000000 PUSH1 0x0 MSTORE PUSH1 0x4 PUSH1 0x0 REVERT JUMPDEST PUSH1 0x1 PUSH1 0x1 PUSH1 0xA0 SHL SUB AND SWAP1 DUP2 ISZERO PUSH2 0x24BF JUMPI PUSH32 0xDDF252AD1BE2C89B69C2B068FC378DAA952BA7F163C4A11628F55A4DF523B3EF PUSH1 0x20 DUP3 PUSH2 0x26B8 PUSH1 0x0 SWAP5 PUSH32 0x52C63247E1F47DB19D5CE0460030C497F067CA4CEBF71BA98EEADABE20BACE02 SLOAD PUSH2 0x1CD9 JUMP JUMPDEST PUSH32 0x52C63247E1F47DB19D5CE0460030C497F067CA4CEBF71BA98EEADABE20BACE02 SSTORE DUP5 DUP5 MSTORE PUSH32 0x52C63247E1F47DB19D5CE0460030C497F067CA4CEBF71BA98EEADABE20BACE00 DUP3 MSTORE PUSH1 0x40 DUP5 KECCAK256 DUP2 DUP2 SLOAD ADD SWAP1 SSTORE PUSH1 0x40 MLOAD SWAP1 DUP2 MSTORE LOG3 JUMP INVALID LOG2 PUSH5 0x6970667358 0x22 SLT KECCAK256 0x4E 0xC7 JUMP TSTORE 0xCB MLOAD 0x27 PUSH7 0xA3AD378E04365E DUP7 SWAP3 0xBB 0xD4 DUP9 DUP15 0x2E BASEFEE 0xDE MOD 0xB1 0xE6 PUSH1 0x2B PUSH5 0x4F964736F PUSH13 0x634300081C0033000000000000 "
        },
        "methodIdentifiers": {
          "addStrategy(address)": "223e5479",
          "allowance(address,address)": "dd62ed3e",
          "approve(address,uint256)": "095ea7b3",
          "balanceOf(address)": "70a08231",
          "decimals()": "313ce567",
          "deposit(uint256)": "b6b55f25",
          "depositFromAccount(uint256,address)": "b76e07cc",
          "earn()": "d389800f",
          "getAllocation(address)": "0e022923",
          "getAsset()": "5c222bad",
          "getAvailable()": "f9cc0605",
          "getBalance()": "12065fe0",
          "getLastHarvest(uint256)": "a29b3c90",
          "getShares(uint256)": "6f7267b7",
          "getStrategies()": "b49a60bb",
          "getSummary()": "4051ddac",
          "name()": "06fdde03",
          "owner()": "8da5cb5b",
          "reallocate(uint256[])": "ee6ce925",
          "removeStrategy(address)": "175188e8",
          "renounceOwnership()": "715018a6",
          "symbol()": "95d89b41",
          "totalSupply()": "18160ddd",
          "transfer(address,uint256)": "a9059cbb",
          "transferFrom(address,address,uint256)": "23b872dd",
          "transferOwnership(address)": "f2fde38b",
          "withdraw(uint256)": "2e1a7d4d",
          "withdrawAll()": "853828b6",
          "withdrawAllToAccount(address)": "c07e866e",
          "withdrawToAccount(uint256,address)": "a49b5cb4"
        }
      }
    }
  }
}