{
  "contracts/chainlink/AfterYieldFunctions.sol": {
    "AfterYieldFunctions": {
      "abi": [
        {
          "inputs": [
            {
              "internalType": "address",
              "name": "oracle",
              "type": "address"
            },
            {
              "internalType": "bytes32",
              "name": "donId",
              "type": "bytes32"
            },
            {
              "internalType": "string",
              "name": "source",
              "type": "string"
            }
          ],
          "stateMutability": "nonpayable",
          "type": "constructor"
        },
        {
          "inputs": [],
          "name": "EmptyArgs",
          "type": "error"
        },
        {
          "inputs": [],
          "name": "EmptySource",
          "type": "error"
        },
        {
          "inputs": [],
          "name": "NoInlineSecrets",
          "type": "error"
        },
        {
          "inputs": [],
          "name": "OnlyRouterCanFulfill",
          "type": "error"
        },
        {
          "inputs": [
            {
              "internalType": "address",
              "name": "owner",
              "type": "address"
            }
          ],
          "name": "OwnableInvalidOwner",
          "type": "error"
        },
        {
          "inputs": [
            {
              "internalType": "address",
              "name": "account",
              "type": "address"
            }
          ],
          "name": "OwnableUnauthorizedAccount",
          "type": "error"
        },
        {
          "anonymous": false,
          "inputs": [
            {
              "indexed": true,
              "internalType": "bytes32",
              "name": "requestId",
              "type": "bytes32"
            },
            {
              "indexed": false,
              "internalType": "bytes",
              "name": "result",
              "type": "bytes"
            },
            {
              "indexed": false,
              "internalType": "bytes",
              "name": "err",
              "type": "bytes"
            }
          ],
          "name": "OCRResponse",
          "type": "event"
        },
        {
          "anonymous": false,
          "inputs": [
            {
              "indexed": true,
              "internalType": "address",
              "name": "previousOwner",
              "type": "address"
            },
            {
              "indexed": true,
              "internalType": "address",
              "name": "newOwner",
              "type": "address"
            }
          ],
          "name": "OwnershipTransferred",
          "type": "event"
        },
        {
          "anonymous": false,
          "inputs": [
            {
              "indexed": true,
              "internalType": "bytes32",
              "name": "id",
              "type": "bytes32"
            }
          ],
          "name": "RequestFulfilled",
          "type": "event"
        },
        {
          "anonymous": false,
          "inputs": [
            {
              "indexed": true,
              "internalType": "bytes32",
              "name": "id",
              "type": "bytes32"
            }
          ],
          "name": "RequestSent",
          "type": "event"
        },
        {
          "inputs": [
            {
              "internalType": "bytes32",
              "name": "requestId",
              "type": "bytes32"
            },
            {
              "internalType": "bytes",
              "name": "response",
              "type": "bytes"
            },
            {
              "internalType": "bytes",
              "name": "err",
              "type": "bytes"
            }
          ],
          "name": "handleOracleFulfillment",
          "outputs": [],
          "stateMutability": "nonpayable",
          "type": "function"
        },
        {
          "inputs": [
            {
              "internalType": "enum Enums.TaskType",
              "name": "taskType",
              "type": "uint8"
            },
            {
              "internalType": "uint64",
              "name": "subscriptionId",
              "type": "uint64"
            },
            {
              "internalType": "uint32",
              "name": "gasLimit",
              "type": "uint32"
            }
          ],
          "name": "makeRequest",
          "outputs": [
            {
              "internalType": "bytes32",
              "name": "requestId",
              "type": "bytes32"
            }
          ],
          "stateMutability": "nonpayable",
          "type": "function"
        },
        {
          "inputs": [],
          "name": "owner",
          "outputs": [
            {
              "internalType": "address",
              "name": "",
              "type": "address"
            }
          ],
          "stateMutability": "view",
          "type": "function"
        },
        {
          "inputs": [],
          "name": "renounceOwnership",
          "outputs": [],
          "stateMutability": "nonpayable",
          "type": "function"
        },
        {
          "inputs": [
            {
              "internalType": "address",
              "name": "newOwner",
              "type": "address"
            }
          ],
          "name": "transferOwnership",
          "outputs": [],
          "stateMutability": "nonpayable",
          "type": "function"
        }
      ],
      "evm": {
        "bytecode": {
          "linkReferences": {},
          "object": "60a0604052346102b257611bf380380380610019816102b7565b9283398101906060818303126102b25780516001600160a01b038116908190036102b2576020820151604083015190926001600160401b0382116102b2570183601f820112156102b2578051906001600160401b03821161027157610087601f8301601f19166020016102b7565b94828652602083830101116102b25760005b82811061029d57505060206000918501015260805233156102875760008054336001600160a01b0319821681178355916001600160a01b03909116907f8be0079c531659141344cd1fd0a4f28419497f9722a3daafe3b4186f6b6457e09080a360015580516001600160401b03811161027157600254600181811c91168015610267575b602082101461025157601f81116101ec575b50602091601f82116001146101885791819260009261017d575b50508160011b916000199060031b1c1916176002555b60405161191690816102dd823960805181818160c5015261116e0152f35b015190503880610149565b601f198216926002600052806000209160005b8581106101d4575083600195106101bb575b505050811b0160025561015f565b015160001960f88460031b161c191690553880806101ad565b9192602060018192868501518155019401920161019b565b60026000527f405787fa12a823e0f2b7631cc41b3ba8828b3321ca811111fa75cd3aa3bb5ace601f830160051c81019160208410610247575b601f0160051c01905b81811061023b575061012f565b6000815560010161022e565b9091508190610225565b634e487b7160e01b600052602260045260246000fd5b90607f169061011d565b634e487b7160e01b600052604160045260246000fd5b631e4fbdf760e01b600052600060045260246000fd5b80602080928401015182828901015201610099565b600080fd5b6040519190601f01601f191682016001600160401b038111838210176102715760405256fe6080604052600436101561001257600080fd5b60003560e01c80630ca7617514610067578063715018a61461006257806372642f2b1461005d5780638da5cb5b146100585763f2fde38b1461005357600080fd5b610426565b6103ff565b610294565b61022e565b346101465760603660031901126101465760043560243567ffffffffffffffff81116101465761009b9036906004016101dc565b60443567ffffffffffffffff8111610146576100bb9036906004016101dc565b6001600160a01b037f000000000000000000000000000000000000000000000000000000000000000016330361011c576100f591836106fd565b7f85e1543bf2f84fe80c6badbce3648c8539ad1df4d2b3d822938ca0538be727e6600080a2005b7fc6829f830000000000000000000000000000000000000000000000000000000060005260046000fd5b600080fd5b634e487b7160e01b600052604160045260246000fd5b60e0810190811067ffffffffffffffff82111761017d57604052565b61014b565b6040810190811067ffffffffffffffff82111761017d57604052565b90601f8019910116810190811067ffffffffffffffff82111761017d57604052565b67ffffffffffffffff811161017d57601f01601f191660200190565b81601f82011215610146578035906101f3826101c0565b92610201604051948561019e565b8284526020838301011161014657816000926020809301838601378301015290565b600091031261014657565b346101465760003660031901126101465761024761097b565b60006001600160a01b03815473ffffffffffffffffffffffffffffffffffffffff1981168355167f8be0079c531659141344cd1fd0a4f28419497f9722a3daafe3b4186f6b6457e08280a3005b34610146576060366003190112610146576004356003811015610146576024359067ffffffffffffffff82168203610146576044359163ffffffff83168303610146576103916103eb916103fb946103876000604051906102f482610161565b808252806020830152604082015260608082015260606080820152606060a0820152606060c082015261032e6103286104d8565b826109c7565b6103826103396105b3565b61034233610b2f565b61034b82610604565b5261035581610604565b5061035f89610650565b61036889610c45565b61037182610616565b5261037b81610616565b5082610d2b565b610eff565b91600154926110f4565b916103d2336103aa856000526003602052604060002090565b906001600160a01b031673ffffffffffffffffffffffffffffffffffffffff19825416179055565b6103e6836000526004602052604060002090565b61065f565b6040519081529081906020820190565b0390f35b346101465760003660031901126101465760206001600160a01b0360005416604051908152f35b34610146576020366003190112610146576004356001600160a01b0381168091036101465761045361097b565b80156104a9576001600160a01b036000548273ffffffffffffffffffffffffffffffffffffffff19821617600055167f8be0079c531659141344cd1fd0a4f28419497f9722a3daafe3b4186f6b6457e0600080a3005b7f1e4fbdf700000000000000000000000000000000000000000000000000000000600052600060045260246000fd5b604051906000600254908160011c91600181169081156105a9575b602084108214610595578386528592916020840191811561057c5750600114610526575b506105249250038361019e565b565b6002600090815291507f405787fa12a823e0f2b7631cc41b3ba8828b3321ca811111fa75cd3aa3bb5ace5b848310610565575061052493500138610517565b805482840152869350602090920191600101610551565b60ff191682525061052493151560051b01905038610517565b602483634e487b7160e01b81526022600452fd5b92607f16926104f3565b604051606091906105c4838261019e565b6002815291601f19018260005b8281106105dd57505050565b8060606020809385010152016105d1565b634e487b7160e01b600052603260045260246000fd5b8051156106115760200190565b6105ee565b8051600110156106115760400190565b80518210156106115760209160051b010190565b634e487b7160e01b600052602160045260246000fd5b6003111561065a57565b61063a565b9061066981610650565b60ff80198354169116179055565b919082519283825260005b8481106106a3575050826000602080949584010152601f8019910116010190565b80602080928401015182828601015201610682565b9060206106c9928181520190610677565b90565b6040513d6000823e3d90fd5b90916106ef6106c993604084526040840190610677565b916020818403910152610677565b91610722610715846000526003602052604060002090565b546001600160a01b031690565b610740610739856000526004602052604060002090565b5460ff1690565b8351156109745782516109745761075681610650565b8061080f57506001600160a01b031691823b1561014657600060405180947f4b8376490000000000000000000000000000000000000000000000000000000082528183816107a787600483016106b8565b03925af192831561080a577f7bab0ec163b5c132c72b8146ac4d6e067e82ed58f8b131150aa71c9258911562936107ef575b505b6107ea604051928392836106d8565b0390a2565b806107fe60006108049361019e565b80610223565b386107d9565b6106cc565b61081881610650565b600181036108b957506001600160a01b031691823b1561014657600060405180947f47a471a100000000000000000000000000000000000000000000000000000000825281838161086c87600483016106b8565b03925af192831561080a577f7bab0ec163b5c132c72b8146ac4d6e067e82ed58f8b131150aa71c9258911562936108a4575b506107db565b806107fe60006108b39361019e565b3861089e565b806108c5600292610650565b03610915576001600160a01b031691823b1561014657600060405180947fe0ab465000000000000000000000000000000000000000000000000000000000825281838161086c87600483016106b8565b6040517f08c379a000000000000000000000000000000000000000000000000000000000815260206004820152601160248201527f496e76616c6964207461736b20747970650000000000000000000000000000006044820152606490fd5b5050505050565b6001600160a01b0360005416330361098f57565b7f118cdaa7000000000000000000000000000000000000000000000000000000006000523360045260246000fd5b6001111561065a57565b60008251156109e157506000808252604082015260600152565b807f22ce3edd0000000000000000000000000000000000000000000000000000000060049252fd5b60405190610a1860408361019e565b601082527f30313233343536373839616263646566000000000000000000000000000000006020830152565b60405160609190610a55838261019e565b602a815291601f1901366020840137565b90610a70826101c0565b610a7d604051918261019e565b8281528092610a8e601f19916101c0565b0190602036910137565b8051600110156106115760210190565b908151811015610611570160200190565b634e487b7160e01b600052601160045260246000fd5b908160011b9180830460021490151715610ae557565b610ab9565b6002019081600211610ae557565b6003019081600311610ae557565b6030019081603011610ae557565b9060208201809211610ae557565b91908201809211610ae557565b610b37610a09565b9060601b6bffffffffffffffffffffffff1916610b52610a44565b916030610b5e84610604565b536078610b6a84610a98565b5360005b60148110610b7c5750505090565b600190610bf2610ba5600f86841a610bcb83610b9f600484901c85165b60ff1690565b89610aa8565b517fff000000000000000000000000000000000000000000000000000000000000001690565b610bea610bdf610bda88610acf565b610aea565b9160001a918b610aa8565b531685610aa8565b610c11610c06610c0184610acf565b610af8565b9160001a9187610aa8565b5301610b6e565b6000198114610ae55760010190565b600019810191908211610ae557565b601f19810191908211610ae557565b908115610cee57600082805b610ccf575080610c618492610a66565b915b610c6c57509150565b610c78610cc891610c27565b93610cb3610c8b610b99600a8406610b06565b60f81b7fff000000000000000000000000000000000000000000000000000000000000001690565b60001a610cc08685610aa8565b53600a900490565b9283610c63565b9290610cdd610ce591610c18565b93600a900490565b80939193610c51565b9050604051610cfe60408261019e565b600181527f3000000000000000000000000000000000000000000000000000000000000000602082015290565b815115610d385760a00152565b7ffe936cb70000000000000000000000000000000000000000000000000000000060005260046000fd5b60405190610d7160408361019e565b600c82527f636f64654c6f636174696f6e00000000000000000000000000000000000000006020830152565b60405190610dac60408361019e565b600882527f6c616e67756167650000000000000000000000000000000000000000000000006020830152565b60405190610de760408361019e565b600682527f736f7572636500000000000000000000000000000000000000000000000000006020830152565b60405190610e2260408361019e565b600482527f61726773000000000000000000000000000000000000000000000000000000006020830152565b60405190610e5d60408361019e565b600f82527f736563726574734c6f636174696f6e00000000000000000000000000000000006020830152565b60405190610e9860408361019e565b600782527f73656372657473000000000000000000000000000000000000000000000000006020830152565b60405190610ed360408361019e565b600982527f62797465734172677300000000000000000000000000000000000000000000006020830152565b610f07611212565b90610f19610f13610d62565b83611243565b610f368151610f2781610650565b610f3081610650565b8361132b565b610f41610f13610d9d565b610f5b6040820151610f52816109bd565b610f30816109bd565b610f66610f13610dd8565b610f74606082015183611243565b60a0810180515161108c575b506080810190815151610ff4575b60c0915001805151610fa1575b50515190565b91610fad610f13610ec4565b610fb682611358565b60005b83518051821015610fe15790610fdb610fd482600194610626565b518561139d565b01610fb9565b50509150610fee8161137a565b38610f9b565b60208101805161100381610650565b61100c81610650565b156110625760c09261104561105d9261102c611026610e4e565b88611243565b5161103681610650565b61103f81610650565b8661132b565b611056611050610e89565b86611243565b518461139d565b610f8e565b7fa80d31f70000000000000000000000000000000000000000000000000000000060005260046000fd5b9261109e611098610e13565b84611243565b6110a783611358565b60005b845180518210156110d257906110cc6110c582600194610626565b5186611243565b016110aa565b505092506110df8261137a565b38610f80565b90816020910312610146575190565b929060209267ffffffffffffffff9263ffffffff61114d60405197889687967f461d276200000000000000000000000000000000000000000000000000000000885216600487015260a0602487015260a4860190610677565b92600160448601521660648401526084830152038160006001600160a01b037f0000000000000000000000000000000000000000000000000000000000000000165af190811561080a576000916111c9575b50807f1131472297a800fee664d1d89cfa8f7676ff07189ecc53f80bbb5f4969099db8600080a290565b6111eb915060203d6020116111f1575b6111e3818361019e565b8101906110e5565b3861119f565b503d6111d9565b6040519061120582610182565b6000602083606081520152565b60405161121e81610182565b60006112286111f8565b80835261123e6101006020850192848452611437565b505290565b815161129392919067ffffffffffffffff166017811161129657815161127e91611278906112716060610b99565b1760ff1690565b906115b9565b505b519061128a6111f8565b50805191611823565b50565b60ff81116112c35781516112bd91906112b590601860605b17906115b9565b5082516117a3565b50611280565b61ffff81116112e85781516112bd91906112e090601960606112ae565b50825161172a565b63ffffffff811161130f5781516112bd919061130790601a60606112ae565b5082516116b1565b81516112bd919061132390601b60606112ae565b508251611633565b906105249161133a8151611549565b506040519160208301526020825261135360408361019e565b61139d565b602090611367609f82516115b9565b500180519060018201809211610ae55752565b60209061138960ff82516115b9565b50018051600019810191908211610ae55752565b815161129392919067ffffffffffffffff16601781116113cb57815161127e91611278906112716040610b99565b60ff81116113e75781516112bd91906112b590601860406112ae565b61ffff81116114045781516112bd91906112e090601960406112ae565b63ffffffff81116114235781516112bd919061130790601a60406112ae565b81516112bd919061132390601b60406112ae565b906114406111f8565b50601f81168061146f575b50806020830152604051908183526000825281016020019081106101465760405290565b60200360208111610ae5578101809111610ae5573861144b565b906114926111f8565b50805161149d6111f8565b506114ab825182111561181c565b825151916114b98284610b22565b9060208501518211611532575b60209185518381519682010195821161152a575b505001905b602081101561150457600019906020036101000a019081199051169082511617905290565b909161151f6115196115259285518152610b14565b93610b14565b91610c36565b6114df565b5238806114da565b61154461153e83610acf565b866118c9565b6114c6565b6115516111f8565b508051516001810190818111610ae557602083015181101561158a575b60c26020845192830101538051821161158657505090565b5290565b8160011b82810460021483151715610ae5576115b3906115ac85519186611437565b5084611489565b5061156e565b906115c26111f8565b508151516001810191828211610ae55760208401518210156115f5575b6020845192830101538051821161158657505090565b8260011b83810460021484151715610ae55761161e9061161786519187611437565b5085611489565b506115df565b601f8111610ae5576101000a90565b9061163c6111f8565b50815151806008019182600811610ae55760208401518311611689575b61166b6116666008611624565b610c27565b90600885519384010191198251161790528051821161158657505090565b8260011b83810460021484151715610ae5576116ab9061161786519187611437565b50611659565b906116ba6111f8565b50815151806004019182600411610ae55760208401518311611702575b6116e46116666004611624565b90600485519384010191198251161790528051821161158657505090565b8260011b83810460021484151715610ae5576117249061161786519187611437565b506116d7565b906117336111f8565b50815151806002019182600211610ae5576020840151831161177b575b61175d6116666002611624565b90600285519384010191198251161790528051821161158657505090565b8260011b83810460021484151715610ae55761179d9061161786519187611437565b50611750565b906117ac6111f8565b50815151806001019182600111610ae557602084015183116117f4575b6117d66116666001611624565b90600185519384010191198251161790528051821161158657505090565b8260011b83810460021484151715610ae5576118169061161786519187611437565b506117c9565b1561014657565b9161182c6111f8565b5061183a825182111561181c565b60208351519261184a8385610b22565b8286015181116118b2575b8551838151968201019582116118aa575b505001905b602081101561189057600019906020036101000a019081199051169082511617905290565b909161151f6115196118a59285518152610b14565b61186b565b523880611866565b6118c46118be82610acf565b876118c9565b611855565b90611293916118da81519282611437565b5061148956fea2646970667358221220bc8da19b0e381947a1e0b7eb054d1872144f18c2e471f637d75cefd186768b1264736f6c634300081c0033",
          "opcodes": "PUSH1 0xA0 PUSH1 0x40 MSTORE CALLVALUE PUSH2 0x2B2 JUMPI PUSH2 0x1BF3 DUP1 CODESIZE SUB DUP1 PUSH2 0x19 DUP2 PUSH2 0x2B7 JUMP JUMPDEST SWAP3 DUP4 CODECOPY DUP2 ADD SWAP1 PUSH1 0x60 DUP2 DUP4 SUB SLT PUSH2 0x2B2 JUMPI DUP1 MLOAD PUSH1 0x1 PUSH1 0x1 PUSH1 0xA0 SHL SUB DUP2 AND SWAP1 DUP2 SWAP1 SUB PUSH2 0x2B2 JUMPI PUSH1 0x20 DUP3 ADD MLOAD PUSH1 0x40 DUP4 ADD MLOAD SWAP1 SWAP3 PUSH1 0x1 PUSH1 0x1 PUSH1 0x40 SHL SUB DUP3 GT PUSH2 0x2B2 JUMPI ADD DUP4 PUSH1 0x1F DUP3 ADD SLT ISZERO PUSH2 0x2B2 JUMPI DUP1 MLOAD SWAP1 PUSH1 0x1 PUSH1 0x1 PUSH1 0x40 SHL SUB DUP3 GT PUSH2 0x271 JUMPI PUSH2 0x87 PUSH1 0x1F DUP4 ADD PUSH1 0x1F NOT AND PUSH1 0x20 ADD PUSH2 0x2B7 JUMP JUMPDEST SWAP5 DUP3 DUP7 MSTORE PUSH1 0x20 DUP4 DUP4 ADD ADD GT PUSH2 0x2B2 JUMPI PUSH1 0x0 JUMPDEST DUP3 DUP2 LT PUSH2 0x29D JUMPI POP POP PUSH1 0x20 PUSH1 0x0 SWAP2 DUP6 ADD ADD MSTORE PUSH1 0x80 MSTORE CALLER ISZERO PUSH2 0x287 JUMPI PUSH1 0x0 DUP1 SLOAD CALLER PUSH1 0x1 PUSH1 0x1 PUSH1 0xA0 SHL SUB NOT DUP3 AND DUP2 OR DUP4 SSTORE SWAP2 PUSH1 0x1 PUSH1 0x1 PUSH1 0xA0 SHL SUB SWAP1 SWAP2 AND SWAP1 PUSH32 0x8BE0079C531659141344CD1FD0A4F28419497F9722A3DAAFE3B4186F6B6457E0 SWAP1 DUP1 LOG3 PUSH1 0x1 SSTORE DUP1 MLOAD PUSH1 0x1 PUSH1 0x1 PUSH1 0x40 SHL SUB DUP2 GT PUSH2 0x271 JUMPI PUSH1 0x2 SLOAD PUSH1 0x1 DUP2 DUP2 SHR SWAP2 AND DUP1 ISZERO PUSH2 0x267 JUMPI JUMPDEST PUSH1 0x20 DUP3 LT EQ PUSH2 0x251 JUMPI PUSH1 0x1F DUP2 GT PUSH2 0x1EC JUMPI JUMPDEST POP PUSH1 0x20 SWAP2 PUSH1 0x1F DUP3 GT PUSH1 0x1 EQ PUSH2 0x188 JUMPI SWAP2 DUP2 SWAP3 PUSH1 0x0 SWAP3 PUSH2 0x17D JUMPI JUMPDEST POP POP DUP2 PUSH1 0x1 SHL SWAP2 PUSH1 0x0 NOT SWAP1 PUSH1 0x3 SHL SHR NOT AND OR PUSH1 0x2 SSTORE JUMPDEST PUSH1 0x40 MLOAD PUSH2 0x1916 SWAP1 DUP2 PUSH2 0x2DD DUP3 CODECOPY PUSH1 0x80 MLOAD DUP2 DUP2 DUP2 PUSH1 0xC5 ADD MSTORE PUSH2 0x116E ADD MSTORE RETURN JUMPDEST ADD MLOAD SWAP1 POP CODESIZE DUP1 PUSH2 0x149 JUMP JUMPDEST PUSH1 0x1F NOT DUP3 AND SWAP3 PUSH1 0x2 PUSH1 0x0 MSTORE DUP1 PUSH1 0x0 KECCAK256 SWAP2 PUSH1 0x0 JUMPDEST DUP6 DUP2 LT PUSH2 0x1D4 JUMPI POP DUP4 PUSH1 0x1 SWAP6 LT PUSH2 0x1BB JUMPI JUMPDEST POP POP POP DUP2 SHL ADD PUSH1 0x2 SSTORE PUSH2 0x15F JUMP JUMPDEST ADD MLOAD PUSH1 0x0 NOT PUSH1 0xF8 DUP5 PUSH1 0x3 SHL AND SHR NOT AND SWAP1 SSTORE CODESIZE DUP1 DUP1 PUSH2 0x1AD JUMP JUMPDEST SWAP2 SWAP3 PUSH1 0x20 PUSH1 0x1 DUP2 SWAP3 DUP7 DUP6 ADD MLOAD DUP2 SSTORE ADD SWAP5 ADD SWAP3 ADD PUSH2 0x19B JUMP JUMPDEST PUSH1 0x2 PUSH1 0x0 MSTORE PUSH32 0x405787FA12A823E0F2B7631CC41B3BA8828B3321CA811111FA75CD3AA3BB5ACE PUSH1 0x1F DUP4 ADD PUSH1 0x5 SHR DUP2 ADD SWAP2 PUSH1 0x20 DUP5 LT PUSH2 0x247 JUMPI JUMPDEST PUSH1 0x1F ADD PUSH1 0x5 SHR ADD SWAP1 JUMPDEST DUP2 DUP2 LT PUSH2 0x23B JUMPI POP PUSH2 0x12F JUMP JUMPDEST PUSH1 0x0 DUP2 SSTORE PUSH1 0x1 ADD PUSH2 0x22E JUMP JUMPDEST SWAP1 SWAP2 POP DUP2 SWAP1 PUSH2 0x225 JUMP JUMPDEST PUSH4 0x4E487B71 PUSH1 0xE0 SHL PUSH1 0x0 MSTORE PUSH1 0x22 PUSH1 0x4 MSTORE PUSH1 0x24 PUSH1 0x0 REVERT JUMPDEST SWAP1 PUSH1 0x7F AND SWAP1 PUSH2 0x11D JUMP JUMPDEST PUSH4 0x4E487B71 PUSH1 0xE0 SHL PUSH1 0x0 MSTORE PUSH1 0x41 PUSH1 0x4 MSTORE PUSH1 0x24 PUSH1 0x0 REVERT JUMPDEST PUSH4 0x1E4FBDF7 PUSH1 0xE0 SHL PUSH1 0x0 MSTORE PUSH1 0x0 PUSH1 0x4 MSTORE PUSH1 0x24 PUSH1 0x0 REVERT JUMPDEST DUP1 PUSH1 0x20 DUP1 SWAP3 DUP5 ADD ADD MLOAD DUP3 DUP3 DUP10 ADD ADD MSTORE ADD PUSH2 0x99 JUMP JUMPDEST PUSH1 0x0 DUP1 REVERT JUMPDEST PUSH1 0x40 MLOAD SWAP2 SWAP1 PUSH1 0x1F ADD PUSH1 0x1F NOT AND DUP3 ADD PUSH1 0x1 PUSH1 0x1 PUSH1 0x40 SHL SUB DUP2 GT DUP4 DUP3 LT OR PUSH2 0x271 JUMPI PUSH1 0x40 MSTORE JUMP INVALID PUSH1 0x80 PUSH1 0x40 MSTORE PUSH1 0x4 CALLDATASIZE LT ISZERO PUSH2 0x12 JUMPI PUSH1 0x0 DUP1 REVERT JUMPDEST PUSH1 0x0 CALLDATALOAD PUSH1 0xE0 SHR DUP1 PUSH4 0xCA76175 EQ PUSH2 0x67 JUMPI DUP1 PUSH4 0x715018A6 EQ PUSH2 0x62 JUMPI DUP1 PUSH4 0x72642F2B EQ PUSH2 0x5D JUMPI DUP1 PUSH4 0x8DA5CB5B EQ PUSH2 0x58 JUMPI PUSH4 0xF2FDE38B EQ PUSH2 0x53 JUMPI PUSH1 0x0 DUP1 REVERT JUMPDEST PUSH2 0x426 JUMP JUMPDEST PUSH2 0x3FF JUMP JUMPDEST PUSH2 0x294 JUMP JUMPDEST PUSH2 0x22E JUMP JUMPDEST CALLVALUE PUSH2 0x146 JUMPI PUSH1 0x60 CALLDATASIZE PUSH1 0x3 NOT ADD SLT PUSH2 0x146 JUMPI PUSH1 0x4 CALLDATALOAD PUSH1 0x24 CALLDATALOAD PUSH8 0xFFFFFFFFFFFFFFFF DUP2 GT PUSH2 0x146 JUMPI PUSH2 0x9B SWAP1 CALLDATASIZE SWAP1 PUSH1 0x4 ADD PUSH2 0x1DC JUMP JUMPDEST PUSH1 0x44 CALLDATALOAD PUSH8 0xFFFFFFFFFFFFFFFF DUP2 GT PUSH2 0x146 JUMPI PUSH2 0xBB SWAP1 CALLDATASIZE SWAP1 PUSH1 0x4 ADD PUSH2 0x1DC JUMP JUMPDEST PUSH1 0x1 PUSH1 0x1 PUSH1 0xA0 SHL SUB PUSH32 0x0 AND CALLER SUB PUSH2 0x11C JUMPI PUSH2 0xF5 SWAP2 DUP4 PUSH2 0x6FD JUMP JUMPDEST PUSH32 0x85E1543BF2F84FE80C6BADBCE3648C8539AD1DF4D2B3D822938CA0538BE727E6 PUSH1 0x0 DUP1 LOG2 STOP JUMPDEST PUSH32 0xC6829F8300000000000000000000000000000000000000000000000000000000 PUSH1 0x0 MSTORE PUSH1 0x4 PUSH1 0x0 REVERT JUMPDEST PUSH1 0x0 DUP1 REVERT JUMPDEST PUSH4 0x4E487B71 PUSH1 0xE0 SHL PUSH1 0x0 MSTORE PUSH1 0x41 PUSH1 0x4 MSTORE PUSH1 0x24 PUSH1 0x0 REVERT JUMPDEST PUSH1 0xE0 DUP2 ADD SWAP1 DUP2 LT PUSH8 0xFFFFFFFFFFFFFFFF DUP3 GT OR PUSH2 0x17D JUMPI PUSH1 0x40 MSTORE JUMP JUMPDEST PUSH2 0x14B JUMP JUMPDEST PUSH1 0x40 DUP2 ADD SWAP1 DUP2 LT PUSH8 0xFFFFFFFFFFFFFFFF DUP3 GT OR PUSH2 0x17D JUMPI PUSH1 0x40 MSTORE JUMP JUMPDEST SWAP1 PUSH1 0x1F DUP1 NOT SWAP2 ADD AND DUP2 ADD SWAP1 DUP2 LT PUSH8 0xFFFFFFFFFFFFFFFF DUP3 GT OR PUSH2 0x17D JUMPI PUSH1 0x40 MSTORE JUMP JUMPDEST PUSH8 0xFFFFFFFFFFFFFFFF DUP2 GT PUSH2 0x17D JUMPI PUSH1 0x1F ADD PUSH1 0x1F NOT AND PUSH1 0x20 ADD SWAP1 JUMP JUMPDEST DUP2 PUSH1 0x1F DUP3 ADD SLT ISZERO PUSH2 0x146 JUMPI DUP1 CALLDATALOAD SWAP1 PUSH2 0x1F3 DUP3 PUSH2 0x1C0 JUMP JUMPDEST SWAP3 PUSH2 0x201 PUSH1 0x40 MLOAD SWAP5 DUP6 PUSH2 0x19E JUMP JUMPDEST DUP3 DUP5 MSTORE PUSH1 0x20 DUP4 DUP4 ADD ADD GT PUSH2 0x146 JUMPI DUP2 PUSH1 0x0 SWAP3 PUSH1 0x20 DUP1 SWAP4 ADD DUP4 DUP7 ADD CALLDATACOPY DUP4 ADD ADD MSTORE SWAP1 JUMP JUMPDEST PUSH1 0x0 SWAP2 SUB SLT PUSH2 0x146 JUMPI JUMP JUMPDEST CALLVALUE PUSH2 0x146 JUMPI PUSH1 0x0 CALLDATASIZE PUSH1 0x3 NOT ADD SLT PUSH2 0x146 JUMPI PUSH2 0x247 PUSH2 0x97B JUMP JUMPDEST PUSH1 0x0 PUSH1 0x1 PUSH1 0x1 PUSH1 0xA0 SHL SUB DUP2 SLOAD PUSH20 0xFFFFFFFFFFFFFFFFFFFFFFFFFFFFFFFFFFFFFFFF NOT DUP2 AND DUP4 SSTORE AND PUSH32 0x8BE0079C531659141344CD1FD0A4F28419497F9722A3DAAFE3B4186F6B6457E0 DUP3 DUP1 LOG3 STOP JUMPDEST CALLVALUE PUSH2 0x146 JUMPI PUSH1 0x60 CALLDATASIZE PUSH1 0x3 NOT ADD SLT PUSH2 0x146 JUMPI PUSH1 0x4 CALLDATALOAD PUSH1 0x3 DUP2 LT ISZERO PUSH2 0x146 JUMPI PUSH1 0x24 CALLDATALOAD SWAP1 PUSH8 0xFFFFFFFFFFFFFFFF DUP3 AND DUP3 SUB PUSH2 0x146 JUMPI PUSH1 0x44 CALLDATALOAD SWAP2 PUSH4 0xFFFFFFFF DUP4 AND DUP4 SUB PUSH2 0x146 JUMPI PUSH2 0x391 PUSH2 0x3EB SWAP2 PUSH2 0x3FB SWAP5 PUSH2 0x387 PUSH1 0x0 PUSH1 0x40 MLOAD SWAP1 PUSH2 0x2F4 DUP3 PUSH2 0x161 JUMP JUMPDEST DUP1 DUP3 MSTORE DUP1 PUSH1 0x20 DUP4 ADD MSTORE PUSH1 0x40 DUP3 ADD MSTORE PUSH1 0x60 DUP1 DUP3 ADD MSTORE PUSH1 0x60 PUSH1 0x80 DUP3 ADD MSTORE PUSH1 0x60 PUSH1 0xA0 DUP3 ADD MSTORE PUSH1 0x60 PUSH1 0xC0 DUP3 ADD MSTORE PUSH2 0x32E PUSH2 0x328 PUSH2 0x4D8 JUMP JUMPDEST DUP3 PUSH2 0x9C7 JUMP JUMPDEST PUSH2 0x382 PUSH2 0x339 PUSH2 0x5B3 JUMP JUMPDEST PUSH2 0x342 CALLER PUSH2 0xB2F JUMP JUMPDEST PUSH2 0x34B DUP3 PUSH2 0x604 JUMP JUMPDEST MSTORE PUSH2 0x355 DUP2 PUSH2 0x604 JUMP JUMPDEST POP PUSH2 0x35F DUP10 PUSH2 0x650 JUMP JUMPDEST PUSH2 0x368 DUP10 PUSH2 0xC45 JUMP JUMPDEST PUSH2 0x371 DUP3 PUSH2 0x616 JUMP JUMPDEST MSTORE PUSH2 0x37B DUP2 PUSH2 0x616 JUMP JUMPDEST POP DUP3 PUSH2 0xD2B JUMP JUMPDEST PUSH2 0xEFF JUMP JUMPDEST SWAP2 PUSH1 0x1 SLOAD SWAP3 PUSH2 0x10F4 JUMP JUMPDEST SWAP2 PUSH2 0x3D2 CALLER PUSH2 0x3AA DUP6 PUSH1 0x0 MSTORE PUSH1 0x3 PUSH1 0x20 MSTORE PUSH1 0x40 PUSH1 0x0 KECCAK256 SWAP1 JUMP JUMPDEST SWAP1 PUSH1 0x1 PUSH1 0x1 PUSH1 0xA0 SHL SUB AND PUSH20 0xFFFFFFFFFFFFFFFFFFFFFFFFFFFFFFFFFFFFFFFF NOT DUP3 SLOAD AND OR SWAP1 SSTORE JUMP JUMPDEST PUSH2 0x3E6 DUP4 PUSH1 0x0 MSTORE PUSH1 0x4 PUSH1 0x20 MSTORE PUSH1 0x40 PUSH1 0x0 KECCAK256 SWAP1 JUMP JUMPDEST PUSH2 0x65F JUMP JUMPDEST PUSH1 0x40 MLOAD SWAP1 DUP2 MSTORE SWAP1 DUP2 SWAP1 PUSH1 0x20 DUP3 ADD SWAP1 JUMP JUMPDEST SUB SWAP1 RETURN JUMPDEST CALLVALUE PUSH2 0x146 JUMPI PUSH1 0x0 CALLDATASIZE PUSH1 0x3 NOT ADD SLT PUSH2 0x146 JUMPI PUSH1 0x20 PUSH1 0x1 PUSH1 0x1 PUSH1 0xA0 SHL SUB PUSH1 0x0 SLOAD AND PUSH1 0x40 MLOAD SWAP1 DUP2 MSTORE RETURN JUMPDEST CALLVALUE PUSH2 0x146 JUMPI PUSH1 0x20 CALLDATASIZE PUSH1 0x3 NOT ADD SLT PUSH2 0x146 JUMPI PUSH1 0x4 CALLDATALOAD PUSH1 0x1 PUSH1 0x1 PUSH1 0xA0 SHL SUB DUP2 AND DUP1 SWAP2 SUB PUSH2 0x146 JUMPI PUSH2 0x453 PUSH2 0x97B JUMP JUMPDEST DUP1 ISZERO PUSH2 0x4A9 JUMPI PUSH1 0x1 PUSH1 0x1 PUSH1 0xA0 SHL SUB PUSH1 0x0 SLOAD DUP3 PUSH20 0xFFFFFFFFFFFFFFFFFFFFFFFFFFFFFFFFFFFFFFFF NOT DUP3 AND OR PUSH1 0x0 SSTORE AND PUSH32 0x8BE0079C531659141344CD1FD0A4F28419497F9722A3DAAFE3B4186F6B6457E0 PUSH1 0x0 DUP1 LOG3 STOP JUMPDEST PUSH32 0x1E4FBDF700000000000000000000000000000000000000000000000000000000 PUSH1 0x0 MSTORE PUSH1 0x0 PUSH1 0x4 MSTORE PUSH1 0x24 PUSH1 0x0 REVERT JUMPDEST PUSH1 0x40 MLOAD SWAP1 PUSH1 0x0 PUSH1 0x2 SLOAD SWAP1 DUP2 PUSH1 0x1 SHR SWAP2 PUSH1 0x1 DUP2 AND SWAP1 DUP2 ISZERO PUSH2 0x5A9 JUMPI JUMPDEST PUSH1 0x20 DUP5 LT DUP3 EQ PUSH2 0x595 JUMPI DUP4 DUP7 MSTORE DUP6 SWAP3 SWAP2 PUSH1 0x20 DUP5 ADD SWAP2 DUP2 ISZERO PUSH2 0x57C JUMPI POP PUSH1 0x1 EQ PUSH2 0x526 JUMPI JUMPDEST POP PUSH2 0x524 SWAP3 POP SUB DUP4 PUSH2 0x19E JUMP JUMPDEST JUMP JUMPDEST PUSH1 0x2 PUSH1 0x0 SWAP1 DUP2 MSTORE SWAP2 POP PUSH32 0x405787FA12A823E0F2B7631CC41B3BA8828B3321CA811111FA75CD3AA3BB5ACE JUMPDEST DUP5 DUP4 LT PUSH2 0x565 JUMPI POP PUSH2 0x524 SWAP4 POP ADD CODESIZE PUSH2 0x517 JUMP JUMPDEST DUP1 SLOAD DUP3 DUP5 ADD MSTORE DUP7 SWAP4 POP PUSH1 0x20 SWAP1 SWAP3 ADD SWAP2 PUSH1 0x1 ADD PUSH2 0x551 JUMP JUMPDEST PUSH1 0xFF NOT AND DUP3 MSTORE POP PUSH2 0x524 SWAP4 ISZERO ISZERO PUSH1 0x5 SHL ADD SWAP1 POP CODESIZE PUSH2 0x517 JUMP JUMPDEST PUSH1 0x24 DUP4 PUSH4 0x4E487B71 PUSH1 0xE0 SHL DUP2 MSTORE PUSH1 0x22 PUSH1 0x4 MSTORE REVERT JUMPDEST SWAP3 PUSH1 0x7F AND SWAP3 PUSH2 0x4F3 JUMP JUMPDEST PUSH1 0x40 MLOAD PUSH1 0x60 SWAP2 SWAP1 PUSH2 0x5C4 DUP4 DUP3 PUSH2 0x19E JUMP JUMPDEST PUSH1 0x2 DUP2 MSTORE SWAP2 PUSH1 0x1F NOT ADD DUP3 PUSH1 0x0 JUMPDEST DUP3 DUP2 LT PUSH2 0x5DD JUMPI POP POP POP JUMP JUMPDEST DUP1 PUSH1 0x60 PUSH1 0x20 DUP1 SWAP4 DUP6 ADD ADD MSTORE ADD PUSH2 0x5D1 JUMP JUMPDEST PUSH4 0x4E487B71 PUSH1 0xE0 SHL PUSH1 0x0 MSTORE PUSH1 0x32 PUSH1 0x4 MSTORE PUSH1 0x24 PUSH1 0x0 REVERT JUMPDEST DUP1 MLOAD ISZERO PUSH2 0x611 JUMPI PUSH1 0x20 ADD SWAP1 JUMP JUMPDEST PUSH2 0x5EE JUMP JUMPDEST DUP1 MLOAD PUSH1 0x1 LT ISZERO PUSH2 0x611 JUMPI PUSH1 0x40 ADD SWAP1 JUMP JUMPDEST DUP1 MLOAD DUP3 LT ISZERO PUSH2 0x611 JUMPI PUSH1 0x20 SWAP2 PUSH1 0x5 SHL ADD ADD SWAP1 JUMP JUMPDEST PUSH4 0x4E487B71 PUSH1 0xE0 SHL PUSH1 0x0 MSTORE PUSH1 0x21 PUSH1 0x4 MSTORE PUSH1 0x24 PUSH1 0x0 REVERT JUMPDEST PUSH1 0x3 GT ISZERO PUSH2 0x65A JUMPI JUMP JUMPDEST PUSH2 0x63A JUMP JUMPDEST SWAP1 PUSH2 0x669 DUP2 PUSH2 0x650 JUMP JUMPDEST PUSH1 0xFF DUP1 NOT DUP4 SLOAD AND SWAP2 AND OR SWAP1 SSTORE JUMP JUMPDEST SWAP2 SWAP1 DUP3 MLOAD SWAP3 DUP4 DUP3 MSTORE PUSH1 0x0 JUMPDEST DUP5 DUP2 LT PUSH2 0x6A3 JUMPI POP POP DUP3 PUSH1 0x0 PUSH1 0x20 DUP1 SWAP5 SWAP6 DUP5 ADD ADD MSTORE PUSH1 0x1F DUP1 NOT SWAP2 ADD AND ADD ADD SWAP1 JUMP JUMPDEST DUP1 PUSH1 0x20 DUP1 SWAP3 DUP5 ADD ADD MLOAD DUP3 DUP3 DUP7 ADD ADD MSTORE ADD PUSH2 0x682 JUMP JUMPDEST SWAP1 PUSH1 0x20 PUSH2 0x6C9 SWAP3 DUP2 DUP2 MSTORE ADD SWAP1 PUSH2 0x677 JUMP JUMPDEST SWAP1 JUMP JUMPDEST PUSH1 0x40 MLOAD RETURNDATASIZE PUSH1 0x0 DUP3 RETURNDATACOPY RETURNDATASIZE SWAP1 REVERT JUMPDEST SWAP1 SWAP2 PUSH2 0x6EF PUSH2 0x6C9 SWAP4 PUSH1 0x40 DUP5 MSTORE PUSH1 0x40 DUP5 ADD SWAP1 PUSH2 0x677 JUMP JUMPDEST SWAP2 PUSH1 0x20 DUP2 DUP5 SUB SWAP2 ADD MSTORE PUSH2 0x677 JUMP JUMPDEST SWAP2 PUSH2 0x722 PUSH2 0x715 DUP5 PUSH1 0x0 MSTORE PUSH1 0x3 PUSH1 0x20 MSTORE PUSH1 0x40 PUSH1 0x0 KECCAK256 SWAP1 JUMP JUMPDEST SLOAD PUSH1 0x1 PUSH1 0x1 PUSH1 0xA0 SHL SUB AND SWAP1 JUMP JUMPDEST PUSH2 0x740 PUSH2 0x739 DUP6 PUSH1 0x0 MSTORE PUSH1 0x4 PUSH1 0x20 MSTORE PUSH1 0x40 PUSH1 0x0 KECCAK256 SWAP1 JUMP JUMPDEST SLOAD PUSH1 0xFF AND SWAP1 JUMP JUMPDEST DUP4 MLOAD ISZERO PUSH2 0x974 JUMPI DUP3 MLOAD PUSH2 0x974 JUMPI PUSH2 0x756 DUP2 PUSH2 0x650 JUMP JUMPDEST DUP1 PUSH2 0x80F JUMPI POP PUSH1 0x1 PUSH1 0x1 PUSH1 0xA0 SHL SUB AND SWAP2 DUP3 EXTCODESIZE ISZERO PUSH2 0x146 JUMPI PUSH1 0x0 PUSH1 0x40 MLOAD DUP1 SWAP5 PUSH32 0x4B83764900000000000000000000000000000000000000000000000000000000 DUP3 MSTORE DUP2 DUP4 DUP2 PUSH2 0x7A7 DUP8 PUSH1 0x4 DUP4 ADD PUSH2 0x6B8 JUMP JUMPDEST SUB SWAP3 GAS CALL SWAP3 DUP4 ISZERO PUSH2 0x80A JUMPI PUSH32 0x7BAB0EC163B5C132C72B8146AC4D6E067E82ED58F8B131150AA71C9258911562 SWAP4 PUSH2 0x7EF JUMPI JUMPDEST POP JUMPDEST PUSH2 0x7EA PUSH1 0x40 MLOAD SWAP3 DUP4 SWAP3 DUP4 PUSH2 0x6D8 JUMP JUMPDEST SUB SWAP1 LOG2 JUMP JUMPDEST DUP1 PUSH2 0x7FE PUSH1 0x0 PUSH2 0x804 SWAP4 PUSH2 0x19E JUMP JUMPDEST DUP1 PUSH2 0x223 JUMP JUMPDEST CODESIZE PUSH2 0x7D9 JUMP JUMPDEST PUSH2 0x6CC JUMP JUMPDEST PUSH2 0x818 DUP2 PUSH2 0x650 JUMP JUMPDEST PUSH1 0x1 DUP2 SUB PUSH2 0x8B9 JUMPI POP PUSH1 0x1 PUSH1 0x1 PUSH1 0xA0 SHL SUB AND SWAP2 DUP3 EXTCODESIZE ISZERO PUSH2 0x146 JUMPI PUSH1 0x0 PUSH1 0x40 MLOAD DUP1 SWAP5 PUSH32 0x47A471A100000000000000000000000000000000000000000000000000000000 DUP3 MSTORE DUP2 DUP4 DUP2 PUSH2 0x86C DUP8 PUSH1 0x4 DUP4 ADD PUSH2 0x6B8 JUMP JUMPDEST SUB SWAP3 GAS CALL SWAP3 DUP4 ISZERO PUSH2 0x80A JUMPI PUSH32 0x7BAB0EC163B5C132C72B8146AC4D6E067E82ED58F8B131150AA71C9258911562 SWAP4 PUSH2 0x8A4 JUMPI JUMPDEST POP PUSH2 0x7DB JUMP JUMPDEST DUP1 PUSH2 0x7FE PUSH1 0x0 PUSH2 0x8B3 SWAP4 PUSH2 0x19E JUMP JUMPDEST CODESIZE PUSH2 0x89E JUMP JUMPDEST DUP1 PUSH2 0x8C5 PUSH1 0x2 SWAP3 PUSH2 0x650 JUMP JUMPDEST SUB PUSH2 0x915 JUMPI PUSH1 0x1 PUSH1 0x1 PUSH1 0xA0 SHL SUB AND SWAP2 DUP3 EXTCODESIZE ISZERO PUSH2 0x146 JUMPI PUSH1 0x0 PUSH1 0x40 MLOAD DUP1 SWAP5 PUSH32 0xE0AB465000000000000000000000000000000000000000000000000000000000 DUP3 MSTORE DUP2 DUP4 DUP2 PUSH2 0x86C DUP8 PUSH1 0x4 DUP4 ADD PUSH2 0x6B8 JUMP JUMPDEST PUSH1 0x40 MLOAD PUSH32 0x8C379A000000000000000000000000000000000000000000000000000000000 DUP2 MSTORE PUSH1 0x20 PUSH1 0x4 DUP3 ADD MSTORE PUSH1 0x11 PUSH1 0x24 DUP3 ADD MSTORE PUSH32 0x496E76616C6964207461736B2074797065000000000000000000000000000000 PUSH1 0x44 DUP3 ADD MSTORE PUSH1 0x64 SWAP1 REVERT JUMPDEST POP POP POP POP POP JUMP JUMPDEST PUSH1 0x1 PUSH1 0x1 PUSH1 0xA0 SHL SUB PUSH1 0x0 SLOAD AND CALLER SUB PUSH2 0x98F JUMPI JUMP JUMPDEST PUSH32 0x118CDAA700000000000000000000000000000000000000000000000000000000 PUSH1 0x0 MSTORE CALLER PUSH1 0x4 MSTORE PUSH1 0x24 PUSH1 0x0 REVERT JUMPDEST PUSH1 0x1 GT ISZERO PUSH2 0x65A JUMPI JUMP JUMPDEST PUSH1 0x0 DUP3 MLOAD ISZERO PUSH2 0x9E1 JUMPI POP PUSH1 0x0 DUP1 DUP3 MSTORE PUSH1 0x40 DUP3 ADD MSTORE PUSH1 0x60 ADD MSTORE JUMP JUMPDEST DUP1 PUSH32 0x22CE3EDD00000000000000000000000000000000000000000000000000000000 PUSH1 0x4 SWAP3 MSTORE REVERT JUMPDEST PUSH1 0x40 MLOAD SWAP1 PUSH2 0xA18 PUSH1 0x40 DUP4 PUSH2 0x19E JUMP JUMPDEST PUSH1 0x10 DUP3 MSTORE PUSH32 0x3031323334353637383961626364656600000000000000000000000000000000 PUSH1 0x20 DUP4 ADD MSTORE JUMP JUMPDEST PUSH1 0x40 MLOAD PUSH1 0x60 SWAP2 SWAP1 PUSH2 0xA55 DUP4 DUP3 PUSH2 0x19E JUMP JUMPDEST PUSH1 0x2A DUP2 MSTORE SWAP2 PUSH1 0x1F NOT ADD CALLDATASIZE PUSH1 0x20 DUP5 ADD CALLDATACOPY JUMP JUMPDEST SWAP1 PUSH2 0xA70 DUP3 PUSH2 0x1C0 JUMP JUMPDEST PUSH2 0xA7D PUSH1 0x40 MLOAD SWAP2 DUP3 PUSH2 0x19E JUMP JUMPDEST DUP3 DUP2 MSTORE DUP1 SWAP3 PUSH2 0xA8E PUSH1 0x1F NOT SWAP2 PUSH2 0x1C0 JUMP JUMPDEST ADD SWAP1 PUSH1 0x20 CALLDATASIZE SWAP2 ADD CALLDATACOPY JUMP JUMPDEST DUP1 MLOAD PUSH1 0x1 LT ISZERO PUSH2 0x611 JUMPI PUSH1 0x21 ADD SWAP1 JUMP JUMPDEST SWAP1 DUP2 MLOAD DUP2 LT ISZERO PUSH2 0x611 JUMPI ADD PUSH1 0x20 ADD SWAP1 JUMP JUMPDEST PUSH4 0x4E487B71 PUSH1 0xE0 SHL PUSH1 0x0 MSTORE PUSH1 0x11 PUSH1 0x4 MSTORE PUSH1 0x24 PUSH1 0x0 REVERT JUMPDEST SWAP1 DUP2 PUSH1 0x1 SHL SWAP2 DUP1 DUP4 DIV PUSH1 0x2 EQ SWAP1 ISZERO OR ISZERO PUSH2 0xAE5 JUMPI JUMP JUMPDEST PUSH2 0xAB9 JUMP JUMPDEST PUSH1 0x2 ADD SWAP1 DUP2 PUSH1 0x2 GT PUSH2 0xAE5 JUMPI JUMP JUMPDEST PUSH1 0x3 ADD SWAP1 DUP2 PUSH1 0x3 GT PUSH2 0xAE5 JUMPI JUMP JUMPDEST PUSH1 0x30 ADD SWAP1 DUP2 PUSH1 0x30 GT PUSH2 0xAE5 JUMPI JUMP JUMPDEST SWAP1 PUSH1 0x20 DUP3 ADD DUP1 SWAP3 GT PUSH2 0xAE5 JUMPI JUMP JUMPDEST SWAP2 SWAP1 DUP3 ADD DUP1 SWAP3 GT PUSH2 0xAE5 JUMPI JUMP JUMPDEST PUSH2 0xB37 PUSH2 0xA09 JUMP JUMPDEST SWAP1 PUSH1 0x60 SHL PUSH12 0xFFFFFFFFFFFFFFFFFFFFFFFF NOT AND PUSH2 0xB52 PUSH2 0xA44 JUMP JUMPDEST SWAP2 PUSH1 0x30 PUSH2 0xB5E DUP5 PUSH2 0x604 JUMP JUMPDEST MSTORE8 PUSH1 0x78 PUSH2 0xB6A DUP5 PUSH2 0xA98 JUMP JUMPDEST MSTORE8 PUSH1 0x0 JUMPDEST PUSH1 0x14 DUP2 LT PUSH2 0xB7C JUMPI POP POP POP SWAP1 JUMP JUMPDEST PUSH1 0x1 SWAP1 PUSH2 0xBF2 PUSH2 0xBA5 PUSH1 0xF DUP7 DUP5 BYTE PUSH2 0xBCB DUP4 PUSH2 0xB9F PUSH1 0x4 DUP5 SWAP1 SHR DUP6 AND JUMPDEST PUSH1 0xFF AND SWAP1 JUMP JUMPDEST DUP10 PUSH2 0xAA8 JUMP JUMPDEST MLOAD PUSH32 0xFF00000000000000000000000000000000000000000000000000000000000000 AND SWAP1 JUMP JUMPDEST PUSH2 0xBEA PUSH2 0xBDF PUSH2 0xBDA DUP9 PUSH2 0xACF JUMP JUMPDEST PUSH2 0xAEA JUMP JUMPDEST SWAP2 PUSH1 0x0 BYTE SWAP2 DUP12 PUSH2 0xAA8 JUMP JUMPDEST MSTORE8 AND DUP6 PUSH2 0xAA8 JUMP JUMPDEST PUSH2 0xC11 PUSH2 0xC06 PUSH2 0xC01 DUP5 PUSH2 0xACF JUMP JUMPDEST PUSH2 0xAF8 JUMP JUMPDEST SWAP2 PUSH1 0x0 BYTE SWAP2 DUP8 PUSH2 0xAA8 JUMP JUMPDEST MSTORE8 ADD PUSH2 0xB6E JUMP JUMPDEST PUSH1 0x0 NOT DUP2 EQ PUSH2 0xAE5 JUMPI PUSH1 0x1 ADD SWAP1 JUMP JUMPDEST PUSH1 0x0 NOT DUP2 ADD SWAP2 SWAP1 DUP3 GT PUSH2 0xAE5 JUMPI JUMP JUMPDEST PUSH1 0x1F NOT DUP2 ADD SWAP2 SWAP1 DUP3 GT PUSH2 0xAE5 JUMPI JUMP JUMPDEST SWAP1 DUP2 ISZERO PUSH2 0xCEE JUMPI PUSH1 0x0 DUP3 DUP1 JUMPDEST PUSH2 0xCCF JUMPI POP DUP1 PUSH2 0xC61 DUP5 SWAP3 PUSH2 0xA66 JUMP JUMPDEST SWAP2 JUMPDEST PUSH2 0xC6C JUMPI POP SWAP2 POP JUMP JUMPDEST PUSH2 0xC78 PUSH2 0xCC8 SWAP2 PUSH2 0xC27 JUMP JUMPDEST SWAP4 PUSH2 0xCB3 PUSH2 0xC8B PUSH2 0xB99 PUSH1 0xA DUP5 MOD PUSH2 0xB06 JUMP JUMPDEST PUSH1 0xF8 SHL PUSH32 0xFF00000000000000000000000000000000000000000000000000000000000000 AND SWAP1 JUMP JUMPDEST PUSH1 0x0 BYTE PUSH2 0xCC0 DUP7 DUP6 PUSH2 0xAA8 JUMP JUMPDEST MSTORE8 PUSH1 0xA SWAP1 DIV SWAP1 JUMP JUMPDEST SWAP3 DUP4 PUSH2 0xC63 JUMP JUMPDEST SWAP3 SWAP1 PUSH2 0xCDD PUSH2 0xCE5 SWAP2 PUSH2 0xC18 JUMP JUMPDEST SWAP4 PUSH1 0xA SWAP1 DIV SWAP1 JUMP JUMPDEST DUP1 SWAP4 SWAP2 SWAP4 PUSH2 0xC51 JUMP JUMPDEST SWAP1 POP PUSH1 0x40 MLOAD PUSH2 0xCFE PUSH1 0x40 DUP3 PUSH2 0x19E JUMP JUMPDEST PUSH1 0x1 DUP2 MSTORE PUSH32 0x3000000000000000000000000000000000000000000000000000000000000000 PUSH1 0x20 DUP3 ADD MSTORE SWAP1 JUMP JUMPDEST DUP2 MLOAD ISZERO PUSH2 0xD38 JUMPI PUSH1 0xA0 ADD MSTORE JUMP JUMPDEST PUSH32 0xFE936CB700000000000000000000000000000000000000000000000000000000 PUSH1 0x0 MSTORE PUSH1 0x4 PUSH1 0x0 REVERT JUMPDEST PUSH1 0x40 MLOAD SWAP1 PUSH2 0xD71 PUSH1 0x40 DUP4 PUSH2 0x19E JUMP JUMPDEST PUSH1 0xC DUP3 MSTORE PUSH32 0x636F64654C6F636174696F6E0000000000000000000000000000000000000000 PUSH1 0x20 DUP4 ADD MSTORE JUMP JUMPDEST PUSH1 0x40 MLOAD SWAP1 PUSH2 0xDAC PUSH1 0x40 DUP4 PUSH2 0x19E JUMP JUMPDEST PUSH1 0x8 DUP3 MSTORE PUSH32 0x6C616E6775616765000000000000000000000000000000000000000000000000 PUSH1 0x20 DUP4 ADD MSTORE JUMP JUMPDEST PUSH1 0x40 MLOAD SWAP1 PUSH2 0xDE7 PUSH1 0x40 DUP4 PUSH2 0x19E JUMP JUMPDEST PUSH1 0x6 DUP3 MSTORE PUSH32 0x736F757263650000000000000000000000000000000000000000000000000000 PUSH1 0x20 DUP4 ADD MSTORE JUMP JUMPDEST PUSH1 0x40 MLOAD SWAP1 PUSH2 0xE22 PUSH1 0x40 DUP4 PUSH2 0x19E JUMP JUMPDEST PUSH1 0x4 DUP3 MSTORE PUSH32 0x6172677300000000000000000000000000000000000000000000000000000000 PUSH1 0x20 DUP4 ADD MSTORE JUMP JUMPDEST PUSH1 0x40 MLOAD SWAP1 PUSH2 0xE5D PUSH1 0x40 DUP4 PUSH2 0x19E JUMP JUMPDEST PUSH1 0xF DUP3 MSTORE PUSH32 0x736563726574734C6F636174696F6E0000000000000000000000000000000000 PUSH1 0x20 DUP4 ADD MSTORE JUMP JUMPDEST PUSH1 0x40 MLOAD SWAP1 PUSH2 0xE98 PUSH1 0x40 DUP4 PUSH2 0x19E JUMP JUMPDEST PUSH1 0x7 DUP3 MSTORE PUSH32 0x7365637265747300000000000000000000000000000000000000000000000000 PUSH1 0x20 DUP4 ADD MSTORE JUMP JUMPDEST PUSH1 0x40 MLOAD SWAP1 PUSH2 0xED3 PUSH1 0x40 DUP4 PUSH2 0x19E JUMP JUMPDEST PUSH1 0x9 DUP3 MSTORE PUSH32 0x6279746573417267730000000000000000000000000000000000000000000000 PUSH1 0x20 DUP4 ADD MSTORE JUMP JUMPDEST PUSH2 0xF07 PUSH2 0x1212 JUMP JUMPDEST SWAP1 PUSH2 0xF19 PUSH2 0xF13 PUSH2 0xD62 JUMP JUMPDEST DUP4 PUSH2 0x1243 JUMP JUMPDEST PUSH2 0xF36 DUP2 MLOAD PUSH2 0xF27 DUP2 PUSH2 0x650 JUMP JUMPDEST PUSH2 0xF30 DUP2 PUSH2 0x650 JUMP JUMPDEST DUP4 PUSH2 0x132B JUMP JUMPDEST PUSH2 0xF41 PUSH2 0xF13 PUSH2 0xD9D JUMP JUMPDEST PUSH2 0xF5B PUSH1 0x40 DUP3 ADD MLOAD PUSH2 0xF52 DUP2 PUSH2 0x9BD JUMP JUMPDEST PUSH2 0xF30 DUP2 PUSH2 0x9BD JUMP JUMPDEST PUSH2 0xF66 PUSH2 0xF13 PUSH2 0xDD8 JUMP JUMPDEST PUSH2 0xF74 PUSH1 0x60 DUP3 ADD MLOAD DUP4 PUSH2 0x1243 JUMP JUMPDEST PUSH1 0xA0 DUP2 ADD DUP1 MLOAD MLOAD PUSH2 0x108C JUMPI JUMPDEST POP PUSH1 0x80 DUP2 ADD SWAP1 DUP2 MLOAD MLOAD PUSH2 0xFF4 JUMPI JUMPDEST PUSH1 0xC0 SWAP2 POP ADD DUP1 MLOAD MLOAD PUSH2 0xFA1 JUMPI JUMPDEST POP MLOAD MLOAD SWAP1 JUMP JUMPDEST SWAP2 PUSH2 0xFAD PUSH2 0xF13 PUSH2 0xEC4 JUMP JUMPDEST PUSH2 0xFB6 DUP3 PUSH2 0x1358 JUMP JUMPDEST PUSH1 0x0 JUMPDEST DUP4 MLOAD DUP1 MLOAD DUP3 LT ISZERO PUSH2 0xFE1 JUMPI SWAP1 PUSH2 0xFDB PUSH2 0xFD4 DUP3 PUSH1 0x1 SWAP5 PUSH2 0x626 JUMP JUMPDEST MLOAD DUP6 PUSH2 0x139D JUMP JUMPDEST ADD PUSH2 0xFB9 JUMP JUMPDEST POP POP SWAP2 POP PUSH2 0xFEE DUP2 PUSH2 0x137A JUMP JUMPDEST CODESIZE PUSH2 0xF9B JUMP JUMPDEST PUSH1 0x20 DUP2 ADD DUP1 MLOAD PUSH2 0x1003 DUP2 PUSH2 0x650 JUMP JUMPDEST PUSH2 0x100C DUP2 PUSH2 0x650 JUMP JUMPDEST ISZERO PUSH2 0x1062 JUMPI PUSH1 0xC0 SWAP3 PUSH2 0x1045 PUSH2 0x105D SWAP3 PUSH2 0x102C PUSH2 0x1026 PUSH2 0xE4E JUMP JUMPDEST DUP9 PUSH2 0x1243 JUMP JUMPDEST MLOAD PUSH2 0x1036 DUP2 PUSH2 0x650 JUMP JUMPDEST PUSH2 0x103F DUP2 PUSH2 0x650 JUMP JUMPDEST DUP7 PUSH2 0x132B JUMP JUMPDEST PUSH2 0x1056 PUSH2 0x1050 PUSH2 0xE89 JUMP JUMPDEST DUP7 PUSH2 0x1243 JUMP JUMPDEST MLOAD DUP5 PUSH2 0x139D JUMP JUMPDEST PUSH2 0xF8E JUMP JUMPDEST PUSH32 0xA80D31F700000000000000000000000000000000000000000000000000000000 PUSH1 0x0 MSTORE PUSH1 0x4 PUSH1 0x0 REVERT JUMPDEST SWAP3 PUSH2 0x109E PUSH2 0x1098 PUSH2 0xE13 JUMP JUMPDEST DUP5 PUSH2 0x1243 JUMP JUMPDEST PUSH2 0x10A7 DUP4 PUSH2 0x1358 JUMP JUMPDEST PUSH1 0x0 JUMPDEST DUP5 MLOAD DUP1 MLOAD DUP3 LT ISZERO PUSH2 0x10D2 JUMPI SWAP1 PUSH2 0x10CC PUSH2 0x10C5 DUP3 PUSH1 0x1 SWAP5 PUSH2 0x626 JUMP JUMPDEST MLOAD DUP7 PUSH2 0x1243 JUMP JUMPDEST ADD PUSH2 0x10AA JUMP JUMPDEST POP POP SWAP3 POP PUSH2 0x10DF DUP3 PUSH2 0x137A JUMP JUMPDEST CODESIZE PUSH2 0xF80 JUMP JUMPDEST SWAP1 DUP2 PUSH1 0x20 SWAP2 SUB SLT PUSH2 0x146 JUMPI MLOAD SWAP1 JUMP JUMPDEST SWAP3 SWAP1 PUSH1 0x20 SWAP3 PUSH8 0xFFFFFFFFFFFFFFFF SWAP3 PUSH4 0xFFFFFFFF PUSH2 0x114D PUSH1 0x40 MLOAD SWAP8 DUP9 SWAP7 DUP8 SWAP7 PUSH32 0x461D276200000000000000000000000000000000000000000000000000000000 DUP9 MSTORE AND PUSH1 0x4 DUP8 ADD MSTORE PUSH1 0xA0 PUSH1 0x24 DUP8 ADD MSTORE PUSH1 0xA4 DUP7 ADD SWAP1 PUSH2 0x677 JUMP JUMPDEST SWAP3 PUSH1 0x1 PUSH1 0x44 DUP7 ADD MSTORE AND PUSH1 0x64 DUP5 ADD MSTORE PUSH1 0x84 DUP4 ADD MSTORE SUB DUP2 PUSH1 0x0 PUSH1 0x1 PUSH1 0x1 PUSH1 0xA0 SHL SUB PUSH32 0x0 AND GAS CALL SWAP1 DUP2 ISZERO PUSH2 0x80A JUMPI PUSH1 0x0 SWAP2 PUSH2 0x11C9 JUMPI JUMPDEST POP DUP1 PUSH32 0x1131472297A800FEE664D1D89CFA8F7676FF07189ECC53F80BBB5F4969099DB8 PUSH1 0x0 DUP1 LOG2 SWAP1 JUMP JUMPDEST PUSH2 0x11EB SWAP2 POP PUSH1 0x20 RETURNDATASIZE PUSH1 0x20 GT PUSH2 0x11F1 JUMPI JUMPDEST PUSH2 0x11E3 DUP2 DUP4 PUSH2 0x19E JUMP JUMPDEST DUP2 ADD SWAP1 PUSH2 0x10E5 JUMP JUMPDEST CODESIZE PUSH2 0x119F JUMP JUMPDEST POP RETURNDATASIZE PUSH2 0x11D9 JUMP JUMPDEST PUSH1 0x40 MLOAD SWAP1 PUSH2 0x1205 DUP3 PUSH2 0x182 JUMP JUMPDEST PUSH1 0x0 PUSH1 0x20 DUP4 PUSH1 0x60 DUP2 MSTORE ADD MSTORE JUMP JUMPDEST PUSH1 0x40 MLOAD PUSH2 0x121E DUP2 PUSH2 0x182 JUMP JUMPDEST PUSH1 0x0 PUSH2 0x1228 PUSH2 0x11F8 JUMP JUMPDEST DUP1 DUP4 MSTORE PUSH2 0x123E PUSH2 0x100 PUSH1 0x20 DUP6 ADD SWAP3 DUP5 DUP5 MSTORE PUSH2 0x1437 JUMP JUMPDEST POP MSTORE SWAP1 JUMP JUMPDEST DUP2 MLOAD PUSH2 0x1293 SWAP3 SWAP2 SWAP1 PUSH8 0xFFFFFFFFFFFFFFFF AND PUSH1 0x17 DUP2 GT PUSH2 0x1296 JUMPI DUP2 MLOAD PUSH2 0x127E SWAP2 PUSH2 0x1278 SWAP1 PUSH2 0x1271 PUSH1 0x60 PUSH2 0xB99 JUMP JUMPDEST OR PUSH1 0xFF AND SWAP1 JUMP JUMPDEST SWAP1 PUSH2 0x15B9 JUMP JUMPDEST POP JUMPDEST MLOAD SWAP1 PUSH2 0x128A PUSH2 0x11F8 JUMP JUMPDEST POP DUP1 MLOAD SWAP2 PUSH2 0x1823 JUMP JUMPDEST POP JUMP JUMPDEST PUSH1 0xFF DUP2 GT PUSH2 0x12C3 JUMPI DUP2 MLOAD PUSH2 0x12BD SWAP2 SWAP1 PUSH2 0x12B5 SWAP1 PUSH1 0x18 PUSH1 0x60 JUMPDEST OR SWAP1 PUSH2 0x15B9 JUMP JUMPDEST POP DUP3 MLOAD PUSH2 0x17A3 JUMP JUMPDEST POP PUSH2 0x1280 JUMP JUMPDEST PUSH2 0xFFFF DUP2 GT PUSH2 0x12E8 JUMPI DUP2 MLOAD PUSH2 0x12BD SWAP2 SWAP1 PUSH2 0x12E0 SWAP1 PUSH1 0x19 PUSH1 0x60 PUSH2 0x12AE JUMP JUMPDEST POP DUP3 MLOAD PUSH2 0x172A JUMP JUMPDEST PUSH4 0xFFFFFFFF DUP2 GT PUSH2 0x130F JUMPI DUP2 MLOAD PUSH2 0x12BD SWAP2 SWAP1 PUSH2 0x1307 SWAP1 PUSH1 0x1A PUSH1 0x60 PUSH2 0x12AE JUMP JUMPDEST POP DUP3 MLOAD PUSH2 0x16B1 JUMP JUMPDEST DUP2 MLOAD PUSH2 0x12BD SWAP2 SWAP1 PUSH2 0x1323 SWAP1 PUSH1 0x1B PUSH1 0x60 PUSH2 0x12AE JUMP JUMPDEST POP DUP3 MLOAD PUSH2 0x1633 JUMP JUMPDEST SWAP1 PUSH2 0x524 SWAP2 PUSH2 0x133A DUP2 MLOAD PUSH2 0x1549 JUMP JUMPDEST POP PUSH1 0x40 MLOAD SWAP2 PUSH1 0x20 DUP4 ADD MSTORE PUSH1 0x20 DUP3 MSTORE PUSH2 0x1353 PUSH1 0x40 DUP4 PUSH2 0x19E JUMP JUMPDEST PUSH2 0x139D JUMP JUMPDEST PUSH1 0x20 SWAP1 PUSH2 0x1367 PUSH1 0x9F DUP3 MLOAD PUSH2 0x15B9 JUMP JUMPDEST POP ADD DUP1 MLOAD SWAP1 PUSH1 0x1 DUP3 ADD DUP1 SWAP3 GT PUSH2 0xAE5 JUMPI MSTORE JUMP JUMPDEST PUSH1 0x20 SWAP1 PUSH2 0x1389 PUSH1 0xFF DUP3 MLOAD PUSH2 0x15B9 JUMP JUMPDEST POP ADD DUP1 MLOAD PUSH1 0x0 NOT DUP2 ADD SWAP2 SWAP1 DUP3 GT PUSH2 0xAE5 JUMPI MSTORE JUMP JUMPDEST DUP2 MLOAD PUSH2 0x1293 SWAP3 SWAP2 SWAP1 PUSH8 0xFFFFFFFFFFFFFFFF AND PUSH1 0x17 DUP2 GT PUSH2 0x13CB JUMPI DUP2 MLOAD PUSH2 0x127E SWAP2 PUSH2 0x1278 SWAP1 PUSH2 0x1271 PUSH1 0x40 PUSH2 0xB99 JUMP JUMPDEST PUSH1 0xFF DUP2 GT PUSH2 0x13E7 JUMPI DUP2 MLOAD PUSH2 0x12BD SWAP2 SWAP1 PUSH2 0x12B5 SWAP1 PUSH1 0x18 PUSH1 0x40 PUSH2 0x12AE JUMP JUMPDEST PUSH2 0xFFFF DUP2 GT PUSH2 0x1404 JUMPI DUP2 MLOAD PUSH2 0x12BD SWAP2 SWAP1 PUSH2 0x12E0 SWAP1 PUSH1 0x19 PUSH1 0x40 PUSH2 0x12AE JUMP JUMPDEST PUSH4 0xFFFFFFFF DUP2 GT PUSH2 0x1423 JUMPI DUP2 MLOAD PUSH2 0x12BD SWAP2 SWAP1 PUSH2 0x1307 SWAP1 PUSH1 0x1A PUSH1 0x40 PUSH2 0x12AE JUMP JUMPDEST DUP2 MLOAD PUSH2 0x12BD SWAP2 SWAP1 PUSH2 0x1323 SWAP1 PUSH1 0x1B PUSH1 0x40 PUSH2 0x12AE JUMP JUMPDEST SWAP1 PUSH2 0x1440 PUSH2 0x11F8 JUMP JUMPDEST POP PUSH1 0x1F DUP2 AND DUP1 PUSH2 0x146F JUMPI JUMPDEST POP DUP1 PUSH1 0x20 DUP4 ADD MSTORE PUSH1 0x40 MLOAD SWAP1 DUP2 DUP4 MSTORE PUSH1 0x0 DUP3 MSTORE DUP2 ADD PUSH1 0x20 ADD SWAP1 DUP2 LT PUSH2 0x146 JUMPI PUSH1 0x40 MSTORE SWAP1 JUMP JUMPDEST PUSH1 0x20 SUB PUSH1 0x20 DUP2 GT PUSH2 0xAE5 JUMPI DUP2 ADD DUP1 SWAP2 GT PUSH2 0xAE5 JUMPI CODESIZE PUSH2 0x144B JUMP JUMPDEST SWAP1 PUSH2 0x1492 PUSH2 0x11F8 JUMP JUMPDEST POP DUP1 MLOAD PUSH2 0x149D PUSH2 0x11F8 JUMP JUMPDEST POP PUSH2 0x14AB DUP3 MLOAD DUP3 GT ISZERO PUSH2 0x181C JUMP JUMPDEST DUP3 MLOAD MLOAD SWAP2 PUSH2 0x14B9 DUP3 DUP5 PUSH2 0xB22 JUMP JUMPDEST SWAP1 PUSH1 0x20 DUP6 ADD MLOAD DUP3 GT PUSH2 0x1532 JUMPI JUMPDEST PUSH1 0x20 SWAP2 DUP6 MLOAD DUP4 DUP2 MLOAD SWAP7 DUP3 ADD ADD SWAP6 DUP3 GT PUSH2 0x152A JUMPI JUMPDEST POP POP ADD SWAP1 JUMPDEST PUSH1 0x20 DUP2 LT ISZERO PUSH2 0x1504 JUMPI PUSH1 0x0 NOT SWAP1 PUSH1 0x20 SUB PUSH2 0x100 EXP ADD SWAP1 DUP2 NOT SWAP1 MLOAD AND SWAP1 DUP3 MLOAD AND OR SWAP1 MSTORE SWAP1 JUMP JUMPDEST SWAP1 SWAP2 PUSH2 0x151F PUSH2 0x1519 PUSH2 0x1525 SWAP3 DUP6 MLOAD DUP2 MSTORE PUSH2 0xB14 JUMP JUMPDEST SWAP4 PUSH2 0xB14 JUMP JUMPDEST SWAP2 PUSH2 0xC36 JUMP JUMPDEST PUSH2 0x14DF JUMP JUMPDEST MSTORE CODESIZE DUP1 PUSH2 0x14DA JUMP JUMPDEST PUSH2 0x1544 PUSH2 0x153E DUP4 PUSH2 0xACF JUMP JUMPDEST DUP7 PUSH2 0x18C9 JUMP JUMPDEST PUSH2 0x14C6 JUMP JUMPDEST PUSH2 0x1551 PUSH2 0x11F8 JUMP JUMPDEST POP DUP1 MLOAD MLOAD PUSH1 0x1 DUP2 ADD SWAP1 DUP2 DUP2 GT PUSH2 0xAE5 JUMPI PUSH1 0x20 DUP4 ADD MLOAD DUP2 LT ISZERO PUSH2 0x158A JUMPI JUMPDEST PUSH1 0xC2 PUSH1 0x20 DUP5 MLOAD SWAP3 DUP4 ADD ADD MSTORE8 DUP1 MLOAD DUP3 GT PUSH2 0x1586 JUMPI POP POP SWAP1 JUMP JUMPDEST MSTORE SWAP1 JUMP JUMPDEST DUP2 PUSH1 0x1 SHL DUP3 DUP2 DIV PUSH1 0x2 EQ DUP4 ISZERO OR ISZERO PUSH2 0xAE5 JUMPI PUSH2 0x15B3 SWAP1 PUSH2 0x15AC DUP6 MLOAD SWAP2 DUP7 PUSH2 0x1437 JUMP JUMPDEST POP DUP5 PUSH2 0x1489 JUMP JUMPDEST POP PUSH2 0x156E JUMP JUMPDEST SWAP1 PUSH2 0x15C2 PUSH2 0x11F8 JUMP JUMPDEST POP DUP2 MLOAD MLOAD PUSH1 0x1 DUP2 ADD SWAP2 DUP3 DUP3 GT PUSH2 0xAE5 JUMPI PUSH1 0x20 DUP5 ADD MLOAD DUP3 LT ISZERO PUSH2 0x15F5 JUMPI JUMPDEST PUSH1 0x20 DUP5 MLOAD SWAP3 DUP4 ADD ADD MSTORE8 DUP1 MLOAD DUP3 GT PUSH2 0x1586 JUMPI POP POP SWAP1 JUMP JUMPDEST DUP3 PUSH1 0x1 SHL DUP4 DUP2 DIV PUSH1 0x2 EQ DUP5 ISZERO OR ISZERO PUSH2 0xAE5 JUMPI PUSH2 0x161E SWAP1 PUSH2 0x1617 DUP7 MLOAD SWAP2 DUP8 PUSH2 0x1437 JUMP JUMPDEST POP DUP6 PUSH2 0x1489 JUMP JUMPDEST POP PUSH2 0x15DF JUMP JUMPDEST PUSH1 0x1F DUP2 GT PUSH2 0xAE5 JUMPI PUSH2 0x100 EXP SWAP1 JUMP JUMPDEST SWAP1 PUSH2 0x163C PUSH2 0x11F8 JUMP JUMPDEST POP DUP2 MLOAD MLOAD DUP1 PUSH1 0x8 ADD SWAP2 DUP3 PUSH1 0x8 GT PUSH2 0xAE5 JUMPI PUSH1 0x20 DUP5 ADD MLOAD DUP4 GT PUSH2 0x1689 JUMPI JUMPDEST PUSH2 0x166B PUSH2 0x1666 PUSH1 0x8 PUSH2 0x1624 JUMP JUMPDEST PUSH2 0xC27 JUMP JUMPDEST SWAP1 PUSH1 0x8 DUP6 MLOAD SWAP4 DUP5 ADD ADD SWAP2 NOT DUP3 MLOAD AND OR SWAP1 MSTORE DUP1 MLOAD DUP3 GT PUSH2 0x1586 JUMPI POP POP SWAP1 JUMP JUMPDEST DUP3 PUSH1 0x1 SHL DUP4 DUP2 DIV PUSH1 0x2 EQ DUP5 ISZERO OR ISZERO PUSH2 0xAE5 JUMPI PUSH2 0x16AB SWAP1 PUSH2 0x1617 DUP7 MLOAD SWAP2 DUP8 PUSH2 0x1437 JUMP JUMPDEST POP PUSH2 0x1659 JUMP JUMPDEST SWAP1 PUSH2 0x16BA PUSH2 0x11F8 JUMP JUMPDEST POP DUP2 MLOAD MLOAD DUP1 PUSH1 0x4 ADD SWAP2 DUP3 PUSH1 0x4 GT PUSH2 0xAE5 JUMPI PUSH1 0x20 DUP5 ADD MLOAD DUP4 GT PUSH2 0x1702 JUMPI JUMPDEST PUSH2 0x16E4 PUSH2 0x1666 PUSH1 0x4 PUSH2 0x1624 JUMP JUMPDEST SWAP1 PUSH1 0x4 DUP6 MLOAD SWAP4 DUP5 ADD ADD SWAP2 NOT DUP3 MLOAD AND OR SWAP1 MSTORE DUP1 MLOAD DUP3 GT PUSH2 0x1586 JUMPI POP POP SWAP1 JUMP JUMPDEST DUP3 PUSH1 0x1 SHL DUP4 DUP2 DIV PUSH1 0x2 EQ DUP5 ISZERO OR ISZERO PUSH2 0xAE5 JUMPI PUSH2 0x1724 SWAP1 PUSH2 0x1617 DUP7 MLOAD SWAP2 DUP8 PUSH2 0x1437 JUMP JUMPDEST POP PUSH2 0x16D7 JUMP JUMPDEST SWAP1 PUSH2 0x1733 PUSH2 0x11F8 JUMP JUMPDEST POP DUP2 MLOAD MLOAD DUP1 PUSH1 0x2 ADD SWAP2 DUP3 PUSH1 0x2 GT PUSH2 0xAE5 JUMPI PUSH1 0x20 DUP5 ADD MLOAD DUP4 GT PUSH2 0x177B JUMPI JUMPDEST PUSH2 0x175D PUSH2 0x1666 PUSH1 0x2 PUSH2 0x1624 JUMP JUMPDEST SWAP1 PUSH1 0x2 DUP6 MLOAD SWAP4 DUP5 ADD ADD SWAP2 NOT DUP3 MLOAD AND OR SWAP1 MSTORE DUP1 MLOAD DUP3 GT PUSH2 0x1586 JUMPI POP POP SWAP1 JUMP JUMPDEST DUP3 PUSH1 0x1 SHL DUP4 DUP2 DIV PUSH1 0x2 EQ DUP5 ISZERO OR ISZERO PUSH2 0xAE5 JUMPI PUSH2 0x179D SWAP1 PUSH2 0x1617 DUP7 MLOAD SWAP2 DUP8 PUSH2 0x1437 JUMP JUMPDEST POP PUSH2 0x1750 JUMP JUMPDEST SWAP1 PUSH2 0x17AC PUSH2 0x11F8 JUMP JUMPDEST POP DUP2 MLOAD MLOAD DUP1 PUSH1 0x1 ADD SWAP2 DUP3 PUSH1 0x1 GT PUSH2 0xAE5 JUMPI PUSH1 0x20 DUP5 ADD MLOAD DUP4 GT PUSH2 0x17F4 JUMPI JUMPDEST PUSH2 0x17D6 PUSH2 0x1666 PUSH1 0x1 PUSH2 0x1624 JUMP JUMPDEST SWAP1 PUSH1 0x1 DUP6 MLOAD SWAP4 DUP5 ADD ADD SWAP2 NOT DUP3 MLOAD AND OR SWAP1 MSTORE DUP1 MLOAD DUP3 GT PUSH2 0x1586 JUMPI POP POP SWAP1 JUMP JUMPDEST DUP3 PUSH1 0x1 SHL DUP4 DUP2 DIV PUSH1 0x2 EQ DUP5 ISZERO OR ISZERO PUSH2 0xAE5 JUMPI PUSH2 0x1816 SWAP1 PUSH2 0x1617 DUP7 MLOAD SWAP2 DUP8 PUSH2 0x1437 JUMP JUMPDEST POP PUSH2 0x17C9 JUMP JUMPDEST ISZERO PUSH2 0x146 JUMPI JUMP JUMPDEST SWAP2 PUSH2 0x182C PUSH2 0x11F8 JUMP JUMPDEST POP PUSH2 0x183A DUP3 MLOAD DUP3 GT ISZERO PUSH2 0x181C JUMP JUMPDEST PUSH1 0x20 DUP4 MLOAD MLOAD SWAP3 PUSH2 0x184A DUP4 DUP6 PUSH2 0xB22 JUMP JUMPDEST DUP3 DUP7 ADD MLOAD DUP2 GT PUSH2 0x18B2 JUMPI JUMPDEST DUP6 MLOAD DUP4 DUP2 MLOAD SWAP7 DUP3 ADD ADD SWAP6 DUP3 GT PUSH2 0x18AA JUMPI JUMPDEST POP POP ADD SWAP1 JUMPDEST PUSH1 0x20 DUP2 LT ISZERO PUSH2 0x1890 JUMPI PUSH1 0x0 NOT SWAP1 PUSH1 0x20 SUB PUSH2 0x100 EXP ADD SWAP1 DUP2 NOT SWAP1 MLOAD AND SWAP1 DUP3 MLOAD AND OR SWAP1 MSTORE SWAP1 JUMP JUMPDEST SWAP1 SWAP2 PUSH2 0x151F PUSH2 0x1519 PUSH2 0x18A5 SWAP3 DUP6 MLOAD DUP2 MSTORE PUSH2 0xB14 JUMP JUMPDEST PUSH2 0x186B JUMP JUMPDEST MSTORE CODESIZE DUP1 PUSH2 0x1866 JUMP JUMPDEST PUSH2 0x18C4 PUSH2 0x18BE DUP3 PUSH2 0xACF JUMP JUMPDEST DUP8 PUSH2 0x18C9 JUMP JUMPDEST PUSH2 0x1855 JUMP JUMPDEST SWAP1 PUSH2 0x1293 SWAP2 PUSH2 0x18DA DUP2 MLOAD SWAP3 DUP3 PUSH2 0x1437 JUMP JUMPDEST POP PUSH2 0x1489 JUMP INVALID LOG2 PUSH5 0x6970667358 0x22 SLT KECCAK256 0xBC DUP14 LOG1 SWAP12 0xE CODESIZE NOT SELFBALANCE LOG1 0xE0 0xB7 0xEB SDIV 0x4D XOR PUSH19 0x144F18C2E471F637D75CEFD186768B1264736F PUSH13 0x634300081C0033000000000000 "
        },
        "methodIdentifiers": {
          "handleOracleFulfillment(bytes32,bytes,bytes)": "0ca76175",
          "makeRequest(uint8,uint64,uint32)": "72642f2b",
          "owner()": "8da5cb5b",
          "renounceOwnership()": "715018a6",
          "transferOwnership(address)": "f2fde38b"
        }
      }
    }
  }
}