{
  "@chainlink/contracts/src/v0.8/functions/v1_0_0/libraries/FunctionsRequest.sol": {
    "FunctionsRequest": {
      "abi": [
        {
          "inputs": [],
          "name": "EmptyArgs",
          "type": "error"
        },
        {
          "inputs": [],
          "name": "EmptySecrets",
          "type": "error"
        },
        {
          "inputs": [],
          "name": "EmptySource",
          "type": "error"
        },
        {
          "inputs": [],
          "name": "NoInlineSecrets",
          "type": "error"
        },
        {
          "inputs": [],
          "name": "REQUEST_DATA_VERSION",
          "outputs": [
            {
              "internalType": "uint16",
              "name": "",
              "type": "uint16"
            }
          ],
          "stateMutability": "view",
          "type": "function"
        }
      ],
      "evm": {
        "bytecode": {
          "linkReferences": {},
          "object": "6080806040523460175760759081601d823930815050f35b600080fdfe6080806040526004361015601257600080fd5b60003560e01c635d641dfc14602657600080fd5b6000366003190112603a5780600160209252f35b600080fdfea26469706673582212207d2abcb66ebe6bae26b4230870b0b335271fe0ea786e94f75d2b260a16e8a89864736f6c634300081c0033",
          "opcodes": "PUSH1 0x80 DUP1 PUSH1 0x40 MSTORE CALLVALUE PUSH1 0x17 JUMPI PUSH1 0x75 SWAP1 DUP2 PUSH1 0x1D DUP3 CODECOPY ADDRESS DUP2 POP POP RETURN JUMPDEST PUSH1 0x0 DUP1 REVERT INVALID PUSH1 0x80 DUP1 PUSH1 0x40 MSTORE PUSH1 0x4 CALLDATASIZE LT ISZERO PUSH1 0x12 JUMPI PUSH1 0x0 DUP1 REVERT JUMPDEST PUSH1 0x0 CALLDATALOAD PUSH1 0xE0 SHR PUSH4 0x5D641DFC EQ PUSH1 0x26 JUMPI PUSH1 0x0 DUP1 REVERT JUMPDEST PUSH1 0x0 CALLDATASIZE PUSH1 0x3 NOT ADD SLT PUSH1 0x3A JUMPI DUP1 PUSH1 0x1 PUSH1 0x20 SWAP3 MSTORE RETURN JUMPDEST PUSH1 0x0 DUP1 REVERT INVALID LOG2 PUSH5 0x6970667358 0x22 SLT KECCAK256 PUSH30 0x2ABCB66EBE6BAE26B4230870B0B335271FE0EA786E94F75D2B260A16E8A8 SWAP9 PUSH5 0x736F6C6343 STOP ADDMOD SHR STOP CALLER "
        },
        "methodIdentifiers": {
          "REQUEST_DATA_VERSION()": "5d641dfc"
        }
      }
    }
  }
}