{
  "contracts/Agent.sol": {
    "Agent": {
      "abi": [
        {
          "inputs": [
            {
              "internalType": "uint256",
              "name": "feePerTask",
              "type": "uint256"
            },
            {
              "internalType": "address",
              "name": "feeCollector",
              "type": "address"
            },
            {
              "internalType": "contract IERC20",
              "name": "feeToken",
              "type": "address"
            },
            {
              "internalType": "contract IAddressesProvider",
              "name": "provider",
              "type": "address"
            }
          ],
          "stateMutability": "nonpayable",
          "type": "constructor"
        },
        {
          "inputs": [
            {
              "internalType": "address",
              "name": "owner",
              "type": "address"
            }
          ],
          "name": "OwnableInvalidOwner",
          "type": "error"
        },
        {
          "inputs": [
            {
              "internalType": "address",
              "name": "account",
              "type": "address"
            }
          ],
          "name": "OwnableUnauthorizedAccount",
          "type": "error"
        },
        {
          "anonymous": false,
          "inputs": [
            {
              "indexed": false,
              "internalType": "address",
              "name": "account",
              "type": "address"
            },
            {
              "indexed": false,
              "internalType": "enum Enums.ApprovalFlag",
              "name": "flag",
              "type": "uint8"
            }
          ],
          "name": "Approval",
          "type": "event"
        },
        {
          "anonymous": false,
          "inputs": [
            {
              "indexed": false,
              "internalType": "address",
              "name": "account",
              "type": "address"
            },
            {
              "indexed": false,
              "internalType": "address",
              "name": "agent",
              "type": "address"
            },
            {
              "indexed": false,
              "internalType": "bool",
              "name": "hasFunds",
              "type": "bool"
            }
          ],
          "name": "BeforeTask",
          "type": "event"
        },
        {
          "anonymous": false,
          "inputs": [
            {
              "indexed": true,
              "internalType": "address",
              "name": "previousOwner",
              "type": "address"
            },
            {
              "indexed": true,
              "internalType": "address",
              "name": "newOwner",
              "type": "address"
            }
          ],
          "name": "OwnershipTransferred",
          "type": "event"
        },
        {
          "inputs": [
            {
              "internalType": "bytes",
              "name": "response",
              "type": "bytes"
            }
          ],
          "name": "addStrategy",
          "outputs": [],
          "stateMutability": "nonpayable",
          "type": "function"
        },
        {
          "inputs": [
            {
              "internalType": "contract IAccount",
              "name": "account",
              "type": "address"
            }
          ],
          "name": "allowance",
          "outputs": [
            {
              "internalType": "enum Enums.ApprovalFlag",
              "name": "flag",
              "type": "uint8"
            }
          ],
          "stateMutability": "view",
          "type": "function"
        },
        {
          "inputs": [
            {
              "internalType": "enum Enums.ApprovalFlag",
              "name": "flag",
              "type": "uint8"
            }
          ],
          "name": "approve",
          "outputs": [],
          "stateMutability": "nonpayable",
          "type": "function"
        },
        {
          "inputs": [
            {
              "internalType": "contract IAccount",
              "name": "account",
              "type": "address"
            },
            {
              "internalType": "enum Enums.ApprovalFlag",
              "name": "flag",
              "type": "uint8"
            }
          ],
          "name": "checkApproval",
          "outputs": [],
          "stateMutability": "view",
          "type": "function"
        },
        {
          "inputs": [
            {
              "internalType": "contract IVault",
              "name": "vault",
              "type": "address"
            },
            {
              "internalType": "uint256",
              "name": "amountScaled",
              "type": "uint256"
            },
            {
              "internalType": "contract IAccount",
              "name": "account",
              "type": "address"
            }
          ],
          "name": "depositFromAccount",
          "outputs": [
            {
              "internalType": "uint256",
              "name": "lpMinted",
              "type": "uint256"
            }
          ],
          "stateMutability": "nonpayable",
          "type": "function"
        },
        {
          "inputs": [],
          "name": "getFeeToken",
          "outputs": [
            {
              "internalType": "contract IERC20",
              "name": "feeToken",
              "type": "address"
            }
          ],
          "stateMutability": "view",
          "type": "function"
        },
        {
          "inputs": [],
          "name": "owner",
          "outputs": [
            {
              "internalType": "address",
              "name": "",
              "type": "address"
            }
          ],
          "stateMutability": "view",
          "type": "function"
        },
        {
          "inputs": [
            {
              "internalType": "bytes",
              "name": "response",
              "type": "bytes"
            }
          ],
          "name": "reallocation",
          "outputs": [],
          "stateMutability": "nonpayable",
          "type": "function"
        },
        {
          "inputs": [
            {
              "internalType": "bytes",
              "name": "response",
              "type": "bytes"
            }
          ],
          "name": "removeStrategy",
          "outputs": [],
          "stateMutability": "nonpayable",
          "type": "function"
        },
        {
          "inputs": [],
          "name": "renounceOwnership",
          "outputs": [],
          "stateMutability": "nonpayable",
          "type": "function"
        },
        {
          "inputs": [
            {
              "internalType": "address",
              "name": "newOwner",
              "type": "address"
            }
          ],
          "name": "transferOwnership",
          "outputs": [],
          "stateMutability": "nonpayable",
          "type": "function"
        },
        {
          "inputs": [
            {
              "internalType": "enum Enums.TaskType",
              "name": "taskType",
              "type": "uint8"
            },
            {
              "internalType": "uint64",
              "name": "subscriptionId",
              "type": "uint64"
            },
            {
              "internalType": "uint32",
              "name": "gasLimit",
              "type": "uint32"
            }
          ],
          "name": "upKeep",
          "outputs": [
            {
              "internalType": "bytes32",
              "name": "requestId",
              "type": "bytes32"
            }
          ],
          "stateMutability": "nonpayable",
          "type": "function"
        },
        {
          "inputs": [
            {
              "internalType": "contract IVault",
              "name": "vault",
              "type": "address"
            },
            {
              "internalType": "contract IAccount",
              "name": "account",
              "type": "address"
            }
          ],
          "name": "withdrawAllToAccount",
          "outputs": [
            {
              "internalType": "uint256",
              "name": "amountScaled",
              "type": "uint256"
            }
          ],
          "stateMutability": "nonpayable",
          "type": "function"
        },
        {
          "inputs": [
            {
              "internalType": "contract IVault",
              "name": "vault",
              "type": "address"
            },
            {
              "internalType": "uint256",
              "name": "lpAmount",
              "type": "uint256"
            },
            {
              "internalType": "contract IAccount",
              "name": "account",
              "type": "address"
            }
          ],
          "name": "withdrawToAccount",
          "outputs": [
            {
              "internalType": "uint256",
              "name": "amountScaled",
              "type": "uint256"
            }
          ],
          "stateMutability": "nonpayable",
          "type": "function"
        }
      ],
      "evm": {
        "bytecode": {
          "linkReferences": {},
          "object": "60803461012a57601f6111e738819003918201601f19168301916001600160401b0383118484101761012f5780849260809460405283398101031261012a57805160208201516001600160a01b038116919082900361012a5760408301516001600160a01b038116939084900361012a57606001516001600160a01b0381169081900361012a5733156101145760008054336001600160a01b0319821681178355604051969290916001600160a01b0316907f8be0079c531659141344cd1fd0a4f28419497f9722a3daafe3b4186f6b6457e09080a360018060a01b0319600354161760035560018060a01b0319600454161760045560015560018060a01b031960025416176002556110a190816101468239f35b631e4fbdf760e01b600052600060045260246000fd5b600080fd5b634e487b7160e01b600052604160045260246000fdfe6080604052600436101561001257600080fd5b6000803560e01c80630ff199de14610b9a5780633e5beab914610b5857806347a471a114610a665780634a86e1a6146109d45780634b837649146108c2578063715018a61461085c5780638da5cb5b14610836578063ca709a251461080f578063e0ab4650146106fa578063e33b2dc2146105bb578063e76e8cad146104e6578063f2fde38b14610438578063f887cf001461026e5763fca0025d146100b757600080fd5b3461026b57602036600319011261026b57600435600481101561026957600460206001600160a01b03825416604051928380927f9068a8680000000000000000000000000000000000000000000000000000000082525afa908115610231576001600160a01b0391602091859161023c575b506024604051809481937ffbcbc0f1000000000000000000000000000000000000000000000000000000008352336004840152165afa9081156102315783916101cb575b507faf80aa5cc016b82830abf03e3110890fcd831f57410495acdf9cc3b3973129e9916101c76001600160a01b036040931691828652600560205283862060ff1981541660ff831617905583519283526020830190610c7a565ba180f35b90506020813d602011610229575b816101e660209383610c9d565b8101031261022557516001600160a01b0381168103610225577faf80aa5cc016b82830abf03e3110890fcd831f57410495acdf9cc3b3973129e961016d565b8280fd5b3d91506101d9565b6040513d85823e3d90fd5b61025c9150823d8411610262575b6102548183610c9d565b810190610d4e565b38610129565b503d61024a565b505b80fd5b503461026b57604036600319011261026b57610288610c2a565b602435906004821015610225576001600160a01b03168252600560205260ff604083205416600481101591826103d25781156103f45760018114806103e6575b83816103c1575b5061037d576002149182610357575b82610331575b50506102ed5780f35b606460405162461bcd60e51b815260206004820152601560248201527f5769746864726177206e6f7420617070726f76656400000000000000000000006044820152fd5b909150610343576003141538806102e4565b602482634e487b7160e01b81526021600452fd5b809250610369576002811415916102de565b602483634e487b7160e01b81526021600452fd5b606460405162461bcd60e51b815260206004820152601460248201527f4465706f736974206e6f7420617070726f7665640000000000000000000000006044820152fd5b90506103d2576003821415836102cf565b602484634e487b7160e01b81526021600452fd5b5083925060018214156102c8565b606460405162461bcd60e51b815260206004820152601160248201527f55736572206e6f7420617070726f7665640000000000000000000000000000006044820152fd5b503461026b57602036600319011261026b576004356001600160a01b03811680910361026957610466611029565b80156104ba576001600160a01b0382548273ffffffffffffffffffffffffffffffffffffffff198216178455167f8be0079c531659141344cd1fd0a4f28419497f9722a3daafe3b4186f6b6457e08380a380f35b6024827f1e4fbdf700000000000000000000000000000000000000000000000000000000815280600452fd5b503461026b5761055a9060206104fb36610c40565b919061050683610eb1565b846001600160a01b036040518098819682957fb76e07cc000000000000000000000000000000000000000000000000000000008452600484019092916001600160a01b036020916040840195845216910152565b0393165af19081156105af5790610577575b602090604051908152f35b506020813d6020116105a7575b8161059160209383610c9d565b810103126105a2576020905161056c565b600080fd5b3d9150610584565b604051903d90823e3d90fd5b503461026b57606036600319011261026b576004356003811015610269576024359067ffffffffffffffff8216809203610225576044359163ffffffff83168093036106f65760049160206001600160a01b0384541660405194858092630f63be0160e01b82525afa908582156105af576001600160a01b0360649360209683916106d9575b5060405197889687957f72642f2b000000000000000000000000000000000000000000000000000000008752600487015260248601526044850152165af19081156106ce578291610698575b602082604051908152f35b90506020813d6020116106c6575b816106b360209383610c9d565b810103126102695760209150513861068d565b3d91506106a6565b6040513d84823e3d90fd5b6106f09150873d8911610262576102548183610c9d565b38610641565b8380fd5b503461026b578061070a36610cd5565b600460206001600160a01b0382541660405192838092630f63be0160e01b82525afa90811561023157610750916001600160a01b039185916107f0575b50163314610d6d565b805181016040828203126107e85761076a60208301610db8565b9160408101519067ffffffffffffffff82116107ec57602061079992816001600160a01b039501920101610dcc565b9116803b156107e8576107c6839291839260405194858094819363ee6ce92560e01b835260048301610e77565b03925af180156106ce576107d75750f35b816107e191610c9d565b61026b5780f35b5050fd5b8480fd5b610809915060203d602011610262576102548183610c9d565b38610747565b503461026b578060031936011261026b5760206001600160a01b0360035416604051908152f35b503461026b578060031936011261026b576001600160a01b036020915416604051908152f35b503461026b578060031936011261026b57610875611029565b806001600160a01b03815473ffffffffffffffffffffffffffffffffffffffff1981168355167f8be0079c531659141344cd1fd0a4f28419497f9722a3daafe3b4186f6b6457e08280a380f35b503461026b57806108d236610cd5565b600460206001600160a01b0382541660405192838092630f63be0160e01b82525afa9182156102315761091b6001600160a01b03809461092a9487916107f05750163314610d6d565b60208082518301019101610e34565b9290911690813b156109cf576001600160a01b03604051917f223e5479000000000000000000000000000000000000000000000000000000008352166004820152838160248183865af19081156109c45784916109af575b5050803b156107e8576107c6839291839260405194858094819363ee6ce92560e01b835260048301610e77565b816109b991610c9d565b6107e8578238610982565b6040513d86823e3d90fd5b505050fd5b503461026b57604036600319011261026b576109ee610c2a565b6024356001600160a01b038116908181036106f657916024602092610a1b6001600160a01b039695610eb1565b8460405196879485937fc07e866e0000000000000000000000000000000000000000000000000000000085526004850152165af19081156105af579061057757602090604051908152f35b503461026b57610a7536610cd5565b600460206001600160a01b0382541660405192838092630f63be0160e01b82525afa908115610231579161091b6001600160a01b03610ac09386958297916107f05750163314610d6d565b9193909316803b15610225576001600160a01b03604051947f175188e8000000000000000000000000000000000000000000000000000000008652166004850152828460248183855af1801561023157610b43575b829350803b156107e8576107c6839291839260405194858094819363ee6ce92560e01b835260048301610e77565b91909281610b5091610c9d565b908290610b15565b503461026b57602036600319011261026b5760ff60406020926001600160a01b03610b81610c2a565b16815260058452205416610b986040518092610c7a565bf35b503461026b57610c0d6020610bae36610c40565b9190610bb983610eb1565b856001600160a01b036040518097819682957fa49b5cb4000000000000000000000000000000000000000000000000000000008452600484019092916001600160a01b036020916040840195845216910152565b0393165af19081156106ce57829161069857602082604051908152f35b600435906001600160a01b03821682036105a257565b60609060031901126105a2576004356001600160a01b03811681036105a25790602435906044356001600160a01b03811681036105a25790565b906004821015610c875752565b634e487b7160e01b600052602160045260246000fd5b90601f8019910116810190811067ffffffffffffffff821117610cbf57604052565b634e487b7160e01b600052604160045260246000fd5b60206003198201126105a25760043567ffffffffffffffff81116105a257816023820112156105a25780600401359067ffffffffffffffff8211610cbf5760405192610d2b601f8401601f191660200185610c9d565b828452602483830101116105a25781600092602460209301838601378301015290565b908160209103126105a257516001600160a01b03811681036105a25790565b15610d7457565b606460405162461bcd60e51b815260206004820152600e60248201527f4f6e6c792066756e6374696f6e730000000000000000000000000000000000006044820152fd5b51906001600160a01b03821682036105a257565b9080601f830112156105a25781519167ffffffffffffffff8311610cbf578260051b9060405193610e006020840186610c9d565b84526020808501928201019283116105a257602001905b828210610e245750505090565b8151815260209182019101610e17565b916060838303126105a257610e4883610db8565b92610e5560208201610db8565b92604082015167ffffffffffffffff81116105a257610e749201610dcc565b90565b602060408183019282815284518094520192019060005b818110610e9b5750505090565b8251845260209384019390920191600101610e8e565b6001600160a01b038060035416911690604051907f70a08231000000000000000000000000000000000000000000000000000000008252826004830152602082602481845afa918215610fe957600092610ff5575b50600154809210159182610f50575b50507f4b07b434919e25d56e2425b6a75582bf959a6da1da0d8f1d7e47c77267a35e6b916060916040519182523060208301526040820152a1565b60209060646001600160a01b0360025416600060405195869485937f23b872dd0000000000000000000000000000000000000000000000000000000085528a6004860152602485015260448401525af18015610fe957610fb1575b80610f15565b6020813d602011610fe1575b81610fca60209383610c9d565b810103126105a25751801515036105a25738610fab565b3d9150610fbd565b6040513d6000823e3d90fd5b9091506020813d602011611021575b8161101160209383610c9d565b810103126105a257519038610f06565b3d9150611004565b6001600160a01b0360005416330361103d57565b7f118cdaa7000000000000000000000000000000000000000000000000000000006000523360045260246000fdfea2646970667358221220bef303546b3df8ecc07f1410b065ece1271c1b2a3b33b5ab5a17837cdeab409964736f6c634300081c0033",
          "opcodes": "PUSH1 0x80 CALLVALUE PUSH2 0x12A JUMPI PUSH1 0x1F PUSH2 0x11E7 CODESIZE DUP2 SWAP1 SUB SWAP2 DUP3 ADD PUSH1 0x1F NOT AND DUP4 ADD SWAP2 PUSH1 0x1 PUSH1 0x1 PUSH1 0x40 SHL SUB DUP4 GT DUP5 DUP5 LT OR PUSH2 0x12F JUMPI DUP1 DUP5 SWAP3 PUSH1 0x80 SWAP5 PUSH1 0x40 MSTORE DUP4 CODECOPY DUP2 ADD SUB SLT PUSH2 0x12A JUMPI DUP1 MLOAD PUSH1 0x20 DUP3 ADD MLOAD PUSH1 0x1 PUSH1 0x1 PUSH1 0xA0 SHL SUB DUP2 AND SWAP2 SWAP1 DUP3 SWAP1 SUB PUSH2 0x12A JUMPI PUSH1 0x40 DUP4 ADD MLOAD PUSH1 0x1 PUSH1 0x1 PUSH1 0xA0 SHL SUB DUP2 AND SWAP4 SWAP1 DUP5 SWAP1 SUB PUSH2 0x12A JUMPI PUSH1 0x60 ADD MLOAD PUSH1 0x1 PUSH1 0x1 PUSH1 0xA0 SHL SUB DUP2 AND SWAP1 DUP2 SWAP1 SUB PUSH2 0x12A JUMPI CALLER ISZERO PUSH2 0x114 JUMPI PUSH1 0x0 DUP1 SLOAD CALLER PUSH1 0x1 PUSH1 0x1 PUSH1 0xA0 SHL SUB NOT DUP3 AND DUP2 OR DUP4 SSTORE PUSH1 0x40 MLOAD SWAP7 SWAP3 SWAP1 SWAP2 PUSH1 0x1 PUSH1 0x1 PUSH1 0xA0 SHL SUB AND SWAP1 PUSH32 0x8BE0079C531659141344CD1FD0A4F28419497F9722A3DAAFE3B4186F6B6457E0 SWAP1 DUP1 LOG3 PUSH1 0x1 DUP1 PUSH1 0xA0 SHL SUB NOT PUSH1 0x3 SLOAD AND OR PUSH1 0x3 SSTORE PUSH1 0x1 DUP1 PUSH1 0xA0 SHL SUB NOT PUSH1 0x4 SLOAD AND OR PUSH1 0x4 SSTORE PUSH1 0x1 SSTORE PUSH1 0x1 DUP1 PUSH1 0xA0 SHL SUB NOT PUSH1 0x2 SLOAD AND OR PUSH1 0x2 SSTORE PUSH2 0x10A1 SWAP1 DUP2 PUSH2 0x146 DUP3 CODECOPY RETURN JUMPDEST PUSH4 0x1E4FBDF7 PUSH1 0xE0 SHL PUSH1 0x0 MSTORE PUSH1 0x0 PUSH1 0x4 MSTORE PUSH1 0x24 PUSH1 0x0 REVERT JUMPDEST PUSH1 0x0 DUP1 REVERT JUMPDEST PUSH4 0x4E487B71 PUSH1 0xE0 SHL PUSH1 0x0 MSTORE PUSH1 0x41 PUSH1 0x4 MSTORE PUSH1 0x24 PUSH1 0x0 REVERT INVALID PUSH1 0x80 PUSH1 0x40 MSTORE PUSH1 0x4 CALLDATASIZE LT ISZERO PUSH2 0x12 JUMPI PUSH1 0x0 DUP1 REVERT JUMPDEST PUSH1 0x0 DUP1 CALLDATALOAD PUSH1 0xE0 SHR DUP1 PUSH4 0xFF199DE EQ PUSH2 0xB9A JUMPI DUP1 PUSH4 0x3E5BEAB9 EQ PUSH2 0xB58 JUMPI DUP1 PUSH4 0x47A471A1 EQ PUSH2 0xA66 JUMPI DUP1 PUSH4 0x4A86E1A6 EQ PUSH2 0x9D4 JUMPI DUP1 PUSH4 0x4B837649 EQ PUSH2 0x8C2 JUMPI DUP1 PUSH4 0x715018A6 EQ PUSH2 0x85C JUMPI DUP1 PUSH4 0x8DA5CB5B EQ PUSH2 0x836 JUMPI DUP1 PUSH4 0xCA709A25 EQ PUSH2 0x80F JUMPI DUP1 PUSH4 0xE0AB4650 EQ PUSH2 0x6FA JUMPI DUP1 PUSH4 0xE33B2DC2 EQ PUSH2 0x5BB JUMPI DUP1 PUSH4 0xE76E8CAD EQ PUSH2 0x4E6 JUMPI DUP1 PUSH4 0xF2FDE38B EQ PUSH2 0x438 JUMPI DUP1 PUSH4 0xF887CF00 EQ PUSH2 0x26E JUMPI PUSH4 0xFCA0025D EQ PUSH2 0xB7 JUMPI PUSH1 0x0 DUP1 REVERT JUMPDEST CALLVALUE PUSH2 0x26B JUMPI PUSH1 0x20 CALLDATASIZE PUSH1 0x3 NOT ADD SLT PUSH2 0x26B JUMPI PUSH1 0x4 CALLDATALOAD PUSH1 0x4 DUP2 LT ISZERO PUSH2 0x269 JUMPI PUSH1 0x4 PUSH1 0x20 PUSH1 0x1 PUSH1 0x1 PUSH1 0xA0 SHL SUB DUP3 SLOAD AND PUSH1 0x40 MLOAD SWAP3 DUP4 DUP1 SWAP3 PUSH32 0x9068A86800000000000000000000000000000000000000000000000000000000 DUP3 MSTORE GAS STATICCALL SWAP1 DUP2 ISZERO PUSH2 0x231 JUMPI PUSH1 0x1 PUSH1 0x1 PUSH1 0xA0 SHL SUB SWAP2 PUSH1 0x20 SWAP2 DUP6 SWAP2 PUSH2 0x23C JUMPI JUMPDEST POP PUSH1 0x24 PUSH1 0x40 MLOAD DUP1 SWAP5 DUP2 SWAP4 PUSH32 0xFBCBC0F100000000000000000000000000000000000000000000000000000000 DUP4 MSTORE CALLER PUSH1 0x4 DUP5 ADD MSTORE AND GAS STATICCALL SWAP1 DUP2 ISZERO PUSH2 0x231 JUMPI DUP4 SWAP2 PUSH2 0x1CB JUMPI JUMPDEST POP PUSH32 0xAF80AA5CC016B82830ABF03E3110890FCD831F57410495ACDF9CC3B3973129E9 SWAP2 PUSH2 0x1C7 PUSH1 0x1 PUSH1 0x1 PUSH1 0xA0 SHL SUB PUSH1 0x40 SWAP4 AND SWAP2 DUP3 DUP7 MSTORE PUSH1 0x5 PUSH1 0x20 MSTORE DUP4 DUP7 KECCAK256 PUSH1 0xFF NOT DUP2 SLOAD AND PUSH1 0xFF DUP4 AND OR SWAP1 SSTORE DUP4 MLOAD SWAP3 DUP4 MSTORE PUSH1 0x20 DUP4 ADD SWAP1 PUSH2 0xC7A JUMP JUMPDEST LOG1 DUP1 RETURN JUMPDEST SWAP1 POP PUSH1 0x20 DUP2 RETURNDATASIZE PUSH1 0x20 GT PUSH2 0x229 JUMPI JUMPDEST DUP2 PUSH2 0x1E6 PUSH1 0x20 SWAP4 DUP4 PUSH2 0xC9D JUMP JUMPDEST DUP2 ADD SUB SLT PUSH2 0x225 JUMPI MLOAD PUSH1 0x1 PUSH1 0x1 PUSH1 0xA0 SHL SUB DUP2 AND DUP2 SUB PUSH2 0x225 JUMPI PUSH32 0xAF80AA5CC016B82830ABF03E3110890FCD831F57410495ACDF9CC3B3973129E9 PUSH2 0x16D JUMP JUMPDEST DUP3 DUP1 REVERT JUMPDEST RETURNDATASIZE SWAP2 POP PUSH2 0x1D9 JUMP JUMPDEST PUSH1 0x40 MLOAD RETURNDATASIZE DUP6 DUP3 RETURNDATACOPY RETURNDATASIZE SWAP1 REVERT JUMPDEST PUSH2 0x25C SWAP2 POP DUP3 RETURNDATASIZE DUP5 GT PUSH2 0x262 JUMPI JUMPDEST PUSH2 0x254 DUP2 DUP4 PUSH2 0xC9D JUMP JUMPDEST DUP2 ADD SWAP1 PUSH2 0xD4E JUMP JUMPDEST CODESIZE PUSH2 0x129 JUMP JUMPDEST POP RETURNDATASIZE PUSH2 0x24A JUMP JUMPDEST POP JUMPDEST DUP1 REVERT JUMPDEST POP CALLVALUE PUSH2 0x26B JUMPI PUSH1 0x40 CALLDATASIZE PUSH1 0x3 NOT ADD SLT PUSH2 0x26B JUMPI PUSH2 0x288 PUSH2 0xC2A JUMP JUMPDEST PUSH1 0x24 CALLDATALOAD SWAP1 PUSH1 0x4 DUP3 LT ISZERO PUSH2 0x225 JUMPI PUSH1 0x1 PUSH1 0x1 PUSH1 0xA0 SHL SUB AND DUP3 MSTORE PUSH1 0x5 PUSH1 0x20 MSTORE PUSH1 0xFF PUSH1 0x40 DUP4 KECCAK256 SLOAD AND PUSH1 0x4 DUP2 LT ISZERO SWAP2 DUP3 PUSH2 0x3D2 JUMPI DUP2 ISZERO PUSH2 0x3F4 JUMPI PUSH1 0x1 DUP2 EQ DUP1 PUSH2 0x3E6 JUMPI JUMPDEST DUP4 DUP2 PUSH2 0x3C1 JUMPI JUMPDEST POP PUSH2 0x37D JUMPI PUSH1 0x2 EQ SWAP2 DUP3 PUSH2 0x357 JUMPI JUMPDEST DUP3 PUSH2 0x331 JUMPI JUMPDEST POP POP PUSH2 0x2ED JUMPI DUP1 RETURN JUMPDEST PUSH1 0x64 PUSH1 0x40 MLOAD PUSH3 0x461BCD PUSH1 0xE5 SHL DUP2 MSTORE PUSH1 0x20 PUSH1 0x4 DUP3 ADD MSTORE PUSH1 0x15 PUSH1 0x24 DUP3 ADD MSTORE PUSH32 0x5769746864726177206E6F7420617070726F7665640000000000000000000000 PUSH1 0x44 DUP3 ADD MSTORE REVERT JUMPDEST SWAP1 SWAP2 POP PUSH2 0x343 JUMPI PUSH1 0x3 EQ ISZERO CODESIZE DUP1 PUSH2 0x2E4 JUMP JUMPDEST PUSH1 0x24 DUP3 PUSH4 0x4E487B71 PUSH1 0xE0 SHL DUP2 MSTORE PUSH1 0x21 PUSH1 0x4 MSTORE REVERT JUMPDEST DUP1 SWAP3 POP PUSH2 0x369 JUMPI PUSH1 0x2 DUP2 EQ ISZERO SWAP2 PUSH2 0x2DE JUMP JUMPDEST PUSH1 0x24 DUP4 PUSH4 0x4E487B71 PUSH1 0xE0 SHL DUP2 MSTORE PUSH1 0x21 PUSH1 0x4 MSTORE REVERT JUMPDEST PUSH1 0x64 PUSH1 0x40 MLOAD PUSH3 0x461BCD PUSH1 0xE5 SHL DUP2 MSTORE PUSH1 0x20 PUSH1 0x4 DUP3 ADD MSTORE PUSH1 0x14 PUSH1 0x24 DUP3 ADD MSTORE PUSH32 0x4465706F736974206E6F7420617070726F766564000000000000000000000000 PUSH1 0x44 DUP3 ADD MSTORE REVERT JUMPDEST SWAP1 POP PUSH2 0x3D2 JUMPI PUSH1 0x3 DUP3 EQ ISZERO DUP4 PUSH2 0x2CF JUMP JUMPDEST PUSH1 0x24 DUP5 PUSH4 0x4E487B71 PUSH1 0xE0 SHL DUP2 MSTORE PUSH1 0x21 PUSH1 0x4 MSTORE REVERT JUMPDEST POP DUP4 SWAP3 POP PUSH1 0x1 DUP3 EQ ISZERO PUSH2 0x2C8 JUMP JUMPDEST PUSH1 0x64 PUSH1 0x40 MLOAD PUSH3 0x461BCD PUSH1 0xE5 SHL DUP2 MSTORE PUSH1 0x20 PUSH1 0x4 DUP3 ADD MSTORE PUSH1 0x11 PUSH1 0x24 DUP3 ADD MSTORE PUSH32 0x55736572206E6F7420617070726F766564000000000000000000000000000000 PUSH1 0x44 DUP3 ADD MSTORE REVERT JUMPDEST POP CALLVALUE PUSH2 0x26B JUMPI PUSH1 0x20 CALLDATASIZE PUSH1 0x3 NOT ADD SLT PUSH2 0x26B JUMPI PUSH1 0x4 CALLDATALOAD PUSH1 0x1 PUSH1 0x1 PUSH1 0xA0 SHL SUB DUP2 AND DUP1 SWAP2 SUB PUSH2 0x269 JUMPI PUSH2 0x466 PUSH2 0x1029 JUMP JUMPDEST DUP1 ISZERO PUSH2 0x4BA JUMPI PUSH1 0x1 PUSH1 0x1 PUSH1 0xA0 SHL SUB DUP3 SLOAD DUP3 PUSH20 0xFFFFFFFFFFFFFFFFFFFFFFFFFFFFFFFFFFFFFFFF NOT DUP3 AND OR DUP5 SSTORE AND PUSH32 0x8BE0079C531659141344CD1FD0A4F28419497F9722A3DAAFE3B4186F6B6457E0 DUP4 DUP1 LOG3 DUP1 RETURN JUMPDEST PUSH1 0x24 DUP3 PUSH32 0x1E4FBDF700000000000000000000000000000000000000000000000000000000 DUP2 MSTORE DUP1 PUSH1 0x4 MSTORE REVERT JUMPDEST POP CALLVALUE PUSH2 0x26B JUMPI PUSH2 0x55A SWAP1 PUSH1 0x20 PUSH2 0x4FB CALLDATASIZE PUSH2 0xC40 JUMP JUMPDEST SWAP2 SWAP1 PUSH2 0x506 DUP4 PUSH2 0xEB1 JUMP JUMPDEST DUP5 PUSH1 0x1 PUSH1 0x1 PUSH1 0xA0 SHL SUB PUSH1 0x40 MLOAD DUP1 SWAP9 DUP2 SWAP7 DUP3 SWAP6 PUSH32 0xB76E07CC00000000000000000000000000000000000000000000000000000000 DUP5 MSTORE PUSH1 0x4 DUP5 ADD SWAP1 SWAP3 SWAP2 PUSH1 0x1 PUSH1 0x1 PUSH1 0xA0 SHL SUB PUSH1 0x20 SWAP2 PUSH1 0x40 DUP5 ADD SWAP6 DUP5 MSTORE AND SWAP2 ADD MSTORE JUMP JUMPDEST SUB SWAP4 AND GAS CALL SWAP1 DUP2 ISZERO PUSH2 0x5AF JUMPI SWAP1 PUSH2 0x577 JUMPI JUMPDEST PUSH1 0x20 SWAP1 PUSH1 0x40 MLOAD SWAP1 DUP2 MSTORE RETURN JUMPDEST POP PUSH1 0x20 DUP2 RETURNDATASIZE PUSH1 0x20 GT PUSH2 0x5A7 JUMPI JUMPDEST DUP2 PUSH2 0x591 PUSH1 0x20 SWAP4 DUP4 PUSH2 0xC9D JUMP JUMPDEST DUP2 ADD SUB SLT PUSH2 0x5A2 JUMPI PUSH1 0x20 SWAP1 MLOAD PUSH2 0x56C JUMP JUMPDEST PUSH1 0x0 DUP1 REVERT JUMPDEST RETURNDATASIZE SWAP2 POP PUSH2 0x584 JUMP JUMPDEST PUSH1 0x40 MLOAD SWAP1 RETURNDATASIZE SWAP1 DUP3 RETURNDATACOPY RETURNDATASIZE SWAP1 REVERT JUMPDEST POP CALLVALUE PUSH2 0x26B JUMPI PUSH1 0x60 CALLDATASIZE PUSH1 0x3 NOT ADD SLT PUSH2 0x26B JUMPI PUSH1 0x4 CALLDATALOAD PUSH1 0x3 DUP2 LT ISZERO PUSH2 0x269 JUMPI PUSH1 0x24 CALLDATALOAD SWAP1 PUSH8 0xFFFFFFFFFFFFFFFF DUP3 AND DUP1 SWAP3 SUB PUSH2 0x225 JUMPI PUSH1 0x44 CALLDATALOAD SWAP2 PUSH4 0xFFFFFFFF DUP4 AND DUP1 SWAP4 SUB PUSH2 0x6F6 JUMPI PUSH1 0x4 SWAP2 PUSH1 0x20 PUSH1 0x1 PUSH1 0x1 PUSH1 0xA0 SHL SUB DUP5 SLOAD AND PUSH1 0x40 MLOAD SWAP5 DUP6 DUP1 SWAP3 PUSH4 0xF63BE01 PUSH1 0xE0 SHL DUP3 MSTORE GAS STATICCALL SWAP1 DUP6 DUP3 ISZERO PUSH2 0x5AF JUMPI PUSH1 0x1 PUSH1 0x1 PUSH1 0xA0 SHL SUB PUSH1 0x64 SWAP4 PUSH1 0x20 SWAP7 DUP4 SWAP2 PUSH2 0x6D9 JUMPI JUMPDEST POP PUSH1 0x40 MLOAD SWAP8 DUP9 SWAP7 DUP8 SWAP6 PUSH32 0x72642F2B00000000000000000000000000000000000000000000000000000000 DUP8 MSTORE PUSH1 0x4 DUP8 ADD MSTORE PUSH1 0x24 DUP7 ADD MSTORE PUSH1 0x44 DUP6 ADD MSTORE AND GAS CALL SWAP1 DUP2 ISZERO PUSH2 0x6CE JUMPI DUP3 SWAP2 PUSH2 0x698 JUMPI JUMPDEST PUSH1 0x20 DUP3 PUSH1 0x40 MLOAD SWAP1 DUP2 MSTORE RETURN JUMPDEST SWAP1 POP PUSH1 0x20 DUP2 RETURNDATASIZE PUSH1 0x20 GT PUSH2 0x6C6 JUMPI JUMPDEST DUP2 PUSH2 0x6B3 PUSH1 0x20 SWAP4 DUP4 PUSH2 0xC9D JUMP JUMPDEST DUP2 ADD SUB SLT PUSH2 0x269 JUMPI PUSH1 0x20 SWAP2 POP MLOAD CODESIZE PUSH2 0x68D JUMP JUMPDEST RETURNDATASIZE SWAP2 POP PUSH2 0x6A6 JUMP JUMPDEST PUSH1 0x40 MLOAD RETURNDATASIZE DUP5 DUP3 RETURNDATACOPY RETURNDATASIZE SWAP1 REVERT JUMPDEST PUSH2 0x6F0 SWAP2 POP DUP8 RETURNDATASIZE DUP10 GT PUSH2 0x262 JUMPI PUSH2 0x254 DUP2 DUP4 PUSH2 0xC9D JUMP JUMPDEST CODESIZE PUSH2 0x641 JUMP JUMPDEST DUP4 DUP1 REVERT JUMPDEST POP CALLVALUE PUSH2 0x26B JUMPI DUP1 PUSH2 0x70A CALLDATASIZE PUSH2 0xCD5 JUMP JUMPDEST PUSH1 0x4 PUSH1 0x20 PUSH1 0x1 PUSH1 0x1 PUSH1 0xA0 SHL SUB DUP3 SLOAD AND PUSH1 0x40 MLOAD SWAP3 DUP4 DUP1 SWAP3 PUSH4 0xF63BE01 PUSH1 0xE0 SHL DUP3 MSTORE GAS STATICCALL SWAP1 DUP2 ISZERO PUSH2 0x231 JUMPI PUSH2 0x750 SWAP2 PUSH1 0x1 PUSH1 0x1 PUSH1 0xA0 SHL SUB SWAP2 DUP6 SWAP2 PUSH2 0x7F0 JUMPI JUMPDEST POP AND CALLER EQ PUSH2 0xD6D JUMP JUMPDEST DUP1 MLOAD DUP2 ADD PUSH1 0x40 DUP3 DUP3 SUB SLT PUSH2 0x7E8 JUMPI PUSH2 0x76A PUSH1 0x20 DUP4 ADD PUSH2 0xDB8 JUMP JUMPDEST SWAP2 PUSH1 0x40 DUP2 ADD MLOAD SWAP1 PUSH8 0xFFFFFFFFFFFFFFFF DUP3 GT PUSH2 0x7EC JUMPI PUSH1 0x20 PUSH2 0x799 SWAP3 DUP2 PUSH1 0x1 PUSH1 0x1 PUSH1 0xA0 SHL SUB SWAP6 ADD SWAP3 ADD ADD PUSH2 0xDCC JUMP JUMPDEST SWAP2 AND DUP1 EXTCODESIZE ISZERO PUSH2 0x7E8 JUMPI PUSH2 0x7C6 DUP4 SWAP3 SWAP2 DUP4 SWAP3 PUSH1 0x40 MLOAD SWAP5 DUP6 DUP1 SWAP5 DUP2 SWAP4 PUSH4 0xEE6CE925 PUSH1 0xE0 SHL DUP4 MSTORE PUSH1 0x4 DUP4 ADD PUSH2 0xE77 JUMP JUMPDEST SUB SWAP3 GAS CALL DUP1 ISZERO PUSH2 0x6CE JUMPI PUSH2 0x7D7 JUMPI POP RETURN JUMPDEST DUP2 PUSH2 0x7E1 SWAP2 PUSH2 0xC9D JUMP JUMPDEST PUSH2 0x26B JUMPI DUP1 RETURN JUMPDEST POP POP REVERT JUMPDEST DUP5 DUP1 REVERT JUMPDEST PUSH2 0x809 SWAP2 POP PUSH1 0x20 RETURNDATASIZE PUSH1 0x20 GT PUSH2 0x262 JUMPI PUSH2 0x254 DUP2 DUP4 PUSH2 0xC9D JUMP JUMPDEST CODESIZE PUSH2 0x747 JUMP JUMPDEST POP CALLVALUE PUSH2 0x26B JUMPI DUP1 PUSH1 0x3 NOT CALLDATASIZE ADD SLT PUSH2 0x26B JUMPI PUSH1 0x20 PUSH1 0x1 PUSH1 0x1 PUSH1 0xA0 SHL SUB PUSH1 0x3 SLOAD AND PUSH1 0x40 MLOAD SWAP1 DUP2 MSTORE RETURN JUMPDEST POP CALLVALUE PUSH2 0x26B JUMPI DUP1 PUSH1 0x3 NOT CALLDATASIZE ADD SLT PUSH2 0x26B JUMPI PUSH1 0x1 PUSH1 0x1 PUSH1 0xA0 SHL SUB PUSH1 0x20 SWAP2 SLOAD AND PUSH1 0x40 MLOAD SWAP1 DUP2 MSTORE RETURN JUMPDEST POP CALLVALUE PUSH2 0x26B JUMPI DUP1 PUSH1 0x3 NOT CALLDATASIZE ADD SLT PUSH2 0x26B JUMPI PUSH2 0x875 PUSH2 0x1029 JUMP JUMPDEST DUP1 PUSH1 0x1 PUSH1 0x1 PUSH1 0xA0 SHL SUB DUP2 SLOAD PUSH20 0xFFFFFFFFFFFFFFFFFFFFFFFFFFFFFFFFFFFFFFFF NOT DUP2 AND DUP4 SSTORE AND PUSH32 0x8BE0079C531659141344CD1FD0A4F28419497F9722A3DAAFE3B4186F6B6457E0 DUP3 DUP1 LOG3 DUP1 RETURN JUMPDEST POP CALLVALUE PUSH2 0x26B JUMPI DUP1 PUSH2 0x8D2 CALLDATASIZE PUSH2 0xCD5 JUMP JUMPDEST PUSH1 0x4 PUSH1 0x20 PUSH1 0x1 PUSH1 0x1 PUSH1 0xA0 SHL SUB DUP3 SLOAD AND PUSH1 0x40 MLOAD SWAP3 DUP4 DUP1 SWAP3 PUSH4 0xF63BE01 PUSH1 0xE0 SHL DUP3 MSTORE GAS STATICCALL SWAP2 DUP3 ISZERO PUSH2 0x231 JUMPI PUSH2 0x91B PUSH1 0x1 PUSH1 0x1 PUSH1 0xA0 SHL SUB DUP1 SWAP5 PUSH2 0x92A SWAP5 DUP8 SWAP2 PUSH2 0x7F0 JUMPI POP AND CALLER EQ PUSH2 0xD6D JUMP JUMPDEST PUSH1 0x20 DUP1 DUP3 MLOAD DUP4 ADD ADD SWAP2 ADD PUSH2 0xE34 JUMP JUMPDEST SWAP3 SWAP1 SWAP2 AND SWAP1 DUP2 EXTCODESIZE ISZERO PUSH2 0x9CF JUMPI PUSH1 0x1 PUSH1 0x1 PUSH1 0xA0 SHL SUB PUSH1 0x40 MLOAD SWAP2 PUSH32 0x223E547900000000000000000000000000000000000000000000000000000000 DUP4 MSTORE AND PUSH1 0x4 DUP3 ADD MSTORE DUP4 DUP2 PUSH1 0x24 DUP2 DUP4 DUP7 GAS CALL SWAP1 DUP2 ISZERO PUSH2 0x9C4 JUMPI DUP5 SWAP2 PUSH2 0x9AF JUMPI JUMPDEST POP POP DUP1 EXTCODESIZE ISZERO PUSH2 0x7E8 JUMPI PUSH2 0x7C6 DUP4 SWAP3 SWAP2 DUP4 SWAP3 PUSH1 0x40 MLOAD SWAP5 DUP6 DUP1 SWAP5 DUP2 SWAP4 PUSH4 0xEE6CE925 PUSH1 0xE0 SHL DUP4 MSTORE PUSH1 0x4 DUP4 ADD PUSH2 0xE77 JUMP JUMPDEST DUP2 PUSH2 0x9B9 SWAP2 PUSH2 0xC9D JUMP JUMPDEST PUSH2 0x7E8 JUMPI DUP3 CODESIZE PUSH2 0x982 JUMP JUMPDEST PUSH1 0x40 MLOAD RETURNDATASIZE DUP7 DUP3 RETURNDATACOPY RETURNDATASIZE SWAP1 REVERT JUMPDEST POP POP POP REVERT JUMPDEST POP CALLVALUE PUSH2 0x26B JUMPI PUSH1 0x40 CALLDATASIZE PUSH1 0x3 NOT ADD SLT PUSH2 0x26B JUMPI PUSH2 0x9EE PUSH2 0xC2A JUMP JUMPDEST PUSH1 0x24 CALLDATALOAD PUSH1 0x1 PUSH1 0x1 PUSH1 0xA0 SHL SUB DUP2 AND SWAP1 DUP2 DUP2 SUB PUSH2 0x6F6 JUMPI SWAP2 PUSH1 0x24 PUSH1 0x20 SWAP3 PUSH2 0xA1B PUSH1 0x1 PUSH1 0x1 PUSH1 0xA0 SHL SUB SWAP7 SWAP6 PUSH2 0xEB1 JUMP JUMPDEST DUP5 PUSH1 0x40 MLOAD SWAP7 DUP8 SWAP5 DUP6 SWAP4 PUSH32 0xC07E866E00000000000000000000000000000000000000000000000000000000 DUP6 MSTORE PUSH1 0x4 DUP6 ADD MSTORE AND GAS CALL SWAP1 DUP2 ISZERO PUSH2 0x5AF JUMPI SWAP1 PUSH2 0x577 JUMPI PUSH1 0x20 SWAP1 PUSH1 0x40 MLOAD SWAP1 DUP2 MSTORE RETURN JUMPDEST POP CALLVALUE PUSH2 0x26B JUMPI PUSH2 0xA75 CALLDATASIZE PUSH2 0xCD5 JUMP JUMPDEST PUSH1 0x4 PUSH1 0x20 PUSH1 0x1 PUSH1 0x1 PUSH1 0xA0 SHL SUB DUP3 SLOAD AND PUSH1 0x40 MLOAD SWAP3 DUP4 DUP1 SWAP3 PUSH4 0xF63BE01 PUSH1 0xE0 SHL DUP3 MSTORE GAS STATICCALL SWAP1 DUP2 ISZERO PUSH2 0x231 JUMPI SWAP2 PUSH2 0x91B PUSH1 0x1 PUSH1 0x1 PUSH1 0xA0 SHL SUB PUSH2 0xAC0 SWAP4 DUP7 SWAP6 DUP3 SWAP8 SWAP2 PUSH2 0x7F0 JUMPI POP AND CALLER EQ PUSH2 0xD6D JUMP JUMPDEST SWAP2 SWAP4 SWAP1 SWAP4 AND DUP1 EXTCODESIZE ISZERO PUSH2 0x225 JUMPI PUSH1 0x1 PUSH1 0x1 PUSH1 0xA0 SHL SUB PUSH1 0x40 MLOAD SWAP5 PUSH32 0x175188E800000000000000000000000000000000000000000000000000000000 DUP7 MSTORE AND PUSH1 0x4 DUP6 ADD MSTORE DUP3 DUP5 PUSH1 0x24 DUP2 DUP4 DUP6 GAS CALL DUP1 ISZERO PUSH2 0x231 JUMPI PUSH2 0xB43 JUMPI JUMPDEST DUP3 SWAP4 POP DUP1 EXTCODESIZE ISZERO PUSH2 0x7E8 JUMPI PUSH2 0x7C6 DUP4 SWAP3 SWAP2 DUP4 SWAP3 PUSH1 0x40 MLOAD SWAP5 DUP6 DUP1 SWAP5 DUP2 SWAP4 PUSH4 0xEE6CE925 PUSH1 0xE0 SHL DUP4 MSTORE PUSH1 0x4 DUP4 ADD PUSH2 0xE77 JUMP JUMPDEST SWAP2 SWAP1 SWAP3 DUP2 PUSH2 0xB50 SWAP2 PUSH2 0xC9D JUMP JUMPDEST SWAP1 DUP3 SWAP1 PUSH2 0xB15 JUMP JUMPDEST POP CALLVALUE PUSH2 0x26B JUMPI PUSH1 0x20 CALLDATASIZE PUSH1 0x3 NOT ADD SLT PUSH2 0x26B JUMPI PUSH1 0xFF PUSH1 0x40 PUSH1 0x20 SWAP3 PUSH1 0x1 PUSH1 0x1 PUSH1 0xA0 SHL SUB PUSH2 0xB81 PUSH2 0xC2A JUMP JUMPDEST AND DUP2 MSTORE PUSH1 0x5 DUP5 MSTORE KECCAK256 SLOAD AND PUSH2 0xB98 PUSH1 0x40 MLOAD DUP1 SWAP3 PUSH2 0xC7A JUMP JUMPDEST RETURN JUMPDEST POP CALLVALUE PUSH2 0x26B JUMPI PUSH2 0xC0D PUSH1 0x20 PUSH2 0xBAE CALLDATASIZE PUSH2 0xC40 JUMP JUMPDEST SWAP2 SWAP1 PUSH2 0xBB9 DUP4 PUSH2 0xEB1 JUMP JUMPDEST DUP6 PUSH1 0x1 PUSH1 0x1 PUSH1 0xA0 SHL SUB PUSH1 0x40 MLOAD DUP1 SWAP8 DUP2 SWAP7 DUP3 SWAP6 PUSH32 0xA49B5CB400000000000000000000000000000000000000000000000000000000 DUP5 MSTORE PUSH1 0x4 DUP5 ADD SWAP1 SWAP3 SWAP2 PUSH1 0x1 PUSH1 0x1 PUSH1 0xA0 SHL SUB PUSH1 0x20 SWAP2 PUSH1 0x40 DUP5 ADD SWAP6 DUP5 MSTORE AND SWAP2 ADD MSTORE JUMP JUMPDEST SUB SWAP4 AND GAS CALL SWAP1 DUP2 ISZERO PUSH2 0x6CE JUMPI DUP3 SWAP2 PUSH2 0x698 JUMPI PUSH1 0x20 DUP3 PUSH1 0x40 MLOAD SWAP1 DUP2 MSTORE RETURN JUMPDEST PUSH1 0x4 CALLDATALOAD SWAP1 PUSH1 0x1 PUSH1 0x1 PUSH1 0xA0 SHL SUB DUP3 AND DUP3 SUB PUSH2 0x5A2 JUMPI JUMP JUMPDEST PUSH1 0x60 SWAP1 PUSH1 0x3 NOT ADD SLT PUSH2 0x5A2 JUMPI PUSH1 0x4 CALLDATALOAD PUSH1 0x1 PUSH1 0x1 PUSH1 0xA0 SHL SUB DUP2 AND DUP2 SUB PUSH2 0x5A2 JUMPI SWAP1 PUSH1 0x24 CALLDATALOAD SWAP1 PUSH1 0x44 CALLDATALOAD PUSH1 0x1 PUSH1 0x1 PUSH1 0xA0 SHL SUB DUP2 AND DUP2 SUB PUSH2 0x5A2 JUMPI SWAP1 JUMP JUMPDEST SWAP1 PUSH1 0x4 DUP3 LT ISZERO PUSH2 0xC87 JUMPI MSTORE JUMP JUMPDEST PUSH4 0x4E487B71 PUSH1 0xE0 SHL PUSH1 0x0 MSTORE PUSH1 0x21 PUSH1 0x4 MSTORE PUSH1 0x24 PUSH1 0x0 REVERT JUMPDEST SWAP1 PUSH1 0x1F DUP1 NOT SWAP2 ADD AND DUP2 ADD SWAP1 DUP2 LT PUSH8 0xFFFFFFFFFFFFFFFF DUP3 GT OR PUSH2 0xCBF JUMPI PUSH1 0x40 MSTORE JUMP JUMPDEST PUSH4 0x4E487B71 PUSH1 0xE0 SHL PUSH1 0x0 MSTORE PUSH1 0x41 PUSH1 0x4 MSTORE PUSH1 0x24 PUSH1 0x0 REVERT JUMPDEST PUSH1 0x20 PUSH1 0x3 NOT DUP3 ADD SLT PUSH2 0x5A2 JUMPI PUSH1 0x4 CALLDATALOAD PUSH8 0xFFFFFFFFFFFFFFFF DUP2 GT PUSH2 0x5A2 JUMPI DUP2 PUSH1 0x23 DUP3 ADD SLT ISZERO PUSH2 0x5A2 JUMPI DUP1 PUSH1 0x4 ADD CALLDATALOAD SWAP1 PUSH8 0xFFFFFFFFFFFFFFFF DUP3 GT PUSH2 0xCBF JUMPI PUSH1 0x40 MLOAD SWAP3 PUSH2 0xD2B PUSH1 0x1F DUP5 ADD PUSH1 0x1F NOT AND PUSH1 0x20 ADD DUP6 PUSH2 0xC9D JUMP JUMPDEST DUP3 DUP5 MSTORE PUSH1 0x24 DUP4 DUP4 ADD ADD GT PUSH2 0x5A2 JUMPI DUP2 PUSH1 0x0 SWAP3 PUSH1 0x24 PUSH1 0x20 SWAP4 ADD DUP4 DUP7 ADD CALLDATACOPY DUP4 ADD ADD MSTORE SWAP1 JUMP JUMPDEST SWAP1 DUP2 PUSH1 0x20 SWAP2 SUB SLT PUSH2 0x5A2 JUMPI MLOAD PUSH1 0x1 PUSH1 0x1 PUSH1 0xA0 SHL SUB DUP2 AND DUP2 SUB PUSH2 0x5A2 JUMPI SWAP1 JUMP JUMPDEST ISZERO PUSH2 0xD74 JUMPI JUMP JUMPDEST PUSH1 0x64 PUSH1 0x40 MLOAD PUSH3 0x461BCD PUSH1 0xE5 SHL DUP2 MSTORE PUSH1 0x20 PUSH1 0x4 DUP3 ADD MSTORE PUSH1 0xE PUSH1 0x24 DUP3 ADD MSTORE PUSH32 0x4F6E6C792066756E6374696F6E73000000000000000000000000000000000000 PUSH1 0x44 DUP3 ADD MSTORE REVERT JUMPDEST MLOAD SWAP1 PUSH1 0x1 PUSH1 0x1 PUSH1 0xA0 SHL SUB DUP3 AND DUP3 SUB PUSH2 0x5A2 JUMPI JUMP JUMPDEST SWAP1 DUP1 PUSH1 0x1F DUP4 ADD SLT ISZERO PUSH2 0x5A2 JUMPI DUP2 MLOAD SWAP2 PUSH8 0xFFFFFFFFFFFFFFFF DUP4 GT PUSH2 0xCBF JUMPI DUP3 PUSH1 0x5 SHL SWAP1 PUSH1 0x40 MLOAD SWAP4 PUSH2 0xE00 PUSH1 0x20 DUP5 ADD DUP7 PUSH2 0xC9D JUMP JUMPDEST DUP5 MSTORE PUSH1 0x20 DUP1 DUP6 ADD SWAP3 DUP3 ADD ADD SWAP3 DUP4 GT PUSH2 0x5A2 JUMPI PUSH1 0x20 ADD SWAP1 JUMPDEST DUP3 DUP3 LT PUSH2 0xE24 JUMPI POP POP POP SWAP1 JUMP JUMPDEST DUP2 MLOAD DUP2 MSTORE PUSH1 0x20 SWAP2 DUP3 ADD SWAP2 ADD PUSH2 0xE17 JUMP JUMPDEST SWAP2 PUSH1 0x60 DUP4 DUP4 SUB SLT PUSH2 0x5A2 JUMPI PUSH2 0xE48 DUP4 PUSH2 0xDB8 JUMP JUMPDEST SWAP3 PUSH2 0xE55 PUSH1 0x20 DUP3 ADD PUSH2 0xDB8 JUMP JUMPDEST SWAP3 PUSH1 0x40 DUP3 ADD MLOAD PUSH8 0xFFFFFFFFFFFFFFFF DUP2 GT PUSH2 0x5A2 JUMPI PUSH2 0xE74 SWAP3 ADD PUSH2 0xDCC JUMP JUMPDEST SWAP1 JUMP JUMPDEST PUSH1 0x20 PUSH1 0x40 DUP2 DUP4 ADD SWAP3 DUP3 DUP2 MSTORE DUP5 MLOAD DUP1 SWAP5 MSTORE ADD SWAP3 ADD SWAP1 PUSH1 0x0 JUMPDEST DUP2 DUP2 LT PUSH2 0xE9B JUMPI POP POP POP SWAP1 JUMP JUMPDEST DUP3 MLOAD DUP5 MSTORE PUSH1 0x20 SWAP4 DUP5 ADD SWAP4 SWAP1 SWAP3 ADD SWAP2 PUSH1 0x1 ADD PUSH2 0xE8E JUMP JUMPDEST PUSH1 0x1 PUSH1 0x1 PUSH1 0xA0 SHL SUB DUP1 PUSH1 0x3 SLOAD AND SWAP2 AND SWAP1 PUSH1 0x40 MLOAD SWAP1 PUSH32 0x70A0823100000000000000000000000000000000000000000000000000000000 DUP3 MSTORE DUP3 PUSH1 0x4 DUP4 ADD MSTORE PUSH1 0x20 DUP3 PUSH1 0x24 DUP2 DUP5 GAS STATICCALL SWAP2 DUP3 ISZERO PUSH2 0xFE9 JUMPI PUSH1 0x0 SWAP3 PUSH2 0xFF5 JUMPI JUMPDEST POP PUSH1 0x1 SLOAD DUP1 SWAP3 LT ISZERO SWAP2 DUP3 PUSH2 0xF50 JUMPI JUMPDEST POP POP PUSH32 0x4B07B434919E25D56E2425B6A75582BF959A6DA1DA0D8F1D7E47C77267A35E6B SWAP2 PUSH1 0x60 SWAP2 PUSH1 0x40 MLOAD SWAP2 DUP3 MSTORE ADDRESS PUSH1 0x20 DUP4 ADD MSTORE PUSH1 0x40 DUP3 ADD MSTORE LOG1 JUMP JUMPDEST PUSH1 0x20 SWAP1 PUSH1 0x64 PUSH1 0x1 PUSH1 0x1 PUSH1 0xA0 SHL SUB PUSH1 0x2 SLOAD AND PUSH1 0x0 PUSH1 0x40 MLOAD SWAP6 DUP7 SWAP5 DUP6 SWAP4 PUSH32 0x23B872DD00000000000000000000000000000000000000000000000000000000 DUP6 MSTORE DUP11 PUSH1 0x4 DUP7 ADD MSTORE PUSH1 0x24 DUP6 ADD MSTORE PUSH1 0x44 DUP5 ADD MSTORE GAS CALL DUP1 ISZERO PUSH2 0xFE9 JUMPI PUSH2 0xFB1 JUMPI JUMPDEST DUP1 PUSH2 0xF15 JUMP JUMPDEST PUSH1 0x20 DUP2 RETURNDATASIZE PUSH1 0x20 GT PUSH2 0xFE1 JUMPI JUMPDEST DUP2 PUSH2 0xFCA PUSH1 0x20 SWAP4 DUP4 PUSH2 0xC9D JUMP JUMPDEST DUP2 ADD SUB SLT PUSH2 0x5A2 JUMPI MLOAD DUP1 ISZERO ISZERO SUB PUSH2 0x5A2 JUMPI CODESIZE PUSH2 0xFAB JUMP JUMPDEST RETURNDATASIZE SWAP2 POP PUSH2 0xFBD JUMP JUMPDEST PUSH1 0x40 MLOAD RETURNDATASIZE PUSH1 0x0 DUP3 RETURNDATACOPY RETURNDATASIZE SWAP1 REVERT JUMPDEST SWAP1 SWAP2 POP PUSH1 0x20 DUP2 RETURNDATASIZE PUSH1 0x20 GT PUSH2 0x1021 JUMPI JUMPDEST DUP2 PUSH2 0x1011 PUSH1 0x20 SWAP4 DUP4 PUSH2 0xC9D JUMP JUMPDEST DUP2 ADD SUB SLT PUSH2 0x5A2 JUMPI MLOAD SWAP1 CODESIZE PUSH2 0xF06 JUMP JUMPDEST RETURNDATASIZE SWAP2 POP PUSH2 0x1004 JUMP JUMPDEST PUSH1 0x1 PUSH1 0x1 PUSH1 0xA0 SHL SUB PUSH1 0x0 SLOAD AND CALLER SUB PUSH2 0x103D JUMPI JUMP JUMPDEST PUSH32 0x118CDAA700000000000000000000000000000000000000000000000000000000 PUSH1 0x0 MSTORE CALLER PUSH1 0x4 MSTORE PUSH1 0x24 PUSH1 0x0 REVERT INVALID LOG2 PUSH5 0x6970667358 0x22 SLT KECCAK256 0xBE RETURN SUB SLOAD PUSH12 0x3DF8ECC07F1410B065ECE127 SHR SHL 0x2A EXTCODESIZE CALLER 0xB5 0xAB GAS OR DUP4 PUSH29 0xDEAB409964736F6C634300081C00330000000000000000000000000000 "
        },
        "methodIdentifiers": {
          "addStrategy(bytes)": "4b837649",
          "allowance(address)": "3e5beab9",
          "approve(uint8)": "fca0025d",
          "checkApproval(address,uint8)": "f887cf00",
          "depositFromAccount(address,uint256,address)": "e76e8cad",
          "getFeeToken()": "ca709a25",
          "owner()": "8da5cb5b",
          "reallocation(bytes)": "e0ab4650",
          "removeStrategy(bytes)": "47a471a1",
          "renounceOwnership()": "715018a6",
          "transferOwnership(address)": "f2fde38b",
          "upKeep(uint8,uint64,uint32)": "e33b2dc2",
          "withdrawAllToAccount(address,address)": "4a86e1a6",
          "withdrawToAccount(address,uint256,address)": "0ff199de"
        }
      }
    }
  }
}