{
  "_format": "hh-sol-artifact-1",
  "contractName": "AfterYieldFunctions",
  "sourceName": "contracts/chainlink/AfterYieldFunctions.sol",
  "abi": [
    {
      "inputs": [
        {
          "internalType": "address",
          "name": "oracle",
          "type": "address"
        },
        {
          "internalType": "bytes32",
          "name": "donId",
          "type": "bytes32"
        },
        {
          "internalType": "string",
          "name": "source",
          "type": "string"
        }
      ],
      "stateMutability": "nonpayable",
      "type": "constructor"
    },
    {
      "inputs": [],
      "name": "EmptyArgs",
      "type": "error"
    },
    {
      "inputs": [],
      "name": "EmptySource",
      "type": "error"
    },
    {
      "inputs": [],
      "name": "NoInlineSecrets",
      "type": "error"
    },
    {
      "inputs": [],
      "name": "OnlyRouterCanFulfill",
      "type": "error"
    },
    {
      "inputs": [
        {
          "internalType": "address",
          "name": "owner",
          "type": "address"
        }
      ],
      "name": "OwnableInvalidOwner",
      "type": "error"
    },
    {
      "inputs": [
        {
          "internalType": "address",
          "name": "account",
          "type": "address"
        }
      ],
      "name": "OwnableUnauthorizedAccount",
      "type": "error"
    },
    {
      "anonymous": false,
      "inputs": [
        {
          "indexed": true,
          "internalType": "bytes32",
          "name": "requestId",
          "type": "bytes32"
        },
        {
          "indexed": false,
          "internalType": "bytes",
          "name": "result",
          "type": "bytes"
        },
        {
          "indexed": false,
          "internalType": "bytes",
          "name": "err",
          "type": "bytes"
        }
      ],
      "name": "OCRResponse",
      "type": "event"
    },
    {
      "anonymous": false,
      "inputs": [
        {
          "indexed": true,
          "internalType": "address",
          "name": "previousOwner",
          "type": "address"
        },
        {
          "indexed": true,
          "internalType": "address",
          "name": "newOwner",
          "type": "address"
        }
      ],
      "name": "OwnershipTransferred",
      "type": "event"
    },
    {
      "anonymous": false,
      "inputs": [
        {
          "indexed": true,
          "internalType": "bytes32",
          "name": "id",
          "type": "bytes32"
        }
      ],
      "name": "RequestFulfilled",
      "type": "event"
    },
    {
      "anonymous": false,
      "inputs": [
        {
          "indexed": true,
          "internalType": "bytes32",
          "name": "id",
          "type": "bytes32"
        }
      ],
      "name": "RequestSent",
      "type": "event"
    },
    {
      "inputs": [
        {
          "internalType": "bytes32",
          "name": "requestId",
          "type": "bytes32"
        },
        {
          "internalType": "bytes",
          "name": "response",
          "type": "bytes"
        },
        {
          "internalType": "bytes",
          "name": "err",
          "type": "bytes"
        }
      ],
      "name": "handleOracleFulfillment",
      "outputs": [],
      "stateMutability": "nonpayable",
      "type": "function"
    },
    {
      "inputs": [
        {
          "internalType": "enum Enums.TaskType",
          "name": "taskType",
          "type": "uint8"
        },
        {
          "internalType": "uint64",
          "name": "subscriptionId",
          "type": "uint64"
        },
        {
          "internalType": "uint32",
          "name": "gasLimit",
          "type": "uint32"
        }
      ],
      "name": "makeRequest",
      "outputs": [
        {
          "internalType": "bytes32",
          "name": "requestId",
          "type": "bytes32"
        }
      ],
      "stateMutability": "nonpayable",
      "type": "function"
    },
    {
      "inputs": [],
      "name": "owner",
      "outputs": [
        {
          "internalType": "address",
          "name": "",
          "type": "address"
        }
      ],
      "stateMutability": "view",
      "type": "function"
    },
    {
      "inputs": [],
      "name": "renounceOwnership",
      "outputs": [],
      "stateMutability": "nonpayable",
      "type": "function"
    },
    {
      "inputs": [
        {
          "internalType": "address",
          "name": "newOwner",
          "type": "address"
        }
      ],
      "name": "transferOwnership",
      "outputs": [],
      "stateMutability": "nonpayable",
      "type": "function"
    }
  ],
  "bytecode": "0x60a0604052346102b257611bf380380380610019816102b7565b9283398101906060818303126102b25780516001600160a01b038116908190036102b2576020820151604083015190926001600160401b0382116102b2570183601f820112156102b2578051906001600160401b03821161027157610087601f8301601f19166020016102b7565b94828652602083830101116102b25760005b82811061029d57505060206000918501015260805233156102875760008054336001600160a01b0319821681178355916001600160a01b03909116907f8be0079c531659141344cd1fd0a4f28419497f9722a3daafe3b4186f6b6457e09080a360015580516001600160401b03811161027157600254600181811c91168015610267575b602082101461025157601f81116101ec575b50602091601f82116001146101885791819260009261017d575b50508160011b916000199060031b1c1916176002555b60405161191690816102dd823960805181818160c5015261116e0152f35b015190503880610149565b601f198216926002600052806000209160005b8581106101d4575083600195106101bb575b505050811b0160025561015f565b015160001960f88460031b161c191690553880806101ad565b9192602060018192868501518155019401920161019b565b60026000527f405787fa12a823e0f2b7631cc41b3ba8828b3321ca811111fa75cd3aa3bb5ace601f830160051c81019160208410610247575b601f0160051c01905b81811061023b575061012f565b6000815560010161022e565b9091508190610225565b634e487b7160e01b600052602260045260246000fd5b90607f169061011d565b634e487b7160e01b600052604160045260246000fd5b631e4fbdf760e01b600052600060045260246000fd5b80602080928401015182828901015201610099565b600080fd5b6040519190601f01601f191682016001600160401b038111838210176102715760405256fe6080604052600436101561001257600080fd5b60003560e01c80630ca7617514610067578063715018a61461006257806372642f2b1461005d5780638da5cb5b146100585763f2fde38b1461005357600080fd5b610426565b6103ff565b610294565b61022e565b346101465760603660031901126101465760043560243567ffffffffffffffff81116101465761009b9036906004016101dc565b60443567ffffffffffffffff8111610146576100bb9036906004016101dc565b6001600160a01b037f000000000000000000000000000000000000000000000000000000000000000016330361011c576100f591836106fd565b7f85e1543bf2f84fe80c6badbce3648c8539ad1df4d2b3d822938ca0538be727e6600080a2005b7fc6829f830000000000000000000000000000000000000000000000000000000060005260046000fd5b600080fd5b634e487b7160e01b600052604160045260246000fd5b60e0810190811067ffffffffffffffff82111761017d57604052565b61014b565b6040810190811067ffffffffffffffff82111761017d57604052565b90601f8019910116810190811067ffffffffffffffff82111761017d57604052565b67ffffffffffffffff811161017d57601f01601f191660200190565b81601f82011215610146578035906101f3826101c0565b92610201604051948561019e565b8284526020838301011161014657816000926020809301838601378301015290565b600091031261014657565b346101465760003660031901126101465761024761097b565b60006001600160a01b03815473ffffffffffffffffffffffffffffffffffffffff1981168355167f8be0079c531659141344cd1fd0a4f28419497f9722a3daafe3b4186f6b6457e08280a3005b34610146576060366003190112610146576004356003811015610146576024359067ffffffffffffffff82168203610146576044359163ffffffff83168303610146576103916103eb916103fb946103876000604051906102f482610161565b808252806020830152604082015260608082015260606080820152606060a0820152606060c082015261032e6103286104d8565b826109c7565b6103826103396105b3565b61034233610b2f565b61034b82610604565b5261035581610604565b5061035f89610650565b61036889610c45565b61037182610616565b5261037b81610616565b5082610d2b565b610eff565b91600154926110f4565b916103d2336103aa856000526003602052604060002090565b906001600160a01b031673ffffffffffffffffffffffffffffffffffffffff19825416179055565b6103e6836000526004602052604060002090565b61065f565b6040519081529081906020820190565b0390f35b346101465760003660031901126101465760206001600160a01b0360005416604051908152f35b34610146576020366003190112610146576004356001600160a01b0381168091036101465761045361097b565b80156104a9576001600160a01b036000548273ffffffffffffffffffffffffffffffffffffffff19821617600055167f8be0079c531659141344cd1fd0a4f28419497f9722a3daafe3b4186f6b6457e0600080a3005b7f1e4fbdf700000000000000000000000000000000000000000000000000000000600052600060045260246000fd5b604051906000600254908160011c91600181169081156105a9575b602084108214610595578386528592916020840191811561057c5750600114610526575b506105249250038361019e565b565b6002600090815291507f405787fa12a823e0f2b7631cc41b3ba8828b3321ca811111fa75cd3aa3bb5ace5b848310610565575061052493500138610517565b805482840152869350602090920191600101610551565b60ff191682525061052493151560051b01905038610517565b602483634e487b7160e01b81526022600452fd5b92607f16926104f3565b604051606091906105c4838261019e565b6002815291601f19018260005b8281106105dd57505050565b8060606020809385010152016105d1565b634e487b7160e01b600052603260045260246000fd5b8051156106115760200190565b6105ee565b8051600110156106115760400190565b80518210156106115760209160051b010190565b634e487b7160e01b600052602160045260246000fd5b6003111561065a57565b61063a565b9061066981610650565b60ff80198354169116179055565b919082519283825260005b8481106106a3575050826000602080949584010152601f8019910116010190565b80602080928401015182828601015201610682565b9060206106c9928181520190610677565b90565b6040513d6000823e3d90fd5b90916106ef6106c993604084526040840190610677565b916020818403910152610677565b91610722610715846000526003602052604060002090565b546001600160a01b031690565b610740610739856000526004602052604060002090565b5460ff1690565b8351156109745782516109745761075681610650565b8061080f57506001600160a01b031691823b1561014657600060405180947f4b8376490000000000000000000000000000000000000000000000000000000082528183816107a787600483016106b8565b03925af192831561080a577f7bab0ec163b5c132c72b8146ac4d6e067e82ed58f8b131150aa71c9258911562936107ef575b505b6107ea604051928392836106d8565b0390a2565b806107fe60006108049361019e565b80610223565b386107d9565b6106cc565b61081881610650565b600181036108b957506001600160a01b031691823b1561014657600060405180947f47a471a100000000000000000000000000000000000000000000000000000000825281838161086c87600483016106b8565b03925af192831561080a577f7bab0ec163b5c132c72b8146ac4d6e067e82ed58f8b131150aa71c9258911562936108a4575b506107db565b806107fe60006108b39361019e565b3861089e565b806108c5600292610650565b03610915576001600160a01b031691823b1561014657600060405180947fe0ab465000000000000000000000000000000000000000000000000000000000825281838161086c87600483016106b8565b6040517f08c379a000000000000000000000000000000000000000000000000000000000815260206004820152601160248201527f496e76616c6964207461736b20747970650000000000000000000000000000006044820152606490fd5b5050505050565b6001600160a01b0360005416330361098f57565b7f118cdaa7000000000000000000000000000000000000000000000000000000006000523360045260246000fd5b6001111561065a57565b60008251156109e157506000808252604082015260600152565b807f22ce3edd0000000000000000000000000000000000000000000000000000000060049252fd5b60405190610a1860408361019e565b601082527f30313233343536373839616263646566000000000000000000000000000000006020830152565b60405160609190610a55838261019e565b602a815291601f1901366020840137565b90610a70826101c0565b610a7d604051918261019e565b8281528092610a8e601f19916101c0565b0190602036910137565b8051600110156106115760210190565b908151811015610611570160200190565b634e487b7160e01b600052601160045260246000fd5b908160011b9180830460021490151715610ae557565b610ab9565b6002019081600211610ae557565b6003019081600311610ae557565b6030019081603011610ae557565b9060208201809211610ae557565b91908201809211610ae557565b610b37610a09565b9060601b6bffffffffffffffffffffffff1916610b52610a44565b916030610b5e84610604565b536078610b6a84610a98565b5360005b60148110610b7c5750505090565b600190610bf2610ba5600f86841a610bcb83610b9f600484901c85165b60ff1690565b89610aa8565b517fff000000000000000000000000000000000000000000000000000000000000001690565b610bea610bdf610bda88610acf565b610aea565b9160001a918b610aa8565b531685610aa8565b610c11610c06610c0184610acf565b610af8565b9160001a9187610aa8565b5301610b6e565b6000198114610ae55760010190565b600019810191908211610ae557565b601f19810191908211610ae557565b908115610cee57600082805b610ccf575080610c618492610a66565b915b610c6c57509150565b610c78610cc891610c27565b93610cb3610c8b610b99600a8406610b06565b60f81b7fff000000000000000000000000000000000000000000000000000000000000001690565b60001a610cc08685610aa8565b53600a900490565b9283610c63565b9290610cdd610ce591610c18565b93600a900490565b80939193610c51565b9050604051610cfe60408261019e565b600181527f3000000000000000000000000000000000000000000000000000000000000000602082015290565b815115610d385760a00152565b7ffe936cb70000000000000000000000000000000000000000000000000000000060005260046000fd5b60405190610d7160408361019e565b600c82527f636f64654c6f636174696f6e00000000000000000000000000000000000000006020830152565b60405190610dac60408361019e565b600882527f6c616e67756167650000000000000000000000000000000000000000000000006020830152565b60405190610de760408361019e565b600682527f736f7572636500000000000000000000000000000000000000000000000000006020830152565b60405190610e2260408361019e565b600482527f61726773000000000000000000000000000000000000000000000000000000006020830152565b60405190610e5d60408361019e565b600f82527f736563726574734c6f636174696f6e00000000000000000000000000000000006020830152565b60405190610e9860408361019e565b600782527f73656372657473000000000000000000000000000000000000000000000000006020830152565b60405190610ed360408361019e565b600982527f62797465734172677300000000000000000000000000000000000000000000006020830152565b610f07611212565b90610f19610f13610d62565b83611243565b610f368151610f2781610650565b610f3081610650565b8361132b565b610f41610f13610d9d565b610f5b6040820151610f52816109bd565b610f30816109bd565b610f66610f13610dd8565b610f74606082015183611243565b60a0810180515161108c575b506080810190815151610ff4575b60c0915001805151610fa1575b50515190565b91610fad610f13610ec4565b610fb682611358565b60005b83518051821015610fe15790610fdb610fd482600194610626565b518561139d565b01610fb9565b50509150610fee8161137a565b38610f9b565b60208101805161100381610650565b61100c81610650565b156110625760c09261104561105d9261102c611026610e4e565b88611243565b5161103681610650565b61103f81610650565b8661132b565b611056611050610e89565b86611243565b518461139d565b610f8e565b7fa80d31f70000000000000000000000000000000000000000000000000000000060005260046000fd5b9261109e611098610e13565b84611243565b6110a783611358565b60005b845180518210156110d257906110cc6110c582600194610626565b5186611243565b016110aa565b505092506110df8261137a565b38610f80565b90816020910312610146575190565b929060209267ffffffffffffffff9263ffffffff61114d60405197889687967f461d276200000000000000000000000000000000000000000000000000000000885216600487015260a0602487015260a4860190610677565b92600160448601521660648401526084830152038160006001600160a01b037f0000000000000000000000000000000000000000000000000000000000000000165af190811561080a576000916111c9575b50807f1131472297a800fee664d1d89cfa8f7676ff07189ecc53f80bbb5f4969099db8600080a290565b6111eb915060203d6020116111f1575b6111e3818361019e565b8101906110e5565b3861119f565b503d6111d9565b6040519061120582610182565b6000602083606081520152565b60405161121e81610182565b60006112286111f8565b80835261123e6101006020850192848452611437565b505290565b815161129392919067ffffffffffffffff166017811161129657815161127e91611278906112716060610b99565b1760ff1690565b906115b9565b505b519061128a6111f8565b50805191611823565b50565b60ff81116112c35781516112bd91906112b590601860605b17906115b9565b5082516117a3565b50611280565b61ffff81116112e85781516112bd91906112e090601960606112ae565b50825161172a565b63ffffffff811161130f5781516112bd919061130790601a60606112ae565b5082516116b1565b81516112bd919061132390601b60606112ae565b508251611633565b906105249161133a8151611549565b506040519160208301526020825261135360408361019e565b61139d565b602090611367609f82516115b9565b500180519060018201809211610ae55752565b60209061138960ff82516115b9565b50018051600019810191908211610ae55752565b815161129392919067ffffffffffffffff16601781116113cb57815161127e91611278906112716040610b99565b60ff81116113e75781516112bd91906112b590601860406112ae565b61ffff81116114045781516112bd91906112e090601960406112ae565b63ffffffff81116114235781516112bd919061130790601a60406112ae565b81516112bd919061132390601b60406112ae565b906114406111f8565b50601f81168061146f575b50806020830152604051908183526000825281016020019081106101465760405290565b60200360208111610ae5578101809111610ae5573861144b565b906114926111f8565b50805161149d6111f8565b506114ab825182111561181c565b825151916114b98284610b22565b9060208501518211611532575b60209185518381519682010195821161152a575b505001905b602081101561150457600019906020036101000a019081199051169082511617905290565b909161151f6115196115259285518152610b14565b93610b14565b91610c36565b6114df565b5238806114da565b61154461153e83610acf565b866118c9565b6114c6565b6115516111f8565b508051516001810190818111610ae557602083015181101561158a575b60c26020845192830101538051821161158657505090565b5290565b8160011b82810460021483151715610ae5576115b3906115ac85519186611437565b5084611489565b5061156e565b906115c26111f8565b508151516001810191828211610ae55760208401518210156115f5575b6020845192830101538051821161158657505090565b8260011b83810460021484151715610ae55761161e9061161786519187611437565b5085611489565b506115df565b601f8111610ae5576101000a90565b9061163c6111f8565b50815151806008019182600811610ae55760208401518311611689575b61166b6116666008611624565b610c27565b90600885519384010191198251161790528051821161158657505090565b8260011b83810460021484151715610ae5576116ab9061161786519187611437565b50611659565b906116ba6111f8565b50815151806004019182600411610ae55760208401518311611702575b6116e46116666004611624565b90600485519384010191198251161790528051821161158657505090565b8260011b83810460021484151715610ae5576117249061161786519187611437565b506116d7565b906117336111f8565b50815151806002019182600211610ae5576020840151831161177b575b61175d6116666002611624565b90600285519384010191198251161790528051821161158657505090565b8260011b83810460021484151715610ae55761179d9061161786519187611437565b50611750565b906117ac6111f8565b50815151806001019182600111610ae557602084015183116117f4575b6117d66116666001611624565b90600185519384010191198251161790528051821161158657505090565b8260011b83810460021484151715610ae5576118169061161786519187611437565b506117c9565b1561014657565b9161182c6111f8565b5061183a825182111561181c565b60208351519261184a8385610b22565b8286015181116118b2575b8551838151968201019582116118aa575b505001905b602081101561189057600019906020036101000a019081199051169082511617905290565b909161151f6115196118a59285518152610b14565b61186b565b523880611866565b6118c46118be82610acf565b876118c9565b611855565b90611293916118da81519282611437565b5061148956fea2646970667358221220bc8da19b0e381947a1e0b7eb054d1872144f18c2e471f637d75cefd186768b1264736f6c634300081c0033",
  "linkReferences": {},
  "deployedLinkReferences": {}
}