{
  "_format": "hh-sol-artifact-1",
  "contractName": "AfterYieldOracle",
  "sourceName": "contracts/chainlink/AfterYieldOracle.sol",
  "abi": [
    {
      "inputs": [],
      "stateMutability": "nonpayable",
      "type": "constructor"
    },
    {
      "inputs": [
        {
          "internalType": "address",
          "name": "owner",
          "type": "address"
        }
      ],
      "name": "OwnableInvalidOwner",
      "type": "error"
    },
    {
      "inputs": [
        {
          "internalType": "address",
          "name": "account",
          "type": "address"
        }
      ],
      "name": "OwnableUnauthorizedAccount",
      "type": "error"
    },
    {
      "anonymous": false,
      "inputs": [
        {
          "indexed": true,
          "internalType": "address",
          "name": "previousOwner",
          "type": "address"
        },
        {
          "indexed": true,
          "internalType": "address",
          "name": "newOwner",
          "type": "address"
        }
      ],
      "name": "OwnershipTransferred",
      "type": "event"
    },
    {
      "anonymous": false,
      "inputs": [
        {
          "indexed": true,
          "internalType": "address",
          "name": "token",
          "type": "address"
        },
        {
          "indexed": false,
          "internalType": "address",
          "name": "feed",
          "type": "address"
        }
      ],
      "name": "TokenFeedSetted",
      "type": "event"
    },
    {
      "inputs": [
        {
          "internalType": "address",
          "name": "token",
          "type": "address"
        }
      ],
      "name": "getPrice",
      "outputs": [
        {
          "internalType": "int256",
          "name": "answer",
          "type": "int256"
        },
        {
          "internalType": "uint80",
          "name": "decimals",
          "type": "uint80"
        }
      ],
      "stateMutability": "view",
      "type": "function"
    },
    {
      "inputs": [],
      "name": "owner",
      "outputs": [
        {
          "internalType": "address",
          "name": "",
          "type": "address"
        }
      ],
      "stateMutability": "view",
      "type": "function"
    },
    {
      "inputs": [],
      "name": "renounceOwnership",
      "outputs": [],
      "stateMutability": "nonpayable",
      "type": "function"
    },
    {
      "inputs": [
        {
          "internalType": "address",
          "name": "token",
          "type": "address"
        },
        {
          "internalType": "address",
          "name": "feed",
          "type": "address"
        }
      ],
      "name": "setFeed",
      "outputs": [],
      "stateMutability": "nonpayable",
      "type": "function"
    },
    {
      "inputs": [
        {
          "internalType": "address",
          "name": "newOwner",
          "type": "address"
        }
      ],
      "name": "transferOwnership",
      "outputs": [],
      "stateMutability": "nonpayable",
      "type": "function"
    }
  ],
  "bytecode": "0x608080604052346075573315605f5760008054336001600160a01b0319821681178355916001600160a01b03909116907f8be0079c531659141344cd1fd0a4f28419497f9722a3daafe3b4186f6b6457e09080a3610414908161007b8239f35b631e4fbdf760e01b600052600060045260246000fd5b600080fdfe6080604052600436101561001257600080fd5b60003560e01c806340b1eb10146102d857806341976e0914610194578063715018a61461012e5780638da5cb5b146101075763f2fde38b1461005357600080fd5b34610102576020366003190112610102576001600160a01b0361007461036f565b61007c61039c565b1680156100d3576001600160a01b036000548273ffffffffffffffffffffffffffffffffffffffff19821617600055167f8be0079c531659141344cd1fd0a4f28419497f9722a3daafe3b4186f6b6457e0600080a3005b7f1e4fbdf700000000000000000000000000000000000000000000000000000000600052600060045260246000fd5b600080fd5b346101025760003660031901126101025760206001600160a01b0360005416604051908152f35b346101025760003660031901126101025761014761039c565b60006001600160a01b03815473ffffffffffffffffffffffffffffffffffffffff1981168355167f8be0079c531659141344cd1fd0a4f28419497f9722a3daafe3b4186f6b6457e08280a3005b34610102576020366003190112610102576001600160a01b036101b561036f565b166000526001602052600460a06001600160a01b0360406000205416604051928380927ffeaf968c0000000000000000000000000000000000000000000000000000000082525afa80156102cc576000918291610228575b6040805184815269ffffffffffffffffffff84166020820152f35b905060a03d60a0116102c5575b601f8101601f1916820167ffffffffffffffff8111838210176102985760a091839160405281010312610294576040915061026f81610385565b5069ffffffffffffffffffff61028c608060208401519301610385565b91925061020d565b5080fd5b6024847f4e487b710000000000000000000000000000000000000000000000000000000081526041600452fd5b503d610235565b6040513d6000823e3d90fd5b34610102576040366003190112610102576102f161036f565b602435906001600160a01b0382168092036101025760206001600160a01b037f525297283d3b930c85002a630a036f39234ee38df2a2b3bdcdc1cd4548bbce089261033a61039c565b1692836000526001825260406000208173ffffffffffffffffffffffffffffffffffffffff19825416179055604051908152a2005b600435906001600160a01b038216820361010257565b519069ffffffffffffffffffff8216820361010257565b6001600160a01b036000541633036103b057565b7f118cdaa7000000000000000000000000000000000000000000000000000000006000523360045260246000fdfea2646970667358221220d671d7e3454232a36b0714c37311fbed7bc049ab5a499498edf0cd6475473a2864736f6c634300081c0033",
  "linkReferences": {},
  "deployedLinkReferences": {}
}