{
  "_format": "hh-sol-artifact-1",
  "contractName": "AccountFactory",
  "sourceName": "contracts/AccountFactory.sol",
  "abi": [
    {
      "inputs": [],
      "stateMutability": "nonpayable",
      "type": "constructor"
    },
    {
      "inputs": [
        {
          "internalType": "address",
          "name": "owner",
          "type": "address"
        }
      ],
      "name": "OwnableInvalidOwner",
      "type": "error"
    },
    {
      "inputs": [
        {
          "internalType": "address",
          "name": "account",
          "type": "address"
        }
      ],
      "name": "OwnableUnauthorizedAccount",
      "type": "error"
    },
    {
      "inputs": [],
      "name": "ReentrancyGuardReentrantCall",
      "type": "error"
    },
    {
      "anonymous": false,
      "inputs": [
        {
          "indexed": true,
          "internalType": "address",
          "name": "owner",
          "type": "address"
        },
        {
          "indexed": false,
          "internalType": "address",
          "name": "account",
          "type": "address"
        }
      ],
      "name": "AccountCreated",
      "type": "event"
    },
    {
      "anonymous": false,
      "inputs": [
        {
          "indexed": true,
          "internalType": "address",
          "name": "previousOwner",
          "type": "address"
        },
        {
          "indexed": true,
          "internalType": "address",
          "name": "newOwner",
          "type": "address"
        }
      ],
      "name": "OwnershipTransferred",
      "type": "event"
    },
    {
      "inputs": [],
      "name": "createAccount",
      "outputs": [
        {
          "internalType": "contract IAccount",
          "name": "account",
          "type": "address"
        }
      ],
      "stateMutability": "nonpayable",
      "type": "function"
    },
    {
      "inputs": [
        {
          "internalType": "address",
          "name": "owner",
          "type": "address"
        }
      ],
      "name": "getAccount",
      "outputs": [
        {
          "internalType": "contract IAccount",
          "name": "account",
          "type": "address"
        }
      ],
      "stateMutability": "view",
      "type": "function"
    },
    {
      "inputs": [],
      "name": "owner",
      "outputs": [
        {
          "internalType": "address",
          "name": "",
          "type": "address"
        }
      ],
      "stateMutability": "view",
      "type": "function"
    },
    {
      "inputs": [],
      "name": "renounceOwnership",
      "outputs": [],
      "stateMutability": "nonpayable",
      "type": "function"
    },
    {
      "inputs": [
        {
          "internalType": "address",
          "name": "newOwner",
          "type": "address"
        }
      ],
      "name": "transferOwnership",
      "outputs": [],
      "stateMutability": "nonpayable",
      "type": "function"
    }
  ],
  "bytecode": "0x60808060405234607957331560635760008054336001600160a01b0319821681178355916001600160a01b03909116907f8be0079c531659141344cd1fd0a4f28419497f9722a3daafe3b4186f6b6457e09080a36001805561125c908161007f8239f35b631e4fbdf760e01b600052600060045260246000fd5b600080fdfe6080604052600436101561001257600080fd5b60003560e01c8063715018a6146102e95780638da5cb5b146102c25780639dca362f14610150578063f2fde38b1461009e5763fbcbc0f11461005357600080fd5b34610099576020366003190112610099576004356001600160a01b03811680910361009957600052600260205260206001600160a01b0360406000205416604051908152f35b600080fd5b34610099576020366003190112610099576004356001600160a01b038116809103610099576100cb61034f565b8015610121576001600160a01b036000548273ffffffffffffffffffffffffffffffffffffffff19821617600055167f8be0079c531659141344cd1fd0a4f28419497f9722a3daafe3b4186f6b6457e0600080a3005b7f1e4fbdf700000000000000000000000000000000000000000000000000000000600052600060045260246000fd5b3461009957600036600319011261009957600260015414610298576002600155600033815260026020526001600160a01b0360408220541615156000146101c2575033600052600260205260206001600160a01b03604060002054165b600180556001600160a01b0360405191168152f35b604051610e958082019082821067ffffffffffffffff83111761026b576020918391610392833933815203019082f090811561025f57506001600160a01b0360209116336000526002825260406000208173ffffffffffffffffffffffffffffffffffffffff198254161790556040518181527fac631f3001b55ea1509cf3d7e74898f85392a61a76e8149181ae1259622dabc8833392a26101ad565b604051903d90823e3d90fd5b6024847f4e487b710000000000000000000000000000000000000000000000000000000081526041600452fd5b7f3ee5aeb50000000000000000000000000000000000000000000000000000000060005260046000fd5b346100995760003660031901126100995760206001600160a01b0360005416604051908152f35b346100995760003660031901126100995761030261034f565b60006001600160a01b03815473ffffffffffffffffffffffffffffffffffffffff1981168355167f8be0079c531659141344cd1fd0a4f28419497f9722a3daafe3b4186f6b6457e08280a3005b6001600160a01b0360005416330361036357565b7f118cdaa7000000000000000000000000000000000000000000000000000000006000523360045260246000fdfe60803460bc57601f610e9538819003918201601f19168301916001600160401b0383118484101760c15780849260209460405283398101031260bc57516001600160a01b0381169081900360bc57801560a657600080546001600160a01b031981168317825560405192916001600160a01b03909116907f8be0079c531659141344cd1fd0a4f28419497f9722a3daafe3b4186f6b6457e09080a3610dbd90816100d88239f35b631e4fbdf760e01b600052600060045260246000fd5b600080fd5b634e487b7160e01b600052604160045260246000fdfe6080604052600436101561001b575b361561001957600080fd5b005b60003560e01c80632cde49f414610b635780632d66f07f14610b0c57806347e7ef2414610a1e5780636e8cb0a5146109d8578063715018a614610972578063893d20e81461094b5780638da5cb5b1461094b57806393a9f24d1461079d578063ce8c42e8146105e8578063d570e9541461047f578063de6d6d961461022f578063eac3fda4146101635763f2fde38b0361000e573461015e57602036600319011261015e576001600160a01b036100d0610b90565b6100d8610d45565b16801561012f576001600160a01b036000548273ffffffffffffffffffffffffffffffffffffffff19821617600055167f8be0079c531659141344cd1fd0a4f28419497f9722a3daafe3b4186f6b6457e0600080a3005b7f1e4fbdf700000000000000000000000000000000000000000000000000000000600052600060045260246000fd5b600080fd5b3461015e57600036600319011261015e576040518060206001549283815201809260016000527fb10e2d527612073b26eecdfd717e6a320cf44b4afac2b0732d9fcbe2b7fa0cf69060005b81811061021057505050816101c4910382610bba565b6040519182916020830190602084525180915260408301919060005b8181106101ee575050500390f35b82516001600160a01b03168452859450602093840193909201916001016101e0565b82546001600160a01b03168452602090930192600192830192016101ae565b3461015e57604036600319011261015e5760043567ffffffffffffffff811161015e573660238201121561015e5780600401359061026c82610bdc565b9161027a6040519384610bba565b8083526024602084019160051b8301019136831161015e57602401905b828210610467578360243567ffffffffffffffff811161015e573660238201121561015e578060040135906102cb82610bdc565b916102d96040519384610bba565b8083526024602084019160051b8301019136831161015e57602401905b82821061045757505050610308610d45565b81518151036104135760005b8251811015610019576001600160a01b0361032f8285610c93565b511661033b8284610c93565b519073eeeeeeeeeeeeeeeeeeeeeeeeeeeeeeeeeeeeeeee810361039757506000808080936001600160a01b0382541682821561038e575bf115610382576001905b01610314565b6040513d6000823e3d90fd5b506108fc610372565b6000805460405163a9059cbb60e01b81526001600160a01b039091166004820152602481019390935291929160209184916044918391905af1918215610382576001926103e5575b5061037c565b6104059060203d811161040c575b6103fd8183610bba565b810190610c7b565b50846103df565b503d6103f3565b606460405162461bcd60e51b815260206004820152601860248201527f4d69736d617463686564206172726179206c656e6774687300000000000000006044820152fd5b81358152602091820191016102f6565b6020809161047484610ba6565b815201910190610297565b3461015e5761048d36610bf4565b610495610d45565b60005b8151811015610019576001600160a01b036104b38284610c93565b5116906104bf82610cf7565b156104cf575b6001915001610498565b600154680100000000000000008110156105d257826104f78260016105169401600155610cbd565b9091906001600160a01b038084549260031b9316831b921b1916179055565b60405163ca709a2560e01b8152602081600481865afa8015610382576001600160a01b03936020926000926105a0575b506044906000604051968794859363095ea7b360e01b8552600485015282196024850152165af191821561038257600192610582575b506104c5565b6105999060203d811161040c576103fd8183610bba565b508361057c565b60449192506105c490843d81116105cb575b6105bc8183610bba565b810190610cd8565b9190610546565b503d6105b2565b634e487b7160e01b600052604160045260246000fd5b3461015e57602036600319011261015e5760043533600052600260205260ff6040600020541660028110156107875760010361074357604051907f5c222bad000000000000000000000000000000000000000000000000000000008252602082600481335afa918215610382576000926106f3575b506000916001600160a01b031673eeeeeeeeeeeeeeeeeeeeeeeeeeeeeeeeeeeeeeee81036106a557508180809281811561069c575b3390f11561038257005b506108fc610692565b60405163a9059cbb60e01b81523360048201526024810192909252909160209183916044918391905af18015610382576106db57005b6100199060203d60201161040c576103fd8183610bba565b6020813d60201161073b575b8161070c60209383610bba565b810103126107375751916001600160a01b038316830361073457506001600160a01b0361065d565b80fd5b8280fd5b3d91506106ff565b606460405162461bcd60e51b815260206004820152601060248201527f4175746f50696c6f74206973206f6666000000000000000000000000000000006044820152fd5b634e487b7160e01b600052602160045260246000fd5b3461015e576107ab36610bf4565b6107b3610d45565b60005b8151811015610019576001600160a01b036107d18284610c93565b51169060005b600154908181101561094057836001600160a01b036107f583610cbd565b90549060031b1c161461080c5760019150016107d7565b600019820191821161092a576104f76001600160a01b0361082f61083d94610cbd565b90549060031b1c1691610cbd565b6001548015610914576000190161085381610cbd565b6001600160a01b0382549160031b1b1916905560015560405163ca709a2560e01b8152602081600481865afa8015610382576001600160a01b03936020926000926108f2575b506044906000604051968794859363095ea7b360e01b85526004850152826024850152165af1918215610382576001926108d6575b505b016107b6565b6108ed9060203d811161040c576103fd8183610bba565b6108ce565b604491925061090d90843d81116105cb576105bc8183610bba565b9190610899565b634e487b7160e01b600052603160045260246000fd5b634e487b7160e01b600052601160045260246000fd5b5050600191506108d0565b3461015e57600036600319011261015e5760206001600160a01b0360005416604051908152f35b3461015e57600036600319011261015e5761098b610d45565b60006001600160a01b03815473ffffffffffffffffffffffffffffffffffffffff1981168355167f8be0079c531659141344cd1fd0a4f28419497f9722a3daafe3b4186f6b6457e08280a3005b3461015e57602036600319011261015e576001600160a01b036109f9610b90565b16600052600260205260ff604060002054166040516002821015610787576020918152f35b604036600319011261015e57610a32610b90565b6001600160a01b0360243591610a46610d45565b1673eeeeeeeeeeeeeeeeeeeeeeeeeeeeeeeeeeeeeeee8103610aaf57503403610a6b57005b606460405162461bcd60e51b815260206004820152601860248201527f496e636f7272656374204554482076616c75652073656e7400000000000000006044820152fd5b9060209060646001600160a01b0360005416600060405195869485937f23b872dd000000000000000000000000000000000000000000000000000000008552600485015230602485015260448401525af18015610382576106db57005b3461015e57604036600319011261015e57610b25610b90565b60243590600282101561015e576001600160a01b0390610b43610d45565b16600052600260205260406000209060ff80198354169116179055600080f35b3461015e57602036600319011261015e576020610b86610b81610b90565b610cf7565b6040519015158152f35b600435906001600160a01b038216820361015e57565b35906001600160a01b038216820361015e57565b90601f8019910116810190811067ffffffffffffffff8211176105d257604052565b67ffffffffffffffff81116105d25760051b60200190565b602060031982011261015e576004359067ffffffffffffffff821161015e578060238301121561015e578160040135610c2c81610bdc565b92610c3a6040519485610bba565b8184526024602085019260051b82010192831161015e57602401905b828210610c635750505090565b60208091610c7084610ba6565b815201910190610c56565b9081602091031261015e5751801515810361015e5790565b8051821015610ca75760209160051b010190565b634e487b7160e01b600052603260045260246000fd5b600154811015610ca757600160005260206000200190600090565b9081602091031261015e57516001600160a01b038116810361015e5790565b6001549060005b828110610d0d57505050600090565b6001600160a01b03610d1e82610cbd565b90549060031b1c166001600160a01b03831614610d3d57600101610cfe565b505050600190565b6001600160a01b03600054163303610d5957565b7f118cdaa7000000000000000000000000000000000000000000000000000000006000523360045260246000fdfea2646970667358221220b6ffb6bf3f6972f2b6aeada7024e86516da198d7972e6100836a67a2617d692564736f6c634300081c0033a2646970667358221220115a06e692d92f3063db4b0e1055f795d43c6a9154aaff1c180e4e166a42a9c364736f6c634300081c0033",
  "linkReferences": {},
  "deployedLinkReferences": {}
}