{
  "_format": "hh-sol-artifact-1",
  "contractName": "AccountFactory",
  "sourceName": "contracts/AccountFactory.sol",
  "abi": [
    {
      "inputs": [],
      "stateMutability": "nonpayable",
      "type": "constructor"
    },
    {
      "inputs": [
        {
          "internalType": "address",
          "name": "owner",
          "type": "address"
        }
      ],
      "name": "OwnableInvalidOwner",
      "type": "error"
    },
    {
      "inputs": [
        {
          "internalType": "address",
          "name": "account",
          "type": "address"
        }
      ],
      "name": "OwnableUnauthorizedAccount",
      "type": "error"
    },
    {
      "inputs": [],
      "name": "ReentrancyGuardReentrantCall",
      "type": "error"
    },
    {
      "anonymous": false,
      "inputs": [
        {
          "indexed": true,
          "internalType": "address",
          "name": "owner",
          "type": "address"
        },
        {
          "indexed": false,
          "internalType": "address",
          "name": "account",
          "type": "address"
        }
      ],
      "name": "AccountCreated",
      "type": "event"
    },
    {
      "anonymous": false,
      "inputs": [
        {
          "indexed": true,
          "internalType": "address",
          "name": "previousOwner",
          "type": "address"
        },
        {
          "indexed": true,
          "internalType": "address",
          "name": "newOwner",
          "type": "address"
        }
      ],
      "name": "OwnershipTransferred",
      "type": "event"
    },
    {
      "inputs": [],
      "name": "createAccount",
      "outputs": [
        {
          "internalType": "contract IAccount",
          "name": "account",
          "type": "address"
        }
      ],
      "stateMutability": "nonpayable",
      "type": "function"
    },
    {
      "inputs": [
        {
          "internalType": "address",
          "name": "owner",
          "type": "address"
        }
      ],
      "name": "getAccount",
      "outputs": [
        {
          "internalType": "contract IAccount",
          "name": "account",
          "type": "address"
        }
      ],
      "stateMutability": "view",
      "type": "function"
    },
    {
      "inputs": [],
      "name": "owner",
      "outputs": [
        {
          "internalType": "address",
          "name": "",
          "type": "address"
        }
      ],
      "stateMutability": "view",
      "type": "function"
    },
    {
      "inputs": [],
      "name": "renounceOwnership",
      "outputs": [],
      "stateMutability": "nonpayable",
      "type": "function"
    },
    {
      "inputs": [
        {
          "internalType": "address",
          "name": "newOwner",
          "type": "address"
        }
      ],
      "name": "transferOwnership",
      "outputs": [],
      "stateMutability": "nonpayable",
      "type": "function"
    }
  ],
  "bytecode": "0x60808060405234607957331560635760008054336001600160a01b0319821681178355916001600160a01b03909116907f8be0079c531659141344cd1fd0a4f28419497f9722a3daafe3b4186f6b6457e09080a36001805561120b908161007f8239f35b631e4fbdf760e01b600052600060045260246000fd5b600080fdfe6080604052600436101561001257600080fd5b60003560e01c8063715018a6146102e95780638da5cb5b146102c25780639dca362f14610150578063f2fde38b1461009e5763fbcbc0f11461005357600080fd5b34610099576020366003190112610099576004356001600160a01b03811680910361009957600052600260205260206001600160a01b0360406000205416604051908152f35b600080fd5b34610099576020366003190112610099576004356001600160a01b038116809103610099576100cb61034f565b8015610121576001600160a01b036000548273ffffffffffffffffffffffffffffffffffffffff19821617600055167f8be0079c531659141344cd1fd0a4f28419497f9722a3daafe3b4186f6b6457e0600080a3005b7f1e4fbdf700000000000000000000000000000000000000000000000000000000600052600060045260246000fd5b3461009957600036600319011261009957600260015414610298576002600155600033815260026020526001600160a01b0360408220541615156000146101c2575033600052600260205260206001600160a01b03604060002054165b600180556001600160a01b0360405191168152f35b604051610e448082019082821067ffffffffffffffff83111761026b576020918391610392833933815203019082f090811561025f57506001600160a01b0360209116336000526002825260406000208173ffffffffffffffffffffffffffffffffffffffff198254161790556040518181527fac631f3001b55ea1509cf3d7e74898f85392a61a76e8149181ae1259622dabc8833392a26101ad565b604051903d90823e3d90fd5b6024847f4e487b710000000000000000000000000000000000000000000000000000000081526041600452fd5b7f3ee5aeb50000000000000000000000000000000000000000000000000000000060005260046000fd5b346100995760003660031901126100995760206001600160a01b0360005416604051908152f35b346100995760003660031901126100995761030261034f565b60006001600160a01b03815473ffffffffffffffffffffffffffffffffffffffff1981168355167f8be0079c531659141344cd1fd0a4f28419497f9722a3daafe3b4186f6b6457e08280a3005b6001600160a01b0360005416330361036357565b7f118cdaa7000000000000000000000000000000000000000000000000000000006000523360045260246000fdfe60803460bc57601f610e4438819003918201601f19168301916001600160401b0383118484101760c15780849260209460405283398101031260bc57516001600160a01b0381169081900360bc57801560a657600080546001600160a01b031981168317825560405192916001600160a01b03909116907f8be0079c531659141344cd1fd0a4f28419497f9722a3daafe3b4186f6b6457e09080a3610d6c90816100d88239f35b631e4fbdf760e01b600052600060045260246000fd5b600080fd5b634e487b7160e01b600052604160045260246000fdfe6080604052600436101561001b575b361561001957600080fd5b005b60003560e01c80632cde49f414610b125780632d66f07f14610abb57806347e7ef24146109cd578063715018a614610967578063893d20e8146109405780638da5cb5b1461094057806393a9f24d14610792578063ce8c42e8146105dd578063d570e95414610474578063de6d6d9614610224578063eac3fda4146101585763f2fde38b0361000e5734610153576020366003190112610153576001600160a01b036100c5610b3f565b6100cd610cf4565b168015610124576001600160a01b036000548273ffffffffffffffffffffffffffffffffffffffff19821617600055167f8be0079c531659141344cd1fd0a4f28419497f9722a3daafe3b4186f6b6457e0600080a3005b7f1e4fbdf700000000000000000000000000000000000000000000000000000000600052600060045260246000fd5b600080fd5b34610153576000366003190112610153576040518060206001549283815201809260016000527fb10e2d527612073b26eecdfd717e6a320cf44b4afac2b0732d9fcbe2b7fa0cf69060005b81811061020557505050816101b9910382610b69565b6040519182916020830190602084525180915260408301919060005b8181106101e3575050500390f35b82516001600160a01b03168452859450602093840193909201916001016101d5565b82546001600160a01b03168452602090930192600192830192016101a3565b346101535760403660031901126101535760043567ffffffffffffffff811161015357366023820112156101535780600401359061026182610b8b565b9161026f6040519384610b69565b8083526024602084019160051b8301019136831161015357602401905b82821061045c578360243567ffffffffffffffff81116101535736602382011215610153578060040135906102c082610b8b565b916102ce6040519384610b69565b8083526024602084019160051b8301019136831161015357602401905b82821061044c575050506102fd610cf4565b81518151036104085760005b8251811015610019576001600160a01b036103248285610c42565b51166103308284610c42565b519073eeeeeeeeeeeeeeeeeeeeeeeeeeeeeeeeeeeeeeee810361038c57506000808080936001600160a01b03825416828215610383575bf115610377576001905b01610309565b6040513d6000823e3d90fd5b506108fc610367565b6000805460405163a9059cbb60e01b81526001600160a01b039091166004820152602481019390935291929160209184916044918391905af1918215610377576001926103da575b50610371565b6103fa9060203d8111610401575b6103f28183610b69565b810190610c2a565b50846103d4565b503d6103e8565b606460405162461bcd60e51b815260206004820152601860248201527f4d69736d617463686564206172726179206c656e6774687300000000000000006044820152fd5b81358152602091820191016102eb565b6020809161046984610b55565b81520191019061028c565b346101535761048236610ba3565b61048a610cf4565b60005b8151811015610019576001600160a01b036104a88284610c42565b5116906104b482610ca6565b156104c4575b600191500161048d565b600154680100000000000000008110156105c757826104ec82600161050b9401600155610c6c565b9091906001600160a01b038084549260031b9316831b921b1916179055565b60405163ca709a2560e01b8152602081600481865afa8015610377576001600160a01b0393602092600092610595575b506044906000604051968794859363095ea7b360e01b8552600485015282196024850152165af191821561037757600192610577575b506104ba565b61058e9060203d8111610401576103f28183610b69565b5083610571565b60449192506105b990843d81116105c0575b6105b18183610b69565b810190610c87565b919061053b565b503d6105a7565b634e487b7160e01b600052604160045260246000fd5b346101535760203660031901126101535760043533600052600260205260ff60406000205416600281101561077c5760010361073857604051907f5c222bad000000000000000000000000000000000000000000000000000000008252602082600481335afa918215610377576000926106e8575b506000916001600160a01b031673eeeeeeeeeeeeeeeeeeeeeeeeeeeeeeeeeeeeeeee810361069a575081808092818115610691575b3390f11561037757005b506108fc610687565b60405163a9059cbb60e01b81523360048201526024810192909252909160209183916044918391905af18015610377576106d057005b6100199060203d602011610401576103f28183610b69565b6020813d602011610730575b8161070160209383610b69565b8101031261072c5751916001600160a01b038316830361072957506001600160a01b03610652565b80fd5b8280fd5b3d91506106f4565b606460405162461bcd60e51b815260206004820152601060248201527f4175746f50696c6f74206973206f6666000000000000000000000000000000006044820152fd5b634e487b7160e01b600052602160045260246000fd5b34610153576107a036610ba3565b6107a8610cf4565b60005b8151811015610019576001600160a01b036107c68284610c42565b51169060005b600154908181101561093557836001600160a01b036107ea83610c6c565b90549060031b1c16146108015760019150016107cc565b600019820191821161091f576104ec6001600160a01b0361082461083294610c6c565b90549060031b1c1691610c6c565b6001548015610909576000190161084881610c6c565b6001600160a01b0382549160031b1b1916905560015560405163ca709a2560e01b8152602081600481865afa8015610377576001600160a01b03936020926000926108e7575b506044906000604051968794859363095ea7b360e01b85526004850152826024850152165af1918215610377576001926108cb575b505b016107ab565b6108e29060203d8111610401576103f28183610b69565b6108c3565b604491925061090290843d81116105c0576105b18183610b69565b919061088e565b634e487b7160e01b600052603160045260246000fd5b634e487b7160e01b600052601160045260246000fd5b5050600191506108c5565b346101535760003660031901126101535760206001600160a01b0360005416604051908152f35b3461015357600036600319011261015357610980610cf4565b60006001600160a01b03815473ffffffffffffffffffffffffffffffffffffffff1981168355167f8be0079c531659141344cd1fd0a4f28419497f9722a3daafe3b4186f6b6457e08280a3005b6040366003190112610153576109e1610b3f565b6001600160a01b03602435916109f5610cf4565b1673eeeeeeeeeeeeeeeeeeeeeeeeeeeeeeeeeeeeeeee8103610a5e57503403610a1a57005b606460405162461bcd60e51b815260206004820152601860248201527f496e636f7272656374204554482076616c75652073656e7400000000000000006044820152fd5b9060209060646001600160a01b0360005416600060405195869485937f23b872dd000000000000000000000000000000000000000000000000000000008552600485015230602485015260448401525af18015610377576106d057005b3461015357604036600319011261015357610ad4610b3f565b602435906002821015610153576001600160a01b0390610af2610cf4565b16600052600260205260406000209060ff80198354169116179055600080f35b34610153576020366003190112610153576020610b35610b30610b3f565b610ca6565b6040519015158152f35b600435906001600160a01b038216820361015357565b35906001600160a01b038216820361015357565b90601f8019910116810190811067ffffffffffffffff8211176105c757604052565b67ffffffffffffffff81116105c75760051b60200190565b6020600319820112610153576004359067ffffffffffffffff82116101535780602383011215610153578160040135610bdb81610b8b565b92610be96040519485610b69565b8184526024602085019260051b82010192831161015357602401905b828210610c125750505090565b60208091610c1f84610b55565b815201910190610c05565b90816020910312610153575180151581036101535790565b8051821015610c565760209160051b010190565b634e487b7160e01b600052603260045260246000fd5b600154811015610c5657600160005260206000200190600090565b9081602091031261015357516001600160a01b03811681036101535790565b6001549060005b828110610cbc57505050600090565b6001600160a01b03610ccd82610c6c565b90549060031b1c166001600160a01b03831614610cec57600101610cad565b505050600190565b6001600160a01b03600054163303610d0857565b7f118cdaa7000000000000000000000000000000000000000000000000000000006000523360045260246000fdfea2646970667358221220c7488d2d45333ac68c3f60909c01f2f8d4bc290776c45564b8d860fe4889dcc264736f6c634300081c0033a26469706673582212202a793f20dacb1985eedd51d52ef6a7f177a898c9df63f7904df900592c97dd3e64736f6c634300081c0033",
  "linkReferences": {},
  "deployedLinkReferences": {}
}