{
  "_format": "hh-sol-artifact-1",
  "contractName": "AfterYieldFunctions",
  "sourceName": "contracts/chainlink/AfterYieldFunctions.sol",
  "abi": [
    {
      "inputs": [
        {
          "internalType": "address",
          "name": "oracle",
          "type": "address"
        },
        {
          "internalType": "bytes32",
          "name": "donId",
          "type": "bytes32"
        },
        {
          "internalType": "string",
          "name": "source",
          "type": "string"
        }
      ],
      "stateMutability": "nonpayable",
      "type": "constructor"
    },
    {
      "inputs": [],
      "name": "EmptyArgs",
      "type": "error"
    },
    {
      "inputs": [],
      "name": "EmptySource",
      "type": "error"
    },
    {
      "inputs": [],
      "name": "NoInlineSecrets",
      "type": "error"
    },
    {
      "inputs": [],
      "name": "OnlyRouterCanFulfill",
      "type": "error"
    },
    {
      "inputs": [
        {
          "internalType": "address",
          "name": "owner",
          "type": "address"
        }
      ],
      "name": "OwnableInvalidOwner",
      "type": "error"
    },
    {
      "inputs": [
        {
          "internalType": "address",
          "name": "account",
          "type": "address"
        }
      ],
      "name": "OwnableUnauthorizedAccount",
      "type": "error"
    },
    {
      "anonymous": false,
      "inputs": [
        {
          "indexed": true,
          "internalType": "bytes32",
          "name": "requestId",
          "type": "bytes32"
        },
        {
          "indexed": false,
          "internalType": "bytes",
          "name": "result",
          "type": "bytes"
        },
        {
          "indexed": false,
          "internalType": "bytes",
          "name": "err",
          "type": "bytes"
        }
      ],
      "name": "OCRResponse",
      "type": "event"
    },
    {
      "anonymous": false,
      "inputs": [
        {
          "indexed": true,
          "internalType": "address",
          "name": "previousOwner",
          "type": "address"
        },
        {
          "indexed": true,
          "internalType": "address",
          "name": "newOwner",
          "type": "address"
        }
      ],
      "name": "OwnershipTransferred",
      "type": "event"
    },
    {
      "anonymous": false,
      "inputs": [
        {
          "indexed": true,
          "internalType": "bytes32",
          "name": "id",
          "type": "bytes32"
        }
      ],
      "name": "RequestFulfilled",
      "type": "event"
    },
    {
      "anonymous": false,
      "inputs": [
        {
          "indexed": true,
          "internalType": "bytes32",
          "name": "id",
          "type": "bytes32"
        }
      ],
      "name": "RequestSent",
      "type": "event"
    },
    {
      "inputs": [
        {
          "internalType": "bytes32",
          "name": "requestId",
          "type": "bytes32"
        },
        {
          "internalType": "bytes",
          "name": "response",
          "type": "bytes"
        },
        {
          "internalType": "bytes",
          "name": "err",
          "type": "bytes"
        }
      ],
      "name": "handleOracleFulfillment",
      "outputs": [],
      "stateMutability": "nonpayable",
      "type": "function"
    },
    {
      "inputs": [
        {
          "internalType": "enum Enums.TaskType",
          "name": "taskType",
          "type": "uint8"
        },
        {
          "internalType": "string[]",
          "name": "args",
          "type": "string[]"
        },
        {
          "internalType": "uint64",
          "name": "subscriptionId",
          "type": "uint64"
        },
        {
          "internalType": "uint32",
          "name": "gasLimit",
          "type": "uint32"
        }
      ],
      "name": "makeRequest",
      "outputs": [
        {
          "internalType": "bytes32",
          "name": "requestId",
          "type": "bytes32"
        }
      ],
      "stateMutability": "nonpayable",
      "type": "function"
    },
    {
      "inputs": [],
      "name": "owner",
      "outputs": [
        {
          "internalType": "address",
          "name": "",
          "type": "address"
        }
      ],
      "stateMutability": "view",
      "type": "function"
    },
    {
      "inputs": [],
      "name": "renounceOwnership",
      "outputs": [],
      "stateMutability": "nonpayable",
      "type": "function"
    },
    {
      "inputs": [
        {
          "internalType": "address",
          "name": "newOwner",
          "type": "address"
        }
      ],
      "name": "transferOwnership",
      "outputs": [],
      "stateMutability": "nonpayable",
      "type": "function"
    }
  ],
  "bytecode": "0x60a0604052346102b25761198980380380610019816102b7565b9283398101906060818303126102b25780516001600160a01b038116908190036102b2576020820151604083015190926001600160401b0382116102b2570183601f820112156102b2578051906001600160401b03821161027157610087601f8301601f19166020016102b7565b94828652602083830101116102b25760005b82811061029d57505060206000918501015260805233156102875760008054336001600160a01b0319821681178355916001600160a01b03909116907f8be0079c531659141344cd1fd0a4f28419497f9722a3daafe3b4186f6b6457e09080a360015580516001600160401b03811161027157600254600181811c91168015610267575b602082101461025157601f81116101ec575b50602091601f82116001146101885791819260009261017d575b50508160011b916000199060031b1c1916176002555b6040516116ac90816102dd823960805181818160c50152610e980152f35b015190503880610149565b601f198216926002600052806000209160005b8581106101d4575083600195106101bb575b505050811b0160025561015f565b015160001960f88460031b161c191690553880806101ad565b9192602060018192868501518155019401920161019b565b60026000527f405787fa12a823e0f2b7631cc41b3ba8828b3321ca811111fa75cd3aa3bb5ace601f830160051c81019160208410610247575b601f0160051c01905b81811061023b575061012f565b6000815560010161022e565b9091508190610225565b634e487b7160e01b600052602260045260246000fd5b90607f169061011d565b634e487b7160e01b600052604160045260246000fd5b631e4fbdf760e01b600052600060045260246000fd5b80602080928401015182828901015201610099565b600080fd5b6040519190601f01601f191682016001600160401b038111838210176102715760405256fe6080604052600436101561001257600080fd5b60003560e01c80630ca7617514610067578063715018a6146100625780638da5cb5b1461005d578063b1151e6c146100585763f2fde38b1461005357600080fd5b61037c565b6102e7565b610296565b610230565b346101465760603660031901126101465760043560243567ffffffffffffffff81116101465761009b903690600401610207565b60443567ffffffffffffffff8111610146576100bb903690600401610207565b6001600160a01b037f000000000000000000000000000000000000000000000000000000000000000016330361011c576100f5918361071f565b7f85e1543bf2f84fe80c6badbce3648c8539ad1df4d2b3d822938ca0538be727e6600080a2005b7fc6829f830000000000000000000000000000000000000000000000000000000060005260046000fd5b600080fd5b634e487b7160e01b600052604160045260246000fd5b60e0810190811067ffffffffffffffff82111761017d57604052565b61014b565b6040810190811067ffffffffffffffff82111761017d57604052565b90601f8019910116810190811067ffffffffffffffff82111761017d57604052565b92919267ffffffffffffffff821161017d57604051916101ea601f8201601f19166020018461019e565b829481845281830111610146578281602093846000960137010152565b9080601f8301121561014657816020610222933591016101c0565b90565b600091031261014657565b346101465760003660031901126101465761024961099d565b60006001600160a01b03815473ffffffffffffffffffffffffffffffffffffffff1981168355167f8be0079c531659141344cd1fd0a4f28419497f9722a3daafe3b4186f6b6457e08280a3005b346101465760003660031901126101465760206001600160a01b0360005416604051908152f35b6044359067ffffffffffffffff8216820361014657565b6064359063ffffffff8216820361014657565b346101465760803660031901126101465760043560038110156101465760243567ffffffffffffffff811161014657366023820112156101465780600401359067ffffffffffffffff8211610146573660248360051b830101116101465761037892610368926103556102bd565b9160246103606102d4565b9401906104f1565b6040519081529081906020820190565b0390f35b34610146576020366003190112610146576004356001600160a01b038116809103610146576103a961099d565b80156103ff576001600160a01b036000548273ffffffffffffffffffffffffffffffffffffffff19821617600055167f8be0079c531659141344cd1fd0a4f28419497f9722a3daafe3b4186f6b6457e0600080a3005b7f1e4fbdf700000000000000000000000000000000000000000000000000000000600052600060045260246000fd5b9291909267ffffffffffffffff841161017d578360051b9160206040516104578286018261019e565b8096815201928201918183116101465780935b838510610478575050505050565b843567ffffffffffffffff811161014657820183601f82011215610146576020916104a985838580953591016101c0565b81520194019361046a565b634e487b7160e01b600052602160045260246000fd5b600311156104d457565b6104b4565b906104e3816104ca565b60ff80198354169116179055565b949391906040519161050283610161565b60008352600060208401526000604084015260608084015260606080840152606060a0840152606060c084015260405160006002548060011c9060018116908115610692575b60208310821461067e578285526020850191908115610663575060011461060e575b505061059d6105b296946105a8946105968561059061060c9c9a976105a397038261019e565b866109e9565b369161042e565b82610a2b565b610c29565b9160015492610e1e565b926105f3336105cb866000526003602052604060002090565b906001600160a01b031673ffffffffffffffffffffffffffffffffffffffff19825416179055565b610607846000526004602052604060002090565b6104d9565b565b600260009081529250907f405787fa12a823e0f2b7631cc41b3ba8828b3321ca811111fa75cd3aa3bb5ace5b81841061064f5750500161059d6105b261056a565b80548484015260209093019260010161063a565b60ff191682525090151560051b01905061059d6105b261056a565b602484634e487b7160e01b81526022600452fd5b91607f1691610548565b919082519283825260005b8481106106c8575050826000602080949584010152601f8019910116010190565b806020809284010151828286010152016106a7565b90602061022292818152019061069c565b6040513d6000823e3d90fd5b90916107116102229360408452604084019061069c565b91602081840391015261069c565b91610744610737846000526003602052604060002090565b546001600160a01b031690565b61076261075b856000526004602052604060002090565b5460ff1690565b83511561099657825161099657610778816104ca565b8061083157506001600160a01b031691823b1561014657600060405180947f4b8376490000000000000000000000000000000000000000000000000000000082528183816107c987600483016106dd565b03925af192831561082c577f7bab0ec163b5c132c72b8146ac4d6e067e82ed58f8b131150aa71c925891156293610811575b505b61080c604051928392836106fa565b0390a2565b8061082060006108269361019e565b80610225565b386107fb565b6106ee565b61083a816104ca565b600181036108db57506001600160a01b031691823b1561014657600060405180947f47a471a100000000000000000000000000000000000000000000000000000000825281838161088e87600483016106dd565b03925af192831561082c577f7bab0ec163b5c132c72b8146ac4d6e067e82ed58f8b131150aa71c9258911562936108c6575b506107fd565b8061082060006108d59361019e565b386108c0565b806108e76002926104ca565b03610937576001600160a01b031691823b1561014657600060405180947fe0ab465000000000000000000000000000000000000000000000000000000000825281838161088e87600483016106dd565b6040517f08c379a000000000000000000000000000000000000000000000000000000000815260206004820152601160248201527f496e76616c6964207461736b20747970650000000000000000000000000000006044820152606490fd5b5050505050565b6001600160a01b036000541633036109b157565b7f118cdaa7000000000000000000000000000000000000000000000000000000006000523360045260246000fd5b600111156104d457565b6000825115610a0357506000808252604082015260600152565b807f22ce3edd0000000000000000000000000000000000000000000000000000000060049252fd5b815115610a385760a00152565b7ffe936cb70000000000000000000000000000000000000000000000000000000060005260046000fd5b60405190610a7160408361019e565b600c82527f636f64654c6f636174696f6e00000000000000000000000000000000000000006020830152565b60405190610aac60408361019e565b600882527f6c616e67756167650000000000000000000000000000000000000000000000006020830152565b60405190610ae760408361019e565b600682527f736f7572636500000000000000000000000000000000000000000000000000006020830152565b60405190610b2260408361019e565b600482527f61726773000000000000000000000000000000000000000000000000000000006020830152565b8051821015610b625760209160051b010190565b634e487b7160e01b600052603260045260246000fd5b60405190610b8760408361019e565b600f82527f736563726574734c6f636174696f6e00000000000000000000000000000000006020830152565b60405190610bc260408361019e565b600782527f73656372657473000000000000000000000000000000000000000000000000006020830152565b60405190610bfd60408361019e565b600982527f62797465734172677300000000000000000000000000000000000000000000006020830152565b610c31610f3c565b90610c43610c3d610a62565b83610f6d565b610c608151610c51816104ca565b610c5a816104ca565b83611057565b610c6b610c3d610a9d565b610c856040820151610c7c816109df565b610c5a816109df565b610c90610c3d610ad8565b610c9e606082015183610f6d565b60a08101805151610db6575b506080810190815151610d1e575b60c0915001805151610ccb575b50515190565b91610cd7610c3d610bee565b610ce0826110ba565b60005b83518051821015610d0b5790610d05610cfe82600194610b4e565b518561111d565b01610ce3565b50509150610d18816110fa565b38610cc5565b602081018051610d2d816104ca565b610d36816104ca565b15610d8c5760c092610d6f610d8792610d56610d50610b78565b88610f6d565b51610d60816104ca565b610d69816104ca565b86611057565b610d80610d7a610bb3565b86610f6d565b518461111d565b610cb8565b7fa80d31f70000000000000000000000000000000000000000000000000000000060005260046000fd5b92610dc8610dc2610b13565b84610f6d565b610dd1836110ba565b60005b84518051821015610dfc5790610df6610def82600194610b4e565b5186610f6d565b01610dd4565b50509250610e09826110fa565b38610caa565b90816020910312610146575190565b929060209267ffffffffffffffff9263ffffffff610e7760405197889687967f461d276200000000000000000000000000000000000000000000000000000000885216600487015260a0602487015260a486019061069c565b92600160448601521660648401526084830152038160006001600160a01b037f0000000000000000000000000000000000000000000000000000000000000000165af190811561082c57600091610ef3575b50807f1131472297a800fee664d1d89cfa8f7676ff07189ecc53f80bbb5f4969099db8600080a290565b610f15915060203d602011610f1b575b610f0d818361019e565b810190610e0f565b38610ec9565b503d610f03565b60405190610f2f82610182565b6000602083606081520152565b604051610f4881610182565b6000610f52610f22565b808352610f6861010060208501928484526111b7565b505290565b8151610fbf92919067ffffffffffffffff1660178111610fc2578151610faa91610fa490610f9d60605b60ff1690565b1760ff1690565b9061134f565b505b5190610fb6610f22565b508051916115b9565b50565b60ff8111610fef578151610fe99190610fe190601860605b179061134f565b508251611539565b50610fac565b61ffff8111611014578151610fe9919061100c9060196060610fda565b5082516114c0565b63ffffffff811161103b578151610fe9919061103390601a6060610fda565b508251611447565b8151610fe9919061104f90601b6060610fda565b5082516113c9565b9061060c9161106681516112df565b506040519160208301526020825261107f60408361019e565b61111d565b634e487b7160e01b600052601160045260246000fd5b90602082018092116110a857565b611084565b919082018092116110a857565b6020906110c9609f825161134f565b5001805190600182018092116110a85752565b601f198101919082116110a857565b6000198101919082116110a857565b60209061110960ff825161134f565b500180516000198101919082116110a85752565b8151610fbf92919067ffffffffffffffff166017811161114b578151610faa91610fa490610f9d6040610f97565b60ff8111611167578151610fe99190610fe19060186040610fda565b61ffff8111611184578151610fe9919061100c9060196040610fda565b63ffffffff81116111a3578151610fe9919061103390601a6040610fda565b8151610fe9919061104f90601b6040610fda565b906111c0610f22565b50601f8116806111ef575b50806020830152604051908183526000825281016020019081106101465760405290565b602003602081116110a85781018091116110a857386111cb565b90611212610f22565b50805161121d610f22565b5061122b82518211156115b2565b8251519161123982846110ad565b90602085015182116112b2575b6020918551838151968201019582116112aa575b505001905b602081101561128457600019906020036101000a019081199051169082511617905290565b909161129f6112996112a5928551815261109a565b9361109a565b916110dc565b61125f565b52388061125a565b6112c46112be836112c9565b8661165f565b611246565b908160011b91808304600214901517156110a857565b6112e7610f22565b5080515160018101908181116110a8576020830151811015611320575b60c26020845192830101538051821161131c57505090565b5290565b8160011b828104600214831517156110a85761134990611342855191866111b7565b5084611209565b50611304565b90611358610f22565b5081515160018101918282116110a857602084015182101561138b575b6020845192830101538051821161131c57505090565b8260011b838104600214841517156110a8576113b4906113ad865191876111b7565b5085611209565b50611375565b601f81116110a8576101000a90565b906113d2610f22565b508151518060080191826008116110a8576020840151831161141f575b6114016113fc60086113ba565b6110eb565b90600885519384010191198251161790528051821161131c57505090565b8260011b838104600214841517156110a857611441906113ad865191876111b7565b506113ef565b90611450610f22565b508151518060040191826004116110a85760208401518311611498575b61147a6113fc60046113ba565b90600485519384010191198251161790528051821161131c57505090565b8260011b838104600214841517156110a8576114ba906113ad865191876111b7565b5061146d565b906114c9610f22565b508151518060020191826002116110a85760208401518311611511575b6114f36113fc60026113ba565b90600285519384010191198251161790528051821161131c57505090565b8260011b838104600214841517156110a857611533906113ad865191876111b7565b506114e6565b90611542610f22565b508151518060010191826001116110a8576020840151831161158a575b61156c6113fc60016113ba565b90600185519384010191198251161790528051821161131c57505090565b8260011b838104600214841517156110a8576115ac906113ad865191876111b7565b5061155f565b1561014657565b916115c2610f22565b506115d082518211156115b2565b6020835151926115e083856110ad565b828601518111611648575b855183815196820101958211611640575b505001905b602081101561162657600019906020036101000a019081199051169082511617905290565b909161129f61129961163b928551815261109a565b611601565b5238806115fc565b61165a611654826112c9565b8761165f565b6115eb565b90610fbf91611670815192826111b7565b5061120956fea264697066735822122019093145b9c07e1f80edd8fa2f7c527f3637517992eaea1527a743c645be120e64736f6c634300081c0033",
  "linkReferences": {},
  "deployedLinkReferences": {}
}