{
  "_format": "hh-sol-artifact-1",
  "contractName": "Agent",
  "sourceName": "contracts/Agent.sol",
  "abi": [
    {
      "inputs": [
        {
          "internalType": "uint256",
          "name": "feePerTask",
          "type": "uint256"
        },
        {
          "internalType": "address",
          "name": "feeCollector",
          "type": "address"
        },
        {
          "internalType": "contract IERC20",
          "name": "feeToken",
          "type": "address"
        },
        {
          "internalType": "contract IAddressesProvider",
          "name": "provider",
          "type": "address"
        }
      ],
      "stateMutability": "nonpayable",
      "type": "constructor"
    },
    {
      "inputs": [
        {
          "internalType": "address",
          "name": "owner",
          "type": "address"
        }
      ],
      "name": "OwnableInvalidOwner",
      "type": "error"
    },
    {
      "inputs": [
        {
          "internalType": "address",
          "name": "account",
          "type": "address"
        }
      ],
      "name": "OwnableUnauthorizedAccount",
      "type": "error"
    },
    {
      "anonymous": false,
      "inputs": [
        {
          "indexed": false,
          "internalType": "address",
          "name": "account",
          "type": "address"
        },
        {
          "indexed": false,
          "internalType": "enum Enums.ApprovalFlag",
          "name": "flag",
          "type": "uint8"
        }
      ],
      "name": "Approval",
      "type": "event"
    },
    {
      "anonymous": false,
      "inputs": [
        {
          "indexed": false,
          "internalType": "address",
          "name": "account",
          "type": "address"
        },
        {
          "indexed": false,
          "internalType": "address",
          "name": "agent",
          "type": "address"
        },
        {
          "indexed": false,
          "internalType": "bool",
          "name": "hasFunds",
          "type": "bool"
        }
      ],
      "name": "BeforeTask",
      "type": "event"
    },
    {
      "anonymous": false,
      "inputs": [
        {
          "indexed": true,
          "internalType": "address",
          "name": "previousOwner",
          "type": "address"
        },
        {
          "indexed": true,
          "internalType": "address",
          "name": "newOwner",
          "type": "address"
        }
      ],
      "name": "OwnershipTransferred",
      "type": "event"
    },
    {
      "inputs": [
        {
          "internalType": "bytes",
          "name": "response",
          "type": "bytes"
        }
      ],
      "name": "addStrategy",
      "outputs": [],
      "stateMutability": "nonpayable",
      "type": "function"
    },
    {
      "inputs": [
        {
          "internalType": "contract IAccount",
          "name": "account",
          "type": "address"
        }
      ],
      "name": "allowance",
      "outputs": [
        {
          "internalType": "enum Enums.ApprovalFlag",
          "name": "flag",
          "type": "uint8"
        }
      ],
      "stateMutability": "view",
      "type": "function"
    },
    {
      "inputs": [
        {
          "internalType": "enum Enums.ApprovalFlag",
          "name": "flag",
          "type": "uint8"
        }
      ],
      "name": "approve",
      "outputs": [],
      "stateMutability": "nonpayable",
      "type": "function"
    },
    {
      "inputs": [
        {
          "internalType": "contract IAccount",
          "name": "account",
          "type": "address"
        },
        {
          "internalType": "enum Enums.ApprovalFlag",
          "name": "flag",
          "type": "uint8"
        }
      ],
      "name": "checkApproval",
      "outputs": [],
      "stateMutability": "view",
      "type": "function"
    },
    {
      "inputs": [
        {
          "internalType": "contract IVault",
          "name": "vault",
          "type": "address"
        },
        {
          "internalType": "uint256",
          "name": "amountScaled",
          "type": "uint256"
        },
        {
          "internalType": "contract IAccount",
          "name": "account",
          "type": "address"
        }
      ],
      "name": "depositFromAccount",
      "outputs": [
        {
          "internalType": "uint256",
          "name": "lpMinted",
          "type": "uint256"
        }
      ],
      "stateMutability": "nonpayable",
      "type": "function"
    },
    {
      "inputs": [],
      "name": "getFeeToken",
      "outputs": [
        {
          "internalType": "contract IERC20",
          "name": "feeToken",
          "type": "address"
        }
      ],
      "stateMutability": "view",
      "type": "function"
    },
    {
      "inputs": [],
      "name": "owner",
      "outputs": [
        {
          "internalType": "address",
          "name": "",
          "type": "address"
        }
      ],
      "stateMutability": "view",
      "type": "function"
    },
    {
      "inputs": [
        {
          "internalType": "bytes",
          "name": "response",
          "type": "bytes"
        }
      ],
      "name": "reallocation",
      "outputs": [],
      "stateMutability": "nonpayable",
      "type": "function"
    },
    {
      "inputs": [
        {
          "internalType": "bytes",
          "name": "response",
          "type": "bytes"
        }
      ],
      "name": "removeStrategy",
      "outputs": [],
      "stateMutability": "nonpayable",
      "type": "function"
    },
    {
      "inputs": [],
      "name": "renounceOwnership",
      "outputs": [],
      "stateMutability": "nonpayable",
      "type": "function"
    },
    {
      "inputs": [
        {
          "internalType": "address",
          "name": "newOwner",
          "type": "address"
        }
      ],
      "name": "transferOwnership",
      "outputs": [],
      "stateMutability": "nonpayable",
      "type": "function"
    },
    {
      "inputs": [
        {
          "internalType": "enum Enums.TaskType",
          "name": "taskType",
          "type": "uint8"
        },
        {
          "internalType": "uint64",
          "name": "subscriptionId",
          "type": "uint64"
        },
        {
          "internalType": "uint32",
          "name": "gasLimit",
          "type": "uint32"
        }
      ],
      "name": "upKeep",
      "outputs": [
        {
          "internalType": "bytes32",
          "name": "requestId",
          "type": "bytes32"
        }
      ],
      "stateMutability": "nonpayable",
      "type": "function"
    },
    {
      "inputs": [
        {
          "internalType": "contract IVault",
          "name": "vault",
          "type": "address"
        },
        {
          "internalType": "contract IAccount",
          "name": "account",
          "type": "address"
        }
      ],
      "name": "withdrawAllToAccount",
      "outputs": [
        {
          "internalType": "uint256",
          "name": "amountScaled",
          "type": "uint256"
        }
      ],
      "stateMutability": "nonpayable",
      "type": "function"
    },
    {
      "inputs": [
        {
          "internalType": "contract IVault",
          "name": "vault",
          "type": "address"
        },
        {
          "internalType": "uint256",
          "name": "lpAmount",
          "type": "uint256"
        },
        {
          "internalType": "contract IAccount",
          "name": "account",
          "type": "address"
        }
      ],
      "name": "withdrawToAccount",
      "outputs": [
        {
          "internalType": "uint256",
          "name": "amountScaled",
          "type": "uint256"
        }
      ],
      "stateMutability": "nonpayable",
      "type": "function"
    }
  ],
  "bytecode": "0x60803461012a57601f6111e738819003918201601f19168301916001600160401b0383118484101761012f5780849260809460405283398101031261012a57805160208201516001600160a01b038116919082900361012a5760408301516001600160a01b038116939084900361012a57606001516001600160a01b0381169081900361012a5733156101145760008054336001600160a01b0319821681178355604051969290916001600160a01b0316907f8be0079c531659141344cd1fd0a4f28419497f9722a3daafe3b4186f6b6457e09080a360018060a01b0319600354161760035560018060a01b0319600454161760045560015560018060a01b031960025416176002556110a190816101468239f35b631e4fbdf760e01b600052600060045260246000fd5b600080fd5b634e487b7160e01b600052604160045260246000fdfe6080604052600436101561001257600080fd5b6000803560e01c80630ff199de14610b9a5780633e5beab914610b5857806347a471a114610a665780634a86e1a6146109d45780634b837649146108c2578063715018a61461085c5780638da5cb5b14610836578063ca709a251461080f578063e0ab4650146106fa578063e33b2dc2146105bb578063e76e8cad146104e6578063f2fde38b14610438578063f887cf001461026e5763fca0025d146100b757600080fd5b3461026b57602036600319011261026b57600435600481101561026957600460206001600160a01b03825416604051928380927f9068a8680000000000000000000000000000000000000000000000000000000082525afa908115610231576001600160a01b0391602091859161023c575b506024604051809481937ffbcbc0f1000000000000000000000000000000000000000000000000000000008352336004840152165afa9081156102315783916101cb575b507faf80aa5cc016b82830abf03e3110890fcd831f57410495acdf9cc3b3973129e9916101c76001600160a01b036040931691828652600560205283862060ff1981541660ff831617905583519283526020830190610c7a565ba180f35b90506020813d602011610229575b816101e660209383610c9d565b8101031261022557516001600160a01b0381168103610225577faf80aa5cc016b82830abf03e3110890fcd831f57410495acdf9cc3b3973129e961016d565b8280fd5b3d91506101d9565b6040513d85823e3d90fd5b61025c9150823d8411610262575b6102548183610c9d565b810190610d4e565b38610129565b503d61024a565b505b80fd5b503461026b57604036600319011261026b57610288610c2a565b602435906004821015610225576001600160a01b03168252600560205260ff604083205416600481101591826103d25781156103f45760018114806103e6575b83816103c1575b5061037d576002149182610357575b82610331575b50506102ed5780f35b606460405162461bcd60e51b815260206004820152601560248201527f5769746864726177206e6f7420617070726f76656400000000000000000000006044820152fd5b909150610343576003141538806102e4565b602482634e487b7160e01b81526021600452fd5b809250610369576002811415916102de565b602483634e487b7160e01b81526021600452fd5b606460405162461bcd60e51b815260206004820152601460248201527f4465706f736974206e6f7420617070726f7665640000000000000000000000006044820152fd5b90506103d2576003821415836102cf565b602484634e487b7160e01b81526021600452fd5b5083925060018214156102c8565b606460405162461bcd60e51b815260206004820152601160248201527f55736572206e6f7420617070726f7665640000000000000000000000000000006044820152fd5b503461026b57602036600319011261026b576004356001600160a01b03811680910361026957610466611029565b80156104ba576001600160a01b0382548273ffffffffffffffffffffffffffffffffffffffff198216178455167f8be0079c531659141344cd1fd0a4f28419497f9722a3daafe3b4186f6b6457e08380a380f35b6024827f1e4fbdf700000000000000000000000000000000000000000000000000000000815280600452fd5b503461026b5761055a9060206104fb36610c40565b919061050683610eb1565b846001600160a01b036040518098819682957fb76e07cc000000000000000000000000000000000000000000000000000000008452600484019092916001600160a01b036020916040840195845216910152565b0393165af19081156105af5790610577575b602090604051908152f35b506020813d6020116105a7575b8161059160209383610c9d565b810103126105a2576020905161056c565b600080fd5b3d9150610584565b604051903d90823e3d90fd5b503461026b57606036600319011261026b576004356003811015610269576024359067ffffffffffffffff8216809203610225576044359163ffffffff83168093036106f65760049160206001600160a01b0384541660405194858092630f63be0160e01b82525afa908582156105af576001600160a01b0360649360209683916106d9575b5060405197889687957f72642f2b000000000000000000000000000000000000000000000000000000008752600487015260248601526044850152165af19081156106ce578291610698575b602082604051908152f35b90506020813d6020116106c6575b816106b360209383610c9d565b810103126102695760209150513861068d565b3d91506106a6565b6040513d84823e3d90fd5b6106f09150873d8911610262576102548183610c9d565b38610641565b8380fd5b503461026b578061070a36610cd5565b600460206001600160a01b0382541660405192838092630f63be0160e01b82525afa90811561023157610750916001600160a01b039185916107f0575b50163314610d6d565b805181016040828203126107e85761076a60208301610db8565b9160408101519067ffffffffffffffff82116107ec57602061079992816001600160a01b039501920101610dcc565b9116803b156107e8576107c6839291839260405194858094819363ee6ce92560e01b835260048301610e77565b03925af180156106ce576107d75750f35b816107e191610c9d565b61026b5780f35b5050fd5b8480fd5b610809915060203d602011610262576102548183610c9d565b38610747565b503461026b578060031936011261026b5760206001600160a01b0360035416604051908152f35b503461026b578060031936011261026b576001600160a01b036020915416604051908152f35b503461026b578060031936011261026b57610875611029565b806001600160a01b03815473ffffffffffffffffffffffffffffffffffffffff1981168355167f8be0079c531659141344cd1fd0a4f28419497f9722a3daafe3b4186f6b6457e08280a380f35b503461026b57806108d236610cd5565b600460206001600160a01b0382541660405192838092630f63be0160e01b82525afa9182156102315761091b6001600160a01b03809461092a9487916107f05750163314610d6d565b60208082518301019101610e34565b9290911690813b156109cf576001600160a01b03604051917f223e5479000000000000000000000000000000000000000000000000000000008352166004820152838160248183865af19081156109c45784916109af575b5050803b156107e8576107c6839291839260405194858094819363ee6ce92560e01b835260048301610e77565b816109b991610c9d565b6107e8578238610982565b6040513d86823e3d90fd5b505050fd5b503461026b57604036600319011261026b576109ee610c2a565b6024356001600160a01b038116908181036106f657916024602092610a1b6001600160a01b039695610eb1565b8460405196879485937fc07e866e0000000000000000000000000000000000000000000000000000000085526004850152165af19081156105af579061057757602090604051908152f35b503461026b57610a7536610cd5565b600460206001600160a01b0382541660405192838092630f63be0160e01b82525afa908115610231579161091b6001600160a01b03610ac09386958297916107f05750163314610d6d565b9193909316803b15610225576001600160a01b03604051947f175188e8000000000000000000000000000000000000000000000000000000008652166004850152828460248183855af1801561023157610b43575b829350803b156107e8576107c6839291839260405194858094819363ee6ce92560e01b835260048301610e77565b91909281610b5091610c9d565b908290610b15565b503461026b57602036600319011261026b5760ff60406020926001600160a01b03610b81610c2a565b16815260058452205416610b986040518092610c7a565bf35b503461026b57610c0d6020610bae36610c40565b9190610bb983610eb1565b856001600160a01b036040518097819682957fa49b5cb4000000000000000000000000000000000000000000000000000000008452600484019092916001600160a01b036020916040840195845216910152565b0393165af19081156106ce57829161069857602082604051908152f35b600435906001600160a01b03821682036105a257565b60609060031901126105a2576004356001600160a01b03811681036105a25790602435906044356001600160a01b03811681036105a25790565b906004821015610c875752565b634e487b7160e01b600052602160045260246000fd5b90601f8019910116810190811067ffffffffffffffff821117610cbf57604052565b634e487b7160e01b600052604160045260246000fd5b60206003198201126105a25760043567ffffffffffffffff81116105a257816023820112156105a25780600401359067ffffffffffffffff8211610cbf5760405192610d2b601f8401601f191660200185610c9d565b828452602483830101116105a25781600092602460209301838601378301015290565b908160209103126105a257516001600160a01b03811681036105a25790565b15610d7457565b606460405162461bcd60e51b815260206004820152600e60248201527f4f6e6c792066756e6374696f6e730000000000000000000000000000000000006044820152fd5b51906001600160a01b03821682036105a257565b9080601f830112156105a25781519167ffffffffffffffff8311610cbf578260051b9060405193610e006020840186610c9d565b84526020808501928201019283116105a257602001905b828210610e245750505090565b8151815260209182019101610e17565b916060838303126105a257610e4883610db8565b92610e5560208201610db8565b92604082015167ffffffffffffffff81116105a257610e749201610dcc565b90565b602060408183019282815284518094520192019060005b818110610e9b5750505090565b8251845260209384019390920191600101610e8e565b6001600160a01b038060035416911690604051907f70a08231000000000000000000000000000000000000000000000000000000008252826004830152602082602481845afa918215610fe957600092610ff5575b50600154809210159182610f50575b50507f4b07b434919e25d56e2425b6a75582bf959a6da1da0d8f1d7e47c77267a35e6b916060916040519182523060208301526040820152a1565b60209060646001600160a01b0360025416600060405195869485937f23b872dd0000000000000000000000000000000000000000000000000000000085528a6004860152602485015260448401525af18015610fe957610fb1575b80610f15565b6020813d602011610fe1575b81610fca60209383610c9d565b810103126105a25751801515036105a25738610fab565b3d9150610fbd565b6040513d6000823e3d90fd5b9091506020813d602011611021575b8161101160209383610c9d565b810103126105a257519038610f06565b3d9150611004565b6001600160a01b0360005416330361103d57565b7f118cdaa7000000000000000000000000000000000000000000000000000000006000523360045260246000fdfea2646970667358221220bef303546b3df8ecc07f1410b065ece1271c1b2a3b33b5ab5a17837cdeab409964736f6c634300081c0033",
  "linkReferences": {},
  "deployedLinkReferences": {}
}