{
  "_format": "hh-sol-artifact-1",
  "contractName": "Agent",
  "sourceName": "contracts/Agent.sol",
  "abi": [
    {
      "inputs": [
        {
          "internalType": "uint256",
          "name": "feePerTask",
          "type": "uint256"
        },
        {
          "internalType": "address",
          "name": "feeCollector",
          "type": "address"
        },
        {
          "internalType": "contract IERC20",
          "name": "feeToken",
          "type": "address"
        },
        {
          "internalType": "contract IAddressesProvider",
          "name": "provider",
          "type": "address"
        }
      ],
      "stateMutability": "nonpayable",
      "type": "constructor"
    },
    {
      "inputs": [
        {
          "internalType": "address",
          "name": "owner",
          "type": "address"
        }
      ],
      "name": "OwnableInvalidOwner",
      "type": "error"
    },
    {
      "inputs": [
        {
          "internalType": "address",
          "name": "account",
          "type": "address"
        }
      ],
      "name": "OwnableUnauthorizedAccount",
      "type": "error"
    },
    {
      "anonymous": false,
      "inputs": [
        {
          "indexed": false,
          "internalType": "address",
          "name": "account",
          "type": "address"
        },
        {
          "indexed": false,
          "internalType": "enum Enums.ApprovalFlag",
          "name": "flag",
          "type": "uint8"
        }
      ],
      "name": "Approval",
      "type": "event"
    },
    {
      "anonymous": false,
      "inputs": [
        {
          "indexed": false,
          "internalType": "address",
          "name": "account",
          "type": "address"
        },
        {
          "indexed": false,
          "internalType": "address",
          "name": "agent",
          "type": "address"
        },
        {
          "indexed": false,
          "internalType": "bool",
          "name": "hasFunds",
          "type": "bool"
        }
      ],
      "name": "BeforeTask",
      "type": "event"
    },
    {
      "anonymous": false,
      "inputs": [
        {
          "indexed": true,
          "internalType": "address",
          "name": "previousOwner",
          "type": "address"
        },
        {
          "indexed": true,
          "internalType": "address",
          "name": "newOwner",
          "type": "address"
        }
      ],
      "name": "OwnershipTransferred",
      "type": "event"
    },
    {
      "inputs": [],
      "name": "_interval",
      "outputs": [
        {
          "internalType": "uint256",
          "name": "",
          "type": "uint256"
        }
      ],
      "stateMutability": "view",
      "type": "function"
    },
    {
      "inputs": [],
      "name": "_lastTimeStamp",
      "outputs": [
        {
          "internalType": "uint256",
          "name": "",
          "type": "uint256"
        }
      ],
      "stateMutability": "view",
      "type": "function"
    },
    {
      "inputs": [
        {
          "internalType": "bytes",
          "name": "response",
          "type": "bytes"
        }
      ],
      "name": "addStrategy",
      "outputs": [],
      "stateMutability": "nonpayable",
      "type": "function"
    },
    {
      "inputs": [
        {
          "internalType": "contract IAccount",
          "name": "account",
          "type": "address"
        }
      ],
      "name": "allowance",
      "outputs": [
        {
          "internalType": "enum Enums.ApprovalFlag",
          "name": "flag",
          "type": "uint8"
        }
      ],
      "stateMutability": "view",
      "type": "function"
    },
    {
      "inputs": [
        {
          "internalType": "enum Enums.ApprovalFlag",
          "name": "flag",
          "type": "uint8"
        }
      ],
      "name": "approve",
      "outputs": [],
      "stateMutability": "nonpayable",
      "type": "function"
    },
    {
      "inputs": [
        {
          "internalType": "contract IAccount",
          "name": "account",
          "type": "address"
        },
        {
          "internalType": "enum Enums.ApprovalFlag",
          "name": "flag",
          "type": "uint8"
        }
      ],
      "name": "checkApproval",
      "outputs": [],
      "stateMutability": "view",
      "type": "function"
    },
    {
      "inputs": [
        {
          "internalType": "bytes",
          "name": "",
          "type": "bytes"
        }
      ],
      "name": "checkUpkeep",
      "outputs": [
        {
          "internalType": "bool",
          "name": "upkeepNeeded",
          "type": "bool"
        },
        {
          "internalType": "bytes",
          "name": "checkData",
          "type": "bytes"
        }
      ],
      "stateMutability": "view",
      "type": "function"
    },
    {
      "inputs": [
        {
          "internalType": "contract IVault",
          "name": "vault",
          "type": "address"
        },
        {
          "internalType": "uint256",
          "name": "amountScaled",
          "type": "uint256"
        },
        {
          "internalType": "contract IAccount",
          "name": "account",
          "type": "address"
        }
      ],
      "name": "depositFromAccount",
      "outputs": [
        {
          "internalType": "uint256",
          "name": "lpMinted",
          "type": "uint256"
        }
      ],
      "stateMutability": "nonpayable",
      "type": "function"
    },
    {
      "inputs": [],
      "name": "getFeeToken",
      "outputs": [
        {
          "internalType": "contract IERC20",
          "name": "feeToken",
          "type": "address"
        }
      ],
      "stateMutability": "view",
      "type": "function"
    },
    {
      "inputs": [],
      "name": "owner",
      "outputs": [
        {
          "internalType": "address",
          "name": "",
          "type": "address"
        }
      ],
      "stateMutability": "view",
      "type": "function"
    },
    {
      "inputs": [
        {
          "internalType": "bytes",
          "name": "checkData",
          "type": "bytes"
        }
      ],
      "name": "performUpkeep",
      "outputs": [],
      "stateMutability": "nonpayable",
      "type": "function"
    },
    {
      "inputs": [
        {
          "internalType": "bytes",
          "name": "response",
          "type": "bytes"
        }
      ],
      "name": "reallocation",
      "outputs": [],
      "stateMutability": "nonpayable",
      "type": "function"
    },
    {
      "inputs": [
        {
          "internalType": "bytes",
          "name": "response",
          "type": "bytes"
        }
      ],
      "name": "removeStrategy",
      "outputs": [],
      "stateMutability": "nonpayable",
      "type": "function"
    },
    {
      "inputs": [],
      "name": "renounceOwnership",
      "outputs": [],
      "stateMutability": "nonpayable",
      "type": "function"
    },
    {
      "inputs": [
        {
          "internalType": "address",
          "name": "newOwner",
          "type": "address"
        }
      ],
      "name": "transferOwnership",
      "outputs": [],
      "stateMutability": "nonpayable",
      "type": "function"
    },
    {
      "inputs": [
        {
          "internalType": "contract IVault",
          "name": "vault",
          "type": "address"
        },
        {
          "internalType": "contract IAccount",
          "name": "account",
          "type": "address"
        }
      ],
      "name": "withdrawAllToAccount",
      "outputs": [
        {
          "internalType": "uint256",
          "name": "amountScaled",
          "type": "uint256"
        }
      ],
      "stateMutability": "nonpayable",
      "type": "function"
    },
    {
      "inputs": [
        {
          "internalType": "contract IVault",
          "name": "vault",
          "type": "address"
        },
        {
          "internalType": "uint256",
          "name": "lpAmount",
          "type": "uint256"
        },
        {
          "internalType": "contract IAccount",
          "name": "account",
          "type": "address"
        }
      ],
      "name": "withdrawToAccount",
      "outputs": [
        {
          "internalType": "uint256",
          "name": "amountScaled",
          "type": "uint256"
        }
      ],
      "stateMutability": "nonpayable",
      "type": "function"
    }
  ],
  "bytecode": "0x60803461013057601f61137538819003918201601f19168301916001600160401b038311848410176101355780849260809460405283398101031261013057805160208201516001600160a01b03811691908290036101305760408301516001600160a01b038116939084900361013057606001516001600160a01b0381169081900361013057331561011a5760008054336001600160a01b0319821681178355604051969290916001600160a01b0316907f8be0079c531659141344cd1fd0a4f28419497f9722a3daafe3b4186f6b6457e09080a36136b060075560018060a01b0319600354161760035560018060a01b0319600454161760045560015560018060a01b03196002541617600255611229908161014c8239f35b631e4fbdf760e01b600052600060045260246000fd5b600080fd5b634e487b7160e01b600052604160045260246000fdfe6080604052600436101561001257600080fd5b6000803560e01c80630ff199de14610c515780633e5beab914610c0f5780634585e33b14610acd57806347a471a114610a725780634a86e1a61461099e5780634b837649146109405780636e04ff0d146108b0578063715018a61461084a5780638da5cb5b14610824578063aa91c9c614610806578063ca709a25146107df578063e0ab4650146105fa578063e76e8cad14610525578063f2fde38b14610477578063f887cf00146102ad578063fabbf02c1461028f5763fca0025d146100d857600080fd5b3461028c57602036600319011261028c57600435600481101561028a57600460206001600160a01b03825416604051928380927f9068a8680000000000000000000000000000000000000000000000000000000082525afa908115610252576001600160a01b0391602091859161025d575b506024604051809481937ffbcbc0f1000000000000000000000000000000000000000000000000000000008352336004840152165afa9081156102525783916101ec575b507faf80aa5cc016b82830abf03e3110890fcd831f57410495acdf9cc3b3973129e9916101e86001600160a01b036040931691828652600560205283862060ff1981541660ff831617905583519283526020830190610d31565ba180f35b90506020813d60201161024a575b8161020760209383610da5565b8101031261024657516001600160a01b0381168103610246577faf80aa5cc016b82830abf03e3110890fcd831f57410495acdf9cc3b3973129e961018e565b8280fd5b3d91506101fa565b6040513d85823e3d90fd5b61027d9150823d8411610283575b6102758183610da5565b810190610e79565b3861014a565b503d61026b565b505b80fd5b503461028c578060031936011261028c576020600654604051908152f35b503461028c57604036600319011261028c576102c7610ce1565b602435906004821015610246576001600160a01b03168252600560205260ff60408320541660048110159182610411578115610433576001811480610425575b8381610400575b506103bc576002149182610396575b82610370575b505061032c5780f35b606460405162461bcd60e51b815260206004820152601560248201527f5769746864726177206e6f7420617070726f76656400000000000000000000006044820152fd5b90915061038257600314153880610323565b602482634e487b7160e01b81526021600452fd5b8092506103a85760028114159161031d565b602483634e487b7160e01b81526021600452fd5b606460405162461bcd60e51b815260206004820152601460248201527f4465706f736974206e6f7420617070726f7665640000000000000000000000006044820152fd5b90506104115760038214158361030e565b602484634e487b7160e01b81526021600452fd5b508392506001821415610307565b606460405162461bcd60e51b815260206004820152601160248201527f55736572206e6f7420617070726f7665640000000000000000000000000000006044820152fd5b503461028c57602036600319011261028c576004356001600160a01b03811680910361028a576104a56111b1565b80156104f9576001600160a01b0382548273ffffffffffffffffffffffffffffffffffffffff198216178455167f8be0079c531659141344cd1fd0a4f28419497f9722a3daafe3b4186f6b6457e08380a380f35b6024827f1e4fbdf700000000000000000000000000000000000000000000000000000000815280600452fd5b503461028c5761059990602061053a36610cf7565b919061054583611039565b846001600160a01b036040518098819682957fb76e07cc000000000000000000000000000000000000000000000000000000008452600484019092916001600160a01b036020916040840195845216910152565b0393165af19081156105ee57906105b6575b602090604051908152f35b506020813d6020116105e6575b816105d060209383610da5565b810103126105e157602090516105ab565b600080fd5b3d91506105c3565b604051903d90823e3d90fd5b503461028c5761060936610ddd565b600460206001600160a01b0382541660405192838092630f63be0160e01b82525afa9081156102525761064f916001600160a01b039185916107c0575b50163314610e98565b8051810190604081602084019303126102465761066e60208201610ee3565b9060408101519067ffffffffffffffff82116107bc57019082603f830112156107905760208201519267ffffffffffffffff84116107a8578360051b92604051946106bc6020860187610da5565b855260208501906020808396830101019283116107a457604001905b828210610794575050506001600160a01b031690813b1561079057918380936040519384917fee6ce92500000000000000000000000000000000000000000000000000000000835260248301946020600485015251809552604483019094845b8181106107745750508380955083809203925af18015610767576107595780f35b61076291610da5565b818180f35b50604051903d90823e3d90fd5b8651835260209687019689965088955090920191600101610738565b8380fd5b81518152602091820191016106d8565b8680fd5b602485634e487b7160e01b81526041600452fd5b8480fd5b6107d9915060203d602011610283576102758183610da5565b38610646565b503461028c578060031936011261028c5760206001600160a01b0360035416604051908152f35b503461028c578060031936011261028c576020600754604051908152f35b503461028c578060031936011261028c576001600160a01b036020915416604051908152f35b503461028c578060031936011261028c576108636111b1565b806001600160a01b03815473ffffffffffffffffffffffffffffffffffffffff1981168355167f8be0079c531659141344cd1fd0a4f28419497f9722a3daafe3b4186f6b6457e08280a380f35b503461028c576108bf36610d54565b50506108cd60065442610e56565b60075410602090604051916108e28184610da5565b838352601f19810136828501376040519384928352604082840152835191826040850152815b83811061092957505060608094508284010152601f80199101168101030190f35b808601820151878201606001528694508101610908565b503461028c57600461095136610ddd565b60206001600160a01b0383541660405193848092630f63be0160e01b82525afa8015610252576001600160a01b036109969161099b9486916107c05750163314610e98565b610fb3565b80f35b503461028c57604036600319011261028c576109b8610ce1565b602435906001600160a01b038216908183036107905760246020926109e46001600160a01b0395611039565b8560405195869485937fc07e866e0000000000000000000000000000000000000000000000000000000085526004850152165af1908115610a67578291610a31575b602082604051908152f35b90506020813d602011610a5f575b81610a4c60209383610da5565b8101031261028a57602091505138610a26565b3d9150610a3f565b6040513d84823e3d90fd5b503461028c576004610a8336610ddd565b60206001600160a01b0383541660405193848092630f63be0160e01b82525afa8015610252576001600160a01b03610ac89161099b9486916107c05750163314610e98565b610f1b565b503461028c57610adc36610d54565b610ae860065442610e56565b60075410610af4578280f35b816060918101031261028a57803560038110156102465760208201359167ffffffffffffffff831680930361079057604001359163ffffffff83168093036107905760049160206001600160a01b0384541660405194858092630f63be0160e01b82525afa908582156105ee576001600160a01b036064936020968391610bf2575b5060405197889687957f72642f2b000000000000000000000000000000000000000000000000000000008752600487015260248601526044850152165af18015610a6757610bc357808280f35b6020813d602011610bea575b81610bdc60209383610da5565b8101031261028a5751808280f35b3d9150610bcf565b610c099150873d8911610283576102758183610da5565b38610b76565b503461028c57602036600319011261028c5760ff60406020926001600160a01b03610c38610ce1565b16815260058452205416610c4f6040518092610d31565bf35b503461028c57610cc46020610c6536610cf7565b9190610c7083611039565b856001600160a01b036040518097819682957fa49b5cb4000000000000000000000000000000000000000000000000000000008452600484019092916001600160a01b036020916040840195845216910152565b0393165af1908115610a67578291610a3157602082604051908152f35b600435906001600160a01b03821682036105e157565b60609060031901126105e1576004356001600160a01b03811681036105e15790602435906044356001600160a01b03811681036105e15790565b906004821015610d3e5752565b634e487b7160e01b600052602160045260246000fd5b9060206003198301126105e15760043567ffffffffffffffff81116105e157826023820112156105e15780600401359267ffffffffffffffff84116105e157602484830101116105e1576024019190565b90601f8019910116810190811067ffffffffffffffff821117610dc757604052565b634e487b7160e01b600052604160045260246000fd5b60206003198201126105e15760043567ffffffffffffffff81116105e157816023820112156105e15780600401359067ffffffffffffffff8211610dc75760405192610e33601f8401601f191660200185610da5565b828452602483830101116105e15781600092602460209301838601378301015290565b91908203918211610e6357565b634e487b7160e01b600052601160045260246000fd5b908160209103126105e157516001600160a01b03811681036105e15790565b15610e9f57565b606460405162461bcd60e51b815260206004820152600e60248201527f4f6e6c792066756e6374696f6e730000000000000000000000000000000000006044820152fd5b51906001600160a01b03821682036105e157565b91908260409103126105e157610f186020610f1184610ee3565b9301610ee3565b90565b6001600160a01b03610f37819260208082518301019101610ef7565b921691169060009181158015610fab575b610fa657813b156102465782916024839260405194859384927f175188e800000000000000000000000000000000000000000000000000000000845260048401525af18015610a6757610f99575050565b81610fa391610da5565b50565b505050565b508015610f48565b6001600160a01b03610fcf819260208082518301019101610ef7565b921691169060009181158015611031575b610fa657813b156102465782916024839260405194859384927f223e547900000000000000000000000000000000000000000000000000000000845260048401525af18015610a6757610f99575050565b508015610fe0565b6001600160a01b038060035416911690604051907f70a08231000000000000000000000000000000000000000000000000000000008252826004830152602082602481845afa9182156111715760009261117d575b506001548092101591826110d8575b50507f4b07b434919e25d56e2425b6a75582bf959a6da1da0d8f1d7e47c77267a35e6b916060916040519182523060208301526040820152a1565b60209060646001600160a01b0360025416600060405195869485937f23b872dd0000000000000000000000000000000000000000000000000000000085528a6004860152602485015260448401525af1801561117157611139575b8061109d565b6020813d602011611169575b8161115260209383610da5565b810103126105e15751801515036105e15738611133565b3d9150611145565b6040513d6000823e3d90fd5b9091506020813d6020116111a9575b8161119960209383610da5565b810103126105e15751903861108e565b3d915061118c565b6001600160a01b036000541633036111c557565b7f118cdaa7000000000000000000000000000000000000000000000000000000006000523360045260246000fdfea2646970667358221220c884af763a5122540492524ac4fa24f588fa9f3e19d8de37a60e24c3d87a370c64736f6c634300081c0033",
  "linkReferences": {},
  "deployedLinkReferences": {}
}