{
  "_format": "hh-sol-artifact-1",
  "contractName": "UniswapRouter",
  "sourceName": "contracts/mocks/UniswapRouter.sol",
  "abi": [
    {
      "inputs": [
        {
          "internalType": "contract IUniswapV2Router02",
          "name": "swapRouter",
          "type": "address"
        }
      ],
      "stateMutability": "nonpayable",
      "type": "constructor"
    },
    {
      "inputs": [
        {
          "internalType": "address",
          "name": "tokenIn",
          "type": "address"
        },
        {
          "internalType": "address",
          "name": "tokenOut",
          "type": "address"
        },
        {
          "internalType": "uint256",
          "name": "amountIn",
          "type": "uint256"
        }
      ],
      "name": "swap",
      "outputs": [
        {
          "internalType": "uint256",
          "name": "amountOut",
          "type": "uint256"
        }
      ],
      "stateMutability": "payable",
      "type": "function"
    },
    {
      "stateMutability": "payable",
      "type": "receive"
    }
  ],
  "bytecode": "0x608034607057601f61081a38819003918201601f19168301916001600160401b03831184841017607557808492602094604052833981010312607057516001600160a01b03811690819003607057600080546001600160a01b03191691909117905560405161078e908161008c8239f35b600080fd5b634e487b7160e01b600052604160045260246000fdfe6080604052600436101561001b575b361561001957600080fd5b005b60003560e01c63df791e500361000e576060366003190112610075576004356001600160a01b0381168103610075576024356001600160a01b03811681036100755760209161006d916044359161007a565b604051908152f35b600080fd5b6001600160a01b039182169291168083036100955750905090565b73eeeeeeeeeeeeeeeeeeeeeeeeeeeeeeeeeeeeeeee810361028a575050341561022c57604051906100c76060836105a6565b6002825260403660208401376001600160a01b0360005416906040516315ab88c960e31b8152602081600481865afa9081156101f1576000916101fd575b506001600160a01b03610117856105f6565b9116905261012483610619565b5260014201918242116101b85760009161017b916040518095819482937f7ff36ab50000000000000000000000000000000000000000000000000000000084528760048501526080602485015260848401906106c3565b903360448401526064830152039134905af19081156101f1576000916101ce575b50805160001981019081116101b8576101b491610629565b5190565b634e487b7160e01b600052601160045260246000fd5b6101eb91503d806000833e6101e381836105a6565b81019061063d565b3861019c565b6040513d6000823e3d90fd5b61021f915060203d602011610225575b61021781836105a6565b810190610739565b38610105565b503d61020d565b60646040517f08c379a000000000000000000000000000000000000000000000000000000000815260206004820152601260248201527f496e76616c69642045544820616d6f756e7400000000000000000000000000006044820152fd5b909173eeeeeeeeeeeeeeeeeeeeeeeeeeeeeeeeeeeeeeee810361046c57506040516323b872dd60e01b8152336004820152306024820152604481018390526020816064816000865af180156101f15761044f575b5060005460405163095ea7b360e01b81526001600160a01b03909116600482015260248101839052602081806044810103816000865af180156101f157610422575b50604051906103306060836105a6565b600282526040366020840137610345826105f6565b526001600160a01b03600054166040516315ab88c960e31b8152602081600481855afa9081156101f157600091610403575b506001600160a01b0361038984610619565b9116905260014201908142116101b8576103d99360008094604051968795869485937f18cbafe5000000000000000000000000000000000000000000000000000000008552339160048601610700565b03925af19081156101f1576000916101ce5750805160001981019081116101b8576101b491610629565b61041c915060203d6020116102255761021781836105a6565b38610377565b6104439060203d602011610448575b61043b81836105a6565b8101906105de565b610320565b503d610431565b6104679060203d6020116104485761043b81836105a6565b6102de565b6040516323b872dd60e01b8152336004820152306024820152604481018490526020816064816000875af180156101f157610589575b5060005460405163095ea7b360e01b81526001600160a01b03909116600482015260248101849052602081806044810103816000875af180156101f15761056c575b50604051916104f46060846105a6565b600283526040366020850137610509836105f6565b5261051382610619565b526001600160a01b036000541660014201908142116101b8576103d99360008094604051968795869485937f38ed1739000000000000000000000000000000000000000000000000000000008552339160048601610700565b6105849060203d6020116104485761043b81836105a6565b6104e4565b6105a19060203d6020116104485761043b81836105a6565b6104a2565b90601f8019910116810190811067ffffffffffffffff8211176105c857604052565b634e487b7160e01b600052604160045260246000fd5b90816020910312610075575180151581036100755790565b8051156106035760200190565b634e487b7160e01b600052603260045260246000fd5b8051600110156106035760400190565b80518210156106035760209160051b010190565b6020818303126100755780519067ffffffffffffffff821161007557019080601f830112156100755781519167ffffffffffffffff83116105c8578260051b90602082019361068f60405195866105a6565b845260208085019282010192831161007557602001905b8282106106b35750505090565b81518152602091820191016106a6565b906020808351928381520192019060005b8181106106e15750505090565b82516001600160a01b03168452602093840193909201916001016106d4565b9061072e6080936001600160a01b03929796959784526000602085015260a0604085015260a08401906106c3565b951660608201520152565b9081602091031261007557516001600160a01b0381168103610075579056fea2646970667358221220803a288b960bc0c7a6002d6cdc79fcbd8fa1c424dad1d0911e43c3ecf735079f64736f6c634300081c0033",
  "linkReferences": {},
  "deployedLinkReferences": {}
}