{
  "_format": "hh-sol-artifact-1",
  "contractName": "SimpleVault",
  "sourceName": "contracts/mocks/SimpleVault.sol",
  "abi": [
    {
      "inputs": [
        {
          "internalType": "address",
          "name": "spender",
          "type": "address"
        },
        {
          "internalType": "uint256",
          "name": "allowance",
          "type": "uint256"
        },
        {
          "internalType": "uint256",
          "name": "needed",
          "type": "uint256"
        }
      ],
      "name": "ERC20InsufficientAllowance",
      "type": "error"
    },
    {
      "inputs": [
        {
          "internalType": "address",
          "name": "sender",
          "type": "address"
        },
        {
          "internalType": "uint256",
          "name": "balance",
          "type": "uint256"
        },
        {
          "internalType": "uint256",
          "name": "needed",
          "type": "uint256"
        }
      ],
      "name": "ERC20InsufficientBalance",
      "type": "error"
    },
    {
      "inputs": [
        {
          "internalType": "address",
          "name": "approver",
          "type": "address"
        }
      ],
      "name": "ERC20InvalidApprover",
      "type": "error"
    },
    {
      "inputs": [
        {
          "internalType": "address",
          "name": "receiver",
          "type": "address"
        }
      ],
      "name": "ERC20InvalidReceiver",
      "type": "error"
    },
    {
      "inputs": [
        {
          "internalType": "address",
          "name": "sender",
          "type": "address"
        }
      ],
      "name": "ERC20InvalidSender",
      "type": "error"
    },
    {
      "inputs": [
        {
          "internalType": "address",
          "name": "spender",
          "type": "address"
        }
      ],
      "name": "ERC20InvalidSpender",
      "type": "error"
    },
    {
      "inputs": [],
      "name": "InvalidInitialization",
      "type": "error"
    },
    {
      "inputs": [],
      "name": "NotInitializing",
      "type": "error"
    },
    {
      "inputs": [
        {
          "internalType": "address",
          "name": "owner",
          "type": "address"
        }
      ],
      "name": "OwnableInvalidOwner",
      "type": "error"
    },
    {
      "inputs": [
        {
          "internalType": "address",
          "name": "account",
          "type": "address"
        }
      ],
      "name": "OwnableUnauthorizedAccount",
      "type": "error"
    },
    {
      "inputs": [],
      "name": "ReentrancyGuardReentrantCall",
      "type": "error"
    },
    {
      "anonymous": false,
      "inputs": [
        {
          "indexed": true,
          "internalType": "address",
          "name": "owner",
          "type": "address"
        },
        {
          "indexed": true,
          "internalType": "address",
          "name": "spender",
          "type": "address"
        },
        {
          "indexed": false,
          "internalType": "uint256",
          "name": "value",
          "type": "uint256"
        }
      ],
      "name": "Approval",
      "type": "event"
    },
    {
      "anonymous": false,
      "inputs": [
        {
          "indexed": false,
          "internalType": "uint64",
          "name": "version",
          "type": "uint64"
        }
      ],
      "name": "Initialized",
      "type": "event"
    },
    {
      "anonymous": false,
      "inputs": [
        {
          "indexed": true,
          "internalType": "address",
          "name": "previousOwner",
          "type": "address"
        },
        {
          "indexed": true,
          "internalType": "address",
          "name": "newOwner",
          "type": "address"
        }
      ],
      "name": "OwnershipTransferred",
      "type": "event"
    },
    {
      "anonymous": false,
      "inputs": [
        {
          "indexed": true,
          "internalType": "address",
          "name": "from",
          "type": "address"
        },
        {
          "indexed": true,
          "internalType": "address",
          "name": "to",
          "type": "address"
        },
        {
          "indexed": false,
          "internalType": "uint256",
          "name": "value",
          "type": "uint256"
        }
      ],
      "name": "Transfer",
      "type": "event"
    },
    {
      "inputs": [
        {
          "internalType": "contract IStrategy",
          "name": "newStrategy",
          "type": "address"
        }
      ],
      "name": "addStrategy",
      "outputs": [],
      "stateMutability": "nonpayable",
      "type": "function"
    },
    {
      "inputs": [
        {
          "internalType": "address",
          "name": "owner",
          "type": "address"
        },
        {
          "internalType": "address",
          "name": "spender",
          "type": "address"
        }
      ],
      "name": "allowance",
      "outputs": [
        {
          "internalType": "uint256",
          "name": "",
          "type": "uint256"
        }
      ],
      "stateMutability": "view",
      "type": "function"
    },
    {
      "inputs": [
        {
          "internalType": "address",
          "name": "spender",
          "type": "address"
        },
        {
          "internalType": "uint256",
          "name": "value",
          "type": "uint256"
        }
      ],
      "name": "approve",
      "outputs": [
        {
          "internalType": "bool",
          "name": "",
          "type": "bool"
        }
      ],
      "stateMutability": "nonpayable",
      "type": "function"
    },
    {
      "inputs": [
        {
          "internalType": "address",
          "name": "account",
          "type": "address"
        }
      ],
      "name": "balanceOf",
      "outputs": [
        {
          "internalType": "uint256",
          "name": "",
          "type": "uint256"
        }
      ],
      "stateMutability": "view",
      "type": "function"
    },
    {
      "inputs": [],
      "name": "decimals",
      "outputs": [
        {
          "internalType": "uint8",
          "name": "",
          "type": "uint8"
        }
      ],
      "stateMutability": "view",
      "type": "function"
    },
    {
      "inputs": [
        {
          "internalType": "uint256",
          "name": "amountScaled",
          "type": "uint256"
        }
      ],
      "name": "deposit",
      "outputs": [
        {
          "internalType": "uint256",
          "name": "lpMinted",
          "type": "uint256"
        }
      ],
      "stateMutability": "nonpayable",
      "type": "function"
    },
    {
      "inputs": [
        {
          "internalType": "uint256",
          "name": "amountScaled",
          "type": "uint256"
        },
        {
          "internalType": "contract IAccount",
          "name": "account",
          "type": "address"
        }
      ],
      "name": "depositFromAccount",
      "outputs": [
        {
          "internalType": "uint256",
          "name": "lpMinted",
          "type": "uint256"
        }
      ],
      "stateMutability": "nonpayable",
      "type": "function"
    },
    {
      "inputs": [],
      "name": "earn",
      "outputs": [],
      "stateMutability": "nonpayable",
      "type": "function"
    },
    {
      "inputs": [
        {
          "internalType": "contract IStrategy",
          "name": "strategy",
          "type": "address"
        }
      ],
      "name": "getAllocation",
      "outputs": [
        {
          "internalType": "uint256",
          "name": "allocation",
          "type": "uint256"
        }
      ],
      "stateMutability": "view",
      "type": "function"
    },
    {
      "inputs": [],
      "name": "getAsset",
      "outputs": [
        {
          "internalType": "address",
          "name": "asset",
          "type": "address"
        }
      ],
      "stateMutability": "view",
      "type": "function"
    },
    {
      "inputs": [],
      "name": "getAvailable",
      "outputs": [
        {
          "internalType": "uint256",
          "name": "available",
          "type": "uint256"
        }
      ],
      "stateMutability": "view",
      "type": "function"
    },
    {
      "inputs": [],
      "name": "getBalance",
      "outputs": [
        {
          "internalType": "uint256",
          "name": "amountScaled",
          "type": "uint256"
        }
      ],
      "stateMutability": "view",
      "type": "function"
    },
    {
      "inputs": [
        {
          "internalType": "uint256",
          "name": "strategyIndex",
          "type": "uint256"
        }
      ],
      "name": "getLastHarvest",
      "outputs": [
        {
          "internalType": "uint256",
          "name": "lastHarvest",
          "type": "uint256"
        }
      ],
      "stateMutability": "view",
      "type": "function"
    },
    {
      "inputs": [
        {
          "internalType": "uint256",
          "name": "lpAmount",
          "type": "uint256"
        }
      ],
      "name": "getShares",
      "outputs": [
        {
          "internalType": "uint256",
          "name": "amountScaled",
          "type": "uint256"
        }
      ],
      "stateMutability": "view",
      "type": "function"
    },
    {
      "inputs": [],
      "name": "getStrategies",
      "outputs": [
        {
          "internalType": "contract IStrategy[]",
          "name": "strategies",
          "type": "address[]"
        }
      ],
      "stateMutability": "view",
      "type": "function"
    },
    {
      "inputs": [],
      "name": "getSummary",
      "outputs": [
        {
          "internalType": "uint256",
          "name": "allocated",
          "type": "uint256"
        },
        {
          "internalType": "uint256",
          "name": "idle",
          "type": "uint256"
        }
      ],
      "stateMutability": "view",
      "type": "function"
    },
    {
      "inputs": [
        {
          "internalType": "string",
          "name": "name",
          "type": "string"
        },
        {
          "internalType": "string",
          "name": "symbol",
          "type": "string"
        },
        {
          "internalType": "address",
          "name": "allowedAsset",
          "type": "address"
        },
        {
          "internalType": "contract IAgent",
          "name": "agent",
          "type": "address"
        }
      ],
      "name": "initialize",
      "outputs": [],
      "stateMutability": "nonpayable",
      "type": "function"
    },
    {
      "inputs": [],
      "name": "name",
      "outputs": [
        {
          "internalType": "string",
          "name": "",
          "type": "string"
        }
      ],
      "stateMutability": "view",
      "type": "function"
    },
    {
      "inputs": [],
      "name": "owner",
      "outputs": [
        {
          "internalType": "address",
          "name": "",
          "type": "address"
        }
      ],
      "stateMutability": "view",
      "type": "function"
    },
    {
      "inputs": [
        {
          "internalType": "uint256[]",
          "name": "allocations",
          "type": "uint256[]"
        }
      ],
      "name": "reallocate",
      "outputs": [],
      "stateMutability": "nonpayable",
      "type": "function"
    },
    {
      "inputs": [
        {
          "internalType": "contract IStrategy",
          "name": "strategyToRemove",
          "type": "address"
        }
      ],
      "name": "removeStrategy",
      "outputs": [],
      "stateMutability": "nonpayable",
      "type": "function"
    },
    {
      "inputs": [],
      "name": "renounceOwnership",
      "outputs": [],
      "stateMutability": "nonpayable",
      "type": "function"
    },
    {
      "inputs": [],
      "name": "symbol",
      "outputs": [
        {
          "internalType": "string",
          "name": "",
          "type": "string"
        }
      ],
      "stateMutability": "view",
      "type": "function"
    },
    {
      "inputs": [],
      "name": "totalSupply",
      "outputs": [
        {
          "internalType": "uint256",
          "name": "",
          "type": "uint256"
        }
      ],
      "stateMutability": "view",
      "type": "function"
    },
    {
      "inputs": [
        {
          "internalType": "address",
          "name": "to",
          "type": "address"
        },
        {
          "internalType": "uint256",
          "name": "value",
          "type": "uint256"
        }
      ],
      "name": "transfer",
      "outputs": [
        {
          "internalType": "bool",
          "name": "",
          "type": "bool"
        }
      ],
      "stateMutability": "nonpayable",
      "type": "function"
    },
    {
      "inputs": [
        {
          "internalType": "address",
          "name": "from",
          "type": "address"
        },
        {
          "internalType": "address",
          "name": "to",
          "type": "address"
        },
        {
          "internalType": "uint256",
          "name": "value",
          "type": "uint256"
        }
      ],
      "name": "transferFrom",
      "outputs": [
        {
          "internalType": "bool",
          "name": "",
          "type": "bool"
        }
      ],
      "stateMutability": "nonpayable",
      "type": "function"
    },
    {
      "inputs": [
        {
          "internalType": "address",
          "name": "newOwner",
          "type": "address"
        }
      ],
      "name": "transferOwnership",
      "outputs": [],
      "stateMutability": "nonpayable",
      "type": "function"
    },
    {
      "inputs": [
        {
          "internalType": "uint256",
          "name": "lpAmount",
          "type": "uint256"
        }
      ],
      "name": "withdraw",
      "outputs": [
        {
          "internalType": "uint256",
          "name": "amountScaled",
          "type": "uint256"
        }
      ],
      "stateMutability": "nonpayable",
      "type": "function"
    },
    {
      "inputs": [],
      "name": "withdrawAll",
      "outputs": [
        {
          "internalType": "uint256",
          "name": "amountScaled",
          "type": "uint256"
        }
      ],
      "stateMutability": "nonpayable",
      "type": "function"
    },
    {
      "inputs": [
        {
          "internalType": "contract IAccount",
          "name": "account",
          "type": "address"
        }
      ],
      "name": "withdrawAllToAccount",
      "outputs": [
        {
          "internalType": "uint256",
          "name": "amountScaled",
          "type": "uint256"
        }
      ],
      "stateMutability": "nonpayable",
      "type": "function"
    },
    {
      "inputs": [
        {
          "internalType": "uint256",
          "name": "lpAmount",
          "type": "uint256"
        },
        {
          "internalType": "contract IAccount",
          "name": "account",
          "type": "address"
        }
      ],
      "name": "withdrawToAccount",
      "outputs": [
        {
          "internalType": "uint256",
          "name": "amountScaled",
          "type": "uint256"
        }
      ],
      "stateMutability": "nonpayable",
      "type": "function"
    }
  ],
  "bytecode": "0x60808060405234601a576001600055612be090816100208239f35b600080fdfe6080604052600436101561001257600080fd5b60003560e01c806306fdde0314611a90578063095ea7b3146119ea5780630e022923146119ad57806312065fe014611992578063175188e81461183d57806318160ddd14611800578063223e54791461163357806323b872dd146114985780632e1a7d4d1461147a578063313ce5671461145e5780634051ddac146113e95780635c222bad146113c25780636f7267b71461137157806370a082311461131a578063715018a614611274578063853828b61461121c5780638da5cb5b146111d65780638f15b41414610bbb57806395d89b4114610aa0578063a29b3c90146109f9578063a49b5cb4146109d3578063a9059cbb146109a2578063b49a60bb146108d6578063b6b55f25146107d8578063b76e07cc146105a1578063c07e866e146104e2578063d389800f146104c9578063dd62ed3e1461044c578063ee6ce925146101c4578063f2fde38b146101995763f9cc06051461017157600080fd5b3461019457600036600319011261019457602061018c6126b1565b604051908152f35b600080fd5b34610194576020366003190112610194576101c26101b5611bbf565b6101bd612755565b6125e5565b005b346101945760203660031901126101945760043567ffffffffffffffff811161019457366023820112156101945780600401359067ffffffffffffffff8211610436578160051b6040519261021c6020830185611beb565b8352602460208401918301019136831161019457602401905b8282106104265783610245612755565b6002548151036103e25760005b6002548110156102c8576001600160a01b0361026d82611c9e565b90549060031b1c1690610287610282836127b6565b611d6b565b82518110156102b25760019160208260051b8501015190600052600360205260406000205501610252565b634e487b7160e01b600052603260045260246000fd5b6000806002545b8083106103a55761271082116103615760005b600254811015610359576001600160a01b036102fd82611c9e565b90549060031b1c1690813b156101945760008092600460405180958193630f8d564160e31b83525af191821561034d5760019261033c575b50016102e2565b600061034791611beb565b82610335565b6040513d6000823e3d90fd5b6101c2612487565b606460405162461bcd60e51b815260206004820152601660248201527f416c6c6f636174696f6e2065786365656473206d6178000000000000000000006044820152fd5b906103d96001916001600160a01b036103bd86611c9e565b90549060031b1c16600052600360205260406000205490611cb9565b920191906102cf565b606460405162461bcd60e51b815260206004820152601860248201527f4d69736d617463686564206172726179206c656e6774687300000000000000006044820152fd5b8135815260209182019101610235565b634e487b7160e01b600052604160045260246000fd5b3461019457604036600319011261019457610465611bbf565b6001600160a01b036104b1610478611bd5565b926001600160a01b03166000527f52c63247e1f47db19d5ce0460030c497f067ca4cebf71ba98eeadabe20bace01602052604060002090565b91166000526020526020604060002054604051908152f35b34610194576000366003190112610194576101c2612487565b34610194576020366003190112610194576104fb611bbf565b610503612755565b60405190631127a41d60e31b82526020826004816001600160a01b0385165afa90811561034d576001600160a01b0361018c92602094600091610574575b50166000527f52c63247e1f47db19d5ce0460030c497f067ca4cebf71ba98eeadabe20bace0083526040600020546120b0565b6105949150853d871161059a575b61058c8183611beb565b810190611e0e565b85610541565b503d610582565b34610194576040366003190112610194576105ba611bd5565b6105c2612755565b6105ca612a5a565b6000906001600160a01b0360045416803b1561077d576001600160a01b036040519262f887cf60e81b8452169182600482015260016024820152838082604481865afa80156107cb576107bb575b505060405190630b37927d60e21b82526004820152602081602481855afa80156107b05761064d918491610781575b5061243c565b610655611cc6565b813b1561077d576040517fce8c42e80000000000000000000000000000000000000000000000000000000081526004356004820152838160248183875af18015610772579060049460209392610762575b50506106b0612487565b6106c1816106bc611cc6565b611db6565b907f52c63247e1f47db19d5ce0460030c497f067ca4cebf71ba98eeadabe20bace0254801560001461074a575050915b60405193848092631127a41d60e31b82525afa801561034d57816107209160209460009161072d575b50612a95565b6001600055604051908152f35b6107449150853d871161059a5761058c8183611beb565b8561071a565b6107579061075c93611e2d565b611e40565b916106f1565b61076b91611beb565b84806106a6565b6040513d86823e3d90fd5b8280fd5b6107a3915060203d6020116107a9575b61079b8183611beb565b810190611e6f565b84610647565b503d610791565b6040513d85823e3d90fd5b6107c491611beb565b8383610618565b50604051903d90823e3d90fd5b34610194576020366003190112610194576107f1612a5a565b60006107fb611cc6565b8160206001600160a01b03600154166064604051809481937f23b872dd00000000000000000000000000000000000000000000000000000000835233600484015230602484015260043560448401525af180156107b057602093506108bb575b50610864612487565b610870816106bc611cc6565b907f52c63247e1f47db19d5ce0460030c497f067ca4cebf71ba98eeadabe20bace025480156000146108a95750505b6107208133612a95565b610757906108b693611e2d565b61089f565b6108d190833d85116107a95761079b8183611beb565b61085b565b34610194576000366003190112610194576040518060206002549283815201809260026000527f405787fa12a823e0f2b7631cc41b3ba8828b3321ca811111fa75cd3aa3bb5ace9060005b8181106109835750505081610937910382611beb565b6040519182916020830190602084525180915260408301919060005b818110610961575050500390f35b82516001600160a01b0316845285945060209384019390920191600101610953565b82546001600160a01b0316845260209093019260019283019201610921565b34610194576040366003190112610194576109c86109be611bbf565b6024359033612804565b602060405160018152f35b3461019457604036600319011261019457602061018c6109f1611bd5565b6004356120b0565b3461019457602036600319011261019457600460206001600160a01b03610a208335611c9e565b90549060031b1c16604051928380927faffd80b00000000000000000000000000000000000000000000000000000000082525afa801561034d57600090610a6d575b602090604051908152f35b506020813d602011610a98575b81610a8760209383611beb565b810103126101945760209051610a62565b3d9150610a7a565b346101945760003660031901126101945760405160007f52c63247e1f47db19d5ce0460030c497f067ca4cebf71ba98eeadabe20bace0454610ae181611c64565b8084529060018116908115610b975750600114610b19575b610b1583610b0981850382611beb565b60405191829182611b76565b0390f35b7f52c63247e1f47db19d5ce0460030c497f067ca4cebf71ba98eeadabe20bace0460009081527f46a2803e59a4de4e7a4c574b1243f25977ac4c77d5a1a4a609b5394cebb4a2aa939250905b808210610b7d57509091508101602001610b09610af9565b919260018160209254838588010152019101909291610b65565b60ff191660208086019190915291151560051b84019091019150610b099050610af9565b346101945760803660031901126101945760043567ffffffffffffffff811161019457610bec903690600401611c0d565b60243567ffffffffffffffff811161019457610c0c903690600401611c0d565b906044356001600160a01b03811680910361019457606435906001600160a01b038216809203610194577ff0c57e16840df040f15088dc2f81fe391c3923bec73e23a9662efc9c229c6a00549260ff8460401c16159367ffffffffffffffff8116801590816111ce575b60011490816111c4575b1590816111bb575b506111915767ffffffffffffffff1981166001177ff0c57e16840df040f15088dc2f81fe391c3923bec73e23a9662efc9c229c6a005584611152575b50610ccd612b51565b610cd5612b51565b610cdd612b51565b610ce6836125e5565b610cee612b51565b610cf6612b51565b80519067ffffffffffffffff8211610436578190610d347f52c63247e1f47db19d5ce0460030c497f067ca4cebf71ba98eeadabe20bace0354611c64565b601f81116110c3575b50602090601f831160011461101d57600092611012575b50508160011b916000199060031b1c1916177f52c63247e1f47db19d5ce0460030c497f067ca4cebf71ba98eeadabe20bace03555b835167ffffffffffffffff811161043657610dc47f52c63247e1f47db19d5ce0460030c497f067ca4cebf71ba98eeadabe20bace0454611c64565b601f8111610f8e575b50602094601f8211600114610ee957948192939495600092610ede575b50508160011b916000199060031b1c1916177f52c63247e1f47db19d5ce0460030c497f067ca4cebf71ba98eeadabe20bace04555b73ffffffffffffffffffffffffffffffffffffffff19600154161760015573ffffffffffffffffffffffffffffffffffffffff196004541617600455610e6157005b68ff0000000000000000197ff0c57e16840df040f15088dc2f81fe391c3923bec73e23a9662efc9c229c6a0054167ff0c57e16840df040f15088dc2f81fe391c3923bec73e23a9662efc9c229c6a00557fc7f505b2f371ae2175ee4913f4499e1f2633a7b5936321eed1cdaeb6115181d2602060405160018152a1005b015190508580610dea565b601f198216957f52c63247e1f47db19d5ce0460030c497f067ca4cebf71ba98eeadabe20bace04600052806000209160005b888110610f7657508360019596979810610f5d575b505050811b017f52c63247e1f47db19d5ce0460030c497f067ca4cebf71ba98eeadabe20bace0455610e1f565b015160001960f88460031b161c19169055858080610f30565b91926020600181928685015181550194019201610f1b565b7f52c63247e1f47db19d5ce0460030c497f067ca4cebf71ba98eeadabe20bace046000527f46a2803e59a4de4e7a4c574b1243f25977ac4c77d5a1a4a609b5394cebb4a2aa601f830160051c81019160208410611008575b601f0160051c01905b818110610ffc5750610dcd565b60008155600101610fef565b9091508190610fe6565b015190508680610d54565b7f52c63247e1f47db19d5ce0460030c497f067ca4cebf71ba98eeadabe20bace0360009081528281209350601f198516905b8181106110ab5750908460019594939210611092575b505050811b017f52c63247e1f47db19d5ce0460030c497f067ca4cebf71ba98eeadabe20bace0355610d89565b015160001960f88460031b161c19169055868080611065565b9293602060018192878601518155019501930161104f565b7f52c63247e1f47db19d5ce0460030c497f067ca4cebf71ba98eeadabe20bace036000529091507f2ae08a8e29253f69ac5d979a101956ab8f8d9d7ded63fa7a83b16fc47648eab0601f840160051c81019160208510611148575b90601f859493920160051c01905b8181106111395750610d3d565b6000815584935060010161112c565b909150819061111e565b68ffffffffffffffffff191668010000000000000001177ff0c57e16840df040f15088dc2f81fe391c3923bec73e23a9662efc9c229c6a005585610cc4565b7ff92ee8a90000000000000000000000000000000000000000000000000000000060005260046000fd5b90501587610c88565b303b159150610c80565b869150610c76565b346101945760003660031901126101945760206001600160a01b037f9016d09d72d40fdae2fd8ceac6b6234c7706214fd39c1cd1e609a0528c1993005416604051908152f35b3461019457600036600319011261019457602061018c61126f336001600160a01b03166000527f52c63247e1f47db19d5ce0460030c497f067ca4cebf71ba98eeadabe20bace0060205260406000205490565b611e87565b346101945760003660031901126101945761128d612755565b60006001600160a01b037f9016d09d72d40fdae2fd8ceac6b6234c7706214fd39c1cd1e609a0528c1993005473ffffffffffffffffffffffffffffffffffffffff1981167f9016d09d72d40fdae2fd8ceac6b6234c7706214fd39c1cd1e609a0528c19930055167f8be0079c531659141344cd1fd0a4f28419497f9722a3daafe3b4186f6b6457e08280a3005b3461019457602036600319011261019457602061018c611338611bbf565b6001600160a01b03166000527f52c63247e1f47db19d5ce0460030c497f067ca4cebf71ba98eeadabe20bace0060205260406000205490565b3461019457602036600319011261019457602061018c61139a600435611395611cc6565b611e2d565b7f52c63247e1f47db19d5ce0460030c497f067ca4cebf71ba98eeadabe20bace025490611e40565b346101945760003660031901126101945760206001600160a01b0360015416604051908152f35b34610194576000366003190112610194576000806002545b80821061143d578280612710039061271082116114275760409182519182526020820152f35b634e487b7160e01b600052601160045260246000fd5b90916114566001916001600160a01b036103bd86611c9e565b920190611401565b3461019457600036600319011261019457602060405160128152f35b3461019457602036600319011261019457602061018c600435611e87565b34610194576060366003190112610194576114b1611bbf565b6114b9611bd5565b604435906114f9836001600160a01b03166000527f52c63247e1f47db19d5ce0460030c497f067ca4cebf71ba98eeadabe20bace01602052604060002090565b6001600160a01b033316600052602052604060002054926000198410611524575b6109c89350612804565b8284106115fd576001600160a01b038116156115ce57331561159f576109c893611580826001600160a01b03166000527f52c63247e1f47db19d5ce0460030c497f067ca4cebf71ba98eeadabe20bace01602052604060002090565b6001600160a01b0333166000526020528360406000209103905561151a565b7f94280d6200000000000000000000000000000000000000000000000000000000600052600060045260246000fd5b7fe602df0500000000000000000000000000000000000000000000000000000000600052600060045260246000fd5b82847ffb8f41b2000000000000000000000000000000000000000000000000000000006000523360045260245260445260646000fd5b34610194576020366003190112610194576004356001600160a01b03811680820361019457611660612755565b61166b811515611dc3565b611674826127b6565b6117bc576040517f8d928af8000000000000000000000000000000000000000000000000000000008152602081600481855afa801561034d576001600160a01b039160009161179d575b50163014908161171a575b506116d390611dc3565b6002549068010000000000000000821015610436576116fb8260016101c29401600255611c9e565b9091906001600160a01b038084549260031b9316831b921b1916179055565b6004915060206001600160a01b036001541691604051938480927f5c222bad0000000000000000000000000000000000000000000000000000000082525afa91821561034d576116d3926001600160a01b039160009161177e575b501614906116c9565b611797915060203d60201161059a5761058c8183611beb565b85611775565b6117b6915060203d60201161059a5761058c8183611beb565b846116be565b606460405162461bcd60e51b815260206004820152601760248201527f537472617465677920616c7265616479206578697374730000000000000000006044820152fd5b346101945760003660031901126101945760207f52c63247e1f47db19d5ce0460030c497f067ca4cebf71ba98eeadabe20bace0254604051908152f35b34610194576020366003190112610194576004356001600160a01b038116908181036101945761028261187791611872612755565b6127b6565b60025460005b81811061188657005b826001600160a01b0361189883611c9e565b90549060031b1c16146118ad5760010161187d565b6001600160a01b036118be82611c9e565b90549060031b1c16803b156101945760008091600460405180948193630f8d564160e31b83525af1801561034d57611981575b506118fa612487565b6000198201918211611427576116fb6001600160a01b0361191d61192b94611c9e565b90549060031b1c1691611c9e565b600254801561196b576000190161194181611c9e565b6001600160a01b0382549160031b1b19169055600255600052600360205260006040812055600080f35b634e487b7160e01b600052603160045260246000fd5b600061198c91611beb565b836118f1565b3461019457600036600319011261019457602061018c611cc6565b34610194576020366003190112610194576004356001600160a01b0381168091036101945760005260036020526020604060002054604051908152f35b3461019457604036600319011261019457611a03611bbf565b6024359033156115ce576001600160a01b031690811561159f573360009081527f52c63247e1f47db19d5ce0460030c497f067ca4cebf71ba98eeadabe20bace016020526040902082600052602052806040600020556040519081527f8c5be1e5ebec7d5bd14f71427d1e84f3dd0314c0f7b2291e5b200ac8c7c3b92560203392a3602060405160018152f35b346101945760003660031901126101945760405160007f52c63247e1f47db19d5ce0460030c497f067ca4cebf71ba98eeadabe20bace0354611ad181611c64565b8084529060018116908115610b975750600114611af857610b1583610b0981850382611beb565b7f52c63247e1f47db19d5ce0460030c497f067ca4cebf71ba98eeadabe20bace0360009081527f2ae08a8e29253f69ac5d979a101956ab8f8d9d7ded63fa7a83b16fc47648eab0939250905b808210611b5c57509091508101602001610b09610af9565b919260018160209254838588010152019101909291611b44565b91909160208152825180602083015260005b818110611ba9575060409293506000838284010152601f8019910116010190565b8060208092870101516040828601015201611b88565b600435906001600160a01b038216820361019457565b602435906001600160a01b038216820361019457565b90601f8019910116810190811067ffffffffffffffff82111761043657604052565b81601f820112156101945780359067ffffffffffffffff82116104365760405192611c42601f8401601f191660200185611beb565b8284526020838301011161019457816000926020809301838601378301015290565b90600182811c92168015611c94575b6020831014611c7e57565b634e487b7160e01b600052602260045260246000fd5b91607f1691611c73565b6002548110156102b257600260005260206000200190600090565b9190820180921161142757565b611cce6126b1565b9060006002545b808210611ce0575050565b9092600460206001600160a01b03611cf787611c9e565b90549060031b1c166040519283809263765ef2f360e11b82525afa90811561034d57600091611d36575b50611d2e90600192611cb9565b930190611cd5565b906020823d8211611d63575b81611d4f60209383611beb565b81010312611d605750516001611d21565b80fd5b3d9150611d42565b15611d7257565b606460405162461bcd60e51b815260206004820152601260248201527f5374726174656779206e6f7420666f756e6400000000000000000000000000006044820152fd5b9190820391821161142757565b15611dca57565b606460405162461bcd60e51b815260206004820152601060248201527f496e76616c6964207374726174656779000000000000000000000000000000006044820152fd5b9081602091031261019457516001600160a01b03811681036101945790565b8181029291811591840414171561142757565b8115611e4a570490565b634e487b7160e01b600052601260045260246000fd5b60001981146114275760010190565b90816020910312610194575180151581036101945790565b611e9661139a82611395611cc6565b90611ea1813361295b565b611ea96126b1565b828110611f55575b5050906001600160a01b036001541673eeeeeeeeeeeeeeeeeeeeeeeeeeeeeeeeeeeeeeee8114600014611f0357508160008115611efa575b600080809381933390f11561034d57565b506108fc611ee9565b60405163a9059cbb60e01b81523360048201526024810184905290602090829060449082906000905af1801561034d57611f3a5750565b611f529060203d6020116107a95761079b8183611beb565b50565b611f5f9083611db6565b926000935b6002548510806120a7575b15612083576001600160a01b03611f8586611c9e565b90549060031b1c1660405163765ef2f360e11b8152602081600481855afa801561034d57859160009161204d575b5091611fc661139a602093600095611e2d565b848111612046575b6024906040519485938492632e1a7d4d60e01b845260048401525af190811561034d57600091612013575b506120079061200d92611db6565b94611e60565b93611f64565b906020823d821161203e575b8161202c60209383611beb565b81010312611d6057505161200d611ff9565b3d915061201f565b5083611fce565b91506020823d821161207b575b8161206760209383611beb565b81010312611d605750518490611fc6611fb3565b3d915061205a565b5092505061208f6126b1565b818111156120a057505b3880611eb1565b9050612099565b50801515611f6f565b919060006120bc612755565b6001600160a01b036004541691823b156124385760405162f887cf60e81b81526001600160a01b0382166004820152600260248201528281604481875afa80156107b05761241d575b506001600160a01b03169160405190630b37927d60e21b82526004820152602081602481865afa90811561241257906121449183916123f3575061243c565b61215361139a85611395611cc6565b91604051631127a41d60e31b8152602081600481855afa9081156107b05761218491879185916123d4575b5061295b565b61218c6126b1565b838110612252575b50829394506001600160a01b036001541673eeeeeeeeeeeeeeeeeeeeeeeeeeeeeeeeeeeeeeee81146000146121f157508180809481938282156121e8575bf1156121dc575090565b604051903d90823e3d90fd5b506108fc6121d2565b60405163a9059cbb60e01b81526001600160a01b039290921660048301526024820193909352916020908390604490829085905af19081156121dc5750612236575090565b61224e9060203d6020116107a95761079b8183611beb565b5090565b61225f9084959295611db6565b9382945b6002548610806123cb575b156123a1576001600160a01b0361228487611c9e565b90549060031b1c1660405163765ef2f360e11b8152602081600481855afa908115612396578692918a918491612359575b5061139a602093926122c692611e2d565b848111612352575b6024906040519485938492632e1a7d4d60e01b845260048401525af1908115612347578591612312575b506123069061230c92611db6565b95611e60565b94612263565b905060203d8111612340575b6123288183611beb565b60208260009281010312611d6057505161230c6122f8565b503d61231e565b6040513d87823e3d90fd5b50836122ce565b929350505060203d811161238f575b6123728183611beb565b60208260009281010312611d60575051859190899061139a6122b5565b503d612368565b6040513d88823e3d90fd5b509291935093506123b06126b1565b818111156123c457505b9091839238612194565b90506123ba565b5080151561226e565b6123ed915060203d60201161059a5761058c8183611beb565b3861217e565b61240c915060203d6020116107a95761079b8183611beb565b38610647565b6040513d84823e3d90fd5b91612431816001600160a01b039394611beb565b9190612105565b5080fd5b1561244357565b606460405162461bcd60e51b815260206004820152600e60248201527f4e6f7420617574686f72697a65640000000000000000000000000000000000006044820152fd5b61248f6126b1565b9060005b6002548110156125e0576001600160a01b036124ae82611c9e565b90549060031b1c16908160005260036020526127106124d260406000205486611e2d565b0480156125d6576000906001600160a01b036001541673eeeeeeeeeeeeeeeeeeeeeeeeeeeeeeeeeeeeeeee811483146125745750818080928682f11561034d575b813b1561019457600080926004604051809581937fd0e30db00000000000000000000000000000000000000000000000000000000083525af191821561034d57600192612563575b505b01612493565b600061256e91611beb565b3861255b565b60405163a9059cbb60e01b81526001600160a01b03861660048201526024810192909252909160209183916044918391905af1801561034d576125b8575b50612513565b6125cf9060203d81116107a95761079b8183611beb565b50386125b2565b506001915061255d565b509050565b6001600160a01b03168015612682576001600160a01b037f9016d09d72d40fdae2fd8ceac6b6234c7706214fd39c1cd1e609a0528c199300548273ffffffffffffffffffffffffffffffffffffffff198216177f9016d09d72d40fdae2fd8ceac6b6234c7706214fd39c1cd1e609a0528c19930055167f8be0079c531659141344cd1fd0a4f28419497f9722a3daafe3b4186f6b6457e0600080a3565b7f1e4fbdf700000000000000000000000000000000000000000000000000000000600052600060045260246000fd5b6001546001600160a01b031673eeeeeeeeeeeeeeeeeeeeeeeeeeeeeeeeeeeeeeee81036126dd57504790565b6020602491604051928380927f70a082310000000000000000000000000000000000000000000000000000000082523060048301525afa90811561034d57600091612726575090565b90506020813d60201161274d575b8161274160209383611beb565b81010312610194575190565b3d9150612734565b6001600160a01b037f9016d09d72d40fdae2fd8ceac6b6234c7706214fd39c1cd1e609a0528c1993005416330361278857565b7f118cdaa7000000000000000000000000000000000000000000000000000000006000523360045260246000fd5b6002549060005b8281106127cc57505050600090565b6001600160a01b036127dd82611c9e565b90549060031b1c166001600160a01b038316146127fc576001016127bd565b505050600190565b6001600160a01b031690811561292c576001600160a01b03169182156128fd5760008281527f52c63247e1f47db19d5ce0460030c497f067ca4cebf71ba98eeadabe20bace0060205260408120548281106128e35791604082827fddf252ad1be2c89b69c2b068fc378daa952ba7f163c4a11628f55a4df523b3ef9587602096527f52c63247e1f47db19d5ce0460030c497f067ca4cebf71ba98eeadabe20bace00865203828220558681527f52c63247e1f47db19d5ce0460030c497f067ca4cebf71ba98eeadabe20bace00845220818154019055604051908152a3565b60649363391434e360e21b83949352600452602452604452fd5b7fec442f0500000000000000000000000000000000000000000000000000000000600052600060045260246000fd5b7f96c6fd1e00000000000000000000000000000000000000000000000000000000600052600060045260246000fd5b6001600160a01b0316801561292c576000918183527f52c63247e1f47db19d5ce0460030c497f067ca4cebf71ba98eeadabe20bace006020526040832054818110612a4157817fddf252ad1be2c89b69c2b068fc378daa952ba7f163c4a11628f55a4df523b3ef926020928587527f52c63247e1f47db19d5ce0460030c497f067ca4cebf71ba98eeadabe20bace008452036040862055807f52c63247e1f47db19d5ce0460030c497f067ca4cebf71ba98eeadabe20bace0254037f52c63247e1f47db19d5ce0460030c497f067ca4cebf71ba98eeadabe20bace0255604051908152a3565b839263391434e360e21b60649552600452602452604452fd5b600260005414612a6b576002600055565b7f3ee5aeb50000000000000000000000000000000000000000000000000000000060005260046000fd5b6001600160a01b03169081156128fd577fddf252ad1be2c89b69c2b068fc378daa952ba7f163c4a11628f55a4df523b3ef602082612af66000947f52c63247e1f47db19d5ce0460030c497f067ca4cebf71ba98eeadabe20bace0254611cb9565b7f52c63247e1f47db19d5ce0460030c497f067ca4cebf71ba98eeadabe20bace02558484527f52c63247e1f47db19d5ce0460030c497f067ca4cebf71ba98eeadabe20bace00825260408420818154019055604051908152a3565b60ff7ff0c57e16840df040f15088dc2f81fe391c3923bec73e23a9662efc9c229c6a005460401c1615612b8057565b7fd7e6bcf80000000000000000000000000000000000000000000000000000000060005260046000fdfea2646970667358221220da0059e33541b43fc12b2cad2fddf9ec7d1266c157d7900ed36db1df0e72017b64736f6c634300081c0033",
  "linkReferences": {},
  "deployedLinkReferences": {}
}