{
  "_format": "hh-sol-artifact-1",
  "contractName": "AaveSupplyOnlyStrategy",
  "sourceName": "contracts/strategies/aave/AaveSupplyOnlyStrategy.sol",
  "abi": [
    {
      "inputs": [],
      "name": "EnforcedPause",
      "type": "error"
    },
    {
      "inputs": [],
      "name": "ExpectedPause",
      "type": "error"
    },
    {
      "inputs": [],
      "name": "InvalidInitialization",
      "type": "error"
    },
    {
      "inputs": [],
      "name": "NotInitializing",
      "type": "error"
    },
    {
      "inputs": [
        {
          "internalType": "address",
          "name": "owner",
          "type": "address"
        }
      ],
      "name": "OwnableInvalidOwner",
      "type": "error"
    },
    {
      "inputs": [
        {
          "internalType": "address",
          "name": "account",
          "type": "address"
        }
      ],
      "name": "OwnableUnauthorizedAccount",
      "type": "error"
    },
    {
      "anonymous": false,
      "inputs": [
        {
          "indexed": false,
          "internalType": "uint256",
          "name": "callFeeAmount",
          "type": "uint256"
        },
        {
          "indexed": false,
          "internalType": "uint256",
          "name": "feeAmount",
          "type": "uint256"
        },
        {
          "indexed": false,
          "internalType": "uint256",
          "name": "strategistFeeAmount",
          "type": "uint256"
        }
      ],
      "name": "ChargedFees",
      "type": "event"
    },
    {
      "anonymous": false,
      "inputs": [
        {
          "indexed": false,
          "internalType": "uint256",
          "name": "amountScaled",
          "type": "uint256"
        }
      ],
      "name": "Deposit",
      "type": "event"
    },
    {
      "anonymous": false,
      "inputs": [
        {
          "indexed": false,
          "internalType": "address",
          "name": "feeCollector",
          "type": "address"
        }
      ],
      "name": "FeeCollectorSetted",
      "type": "event"
    },
    {
      "anonymous": false,
      "inputs": [
        {
          "indexed": false,
          "internalType": "address",
          "name": "feeRecipient",
          "type": "address"
        }
      ],
      "name": "FeeRecipientSetted",
      "type": "event"
    },
    {
      "anonymous": false,
      "inputs": [
        {
          "indexed": false,
          "internalType": "uint64",
          "name": "version",
          "type": "uint64"
        }
      ],
      "name": "Initialized",
      "type": "event"
    },
    {
      "anonymous": false,
      "inputs": [
        {
          "indexed": false,
          "internalType": "address",
          "name": "manager",
          "type": "address"
        }
      ],
      "name": "ManagerSetted",
      "type": "event"
    },
    {
      "anonymous": false,
      "inputs": [
        {
          "indexed": true,
          "internalType": "address",
          "name": "previousOwner",
          "type": "address"
        },
        {
          "indexed": true,
          "internalType": "address",
          "name": "newOwner",
          "type": "address"
        }
      ],
      "name": "OwnershipTransferred",
      "type": "event"
    },
    {
      "anonymous": false,
      "inputs": [
        {
          "indexed": false,
          "internalType": "address",
          "name": "account",
          "type": "address"
        }
      ],
      "name": "Paused",
      "type": "event"
    },
    {
      "anonymous": false,
      "inputs": [
        {
          "indexed": false,
          "internalType": "address",
          "name": "manager",
          "type": "address"
        }
      ],
      "name": "StrategistSetted",
      "type": "event"
    },
    {
      "anonymous": false,
      "inputs": [
        {
          "indexed": false,
          "internalType": "uint256",
          "name": "feeId",
          "type": "uint256"
        }
      ],
      "name": "StrategyFeeIdSetted",
      "type": "event"
    },
    {
      "anonymous": false,
      "inputs": [
        {
          "indexed": false,
          "internalType": "address",
          "name": "harvester",
          "type": "address"
        },
        {
          "indexed": false,
          "internalType": "uint256",
          "name": "assetHarvested",
          "type": "uint256"
        },
        {
          "indexed": false,
          "internalType": "uint256",
          "name": "tvl",
          "type": "uint256"
        }
      ],
      "name": "StrategyHarvest",
      "type": "event"
    },
    {
      "anonymous": false,
      "inputs": [
        {
          "indexed": false,
          "internalType": "address",
          "name": "router",
          "type": "address"
        }
      ],
      "name": "SwapRouterSetted",
      "type": "event"
    },
    {
      "anonymous": false,
      "inputs": [
        {
          "indexed": false,
          "internalType": "address",
          "name": "account",
          "type": "address"
        }
      ],
      "name": "Unpaused",
      "type": "event"
    },
    {
      "anonymous": false,
      "inputs": [
        {
          "indexed": false,
          "internalType": "address",
          "name": "vault",
          "type": "address"
        }
      ],
      "name": "VaultSetted",
      "type": "event"
    },
    {
      "anonymous": false,
      "inputs": [
        {
          "indexed": false,
          "internalType": "uint256",
          "name": "amountScaled",
          "type": "uint256"
        }
      ],
      "name": "Withdraw",
      "type": "event"
    },
    {
      "anonymous": false,
      "inputs": [
        {
          "indexed": false,
          "internalType": "uint256",
          "name": "fee",
          "type": "uint256"
        }
      ],
      "name": "WithdrawalFeeSetted",
      "type": "event"
    },
    {
      "inputs": [],
      "name": "WETH",
      "outputs": [
        {
          "internalType": "address",
          "name": "",
          "type": "address"
        }
      ],
      "stateMutability": "view",
      "type": "function"
    },
    {
      "inputs": [],
      "name": "_aToken",
      "outputs": [
        {
          "internalType": "address",
          "name": "",
          "type": "address"
        }
      ],
      "stateMutability": "view",
      "type": "function"
    },
    {
      "inputs": [],
      "name": "_asset",
      "outputs": [
        {
          "internalType": "address",
          "name": "",
          "type": "address"
        }
      ],
      "stateMutability": "view",
      "type": "function"
    },
    {
      "inputs": [],
      "name": "_iToken",
      "outputs": [
        {
          "internalType": "address",
          "name": "",
          "type": "address"
        }
      ],
      "stateMutability": "view",
      "type": "function"
    },
    {
      "inputs": [],
      "name": "_lendingPool",
      "outputs": [
        {
          "internalType": "address",
          "name": "",
          "type": "address"
        }
      ],
      "stateMutability": "view",
      "type": "function"
    },
    {
      "inputs": [
        {
          "internalType": "uint256",
          "name": "",
          "type": "uint256"
        }
      ],
      "name": "_rewardTokens",
      "outputs": [
        {
          "internalType": "address",
          "name": "",
          "type": "address"
        }
      ],
      "stateMutability": "view",
      "type": "function"
    },
    {
      "inputs": [],
      "name": "_rewardsController",
      "outputs": [
        {
          "internalType": "address",
          "name": "",
          "type": "address"
        }
      ],
      "stateMutability": "view",
      "type": "function"
    },
    {
      "inputs": [
        {
          "internalType": "address",
          "name": "rewardToken",
          "type": "address"
        }
      ],
      "name": "addReward",
      "outputs": [],
      "stateMutability": "nonpayable",
      "type": "function"
    },
    {
      "inputs": [],
      "name": "beforeDeposit",
      "outputs": [],
      "stateMutability": "nonpayable",
      "type": "function"
    },
    {
      "inputs": [],
      "name": "callReward",
      "outputs": [
        {
          "internalType": "uint256",
          "name": "",
          "type": "uint256"
        }
      ],
      "stateMutability": "view",
      "type": "function"
    },
    {
      "inputs": [],
      "name": "deposit",
      "outputs": [],
      "stateMutability": "nonpayable",
      "type": "function"
    },
    {
      "inputs": [],
      "name": "exitStrategy",
      "outputs": [],
      "stateMutability": "nonpayable",
      "type": "function"
    },
    {
      "inputs": [],
      "name": "getAllFees",
      "outputs": [
        {
          "components": [
            {
              "components": [
                {
                  "internalType": "uint256",
                  "name": "total",
                  "type": "uint256"
                },
                {
                  "internalType": "uint256",
                  "name": "protocol",
                  "type": "uint256"
                },
                {
                  "internalType": "uint256",
                  "name": "call",
                  "type": "uint256"
                },
                {
                  "internalType": "uint256",
                  "name": "strategist",
                  "type": "uint256"
                },
                {
                  "internalType": "string",
                  "name": "label",
                  "type": "string"
                },
                {
                  "internalType": "bool",
                  "name": "active",
                  "type": "bool"
                }
              ],
              "internalType": "struct IFeeCollector.FeeCategory",
              "name": "performance",
              "type": "tuple"
            },
            {
              "internalType": "uint256",
              "name": "deposit",
              "type": "uint256"
            },
            {
              "internalType": "uint256",
              "name": "withdraw",
              "type": "uint256"
            }
          ],
          "internalType": "struct IFeeCollector.AllFees",
          "name": "",
          "type": "tuple"
        }
      ],
      "stateMutability": "view",
      "type": "function"
    },
    {
      "inputs": [],
      "name": "getAsset",
      "outputs": [
        {
          "internalType": "address",
          "name": "asset",
          "type": "address"
        }
      ],
      "stateMutability": "view",
      "type": "function"
    },
    {
      "inputs": [],
      "name": "getBalanceOf",
      "outputs": [
        {
          "internalType": "uint256",
          "name": "",
          "type": "uint256"
        }
      ],
      "stateMutability": "view",
      "type": "function"
    },
    {
      "inputs": [],
      "name": "getBalanceOfAsset",
      "outputs": [
        {
          "internalType": "uint256",
          "name": "",
          "type": "uint256"
        }
      ],
      "stateMutability": "view",
      "type": "function"
    },
    {
      "inputs": [],
      "name": "getBalanceOfPool",
      "outputs": [
        {
          "internalType": "uint256",
          "name": "balanceOfPool",
          "type": "uint256"
        }
      ],
      "stateMutability": "view",
      "type": "function"
    },
    {
      "inputs": [],
      "name": "getBaseRate",
      "outputs": [
        {
          "internalType": "uint256",
          "name": "baseRate",
          "type": "uint256"
        }
      ],
      "stateMutability": "view",
      "type": "function"
    },
    {
      "inputs": [],
      "name": "getDepositFee",
      "outputs": [
        {
          "internalType": "uint256",
          "name": "depositFee",
          "type": "uint256"
        }
      ],
      "stateMutability": "pure",
      "type": "function"
    },
    {
      "inputs": [],
      "name": "getLastHarvest",
      "outputs": [
        {
          "internalType": "uint256",
          "name": "lastHarvest",
          "type": "uint256"
        }
      ],
      "stateMutability": "view",
      "type": "function"
    },
    {
      "inputs": [],
      "name": "getLockedProfit",
      "outputs": [
        {
          "internalType": "uint256",
          "name": "",
          "type": "uint256"
        }
      ],
      "stateMutability": "view",
      "type": "function"
    },
    {
      "inputs": [],
      "name": "getStrategyFeeId",
      "outputs": [
        {
          "internalType": "uint256",
          "name": "strategyFeeId",
          "type": "uint256"
        }
      ],
      "stateMutability": "view",
      "type": "function"
    },
    {
      "inputs": [],
      "name": "getVault",
      "outputs": [
        {
          "internalType": "address",
          "name": "vault",
          "type": "address"
        }
      ],
      "stateMutability": "view",
      "type": "function"
    },
    {
      "inputs": [],
      "name": "getWithdrawFee",
      "outputs": [
        {
          "internalType": "uint256",
          "name": "withdrawFee",
          "type": "uint256"
        }
      ],
      "stateMutability": "view",
      "type": "function"
    },
    {
      "inputs": [],
      "name": "harvest",
      "outputs": [],
      "stateMutability": "nonpayable",
      "type": "function"
    },
    {
      "inputs": [
        {
          "internalType": "address",
          "name": "callFeeRecipient",
          "type": "address"
        }
      ],
      "name": "harvestWithCallFeeRecipient",
      "outputs": [],
      "stateMutability": "nonpayable",
      "type": "function"
    },
    {
      "inputs": [
        {
          "internalType": "address",
          "name": "poolAddressesProvider",
          "type": "address"
        },
        {
          "internalType": "address",
          "name": "_WETH",
          "type": "address"
        },
        {
          "internalType": "address",
          "name": "aToken",
          "type": "address"
        },
        {
          "internalType": "bool",
          "name": "harvestOnDeposit",
          "type": "bool"
        },
        {
          "internalType": "address",
          "name": "asset",
          "type": "address"
        },
        {
          "internalType": "address[]",
          "name": "rewardTokens",
          "type": "address[]"
        },
        {
          "components": [
            {
              "internalType": "address",
              "name": "vault",
              "type": "address"
            },
            {
              "internalType": "address",
              "name": "manager",
              "type": "address"
            },
            {
              "internalType": "address",
              "name": "swapRouter",
              "type": "address"
            },
            {
              "internalType": "address",
              "name": "strategist",
              "type": "address"
            },
            {
              "internalType": "address",
              "name": "feeRecipient",
              "type": "address"
            },
            {
              "internalType": "address",
              "name": "feeCollector",
              "type": "address"
            }
          ],
          "internalType": "struct BaseNativeStrategy.Config",
          "name": "config",
          "type": "tuple"
        }
      ],
      "name": "initialize",
      "outputs": [],
      "stateMutability": "nonpayable",
      "type": "function"
    },
    {
      "inputs": [],
      "name": "managerHarvest",
      "outputs": [],
      "stateMutability": "nonpayable",
      "type": "function"
    },
    {
      "inputs": [
        {
          "internalType": "address",
          "name": "claimer",
          "type": "address"
        },
        {
          "internalType": "address[]",
          "name": "users",
          "type": "address[]"
        },
        {
          "internalType": "address[]",
          "name": "tokens",
          "type": "address[]"
        },
        {
          "internalType": "uint256[]",
          "name": "amounts",
          "type": "uint256[]"
        },
        {
          "internalType": "bytes32[][]",
          "name": "proofs",
          "type": "bytes32[][]"
        }
      ],
      "name": "merkleClaim",
      "outputs": [],
      "stateMutability": "nonpayable",
      "type": "function"
    },
    {
      "inputs": [],
      "name": "owner",
      "outputs": [
        {
          "internalType": "address",
          "name": "",
          "type": "address"
        }
      ],
      "stateMutability": "view",
      "type": "function"
    },
    {
      "inputs": [],
      "name": "panic",
      "outputs": [],
      "stateMutability": "nonpayable",
      "type": "function"
    },
    {
      "inputs": [],
      "name": "pause",
      "outputs": [],
      "stateMutability": "nonpayable",
      "type": "function"
    },
    {
      "inputs": [],
      "name": "paused",
      "outputs": [
        {
          "internalType": "bool",
          "name": "",
          "type": "bool"
        }
      ],
      "stateMutability": "view",
      "type": "function"
    },
    {
      "inputs": [
        {
          "internalType": "uint256",
          "name": "i",
          "type": "uint256"
        }
      ],
      "name": "removeReward",
      "outputs": [],
      "stateMutability": "nonpayable",
      "type": "function"
    },
    {
      "inputs": [],
      "name": "renounceOwnership",
      "outputs": [],
      "stateMutability": "nonpayable",
      "type": "function"
    },
    {
      "inputs": [],
      "name": "resetRewards",
      "outputs": [],
      "stateMutability": "nonpayable",
      "type": "function"
    },
    {
      "inputs": [],
      "name": "rewardsAvailable",
      "outputs": [
        {
          "internalType": "uint256",
          "name": "",
          "type": "uint256"
        }
      ],
      "stateMutability": "view",
      "type": "function"
    },
    {
      "inputs": [],
      "name": "rewardsLength",
      "outputs": [
        {
          "internalType": "uint256",
          "name": "",
          "type": "uint256"
        }
      ],
      "stateMutability": "view",
      "type": "function"
    },
    {
      "inputs": [
        {
          "internalType": "address",
          "name": "newAsset",
          "type": "address"
        }
      ],
      "name": "setAsset",
      "outputs": [],
      "stateMutability": "nonpayable",
      "type": "function"
    },
    {
      "inputs": [
        {
          "internalType": "contract IFeeCollector",
          "name": "newFeeCollector",
          "type": "address"
        }
      ],
      "name": "setFeeCollector",
      "outputs": [],
      "stateMutability": "nonpayable",
      "type": "function"
    },
    {
      "inputs": [
        {
          "internalType": "address",
          "name": "newFeeRecipient",
          "type": "address"
        }
      ],
      "name": "setFeeRecipient",
      "outputs": [],
      "stateMutability": "nonpayable",
      "type": "function"
    },
    {
      "inputs": [
        {
          "internalType": "bool",
          "name": "harvestOnDeposit",
          "type": "bool"
        }
      ],
      "name": "setHarvestOnDeposit",
      "outputs": [],
      "stateMutability": "nonpayable",
      "type": "function"
    },
    {
      "inputs": [
        {
          "internalType": "uint256",
          "name": "newDuration",
          "type": "uint256"
        }
      ],
      "name": "setLockDuration",
      "outputs": [],
      "stateMutability": "nonpayable",
      "type": "function"
    },
    {
      "inputs": [
        {
          "internalType": "address",
          "name": "newManager",
          "type": "address"
        }
      ],
      "name": "setManager",
      "outputs": [],
      "stateMutability": "nonpayable",
      "type": "function"
    },
    {
      "inputs": [
        {
          "internalType": "address",
          "name": "newReward",
          "type": "address"
        }
      ],
      "name": "setReward",
      "outputs": [],
      "stateMutability": "nonpayable",
      "type": "function"
    },
    {
      "inputs": [
        {
          "internalType": "address",
          "name": "rewardToken",
          "type": "address"
        },
        {
          "internalType": "uint256",
          "name": "minAmount",
          "type": "uint256"
        }
      ],
      "name": "setRewardMinAmount",
      "outputs": [],
      "stateMutability": "nonpayable",
      "type": "function"
    },
    {
      "inputs": [
        {
          "internalType": "address",
          "name": "newRewarder",
          "type": "address"
        }
      ],
      "name": "setRewarder",
      "outputs": [],
      "stateMutability": "nonpayable",
      "type": "function"
    },
    {
      "inputs": [
        {
          "internalType": "address",
          "name": "newStrategist",
          "type": "address"
        }
      ],
      "name": "setStrategist",
      "outputs": [],
      "stateMutability": "nonpayable",
      "type": "function"
    },
    {
      "inputs": [
        {
          "internalType": "uint256",
          "name": "newFeeId",
          "type": "uint256"
        }
      ],
      "name": "setStrategyFeeId",
      "outputs": [],
      "stateMutability": "nonpayable",
      "type": "function"
    },
    {
      "inputs": [
        {
          "internalType": "address",
          "name": "newRouter",
          "type": "address"
        }
      ],
      "name": "setSwapRouter",
      "outputs": [],
      "stateMutability": "nonpayable",
      "type": "function"
    },
    {
      "inputs": [
        {
          "internalType": "address",
          "name": "newVault",
          "type": "address"
        }
      ],
      "name": "setVault",
      "outputs": [],
      "stateMutability": "nonpayable",
      "type": "function"
    },
    {
      "inputs": [
        {
          "internalType": "uint256",
          "name": "newFee",
          "type": "uint256"
        }
      ],
      "name": "setWithdrawalFee",
      "outputs": [],
      "stateMutability": "nonpayable",
      "type": "function"
    },
    {
      "inputs": [],
      "name": "swapRouter",
      "outputs": [
        {
          "internalType": "address",
          "name": "router",
          "type": "address"
        }
      ],
      "stateMutability": "view",
      "type": "function"
    },
    {
      "inputs": [
        {
          "internalType": "address",
          "name": "newOwner",
          "type": "address"
        }
      ],
      "name": "transferOwnership",
      "outputs": [],
      "stateMutability": "nonpayable",
      "type": "function"
    },
    {
      "inputs": [],
      "name": "unpause",
      "outputs": [],
      "stateMutability": "nonpayable",
      "type": "function"
    },
    {
      "inputs": [
        {
          "internalType": "uint256",
          "name": "amountScaled",
          "type": "uint256"
        }
      ],
      "name": "withdraw",
      "outputs": [
        {
          "internalType": "uint256",
          "name": "withdrawn",
          "type": "uint256"
        }
      ],
      "stateMutability": "nonpayable",
      "type": "function"
    },
    {
      "stateMutability": "payable",
      "type": "receive"
    }
  ],
  "bytecode": "0x60808060405234601557613e8b908161001b8239f35b600080fdfe608080604052600436101561001d575b50361561001b57600080fd5b005b600090813560e01c9081630500510d14612ca0575080630de705b5146103445780630e8fbb5a14612c535780631540aa8914612c3857806319a501ad14612b60578063234e00e114612b39578063281c8f3214612b125780632e1a7d4d146129475780633a6462e4146103b35780633f4ba83a1461288357806341273657146128195780634641257d146128005780634700d3051461275a57806349883934146127175780634eb665af146126f4578063573fef0a1461217f578063582ab01b14611f9a5780635c222bad14611f735780635c975abb14611f31578063623d8bd214611828578063669fe8ee146111825780636817031b14611118578063715018a61461107f5780637a1a959b146110585780637c6ab20814610f875780638456cb5914610eee5780638d928af814610ec75780638da5cb5b14610e8157806397fd323d146103445780639c9b2e2114610db8578063a42dce8014610d4a578063a7e9ca8214610d0d578063ab7cc1f814610cf2578063ac1e502514610c57578063ad29f5da14610bed578063ad5c464814610bc7578063affd80b014610ba9578063b20feaaf14610ac1578063b655d0c414610870578063bbb356d514610852578063c31c9c071461082b578063c553173f14610765578063c7b9d530146106ab578063d0d552dd14610681578063d0e30db01461050e578063d0ebdbe7146104a4578063d801d94614610483578063df39030514610468578063e4580a3c146103b8578063e5932c40146103b3578063e74b981b14610349578063e7a7250a14610344578063ecbde5e614610307578063f2fde38b146102da578063f8b3c21e146102b75763fcea5e290361000f57346102b457806003193601126102b45760206001600160a01b0360015416604051908152f35b80fd5b50346102b457806003193601126102b45760206102d2613c58565b604051908152f35b50346102b45760203660031901126102b4576103046102f7612ce1565b6102ff61396f565b61381d565b80f35b50346102b457806003193601126102b45760206102d26103366103286137a6565b610330613c58565b90613810565b61033e6136aa565b90612e99565b612cc5565b50346102b45760203660031901126102b4577fb4fd7c525e4699047ffa750e100b105a6cb7ef166a17f93af958ed73cc44668d60206001600160a01b0361038e612ce1565b61039661396f565b16806001600160a01b03196009541617600955604051908152a180f35b612d0b565b50346102b457806003193601126102b45760249060206001600160a01b03600a5416604051938480927fa5ed41750000000000000000000000000000000000000000000000000000000082523060048301525afa90811561045c5790610424575b602090604051908152f35b506020813d602011610454575b8161043e60209383612dd4565b8101031261044f5760209051610419565b600080fd5b3d9150610431565b604051903d90823e3d90fd5b50346102b457806003193601126102b45760206102d26137a6565b50346102b457806003193601126102b45761049c6138dc565b610304612ec9565b50346102b45760203660031901126102b4577fcacb29288aca892f0969d6cda0607946bb31ef78b004e541423b04da5bc8842e60206001600160a01b036104e9612ce1565b6104f16138dc565b16806001600160a01b03196006541617600655604051908152a180f35b50346102b457806003193601126102b457610527613c03565b806105306137a6565b806105385750f35b60015460425460405163095ea7b360e01b81526001600160a01b0391821660048201526024810184905291602091839160449183918891165af180156106765761063b575b506001600160a01b0360425416906001600160a01b036001541690823b15610636576084849283604051958694859363e8eda9df60e01b8552600485015260248401523060448401528160648401525af1801561062b57610616575b50507f4d6ce1e535dbade1c23defba91e23b8f791ce5edc0cc320257a2b364e4e38426602061060c6103366103286137a6565b604051908152a180f35b8161062091612dd4565b6102b45780386105d9565b6040513d84823e3d90fd5b505050fd5b6020813d60201161066e575b8161065460209383612dd4565b8101031261066a5761066590612ebc565b61057d565b5050fd5b3d9150610647565b6040513d85823e3d90fd5b50346102b45760203660031901126102b45761030461069e612ce1565b6106a66138dc565b613740565b50346102b45760203660031901126102b4576106c5612ce1565b6008546001600160a01b0381163303610721576001600160a01b03196020916001600160a01b037f5f5efa858752444f35895d1a3a466db6cf3e319d27bac0a5b9bfe359fe49c4e094169182911617600855604051908152a180f35b606460405162461bcd60e51b815260206004820152600e60248201527f416c7265616479207365747465640000000000000000000000000000000000006044820152fd5b50346102b45760203660031901126102b45761077f6138dc565b6003546000198101908111610817576001600160a01b036107a26107d492612d24565b90549060031b1c166107b5600435612d24565b9091906001600160a01b038084549260031b9316831b921b1916179055565b600354801561080357600019016107ea81612d24565b6001600160a01b0382549160031b1b1916905560035580f35b602482634e487b7160e01b81526031600452fd5b602482634e487b7160e01b81526011600452fd5b50346102b457806003193601126102b45760206001600160a01b0360075416604051908152f35b50346102b457806003193601126102b4576020600354604051908152f35b50346102b457806003193601126102b4576001600160a01b0360425416906101e06001600160a01b03600154166024604051809581937f35ea6a7500000000000000000000000000000000000000000000000000000000835260048301525afa918215610ab45781926108ff575b60206fffffffffffffffffffffffffffffffff604085015116604051908152f35b809192506101e03d8111610aad575b6109188183612dd4565b810103916101e083126102b457604051926101e0840184811067ffffffffffffffff821117610a99576040526020136102b4576040516020810181811067ffffffffffffffff821117610a995760405282518152835261097a60208301613723565b602084015261098b60408301613723565b604084015261099c60608301613723565b60608401526109ad60808301613723565b60808401526109be60a08301613723565b60a084015260c082015164ffffffffff81168103610a955760c084015260e08201519061ffff821682036102b4575082610a886101c06fffffffffffffffffffffffffffffffff9460409460e06020980152610a1d6101008201613638565b610100850152610a306101208201613638565b610120850152610a436101408201613638565b610140850152610a566101608201613638565b610160850152610a696101808201613723565b610180850152610a7c6101a08201613723565b6101a085015201613723565b6101c082015292506108de565b5080fd5b602483634e487b7160e01b81526041600452fd5b503d61090e565b50604051903d90823e3d90fd5b50346102b457806003193601126102b4578060408051610ae081612db8565b610ae86136f1565b81528260208201520152610160610afd613aa4565b610b05612e19565b9260405191610b1383612db8565b825260208201908152604082019384526040519384926020845251916060602085015282516080850152602083015160a0850152604083015160c0850152606083015160e085015260a060808401519360c0610100870152610b8585518096816101408a015260208a8a019101612df6565b01511515610120850152516040840152516060830152601f01601f19168101030190f35b50346102b457806003193601126102b4576020600c54604051908152f35b50346102b457806003193601126102b4576001600160a01b036020915416604051908152f35b50346102b457806003193601126102b457610c066138dc565b6003548160035580610c16575080f35b600382527fc2575a0e9e593c00f959f8c92f12db2869c3395a3b0502d05e2516446f71f85b908101905b818110610c4c57505080f35b828155600101610c40565b50346102b45760203660031901126102b457600435610c746138dc565b60328111610cae576020817fb6b745e6274b3b4bddb8f8e1abe1780e23715ae20e9e98871bbaaafa71117b8292600b55604051908152a180f35b606460405162461bcd60e51b815260206004820152600a60248201527f4e6f7420636170706564000000000000000000000000000000000000000000006044820152fd5b50346102b457806003193601126102b45760206102d26136aa565b50346102b45760403660031901126102b4576001600160a01b03610d2f612ce1565b610d376138dc565b1681526004602052602435604082205580f35b50346102b45760203660031901126102b4576004356001600160a01b038116809103610a955760207f9c845dd2e74c50b3e7ff8a9624a1239f2f8b1f4ccb10e7f93f87e2bef841887f91610d9c61396f565b806001600160a01b0319600a541617600a55604051908152a180f35b50346102b45760203660031901126102b457610dd2612ce1565b610dda6138dc565b6001600160a01b0360015416610dfc6001600160a01b0383169182141561365f565b6001600160a01b0383541614610e3d57610e1581613a4a565b60035468010000000000000000811015610a9957906107b58260016103049401600355612d24565b606460405162461bcd60e51b815260206004820152600a60248201527f4e6f74206e6174697665000000000000000000000000000000000000000000006044820152fd5b50346102b457806003193601126102b45760206001600160a01b037f9016d09d72d40fdae2fd8ceac6b6234c7706214fd39c1cd1e609a0528c1993005416604051908152f35b50346102b457806003193601126102b45760206001600160a01b0360055416604051908152f35b50346102b457806003193601126102b457610f076138dc565b610f0f613c03565b600160ff197fcd5ed15c6e187e77e9aee88184c21f4f2182ab5827cb3b7e07fbedcd63f033005416177fcd5ed15c6e187e77e9aee88184c21f4f2182ab5827cb3b7e07fbedcd63f03300557f62e78cea01bee320cd4e420270b5ea74000d11b0c9f74754ebdbfc544b05a2586020604051338152a180f35b50346102b457806003193601126102b457610fae6001600160a01b03600554163314612e4e565b610fb66139d0565b61101060206001600160a01b03600154166001600160a01b036005541690610fdc6137a6565b918560405180968195829463a9059cbb60e01b845260048401602090939291936001600160a01b0360408201951681520152565b03925af1801561062b57611022575080f35b6020813d602011611050575b8161103b60209383612dd4565b81010312610a955761104c90612ebc565b5080f35b3d915061102e565b50346102b457806003193601126102b45760206001600160a01b0360415416604051908152f35b50346102b457806003193601126102b45761109861396f565b806001600160a01b037f9016d09d72d40fdae2fd8ceac6b6234c7706214fd39c1cd1e609a0528c199300546001600160a01b031981167f9016d09d72d40fdae2fd8ceac6b6234c7706214fd39c1cd1e609a0528c19930055167f8be0079c531659141344cd1fd0a4f28419497f9722a3daafe3b4186f6b6457e08280a380f35b50346102b45760203660031901126102b4577f818d6ac90c5da038e3ce97fe5c8cbd5c3720fdc8e5a6c1665d601628794b011460206001600160a01b0361115d612ce1565b61116561396f565b16806001600160a01b03196005541617600555604051908152a180f35b50346102b4576101803660031901126102b45761119d612ce1565b602435906001600160a01b038216809203611824576044356001600160a01b03811680910361182057606435801515810361181c576084356001600160a01b0381168091036118185760a4359167ffffffffffffffff831161181457366023840112156118145782600401359467ffffffffffffffff8611611800578560051b936040519661122f6020870189612dd4565b87526020870160248196830101913683116117e057602401905b8282106117e85750505060c060c31936011261173a576040519461126c86612d86565b60c4356001600160a01b03811681036117e457865260e4356001600160a01b03811681036117e45760208701908152610104356001600160a01b03811681036117e05760408801908152610124356001600160a01b03811681036117dc576060890190815261014435916001600160a01b03831683036117d85760808a0192835261016435936001600160a01b03851685036117d45760a08b019485527ff0c57e16840df040f15088dc2f81fe391c3923bec73e23a9662efc9c229c6a00549a60ff8c60401c16159b8c67ffffffffffffffff8216801591826117cc575b5060011490816117c2575b1590816117b9575b50611790576001600160a01b03989693948980968f82968360209d9b9781978294600167ffffffffffffffff198316177ff0c57e16840df040f15088dc2f81fe391c3923bec73e23a9662efc9c229c6a0055611751575b506113bd613c93565b6113c5613c93565b6113cd613c93565b6113d63361381d565b6113de613c93565b51166001600160a01b0319600554161760055551166001600160a01b0319600654161760065551166001600160a01b0319600754161760075551166001600160a01b0319600854161760085551166001600160a01b0319600954161760095551166001600160a01b0319600a541617600a558a600b556001600160a01b031960415416176041556004604051809481937f026b1d5f000000000000000000000000000000000000000000000000000000008352165afa8015611746578890611702575b6001600160a01b039150166001600160a01b031960425416176042556116e4575b855b845181101561155d576001600160a01b0360208260051b87010151166114e86138dc565b6114ff6001600160a01b036001541682141561365f565b6001600160a01b038854168114610e3d5761151981613a4a565b6003546801000000000000000081101561154957600192916107b582856115439401600355612d24565b016114c4565b602489634e487b7160e01b81526041600452fd5b50909291936001600160a01b03198654161785556001600160a01b03196001541617600155519067ffffffffffffffff82116116d0576801000000000000000082116116d0576003548260035580831061168c575b5060038452835b82811061164f5750505062015180600e556115d15780f35b68ff0000000000000000197ff0c57e16840df040f15088dc2f81fe391c3923bec73e23a9662efc9c229c6a0054167ff0c57e16840df040f15088dc2f81fe391c3923bec73e23a9662efc9c229c6a00557fc7f505b2f371ae2175ee4913f4499e1f2633a7b5936321eed1cdaeb6115181d2602060405160018152a180f35b60019060206001600160a01b03845116930192817fc2575a0e9e593c00f959f8c92f12db2869c3395a3b0502d05e2516446f71f85b0155016115b9565b600385527fc2575a0e9e593c00f959f8c92f12db2869c3395a3b0502d05e2516446f71f85b9081019083015b8181106116c557506115b2565b8581556001016116b8565b602484634e487b7160e01b81526041600452fd5b6116ec6138dc565b600160ff19600f541617600f5585600e556114c2565b506020813d60201161173e575b8161171c60209383612dd4565b8101031261173a576117356001600160a01b0391613638565b6114a1565b8780fd5b3d915061170f565b6040513d8a823e3d90fd5b68ffffffffffffffffff191668010000000000000001177ff0c57e16840df040f15088dc2f81fe391c3923bec73e23a9662efc9c229c6a0055386113b4565b5060048f7ff92ee8a9000000000000000000000000000000000000000000000000000000008152fd5b9050153861135d565b303b159150611355565b91508e61134a565b8d80fd5b8c80fd5b8b80fd5b8a80fd5b8980fd5b602080916117f584612cf7565b815201910190611249565b602488634e487b7160e01b81526041600452fd5b8680fd5b8580fd5b8480fd5b8380fd5b8280fd5b50346102b45760203660031901126102b457611842612ce1565b61184a613c03565b815b600354811015611992576001600160a01b0361186782612d24565b90549060031b1c1673eeeeeeeeeeeeeeeeeeeeeeeeeeeeeeeeeeeeeeee81146000146118e65750826001600160a01b038154164790803b15611824578290600460405180948193630d0e30db60e41b83525af1801561062b576118d1575b50506001905b0161184c565b816118db91612dd4565b6118245782386118c5565b929190604051936370a0823160e01b8552306004860152602085602481845afa8015611987578490611950575b849550816001949552600460205260408620548111611934575b50506118cb565b611949916001600160a01b0387541690613cec565b388061192d565b506020943d861161197f575b6119668682612dd4565b6020816000978101031261181857519394508493611913565b3d955061195c565b6040513d86823e3d90fd5b506001600160a01b038254166040516370a0823160e01b8152306004820152602081602481855afa908115611987578491611eff575b5081845260046020526040842054106119df578280f35b6119e7613aa4565b916040516370a0823160e01b8152306004820152602081602481865afa908115611e33578591611ecc575b506020670de0b6b3a7640000611a2d611a7d9387519061364c565b0492670de0b6b3a7640000611a4660408801518661364c565b049485918860405180968195829463a9059cbb60e01b845260048401602090939291936001600160a01b0360408201951681520152565b03925af18015611e3357611e95575b50670de0b6b3a7640000611aa460208501518361364c565b855460095460405163a9059cbb60e01b81526001600160a01b0391821660048201529390920460248401819052959291602091839160449183918b91165af18015611e8a57611e3e575b50670de0b6b3a7640000916060611b079201519061364c565b845460085460405163a9059cbb60e01b81526001600160a01b03918216600482015293909204602484018190529291602091839160449183918a91165af18015611e3357611dd1575b50906060917fd255b592c7f268a73e534da5219a60ff911b4cf6daae21c7d20527dd657bd99a9360405192835260208301526040820152a16001546001600160a01b031680611d915750611bba6001600160a01b038254166001600160a01b036001541690613dde565b611bc26137a6565b611bd3611bcd6136aa565b82613810565b600d5542600c55611be2613c03565b81611beb6137a6565b80611c3d575b505060607f51e908723a339cd8d3fd3d8a2e4f2bdde81ddb7d26ca1753f1f515e0b07a513b91611c256103366103286137a6565b6040519133835260208301526040820152a138808280f35b60015460425460405163095ea7b360e01b81526001600160a01b0391821660048201526024810184905291602091839160449183918891165af1801561067657611d5a575b506001600160a01b0360425416906001600160a01b036001541690823b15611820576084849283604051958694859363e8eda9df60e01b8552600485015260248401523060448401528160648401525af1801561062b57611d45575b505060607f51e908723a339cd8d3fd3d8a2e4f2bdde81ddb7d26ca1753f1f515e0b07a513b917f4d6ce1e535dbade1c23defba91e23b8f791ce5edc0cc320257a2b364e4e384266020611d356103366103286137a6565b604051908152a191839150611bf1565b81611d4f91612dd4565b610a95578138611cde565b6020813d602011611d89575b81611d7360209383612dd4565b8101031261182457611d8490612ebc565b611c82565b3d9150611d66565b6001600160a01b0382541690818103611dc1575b5050611dbc6001600160a01b036001541680613dde565b611bba565b611dca91613dde565b3880611da5565b91906020833d602011611e2b575b81611dec60209383612dd4565b8101031261181c577fd255b592c7f268a73e534da5219a60ff911b4cf6daae21c7d20527dd657bd99a93611e21606094612ebc565b5093509091611b50565b3d9150611ddf565b6040513d87823e3d90fd5b916020833d602011611e82575b81611e5860209383612dd4565b81010312611818576060611b0792611e78670de0b6b3a764000095612ebc565b5092505091611aee565b3d9150611e4b565b6040513d88823e3d90fd5b6020813d602011611ec4575b81611eae60209383612dd4565b8101031261181c57611ebf90612ebc565b611a8c565b3d9150611ea1565b90506020813d602011611ef7575b81611ee760209383612dd4565b8101031261044f57516020611a12565b3d9150611eda565b90506020813d602011611f29575b81611f1a60209383612dd4565b8101031261044f5751386119c8565b3d9150611f0d565b50346102b457806003193601126102b457602060ff7fcd5ed15c6e187e77e9aee88184c21f4f2182ab5827cb3b7e07fbedcd63f0330054166040519015158152f35b50346102b457806003193601126102b45760206001600160a01b0360015416604051908152f35b50346102b45760a03660031901126102b457611fb4612ce1565b9060243567ffffffffffffffff8111610a9557611fd5903690600401612d55565b909260443567ffffffffffffffff811161182057611ff7903690600401612d55565b9060643567ffffffffffffffff811161181857612018903690600401612d55565b91909260843567ffffffffffffffff811161173a57906120476001600160a01b03959493923690600401612d55565b9590961698893b1561217b57916120ae9161209c6120c09695946040999899519a7f71ee95c0000000000000000000000000000000000000000000000000000000008c52608060048d015260848c01916135b9565b8981036003190160248b0152916135b9565b868103600319016044880152916135fb565b91600319848403016064850152808352602083019060208160051b85010193838791601e1982360301905b84841061211f575088808981818e8183818f03925af1801561062b5761210e5750f35b8161211891612dd4565b6102b45780f35b90919293949596601f198282030187528735838112156117e057840160208135910167ffffffffffffffff82116117dc578160051b360381136117dc5761216c60019360209384936135fb565b990197019594019291906120eb565b8880fd5b50346102b457806003193601126102b4576121a66001600160a01b03600554163314612e4e565b60ff600f54166121b35780f35b6121bb613c03565b805b6003548110156122f6576001600160a01b036121d882612d24565b90549060031b1c1673eeeeeeeeeeeeeeeeeeeeeeeeeeeeeeeeeeeeeeee81146000146122575750816001600160a01b038154164790803b15611824578290600460405180948193630d0e30db60e41b83525af1801561062b57612242575b50506001905b016121bd565b8161224c91612dd4565b610a95578138612236565b9190604051926370a0823160e01b8452306004850152602084602481845afa80156106765783906122bf575b83945081600194526004602052604085205481116122a3575b505061223c565b6122b8916001600160a01b0386541690613cec565b388061229c565b506020933d85116122ee575b6122d58582612dd4565b6020816000968101031261181c57519293508392612283565b3d94506122cb565b506001600160a01b038154166040516370a0823160e01b8152306004820152602081602481855afa9081156106765783916126c2575b508183526004602052604083205410612343575080f35b61234b613aa4565b906040516370a0823160e01b8152306004820152602081602481855afa90811561198757849161268e575b5061238c670de0b6b3a76400009184519061364c565b04670de0b6b3a76400006123a460408501518361364c565b60405163a9059cbb60e01b815232600482015291900460248201819052926020908290604490829089905af18015611e3357612657575b50670de0b6b3a76400006123f360208501518361364c565b855460095460405163a9059cbb60e01b81526001600160a01b0391821660048201529390920460248401819052959291602091839160449183918b91165af18015611e8a5761260b575b50670de0b6b3a76400009160606124569201519061364c565b845460085460405163a9059cbb60e01b81526001600160a01b03918216600482015293909204602484018190529291602091839160449183918a91165af18015611e33576125a9575b50906060917fd255b592c7f268a73e534da5219a60ff911b4cf6daae21c7d20527dd657bd99a9360405192835260208301526040820152a16001546001600160a01b03168061256957506125096001600160a01b038254166001600160a01b036001541690613dde565b7f51e908723a339cd8d3fd3d8a2e4f2bdde81ddb7d26ca1753f1f515e0b07a513b60606125346137a6565b61253f611bcd6136aa565b600d5542600c556125546103366103286137a6565b6040519133835260208301526040820152a180f35b6001600160a01b0382541690818103612599575b50506125946001600160a01b036001541680613dde565b612509565b6125a291613dde565b388061257d565b91906020833d602011612603575b816125c460209383612dd4565b8101031261181c577fd255b592c7f268a73e534da5219a60ff911b4cf6daae21c7d20527dd657bd99a936125f9606094612ebc565b509350909161249f565b3d91506125b7565b916020833d60201161264f575b8161262560209383612dd4565b8101031261181857606061245692612645670de0b6b3a764000095612ebc565b509250509161243d565b3d9150612618565b6020813d602011612686575b8161267060209383612dd4565b8101031261181c5761268190612ebc565b6123db565b3d9150612663565b90506020813d6020116126ba575b816126a960209383612dd4565b8101031261044f575161238c612376565b3d915061269c565b90506020813d6020116126ec575b816126dd60209383612dd4565b8101031261044f57513861232c565b3d91506126d0565b50346102b45760203660031901126102b45761270e6138dc565b600435600e5580f35b50346102b45760203660031901126102b457600435906003548210156102b45760206001600160a01b0361274a84612d24565b90549060031b1c16604051908152f35b50346102b457806003193601126102b4576127736138dc565b61277b6138dc565b612783613c03565b600160ff197fcd5ed15c6e187e77e9aee88184c21f4f2182ab5827cb3b7e07fbedcd63f033005416177fcd5ed15c6e187e77e9aee88184c21f4f2182ab5827cb3b7e07fbedcd63f03300557f62e78cea01bee320cd4e420270b5ea74000d11b0c9f74754ebdbfc544b05a2586020604051338152a16103046139d0565b50346102b457806003193601126102b457610304612ec9565b50346102b45760203660031901126102b4577fe619ee6c13633271d53eb38d623fa8b077c06e8443c914af1ec745aaf3c9f9a860206001600160a01b0361285e612ce1565b61286661396f565b16806001600160a01b03196007541617600755604051908152a180f35b50346102b457806003193601126102b45761289c6138dc565b7fcd5ed15c6e187e77e9aee88184c21f4f2182ab5827cb3b7e07fbedcd63f033005460ff81161561291f5760ff19167fcd5ed15c6e187e77e9aee88184c21f4f2182ab5827cb3b7e07fbedcd63f03300557f5db9ee0a495bf2e6ff9c91a7834c1ba4fdd244a5e8aa4e537bd38aeae4b073aa6020604051338152a1610527613c03565b6004827f8dfc202b000000000000000000000000000000000000000000000000000000008152fd5b50346102b45760203660031901126102b4576004356129726001600160a01b03600554163314612e4e565b61297a6137a6565b90808210612a63575b91826129d0938311612a5b575b5060015460055460405163a9059cbb60e01b81526001600160a01b0391821660048201526024810185905294602092869216908290859082906044820190565b03925af18015610ab457612a21575b6020827f5b6b431d4476a211bb7d41c20d1aab9ae2321deee0d20be3d9fc9b1093fa6e3d82612a126103366103286137a6565b604051908152a1604051908152f35b6020833d602011612a53575b81612a3a60209383612dd4565b810103126102b45750612a4e602092612ebc565b6129df565b3d9150612a2d565b915038612990565b90612a6e9082612e99565b9182612a8b575b6129d09250612a826137a6565b91909250612983565b60206001600160a01b03604254169360646001600160a01b0360015416846040519788948593631a4ca37b60e21b8552600485015260248401523060448401525af1928315610ab4576129d093612ae3575b50612a75565b612b049060203d602011612b0b575b612afc8183612dd4565b810190613797565b5038612add565b503d612af2565b50346102b457806003193601126102b45760206001600160a01b0360025416604051908152f35b50346102b457806003193601126102b45760206001600160a01b0360435416604051908152f35b50346102b45760203660031901126102b457600435612b7d6138dc565b816001600160a01b03600a5416803b15610a955781906024604051809481937f19a501ad0000000000000000000000000000000000000000000000000000000083528760048401525af1801561067657612c01575b5060207fefa2ab35845db19854512f0064b524dec97aa8fbf004e0c505dc9ff691340c9891604051908152a180f35b82612c307fefa2ab35845db19854512f0064b524dec97aa8fbf004e0c505dc9ff691340c989394602093612dd4565b929150612bd2565b50346102b457806003193601126102b45760206102d2612e19565b50346102b45760203660031901126102b45760043580151580820361182457612c7a6138dc565b60ff8019600f5416911617600f55600014612c965780600e5580f35b62015180600e5580f35b905034610a955781600319360112610a95576020906001600160a01b03604254168152f35b3461044f57600036600319011261044f57602060405160008152f35b600435906001600160a01b038216820361044f57565b35906001600160a01b038216820361044f57565b3461044f57602036600319011261044f5761001b612ce1565b600354811015612d3f57600360005260206000200190600090565b634e487b7160e01b600052603260045260246000fd5b9181601f8401121561044f5782359167ffffffffffffffff831161044f576020808501948460051b01011161044f57565b60c0810190811067ffffffffffffffff821117612da257604052565b634e487b7160e01b600052604160045260246000fd5b6060810190811067ffffffffffffffff821117612da257604052565b90601f8019910116810190811067ffffffffffffffff821117612da257604052565b60005b838110612e095750506000910152565b8181015183820152602001612df9565b7fcd5ed15c6e187e77e9aee88184c21f4f2182ab5827cb3b7e07fbedcd63f033005460ff1615612e4857600090565b600b5490565b15612e5557565b606460405162461bcd60e51b815260206004820152600a60248201527f4e6f74205f7661756c74000000000000000000000000000000000000000000006044820152fd5b91908203918211612ea657565b634e487b7160e01b600052601160045260246000fd5b5190811515820361044f57565b612ed1613c03565b60005b600354811015613017576001600160a01b03612eef82612d24565b90549060031b1c1673eeeeeeeeeeeeeeeeeeeeeeeeeeeeeeeeeeeeeeee8114600014612f7857506001600160a01b0360005416904791803b1561044f57600090600460405180958193630d0e30db60e41b83525af1918215612f6c57600192612f5b575b505b01612ed4565b6000612f6691612dd4565b38612f53565b6040513d6000823e3d90fd5b9190604051926370a0823160e01b8452306004850152602084602481845afa938415612f6c57600094612fe5575b50600192938160005260046020526040600020548111612fc8575b5050612f55565b612fde916001600160a01b036000541690613cec565b3880612fc1565b6020813d821161300f575b81612ffd60209383612dd4565b8101031261181c575193506001612fa6565b3d9150612ff0565b506001600160a01b03600054166040516370a0823160e01b8152306004820152602081602481855afa908115612f6c57600091613587575b50816000526004602052604060002054106130675750565b61306f613aa4565b906040516370a0823160e01b8152306004820152602081602481855afa908115612f6c57600091613553575b506130b1670de0b6b3a76400009184519061364c565b04670de0b6b3a76400006130c960408501518361364c565b60405163a9059cbb60e01b81523260048201529190046024820181905292602090829060449082906000905af18015612f6c5761351c575b50670de0b6b3a764000061311960208501518361364c565b049261316d6020856001600160a01b03600054166001600160a01b0360095416600060405180968195829463a9059cbb60e01b845260048401602090939291936001600160a01b0360408201951681520152565b03925af18015612f6c576134d0575b50670de0b6b3a76400009160606131959201519061364c565b046131e86020826001600160a01b03600054166001600160a01b0360085416600060405180968195829463a9059cbb60e01b845260048401602090939291936001600160a01b0360408201951681520152565b03925af18015612f6c5761346e575b50906060917fd255b592c7f268a73e534da5219a60ff911b4cf6daae21c7d20527dd657bd99a9360405192835260208301526040820152a16001546001600160a01b03168061342d57506132626001600160a01b03600054166001600160a01b036001541690613dde565b61326a6137a6565b613275611bcd6136aa565b600d5542600c55613284613c03565b61328c6137a6565b806132d9575b5060607f51e908723a339cd8d3fd3d8a2e4f2bdde81ddb7d26ca1753f1f515e0b07a513b916132c56103366103286137a6565b6040519133835260208301526040820152a1565b60015460425460405163095ea7b360e01b81526001600160a01b039182166004820152602481018490529293929160209183916044918391600091165af18015612f6c576133f6575b506001600160a01b0360425416916001600160a01b036001541690833b1561044f57608460009283604051968794859363e8eda9df60e01b8552600485015260248401523060448401528160648401525af1908115612f6c577f51e908723a339cd8d3fd3d8a2e4f2bdde81ddb7d26ca1753f1f515e0b07a513b926060926133e5575b507f4d6ce1e535dbade1c23defba91e23b8f791ce5edc0cc320257a2b364e4e3842660206133d76103366103286137a6565b604051908152a19150613292565b60006133f091612dd4565b386133a5565b6020813d602011613425575b8161340f60209383612dd4565b8101031261044f5761342090612ebc565b613322565b3d9150613402565b6001600160a01b03600054169081810361345e575b50506134596001600160a01b036001541680613dde565b613262565b61346791613dde565b3880613442565b91906020833d6020116134c8575b8161348960209383612dd4565b8101031261044f577fd255b592c7f268a73e534da5219a60ff911b4cf6daae21c7d20527dd657bd99a936134be606094612ebc565b50935090916131f7565b3d915061347c565b916020833d602011613514575b816134ea60209383612dd4565b8101031261044f5760606131959261350a670de0b6b3a764000095612ebc565b509250509161317c565b3d91506134dd565b6020813d60201161354b575b8161353560209383612dd4565b8101031261044f5761354690612ebc565b613101565b3d9150613528565b90506020813d60201161357f575b8161356e60209383612dd4565b8101031261044f57516130b161309b565b3d9150613561565b90506020813d6020116135b1575b816135a260209383612dd4565b8101031261044f57513861304f565b3d9150613595565b9160209082815201919060005b8181106135d35750505090565b9091926020806001926001600160a01b036135ed88612cf7565b1681520194019291016135c6565b90918281527f07ffffffffffffffffffffffffffffffffffffffffffffffffffffffffffffff831161044f5760209260051b809284830137010190565b51906001600160a01b038216820361044f57565b81810292918115918404141715612ea657565b1561366657565b606460405162461bcd60e51b815260206004820152600960248201527f4e6f7420617373657400000000000000000000000000000000000000000000006044820152fd5b600e5480156136eb576136bf600c5442612e99565b818110156136e0576136d46136dc9183612e99565b600d5461364c565b0490565b506136dc60006136d4565b50600090565b604051906136fe82612d86565b600060a083828152826020820152826040820152826060820152606060808201520152565b51906fffffffffffffffffffffffffffffffff8216820361044f57565b6001600160a01b038116908115613783576001600160a01b03199061377c600154916137776001600160a01b03841686141561365f565b613a4a565b1617600155565b50506001600160a01b031960015416600155565b9081602091031261044f575190565b602460206001600160a01b0360015416604051928380926370a0823160e01b82523060048301525afa908115612f6c576000916137e1575090565b90506020813d602011613808575b816137fc60209383612dd4565b8101031261044f575190565b3d91506137ef565b91908201809211612ea657565b6001600160a01b031680156138ad576001600160a01b037f9016d09d72d40fdae2fd8ceac6b6234c7706214fd39c1cd1e609a0528c19930054826001600160a01b03198216177f9016d09d72d40fdae2fd8ceac6b6234c7706214fd39c1cd1e609a0528c19930055167f8be0079c531659141344cd1fd0a4f28419497f9722a3daafe3b4186f6b6457e0600080a3565b7f1e4fbdf700000000000000000000000000000000000000000000000000000000600052600060045260246000fd5b6001600160a01b037f9016d09d72d40fdae2fd8ceac6b6234c7706214fd39c1cd1e609a0528c19930054163314801561395b575b1561391757565b606460405162461bcd60e51b815260206004820152600d60248201527f4e6f742061206d616e61676572000000000000000000000000000000000000006044820152fd5b506001600160a01b03600654163314613910565b6001600160a01b037f9016d09d72d40fdae2fd8ceac6b6234c7706214fd39c1cd1e609a0528c199300541633036139a257565b7f118cdaa7000000000000000000000000000000000000000000000000000000006000523360045260246000fd5b6139d8613c58565b6139de57565b600060206001600160a01b036042541660646001600160a01b03600154166040519485938492631a4ca37b60e21b84526004840152811960248401523060448401525af18015612f6c57613a2f5750565b613a479060203d602011612b0b57612afc8183612dd4565b50565b6001600160a01b038060415416911614613a6057565b606460405162461bcd60e51b815260206004820152600a60248201527f4e6f742061546f6b656e000000000000000000000000000000000000000000006044820152fd5b613aac6136f1565b50602460006001600160a01b03600a5416604051928380927f9af608c90000000000000000000000000000000000000000000000000000000082523060048301525afa908115612f6c57600091613b01575090565b3d8083833e613b108183612dd4565b8101906020818303126118245780519067ffffffffffffffff821161182057019060c0828203126118245760405192613b4884612d86565b82518452602083015160208501526040830151604085015260608301516060850152608083015167ffffffffffffffff8111610a9557830182601f82011215610a955780519167ffffffffffffffff8311613bef5760405193613bb5601f8501601f191660200186612dd4565b838552602084840101116102b4575091613bdc613be7949260a09460208085019101612df6565b608085015201612ebc565b60a082015290565b80634e487b7160e01b602492526041600452fd5b60ff7fcd5ed15c6e187e77e9aee88184c21f4f2182ab5827cb3b7e07fbedcd63f033005416613c2e57565b7fd93c06650000000000000000000000000000000000000000000000000000000060005260046000fd5b602460206001600160a01b0360415416604051928380926370a0823160e01b82523060048301525afa908115612f6c576000916137e1575090565b60ff7ff0c57e16840df040f15088dc2f81fe391c3923bec73e23a9662efc9c229c6a005460401c1615613cc257565b7fd7e6bcf80000000000000000000000000000000000000000000000000000000060005260046000fd5b6001600160a01b039081169116808203613d0557505050565b60075460405163095ea7b360e01b81526001600160a01b039091166004820152602481018490526020816044816000875af18015612f6c57613d9f575b50606460209260006001600160a01b036007541660405196879586947fdf791e500000000000000000000000000000000000000000000000000000000086526004860152602485015260448401525af18015612f6c57613a2f5750565b6020813d602011613dd6575b81613db860209383612dd4565b8101031261044f57602092613dce606492612ebc565b509250613d42565b3d9150613dab565b604051916370a0823160e01b83523060048401526020836024816001600160a01b0386165afa918215612f6c57600092613e1f575b613e1d9350613cec565b565b91506020833d602011613e4d575b81613e3a60209383612dd4565b8101031261044f57613e1d925191613e13565b3d9150613e2d56fea26469706673582212206c0cb63211644049632489004b96105dbb8663dc466ea1c47b720ad59dcf083a64736f6c634300081c0033",
  "linkReferences": {},
  "deployedLinkReferences": {}
}