{
  "_format": "hh-sol-artifact-1",
  "contractName": "SimpleVault",
  "sourceName": "contracts/mocks/SimpleVault.sol",
  "abi": [
    {
      "inputs": [
        {
          "internalType": "address",
          "name": "spender",
          "type": "address"
        },
        {
          "internalType": "uint256",
          "name": "allowance",
          "type": "uint256"
        },
        {
          "internalType": "uint256",
          "name": "needed",
          "type": "uint256"
        }
      ],
      "name": "ERC20InsufficientAllowance",
      "type": "error"
    },
    {
      "inputs": [
        {
          "internalType": "address",
          "name": "sender",
          "type": "address"
        },
        {
          "internalType": "uint256",
          "name": "balance",
          "type": "uint256"
        },
        {
          "internalType": "uint256",
          "name": "needed",
          "type": "uint256"
        }
      ],
      "name": "ERC20InsufficientBalance",
      "type": "error"
    },
    {
      "inputs": [
        {
          "internalType": "address",
          "name": "approver",
          "type": "address"
        }
      ],
      "name": "ERC20InvalidApprover",
      "type": "error"
    },
    {
      "inputs": [
        {
          "internalType": "address",
          "name": "receiver",
          "type": "address"
        }
      ],
      "name": "ERC20InvalidReceiver",
      "type": "error"
    },
    {
      "inputs": [
        {
          "internalType": "address",
          "name": "sender",
          "type": "address"
        }
      ],
      "name": "ERC20InvalidSender",
      "type": "error"
    },
    {
      "inputs": [
        {
          "internalType": "address",
          "name": "spender",
          "type": "address"
        }
      ],
      "name": "ERC20InvalidSpender",
      "type": "error"
    },
    {
      "inputs": [],
      "name": "InvalidInitialization",
      "type": "error"
    },
    {
      "inputs": [],
      "name": "NotInitializing",
      "type": "error"
    },
    {
      "inputs": [
        {
          "internalType": "address",
          "name": "owner",
          "type": "address"
        }
      ],
      "name": "OwnableInvalidOwner",
      "type": "error"
    },
    {
      "inputs": [
        {
          "internalType": "address",
          "name": "account",
          "type": "address"
        }
      ],
      "name": "OwnableUnauthorizedAccount",
      "type": "error"
    },
    {
      "inputs": [],
      "name": "ReentrancyGuardReentrantCall",
      "type": "error"
    },
    {
      "anonymous": false,
      "inputs": [
        {
          "indexed": true,
          "internalType": "address",
          "name": "owner",
          "type": "address"
        },
        {
          "indexed": true,
          "internalType": "address",
          "name": "spender",
          "type": "address"
        },
        {
          "indexed": false,
          "internalType": "uint256",
          "name": "value",
          "type": "uint256"
        }
      ],
      "name": "Approval",
      "type": "event"
    },
    {
      "anonymous": false,
      "inputs": [
        {
          "indexed": false,
          "internalType": "uint64",
          "name": "version",
          "type": "uint64"
        }
      ],
      "name": "Initialized",
      "type": "event"
    },
    {
      "anonymous": false,
      "inputs": [
        {
          "indexed": true,
          "internalType": "address",
          "name": "previousOwner",
          "type": "address"
        },
        {
          "indexed": true,
          "internalType": "address",
          "name": "newOwner",
          "type": "address"
        }
      ],
      "name": "OwnershipTransferred",
      "type": "event"
    },
    {
      "anonymous": false,
      "inputs": [
        {
          "indexed": true,
          "internalType": "address",
          "name": "from",
          "type": "address"
        },
        {
          "indexed": true,
          "internalType": "address",
          "name": "to",
          "type": "address"
        },
        {
          "indexed": false,
          "internalType": "uint256",
          "name": "value",
          "type": "uint256"
        }
      ],
      "name": "Transfer",
      "type": "event"
    },
    {
      "inputs": [
        {
          "internalType": "contract IStrategy",
          "name": "newStrategy",
          "type": "address"
        }
      ],
      "name": "addStrategy",
      "outputs": [],
      "stateMutability": "nonpayable",
      "type": "function"
    },
    {
      "inputs": [
        {
          "internalType": "address",
          "name": "owner",
          "type": "address"
        },
        {
          "internalType": "address",
          "name": "spender",
          "type": "address"
        }
      ],
      "name": "allowance",
      "outputs": [
        {
          "internalType": "uint256",
          "name": "",
          "type": "uint256"
        }
      ],
      "stateMutability": "view",
      "type": "function"
    },
    {
      "inputs": [
        {
          "internalType": "address",
          "name": "spender",
          "type": "address"
        },
        {
          "internalType": "uint256",
          "name": "value",
          "type": "uint256"
        }
      ],
      "name": "approve",
      "outputs": [
        {
          "internalType": "bool",
          "name": "",
          "type": "bool"
        }
      ],
      "stateMutability": "nonpayable",
      "type": "function"
    },
    {
      "inputs": [
        {
          "internalType": "address",
          "name": "account",
          "type": "address"
        }
      ],
      "name": "balanceOf",
      "outputs": [
        {
          "internalType": "uint256",
          "name": "",
          "type": "uint256"
        }
      ],
      "stateMutability": "view",
      "type": "function"
    },
    {
      "inputs": [],
      "name": "decimals",
      "outputs": [
        {
          "internalType": "uint8",
          "name": "",
          "type": "uint8"
        }
      ],
      "stateMutability": "view",
      "type": "function"
    },
    {
      "inputs": [
        {
          "internalType": "uint256",
          "name": "amountScaled",
          "type": "uint256"
        }
      ],
      "name": "deposit",
      "outputs": [
        {
          "internalType": "uint256",
          "name": "lpMinted",
          "type": "uint256"
        }
      ],
      "stateMutability": "nonpayable",
      "type": "function"
    },
    {
      "inputs": [
        {
          "internalType": "uint256",
          "name": "amountScaled",
          "type": "uint256"
        },
        {
          "internalType": "contract IAccount",
          "name": "account",
          "type": "address"
        }
      ],
      "name": "depositFromAccount",
      "outputs": [
        {
          "internalType": "uint256",
          "name": "lpMinted",
          "type": "uint256"
        }
      ],
      "stateMutability": "nonpayable",
      "type": "function"
    },
    {
      "inputs": [],
      "name": "earn",
      "outputs": [],
      "stateMutability": "nonpayable",
      "type": "function"
    },
    {
      "inputs": [
        {
          "internalType": "contract IStrategy",
          "name": "strategy",
          "type": "address"
        }
      ],
      "name": "getAllocation",
      "outputs": [
        {
          "internalType": "uint256",
          "name": "allocation",
          "type": "uint256"
        }
      ],
      "stateMutability": "view",
      "type": "function"
    },
    {
      "inputs": [],
      "name": "getAsset",
      "outputs": [
        {
          "internalType": "address",
          "name": "asset",
          "type": "address"
        }
      ],
      "stateMutability": "view",
      "type": "function"
    },
    {
      "inputs": [],
      "name": "getAvailable",
      "outputs": [
        {
          "internalType": "uint256",
          "name": "available",
          "type": "uint256"
        }
      ],
      "stateMutability": "view",
      "type": "function"
    },
    {
      "inputs": [],
      "name": "getBalance",
      "outputs": [
        {
          "internalType": "uint256",
          "name": "amountScaled",
          "type": "uint256"
        }
      ],
      "stateMutability": "view",
      "type": "function"
    },
    {
      "inputs": [
        {
          "internalType": "uint256",
          "name": "strategyIndex",
          "type": "uint256"
        }
      ],
      "name": "getLastHarvest",
      "outputs": [
        {
          "internalType": "uint256",
          "name": "lastHarvest",
          "type": "uint256"
        }
      ],
      "stateMutability": "view",
      "type": "function"
    },
    {
      "inputs": [
        {
          "internalType": "uint256",
          "name": "lpAmount",
          "type": "uint256"
        }
      ],
      "name": "getShares",
      "outputs": [
        {
          "internalType": "uint256",
          "name": "amountScaled",
          "type": "uint256"
        }
      ],
      "stateMutability": "view",
      "type": "function"
    },
    {
      "inputs": [],
      "name": "getStrategies",
      "outputs": [
        {
          "internalType": "contract IStrategy[]",
          "name": "strategies",
          "type": "address[]"
        }
      ],
      "stateMutability": "view",
      "type": "function"
    },
    {
      "inputs": [],
      "name": "getSummary",
      "outputs": [
        {
          "internalType": "uint256",
          "name": "allocated",
          "type": "uint256"
        },
        {
          "internalType": "uint256",
          "name": "idle",
          "type": "uint256"
        }
      ],
      "stateMutability": "view",
      "type": "function"
    },
    {
      "inputs": [
        {
          "internalType": "string",
          "name": "name",
          "type": "string"
        },
        {
          "internalType": "string",
          "name": "symbol",
          "type": "string"
        },
        {
          "internalType": "address",
          "name": "allowedAsset",
          "type": "address"
        },
        {
          "internalType": "contract IAgent",
          "name": "agent",
          "type": "address"
        }
      ],
      "name": "initialize",
      "outputs": [],
      "stateMutability": "nonpayable",
      "type": "function"
    },
    {
      "inputs": [],
      "name": "name",
      "outputs": [
        {
          "internalType": "string",
          "name": "",
          "type": "string"
        }
      ],
      "stateMutability": "view",
      "type": "function"
    },
    {
      "inputs": [],
      "name": "owner",
      "outputs": [
        {
          "internalType": "address",
          "name": "",
          "type": "address"
        }
      ],
      "stateMutability": "view",
      "type": "function"
    },
    {
      "inputs": [
        {
          "internalType": "uint256[]",
          "name": "allocations",
          "type": "uint256[]"
        }
      ],
      "name": "reallocate",
      "outputs": [],
      "stateMutability": "nonpayable",
      "type": "function"
    },
    {
      "inputs": [
        {
          "internalType": "contract IStrategy",
          "name": "strategyToRemove",
          "type": "address"
        }
      ],
      "name": "removeStrategy",
      "outputs": [],
      "stateMutability": "nonpayable",
      "type": "function"
    },
    {
      "inputs": [],
      "name": "renounceOwnership",
      "outputs": [],
      "stateMutability": "nonpayable",
      "type": "function"
    },
    {
      "inputs": [],
      "name": "symbol",
      "outputs": [
        {
          "internalType": "string",
          "name": "",
          "type": "string"
        }
      ],
      "stateMutability": "view",
      "type": "function"
    },
    {
      "inputs": [],
      "name": "totalSupply",
      "outputs": [
        {
          "internalType": "uint256",
          "name": "",
          "type": "uint256"
        }
      ],
      "stateMutability": "view",
      "type": "function"
    },
    {
      "inputs": [
        {
          "internalType": "address",
          "name": "to",
          "type": "address"
        },
        {
          "internalType": "uint256",
          "name": "value",
          "type": "uint256"
        }
      ],
      "name": "transfer",
      "outputs": [
        {
          "internalType": "bool",
          "name": "",
          "type": "bool"
        }
      ],
      "stateMutability": "nonpayable",
      "type": "function"
    },
    {
      "inputs": [
        {
          "internalType": "address",
          "name": "from",
          "type": "address"
        },
        {
          "internalType": "address",
          "name": "to",
          "type": "address"
        },
        {
          "internalType": "uint256",
          "name": "value",
          "type": "uint256"
        }
      ],
      "name": "transferFrom",
      "outputs": [
        {
          "internalType": "bool",
          "name": "",
          "type": "bool"
        }
      ],
      "stateMutability": "nonpayable",
      "type": "function"
    },
    {
      "inputs": [
        {
          "internalType": "address",
          "name": "newOwner",
          "type": "address"
        }
      ],
      "name": "transferOwnership",
      "outputs": [],
      "stateMutability": "nonpayable",
      "type": "function"
    },
    {
      "inputs": [
        {
          "internalType": "uint256",
          "name": "lpAmount",
          "type": "uint256"
        }
      ],
      "name": "withdraw",
      "outputs": [
        {
          "internalType": "uint256",
          "name": "amountScaled",
          "type": "uint256"
        }
      ],
      "stateMutability": "nonpayable",
      "type": "function"
    },
    {
      "inputs": [],
      "name": "withdrawAll",
      "outputs": [
        {
          "internalType": "uint256",
          "name": "amountScaled",
          "type": "uint256"
        }
      ],
      "stateMutability": "nonpayable",
      "type": "function"
    },
    {
      "inputs": [
        {
          "internalType": "contract IAccount",
          "name": "account",
          "type": "address"
        }
      ],
      "name": "withdrawAllToAccount",
      "outputs": [
        {
          "internalType": "uint256",
          "name": "amountScaled",
          "type": "uint256"
        }
      ],
      "stateMutability": "nonpayable",
      "type": "function"
    },
    {
      "inputs": [
        {
          "internalType": "uint256",
          "name": "lpAmount",
          "type": "uint256"
        },
        {
          "internalType": "contract IAccount",
          "name": "account",
          "type": "address"
        }
      ],
      "name": "withdrawToAccount",
      "outputs": [
        {
          "internalType": "uint256",
          "name": "amountScaled",
          "type": "uint256"
        }
      ],
      "stateMutability": "nonpayable",
      "type": "function"
    }
  ],
  "bytecode": "0x60808060405234601a576001600055612e2190816100208239f35b600080fdfe6080604052600436101561001257600080fd5b60003560e01c806306fdde0314612063578063095ea7b314611fbd5780630e02292314611f8057806312065fe014611f65578063175188e814611e1057806318160ddd14611dd3578063223e547914611c0657806323b872dd14611a6b5780632e1a7d4d14611a4d578063313ce56714611a315780634051ddac146119bc5780635c222bad146119955780636f7267b71461197157806370a082311461191a578063715018a614611874578063853828b61461181c5780638da5cb5b146117d65780638f15b414146111bb57806395d89b41146110a0578063a29b3c9014610ff9578063a49b5cb414610d5e578063a9059cbb14610d2d578063b49a60bb14610c61578063b6b55f2514610b63578063b76e07cc14610960578063c07e866e146104e2578063d389800f146104c9578063dd62ed3e1461044c578063ee6ce925146101c4578063f2fde38b146101995763f9cc06051461017157600080fd5b3461019457600036600319011261019457602061018c6128f2565b604051908152f35b600080fd5b34610194576020366003190112610194576101c26101b5612192565b6101bd612996565b612826565b005b346101945760203660031901126101945760043567ffffffffffffffff811161019457366023820112156101945780600401359067ffffffffffffffff8211610436578160051b6040519261021c60208301856121be565b8352602460208401918301019136831161019457602401905b8282106104265783610245612996565b6002548151036103e25760005b6002548110156102c8576001600160a01b0361026d82612271565b90549060031b1c1690610287610282836129f7565b61233e565b82518110156102b25760019160208260051b8501015190600052600360205260406000205501610252565b634e487b7160e01b600052603260045260246000fd5b6000806002545b8083106103a55761271082116103615760005b600254811015610359576001600160a01b036102fd82612271565b90549060031b1c1690813b156101945760008092600460405180958193630f8d564160e31b83525af191821561034d5760019261033c575b50016102e2565b6000610347916121be565b82610335565b6040513d6000823e3d90fd5b6101c26126c8565b606460405162461bcd60e51b815260206004820152601660248201527f416c6c6f636174696f6e2065786365656473206d6178000000000000000000006044820152fd5b906103d96001916001600160a01b036103bd86612271565b90549060031b1c1660005260036020526040600020549061228c565b920191906102cf565b606460405162461bcd60e51b815260206004820152601860248201527f4d69736d617463686564206172726179206c656e6774687300000000000000006044820152fd5b8135815260209182019101610235565b634e487b7160e01b600052604160045260246000fd5b3461019457604036600319011261019457610465612192565b6001600160a01b036104b16104786121a8565b926001600160a01b03166000527f52c63247e1f47db19d5ce0460030c497f067ca4cebf71ba98eeadabe20bace01602052604060002090565b91166000526020526020604060002054604051908152f35b34610194576000366003190112610194576101c26126c8565b34610194576020366003190112610194576104fb612192565b610503612996565b6001600160a01b03811690604051631127a41d60e31b8152602081600481865afa801561034d576001600160a01b0391600091610941575b50166000527f52c63247e1f47db19d5ce0460030c497f067ca4cebf71ba98eeadabe20bace00602052604060002054600091610575612996565b6001600160a01b036004541690813b156108495760405162f887cf60e81b81526001600160a01b03919091166004820152600260248201528381604481855afa8015610855578490610931575b505060405190630b37927d60e21b82526004820152602081602481875afa90811561075257906105f9918491610912575b5061267d565b61063561060d82610608612299565b612400565b7f52c63247e1f47db19d5ce0460030c497f067ca4cebf71ba98eeadabe20bace025490612413565b90604051631127a41d60e31b8152602081600481885afa9081156108555761066691839186916108e3575b50612b9c565b61066e6128f2565b82811061075d575b5050908181936001600160a01b036001541673eeeeeeeeeeeeeeeeeeeeeeeeeeeeeeeeeeeeeeee81146000146106dc575082809281928282156106d3575bf1156106c65760209150604051908152f35b50604051903d90823e3d90fd5b506108fc6106b4565b60405163a9059cbb60e01b81526001600160a01b0392909216600483015260248201929092529160209183916044918391905af180156107525760209350610725575b5061018c565b61074490833d851161074b575b61073c81836121be565b810190612442565b508261071f565b503d610732565b6040513d85823e3d90fd5b61076b908395949295612389565b9281935b6002548510806108da575b156108b1576001600160a01b0361079086612271565b90549060031b1c1660405163765ef2f360e11b8152602081600481855afa9081156108a65785929189918491610867575b5061060d602093926107d292612400565b848111610860575b6024906040519485938492632e1a7d4d60e01b845260048401525af190811561085557849161081e575b506108129061081892612389565b94612433565b9361076f565b90506020813d821161084d575b81610838602093836121be565b810103126108495751610818610804565b8380fd5b3d915061082b565b6040513d86823e3d90fd5b50836107da565b92935050506020813d821161089e575b81610884602093836121be565b8101031261089a5751849190889061060d6107c1565b8480fd5b3d9150610877565b6040513d87823e3d90fd5b509250925082906108c06128f2565b818111156108d357505b90919284610676565b90506108ca565b5080151561077a565b610905915060203d60201161090b575b6108fd81836121be565b8101906123e1565b87610660565b503d6108f3565b61092b915060203d60201161074b5761073c81836121be565b856105f3565b61093a916121be565b84836105c2565b61095a915060203d60201161090b576108fd81836121be565b8461053b565b34610194576040366003190112610194576109796121a8565b610981612996565b610989612c9b565b6000906001600160a01b0360045416803b15610b30576001600160a01b036040519262f887cf60e81b8452169182600482015260016024820152838082604481865afa80156106c657610b53575b505060405190630b37927d60e21b82526004820152602081602481855afa801561075257610a0b918491610b34575061267d565b610a13612299565b813b15610b30576040517fce8c42e80000000000000000000000000000000000000000000000000000000081526004356004820152838160248183875af18015610855579060049460209392610b20575b5050610a6e6126c8565b610a7f81610a7a612299565b612389565b907f52c63247e1f47db19d5ce0460030c497f067ca4cebf71ba98eeadabe20bace02548015600014610b08575050915b60405193848092631127a41d60e31b82525afa801561034d5781610ade91602094600091610aeb575b50612cd6565b6001600055604051908152f35b610b029150853d871161090b576108fd81836121be565b85610ad8565b610b1590610b1a93612400565b612413565b91610aaf565b610b29916121be565b8480610a64565b8280fd5b610b4d915060203d60201161074b5761073c81836121be565b846105f3565b610b5c916121be565b83836109d7565b3461019457602036600319011261019457610b7c612c9b565b6000610b86612299565b8160206001600160a01b03600154166064604051809481937f23b872dd00000000000000000000000000000000000000000000000000000000835233600484015230602484015260043560448401525af180156107525760209350610c46575b50610bef6126c8565b610bfb81610a7a612299565b907f52c63247e1f47db19d5ce0460030c497f067ca4cebf71ba98eeadabe20bace02548015600014610c345750505b610ade8133612cd6565b610b1590610c4193612400565b610c2a565b610c5c90833d851161074b5761073c81836121be565b610be6565b34610194576000366003190112610194576040518060206002549283815201809260026000527f405787fa12a823e0f2b7631cc41b3ba8828b3321ca811111fa75cd3aa3bb5ace9060005b818110610d0e5750505081610cc29103826121be565b6040519182916020830190602084525180915260408301919060005b818110610cec575050500390f35b82516001600160a01b0316845285945060209384019390920191600101610cde565b82546001600160a01b0316845260209093019260019283019201610cac565b3461019457604036600319011261019457610d53610d49612192565b6024359033612a45565b602060405160018152f35b3461019457604036600319011261019457600435610d7a6121a8565b90600090610d86612996565b6001600160a01b036004541692833b15610b305760405162f887cf60e81b81526001600160a01b0382166004820152600260248201528381604481885afa80156108555790846001600160a01b039392610fe9575b5050169260405190630b37927d60e21b82526004820152602081602481875afa9081156107525790610e13918491610912575061267d565b610e2261060d82610608612299565b90604051631127a41d60e31b8152602081600481885afa90811561085557610e5291839186916108e35750612b9c565b610e5a6128f2565b828110610eb0575050908181936001600160a01b036001541673eeeeeeeeeeeeeeeeeeeeeeeeeeeeeeeeeeeeeeee81146000146106dc575082809281928282156106d357f1156106c65760209150604051908152f35b610ebe908395949295612389565b9281935b600254851080610fe0575b156108b1576001600160a01b03610ee386612271565b90549060031b1c1660405163765ef2f360e11b8152602081600481855afa9081156108a65785929189918491610fa5575b5061060d60209392610f2592612400565b848111610f9e575b6024906040519485938492632e1a7d4d60e01b845260048401525af1908115610855578491610f6b575b5061081290610f6592612389565b93610ec2565b90506020813d8211610f96575b81610f85602093836121be565b810103126108495751610f65610f57565b3d9150610f78565b5083610f2d565b92935050506020813d8211610fd8575b81610fc2602093836121be565b8101031261089a5751849190889061060d610f14565b3d9150610fb5565b50801515610ecd565b610ff2916121be565b8584610ddb565b3461019457602036600319011261019457600460206001600160a01b036110208335612271565b90549060031b1c16604051928380927faffd80b00000000000000000000000000000000000000000000000000000000082525afa801561034d5760009061106d575b602090604051908152f35b506020813d602011611098575b81611087602093836121be565b810103126101945760209051611062565b3d915061107a565b346101945760003660031901126101945760405160007f52c63247e1f47db19d5ce0460030c497f067ca4cebf71ba98eeadabe20bace04546110e181612237565b80845290600181169081156111975750600114611119575b61111583611109818503826121be565b60405191829182612149565b0390f35b7f52c63247e1f47db19d5ce0460030c497f067ca4cebf71ba98eeadabe20bace0460009081527f46a2803e59a4de4e7a4c574b1243f25977ac4c77d5a1a4a609b5394cebb4a2aa939250905b80821061117d575090915081016020016111096110f9565b919260018160209254838588010152019101909291611165565b60ff191660208086019190915291151560051b8401909101915061110990506110f9565b346101945760803660031901126101945760043567ffffffffffffffff8111610194576111ec9036906004016121e0565b60243567ffffffffffffffff81116101945761120c9036906004016121e0565b906044356001600160a01b03811680910361019457606435906001600160a01b038216809203610194577ff0c57e16840df040f15088dc2f81fe391c3923bec73e23a9662efc9c229c6a00549260ff8460401c16159367ffffffffffffffff8116801590816117ce575b60011490816117c4575b1590816117bb575b506117915767ffffffffffffffff1981166001177ff0c57e16840df040f15088dc2f81fe391c3923bec73e23a9662efc9c229c6a005584611752575b506112cd612d92565b6112d5612d92565b6112dd612d92565b6112e683612826565b6112ee612d92565b6112f6612d92565b80519067ffffffffffffffff82116104365781906113347f52c63247e1f47db19d5ce0460030c497f067ca4cebf71ba98eeadabe20bace0354612237565b601f81116116c3575b50602090601f831160011461161d57600092611612575b50508160011b916000199060031b1c1916177f52c63247e1f47db19d5ce0460030c497f067ca4cebf71ba98eeadabe20bace03555b835167ffffffffffffffff8111610436576113c47f52c63247e1f47db19d5ce0460030c497f067ca4cebf71ba98eeadabe20bace0454612237565b601f811161158e575b50602094601f82116001146114e9579481929394956000926114de575b50508160011b916000199060031b1c1916177f52c63247e1f47db19d5ce0460030c497f067ca4cebf71ba98eeadabe20bace04555b73ffffffffffffffffffffffffffffffffffffffff19600154161760015573ffffffffffffffffffffffffffffffffffffffff19600454161760045561146157005b68ff0000000000000000197ff0c57e16840df040f15088dc2f81fe391c3923bec73e23a9662efc9c229c6a0054167ff0c57e16840df040f15088dc2f81fe391c3923bec73e23a9662efc9c229c6a00557fc7f505b2f371ae2175ee4913f4499e1f2633a7b5936321eed1cdaeb6115181d2602060405160018152a1005b0151905085806113ea565b601f198216957f52c63247e1f47db19d5ce0460030c497f067ca4cebf71ba98eeadabe20bace04600052806000209160005b8881106115765750836001959697981061155d575b505050811b017f52c63247e1f47db19d5ce0460030c497f067ca4cebf71ba98eeadabe20bace045561141f565b015160001960f88460031b161c19169055858080611530565b9192602060018192868501518155019401920161151b565b7f52c63247e1f47db19d5ce0460030c497f067ca4cebf71ba98eeadabe20bace046000527f46a2803e59a4de4e7a4c574b1243f25977ac4c77d5a1a4a609b5394cebb4a2aa601f830160051c81019160208410611608575b601f0160051c01905b8181106115fc57506113cd565b600081556001016115ef565b90915081906115e6565b015190508680611354565b7f52c63247e1f47db19d5ce0460030c497f067ca4cebf71ba98eeadabe20bace0360009081528281209350601f198516905b8181106116ab5750908460019594939210611692575b505050811b017f52c63247e1f47db19d5ce0460030c497f067ca4cebf71ba98eeadabe20bace0355611389565b015160001960f88460031b161c19169055868080611665565b9293602060018192878601518155019501930161164f565b7f52c63247e1f47db19d5ce0460030c497f067ca4cebf71ba98eeadabe20bace036000529091507f2ae08a8e29253f69ac5d979a101956ab8f8d9d7ded63fa7a83b16fc47648eab0601f840160051c81019160208510611748575b90601f859493920160051c01905b818110611739575061133d565b6000815584935060010161172c565b909150819061171e565b68ffffffffffffffffff191668010000000000000001177ff0c57e16840df040f15088dc2f81fe391c3923bec73e23a9662efc9c229c6a0055856112c4565b7ff92ee8a90000000000000000000000000000000000000000000000000000000060005260046000fd5b90501587611288565b303b159150611280565b869150611276565b346101945760003660031901126101945760206001600160a01b037f9016d09d72d40fdae2fd8ceac6b6234c7706214fd39c1cd1e609a0528c1993005416604051908152f35b3461019457600036600319011261019457602061018c61186f336001600160a01b03166000527f52c63247e1f47db19d5ce0460030c497f067ca4cebf71ba98eeadabe20bace0060205260406000205490565b61245a565b346101945760003660031901126101945761188d612996565b60006001600160a01b037f9016d09d72d40fdae2fd8ceac6b6234c7706214fd39c1cd1e609a0528c1993005473ffffffffffffffffffffffffffffffffffffffff1981167f9016d09d72d40fdae2fd8ceac6b6234c7706214fd39c1cd1e609a0528c19930055167f8be0079c531659141344cd1fd0a4f28419497f9722a3daafe3b4186f6b6457e08280a3005b3461019457602036600319011261019457602061018c611938612192565b6001600160a01b03166000527f52c63247e1f47db19d5ce0460030c497f067ca4cebf71ba98eeadabe20bace0060205260406000205490565b3461019457602036600319011261019457602061018c61060d600435610608612299565b346101945760003660031901126101945760206001600160a01b0360015416604051908152f35b34610194576000366003190112610194576000806002545b808210611a10578280612710039061271082116119fa5760409182519182526020820152f35b634e487b7160e01b600052601160045260246000fd5b9091611a296001916001600160a01b036103bd86612271565b9201906119d4565b3461019457600036600319011261019457602060405160128152f35b3461019457602036600319011261019457602061018c60043561245a565b3461019457606036600319011261019457611a84612192565b611a8c6121a8565b60443590611acc836001600160a01b03166000527f52c63247e1f47db19d5ce0460030c497f067ca4cebf71ba98eeadabe20bace01602052604060002090565b6001600160a01b033316600052602052604060002054926000198410611af7575b610d539350612a45565b828410611bd0576001600160a01b03811615611ba1573315611b7257610d5393611b53826001600160a01b03166000527f52c63247e1f47db19d5ce0460030c497f067ca4cebf71ba98eeadabe20bace01602052604060002090565b6001600160a01b03331660005260205283604060002091039055611aed565b7f94280d6200000000000000000000000000000000000000000000000000000000600052600060045260246000fd5b7fe602df0500000000000000000000000000000000000000000000000000000000600052600060045260246000fd5b82847ffb8f41b2000000000000000000000000000000000000000000000000000000006000523360045260245260445260646000fd5b34610194576020366003190112610194576004356001600160a01b03811680820361019457611c33612996565b611c3e811515612396565b611c47826129f7565b611d8f576040517f8d928af8000000000000000000000000000000000000000000000000000000008152602081600481855afa801561034d576001600160a01b0391600091611d70575b501630149081611ced575b50611ca690612396565b600254906801000000000000000082101561043657611cce8260016101c29401600255612271565b9091906001600160a01b038084549260031b9316831b921b1916179055565b6004915060206001600160a01b036001541691604051938480927f5c222bad0000000000000000000000000000000000000000000000000000000082525afa91821561034d57611ca6926001600160a01b0391600091611d51575b50161490611c9c565b611d6a915060203d60201161090b576108fd81836121be565b85611d48565b611d89915060203d60201161090b576108fd81836121be565b84611c91565b606460405162461bcd60e51b815260206004820152601760248201527f537472617465677920616c7265616479206578697374730000000000000000006044820152fd5b346101945760003660031901126101945760207f52c63247e1f47db19d5ce0460030c497f067ca4cebf71ba98eeadabe20bace0254604051908152f35b34610194576020366003190112610194576004356001600160a01b0381169081810361019457610282611e4a91611e45612996565b6129f7565b60025460005b818110611e5957005b826001600160a01b03611e6b83612271565b90549060031b1c1614611e8057600101611e50565b6001600160a01b03611e9182612271565b90549060031b1c16803b156101945760008091600460405180948193630f8d564160e31b83525af1801561034d57611f54575b50611ecd6126c8565b60001982019182116119fa57611cce6001600160a01b03611ef0611efe94612271565b90549060031b1c1691612271565b6002548015611f3e5760001901611f1481612271565b6001600160a01b0382549160031b1b19169055600255600052600360205260006040812055600080f35b634e487b7160e01b600052603160045260246000fd5b6000611f5f916121be565b83611ec4565b3461019457600036600319011261019457602061018c612299565b34610194576020366003190112610194576004356001600160a01b0381168091036101945760005260036020526020604060002054604051908152f35b3461019457604036600319011261019457611fd6612192565b602435903315611ba1576001600160a01b0316908115611b72573360009081527f52c63247e1f47db19d5ce0460030c497f067ca4cebf71ba98eeadabe20bace016020526040902082600052602052806040600020556040519081527f8c5be1e5ebec7d5bd14f71427d1e84f3dd0314c0f7b2291e5b200ac8c7c3b92560203392a3602060405160018152f35b346101945760003660031901126101945760405160007f52c63247e1f47db19d5ce0460030c497f067ca4cebf71ba98eeadabe20bace03546120a481612237565b808452906001811690811561119757506001146120cb5761111583611109818503826121be565b7f52c63247e1f47db19d5ce0460030c497f067ca4cebf71ba98eeadabe20bace0360009081527f2ae08a8e29253f69ac5d979a101956ab8f8d9d7ded63fa7a83b16fc47648eab0939250905b80821061212f575090915081016020016111096110f9565b919260018160209254838588010152019101909291612117565b91909160208152825180602083015260005b81811061217c575060409293506000838284010152601f8019910116010190565b806020809287010151604082860101520161215b565b600435906001600160a01b038216820361019457565b602435906001600160a01b038216820361019457565b90601f8019910116810190811067ffffffffffffffff82111761043657604052565b81601f820112156101945780359067ffffffffffffffff82116104365760405192612215601f8401601f1916602001856121be565b8284526020838301011161019457816000926020809301838601378301015290565b90600182811c92168015612267575b602083101461225157565b634e487b7160e01b600052602260045260246000fd5b91607f1691612246565b6002548110156102b257600260005260206000200190600090565b919082018092116119fa57565b6122a16128f2565b9060006002545b8082106122b3575050565b9092600460206001600160a01b036122ca87612271565b90549060031b1c166040519283809263765ef2f360e11b82525afa90811561034d57600091612309575b506123019060019261228c565b9301906122a8565b906020823d8211612336575b81612322602093836121be565b8101031261233357505160016122f4565b80fd5b3d9150612315565b1561234557565b606460405162461bcd60e51b815260206004820152601260248201527f5374726174656779206e6f7420666f756e6400000000000000000000000000006044820152fd5b919082039182116119fa57565b1561239d57565b606460405162461bcd60e51b815260206004820152601060248201527f496e76616c6964207374726174656779000000000000000000000000000000006044820152fd5b9081602091031261019457516001600160a01b03811681036101945790565b818102929181159184041417156119fa57565b811561241d570490565b634e487b7160e01b600052601260045260246000fd5b60001981146119fa5760010190565b90816020910312610194575180151581036101945790565b61246961060d82610608612299565b906124748133612b9c565b61247c6128f2565b828110612528575b5050906001600160a01b036001541673eeeeeeeeeeeeeeeeeeeeeeeeeeeeeeeeeeeeeeee81146000146124d6575081600081156124cd575b600080809381933390f11561034d57565b506108fc6124bc565b60405163a9059cbb60e01b81523360048201526024810184905290602090829060449082906000905af1801561034d5761250d5750565b6125259060203d60201161074b5761073c81836121be565b50565b6125329083612389565b926000935b600254851080612674575b15612650576001600160a01b0361255886612271565b90549060031b1c1660405163765ef2f360e11b8152602081600481855afa801561034d57859160009161261a575b509161259961060d602093600095612400565b848111612613575b6024906040519485938492632e1a7d4d60e01b845260048401525af190811561034d576000916125e0575b50610812906125da92612389565b93612537565b906020823d821161260b575b816125f9602093836121be565b810103126123335750516125da6125cc565b3d91506125ec565b50836125a1565b91506020823d8211612648575b81612634602093836121be565b810103126123335750518490612599612586565b3d9150612627565b5092505061265c6128f2565b8181111561266d57505b3880612484565b9050612666565b50801515612542565b1561268457565b606460405162461bcd60e51b815260206004820152600e60248201527f4e6f7420617574686f72697a65640000000000000000000000000000000000006044820152fd5b6126d06128f2565b9060005b600254811015612821576001600160a01b036126ef82612271565b90549060031b1c169081600052600360205261271061271360406000205486612400565b048015612817576000906001600160a01b036001541673eeeeeeeeeeeeeeeeeeeeeeeeeeeeeeeeeeeeeeee811483146127b55750818080928682f11561034d575b813b1561019457600080926004604051809581937fd0e30db00000000000000000000000000000000000000000000000000000000083525af191821561034d576001926127a4575b505b016126d4565b60006127af916121be565b3861279c565b60405163a9059cbb60e01b81526001600160a01b03861660048201526024810192909252909160209183916044918391905af1801561034d576127f9575b50612754565b6128109060203d811161074b5761073c81836121be565b50386127f3565b506001915061279e565b509050565b6001600160a01b031680156128c3576001600160a01b037f9016d09d72d40fdae2fd8ceac6b6234c7706214fd39c1cd1e609a0528c199300548273ffffffffffffffffffffffffffffffffffffffff198216177f9016d09d72d40fdae2fd8ceac6b6234c7706214fd39c1cd1e609a0528c19930055167f8be0079c531659141344cd1fd0a4f28419497f9722a3daafe3b4186f6b6457e0600080a3565b7f1e4fbdf700000000000000000000000000000000000000000000000000000000600052600060045260246000fd5b6001546001600160a01b031673eeeeeeeeeeeeeeeeeeeeeeeeeeeeeeeeeeeeeeee810361291e57504790565b6020602491604051928380927f70a082310000000000000000000000000000000000000000000000000000000082523060048301525afa90811561034d57600091612967575090565b90506020813d60201161298e575b81612982602093836121be565b81010312610194575190565b3d9150612975565b6001600160a01b037f9016d09d72d40fdae2fd8ceac6b6234c7706214fd39c1cd1e609a0528c199300541633036129c957565b7f118cdaa7000000000000000000000000000000000000000000000000000000006000523360045260246000fd5b6002549060005b828110612a0d57505050600090565b6001600160a01b03612a1e82612271565b90549060031b1c166001600160a01b03831614612a3d576001016129fe565b505050600190565b6001600160a01b0316908115612b6d576001600160a01b0316918215612b3e5760008281527f52c63247e1f47db19d5ce0460030c497f067ca4cebf71ba98eeadabe20bace006020526040812054828110612b245791604082827fddf252ad1be2c89b69c2b068fc378daa952ba7f163c4a11628f55a4df523b3ef9587602096527f52c63247e1f47db19d5ce0460030c497f067ca4cebf71ba98eeadabe20bace00865203828220558681527f52c63247e1f47db19d5ce0460030c497f067ca4cebf71ba98eeadabe20bace00845220818154019055604051908152a3565b60649363391434e360e21b83949352600452602452604452fd5b7fec442f0500000000000000000000000000000000000000000000000000000000600052600060045260246000fd5b7f96c6fd1e00000000000000000000000000000000000000000000000000000000600052600060045260246000fd5b6001600160a01b03168015612b6d576000918183527f52c63247e1f47db19d5ce0460030c497f067ca4cebf71ba98eeadabe20bace006020526040832054818110612c8257817fddf252ad1be2c89b69c2b068fc378daa952ba7f163c4a11628f55a4df523b3ef926020928587527f52c63247e1f47db19d5ce0460030c497f067ca4cebf71ba98eeadabe20bace008452036040862055807f52c63247e1f47db19d5ce0460030c497f067ca4cebf71ba98eeadabe20bace0254037f52c63247e1f47db19d5ce0460030c497f067ca4cebf71ba98eeadabe20bace0255604051908152a3565b839263391434e360e21b60649552600452602452604452fd5b600260005414612cac576002600055565b7f3ee5aeb50000000000000000000000000000000000000000000000000000000060005260046000fd5b6001600160a01b0316908115612b3e577fddf252ad1be2c89b69c2b068fc378daa952ba7f163c4a11628f55a4df523b3ef602082612d376000947f52c63247e1f47db19d5ce0460030c497f067ca4cebf71ba98eeadabe20bace025461228c565b7f52c63247e1f47db19d5ce0460030c497f067ca4cebf71ba98eeadabe20bace02558484527f52c63247e1f47db19d5ce0460030c497f067ca4cebf71ba98eeadabe20bace00825260408420818154019055604051908152a3565b60ff7ff0c57e16840df040f15088dc2f81fe391c3923bec73e23a9662efc9c229c6a005460401c1615612dc157565b7fd7e6bcf80000000000000000000000000000000000000000000000000000000060005260046000fdfea2646970667358221220da0059e33541b43fc12b2cad2fddf9ec7d1266c157d7900ed36db1df0e72017b64736f6c634300081c0033",
  "linkReferences": {},
  "deployedLinkReferences": {}
}